:020000040800F2
:10000000A80D00206D620008373D0408373D040844
:10001000C95D0408373D0408373D0408373D04082E
:10002000373D0408373D0408373D0408373D0408D0
:10003000373D0408373D040809360408373D0408F5
:10004000373D0408373D0408373D0408373D0408B0
:10005000373D0408373D0408373D0408373D0408A0
:10006000373D0408373D0408373D040849110108AD
:100070009D7E0408373D0408373D0408373D0408D9
:10008000373D0408373D0408373D0408373D040870
:10009000373D0408A9700008373D0408373D0408BF
:1000A000373D0408B56C0008956C0008373D04081E
:1000B000373D04089DED020871F60208A5300508D9
:1000C000A1300508E5ED0208BB300508A930050898
:1000D00041F60208AD300508B1F6020819F702082A
:1000E000373D0408373D0408373D0408373D040810
:1000F00071520408373D0408373D0408373D0408B1
:10010000373D0408373D0408373D0408373D0408EF
:10011000373D0408373D0408373D0408373D0408DF
:10012000373D0408373D0408373D0408373D0408CF
:10013000373D0408373D0408373D0408373D0408BF
:10014000373D0408373D0408373D04085956050873
:10015000B1D70208373D04088F30050895300508EF
:10016000373D0408373D0408373D0408373D04088F
:10018000F0B5114A114C124E00F00105E3695F070A
:1001900013D40DB9334213D103EA00078F4207D1BC
:1001A0000B4A1A40002A0CBF00206FF00100F0BD7E
:1001B000013AEBD16FF00200F9E74FF0FF30F6E7BC
:1001C0006FF00100F3E700BF809698000000035035
:1001D000020001000B4B70B5D96911F480310DD1CB
:1001E00001244FF48072084E084DF46020462C64C0
:1001F0001A61FFF7C5FF3464EC6070BD6FF0010059
:10020000FBE700BF00000350001003500020035024
:100210004FF4803238B50E4B0E4C9A66E56941F6C4
:10022000713315400122E3630B4B0021DA60022396
:10023000606121202361FFF7A3FF10B92120FFF7A0
:100240009FFF0122054BDA600DB10023E36338BD47
:100250000090005000000350001003500020035095
:1002600070B5134C6061E3695B071ED40E4656F807
:10027000043B8D18A361AE420BD104230021212041
:100280002361FFF77DFF58B9BDE870402120FFF7DB
:1002900077BF08210846FFF773FF10B104232361DD
:1002A00070BD56F8043BA361E5E74FF0FF30F7E778
:1002B000000003502DE9F84315464FF48032184BE7
:1002C00089469A6603F51C33DF690646174041F6F6
:1002D0007132DA63012203F58053DFF84C80DA6073
:1002E00055B9284601220F4BDA601FB10022A3F551
:1002F0000053DA63BDE8F88306F5005404EA080405
:10030000A41BAC4228BF2C46494622463046FFF784
:10031000A7FF0028E6D12644A1442D1BE0E700BF3B
:10032000009000500020035000E0FFFF000000009C
:1003300000000000000000000000000000000000BD
:10034000013800D0FCE770472DE9F04F93B0CDE9BC
:100350000A32DDE91C530E9353EC102BCDE9080152
:10036000104619468DED060B1E9E11F049FD80B119
:10037000DDE906014FF0FF32C54B11F069FD40B9D0
:10038000DDE906014FF0FF326FF4801311F042FDFA
:1003900070B1DDE908019DED060B0E9B1E96CDE9BF
:1003A0001C53DDE90A3213B0BDE8F04F00F088B904
:1003B0000022DDE90601002311F02CFD002800F0E9
:1003C0003381DDE906A303F1004BCBF30A5016F4A9
:1003D0008063A0F2FF3008BF06250F9311F03EFAAC
:1003E0009BA3D3E9002311F0A3FA9BA3D3E9002335
:1003F00011F0E8F8CBF31304894644F07F518046AE
:100400000022A44B504641F4401111F0D9F894A3B6
:10041000D3E9002311F08CFA02460B4640464946C8
:1004200011F0D0F811F01EFD044611F017FA8EA35A
:10043000D3E900238046894611F07AFA0022964BD0
:1004400011F0C0F811F00EFD89A3D3E9002307468F
:100450004946404611F06CFA80463846894611F00C
:10046000FDF985A3D3E9002311F062FA02460B4699
:100470004046494611F0A4F802460B46CDE90C234C
:1004800011F056FADDE90C238046894610461946DC
:1004900011F098F80022CDE91001804B4046494602
:1004A00011F070FB00227E4B11F08CF802460B46D7
:1004B0004046494611F066FB00227A4B11F082F863
:1004C00002460B464046494611F05CFBDDE90C2331
:1004D0008046894600204FF0804111F071F80246B5
:1004E0000B464046494611F06DF802460B46DDE9E1
:1004F000100111F047FB07F2FF3700226A4B11F0A1
:1005000061F800223B0511F013FA52465B46804623
:10051000894611F09DFC002840F08980CDE90C89C6
:1005200004F16303C72B34BF0427052731051BD50E
:1005300053A3D3E900235046594611F07FFC00280D
:100540007FD051A3D3E900235046594611F062FCF5
:10055000002876D00027A542C6BF2C1B04F1FF352A
:1005600000253C4646F480660E9B9F422CBF4FF010
:100570000008A3EB070816F0020903D0002F18BFEC
:100580004FF000083CB1DDE90C235046594611F00C
:10059000F9FA82468B46DDE906010022002311F0BC
:1005A00039FC10B10BF100439B46DDE9080126F44C
:1005B0000063CDE90183DDE90A324BEC10AB009515
:1005C00000F07EF802465FB3DDE9091316F0200F54
:1005D00000F10105089E0CBF65204520B047DDE90C
:1005E00008010523002205930A23002CCDE90232DD
:1005F00007F1FF374FEAD473B8BF64422A4601932C
:1006000004970A9B009445F034FD0246B9F1000FAF
:1006100006D00B9BC41A0B9B1A190E9BA34245D8FC
:10062000104613B0BDE8F08FDDE906ABCDE6002241
:10063000404649461A4B11F0A5FA013CCDE90C01A0
:100640006EE7002D90D00F9B002B8DD0013D8BE7E6
:10065000FB799F501344D33FB3C8608B288AC63FB1
:1006600061436F63A787D23F71A379094F930A4013
:100670001655B5BBB16B0240EF39FAFE422EE63F8C
:100680002D431CEBE2361A3F0000000080842E410F
:10069000FFFFEF7F0000F83F0000E03F00002C402C
:1006A00000002440000018400000F03F2020DDE959
:1006B0000913089DA8470134ADE700BF0000000002
:1006C0002DE9F04F5BEC10AB97B0CDE90501DDE90A
:1006D0002057CDE90723504652465B465946229E95
:1006E00011F08EFB70B90323CDE902760193B04B74
:1006F0000093DDE90501DDE9072345F0DAFB17B0DA
:10070000BDE8F08F4FF0FF326FF48013504659462A
:1007100011F080FB28B10423CDE902760193A54BAB
:10072000E6E74FF0FF3250465946A34B11F090FBDD
:1007300068B1A24A06F00403002B08BF0322A04BB5
:100740001CBF13460422CDE902760192D0E7504641
:1007500093A3D3E90023594611F07AFB38B992A349
:10076000D3E900235046594611F054FB68B1DDE946
:100770000723DDE905014BEC10ABCDE9217620958F
:1007800017B0BDE8F04FFFF7DFBD00220023504651
:10079000594611F03FFB002800F09A805B46524614
:1007A0000020002110F00CFF012382468B460993A4
:1007B00016F4806400F08E80092D40F28E800024B3
:1007C00030210EABA5F109020134202C03F8011BE6
:1007D000A5EB040901D09442F6D15946504611F0D8
:1007E00041FB784B054603EBC90393ED007B8DED90
:1007F0000A7B11F033F802460B465046594610F07A
:10080000DFFEDDE90A2311F093F802460B46CDE93D
:100810000C2311F04FFB804611F010F802460B46F6
:10082000DDE90C0110F0CCFE02460B46CDE90C23AD
:100830000022654B11F00CFB002851D008F1010893
:10084000404610F0FBFF02460B46DDE90A0111F0BD
:10085000EBFA10B14FF000080135B9F1000F50D19B
:10086000284610F0FBFF02460B465046594610F052
:10087000A7FE0022544B8046894611F0CBFA30B1D6
:10088000002240464946504B11F0E2FA10B1E80709
:1008900000D501350A210EAB1A19202C0AD095FB80
:1008A000F1F001FB1055303502F8015B01340546CB
:1008B0000028F2D106F00302012A57D1002F55D0AB
:1008C000099A12B916F00C0F00D0013F302245E012
:1008D00009906DE74FF006097FE7A94600247CE701
:1008E0000022DDE90C01384B11F094FA0028B4D154
:1008F000B8F1000F02D018F0010FAED008F10108D6
:10090000ABE70A210EAB2344202C0ED0B8FBF1F04C
:1009100001FB1082B8F1090F02F1300209F1FF3931
:1009200004F1010403F8012B11D83021A1440EAACF
:10093000202CAFD0A14504F101030AD11C4609F1D6
:1009400058030DEB03092E2309F8203CA2E780464B
:10095000DAE7A1541C46EBE71A550134A74205D942
:10096000202CF9D1CDE902760194C1E6202CF9D0F2
:10097000099A3AB12D2104F158026A4402F8201C68
:100980000134EFE7710704D504F158022B216A44C2
:10099000F4E73207E6D504F1580220216A44EDE776
:1009A0000000000065CDCD410000000065CDCDC147
:1009B0007092050874920508FFFFEF7F67920508A3
:1009C0006C920508809205080000E03F00000000DE
:1009D0002DE9F04F2DED028B002597B01D7003938C
:1009E000229B074607911D60002800F03C81437858
:1009F000047844EA0324837844EA0344C37844EA4D
:100A0000036463783F2B00F22E81AA4214BF0623B1
:100A100008238DF8243009230C958DF8263042796F
:100A2000037908469FEDA48B43EA02234A790434F4
:100A3000023292008DF825200AAA0092043B9BB254
:100A40002146007909AA8DED0A8B3AF0CFF80A9B6E
:100A50000646049360B1049B23B10C991846C91A49
:100A600045F0E3F8304617B0BDEC028BBDE8F08FDF
:100A70000B98039DC01A40102870C0B200EB4000D4
:100A80008F49800052F03BFB8346002800F0108124
:100A90002B788DED0E8B1096002B00F0FA803346EC
:100AA00002960299E279591A8A42B246B04600F299
:100AB000AC8004D202991144994218BF0F91002AC8
:100AC00040F0AD807A783B7894F802E043EA022364
:100AD000BA7894F803C043EA0243FA7808EB480175
:100AE00043EA026300220BEB810514925A781878CE
:100AF00085F802E085F803C002F00F03E2798DED7E
:100B0000128B6A7194F906202A710BF821000EAA43
:100B10006B70204612AB09A938F048F881460028CE
:100B20003BD01298149910B1091A45F07EF8039B36
:100B30001B78F3B100252C462E4604EB44040BEB46
:100B40008404627A207A40EA0220A27A40EA0240D3
:100B5000E27A50EA026000F0968045F064F8039B68
:100B600001351B7826726672A672E672ECB29C4260
:100B7000E3D3584645F057F80023029A1099891A92
:100B8000039A1370029B13B1184645F04EF8049B6C
:100B90004E46002B7FF461AF64E7DDE91232D21AD2
:100BA000104647490693059252F0A9FAC0F3072C64
:100BB00085F809C0C0F3074C85F80AC04FEA106CED
:100BC000069B287285F80BC0002865D0059A002A7C
:100BD00035D185F8069085F80790002B40D1049B0D
:100BE0000AF1010A33F81820E3795FFA8AF83344EE
:100BF000DEB2039B14441B7843453BD90F9B0299FB
:100C0000E279591A8A427FF654AF511A0EA837F08A
:100C10006FFF0E9BE2790293002A3FF453AF0798CF
:100C20004378017841EA0321837841EA0341C3789C
:100C3000029841EA0361314447F0BBF942E71946A3
:100C40000692059347F0B5F9069A1499059BAA7187
:100C5000C2F30722EA71C91A184644F0E6FFBEE75C
:100C60001499C91AF8E70B26304617B0BDEC028B71
:100C7000BDE8F08F229B1099C3F800B0029BC91AFF
:100C8000002B81D183E70135ECB29C42FFF455AFD4
:100C90006FE7229B1860DEE63BB114991846C91A2B
:100CA00044F0C3FF4FF0020941E74FF002093EE76D
:100CB0000226D0E6AFF30080000000000000000034
:100CC000802106080348044B834202D0034B03B142
:100CD00018477047F4960020F496002000000000AA
:100CE000064B0749C91A891048BF0131491003D082
:100CF000044B0BB101481847704700BFF496002021
:100D0000F49600200000000010B5064C237843B98B
:100D1000FFF7D8FF044B13B10448AFF30080012361
:100D2000237010BD1C74002000000000782C060801
:100D300008B5054B1BB105490548AFF30080BDE878
:100D40000840FFF7CDBF00BF00000000D014002016
:100D5000782C0608A3F5803A704700BF174B002B8C
:100D600008BF134B9D46FFF7F5FF00218B460F464A
:100D70001348144A121A47F036F90E4B002B00D0D4
:100D800098470D4B002B00D098470020002104000D
:100D90000D000D48002802D00C48AFF3008011F080
:100DA00039FC2000290047F07BF811F083FA00BFDE
:100DB000000008000000000000000000A80D002056
:100DC000A80D0020008E00200000000000000000A0
:100DD00013B5094C237863B9022304200093074A12
:100DE0004FF4805306490EF0D9F80028A4BF012320
:100DF000237002B010BD00BF1E8400201D740020AF
:100E0000A859050830B5154B87B01B780546144620
:100E1000019103B342F0DCFB4FF41B630D22CDF8CC
:100E20000D00CDF81110042002A902938DF80C508A
:100E30000EF088F804220DEB020110460EF082F845
:100E4000019B21461A0202F4E062C3F30723042047
:100E50001A430EF077F807B030BD00BF1D840020A4
:100E600030B5144B05461B7885B003F0FF04F3B191
:100E7000FF2928BFFF210C4642F0AAFB04F109021A
:100E800013029BB243EA122343F0807343F0B00392
:100E90000D22CDE900300291042069468DF80C4006
:100EA0000EF050F82246294604200EF04BF820465A
:100EB00005B030BD1D8400200122014B1A7070471F
:100EC0001D8400201FB542F083FB084B0391CDE940
:100ED00001300C22042001A90EF034F804200EF099
:100EE0008FF80028FAD105B05DF804FBB0080002C5
:100EF00037B5044619F0E8FF054600284AD1A36833
:100F000043F40033A36048F02AF9A368244A43F469
:100F1000A013A360A261257744F0B9FFA368A08065
:100F20001B030CD4B0F5FA7F09D954F04CFA012117
:100F30000546084653F0E8F9284654F03FFA2046A3
:100F400019F0EAFF38BBE06838B31CF03FF818F03E
:100F500025F818F061FE4BF072F949F0E2FC40F21E
:100F60000443ADF80430FF2301A88DF8063013F0D8
:100F700055FB0022042011464AF0CAFB032104203D
:100F80001BF092F90A2012F0ADFF19F07DFF204608
:100F900042F035FB002003B030BD0248D5E700BF6A
:100FA000050403006E93002008B50449044824F0AA
:100FB00083FEBDE8084024F0B1BE00BFB859050863
:100FC0007C5A05084FF08052014B5A60704700BFB1
:100FD00000ED00E0F8B50E460546D0B1C9B10E4BA4
:100FE0000E4F1968386807F04DF8044678B90623A3
:100FF00032460B49386807F013F9044638B9012323
:101000002A460849386807F00BF900B12C702046D1
:10101000F8BD2124FBE700BFFC8F00201C900020BE
:101020002C0004003C00040007B5084B1878FF288A
:1010300002D024F079F930B14FF6047301A8ADF86D
:10104000043046F0B9FE03B05DF804FB7F93002046
:1010500010B50D4C0D4805F04BFB23780BB124F077
:10106000BDF9FF220A4B01211A700022094B2270A0
:101070009A70152219705970DA701A7100F03EFBDF
:10108000BDE8104000F02CB91F840020E8140020B7
:101090007F9300202084002038B500F06BF90446CF
:1010A00000F0BCF9C0B10E4D2B789BB90D4B1B78ED
:1010B000FF2B11D1032C11D80B4C2279E178A078A9
:1010C00024F062F938B90121207824F073F910B9BD
:1010D00001232B70002038BD0220FCE71D20FAE719
:1010E0001F8400207F93002020840020F0B5054657
:1010F00085B00E4600F03EF95DB3194F3B78FF2BEB
:1011000029D1032829D8002342F21071154A164824
:10111000009305F00BFB0446A0B901460DF10F0347
:1011200000936A792B79286843EA022363F30F015D
:101130000E4B32461B7824F069F8044628B10A4861
:1011400005F0D6FA204605B0F0BD9DF80F303B7093
:10115000F8E72224F6E70224F4E71D24F2E700BFB3
:101160007F93002029100008E8140020208400202C
:10117000036837B523F47F43504A23F007039342B3
:10118000044621D009D8A2F5A022934217D002F537
:101190008022934273D003B030BD494A93424AD073
:1011A00002F57F029342F6D1464B1B78002BF2D01A
:1011B000454B1B78FF2BEED100F11E0369E003B015
:1011C000BDE83040FFF744BF3F4B017B1A789142A6
:1011D000E1D1C27A012ADED1FF223A4D3B481A7092
:1011E00005F086FA2B784BB124F0F8F808B34FF6E7
:1011F000047301A8ADF8043046F0DEFD607A227A6F
:10120000012342EA00226168207B00F077F830B1C8
:101210004FF6047301A8ADF8043046F0CDFD00236D
:101220008DF80430237B8DF8053001A846F0C4FD0D
:10123000B1E72870E2E7244D80792B78834205D10D
:10124000224805F055FAFF232B70A4E700F0AAF816
:101250000028A0D0A07900F0CFF800289BD0A0797A
:1012600000F070F830B14FF6047301A8ADF8043007
:1012700046F0A2FD02238DF80430A379D3E7114B89
:101280001B78002B87D0104B1B78FF2B83D100F1EC
:10129000160394F90D20E17A601D42F0BCF9002894
:1012A0003FF479AF11283FF476AF2D3801287FF64F
:1012B00072AF4FF60473ADF80430B6E7A000060035
:1012C000A00006011F8400207F930020E814002066
:1012D000024B187880F00100704700BF1F84002087
:1012E000FF22044B1A701A721A741A760022024BEB
:1012F0001A707047258400204584002073B56C4621
:1013000084E8060000220D4911F8326001EBC205A5
:10131000FF2E0ED101F832000098094AC5F80200EC
:1013200000206B70A388EB8013780133137002B038
:1013300070BD0132042AE7D11A20F8E72584002085
:10134000458400200023094A12F83310814208D155
:10135000FF2102F83310064A00201378013B137076
:1013600070470133042BEFD12D20704725840020D6
:1013700045840020014B1878704700BF4584002049
:10138000002210B5064911F83240D300844202D140
:10139000981C084410BD0132042AF4D10020F9E75A
:1013A000258400200023064A12F83310814204D01D
:1013B0000133042BF8D1002070470120704700BF93
:1013C0002584002070B5044680B10026094D15F82B
:1013D000023CFF2B05D006222146284646F0D9FDC7
:1013E00030B10136042E05F10805F0D1002070BDA2
:1013F0000120FCE72784002001460022064B1878D4
:10140000884202D15878012805D00132042A03F11C
:101410000803F4D10020704725840020024B18886F
:10142000003818BF01207047201500202DE9F04F2B
:101430008E4D90462E7893B0320789469A464FF0EB
:101440000004009035D4F30647D4F7074CD44FF08E
:10145000000B9AF800305F46013B0D9306F0040341
:1014600008932B7ACDE901BB00936B6809936B78E5
:1014700003F001030B9395F86430049395F86530FD
:101480000693069A049B13440C9395F85C300393DF
:1014900095F85D300593059A039B13440A9306F073
:1014A00002030F9306F02003079306F04003109306
:1014B0007BE04FF00804002705F1090B0622009994
:1014C0000BEB070046F065FD0028BCD006373C2F2B
:1014D000F4D1002013B0BDE8F08F95F8453044F00A
:1014E00010044B45F5D1B0E795F9023044F0010402
:1014F0004345ACDBEDE70AEB07035D7893F8029018
:101500000F9B002B36D0A9F10803012B32D8089A83
:10151000234644F002041ABB009BAB4230D2F81CB5
:10152000009A0999504446F034FD002808BF4FF056
:10153000010B079B002B00F08580B9F1210F40F0D3
:1015400081800A9B44F020049D42C2DD039B059AE2
:10155000D91903314648514446F01BFD10B3B8E792
:1015600043F00604009BAB42E3D2009A6B1E934209
:10157000DFD1D4E7109B1BB1A9F10203012B2ED9B7
:101580003006D6D5A9F10603012BD2D84FF00008BA
:10159000BA1C44F080046B1E0E9298453DDB079BFD
:1015A000002B4FD101353D44EFB20D9B9F42A2DB92
:1015B00016F0060F02D0BBF1000F8AD0710602D5DB
:1015C000019B002B85D0320602D5029B002B80D0D8
:1015D000264BA4B21888031B584258417AE74FF0B3
:1015E00000086B1E0E9344F04004BB1C0E9A9045FD
:1015F0009FDA03EB0801013102221E485144119386
:1016000046F0C7FC0028019B08BF012308F102082F
:1016100001935FFA88F8119BE8E711930E9B102263
:1016200003EB080101311448514446F0B2FC002894
:10163000029B08BF012308F1100802935FFA88F8A3
:10164000119BAAE70B9B002BACD0B9F1FF0FA9D1DE
:101650000C9B44F480749D427FF73BAF049B069A39
:10166000D91903310548514476E700BF2015002001
:1016700078150020661500206815002080150020D0
:10168000F8B506460D461746FFF722FEB8B1C6B1BB
:10169000284644F083F90D4C6060A0B12A463146DB
:1016A00046F0C9FC2378257243F0020323700FB97A
:1016B0000020F8BD237843F004032370F8E70220EC
:1016C000F7E72120F5E71920F3E700BF20150020F8
:1016D00010B50446FFF7FCFD50B15CB10020228834
:1016E000054BA3F846201A7842F040021A7010BD4C
:1016F0000220FCE72120FAE72015002010B5FFF7B3
:10170000E7FDF0B1104C606818B144F054FA0023C2
:101710006360A06D18B144F04EFA0023A365206EFB
:1017200018B144F048FA002323660020FE23A0707D
:10173000207284F84530A4F85C00A4F8640020808E
:1017400010BD0220FCE700BF2015002000234FF051
:10175000FF320449C818CA5006333C2B8280F9D1A5
:10176000FFF7CCBF29150020034A0449002808BF11
:101770001146022023F098BF345B05082C5B050856
:1017800038B504460B4890F8C020A2420FD00A4D4D
:101790000A49286843F0AAFD42F0ADFC42F0ACFCD7
:1017A00022460749286843F0A1FD002038BDA0F576
:1017B0008050FBE788250020642700203C5B05085B
:1017C000415B05082DE9F04FFF2807468846934600
:1017D0009A468BB000F09883002900F09783002B85
:1017E00000F09483159B002B00F09083149B002B3A
:1017F00000F08C839F4EDFF8A0929F49306843F041
:1018000075FD09F5805542F076FC42F075FC3A46CC
:101810009A49306843F06AFD95F8C030FF2B1DD01F
:101820009749306843F062FD42F065FC42F064FC89
:101830009449306843F05AFD9149306843F056FDB1
:1018400042F059FC42F058FC3A468F49306843F068
:101850004DFD1C2420460BB0BDE8F08F41F2441230
:101860000021484646F0BFFB4846002141F036FFC4
:101870004FF0FF33C5F8A83017230024A5F8BA307D
:10188000B5F8A430214603F0F00343F4867340F228
:101890004A7209F65800A5F8A430C9F8544846F031
:1018A000A2FB4922414605F15A0085F8BC4085F863
:1018B000C07046F0C0FB95F868906F4995F8668057
:1018C000306843F013FD42F016FC42F015FCCDF8F1
:1018D0000090434695F8C0206C49306843F006FDFF
:1018E000234622466A4995F8C00023F0F7FC0446D7
:1018F00098B16349306843F0F9FC42F0FCFB42F0D8
:10190000FBFB644995F8C020306843F0EFFC2D21C3
:101910002246614801F0A4FA9CE795F8C430ABB9BF
:1019200095F8C00023F08CFD044678B15449306826
:1019300043F0DCFC42F0DFFB42F0DEFB574995F858
:10194000C020306843F0D2FC2E21E1E7BBF8003024
:10195000514C484DA4F8B93F13F0FF03286804F533
:1019600080562FD1444943F0C1FC42F0C4FB42F001
:10197000C3FB96F8C0204A49286843F0B7FC149B83
:10198000484AC6F8D430159B94F8B91F96F85D0004
:10199000C6F8D0A0C6F8D83038F072FD82460028CC
:1019A0003AD03749286843F0A1FC42F0A4FB42F04A
:1019B000A3FB3D4953463A46286843F097FC21244F
:1019C0003021A5E7012B0AD12B4943F08FFC42F0CF
:1019D00092FB42F091FB96F8C0203449CCE7022BF1
:1019E0000AD1254943F082FC42F085FB42F084FB9A
:1019F00096F8C0202E49BFE72E4943F077FC42F00D
:101A00007AFB42F079FB94F8B93F96F8C0202A4956
:101A1000286843F06BFCB2E70A21224801F0F0FC91
:101A200082461549286843F061FC42F064FB42F0AD
:101A300063FB534696F8C0202049286843F056FCC3
:101A400096F8C000FFF79CFE00F5805A9AF85D30CA
:101A50008346022B45D19AF86730072B00F2448168
:101A6000DFE813F02E00C00042014201EB0042010A
:101A70004201FD0064270020835B0508885B0508A0
:101A80003C5B0508BD5B0508D85B0508085C0508DC
:101A90004C260020645C050888150020945C05082D
:101AA000C35C0508212600203C5E0508185D05087A
:101AB000765D0508C65D0508CB5D0508735E050803
:101AC0000123BE4980F8D33F286843F00FFC42F061
:101AD00012FB42F011FB9AF8C020B949286843F084
:101AE00005FC9AF867308AF868309AF85D30012B67
:101AF00020D19AF86B902868B9F1020F00F00981A3
:101B0000B9F1FE0F00F02A81B9F1010F40F03681E2
:101B1000AC4943F0EBFB42F0EEFA42F0EDFA9AF8F2
:101B2000C020A949286843F0E1FB8AF86C900023A3
:101B30008BF8D33FB6F8893063BB0DF126030493CD
:101B400009AB039396F89730029396F868300193A7
:101B500094F8B93F009396F8983096F85A2096F882
:101B60005E1096F85D0001F009F90446002800F0C7
:101B700057810F2C286840F01381924943F0B6FB3F
:101B800042F0B9FA42F0B8FA96F8C0208F492868B6
:101B900043F0ACFBB6F893300293B6F89130019362
:101BA000B6F88D300093B6F88B30B6F88120B6F8D1
:101BB0007F1096F8C00023F055FB0446002800F083
:101BC0004F818349286843F091FB42F094FA42F038
:101BD00093FA8049234696F8C020286843F086FB94
:101BE000312195E6B8F1010F286818D8754943F0FE
:101BF0007DFB42F080FA42F07FFA9AF8C0207649E5
:101C0000286843F073FB01222921584601F028F986
:101C100000238AF8673001238BF8D33F61E7022362
:101C20008BF8D33F654943F061FB42F064FA42F020
:101C300063FA9AF8C020694950E7B9F1010F2868A2
:101C4000D4D902238BF8D33F5C4943F04FFB42F0D9
:101C500052FA42F051FA9AF8C02061493EE7B9F1D0
:101C6000010F11D9B8F1010F1ED90423534980F88F
:101C7000D33F286843F03AFB42F03DFA42F03CFA89
:101C80009AF8C020574929E70122292101F0E8F8F4
:101C9000B9F1010F0FD1B8F1020F28680BD18BF801
:101CA000D38F8AF86790BDE70122292101F0D8F887
:101CB000B9F1020F0ED04349286843F017FB42F0F8
:101CC0001AFA42F019FA9AF8C0204349286843F0FA
:101CD0000DFB9DE7B8F1010F2868ECD104238BF8C8
:101CE000D39F8AF86730AFE73649286843F0FEFA99
:101CF00042F001FA42F000FA9AF8C0203A49286806
:101D000043F0F4FA01238BF8D33F00238AF86730BD
:101D1000E7E6B8F1010F0AD92A4943F0E7FA42F0A1
:101D2000EAF942F0E9F99AF8C0203049FAE6254983
:101D3000079343F0DBFA42F0DEF942F0DDF99AF85E
:101D4000C0202B49286843F0D1FA079B2A211A4664
:101D500058468AF86C3001F083F8E8E6174943F0FA
:101D6000C5FA42F0C8F942F0C7F99AF866309AF815
:101D7000C0202049286843F0B9FAD6E611490793F4
:101D800043F0B4FA42F0B7F942F0B6F99AF8C0203D
:101D90001949286843F0AAFA079B8AF86B30C6E60F
:101DA0000A2C2DD1074943F0A1FA42F0A4F942F0E0
:101DB000A3F996F8C0201149E9E600BF835B050846
:101DC000A95E0508C65D0508116005088B61050858
:101DD0003C5B0508D5620508DC5E05081D5F05084B
:101DE000505F0508835F0508B65F05085860050861
:101DF0009F600508EA6005082F610508E76105088E
:101E0000434943F073FA42F076F942F075F94149DB
:101E1000234696F8C020286843F068FA322177E517
:101E2000BDF824303C49A6F87F30A6F88130BDF8D3
:101E300026302868A6F88330A6F8853043F056FA95
:101E400042F059F942F058F9B6F885303349009319
:101E5000B6F8813096F8C020286843F047FA99E632
:101E6000FF22384696F85B1023F024FA044680B12E
:101E70002749286843F03AFA42F03DF942F03CF92C
:101E80002749234696F8C020286843F02FFA3321CB
:101E90003EE56FF48972234B96F8C0009A18191F1B
:101EA00001F0CEF90746A8B11949286843F01EFA97
:101EB00042F021F942F020F93B4696F8C0201A4939
:101EC000286843F013FA3A462F21184800F0C8FF5B
:101ED0000124BFE41049286843F008FA42F00BF9E6
:101EE00042F00AF996F8C0201149286843F0FEF93B
:101EF000169B1BB196F8CC30169A137000220B4833
:101F0000114601F0E3FFA5E42524A3E42224A1E483
:101F10003C5B05082D620508835B050884620508A3
:101F20001F630508542600206263050888150020F9
:101F30009D63050810B5134C41F244120021204660
:101F400046F051F8FF2204F5805383F8C02083F84F
:101F500029214FF0FF32C3F8A8201722A3F8BA2096
:101F60004FF486720021A3F8A42004F6580040F232
:101F70004A7246F038F82046BDE81040012141F091
:101F8000ADBB00BF881500202DE9F041064688460C
:101F90001746FFF7F5FB434C054698B942492068C0
:101FA00043F0A4F942F0A7F842F0A6F832463F49C0
:101FB000206843F09BF9222227212846BDE8F04102
:101FC00000F04EBF05F5805696F8A4302068DB0778
:101FD00012D518F0010F0FD1334943F087F942F0C1
:101FE0008AF842F089F896F8C0203149206843F019
:101FF0007DF93A460B21E0E787B12B4943F076F9AA
:1020000042F079F842F078F896F8C02029493B462A
:10201000206843F06BF93A460C21CEE7264943F09D
:1020200065F942F068F842F067F8434696F8C02038
:102030002249206843F05AF996F8A41096F8C00097
:1020400041F0ECFB074688B11749206843F04EF990
:1020500042F051F842F050F896F8C02018493B463B
:10206000206843F043F93A460D21A6E7032196F88C
:10207000C00041F017FC074688B10B49206843F0C7
:1020800035F942F038F842F037F896F8C0200D499B
:102090003B46206843F02AF93A460E218DE7BDE819
:1020A000F08100BF642700203C5B0508CB63050876
:1020B000FA63050860640508835B0508A1640508E8
:1020C000E0640508206505082DE9F04186B0074663
:1020D0000E461546FFF754FB0446A8B9494D4A4938
:1020E000286843F003F942F006F842F005F83A4652
:1020F0004649286843F0FAF822220E21204606B00D
:10210000BDE8F04100F0ACBEA5B1DFF8F8803E4973
:10211000D8F8000043F0EAF841F0EDFF41F0ECFFA1
:10212000009533463A463A49D8F8000043F0DEF8C5
:102130002A46E2E7022E57D0032E22D0012E2FD1BD
:1021400000F5805696F8B830052B29D10C230321D1
:1021500096F8C00086F8B83041F0A4FB0546F8B107
:10216000284F2949386843F0C1F841F0C4FF41F0D5
:10217000C3FF2B4696F8C0202649386843F0B6F8CE
:10218000D6E700F5805696F8B8300C2B0BD001211D
:1021900003AA8DF80C1001F099FE052386F8B830DB
:1021A00006B0BDE8F08100F6580240F24A7196F898
:1021B000C00041F0F3FA05460028EED0114F124955
:1021C000386843F093F841F096FF41F095FF96F898
:1021D000C0202B461049386843F088F82A460F2162
:1021E000204600F03DFED8E70723012100F580548A
:1021F00084F8B83084F8BC5003AA8DF80C1001F0B4
:1022000065FECDE7642700203C5B05085B6505089B
:102210009865050820650508D96505082DE9F04F82
:1022200087B00646DDE918BA89461D46DDF85480B8
:10223000FFF7A6FA044680B9504D5149286843F08B
:1022400055F841F058FF41F057FF32464D49286894
:1022500043F04CF82222112120E000F5805696F838
:10226000A5300BB300F6580240F24A7196F8C00050
:1022700041F094FA0746B8B1404D4149286843F00F
:1022800035F841F038FF41F037FF96F8C0203E495D
:102290003B46286843F02AF83A460F21204607B00B
:1022A000BDE8F04F00F0DCBDB5B1344F34493868BB
:1022B00043F01CF841F01FFF41F01EFF2B4696F83B
:1022C000C0203249386843F011F85BEA0A0A51D05D
:1022D000062D4FD02A46BEE7B9F1000F4AD0274F4E
:1022E0002B49C4F85488386843F000F841F003FFE4
:1022F00041F002FF94F8593894F8581896F8C02025
:1023000003F00F03CDF8008041EA03233868214928
:1023100042F0ECFF94F8592894F8583802F00F0274
:1023200004F6580943EA0223D4F854182A46ADF8B3
:102330001430484696F82831CDE903988DF81750A7
:1023400041F0E1F908218DF8160003AA204601F0BA
:10235000BDFD044670B10A49386842F0C7FF41F03C
:10236000CAFE41F0C9FE234696F8C0200A493868E3
:1023700042F0BCFF07B0BDE8F08F00BF642700202B
:102380003C5B05081F660508D965050863660508F6
:10239000835B0508A5660508E96605082DE9F04197
:1023A0000368B04A23F47F4323F0070393420446B3
:1023B00092B000F021832ED802F17F42934200F0C8
:1023C0003B830FD802F17F42934200F0018202F575
:1023D0003002934200F0CC82002080F0010012B065
:1023E000BDE8F081A04A934248D002F540329342C2
:1023F000F2D10079FFF7C4F9002840F0A1829B4D8B
:102400009B49286842F072FF41F075FE41F074FE6E
:102410002279984942E0984A934200F0458413D8C3
:1024200002F17E42934200F0CE8302F52D029342E8
:10243000D2D10079FFF7A4F90028CDD0637900F557
:10244000805080F85B30C7E78C4A934200F0CD8122
:1024500002F1FC729342BFD1844D8549286842F055
:1024600045FF41F048FE41F047FEA37984490093BF
:1024700063792279286842F039FFADE70079FFF7E8
:102480007FF9074670B9794D7949286842F02EFFE7
:1024900041F031FE41F030FE22797A49286842F05D
:1024A00025FF99E7B4F8052000F5805593B2A5F80B
:1024B000C220B5F881209A4203D3B5F87F209A4212
:1024C00077D96A4E7049306842F010FF41F013FE30
:1024D00041F012FEB4F80510B5F87F3095F8C02031
:1024E0000191B5F8811000913068684942F0FEFE14
:1024F00095F8C630A3BB5D4E6349306842F0F6FEE6
:1025000041F0F9FD41F0F8FD95F8C02060493068D0
:1025100042F0ECFEB5F893C0B5F88B30B5F88120E9
:10252000B5F87F1095F8C000CDF808C0B5F891C097
:10253000CDF804C0B5F88DC0CDF800C022F092FEF1
:10254000002869D05049306842F0D0FE41F0D3FDF8
:1025500041F0D2FD95F8C0204E49306842F0C6FEE9
:10256000012385F8C630E37A002B59D095F8B830AE
:10257000002B40F0388195F8C0001CF0D3FE3B4E94
:102580000446002850D005284ED03949306842F022
:10259000ADFE41F0B0FD41F0AFFD95F8C0203E49E1
:1025A000306842F0A3FE22460521384600F058FC70
:1025B00012E7B5F88B20B4F807309A4214D02B4EAE
:1025C0003149306842F092FE41F095FD41F094FDB2
:1025D000B4F80710B5F88B3095F8C02000912F495A
:1025E000306842F083FE83E7B5F88D20B4F80930F7
:1025F0009A42B5D01D4E2449306842F077FE41F032
:102600007AFD41F079FDB4F80910B5F88D3095F8F0
:10261000C02000912249E3E795F8C630002BA2D1F3
:10262000012385F8C630D7E6012795F8C04085F824
:10263000B8702046FFF7A4F80546A8BB0C493068DF
:1026400042F054FE41F057FD41F056FD2246154937
:10265000306842F04BFE22222721284600F000FC81
:10266000C1E000BFA0005902A000060264270020BC
:102670003C5B05081F6C0508A0005905A000090671
:10268000116F050830670508C65D050894670508E1
:10269000A7680508F1680508526905081368050868
:1026A000576805088B69050800F5805494F9722075
:1026B000394694F86C3094F8C0000092002222F061
:1026C0002DFF074680B1BC49306842F00FFE41F053
:1026D00012FD41F011FD94F8C020B849306842F075
:1026E00005FE3A462821B8E794F8C00022F006FF1C
:1026F000074688B1B049306842F0F8FD41F0FBFC74
:1027000041F0FAFC94F8C020AD493B46306842F0F5
:10271000EDFD3A462C21A0E794F86DC094F85D30A9
:1027200094F8702094F86E1094F8C000CDF834C07E
:1027300094F864C0CDF830C094F865C0CDF82CC0D2
:1027400094F86AC0CDF828C094F863C0CDF824C0CE
:1027500005F5845C0CF1190CCDF820C094F85CC030
:10276000CDF81CC094F869C0CDE9057C94F862707E
:10277000049794F86170039794F85F70029794F847
:102780006070019794F85E70009722F0E3FE0746B0
:1027900088B18949306842F0A9FD41F0ACFC41F0B4
:1027A000ABFC94F8C02087493B46306842F09EFD60
:1027B0003A462B2151E78449306842F097FD41F0B9
:1027C0009AFC41F099FC94F8C0208049306868E296
:1027D0000079FEF7D5FF00283FF4FEAD012300F598
:1027E000805080F8C5300120F7E50079FEF7C8FF7A
:1027F000064658B9764D7049286842F077FD41F099
:102800007AFC41F079FC2279724947E600F580555F
:1028100095F8C000237983427FF4DEADB4F805401B
:10282000BCB16B4F6449386842F060FD41F063FC15
:1028300041F062FC95F8C0206749386842F056FDC7
:1028400095F8B830032B3FF4C7AD22460721304638
:10285000ACE695F8B830012B1FD0022B7FF4BCAD4D
:10286000304600F07DFB95F8A530002B46D0B5F83A
:10287000AE30002B42D1564C4F49206842F036FD15
:1028800041F039FC41F038FC95F8C02053492068EC
:1028900042F02CFD0122092114E0D5F8A8104B1CB0
:1028A00012D14B4C4449206842F020FD41F023FCFA
:1028B00041F022FC95F8C0204949206842F016FDFD
:1028C000012206213046C9E6022385F8B8301CF003
:1028D00039FD0446002886D03D4F3749386842F01C
:1028E00005FD41F008FC41F007FC95F8C0203D498A
:1028F000386842F0FBFC22460821E3E706F58551E3
:10290000B5F88F2095F8C0000C3102F03FFA04466C
:1029100090B12F4F2849386842F0E8FC41F0EBFBBA
:1029200041F0EAFB95F8C0202F492346386842F071
:10293000DDFC22460A21C5E7032385F8B83052E7BB
:1029400000F5855600F58555284F0C36183504F1ED
:10295000090802224146384645F01BFB10B9B4F87D
:10296000053033800236AE4207F10207F1D133E57C
:102970000079FEF705FF054658B9154D0E49286840
:1029800042F0B4FC41F0B7FB41F0B6FB22791849A4
:1029900084E50222174804F10A0145F0FAFA0028FA
:1029A0007FF41AADD4F8052005F580532846C3F806
:1029B000A82000F093FA0FE53C5B0508B469050810
:1029C000E5690508206A0508835B0508606A050853
:1029D000642700208F6A0508F66A0508906B0508D1
:1029E000236B05084E6B0508E56B0508F89200207F
:1029F000816C0508049300200079FEF7C1FE58B9E8
:102A0000C04DC149286842F071FC41F074FB41F0AF
:102A100073FB2279BD4941E50421231D0F9300F585
:102A2000805393F85D20022A04BF627A83F829213B
:102A30000FAA01F04BFAD6E60079FEF7A1FEB14FDE
:102A4000054658B9B049386842F050FC41F053FB94
:102A500041F052FB2279AE49386820E500F080FA57
:102A6000A37B05F5805685F8C83F94F8243005F51A
:102A7000865185F8CF3F94F8213005F6B97285F874
:102A8000D03F94F82230083185F8D13F94F82330B4
:102A900085F8D23FB6F8C230A5F8D43FE37F85F879
:102AA000CE3FA37F85F8CD3F237F85F8CB3F637F63
:102AB00085F8CC3F637C85F8CA3F237C85F8C93F05
:102AC000637B85F8C73F237B85F8C63FE37A85F8AB
:102AD000C53FD4F81230C5F8BB3FD4F81630C5F85E
:102AE000BF3F638BA5F8C33F96F85E3096F8C000F1
:102AF000019396F85D30009305F6BB7300F00CFC73
:102B0000044698B18049386842F0F0FB41F0F3FA8E
:102B100041F0F2FA96F8C0207E492346386842F028
:102B2000E5FB22462F21284600F09AF97A493868B9
:102B300042F0DCFB41F0DFFA41F0DEFA96F8C0200B
:102B40007649386842F0D2FB96F89640B6F8833062
:102B5000B6F8872096F86E1096F8C000099496F89B
:102B60009540089496F86F40079496F97140069442
:102B700096F85B40059496F868400494D6F87B403C
:102B80000394D6F877400294B6F889400194B6F8D9
:102B90008540009422F03CFD044600283FF423AE1B
:102BA0005949386842F0A2FB41F0A5FA41F0A4FA75
:102BB00096F8C0205A492346386842F097FB2246CF
:102BC0001E212846F2E40079FEF7DAFD06460028C9
:102BD0003FF402AC4B4F5049386842F087FB41F05C
:102BE0008AFA41F089FA22794E49386842F07EFB30
:102BF0004FF6FF73B6F8A42F06F580559A4215D10B
:102C000095F82631063B012B38D80523424985F833
:102C10002631386842F06AFB41F06DFA41F06CFAF7
:102C200095F8C0204049386842F060FB95F826319D
:102C3000063B012B22D895F8E8300133DBB20A2B92
:102C400085F8E83022D900214FF6FF7385F8E810A7
:102C50003046A6F8A43F40F041FD05232E4985F8F3
:102C60002631386842F042FB41F045FA41F044FA1F
:102C700095F8C0202C49386842F038FB0123062122
:102C800030460F948DF843300FAAD2E622493868B7
:102C900042F02CFB41F02FFA41F02EFA2279234921
:102CA000386842F023FB9EE50079FEF769FD054692
:102CB00000283FF491AB05F5805393F82631114E6F
:102CC000063B012B3068144912D942F00FFB41F04A
:102CD00012FA41F011FA22791549306842F006FBE8
:102CE0000023072128460F948DF843300FAAA0E651
:102CF00042F0FCFA41F0FFF941F0FEF922790D496A
:102D000064E500BF642700203C5B0508DC6C050817
:102D1000476D050862630508835B05089D63050828
:102D2000A86D0508EF6D0508296E05085C6E05089D
:102D3000986E0508CC6E05081FB50B46032810D801
:102D4000DFE800F002111313094C2068616801AA42
:102D500003C2218901AC1180128803CC1A8118604A
:102D6000596004B010BD034CEFE7034CEDE700BF22
:102D7000EB700508916F05089C6F05082DE9F74376
:102D80009DF82C400F46DDE90D969DF828108DF832
:102D900003409DF830408DF800208DF801308DF80B
:102DA00002108DF80440B9F1000F50D0002E4ED023
:102DB000022A4ED0032B4ED001284CD0012905D138
:102DC0000623A9F80030262333801FE0012A04D10E
:102DD000022904BF00238DF80230DFF88080002430
:102DE000454605226946404645F0D3F838BB04EB1A
:102DF000C4042B195A799979B3F8073042EA0122B1
:102E0000FF2FA9F800209AB2338003D1002003B02D
:102E1000BDE8F083B9F80030B7EE047A07EE903AD7
:102E2000F8EEE77A67EE877AFCEEE77A17EE903AEB
:102E30009BB203F11301B1FBF3F31344C4E7013474
:102E4000B4F5A27F08F10908CBD12D20DFE72120BE
:102E5000DDE70A20DBE70F20D9E700BFA76F0508F1
:102E60002DE9F0410446194F0E46154638686CB9F5
:102E7000174942F03BFA41F03EF941F03DF92A464C
:102E800038681449BDE8F04142F030BA04F5805486
:102E90000F49D4F8D88042F029FA41F02CF941F0DA
:102EA0002BF92B4694F8C0200B49386842F01EFAE3
:102EB000B8F1000F07D02A463146434694F8C000C7
:102EC000BDE8F0411847BDE8F08100BF642700204D
:102ED0003C5B0508F570050825710508F7B500F598
:102EE000805595F82571044687BB95F8243100F587
:102EF00087560C3623B1304603F0FAFB85F824716F
:102F000000233046009340F6B8312346104A03F0C0
:102F10000DFC0646B8B10F4F0F49386842F0E6F98C
:102F200041F0E9F841F0E8F895F8C02033460B4944
:102F3000386842F0DBF932460221204603B0BDE892
:102F4000F040FFF78DBF012385F8243103B0F0BDB9
:102F5000B9360408642700203C5B05085271050857
:102F6000F8B5054600F587500C3003F0C1FB05F5B8
:102F700080560446B0B10D4F0D49386842F0B6F99D
:102F800041F0B9F841F0B8F896F8C0202346094955
:102F9000386842F0ABF922462846BDE8F8400421E3
:102FA000FFF75EBFA6F82401F8BD00BF642700202C
:102FB0003C5B05088D71050870B504460D460F2968
:102FC00000F20681DFE811F0150110002400340042
:102FD000440054006400740084009400A400B40011
:102FE000C400D400E400F400824D8349286842F014
:102FF0007DF941F080F841F07FF8012304F5805419
:1030000094F8C0207D492868BDE8704042F06EB950
:10301000784D7949286804F5805442F067F941F009
:103020006AF841F069F8022394F8C0207449EAE78D
:10303000704D7449286804F5805442F057F941F006
:103040005AF841F059F8032394F8C0206E49DAE7A2
:10305000684D6949286804F5805442F047F941F009
:103060004AF841F049F8042394F8C0206749CAE7B8
:10307000604D6149286804F5805442F037F941F009
:103080003AF841F039F8052394F8C0206049BAE7CE
:10309000584D5949286804F5805442F027F941F009
:1030A0002AF841F029F8062394F8C0205949AAE7E4
:1030B000504D5149286804F5805442F017F941F009
:1030C0001AF841F019F8072394F8C02052499AE7FA
:1030D000484D4949286804F5805442F007F941F009
:1030E0000AF841F009F8082394F8C0204B498AE710
:1030F000404D4149286804F5805442F0F7F840F00B
:10310000FAFF40F0F9FF092394F8C02044497AE718
:10311000384D3949286804F5805442F0E7F840F00A
:10312000EAFF40F0E9FF0A2394F8C0203D496AE72E
:10313000304D3149286804F5805442F0D7F840F00A
:10314000DAFF40F0D9FF0B2394F8C02036495AE744
:10315000284D2949286804F5805442F0C7F840F00A
:10316000CAFF40F0C9FF0C2394F8C0202F494AE75A
:10317000204D2149286804F5805442F0B7F840F00A
:10318000BAFF40F0B9FF0D2394F8C02028493AE770
:10319000184D1949286804F5805442F0A7F840F00A
:1031A000AAFF40F0A9FF0E2394F8C02021492AE786
:1031B000104D1149286804F5805442F097F840F00A
:1031C0009AFF40F099FF0F2394F8C0201A491AE79C
:1031D000084E0949306804F5805442F087F840F001
:1031E0008AFF40F089FF2B4694F8C02013493068CD
:1031F0000AE770BD642700203C5B0508CB71050819
:10320000FF710508835B05083A72050879720508A5
:10321000CE72050807730508447305088473050812
:10322000B6730508FB730508347405089A7405081D
:10323000F3740508437505089F750508DD750508D5
:103240002DE9F0410646174698460D46C9B10B6870
:10325000BBB1084634F0D4FA044688B1284D294958
:10326000286842F043F840F046FF40F045FF23460F
:1032700032462549286842F039F82046BDE8F081F9
:10328000286028462EF038FE044660B11C4D1D49CA
:10329000286842F02BF840F02EFF40F02DFF234627
:1032A00032461A49E6E7414628462EF071FF0446A9
:1032B00060B1134D1349286842F018F840F01BFF25
:1032C00040F01AFF234632461149D3E77B78002BA2
:1032D000D3D0284634F0CEFA05460028CDD0084C8D
:1032E0000849206842F002F840F005FF40F004FF72
:1032F00020682B463246074941F0F8FF2C46BCE7D0
:10330000642700203C5B05080E7605084676050814
:103310007C760508B97605082DE9F8430E46054682
:103320001178304699469DF820709DF824802EF043
:1033300031FE044688B12C4E2C49306841F0D6FF4E
:1033400040F0D9FE40F0D8FE23462A46284930688E
:1033500041F0CCFF2046BDE8F883012F02D0022FB8
:1033600018BFFF27B8F1010F04D0B8F1020F18BF42
:103370004FF0FF084246394630462EF01BFE044609
:1033800060B1194E1949306841F0B0FF40F0B3FE0A
:1033900040F0B2FE23462A461649D8E74946304651
:1033A0002EF02AFE044660B10F4E1049306841F0FD
:1033B0009DFF40F0A0FE40F09FFE23462A460E49A6
:1033C000C5E7304637F046F804460028C2D0064E1E
:1033D0000649306841F08AFF40F08DFE40F08CFED7
:1033E00023462A460549B2E7642700203C5B0508CE
:1033F000F1760508297705086F770508B077050885
:1034000038B5044688B10346014400208B421AD0E7
:10341000002213F8014B44FA02F5ED0702F1010214
:1034200048BF0130082AF6D1F0E7074D0749286860
:1034300041F05CFF40F05FFE40F05EFE044928680A
:1034400041F054FF204638BD642700203C5B05084E
:10345000EE7705082DE9F04F0446002797B000F5F8
:10346000847303930893D0F8043100F58055ADF8C8
:10347000243000F6580304930A93D0F8543812AE5F
:10348000ADF82C3008AB0E930AAB0F93431C059399
:1034900010930378ADF846708DF8443095F82831D4
:1034A0008DF8453000F6AC730FCB07C6337004F5CA
:1034B00086560836012130460EAA37F057FD804661
:1034C00001462046FFF778FDB8F1000F22D0B8F191
:1034D000030FDFF83C9000F021830B49D9F800007E
:1034E00041F004FF40F007FE40F006FE95F8C020D2
:1034F00043460649D9F8000041F0F8FE42463A2119
:103500002046FFF7ADFC6EE23C5B0508327E050805
:1035100064270020002304F6D677384606930793E5
:1035200040F0BDFB95F85E904146B9F1FF0918BF28
:103530004FF0010930464A4607AB2EF0F9FF8046AE
:1035400001462046FFF738FDB8F1000F40F09B819F
:103550004146384604F6DA7307AA02F069F9834651
:10356000002800F0A281DFF87C83D949D8F8000058
:1035700041F0BCFE40F0BFFD40F0BEFD5B4695F85B
:10358000C020D449D8F8000041F0B0FE4FF0000848
:1035900095F85E30FF2B2CD000210222304607AB7D
:1035A0002EF0C6FF824601462046FFF705FDBAF120
:1035B000000F40F07D810121384604F6DA7307AA36
:1035C00002F036F98246002800F09C81DFF814B33F
:1035D000BF49DBF8000041F089FE40F08CFD40F06F
:1035E0008BFD534695F8C020BB49DBF8000041F045
:1035F0007DFE4A46022106AB30462EF099FF8246F8
:1036000001462046FFF7D8FC04F58055BAF1000FBB
:1036100040F07B810221384604F6DA7306AA02F0F4
:1036200007F98246002800F08081DFF8B8B2A84987
:10363000DBF8000041F05AFE40F05DFD40F05CFD1B
:10364000534695F8C020A549DBF8000041F04EFE36
:1036500095F85E30FF2B2CD002223046114606AB87
:103660002EF066FF824601462046FFF7A5FCBAF120
:10367000000F40F05D810321384604F6DA7306AA94
:1036800002F0D6F88246002800F06281DFF854B2DA
:103690008F49DBF8000041F029FE40F02CFD40F09E
:1036A0002BFD534695F8C0208D49DBF8000041F012
:1036B0001DFE4A46002106AB30462EF0E1FC824654
:1036C00001462046FFF778FC04F5805BBAF1000F55
:1036D00040F041810421384604F6DA7306AA02F06C
:1036E000A7F88246002800F044817E4D784928687A
:1036F00041F0FCFD40F0FFFC40F0FEFC53469BF81F
:10370000C0207949286841F0F1FD9BF85E30FF2B1D
:1037100029D000210222304606AB2EF0B1FC8246B1
:1037200001462046FFF748FCBAF1000F40F0248123
:103730000521384604F6DA7306AA02F079F88246C3
:10374000002800F02781674D6149286841F0CEFDCF
:1037500040F0D1FC40F0D0FC53469BF8C0206349B8
:10376000286841F0C3FD03238DF83030DBF8733057
:1037700030460CA9CDF831302EF062FC824678B18B
:10378000584D5349286841F0B1FD40F0B4FC40F079
:10379000B3FC53469BF8C0205549286841F0A6FD6C
:1037A0004A46012106AB30462EF0C2FE8246014653
:1037B0002046FFF701FC04F58055BAF1000F40F0F8
:1037C00059810621384604F6DA7306AA02F030F869
:1037D0008246002800F0E180DFF808B13C49DBF8C0
:1037E000000041F083FD40F086FC40F085FC53462C
:1037F00095F8C0203F49DBF8000041F077FD94F8D0
:10380000B92F95F85D30022A33D1022B31D195F8CA
:103810009830013B012B2CD803214A46304606AB99
:103820002EF086FE824601462046FFF7C5FBBAF120
:10383000000F40F032810721384604F6DA7306AAF9
:1038400001F0F6FF8246002800F0C580DFF894B052
:103850001F49DBF8000041F049FD40F04CFC40F00E
:103860004BFC534695F8C0202349DBF8000041F09B
:103870003DFD95F85D30012B00F0BA80B8F1000FE6
:1038800000F0B180ABE0DFF85CB01149DBF800007C
:1038900041F02CFD40F02FFC40F02EFC434695F803
:1038A000C0201649DBF800006EE64FF001086FE615
:1038B000DFF830B00649DBF8000041F017FD40F0BA
:1038C0001AFC40F019FC534695F8C0200C498CE6D0
:1038D0003C5B050837780508B57805084579050883
:1038E000CB79050864270020637A0508F27A050879
:1038F000937B0508DC7B0508A47C05087678050821
:10390000FD7805084FF0010873E6DFF8B0B2A8496A
:10391000DBF8000041F0EAFC40F0EDFB40F0ECFB8E
:10392000534695F8C020A3498EE64FF001088FE674
:10393000DFF888B29E49DBF8000041F0D7FC40F088
:10394000DAFB40F0D9FB534695F8C0209A49ACE623
:103950004FF00108ADE6994D9549286841F0C6FC45
:1039600040F0C9FB40F0C8FB53469BF8C020944987
:10397000C8E64FF00108C8E6904D8D49286841F02F
:10398000B5FC40F0B8FB40F0B7FB53469BF8C020B5
:103990008C49E5E64FF00108E5E6079B8DF830001D
:1039A0000CA93046CDF831302EF04AFB8246014654
:1039B0002046FFF701FBBAF1000F42D194F8B92F6E
:1039C00095F85D30022A08D1022B06D195F898307F
:1039D000013B012B5ED995F85D30012B06D0D5F85F
:1039E000D060002E77D117B0BDE8F08F4FF00108FE
:1039F0004A460121304606AB2EF042FB8146014685
:103A00002046FFF7D9FAB9F1000F56D109213846FF
:103A100004F6DA7306AA01F00BFF81460028DED017
:103A2000664E6349306841F061FC40F064FB40F051
:103A300063FB4B4695F8C0206349306841F056FC63
:103A40001CE7DFF878815A49D8F8000041F04EFCB5
:103A500040F051FB40F050FB53469BF8C0205B49BF
:103A6000D8F8000041F042FC94F8B93F022B9BF8D3
:103A70005D30A8E7DFF844B14D49DBF8000041F0C4
:103A800035FC40F038FB40F037FB534695F8C0203A
:103A90004F49B0E64FF00108BEE6DFF820B14449D7
:103AA000DBF8000041F022FC40F025FB40F024FB55
:103AB000534695F8C0204749D7E6404E3C49306808
:103AC00041F014FC40F017FB40F016FB4B4695F814
:103AD000C0204149B1E7237804F6DA7285F82C3129
:103AE000631CC5F83031D4F80431C5F83431039B78
:103AF000C5F83831D4F85438C5F83C31049BC5F8C2
:103B000040310023019304F589530C330093B4F83A
:103B1000A41F3B4695F8C000B04764E795F8C03055
:103B2000394630460DAACDE90C778DF830302EF0AD
:103B30000BFB064601462046FFF73EFA36BB2749F7
:103B4000D9F8000041F0D2FB40F0D5FA40F0D4FAA9
:103B500095F8C0202249D9F8000041F0C7FBD5F8FC
:103B6000D43013B131460CA898471C49D9F800004D
:103B700041F0BCFB40F0BFFA40F0BEFA95F8C0201F
:103B80001849D9F8000041F0B1FB2CE70849D9F8F1
:103B9000000041F0ABFB40F0AEFA40F0ADFA334626
:103BA00095F8C0201049D9F8000041F09FFBDCE7F0
:103BB0003C5B050888790508177A0508642700200A
:103BC000AD7A0508457B05081D7D0508207C0508A4
:103BD000657C0508E37C0508577D0508835B0508BF
:103BE0008C7D0508037E0508B97D05082DE9F04F99
:103BF0000446CB790A68D0F8A80F85B004F584781C
:103C000004F58056EBB1118902F11305C1F30B01E4
:103C1000A4F8A41F117C86F82811577B92F80EA0F7
:103C200092F8119010B90421C4F80411D4F80411C9
:103C300001F5847020440831C4F8A80FC4F80411B9
:103C400009E0517A02F10C0586F82811977992F86B
:103C500007A092F80A904FF0000B83F00103009345
:103C6000414696F82931D4F8A80F3FF083FFD4F8E5
:103C7000042102F5847222445FFA8BF34B4529D369
:103C8000A2EB0802012FC4F80421274C11D00F2FFA
:103C900046D0002F46D02549206841F027FB40F050
:103CA0002AFA40F029FA96F8C0202149206841F00C
:103CB0001DFB00251F49206841F018FB40F01BFA4E
:103CC00040F01AFA1C49206841F010FB284605B064
:103CD000BDE8F08F294611F8030BBAF10F0F00F081
:103CE000030002F1010310D160F07F001070227810
:103CF000A8786D7804EB020C01328CF801500BF1BE
:103D0000010B22700D181A46B6E71070AA781846F3
:103D1000039144F090F90346AA7803991344E6E727
:103D20000125C7E70225C5E7642700203C5B05089D
:103D30006F7E0508835B05089F7E050873B5044602
:103D400051F046FC054650F061FF0C4E04F58054DE
:103D50000B49C4F8E000306841F0C8FA40F0CBF9F4
:103D600040F0CAF90095D4F8E03094F8C020054935
:103D7000306841F0BBFA02B070BD00BF642700207C
:103D8000835B0508B17E050838B500F5805405460B
:103D9000002194F86E2094F8C00021F071FC80B9E5
:103DA000154D1649286841F0A1FA40F0A4F940F0F9
:103DB000A3F994F8C0201249286841F097FA04202A
:103DC00038BD252815D105F587500B4D0C3002F074
:103DD0008FFC0A49286841F089FA40F08CF940F0DC
:103DE0008BF994F8C0200749286841F07FFA022037
:103DF000E6E70920E4E700BF64270020835B0508AD
:103E0000EE7E0508347F0508F8B500F580540546B8
:103E100094F86E1094F8C00021F0E6FBD4F8C83096
:103E2000254EBBB105F58650083033F0E9FC074656
:103E300080B12249306841F059FA40F05CF940F015
:103E40005BF93B4694F8C0201D49306841F04EFABA
:103E50000120F8BD41F244120021284644F0C3F885
:103E60001849306841F042FA40F045F940F044F911
:103E700094F8C0201449306841F038FAFF2384F8E0
:103E8000C0304FF0FF33C4F8A8301723A4F8BA307D
:103E9000B4F8A43040F24A7203F0F00343F486739E
:103EA000A4F8A430002405F658002146C5F854486B
:103EB00044F099F82046CCE7642700203C5B0508D5
:103EC0006A7F0508835B0508A47F05082DE9F04398
:103ED0000F46904606468FB0B8B9B84CB84920682E
:103EE00041F004FA40F007F940F006F9FF22B54925
:103EF000206841F0FBF9222235213046FEF7B0FF61
:103F0000222528460FB0BDE8F0830A2900F5805429
:103F100021D1AA4D00F587500C3002F0E9FBA849E9
:103F2000286841F0E3F940F0E6F840F0E5F894F84D
:103F3000C020A549286841F0D9F9092384F8263121
:103F40003046D8F8042098F80010FEF789FF0025C5
:103F5000C7E017469846092F4FF0010540F0C18091
:103F6000002194F86E2094F8C00021F089FB0546EA
:103F700090B9924D9549286841F0B8F940F0BBF8E6
:103F800040F0BAF8286894F8C020914941F0AEF9A1
:103F9000082584F8265138E241F20C03984205D0F6
:103FA00041F21203984201D025281BD106F5875013
:103FB0000C3002F09DFB3046FFF726FF0546002837
:103FC00040F00A837D4E8149306841F08FF940F01E
:103FD00092F840F091F894F8C0207E49306841F0A2
:103FE00085F9D6E7DFF8D4817549D8F8000041F0AB
:103FF0007DF940F080F840F07FF82B4694F8C0201F
:104000007549D8F8000041F071F9232384F826712E
:104010008DF82C300C9586E0002F7FF472AF674D41
:104020006A49286841F062F940F065F840F064F8A8
:1040300094F8C0206949286841F058F9012384F8B0
:104040002631E2E1012F7FF45CAF98F80030002BBD
:1040500062D05A4F5D49386841F048F940F04BF85A
:1040600040F04AF894F8C0205D49386841F03EF9C4
:10407000022294F8A530A4F82621002B3FF469AF62
:1040800040F24A7194F8C00006F658023FF086FBF1
:104090000546A0B14A49386841F028F940F02BF8AC
:1040A00040F02AF894F8C0204E492B46386841F079
:1040B0001DF92A460F213046FEF7D2FE21E743497B
:1040C000386841F013F940F016F840F015F894F80C
:1040D000C0204549386841F009F94FF0000802272F
:1040E000012594F82631082B3FF60BAF01A252F8B8
:1040F00023F000BF19400008454000082D4100088A
:10410000F541000875450008C743000855450008FB
:104110006B450008BB450008092384F82631362387
:104120000C978DF82C300A210BAAE2E1022F7FF4C4
:10413000E8AE94F8C53043B9092384F826312C231E
:104140008DF82C3001230C93EDE7012194F86E20BB
:1041500094F8C00021F094FA40BB009006F5875017
:10416000334640F6B831214A0C3002F0DFFA0546FA
:10417000B8B9124E012194F8C00000F04BFE13496B
:10418000306841F0B3F83FF0B6FF3FF0B5FF94F868
:10419000C0201749306841F0A9F8032384F826317C
:1041A000AFE6092384F82631212331E7092384F877
:1041B000263120230C908DF82C30B4E764270020A2
:1041C0003C5B0508C77F0508FF7F0508835B050882
:1041D0002B8005085A8005088E800508C9800508CF
:1041E000347F0508D9650508F480050855370408AB
:1041F0002D810508042F7FF484AED8F80030C54F18
:104200005D88002D60D151F0E3F9814650F0FEFC4D
:10421000D8F80030C4F8DC00D3F80720BE49C6F84F
:10422000AC2FDA7A386886F8B02F9A89A6F8B12FC1
:10423000DA89A6F8B32F1A8AA6F8B52F5B8AA6F8F2
:10424000B73F41F053F83FF056FF3FF055FF94F869
:10425000C020B249386841F049F8AF49386841F0A8
:1042600045F83FF048FF3FF047FFB6F8B73FAC498D
:104270000693B6F8B53F0593B6F8B33F049396F8A6
:10428000B03F0393B6F8B13F0293D6F8AC3FCDE907
:104290000093D4F8DC3094F8C020386841F026F858
:1042A0009D49386841F022F83FF025FF3FF024FF98
:1042B0009C4994F8C020386841F018F829463046E7
:1042C0003FF00CFA052369E79749386841F00EF88A
:1042D0003FF011FF3FF010FFD8F8003094F8C020F5
:1042E0005B889249386841F001F894F8273101332E
:1042F000DBB2022B84F827315BD88B49386840F059
:10430000F5FF3FF0F8FE3FF0F7FE94F8C020884933
:10431000386840F0EBFF94F89630099394F89530A4
:10432000089394F86F30079394F97130069394F8DA
:104330005B30059394F868300493D4F87B30039392
:10434000D4F877300293B4F889300193B4F885300B
:104350000093B4F88330B4F8872094F86E1094F882
:10436000C00021F055F9054688B16F49386840F022
:10437000BDFF3FF0C0FE3FF0BFFE94F8C0206D4986
:104380002B46386840F0B2FF2A461E2193E6624968
:10439000386840F0ABFF3FF0AEFE3FF0ADFE94F862
:1043A000C0206549386840F0A1FF022384F8263117
:1043B00093E606F587500C3002F09AF9092384F849
:1043C00026311F23BCE6082F63D198F80B50F5B9AE
:1043D000B4F8893043B13046FFF7D6FC092884F899
:1043E000260112D1242313E64A4D4B49286840F098
:1043F0007DFF3FF080FE3FF07FFEB8F8083094F874
:10440000C0204E49286840F071FF002579E598F8F2
:104410000A30012B2AD13F4DB4F8897028683E49F3
:1044200087B140F063FF3FF066FE3FF065FE94F811
:10443000C0204349286840F059FF072384F82631FB
:1044400001255EE540F052FF3FF055FE3FF054FE7F
:1044500094F8C0203B49286840F048FF05233946BE
:10446000304684F826313FF039F9CEE7022BE7D108
:10447000284D2949286840F039FF3FF03CFE3FF0C5
:104480003BFE94F8C0203049286840F02FFF0623F7
:10449000D5E5063F012F3FF634AD41463046FFF7E4
:1044A000A5FB054600283FF40DAF1A4F012D3868D3
:1044B000194923D140F01AFF3FF01DFE3FF01CFECA
:1044C000B6F8A43F94F8C0202049386840F00EFFA9
:1044D000012308218DF83730B6F8A43F8DF8365007
:1044E000ADF8343006F584730B93D6F804310BAA7B
:1044F0000C933046FFF7EAFC054602E540F0F6FE75
:104500003FF0F9FD3FF0F8FDB6F8A43F94F8C02065
:104510000F49DAE764270020835B050872810508EC
:10452000B0810508296E05083C5B05087082050806
:10453000BF820508A86D0508347F050806830508B5
:1045400059830508A0830508E38305082B84050823
:104550005F840508082F7FF4D4AC01224146304621
:104560000FB0BDE8F04300F063B8082F7FF4C9AC8A
:104570000022F3E7042F7FF4C4ACD8F800301B7995
:10458000002B7FF442AF3046FFF7D8FBD8F800305D
:10459000224D5B8833BB06F587500C3002F0A8F83B
:1045A0001F49286840F0A2FE3FF0A5FD3FF0A4FDA2
:1045B00094F8C0201B492868F5E6042F7FF4A1ACCD
:1045C000D8F800301A79002A7FF41FAF5B8843B90E
:1045D0003046FFF7B3FBEEE4092384F82631382395
:1045E00016E50E4D1049286840F080FE3FF083FD2F
:1045F0003FF082FDD8F8003094F8C0205B880B496A
:10460000286840F073FE092384F8263123238DF8AF
:104610002C30D8F800305B8895E500BF6427002077
:10462000835B0508347F05083C5B05089484050816
:104630002DE9F043CE7A04460F46914687B000F547
:10464000805566B3B5F88930A3B1FFF79DFB092803
:1046500085F8260121D124238DF80C300023049302
:104660000A21204603AAFFF731FC0646304607B070
:10467000BDE8F0835B4E5C49306840F037FE3FF0A8
:104680003AFD3FF039FDB4F8A43F584900933B8907
:1046900095F8C020306840F029FE0026E6E70A8938
:1046A000B0F8A43F9A421ED0B5F8893053B1FFF755
:1046B0006BFB092885F82601EFD1242304968DF899
:1046C0000C30CDE7474E4849306840F00FFE3FF0D0
:1046D00012FD3FF011FDB4F8A43F454900933B891A
:1046E00095F8C020D6E700F587500C3002F000F8AE
:1046F00058B1092385F82631222304900A21204647
:1047000003AA8DF80C30FFF7E1FBDFF8D880B5F88D
:104710008930D8F800003449A3B340F0E7FD3FF0FA
:10472000EAFC3FF0E9FC95F8C0203249D8F80000D7
:1047300040F0DCFD02210022204685F82611FFF71B
:10474000C5FBBB7A0646022B0AD1B9F1000F07D090
:104750002046FEF77FFE002120463EF0BFFF85E7A2
:104760002149D8F8000040F0C1FD3FF0C4FC3FF003
:10477000C3FC3B8995F8C0201F49D8F8000040F0E1
:10478000B5FDE8E740F0B2FD3FF0B5FC3FF0B4FC0A
:1047900095F8C0201949D8F8000040F0A7FD05237E
:1047A00085F82631BB7A022B0AD1B9F1000F07D068
:1047B0002046FEF74FFE002120463EF08FFF6CE7BB
:1047C0000949D8F8000040F091FD3FF094FC3FF01B
:1047D00093FC3B8995F8C0200749D8F8000040F0C9
:1047E00085FDE8E764270020835B0508E28405086F
:1047F00037850508347F05088B850508296E05086F
:10480000054B5A78042A06D1012203215A70034825
:10481000002200F06DB97047CC260020B98505084C
:1048200010B50A4C2378FF2B0DD1042320701C22D5
:10483000E0180021637043F0D6FB0020044B236195
:10484000044BA36110BD0120FCE700BFCC26002073
:104850000000C8420000C07F30B50B4C450104EB9E
:10486000401042709DF80C2061550271437180ED3B
:10487000020AC0ED030A80ED051AC0ED061A80EDAC
:10488000072AC0ED042A30BDCC26002010B50D4CFF
:104890002378834214D1002000F004F90022032180
:1048A000094800F025F91C220021201D43F09BFB44
:1048B000FF2300202370054B2361054BA36110BD2E
:1048C0002D20FCE7CC260020B98505080000C84251
:1048D0000000C07F0023F7B5274D0093ADF80430EA
:1048E00005EB40135B7804464701052B41D8DFE810
:1048F00003F003383A3C403E2049684643F093FBBE
:10490000EE1922460321684600F0F2F8737833BBB3
:1049100096ED020A2146052000F096F973793D4490
:10492000012B0CBF96ED040A96ED070A21460720DD
:1049300000F08AF92146092095ED050A00F084F976
:1049400021460B2095ED030A00F07EF92B79022B0E
:1049500005D021460D2095ED060A00F075F903B04B
:10496000F0BD0749C9E70749C7E70749C5E7074950
:10497000C3E70749C1E700BFCC260020BF85050873
:10498000B9850508C5850508CB850508D1850508C5
:104990002B86050830B5284B012905460C468BB0FF
:1049A0001871597109D100220621244800F0A0F89D
:1049B00000220621224800F09BF80021242201A8B1
:1049C000009143F010FB684643F042FB1D49C0F1E3
:1049D0002702684643F00FFB012D684618D143F0CB
:1049E00037FB1949C0F12702684643F004FB6846CB
:1049F00043F02EFBC0F12702CCB91449684643F0BE
:104A0000FAFA00226846114600F072F80BB030BD89
:104A100043F01EFB0E49C0F12702684643F0EBFA53
:104A20000C2000F01BF80D2000F018F8DFE7022C36
:104A30000CBF08490849E1E7CC260020218605087B
:104A4000D6850508E6850508ED850508F585050880
:104A5000F1850508028605080F860508F0B58BB0BC
:104A600004AC024626460D4B03F110072546186894
:104A70005968083303C5BB422C46F7D118681B7927
:104A800028602B71012302939B1A01930023314666
:104A9000009303483FF0DEFA0BB0F0BD1C8605081A
:104AA000EC2600200346F0B56FF0010501270E4A01
:104AB00087B010689288C3EB03130C4E0490ADF8D6
:104AC00014205C00C5F10102CDE9015700233046F6
:104AD0000094D2B204A9023D3FF0BCFA15F10E0FCA
:104AE000F0D107B0F0BD00BF2B860508EC260020F2
:104AF0002DE9F043037806460D4687B003B34FF027
:104B00000109C1F10108104BC2EB0212CDE9018984
:104B1000540018680D4F9B88E4B200940A46049034
:104B2000ADF8143004A93B7809483FF093FACDE979
:104B3000018900942A4631463B7805483FF08AFABD
:104B400007B0BDE8F08300BF2B860508468400202F
:104B5000EC26002038B52D4B1C220021184643F0CE
:104B600042FA40F2FF412A4B021F9361294B20F881
:104B7000041C0020136101F0CFFC10B1102420466A
:104B800038BD254D284601F02FFD04460028F5D1FB
:104B90006FF07F432149C5E9013028463FF047FACD
:104BA00028463FF0E0F81E4B224621461D481C7067
:104BB000FFF79EFF224601211B48FFF799FF22467F
:104BC00002211A48FFF794FF224603211848FFF7F5
:104BD0008FFF224604211748FFF78AFF224608214B
:104BE0001548FFF785FF22460A211448FFF780FF8A
:104BF00022460C211248FFF77BFF2246062111486E
:104C0000FFF776FF3EF0B8FDB9E700BFD0260020E1
:104C10000000C07F0000C842EC2600201C89050867
:104C200046840020E6850508318605084486050887
:104C30002B8605084C8605085A8605086A860508ED
:104C40007B8605088F8605080023FCEEC07A2DE9D7
:104C5000F04188B004938DF81430264B054618684F
:104C60009B880C46ADF81C3017EE903A092B069045
:104C70002FD8B8EEE77A30EE470A9FED1F7A20EE84
:104C8000070ABCEEC07A17EE902A17EE103A1B49BD
:104C90004FF00108C5F1010704A8C4EB041407F0A4
:104CA00095FD6400CDE90178154EE4B200942A46E2
:104CB000337806A913483FF0CDF9CDE90178009487
:104CC0002A46337804A90F483FF0C4F908B0BDE87C
:104CD000F081B8EE677A30EE470AB2EE047A20EE41
:104CE000070ABCEEC07A17EE902A17EE103A064972
:104CF000CEE700BF2B8605080000C842A186050844
:104D000046840020EC260020AE8605080368094A88
:104D100023F47F4323F00703934204D002F180720F
:104D2000934203D07047007BFFF77ABD8079FFF78D
:104D3000ADBD00BFA000060008B5084B4FF484626B
:104D40000021184643F04FF9FF22827680F8222195
:104D500080F82A2280F8322308BD00BFA80D002069
:104D6000094900220B4610B58C7E844204D14FF4D1
:104D7000847101FB023010BD0132042A01F58471F7
:104D8000F2D10020F7E700BFA80D0020FF282DE991
:104D9000F04107460E46904632D099B3A2F1170370
:104DA000E32B31D84FF6FF730C889C422CD08A88B5
:104DB0009A4229D0CA889A4226D00A899A4223D098
:104DC000FF20FFF7CDFF054600B3214638461AF015
:104DD000F3FA044688B94FF484720146284643F03A
:104DE00002F90B4BAF761A689B88C5F806206B81D9
:104DF00001236E61A5F818802B702046BDE8F08174
:104E00002524FAE72224F8E72124F6E71924F4E719
:104E1000BB860508FF2837B50C4625D0FFF7A0FF55
:104E2000054618B34CB9983001F062FC05F16000FA
:104E300001F05EFC204603B030BD0378052B03D0A3
:104E4000082B0AD00220F6E7002341F28831084AF5
:104E50000093983001F06AFCEDE7002341F28831BD
:104E6000044A00936030F5E72520E4E72D20E2E7CF
:104E7000553A04080F3A0408164B30B59842A3F18E
:104E8000600206D003F13801884202D070339842A4
:104E900018D1002411E02B4603F5B475A8420C4646
:104EA0000BD003F5D075A84207D003F5847503F540
:104EB000EC73984201F1010107D14FF4847303FBB5
:104EC000042030BD13460121E6E70429E3D1002088
:104ED000F7E700BF080E002013B590F82A00FFF78F
:104EE0003FFF68B100F16004204601F001FC00239F
:104EF0004FF47A71009320460123024A01F016FC18
:104F000002B010BD0F3A040870B5054600F07CFBF6
:104F10000646284600F064F92B68A94A23F47F432B
:104F2000064023F0070386F001069342F6B200F034
:104F3000B2800BD802F17A42934200F0A08002F5D1
:104F40007D02934220D086F0010070BD9D4A9342BD
:104F5000F9D12879FFF704FF04460028F3D0EB7954
:104F60000B2B3DD14269B5F805301188994221D10A
:104F70006B89042B06D10378012B03D1EA6880F8F2
:104F80002030C261012321E0A879FFF7E9FE044641
:104F90000028D8D0D03001F0ABFB04F1600001F064
:104FA000A7FB04F1980001F0A3FB00232370FF236B
:104FB000A376C8E7D18899420AD1AD89983001F02B
:104FC00097FB2946A07E3EF020FD00231E43BAE752
:104FD00012899A42F9D1A989807E3EF017FDF4E743
:104FE0001B2B01D01D2BAED16169B5F80520488976
:104FF0009042C7D048889042C4D0C888904202D01E
:1050000009899142E1D11D2B02D1A07E1AF0C4F989
:105010006B89022BB6D16269B5F80530D1888B4215
:1050200008D012899A420ED0AD892946A07E3EF062
:10503000EDFCA7E7E8791D2817D1E07B0228A1D174
:1050400012899A4205D1EA791D2A13D1227C022ABB
:1050500098D18B42AD89E8D104F1980001F048FB6A
:105060002946A07E3EF0D1FC8CE71B28E8D1E07BEE
:105070000128E4E71B2AECD1227C012AE8E7287901
:10508000FFF76EFE00283FF45EAF6B79AA7943EA22
:105090000223038357E72879FFF762FE04460028BE
:1050A0003FF451AFB5F80520037862B3092B8CD8D3
:1050B000012101FA03F010F4127F0AD110F09000E0
:1050C0001BD18B4281D12070E169A07EFCF75CFF8F
:1050D00058E7002384F82230A384A378052B05D158
:1050E00002212370A07EFCF7EFFF4BE7012B7FF43A
:1050F00049AF082303212370F4E70223A07E237025
:10510000FCF7E2FF61E7013B082B3FF65EAF01A22F
:1051100052F823F039510008CB4F000867510008BE
:105120009F510008CB4F000885510008CF5100085F
:10513000CB4F00085551000894F82030807EE1697B
:105140002BB1022300222370FCF71EFF3DE7012252
:105150002370F9E78378827C03441A7302230022C8
:1051600003700121BEE78378827C03441A7340F206
:105170000253438020463EF007FB024620BB042337
:105180002370FFE68378827C03441A7340F2011394
:1051900043803EF0F9FA0246B0B90723F0E783787E
:1051A000817CC2181173C2789A4205D1002205236E
:1051B00080F82220828493E701338370DAE700BF0E
:1051C000A0000906A000090702232370C9E783781D
:1051D000827C03441A73002280F82220828488E7AC
:1051E000F0B50368954A23F47F4323F00703934205
:1051F000054691B004D0002080F0010011B0F0BD50
:105200000079FFF7ADFD04460028F4D0EB791D2BA3
:10521000F1D14369B5F805209B889A42EBD16B899F
:10522000012B04D8A07E1AF0B7F80120E4E72A7B0E
:10523000012A4CD0022A00F08F80002AF2D1032BE1
:10524000F0D10378B5F80D50052BEBD190F8223052
:10525000002BE7D090F82170002FE3D1838CAB4274
:10526000E0D1D03001F044FA04F1280604F16000E6
:1052700001F03EFA304600F0A5F9304684F822707D
:105280000AA93EF051FC034600B90A9BDDF839201B
:10529000DDF83510A07ECDE908129DF83420079284
:1052A0009DF833200692DDF82F2005929DF82E20E0
:1052B00004929DF82D2003929DF82C20CDE90152F7
:1052C0000122009200220021FCF7A8FFAAE7052B8B
:1052D000A8D10378052BA5D190F82230002BA1D0BE
:1052E00090F82130022B9DD1B5F80D20838C9A4285
:1052F00098D1D03001F0FCF904F1280604F16000E7
:1053000001F0F6F9304600F05DF90023304684F8EC
:1053100022300AA93EF008FC034600B90A9BDDF8DA
:105320003920DDF83510A07ECDE908129DF8342033
:1053300007929DF833200692DDF82F2005929DF804
:105340002E2004922A7C0392EA7B0292B5F80D206B
:10535000019201220092B6E7022B7FF463AF90F82E
:1053600022306D7B002B3FF45DAFD03001F0C0F9EF
:1053700094F82330BBB1012D06D104F1600001F097
:10538000B7F9002384F822300026A07E32462B464F
:10539000032184F823603EF0BBFB2A463146A07E01
:1053A0003EF0B8FB3EE7002394F8211084F8223049
:1053B000012901D0042904D12B460022A07E3EF011
:1053C000A7FB94F82130012B31D013F0FD0F7FF4AF
:1053D00029AF04F12806304600F0F4F830460AA957
:1053E0003EF0A2FB034600B90A9BDDF83910DDF858
:1053F000356094F82120A07ECDE908619DF8341035
:1054000007919DF833100691DDF82F1005919DF856
:105410002E1004919DF82D1003919DF82C100291EF
:10542000A18CCDE90051911E4A424A414BE72A46E0
:105430000021A07E3EF06DFBF4E600BFA00009074E
:1054400038B5002405464FF0C7FF074B1B681BB952
:105450004FF0BDFF204638BD93F82A20AA4208BF6E
:105460001C461B68F3E700BF182700202DE9704396
:10547000044616460D46037B86B023F0180343F01E
:1054800010038161037301460D483EF028FED4E904
:105490000489217BCDE90489227981F00403C1F3D9
:1054A000400101910292226B294600922046324629
:1054B000C3F380033EF0FCFA06B0BDE8708300BF82
:1054C000182700202DE9F0410C4690461E4605465F
:1054D00086B000286FD000296DD04B68002B6AD0B1
:1054E000002A68D08B7BFF2B67D00A7C4FF6FF73B6
:1054F000002A52D0B8F802209A425ED02368002BCE
:1055000057D0A389173B9BB2E32B52D84FF064FFCF
:1055100007462B4B1B68002B42D1A07BFFF790FF67
:1055200000283FD101AB04F1100C1A4620686168D5
:10553000083403C264451346F7D120680021106087
:105540003822284642F04FFD01AC05F11C030DF155
:10555000140C224603CA624518605960144603F1D0
:105560000803F6D1106818609DF8303085F8246083
:10557000EB842B7BC5F8348043F008032B73AE809B
:105580000EB1731E9EB229460D48EE803EF098FD86
:1055900038464FF01CFF002008E0B8F80A20ABE7BF
:1055A0009D42B7D138464FF012FF2E2006B0BDE81D
:1055B000F0812120FAE72220F8E72520F6E700BF56
:1055C0001827002070B50546C8B14FF005FF064604
:1055D0000C4B1B682BB92D2430464FF0F8FE2046AB
:1055E00070BD9D42F5D12C7B14F0100405D106222C
:1055F00001212846FFF73AFFEEE70224ECE72224D8
:10560000EDE700BF182700200368764A23F47F43A4
:1056100023F0070393422DE9F04705461BD002F122
:10562000C06202F5403293421BD002F179429342AC
:105630000CD10079FFF704FF40B1B5F80520038DC8
:105640009A4203D013220221FFF710FF002080F0BE
:105650000100BDE8F0878079FFF7F2FE0028F1D164
:10566000F4E7C3791D2B01D01B2BEFD12879FFF76D
:10567000E7FE04460028E9D090F82B20EB79F2B938
:105680001D2BE3D094F82C00B5F80520616BC0B158
:1056900049889142DAD11D2B02D1287919F07CFE7C
:1056A0006A89D2B2012A03D9208DC31E93420AD23D
:1056B0002B2202212046FFF7D9FE0120C7E71B2B32
:1056C000DFE74989E5E7297B94F824C0CF074FEA53
:1056D000910301F002061BD5A380237B43F0010355
:1056E0002373A38826B1217B238141F0020121731A
:1056F0009C4564D8E18CFF2901D099425FD30438DE
:105700005843E169013A83188B4251D91D22D0E7F1
:10571000277BF9071BD4E6464FF0010947F0010744
:105720002773A3805FFA8EF1994203D361890B44FA
:105730006381D6E709FA0EF8D4E9047147EA08074D
:1057400041EAE871C4E904710EF1010EEAE7B4F828
:1057500006E0A3EB0E0101F03F0101390EF1010952
:105760005FFA81F859FA81F189B23F2984BF47F085
:1057700004072773A180217B490705D44FF0010A54
:10578000013BDBB29E4501D34346CFE763450CD3D3
:10579000E18C994209D3D4E904710AFA03F947EA82
:1057A000090741EAE971C4E90471013BDBB2E9E7A9
:1057B0002363236A05F10D01184442F03CFC2046A6
:1057C000A188FFF789FBA288E38CE2809A4205D08A
:1057D000002E3FF472AFFF2B7FF46FAF0022114613
:1057E00068E700BFA0000601092838B5044615D9AE
:1057F0000B4D0C4928683FF079FD3EF07CFC3EF0F3
:105800007BFC2246084928683FF070FD074B224682
:10581000054918683FF06AFD002038BD0420FCE708
:10582000642700203C5B0508C1860508183300206A
:105830002DE9F341044690F8028008460D461746CC
:105840001E46FFF7D1FF4044013080282FD9344E47
:10585000344930683FF04AFD3EF04DFC3EF04CFCD0
:105860002846D6F80080A678FFF7BEFF01368319D8
:1058700080271C262A462C494046DBB2CDE900761B
:105880003FF034FD294B2846D3F80080A478FFF779
:10589000ABFF013403192A464046CDE90076224980
:1058A000DBB23FF023FD304602B0BDE8F081637803
:1058B000AB4219D926261A4F1A4938683FF016FD0F
:1058C0003EF019FC3EF018FC00962A466378184911
:1058D00038683FF00BFD154800962A466378144956
:1058E00000683FF003FDDEE7A3782846F554A3786F
:1058F00001331E44FFF778FF39460246304642F036
:105900009AFB28466570FFF76FFFA37801331844B0
:105910002378C0B20133A070E07023700020C3E789
:10592000642700203C5B0508DC860508183300204E
:10593000458705082DE9F0479946C37804460D468A
:105940001746002B34D13A4E3A4930683FF0CEFC2E
:105950003EF0D1FB3EF0D0FB1B232A46364930688F
:105960003FF0C4FC35481B232A46334900683FF00A
:10597000BDFC4FF01B086378092B17D92C4E2D491D
:1059800030683FF0B3FC3EF0B6FB3EF0B5FB26239B
:105990002A462B4930683FF0A9FC284826232A468E
:1059A000274900683FF0A2FC4FF02608002625E0BA
:1059B0004FF00008DFE717F806A05046FFF714FF86
:1059C0005545024617D1711C4846394442F033FB15
:1059D0002378012B04D9013B23704046BDE8F087B2
:1059E00000213846E27842F0FEFA0023237063700B
:1059F000A370E370F1E701321644F6B2E378B342E4
:105A0000D9D80B4C0B4920683FF070FC3EF073FB7B
:105A10003EF072FB2A460B4920683FF067FC074BBB
:105A20002A46084918683FF061FC4FF00108D4E7A6
:105A3000642700203C5B0508A18705081833002077
:105A4000DB870508FB87050870B52DED028B144632
:105A500084B0072800F23A81DFE810F00800300037
:105A600038013801500097003801D000994B9A4D09
:105A7000186829B199493FF039FC9849286846E0EF
:105A8000D2ED007A9FED968A67EE887AFCEEE77A8F
:105A9000944917EE902A3FF029FCD4ED007A67EE86
:105AA000887AFCEEE77A17EE902A8E49286804B0CF
:105AB000BDEC028BBDE870403FF018BC854B864DB5
:105AC000186821B188493FF011FC8749D6E7D2ED2B
:105AD000007A9FED838A67EE887AFCEEE77A834945
:105AE00017EE902A3FF002FCD4ED007A67EE887A38
