S02B0000433A2F55736572732F6D706D656E2F53696D706C696369747953747564696F2F424C452D7468657319
S31508000000C00A002089260008D9DE0208D9DE0208BF
S31508000010D5FB0208D9DE0208D9DE0208D9DE0208B5
S31508000020D9DE0208D9DE0208D9DE0208D9DE0208BE
S31508000030D9DE0208D9DE0208FDCF0208D9DE020899
S31508000040D9DE0208D9DE0208D9DE0208D9DE02089E
S31508000050D9DE0208D9DE0208D9DE0208D9DE02088E
S31508000060D9DE0208D9DE0208D9DE0208B1B10008D5
S31508000070C5170308D9DE0208D9DE0208D9DE020848
S31508000080D9DE0208D9DE0208D9DE0208D9DE02085E
S31508000090D9DE0208E5310008D9DE0208D9DE0208F1
S315080000A0D9DE0208292E0008092E0008D9DE020822
S315080000B0D9DE0208B5AE020889B70208D1DB030803
S315080000C0CDDB0308FDAE0208E7DB0308D5DB030832
S315080000D059B70208D9DB0308C9B7020831B80208BC
S315080000E0D9DE0208D9DE0208D9DE0208D9DE0208FE
S315080000F00DF10208D9DE0208D9DE0208D9DE0208A7
S31508000100D9DE0208D9DE0208D9DE0208D9DE0208DD
S31508000110D9DE0208D9DE0208D9DE0208D9DE0208CD
S31508000120D9DE0208D9DE0208D9DE0208D9DE0208BD
S31508000130D9DE0208D9DE0208D9DE0208D9DE0208AD
S31508000140D9DE0208D9DE0208D9DE0208BBF60308A2
S3150800015075990208D9DE0208BBDB0308C1DB030870
S31508000160D9DE0208D9DE0208D9DE0208D9DE02087D
S31508000180F0B5114A114C124E00F00105E3695F07FC
S3150800019013D40DB9334213D103EA00078F4207D1AE
S315080001A00B4A1A40002A14BF6FF001000020F0BD68
S315080001B0013AEBD16FF00200F9E74FF0FF30F6E7AE
S315080001C06FF00100F3E700BF809698000000035027
S315080001D0020001000B4B70B5D96911F480310DD1BD
S315080001E001244FF48072084E084DF46020462C64B2
S315080001F01A61FFF7C5FF3464EC6070BD6FF001004B
S31508000200FBE700BF00000350001003500020035016
S315080002104FF4803238B50E4B0E4C9A66E56941F6B6
S31508000220713315400122E3630B4B0021DA60022388
S31508000230606121202361FFF7A3FF10B92120FFF792
S315080002409FFF0122054BDA600DB10023E36338BD39
S315080002500090005000000350001003500020035087
S3150800026070B5134C6061E3695B071ED40E4656F8F9
S31508000270043B8D18A361AE420BD104230021212033
S315080002802361FFF77DFF58B9BDE870402120FFF7CD
S3150800029077BF08210846FFF773FF10B104232361CF
S315080002A070BD56F8043BA361E5E74FF0FF30F7E76A
S315080002B0000003502DE9F84316464FF48032184BD8
S315080002C089469A6603F51C33DA69074602F48038CC
S315080002D041F67132DA63012203F58053114DDA6073
S315080002E066B930460122104BDA60B8F1000F03D028
S315080002F00022A3F50053DA63BDE8F88307F5005436
S315080003002C40E41BB44228BF3446494622463846A8
S31508000310FFF7A6FF0028E5D12744A144361BDFE7EF
S315080003200090005000E0FFFF00200350000000008E
S3150800033000000000000000000000000000000000AF
S31508000340013800D0FCE77047D0B51BA7D7E900678E
S315080003502DED028B04469FED1A8AD4ED007AF4EE51
S31508000360C87AF1EE10FA0CDA13A7D7E900679FED01
S31508000370158AF4EEC87AF1EE10FA0ED4BDEC028BAB
S31508000380D0BD17EE900A0BF0ABF932463B460BF0A0
S3150800039047F80BF0FDF92060DFE717EE900A0BF03F
S315080003A09FF932463B460BF03DF80BF0F1F907EEA4
S315080003B0900A2060DDE700BF182D4454FB21194040
S315080003C0DB0F4940DB0F49C00348044B834202D088
S315080003D0034B03B118477047D4880020D4880020FF
S315080003E000000000064B0749C91A891048BF0131A9
S315080003F0491003D0044B0BB101481847704700BF9A
S31508000400D4880020D48800200000000010B5064CCF
S31508000410237843B9FFF7D8FF044B13B10448AFF369
S3150800042000800123237010BD7C800020000000009E
S31508000430E077040808B5054B1BB105490548AFF335
S315080004400080BDE80840FFF7CDBF00BF00000000F0
S31508000450C80D0020E0770408A3F5803A704700BF6E
S31508000460174B002B08BF134B9D46FFF7F5FF0021DE
S315080004708B460F461348144A121A31F03CFA0E4BB3
S31508000480002B00D098470D4B002B00D09847002032
S31508000490002104000D000D48002802D00C48AFF3D7
S315080004A000800BF041FD2000290031F08DF90BF09A
S315080004B07FFB00BF000008000000000000000000ED
S315080004C0C00A0020C00A00200083002000000000A7
S315080004D00000000037B5054615F0F0FA00284ED1A1
S315080004E0284B2877AB61AB6843F48013AB602FF0D9
S315080004F0D6FBAB68A8801B030CD4B0F5FA7F09D9E4
S315080005003EF087FF0121044608463DF04FFF20468E
S315080005103EF07AFF284615F0F9FA044650BBE8681B
S3150800052058B317F041FD35F0BAFC32F0C3FC36F08B
S315080005303FFD34F09AFE33F027FC0446D0B94FF459
S315080005400173ADF80430FF2301A88DF806300FF0CB
S31508000550F1FE22460321042035F092FC68468DF808
S31508000560004015F0C5FC0420032117F0E7F92846DA
S315080005702CF03AFD204603B030BD0348D1E70024ED
S31508000580F8E700BF050403009E88002008B5044963
S31508000590044821F0F3FABDE8084021F021BB00BF6A
S315080005A028FA0308E8FA03084FF08052014B5A600C
S315080005B0704700BF00ED00E0F8B50E460546D0B11D
S315080005C0C9B10E4B0E4F1968386803F0F1FD0446A1
S315080005D078B9062332460B49386803F0B1FE04465B
S315080005E038B901232A460849386803F0A9FE00B13C
S315080005F02C702046F8BD2124FBE700BFD0840020DC
S31508000600F08400202C0004003C0004000349044B3D
S31508000610002808BF1946042020F0AABF9CFB03083F
S31508000620A4FB0308F7B5089F0546164690F8BE01D1
S315080006301A463B4679B131461BF084FA044638B966
S31508000640134B9B88B34203D13B7843B1012B15D09A
S31508000650204603B0F0BD31461BF05CFAEEE7B7F86A
S31508000660011095F8BE012CF0BCFE2B4642F2107123
S31508000670084A009405F59C7002F0F2F82B4641F200
S315080006808831054A009405F5B87002F0E9F8DFE705
S31508000690FC7F0020E5D1020897D00208F8B54FF490
S315080006A0E26200210F4831F026F90025FF267F2750
S315080006B00C4C84F8BE6184F8BF7184F8C16104F5F6
S315080006C0D47304F594700A22022101352DF036FC04
S315080006D0042D04F5E274ECD100F074FEBDE8F84090
S315080006E000F0CEBDE00D002005289ABF024B33F876
S315080006F010004FF6FF707047FC7F00200949002262
S315080007000B4610B591F8BE41844204D14FF4E2710C
S3150800071001FB023010BD0132042A01F5E271F1D164
S315080007200020F7E7E00D00202DE9F041374D0424BD
S315080007302E468AB00DF1190806F59477384605A9AC
S315080007402DF055FCA0B930469DF81830BDF8162096
S315080007509DF81410CDF80080FFF764FF20B93846DD
S3150800076005A92DF064FCE9E7052801D01A28F6D179
S31508000770013C14F0FF0406F5E276DDD1274695F82C
S31508000780C031A3B328460DF10A020DF109012CF078
S3150800079083FC9DF80930032B34D104AB00934FF644
S315080007A0FF7103AB0DF10B022CF0F8FC50B395F872
S315080007B0BE3100268DF82230B5F8BC3105A9ADF852
S315080007C0203001238DF824309DF80A3005F10C00FD
S315080007D08DF82330039B8DF81C600693049B0593C4
S315080007E0FF23ADF81E302CF055FE85F8C061E234C3
S315080007F0B4F5627F05F5E275C1D10AB0BDE8F041EE
S3150800080000F0E6BD85F8C071F1E700BFE00D0020F5
S315080008101FB50C46ADF80E10FFF770FF88B10289B8
S3150800082002F4C0727AB1017A0DF10E03074A848088
S315080008300093D2880223C1F340012CF076FC04B061
S3150800084010BD2220FBE70220F9E700BFFC7F00204D
S315080008501FB50C46ADF80E10FFF750FF88B1028998
S3150800086002F4C0727AB1017A0DF10E03074AC48008
S31508000870009312890223C1F3C0012CF056FC04B080
S3150800088010BD2220FBE70220F9E700BFFC7F00200D
S315080008902DE9F04F87B0044600F058FE054620467D
S315080008A000F076FA2368A94A23F47F43054023F02B
S315080008B0070385F001059342EDB200F053822BD869
S315080008C0A34A934200F034820ED802F17F42934243
S315080008D000F0D68102F54032934200F0C38185F0DC
S315080008E0010007B0BDE8F08F9A4A9342F7D1207904
S315080008F0FFF704FF06460028F1D0E379B4F805109F
S315080009000A2B24D00023062290F8BE01CDE9003335
S315080009101BF0C0F80125E2E78F4A93420CD002F19A
S315080009202C7202F58032934200F0E38002F17B429A
S3150800093002F59E029342D2D126793046FFF7DEFEB3
S315080009400028CCD0214630462CF0CAFBE2E7834B80
S315080009501F888F4216D1238990F8BE01032B05D92B
S3150800096000230722CDE900333946D1E7072205924D
S315080009700DF11202019205AA1A440092C3F104036A
S315080009800022F1E7DA888A4236D1238990F8BE0137
S31508000990012B04D900230722CDE90033B8E70DF16E
S315080009A012020192321D1A440092C3F10203002278
S315080009B01BF070F86A4AB4F80510B2F802C061452F
S315080009C00CD053898B4209D0D3888B4206D0138921
S315080009D08B4203D093888B4240F0A780E379207935
S315080009E00A2B0DF1120714D0002306220197009353
S315080009F01BF050F8012399E01B898B42DAD1238931
S31508000A0090F8BE01012BC5D80DF112020192B21D54
S31508000A10C9E724890023012C03D90722CDE9003729
S31508000A20E6E76145ADF8143008D1337A03F0600C77
S31508000A30BCF1600F37D10323ADF8143053898B42CC
S31508000A4008D1338903F4C073B3F5C07F34D10323C7
S31508000A50ADF81430D3888B4208D1337A03F0060CEC
S31508000A60BCF1060F33D10323ADF8143013898B423A
S31508000A7008D1337A03F0180CBCF1180F30D10323D0
S31508000A80ADF8143093888B4205D1337ADB0744BF1F
S31508000A900223ADF8143005AB2344009300220197D6
S31508000AA0C4F10203A4E713F0200F01D00223C3E721
S31508000AB05B06C3D50123BFE796F90830002B01DA98
S31508000AC00223C5E7737ADB07C4D50123C0E713F011
S31508000AD0020F01D00223C7E75B07C7D50123C3E787
S31508000AE013F0080F01D00223CAE7DB06CAD5012393
S31508000AF0C6E794F804904846FFF700FE0646002825
S31508000B003FF4EDAE164BB4F80510B3F802E07145A4
S31508000B100ED05A898A420BD0DA888A4208D01A89B6
S31508000B208A4205D09A888A4202D000231D43D6E617
S31508000B30E279122A04D0062248461AF0D5FF59E768
S31508000B406289022A0ED00D22F6E700BFA0005902DC
S31508000B50A0000601A0000A01A0005905FC7F00209C
S31508000B60F07F002022890AB10722E5E7A089821EC4
S31508000B7092B2012A8CBF4FF000084FF0010820F00E
S31508000B80020707F1FF3A1FFA87FCDAF1000747EB7D
S31508000B900A0771458DF812802CD1338903F4C07386
S31508000BA013B118B1FD22C7E7012A0AD9BCF1010F12
S31508000BB007D0337A13F0600F03D006F10C0000F06B
S31508000BC00FFD337A68F3451367F38613337230469D
S31508000BD00DF1120205A92CF05FFA9DF812209DF876
S31508000BE0141096F8BE012CF062FC0022B4F8051029
S31508000BF02079A2E75889884219D1337A13F0600F11
S31508000C00D0D1012A0AD9BCF1010F07D0338903F4E0
S31508000C10C0731BB106F10C0000F0E2FC337A68F3EE
S31508000C20C7133372737A67F300037372CFE7DA88F0
S31508000C308A4206D1337A67F3820368F34103337233
S31508000C40D3E71A898A4205D1337A68F3C30367F36F
S31508000C500413F4E79B888B427FF467AF337A68F313
S31508000C600003ECE72079FFF749FD00283FF437AE8B
S31508000C706379A27943EA0223A0F8BC3100252EE65F
S31508000C80DFF800B19BF800609EBB42F6021301270D
S31508000C904FF6FF7ADFF8F080DFF8F090ADF8143001
S31508000CA0374A4346CDF80C900221002028F802ABBB
S31508000CB029F802AB02EB46021AF0B6FEA8B9B6B19D
S31508000CC00221039B38F8020C05AA1AF0ADFE00288B
S31508000CD014BF002707F001070136062EE0D18BF86E
S31508000CE0007037B92CF088FAF9E50027F4E70126F1
S31508000CF0D6E7FF20FFF702FD064600283FF4EFADD2
S31508000D004FF4E272002130F0F6FD17230A22A6F806
S31508000D10BC31022106F5D47306F594702DF00EF950
S31508000D20207B0022012186F8BE012CF0C0FBA5E736
S31508000D30A079FFF7E3FC064600283FF4D0AD00F59E
S31508000D409C7001F06FFD06F5B87001F06BFD06F1B9
S31508000D500C0000F045FCFF2386F8BE31A0792CF084
S31508000D6051FB8BE72079FFF7C9FC00283FF4B7ADA4
S31508000D70A37A80F8BF31637A80F8C1317EE700BF75
S31508000D80ACFB03087D800020FC7F0020F07F00205C
S31508000D9070B503687B4A23F47F4323F00703934225
S31508000DA005468AB004D0002080F001000AB070BD64
S31508000DB00079FFF7A3FC04460028F4D00220B5F812
S31508000DC00560FFF791FC8642EDD1EB79522B07D0EF
S31508000DD0FC22B5F8051028791AF086FE0120E3E70B
S31508000DE02B8923B1032120462CF017FAF6E72B7B33
S31508000DF0042B00F2C480DFE803F003475EB2C200AA
S31508000E006B89032BEED12378012B01D10721EAE761
S31508000E1020460DF10A020DF109012CF03DF99DF865
S31508000E200930022B01D00621DDE704AB00932046EA
S31508000E30B5F80D1003AB0DF10B022CF0AFF908B99C
S31508000E400821D0E794F8BE3105A98DF82230B4F808
S31508000E50BC3104F10C00ADF8203000238DF82430A5
S31508000E609DF80A308DF82330039B0693049B05935F
S31508000E702CF010FB0028D6D16B7BAA7B43EA022311
S31508000E80638001232380A9E76B89032BAAD12378E2
S31508000E90012BBBD02046B5F80D102CF094F900288C
S31508000EA0CED004F59C7001F0BDFC04F5B87001F0D5
S31508000EB0B9FC012197E76B89052B93D12378012B80
S31508000EC0A4D020460DF10A020DF109012CF0E4F830
S31508000ED09DF80930022BA6D104AB00932046B5F83D
S31508000EE00D1003AB0DF10B022CF058F90028A7D012
S31508000EF09DF80B30002B3FF475AFEA7B2B7C9A42AA
S31508000F003FF670AF94F8BE1104F10C008DF822106C
S31508000F10B4F8BC118DF81C20ADF8201000218DF80E
S31508000F2024109DF80A10ADF81E308DF82310039989
S31508000F3006910499059105A92CF0AFFA58B904F55C
S31508000F409C7001F06FFC6B7BAA7B43EA02236380EB
S31508000F5040F2012396E72D287FF465AF70E76B8989
S31508000F60012B7FF43FAF2578012D06D104F10C0043
S31508000F7000F036FB002323709BE7052133E70221A7
S31508000F8031E700BFA0000A08194A30B50023144605
S31508000F90114694F83A50854204D140F28C7202FB0D
S31508000FA0031030BD0133042B04F28C74F1D10023F5
S31508000FB092F83A40FF2C13D140F28C725A438B18A0
S31508000FC0002483F83A004FF6FF703D320A4418872A
S31508000FD01881988483F83B401846C3F88827E0E7C9
S31508000FE00133042B02F28C72E2D10020D9E700BF4C
S31508000FF0F41400202DE9F04F03689E4A23F47F433A
S3150800100023F007038DB093420646079106D002F1F6
S315080010100072934215D04FF001080EE0437B047925
S315080010200593002307890393C7F30B072046FFF7A9
S31508001030ABFF054668B94FF0220840460DB0BDE83B
S31508001040F08F83794FF6FF7705930123047903938D
S31508001050ECE72046FFF752FB81460028EBD02046F6
S31508001060FFF792FF10B94FF02D08E6E71C234FF65D
S31508001070FF7290F83B4003FB04031B89934217D188
S3150800108000229F4280F83B2021D000241C2202FB2C
S3150800109004F3C118B1F808C0BC4502D0897D0029FF
S315080010A065D002FB04000781022CDCD0002370E027
S315080010B09F42EBD09742F7D00134E4B2012C02D814
S315080010C080F83B40E2E7002380F83B30DDE79346B3
S315080010D01446134666E01C2202FB0BF2737CAA58E0
S315080010E00693D5F8883706F113079B1A624AB67B2A
S315080010F01360039B2146009328460823049A2CF084
S31508001100DBF889E03B880F2EA9F80030BB7821462A
S3150800111089F8023099F80030284603F0030308BF1F
S3150800112043F080038DF82F3000230DF12F02009332
S3150800113001232CF0C1F80F2E07F1030708D000236E
S3150800114000933A462146284699F802302CF0B4F81E
S3150800115099F802300AF1010A1F4465E01C2303FBD3
S315080011600B5395F83A001989FFF752FB7EE0022CDB
S315080011703FF479AF079A022A05D12B44198995F8C5
S315080011803A00FFF765FB1C23002203FB04535A6051
S3150800119001234FF6FF729742A34603D01C2202FB97
S315080011A0045217811C2101FB0B5A61439AF8162039
S315080011B01343069301F10E03039A0893EB1804935D
S315080011C00A3199F8C13129440092049832460991A6
S315080011D02BF01DFF804600287FF42DAF99F8BF310C
S315080011E009998AF80C30069B6BB10123CAF80400EA
S315080011F00A46AAF8087021460093284604232CF0CC
S315080012005BF88AF81680039B002B3FF464AFB37A29
S3150800121006F10C07F6790693069BA02B3FF6FBAE64
S315080012204FF0000ADFF85490069A5FFA8AF39A425A
S315080012303FF668AF0EB10F2E0FD10F490A6852B1AB
S315080012401C2303FB0BF3E858089B8418EB588350C0
S31508001250049B5B68636000230B60059B13B10F2B2F
S315080012607FF4EBAE079B022B3FF478AF4FF01C08D8
S31508001270E3E600BFA0005903F01400207E8000209A
S3150800128038B5104B4FF6FF72FF211C46002503F5B3
S31508001290805083F83A101A8783F8C617A3F8C4272C
S315080012A083F8522FA3F8502F80F8DE16A0F8DC2614
S315080012B094F83A0001352CF0A5F8042D04F28C7444
S315080012C0F6D138BDF414002002460020044B1B68F2
S315080012D003B97047997E914208BF18461B68F7E71D
S315080012E0243300202DE9F8430D4616460746002804
S315080012F05ED000295CD04B68002B59D00B68002BB8
S315080013005AD08A7BFF2A55D08C89A4F11702E32A82
S3150800131052D8043C013BA2B213FA84F4B4FBF2F4AB
S31508001320013CA4B24EB90A7A4B899A4244D8A242E1
S3150800133044D8FF2B01D0A34240D83EF073F881462B
S315080013401F4BD3F80080B8F1000F26D1A87BFFF712
S31508001350BBFF38BB4FF48E724146384630F0CBFAA5
S3150800136007F10C0305F1140255F8041B954243F8DE
S31508001370041BF9D116B10023FC823B75FB8A39465A
S31508001380FF2B3B7D0E4808BFFC82BB802CF0B9FDC5
S3150800139048463EF042F8002008E0474502D0D8F813
S315080013A00080D0E748463EF038F82E20BDE8F8839E
S315080013B02220FBE72520F9E72120F7E72D20F5E78E
S315080013C02433002001482CF095BD00BF24330020AB
S315080013D02DE9F0474FF6FF765A4D2C6864B93EF072
S315080013E021F806462C68584D002C40F0908030466F
S315080013F0BDE8F0473EF011B8A379190771D403F098
S315080014000602022A6DD0062A05D1A28823F0070310
S31508001410A371531CA380A788E38A9F4261D8DB1B6C
S315080014209BB2B3425DD0A379DA0737D4228BD4F8BE
S315080014300CE0131F0EF1FF381FFA83FC07FB03F1BC
S3150800144018FA83F3B3FBFCF3B7FA87F0013B9BB2B8
S31508001450BB4204BF1CFB03FC0EF101024FEA50100D
S3150800146008BFA2EB0C0340EA8700C0B20CBF9AB2D1
S31508001470033A236984F8220012BF92B240F00200B0
S3150800148084F822001944228404F1230030F03EFA3D
S31508001490A37923F0070343F00103A371237FA77EF3
S315080014A094F81BA0B4F8208004F12209DBB10120CE
S315080014B0FFF71AF94B46014642463846BAF1000F7D
S315080014C013D01AF03FFBC0B9A37943F00203A37106
S315080014D0E37E6BB9A37923F00703A371A3880133CD
S315080014E0A38024687AE70520E2E71AF013FBEAE707
S315080014F0A37960F38203A371F3E70528F1D01A28CC
S315080015001FBFA379A06043F00803A371E9E7A28887
S31508001510E38A9A4208D89B1A4FF6FF729BB2934207
S3150800152002D0A3791B070BD5214606482CF0F8FCF8
S31508001530A2682046072A8CBF0221A95C2BF07AFEF6
S31508001540246851E724330020B8FB03080368224ABD
S3150800155023F47F4323F00703934210B5044608D0CB
S3150800156002F1017293421BD01C4A93420DD001200E
S3150800157010BD8079FFF7A8FE0028F8D013238360F2
S31508001580837943F008038371F1E70079FFF79CFE3E
S315080015900028ECD0B4F80520038B9A42EED1E6E792
S315080015A0C379022BE3D10120FFF79EF8B4F8053082
S315080015B0834208D12079FFF787FE0028D7D08379A0
S315080015C043F00403DFE70520FFF78EF8B4F805308B
S315080015D08342CCD1EEE700BFA0000601A0000900B7
S315080015E010B5044698B13DF01DFF0A4B1B6823B998
S315080015F02D243DF012FF204610BD9C42F6D106234D
S31508001600A360A37943F00803A3710024F1E7222419
S31508001610F1E700BF24330020024B1868B0FA80F0C7
S315080016204009704724330020F0B50546524E93B062
S315080016300F46306851492DF0B8FD2CF07DFC2CF092
S315080016407CFC2B462A464E4930682DF0AEFD002319
S315080016500DF1470219461846CDE90E33CDE90C338C
S31508001660CDE90A33CDE90833CDE90633CDE90433AC
S31508001670CDE90233CDE900331FF08CFF044690BB59
S315080016807C783068022C31D0FE2C3C494AD0012C9B
S3150800169057D12DF08AFD2CF04FFC2CF04EFC2A4633
S315080016A0384930682DF081FD97F900300122009302
S315080016B0002128467B781FF03FFF044698B9284644
S315080016C000F01EF904463068002C43D02E492DF050
S315080016D06CFD2CF031FC2CF030FC2A462B49306886
S315080016E02DF063FD1924204613B0F0BD9DF8473050
S315080016F02249012B08D92DF058FD2CF01DFC2CF0A1
S315080017001CFC2A462249CCE72DF04FFD2CF014FC90
S315080017102CF013FC2A461F4930682DF046FD01239C
S315080017207B70C1E72DF041FD2CF006FC2CF005FC82
S315080017302A469DF84730184930682DF036FD7C70EA
S31508001740B2E72DF032FD2CF0F7FB2CF0F6FB2A461B
S315080017501249E1E709492DF028FD2CF0EDFB2CF0A4
S31508001760ECFB356800F000F9042302460C492846CC
S315080017702DF01BFDB7E700BFA8330020C0FB030808
S31508001780C5FB030809FC03086FFD030874FD03087D
S315080017903DFC030883FC0308CEFC030813FD03087D
S315080017A0AAFD030838B505462BF07AFE18B3134C84
S315080017B0134920682DF0F9FC2CF0BEFB2CF0BDFB7C
S315080017C02A46104920682DF0F0FC284600F0B4F8A7
S315080017D00B4920682DF0E9FC2CF0AEFB2CF0ADFB94
S315080017E0246800F0C1F804230246074920462DF074
S315080017F0DCFC002038BD2D20FCE700BFA833002004
S31508001800C0FB0308C8FD0308AAFD030803682C4AA1
S3150800181023F47F4323F00703934273B504463CD071
S3150800182002F18072934208D002F17E4293421FD0A1
S31508001830002080F0010002B070BD067930462BF01A
S315080018402FFE0028F4D0E38883B11E4D1E49286870
S315080018502DF0ABFC2CF070FB2CF06FFB237A324694
S315080018600093E388194928682DF09FFC0120E0E7DA
S31508001870057928462BF014FE0028D9D0114C1449B6
S3150800188020682DF092FC2CF057FB2CF056FB2A46CC
S31508001890104920682DF089FCE8E7057928462BF0E1
S315080018A0FFFD0028C4D0074C094920682DF07DFCAF
S315080018B02CF042FB2CF041FB2A460749E9E700BF1A
S315080018C0A0005901A83300206FFD0308ECFD0308AA
S315080018D0C0FB03082FFE03085EFE030830B5024668
S315080018E000230A25054905FB03F460180C5D94429C
S315080018F003D00133042BF6D1002030BDC487002065
S315080019000C4910B500220C464B7833B10132042A33
S3150800191001F10A01F8D11C2010BD0A214A43A11879
S31508001920A054012218464A704B800B71CB800B815C
S31508001930F2E700BFC487002070B500220A25094CCB
S3150800194005FB02F1665C0B19864203D00132042AB4
S31508001950F6D170BDFF22625200225A801A71DA80CF
S315080019601A81F6E7C4870020044BDA7A58781044BF
S315080019705A7DDB7F10441844C0B27047C4870020E4
S315080019800368184A23F47F4323F00703934213B5E9
S3150800199026D1B0F805301F2B22D142890479012AB5
S315080019A01BD1037BDB0714D5002311468DF80430C1
S315080019B0204601AB20F062F941F2FC13002818BF5B
S315080019C01846C2B21F21204602B0BDE810401AF0E0
S315080019D08BB8204620F068F9EEE741F20D10F0E7E3
S315080019E002B010BDA0000A08036837B523F47F4388
S315080019F0374A23F00703934207D002F1006202F543
S31508001A001022934206D003B030BD03B0BDE8304083
S31508001A1000F0AEB8B0F805404289A4F12103057973
S31508001A20D2B2082BEFD801A151F823F0511A0008B9
S31508001A30071A0008631A0008071A0008A11A0008FE
S31508001A40071A0008731A0008071A0008BB1A0008C4
S31508001A50012A39D1037B9A1E122A24D81D4A1370EB
S31508001A601BE0012A30D1037B5A1E0E2A1BD81A4ABC
S31508001A70F5E7531E012B27D8002300F10C010DF1C1
S31508001A800600ADF806302FF041FF144ABDF80630BF
S31508001A9012889A4207D8124A138000F025F820B116
S31508001AA041F2FC1001E041F2FF10C2B2214628467D
S31508001AB003B0BDE830401AF017B8012A04D1037BF9
S31508001AC0012BF0D8074ACAE741F20D10EDE700BF2F
S31508001AD0A0000100838000208280002028030408DB
S31508001AE008800020818000201FB51B4B1B4C1B78EB
S31508001AF053B91B4B1A8800230093114620781FF010
S31508001B00F9FB38B104B010BD20781FF023FC00287B
S31508001B10EFD0F7E7134B01211B782078012B14BF70
S31508001B20012202221FF064FC0028EBD101460222A2
S31508001B3020781FF085FC0028E4D103AB019301232C
S31508001B4009490093094B02468DF80C001B78097861
S31508001B50207820F0B9F8D5E784800020AF880020E7
S31508001B600880002081800020838000208280002059
S31508001B702DE9FF414B4B0DF10C081A889B78ADF8FF
S31508001B800C2088F8023000231422474C01262370C3
S31508001B90464B474F1A702022464B38461E70464B16
S31508001BA01A80464B1E701FF08BFB054618B3444C33
S31508001BB0444920682DF0F9FA434920682DF0F5FAD2
S31508001BC02CF0BAF92CF0B9F9404B414A0093414937
S31508001BD0402320682DF0E9FA3F492B463F4A206802
S31508001BE02DF0E3FA284600F0DFFD3D4920682DF088
S31508001BF0DCFA00BEFDE74246032138781FF00CFCEC
S31508001C00054618B32E4C2F4920682DF0CEFA2E49DA
S31508001C1020682DF0CAFA2CF08FF92CF08EF92B4B90
S31508001C202B4A00932B49462320682DF0BEFA2A49F1
S31508001C302B462A4A20682DF0B8FA284600F0B4FD4B
S31508001C40274920682DF0B1FA00BEFDE7FFF74CFFE3
S31508001C50054618B31A4C1B4920682DF0A6FA1A49EE
S31508001C6020682DF0A2FA2CF067F92CF066F9174BCC
S31508001C70174A009317494A2320682DF096FA164901
S31508001C802B46164A20682DF090FA284600F08CFD5F
S31508001C90134920682DF089FA00BEFDE7267004B0C6
S31508001CA0BDE8F08157FF0308848000208380002068
S31508001CB0AF880020828000200880002081800020D4
S31508001CC0A833002007FC03088BFE03081A03040840
S31508001CD090FE030822FF030831FF03082EFF0308BE
S31508001CE046FF030870B5294E92B0354605AC0FCDB0
S31508001CF006F114050FC40FCD0AAC0FC495E80F0002
S31508001D0084E80F00224B234807930AAB09934FF444
S31508001D108073ADF82C303DF090FB1F483DF08DFBED
S31508001D200421B38E0DEB01000022ADF804302CF02F
S31508001D3073FAF38E0022042102A8ADF808302CF0BD
S31508001D406BFA338F0022042103A8ADF80C302CF06F
S31508001D5063FA0122042104A8ADF810202CF05CFADD
S31508001D600E4805A904F0FAF90D4B0E4A0020C3F8EF
S31508001D70CC24A2F58032C3F8C4244FF00112C3F86C
S31508001D80C8241C22C3F8B42412B070BD2C0304085E
S31508001D90A05A3200480404084404040800000A5003
S31508001DA000C003500100030010B5044601202BF0C3
S31508001DB07FFB762105482DF040F8214603482DF093
S31508001DC03CF800202BF074FB002010BD00000A50E0
S31508001DD070B50546C0F3C7100E46144665F07F0574
S31508001DE0FFF7E2FF01202BF063FB0948E9B22DF06B
S31508001DF024F82644B44204D100202BF059FB0020D5
S31508001E0070BD002102482DF018F804F8010BF1E71F
S31508001E1000000A5013B5044601214F200DF10702B0
S31508001E20FFF7D6FF9DF8073003F0E003802B1BD0A1
S31508001E300AD8402B14D002D8A3B90E4B0DE0602B5C
S31508001E400AD0012002B010BDC02B0FD0E02B0FD056
S31508001E50A02BF6D1084B00E0084B00202360F1E7E1
S31508001E60074BFAE7074BF8E7074BF6E7074BF4E7A4
S31508001E70074BF2E700007A3D0000FA3A0000FA3B09
S31508001E8000007A3C0000FA3C00007A3B00007A3AEF
S31508001E900000FA3938B504460D46C0F3C710FFF7F7
S31508001EA083FF01202BF004FB04F07F0105482CF08A
S31508001EB0C4FF294603482CF0C0FF00202BF0F8FA8F
S31508001EC0002038BD00000A50DFED497AB4EEE70A73
S31508001ED0F1EE10FA10B52DED028B54DCDFED457AE4
S31508001EE0B4EEE70AF1EE10FA52DCDFED437AB4EE0F
S31508001EF0E70AF1EE10FA50DCDFED407AB4EEE70AB5
S31508001F00F1EE10FA4EDCDFED3E7AB4EEE70AF1EEBA
S31508001F1010FA4CDC9FED3B8AB4EEC80AF1EE10FAD3
S31508001F204ADCDFED397AB4EEE70AF1EE10FA48DC5E
S31508001F30DFED367AB4EEE70AF1EE10FA44DCF3EE9A
S31508001F40027AB4EEE70AF1EE10FA42DCF2EE027A11
S31508001F50B4EEE70AF1EE10FA40DCF1EE087AB4EED8
S31508001F60E70AF1EE10FA4FF00B003CDD0C24B1EE57
S31508001F70098A2BF0E3FB20462BF0F5FBB0EE480A66
S31508001F80BDEC028B10BD03209FED218A0446F0E7C5
S31508001F9004209FED208A0446EBE705209FED1E8A64
S31508001FA00446E6E706209FED1D8A0446E1E70F2072
S31508001FB09FED1B8A0446DCE707209FED1A8A044634
S31508001FC0D7E708200446D4E709209FED178A044678
S31508001FD0CFE70A20B3EE098A0446CAE70B20B2EE19
S31508001FE0098A0446C5E70D24B0EE098AC1E700BF91
S31508001FF00080BB4500803B450080BB4400803B44D5
S315080020000080BB430000C84200009642000014420C
S315080020100000FA4500007A450000FA4400007A44B8
S315080020200000FA430000484300004842B7EE007A31
S31508002030C7EE007A9FED057AC0ED157AC7EE007AED
S3150800204080ED140AC0ED167A704700BF35FA8E3C4B
S31508002050F0B52DED048B0F4600F15C050446D0ED76
S31508002060098A90ED0A9AD0ED0B9A85B0284616464D
S31508002070B0EE408A2BF0BEFE002F48D094ED097AC8
S31508002080DFED386AB4EEE67AF1EE10FA3FDBDFED03
S31508002090367AB4EEE77AF1EE10FA38D894ED0A7A81
S315080020A0B4EEE67AF1EE10FA31DBB4EEE77AF1EE49
S315080020B010FA2CD8F5EEC09AF1EE10FAF1EE688A0D
S315080020C0B1EE490A04F1680725DB0AF087FA8DEDB7
S315080020D0010AB0EE680A0AF081FAB1EE400A28460B
S315080020E03A4601A98DED020A8DED038A2BF0BAFE58
S315080020F028462BF072FE0EB900236366D4ED147AD7
S31508002100B6EE000A284680EE270A2BF08BFE05B0AD
S31508002110BDEC048BF0BD0AF061FA9FED149A39EE16
S31508002120400A8DED010AB0EE680A0AF057FA38EE51
S31508002130098AB1EE400A01A88DED020A8DED038ADF
S315080021402BF04BFE3A46284601A92BF08BFE284673
S315080021502BF043FED4ED187AF1EE677AC4ED187ABF
S31508002160C9E700BFDA1B7CBFDA1B7C3FDB0F49409F
S3150800217070B5044600F052F80128054626D104F148
S315080021802406304600F01CF93146204604F1440680
S315080021902BF0ACFD304600F021F9D4ED117AF1EEC2
S315080021A0677AC4ED117AD4ED127AF1EE677A314680
S315080021B02046C4ED127A2BF0B5FD29462046BDE827
S315080021C070409FED030A0022FFF742BF70BD00BFB3
S315080021D0000000007FB502250E4E0F4835702BF023
S315080021E063FD2BF063FA044660B90DF103002BF08A
S315080021F070F9044630B9032301A833702BF07AFB33
S31508002200044610B12BF063F900252046357004B05A
S3150800221070BD00BF8580002028330020014B187848
S31508002220704700BF8580002030B501212DED028B57
S315080022300223B0EE408A1B4D83B0002208462B705D
S315080022402BF0FAFAB0EE480AFFF73EFE164C0020CD
S3150800225084ED000A2BF0B1FA01202BF099FA6020E0
S315080022602BF0C0FAA0202BF0D2FA322005F064FF3A
S31508002270002101202BF012FB01A82BF0B5F994EDF3
S31508002280000A0A482BF02FFD94ED000A0748FFF7CD
S31508002290CDFE06482BF062FD01232B7003B0BDEC82
S315080022A0028B30BD85800020A4330020283300200F
S315080022B01A4AD36B6BB392ED0C6A9FED197A07EE47
S315080022C0903A26EE076AF8EE677AC6EE276A92ED26
S315080022D00D6AFDEEE66A26EE076A16EE903AC6EE37
S315080022E0276AFDEEE66A038016EE903AD2ED0E6A8C
S315080022F066EE876A86EEA77ABDEEC77A438017EE42
S31508002300103A838000231363536393630023D363D4
S315080023107047038043808380704700BF28330020BE
S3150800232000007A440F4B9FED107AD3ED1A7A67EEC8
S31508002330877AFDEEE77A17EE902AD3ED1B7A67EED9
S31508002340877AFDEEE77A028017EE902AD3ED1C7A9B
S3150800235067EE877AFDEEE77A17EE903A4280838039
S31508002360704700BF28330020A00CB3450F4B9FEDE4
S31508002370107AD3ED117A67EE877AFDEEE77A17EED3
S31508002380902AD3ED127A67EE877AFDEEE77A028015
S3150800239017EE902AD3ED137A67EE877AFDEEE77A81
S315080023A017EE903A42808380704700BF283300209A
S315080023B00000C8420148FFF7DBBE00BF28330020F3
S315080023C0054A1278012A04D000220260426082601F
S315080023D070472BF0A9B800BF85800020054A1278FF
S315080023E0012A04D0002202604260826070472BF006
S315080023F0CBB800BF8580002008B5094B1B78012B98
S3150800240001D0002008BD2BF011F9064A13680133E4
S3150800241013600028F5D0044A136801331360F1E706
S3150800242085800020A03300209C3300209FED060AFB
S3150800243000F10C03B0EC017AF1EC017A984207EE50
S31508002440270AF7D1704700BF000000002DE9F041C8
S315080024505D4C92B009AD94E80F0085E80F000DAA0F
S31508002460174604F1100304F1200C1646186859683B
S31508002470083303C663453246F7D11868534B08A993
S31508002480306018793CF0D4FF51483CF0D6FF5148EB
S315080024903CF0D3FF4FF4807308984F49ADF83430B9
S315080024A0814228BF01460C972CF0BEFD294602251D
S315080024B00A904A4804F03AF948482CF05DFD474826
S315080024C02CF083FD45482CF06CFDB4F824800122DD
S315080024D004216846ADF800802BF09EFEE78C0022AA
S315080024E0012101A8ADF804702BF096FE268D012275
S315080024F0042102A8ADF808602BF08EFE0122042103
S3150800250003A8374CADF80C502BF086FE354B4FF42C
S315080025104870C4F8C8344FF00213C4F8C43403F53D
S315080025208033C4F8CC341C23C4F8B43405F08EFECA
S3150800253007A8ADF81C5000F0B7FB142005F086FE7E
S3150800254007A8ADF81C5000F09FFB232005F07EFE7F
S3150800255007A8ADF81C5000F0A7FBB9211F482CF0BE
S3150800256059FD07A8ADF81C5000F08EFB002204A800
S315080025701146ADF810802BF04FFE002205A8114633
S31508002580ADF814702BF048FE0122002106A8ADF81C
S3150800259018602BF041FE0122002107A8ADF81C5057
S315080025A02BF03AFE0D4804F087F800230948C4F8D2
S315080025B0B434C4F8C834C4F8C434C4F8CC343CF0D1
S315080025C03FFF12B0BDE8F081680304085C04040804
S315080025D04404040848040408E070720000000A5025
S315080025E000C003500200010007B5094B20281B88CC
S315080025F0ADF8043009D1042101220DEB01002BF0BE
S315080026000BFE002003B05DF804FB0E20FAE700BFBE
S315080026109203040807B5094B20281B88ADF8043037
S3150800262009D1042100220DEB01002BF0F5FD002055
S3150800263003B05DF804FB0E20FAE700BF9203040816
S3150800264008B506483CF0F9FE2FF065F82020FFF79C
S31508002650CBFFBDE80840FFF7F9BE00BF44040408F5
S3150800266001483CF0EABE00BF440404080348044A93
S315080026700449121A92102BF030BC00BF80010008E2
S31508002680400300080083002008B5154B83F30A8829
S3150800269000F030F8FFF7EAFF124B13498B4212D3CA
S315080026A00020124B12498B4218D3FDF7D9FE186841
S315080026B050F82240586840F8224001329868824211
S315080026C0F5D30C33EAE70022F8E71C6844F8220041
S315080026D001325C68A242F8D30833E4E70022F8E73F
S315080026E000000020E8770408F4770408F477040863
S315080026F0F47704084FF48041124B134A70B59A6078
S31508002700D3F88820114D42F47002C3F88820104A85
S3150800271005F5005491664FF0FF3222660D4A62664F
S315080027200222C3F8D020BFF34F8FBFF36F8F4FF449
S315080027304036002004F020FD0020E66004F000FD8D
S315080027402E6170BD00ED00E0000000080080004426
S3150800275000900050F7FF3700014B1860704700BF24
S31508002760C4840020054B1860054B1B6F03F0070354
S31508002770032B01D13BF008BC704700BFCC84002076
S315080027800080005008B504F011FD014B186008BD23
S31508002790A8330020024B034918682CF006BD00BF79
S315080027A0A83300205BFF030870B50C4C0C4906469D
S315080027B020682CF0FAFC04F0F9FC0546206804F0C1
S315080027C0E9FC3046FFF7E6FF284604F0E3FC2068FC
S315080027D00449BDE870402CF0E8BC00BFA8330020CF
S315080027E05DFF03085FFF030838B505463CF01AFE8F
S315080027F000230B4A14685CB1AC4206D1A96A6BB1D6
S3150800280099623CF00AFE012007E02346A46AF2E733
S31508002810002DF3D03CF001FE204638BD1160F0E7EC
S31508002820AC33002010B50446B0B13CF085F920461B
S31508002830FFF7DAFF10B194F82C300BB9002010BD61
S31508002840064C2368002BF9D03CF0ECFD2368013BCD
S3150800285023603CF0E2FDF1E72220F0E7B0330020E8
S315080028602DE9F04385B00446914698460E469DF8F4
S31508002870307009B9002F5CD12046FFF7D3FF054613
S31508002880002858D184F82C00606305F071FC864254
S3150800289033D93CF0E1F92946844640F2E7304FF453
S315080028A07A720023E6FB0C0108F0C2FF4FF0FF32F4
S315080028B0002308F0BDFF2346E08611462046CDE9F1
S315080028C000551E4A3CF08DFE054690B9C4E90898A5
S315080028D084F82D7026633CF0A5FD194A136833B3B6
S315080028E01A469B6A002BFBD194620023A3623CF034
S315080028F094FD284605B0BDE8F08347B12346314626
S315080029002046CDE900550D4A3CF008FADCE730468A
S3150800291003A93CF0B9F905460028EAD12346204622
S31508002920CDE90077054A03993CF033FECCE71460FD
S31508002930DBE72125DDE72225DBE700BF452900087F
S31508002940AC33002091F82C3013B50C4683B98B8E26
S31508002950CA8E93420ED243B9CDE9003320460B46C0
S31508002960124A4FF0FF313CF0F6FDA38E0133A386E1
S3150800297002B010BD52B191F82D3093B101230093E6
S31508002980D1E908232046096BFFF76AFF012384F87B
S315080029902C30074B1A6801321EBF1A6801321A60BA
S315080029A0E6E708463CF0C8F8F0E700BF4529000806
S315080029B0B03300202DE9F041154E336833B34FF09C
S315080029C00008144F3CF02EFD05463C6824B92846FD
S315080029D0BDE8F0413CF021BD94F82C30A3B1336832
S315080029E084F82C8013B13368013B336094F82D309A
S315080029F013B92046FFF7F8FE28463CF00EFDD4E949
S31508002A00083120469847DDE7A46ADFE7BDE8F0818C
S31508002A10B0330020AC330020034B1B68002B14BFD7
S31508002A2004200120704700BFB0330020024B18680D
S31508002A30B0FA80F040097047B033002007B5082087
S31508002A402BF0D3FB0222064B6846CDE900232BF078
S31508002A502AFB082003B05DF804EB2BF0D1BB00BFBE
S31508002A60006A1810BFF34F8F0549064BCA6802F46F
S31508002A70E0621343CB60BFF34F8F00BFFDE700BF93
S31508002A8000ED00E00400FA0530B5056887B0AB88AC
S31508002A9004461848ADF80C303CF0CFFC0022012162
S31508002AA003A82BF0B9FB0DF10B0103A82BF0C8FB0B
S31508002AB09DF80B3083F001032B70AB79022B15D1EF
S31508002AC04FF0FF330022CDE9043304A90A4B0094E2
S31508002AD003A800F05FF9049B009401330CBF04229D
S31508002AE00122054B05A903A800F0EEF8002007B05F
S31508002AF030BD00BF440404082FE10208002307B5CF
S31508002B00294801933CF099FC4FF4407301220421B3
S31508002B106846ADF800302BF07FFB0122234B0520D9
S31508002B20C3F8442401A93CF083FC002839D1204B82
S31508002B30D3F8F02042F00102C3F8F020D3F8FC20C5
S31508002B4042F08072C3F8FC201A4AA3F55D431A6066
S31508002B50019B194A03F5D52303F2FC43B3FBF2F3B1
S31508002B60164A013B13610223C2F8F0304FF4807312
S31508002B70C2F804334FF06043114AC3F8B02F114A24
S31508002B80C3F8802ED3F8002E42F48072C3F8002EC4
S31508002B90FF2283F82020D3F8002E22F48072C3F88F
S31508002BA0002E03B05DF804FB4404040800D003506B
S31508002BB000ED00E0FF030040F8590D00000004E0B6
S31508002BC055CEACC5090001004FF06043D3F8802EFE
S31508002BD030B5D20715D501240B4D8440D5F8FC2015
S31508002BE042F08072C5F8FC20D3F8002E2243C3F8C1
S31508002BF0002E53F82020002AF0D003F820100020D9
S31508002C0030BD1120FCE700BF00ED00E0F8B5044632
S31508002C1001270E4D04B9F8BD94FAA4F0B0FA80F075
S31508002C2007FA00F20F2824EA0204CABF00F1FF32AD
S31508002C3005EBC00205EBC2021668C8BF1038002EA5
S31508002C40E8D05168C0B2B047E4E700BFB43300200B
S31508002C5008B50C483CF0F1FB192004F07FFA28B1BE
S31508002C60192004F089FA192004F06AFA1A2004F0E7
S31508002C7075FA28B11A2004F07FFA1A2004F060FACF
S31508002C80002008BD4404040848B1012243780178AD
S31508002C909A4030235943034B00205A50704722204C
S31508002CA0704700BF40D0035048B1012243780178ED
S31508002CB09A4030235943034B00205A50704722202C
S31508002CC0704700BF40E003502DE9F0410D4690469D
S31508002CD01F460446002836D0002934D03CF0A2FB13
S31508002CE023780646FF2B05D042462046296803F07E
S31508002CF023FE28602868421C0BD12378FF2B1CD1A1
S31508002D00124B6078D3F824142CF0A1F9431C2860E0
S31508002D1013D00F49069B41F8307001EBC0014B6098
S31508002D202378FF2B04D001230A4A8340C2F82434AF
S31508002D3030463CF072FB002003E030463CF06DFB69
S31508002D402D20BDE8F0812220FBE700BF00C003501C
S31508002D50B433002000D003500F2838B5054613D8E1
S31508002D603CF060FB01230024084AAB40C2F820343B
S31508002D70C2F82434064B43F8354003EBC5035C60C0
S31508002D803CF04BFB204638BD2120FCE700E0035011
S31508002D90B43300202DE9F0410D4690461F460446FF
S31508002DA060B359B33CF03EFB23780646FF2B05D0AB
S31508002DB042462046296803F045FE28602A68531CC7
S31508002DC016D00F4902F10F0341F8337001EBC30126
S31508002DD0069B4B602378FF2B05D0012310329340C6
S31508002DE0084AC2F8243430463CF017FB002003E0BA
S31508002DF030463CF012FB2D20BDE8F0812220FBE78F
S31508002E00B433002000D0035008B503F03BFD054B52
S31508002E1000F0553020F05020C3F82004BDE80840E3
S31508002E20FFF7F4BE00E0035008B503F02BFD054B91
S31508002E3000F0AA3020F0A020C3F82004BDE808401E
S31508002E40FFF7E4BE00E003502DE9F04F9A46554BD4
S31508002E5085B01B7806460F461546DDF83C909DF86A
S31508002E6044B0DDF85080002B00F08C80072A00F271
S31508002E708B800E9B002B00F08780B9F1000F00F0C5
S31508002E808380129BB3F5006F7EDC012802D1109B6C
S31508002E90002B79D0444B03EB05131B7B002B75D015
S31508002EA0424C1022002168462EF025FD04EB4514FD
S31508002EB01022002F58D1394620462EF01CFD43F229
S31508002EC010036380BBF1000F03D1E37843F00303DB
S31508002ED0E370364A0E9B02EB451CCCE90193129B24
S31508002EE06901581E9DF84C30C0F30A0003F003032D
S31508002EF09B0643EA001E53582D48012E00EA03009C
S31508002F004EEA0003CDF800A0535041D113230CF12B
S31508002F10100ECCF80C309CE80F008EE80F006FF00E
S31508002F200301DCF81C20109B61F39F02012FCCF8EB
S31508002F301C20CCF8143003D1CCF81890CCF8043007
S31508002F400027194A290102EB051342F80180159A50
S31508002F5028465A60694622469F605E7303F046FA21
S31508002F60384605B0BDE8F08F002120462EF0C3FC98
S31508002F704FF444736380BBF1000FAAD1E37843F0A2
S31508002F803003A5E70B48ECE70B48EAE70B48E8E708
S31508002F90B8F1000FD4D19CF8023068F304138CF80A
S31508002FA00230CDE786800020A4350020A434002016
S31508002FB00F80FFF3028000F0018000F0078000F028
S31508002FC038B5124B05461B78DBB1E0B13CF02AFA5E
S31508002FD00F4A00231146147B54B92B6001251A01A8
S31508002FE001EB03131D738C503CF017FA204638BDCD
S31508002FF00133082B02F11002EDD13CF00EFA054818
S31508003000F5E70548F3E70548F1E700BF86800020A5
S31508003010A4350020048000F0028000F0018000F052
S3150800302038B53CF0FFF9002305460B4A147B6CB90A
S315080030300133082B02F11002F8D103F083F9074B8C
S3150800304028461C703CF0E9F9204603E028463CF087
S31508003050E4F9034838BD00BFA43500208680002067
S31508003060058000F00D4B10B51B78044693B1072870
S3150800307012D83CF0D7F90A4B03EB04131A7B2AB192
S3150800308000241C733CF0C9F9204610BD3CF0C5F974
S315080030900448FAE70448F8E70448F6E7868000207B
S315080030A0A4350020068000F0028000F0018000F0C0
S315080030B0154B13B51868002301908DF804303CF0C1
S315080030C0B1F9124B1C7824B13CF0A7F9104802B0AC
S315080030D010BD01221A703CF0A0F90E4B01A81C7312
S315080030E01C7783F82C4083F83C4083F84C4083F8DF
S315080030F05C4083F86C4083F87C4008238DF80730E1
S3150800310003F044F92046E2E7940304088680002089
S31508003110038000F0A4350020F8B50D4D2D7885B153
S31508003120072810DC0B4D060105EB0014277B67B159
S31508003130AB510025069BA560636003F057F9284646
S31508003140F8BD0548FCE70548FAE70548F8E700BF73
S3150800315086800020A4350020028000F0018000F05F
S31508003160078000F00A4A08B512785AB107280BD822
S31508003170084A02EB00131B7B43B1002103F0F8F861
S31508003180002008BD0448FCE70448FAE70448F8E7C5
S3150800319086800020A4350020028000F0018000F01F
S315080031A0078000F00A4A08B512785AB107280BD8E2
S315080031B0084A02EB00131B7B43B1012103F0D8F840
S315080031C0002008BD0448FCE70448FAE70448F8E785
S315080031D086800020A4350020028000F0018000F0DF
S315080031E0078000F0184B2DE9F0411F6D5B6D1F40FD
S315080031F000D5FEE701260025144CDFF85880374233
S3150800320018D02368C8F85060A3B1A16828460131D0
S315080032106268A1609847637B012B0BD150B90C4BB0
S3150800322003EB45131A7B60F341021A731A7F60F3A6
S3150800323041021A770135082D4FEA460604F11004B3
S31508003240DDD1BDE8F08100BF00000450A4350020A0
S31508003250A4340020002004502DE9F04F14460646F9
S315080032600F4689B00393C36B01225B6904A96068A2
S315080032709847F36B01225B6905A93846984704A865
S315080032802BF06BFC054650B10023A37563754FF010
S31508003290FF33A3600025284609B0BDE8F08F05A8CE
S315080032A02BF068FC0123A375237E04EBC303DF61BF
S315080032B01D846368BB420ED1206005A82BF07BFCF9
S315080032C04FF0FF332075A360237D043B022B26D8DD
S315080032D00023A375DEE723681A1A53425341A375E0
S315080032E005A82BF068FC237D834218BFA57505A8A1
S315080032F02BF044FC804604A82BF040FC804518BF00
S31508003300002305A818BFA3752BF03FFC804604A828
S315080033102BF03BFC80451CBF0023A375D4E705A80A
S315080033202BF02CFC80B1F36B022238465B6906A9A8
S31508003330984706A82BF030FC0346207D032839D889
S31508003340DFE800F03838040905A8F3E7CC22237E25
S3150800335004EBC3031A8401F0ADFA129B187005A892
S3150800336094F818802BF0FEFB04EBC80888F82200B6
S31508003370237E05A804EBC303B3F820A093F82280A4
S315080033802BF0FCFB814605A82BF0FFFB8346B9F121
S31508003390000F14D0F36B022238465B6906A99847DA
S315080033A006A82BF0BFFB607568B90023A3754FF01C
S315080033B000093CE0227E04EBC2021384CBE705A891
S315080033C02BF09BFBEFE794F81690B9F1000FEED0BF
S315080033D0BAF1000F0DD1B8F1000F1DD00123E37526
S315080033E0637E002B3FD1B8F1010F30D184F81980E4
S315080033F014E0736C07EB0B015A4287EA010010428E
S315080034001CBF0022A2755A1E0A409B1A9A45CCD8A0
S31508003410A37D002BDFD1CAE7E37D43B94FF000094E
S3150800342053465A46394630462BF0DEF8A060A37D4F
S3150800343013B12269524422611F49227E09789142BA
S315080034401AD901322276039ACAB91D4623E796F895
S3150800345034307BB9F36A0133E2D1B8F1030FDFD117
S315080034600123A376DAE7B8F1010FE0D0B8F1030F2C
S31508003470D4D1F5E79946D3E70023A3750BE7002BCC
S315080034803FF409AFE57D002DDFD0B9F1000F11D16A
S31508003490B8F1030F3FF4FFAEA1684B1C3FF4FBAE37
S315080034A0129B2246009330460123FFF7D5FE0546B8
S315080034B0A075F0E64D46EEE6B80304082DE9F04F90
S315080034C00E46984600238BB004464FF0FF3110464F
S315080034D017468DF8133001F0D7F9B6F5801F20D2BC
S315080034E0314605AA04F108002BF085FA451C014669
S315080034F003D1237CBBB92D2010E0384601F0C4F96E
S315080035000122394620460DF113032BF0BFF8002897
S31508003510EFD09DF8133088F8003000200BB0BDE8D6
S31508003520F08FB01CE5D1E56A691C36D12046616A80
S315080035302AF0A0FF0546B31C18BF0123DFF8CC907C
S315080035400193636A626C0293236805A902FB053A34
S31508003550E36B05225B695046984705A82BF097FB55
S315080035602BF0BAFB50462BF0C2FB4FF0000B8246FD
S3150800357001464B1C05D0636C81EA0A025B42134282
S3150800358011D0294620462AF075FF029BAB422CD063
S31508003590BBF1000F2CD10546D3E72368ED1A636CFF
S315080035A0B5FBF3F5C7E7484601F06EF90DF11303CD
S315080035B049462046019A2BF069F8034690B1B21C99
S315080035C003D0D9F80020B2420CD19DF813200393FA
S315080035D00D4B88F8002049461A6838462EF096F9A9
S315080035E0039B9B46D9F80810C3E7BBF1000F82D0AE
S315080035F0B6F5801F91D2314698F800307A6804F102
S31508003600080001F06FF888E7B4030408983C002026
S315080036102DE9F3410446174698460E46184D816A29
S31508003620E36A8B4201D04B1C02D102B0BDE8F0819F
S31508003630284601F029F90122294620460DF10703FB
S315080036402BF024F838B14346294620469DF8072032
S31508003650B8470028E9D0A9684A1C04D169682046F9
S315080036602AF095FF0146012EDAD16B6881EA03023A
S31508003670636C5B421A4218BF4FF0FF31D0E700BFB8
S315080036806C3C00202DE9F0474FF0FF334FF6FF72F0
S315080036900025044600F108078AB0C0E90923C36279
S315080036A005620563384688462BF076F920462AF0E7
S315080036B061FE60BB204641462AF02CFF20462AF0D0
S315080036C059FE60BB5E200AB0BDE8F0872368E26B4E
S315080036D0606C566900FB0530052205A9B04705A8A8
S315080036E02BF0D5FA012806460CD1294620462AF0A1
S315080036F0E2FE012E024600D10132294620462AF072
S3150800370058FE03E02BF0EDFA0028EED10135E36907
S315080037109D42DBD320462AF02DFE0028CAD020463B
S315080037202AF058FE4FF6FF72636A934200F0A680AD
S31508003730E26B666C2068694606FB0300556905223C
S31508003740A84768462BF07AFA626A2368606C4C4D83
S3150800375000FB02302BF0CBFA4FF0FF33A062E36296
S315080037602A466FF00101204605ABFFF7A7FE0028A1
S3150800377046D1AD6829462046E5622AF0D7FD206382
S3150800378020B92046E16A2AF002FFE062294620466F
S315080037902AF0FDFE0546A36A9D4233D120462AF04B
S315080037A083FD00268046B146E36999453CD3B0457A
S315080037B059D92046616A2AF05DFE0027054604F1BC
S315080037C0400AB74212D3626C2368694602FB053980
S315080037D0E36B05225B694846984768462BF02EFA44
S315080037E0534602464946E06B2BF083FA29462046A3
S315080037F02AF040FE0137B8450546E2D1642062E763
S31508003800A56AB7E7294620462AF090FD236B294684
S3150800381003440646236320462AF0B9FE0546002ED1
S31508003820B9D1C4E90B06B6E7636C2568052203FB24
S315080038300955E36B05A95B692846984705A82BF047
S3150800384026FA2BF049FA58B128462BF050FA0146C9
S3150800385020462AF06BFD636C143B984208BF01367C
S3150800386009F10109A0E738462BF096F8002320460F
S315080038701946044AFFF7CCFE002024E7672022E712
S31508003880C43C00207BE602082DE9F041036B904614
S31508003890826B90B09A4288BF8363426C436A07681A
S315080038A00E4602FB0377C36B01A905225B69044632
S315080038B03846984701A82BF0EAF9012801463070E6
S315080038C057D0656CE26B2368606AD2F814C005FBB2
S315080038D00030052206A9E04706A82BF0D8F90128EA
S315080038E04FF0000523D0D4E90A3201219342CDE9ED
S315080038F00B458DF834800E958DF83C102AD1194663
S3150800390020462AF044FE236B626C14339B1AE0624D
S3150800391023630C9B53B99DF83C303BB1626A616CDA
S315080039202368E06B01FB02312BF069F90C9DE36B10
S3150800393005225B6901A93846984701A82BF0A7F923
S3150800394030702846236BA26B9A4288BFA36310B0D7
S31508003950BDE8F081237C33B91C490BAA04F10800A1
S3150800396000F00EFFD5E72046194A0BABFFF750FECD
S31508003970CFE7237C23BB2246164904F1080000F052
S31508003980FFFE616A20462AF096FD616A421C2046BF
S315080039902AF00FFD054620B9236B626C1344143BCD
S315080039A023632046A16A2AF0F2FD2368A062C01AA2
S315080039B0636CB0FBF3F0606220462AF02BFEB6E794
S315080039C000232046044AFFF723FEDAE7FD400008F5
S315080039D07940000815E70208B1E6020873B50D46F6
S315080039E0D11E4A421C461B7E4A419A4226D1296864
S315080039F02368994222D3636899421FD8114E0DF164
S31508003A0007033246FFF75AFDC0B972686B689A42D7
S31508003A1014D19DF80730DA1E53425341227E934251
S31508003A200CD1636901336361D4E90323934205D258
S31508003A302968A26842F8231001332361012002B0E5
S31508003A4070BD00BFC43C00202DE9F04F9A468BB0EC
S31508003A509DF85030DFF850B10293DBF810308046FD
S31508003A6053450D461646C0F09880D146DBF804301B
S31508003A700193B9F1000F00F08C80D8F83C30012290
S31508003A805B6907A90198984707A82BF073F8DBF834
S31508003A900030984240F0848007A82BF076F8042876
S31508003AA0074614D107A82BF077F8019B029A04461B
S31508003AB03B44002A3ED1864212D91446361A40465D
S31508003AC001992AF064FDA9EB04090190D1E7D8F819
S31508003AD03C3002225B69019808A9984708A8E2E7E2
S31508003AE0841B544528BF5446032C03EB0607AAEB50
S31508003AF0040A1DD9D8F83C30294638465B69A2081D
S31508003B00984724F0030304F003061F441D44002EBF
S31508003B10D5D0D8F83C3001225B6908A938469847C1
S31508003B203246284608A935442DF0F0FE0026C6E799
S31508003B302646ECE7074600F00302039203442A18D8
S31508003B4004920593049BDD1B059BD81B039B9F4290
S31508003B500FD1002FB3D0D8F83C30012208A95B69F1
S31508003B6098473A46284608A92DF09CFE78B93D4460
S31508003B70A5E7D8F83C30012208A95B6998470422D2
S31508003B80284608A92DF08EFE08B9043FDAE74FF05B
S31508003B90360948460BB0BDE8F08F4FF06309F8E7E1
S31508003BA04FF06F09F5E700BFF03C00202DE9F04122
S31508003BB00F4616469846044688B060B390F83450C7
S31508003BC0FDB101212AF0CBFB00210E9BCDE90511A1
S31508003BD0CDE902379DF83C30CDF804808DF81C30CD
S31508003BE0237C04968BB90D4901AA04F1080000F05C
S31508003BF0C7FDDDE90553E06B002E08BF1D462AF018
S31508003C0097FD284608B0BDE8F0812046044A01AB76
S31508003C10FFF7FEFCEDE70546F3E700BFDFE602081F
S31508003C20DD3900082DE9F04F99B0CDE90B230E4692
S31508003C300A69416CD31D1439B3FBF1F3013302EB66
S31508003C40C302036B04469342C0F00F820023DFF8D9
S31508003C5020940993E36A48461946079300F014FE30
S31508003C60D6E9033705930C9B022B1CD1CC2F40F0C9
S31508003C7074810B9B8BB1314620462AF0B7FD656CE3
S31508003C8014900B9B63B1E36B01225B69706816A9FC
S31508003C90984716A82AF072FF0CE0059B1B68149338
S31508003CA008230E930DE0782F656CEAD80B9B002B42
S31508003CB0E9D1F07D00280CBF04230823782F0E9342
S31508003CC028D9012300250893082303933368089904
S31508003CD00C98C9F80030C9F810702AF070FF002354
S31508003CE00F930D9306930A93039BDDF81CA09B087C
S31508003CF089F814001193616C03984A1E0AEA0202B5
S31508003D008B1AEFB10544AB421CD8236B5B1A1344DC
S31508003D10236386E0079A6B1E1340EB1A3A1D9342FB
S31508003D2007D257B1082BCCD800230425089303954E
S31508003D30CCE7002504230895C7E704250897F6E786
S31508003D408342E2D3039AB8469B1A9F4228BF9846F5
S31508003D5052449F42049278D90123D9F8102089F851
S31508003D601730974276D1C9F804A0069399F8173008
S31508003D70002B71D099F818200699D31C09EBC303B8
S31508003D800132C3F804A0A3F80880997289F81820AC
S31508003D90B8F1000F14D00C9B022B60D10F9B7BB996
S31508003DA00D9B4344032B0BD9E36B01229B690498B3
S31508003DB014A998470546002840F0D58001230F939B
S31508003DC0069B16A80193089B009399F8142043466E
S31508003DD0316800F00FFDE36B50469B69119A16A9EE
S31508003DE09847051E099B18BF5346039A09935146DF
S31508003DF0434620462AF0F8FB236B039AC9F80800C5
S31508003E009B1A08F1030222F003029B1A2363002D72
S31508003E1040F0A9800D9BDDF810A04344A7EB0807E6
S31508003E200D93514620462AF0B2FB00258246002F04
S31508003E307FF461AF8E4A3168936804F10800E36243
S31508003E4052680C9B00F04EFC89E0069B002B18BFBD
S31508003E5003238AE7022388E7C9F804A098E70B9B9F
S31508003E60002B30D1059BB8F1030F03EB080B27D9BC
S31508003E70DDE90401E36B4FEA98029B69984705461A
S31508003E80002864D118F003025ED0059B28F00305CC
S31508003E902B440593049B1D444FF0FF33059915A841
S31508003EA015932DF033FDE36B284601229B6915A96E
S31508003EB098470546CDF814B0002D81D0049B94E7A9
S31508003EC04246049DE8E706F12003DDF810B010939A
S31508003ED0F37D70689BB10023357E0A9AD9B2A94250
S31508003EE011D2109903F1010C31F83310914225D9FA
S31508003EF00E9906EBC303D8690A44104403E00E9BE7
S31508003F000A9A13441844E36B01225B6915A998477A
S31508003F10159B012213930A9B584604330A93E36BB5
S31508003F2013A99B699847049B05464344A3EB0B03D7
S31508003F30042B06D970B90BF1040BC9E76346521A6C
S31508003F40CCE7CDF810B0B7E7CDF814B038E7CDF820
S31508003F5014B0B3E7CDF810B0B0E770252F46384651
S31508003F6019B0BDE8F08F3D2DF8D104F1080303938D
S31508003F702368079A606CD71AB7FBF0F700FB07307F
S31508003F802AF0B5FEE16A824620462AF000FBA16ABD
S31508003F90D4F830E08142626C59D0D9F8083002F181
S31508003FA0FF3CAEEB020103EA0C030B4423630999B9
S31508003FB02368E062CB1AB3FBF2F847453BD1079B6F
S31508003FC0B3EB0A0711D0E36BBA0851469B699847C9
S31508003FD08346E36A079A3B44E362236B03989B1A7A
S31508003FE0534423632AF0D8FC5F462368616CE06B70
S31508003FF001FB08312AF0F0FD20462AF0BBF92046DD
S315080040002AF0E8F9626A2368606C00FB02302AF03D
S315080040106EFEA06220462AF0FDFA20636FB132696F
S31508004020616CD31D1439B3FBF1F3013302EBC30200
S3150800403090429DD292E70027D7E704F108002AF0BC
S31508004040ABFC3B46394620460A4AFFF7E1FA326995
S31508004050616CD31D1439B3FBF1F3013302EBC302D0
S31508004060236B9342BFF4F6AD78E71C2777E700BFCA
S31508004070983C00207BE60208032A2DE9F341064610
S315080040800D4617461C4606D1237A012B23D001205C
S3150800409002B0BDE8F081DFF86080096842460DF19C
S315080040A00703FFF70BFA60600028EDD19DF807308B
S315080040B0032BE9D0D8F804206B689A42E4D1237A16
S315080040C02969012BD4F80CC007D172690CEB0103DE
S315080040D0934202D92074207CDAE708316144E16012
S315080040E03B46012229463046FFF79CFD60600028C2
S315080040F0CAD00020CCE700BFC43C00202DE9F3411C
S31508004100032A1746089C06D1237A012B25D00120BD
S3150800411002B0BDE8F0812668DFF890803046424656
S315080041200DF10703FFF7CAF960600028ECD125688E
S31508004130D8F80400A96A6A6C4840534210EA030C8E
S31508004140E2D1237A012B0AD1E068D8F8103003446B
S315080041507069834203D984F810C0207CD8E72868A0
S31508004160EB6A1B1A081AB3FBF2F3B0FBF2F08342B0
S315080041700BD1706CF36A421E1340326B121A134449
S31508004180284633632AF003FAE862D8F81020E36871
S3150800419008321344E36001223B4604492068FFF7CE
S315080041A041FD60600028AFD00020B1E7C43C002084
S315080041B02DE9F0410025604B0E46D3F800800446F1
S315080041C01D6018B921252846BDE8F08190F834709D
S315080041D007B30A6803689A4240F0A4804A684368AD
S315080041E09A4240F09F808A6883689A4240F09A8093
S315080041F0CA68C3689A4240F095800A6943699A4238
S3150800420040F090808A69C36B9A4240F08B804B6974
S315080042108361D8E768223946856B2DF06CFBD6E9B1
S315080042200212336804F1080023607368A5636360AB
S31508004230336963617369A3612AF0C0FBB36904F14A
S315080042404000E3639B68984720B9676C17B16368B9
S31508004250B3FBF7F794F84330E761002BB2D000239D
S31508004260656C2366002D65D0002F63D02368B3FBE9
S31508004270F5F205FB1233002B56D16668B6FBF5F34B
S3150800428005FB1363002B4FD120462AF03FF8A3699C
S31508004290043303449E4249D340F634726369CC3BE7
S315080042A0934245D8B5F5805F44D3032120462AF0CA
S315080042B056F8D4E90001E36B1B6898470546E36B9B
S315080042C00220DB689847D5B941462046FFF7DAF958
S315080042D06428054604D141462046FFF7D3F905462A
S315080042E06DB9636C226A143B204602FB03F62AF07A
S315080042F00DF8A369043303449E4238BF5A25002D9E
S315080043000CBF0123002384F8343007D1D4E9000117
S315080043100A4A1368013313602AF0EAFBE06B2AF0B5
S3150800432007FA50E75D254EE759254CE75A254AE72F
S315080043305F2548E75B2546E7283600202436002017
S315080043402DE9FF410C4616461F46054688B390F8E8
S31508004350343083B3B1F5801F2FD2DFF86480012192
S3150800436029F0FDFF4246214628460DF10F03FFF7C7
S31508004370A5F80246C8B99DF80F30012B10D1D8F818
S315080043801030BB4213D1009031462846FFF75CFB3C
S315080043900446E86B2AF0CCF9204604B0BDE8F08163
S315080043A0022B0CBF60242D24F3E72D24F1E76324A8
S315080043B0EFE72124F0E71124EEE72924ECE700BF14
S315080043C0F03C00202DE9F04385B00E4617461C4602
S315080043D00546DDF83080A0B390F834309BB3B1F5CC
S315080043E0801F32D2DFF86890012129F0B8FF4A46CB
S315080043F0314628460DF10F03FFF760F8E8B99DF836
S315080044000F30012B14D1D9F8102004EB08039A4277
S3150800441015D322460090434639462846FFF714FB33
S315080044200446E86B2AF084F9204605B0BDE8F08317
S31508004430022B0CBF60242D24F3E72D24F1E7632417
S31508004440EFE72124F0E71124EEE72924ECE700BF83
S31508004450F03C00202DE9F3411E4600230C46174682
S315080044600546336050B390F834304BB3B1F5801F2E
S3150800447028D2DFF85480012129F071FF21464246EF
S3150800448028460DF10703FFF719F80446A0B99DF869
S315080044900730032B10D0022B03BF01233B600423F4
S315080044A0D8F8103018BF38603360E86B2AF040F946
S315080044B0204602B0BDE8F0812D24F6E72124F7E76F
S315080044C01124F5E72924F3E7F03C002073B50446E8
S315080044D0416929F000FF626E236B024493422CBFA8
S315080044E000220122834294BF00231B1A207C84F8F1
S315080044F05020636584F85800A8B100230B4E1A466D
S315080045001946204600962AF035FA002305461A462B
S315080045101946204600962AF036FAE3682844984257
S3150800452094BF0020C01AE06502B070BDFFFF0F00FF
S315080045302DE9F3471E4643690446B34288461746A3
S315080045409DF828904FD300258DF8075020466169BD
S3150800455029F0C1FED4F830A082450AD2236AB5EB09
S31508004560430F06D2002220460DF10701FFF78CF90A
S31508004570B8B39DF80730012B05D1002220460DF16E
S315080045800701FFF781F9B9F1030F06D03146204636
S3150800459029F0A1FE256B854227D3154D4FF0FF3133
S315080045A0284600F071F94B46294600222046C5E9FF
S315080045B00376C5F80080FFF735FB236E054663B121
S315080045C02046FFF783FF94F8503013B994F8583013
S315080045D01BB1236E04F150009847284602B0BDE887
S315080045E0F0870135B2E76225F7E71C25F5E700BF36
S315080045F0C43C00202DE9FF410F4690461E4605465D
S3150800460098B390F8343093B3B1F5801F31D21A4C71
S31508004610022129F0A4FE2246394628460DF10F0349
S31508004620FEF74CFF024678B101234246009339460D
S3150800463033462846FFF77CFF0446E86B2AF078F8ED
S31508004640204604B0BDE8F0819DF80F30012BEBD170
S315080046502169B142E8D10093414633462846FFF71F
S31508004660F3F904460028DFD1E7E72124E8E7112417
S31508004670E6E72924E4E700BFF03C002030B50C4605
S31508004680054685B028B390F8343023B3B1F5801FBA
S3150800469023D2022129F063FE0DF10F032146284695
S315080046A00F4AFEF70BFF034688B99DF80F20032A29
S315080046B00DD003222146009202462846FFF738FF0E
S315080046C00446E86B2AF034F8204605B030BD2D24A0
S315080046D0F7E72124F8E71124F6E72924F4E700BFD1
S315080046E0F03C00202DE9F043466886B305689846F5
S315080046F04FF0000CA946AE4655F83C400CF1010CAB
S31508004700C4F31307013401D0B94217D0B4450EF1EA
S31508004710080EF1D12F46002403E0B44207F108073A
S3150800472012D055F8343001340133F6D1C1F31301F0
S3150800473041EA0851C7E90012BDE8F08341EA085189
S31508004740CEE90012BDE8F083B8F1030F03D10123C7
S315080047500372BDE8F083002303E0B34209F10809B8
S31508004760F5D055F833400133C4F30754032CF4D17C
S31508004770C1F3130343EA0853C9E90032BDE8F083DD
S315080047802DE9F0410646406882B0B8B10F4690461A
S315080047900024336853F8345003EBC403C5F30752B7
S315080047A0C5F31301013506D05B683046CDF80080A5
S315080047B0B84718B1706801348442EAD302B0BDE83C
S315080047C0F08100BF024B1968024B1868FFF7F0BC6E
S315080047D0D0840020F084002008B53AF01AFE014B78
S315080047E0186008BD1C3D0020014B18683AF00CBE45
S315080047F01C3D002073B504462248012A00EAC1116F
S315080048009DF8185023F07C4007D9961E012E28D90A
S31508004810073303F07F03194308E09DF81C300A4369
S31508004820DB0603F0C053134343F060410023C4E999
S3150800483000108DF80730B5B1202221460DF107008A
S315080048402AF071FA1A220DF10700211D2AF06BFAD7
S31508004850082063689DF8072043EA8263636002B014
S3150800486070BD1143E2E71B220DF1070021462AF02D
S315080048705AFA23689DF80720042043EAC263236096
S31508004880EDE700BF80FFFF0738B5094B0D461A68EC
S31508004890002104462DF02FF800234FF0FF32238322
S315080048A0C4E900252361A260E382A37638BD00BF70
S315080048B0B40304080138C0B205289ABF014B185C36
S315080048C001207047B90304082DE9F041074615464B
S315080048D000240E46596888B0490A012922464FEA3B
S315080048E0510104F10104F8D8DC78997824031B886F
S315080048F0C90201F4006104F480540C43C3F30A03AB
S315080049005203234492B24FF000089C18274B6FEAD3
S315080049100444039325F07843ED4302A90DF10700FB
S315080049201B2202938DF807802AF0FDF99DF80720CF
S31508004930029B02A943EAC2630DF107001B2225F078
S315080049407845049302958DF807802AF0ECF99DF8CE
S315080049500720029B6FEA144443EAC26305934FF0AB
S31508004960FF330794069307A9BB69012206F11000D5
S315080049709847BB6905A90446012206F1080098472D
S31508004980BB69404518BF044604A90122301D984753
S315080049900122404518BF0446BB69304603A998471B
S315080049A0404508BF204608B0BDE8F08101009AB22C
S315080049B0044BD3F88420D206FBD4D3F88400C0F382
S315080049C0811070470040005038B5174B0546D3F89C
S315080049D028310C4603F00703013B052B20D8DFE8F6
S315080049E003F003131B0F0B1739F0A8FA052305B1BB
S315080049F0286004B1236038BD39F0A0FA0623F6E72B
S31508004A0039F0E6FA0723F2E739F0D8FA0323EEE796
S31508004A1039F0D4FA0423EAE739F0CCFA0223E6E7B8
S31508004A2000231846E3E700BF00800050002337B58F
S31508004A300193164B0546D3F820320C4603F00703BC
S31508004A40042B21D8DFE803F0030B11161B00012302
S31508004A500DB1019A2A6004B1236003B030BD00216C
S31508004A6001A8FFF7B1FF1223F2E739F0B1FA0723DD
S31508004A700190EDE73AF0C2FC0A230190E8E739F025
S31508004A80FBFA09230190E3E70023E1E700800050E1
S31508004A9038B5104B0546D3F880300C4603F00303AF
S31508004AA0022B0BD0032B0DD0012B0FD139F04CFA6A
S31508004AB00E2305B1286004B1236038BD39F088FAA1
S31508004AC00723F6E739F03AFA0623F2E700231846F1
S31508004AD0EFE700BF0080005038B5104B0546D3F805
S31508004AE000310C4603F00303022B0BD0032B0DD029
S31508004AF0012B0FD139F062FA032305B1286004B1FE
S31508004B00236038BD39F0B8FA0923F6E739F05CFABC
S31508004B100823F2E701230020EFE700BF00800050DA
S31508004B2038B5184B0546D3F820010C4600F00700A7
S31508004B30062823D8DFE800F0040A0E16121A1E000B
S31508004B40012305B1286004B1236038BD39F0F6F9B0
S31508004B500523F6E739F032FA0323F2E739F038FA93
S31508004B600723EEE739F026FA0223EAE739F0E6F9F1
S31508004B700623E6E739F022FA0423E2E7002318467B
S31508004B80DFE700BF0080005038B5104B0546D3F864
S31508004B9040310C4603F00303022B0BD0032B0DD038
S31508004BA0012B0FD13AF02AFC0A2305B1286004B17B
S31508004BB0236038BD39F060FA0923F6E73AF021FC9C
S31508004BC00C23F2E701230020EFE700BF0080005026
S31508004BD0002337B50193164B0546D3F860320C46C9
S31508004BE003F00703013B032B1FD8DFE803F0020E8F
S31508004BF01914002101A8FFF793FF10230DB1019A9C
S31508004C002A6004B1236003B030BD002101A8FFF774
S31508004C10BBFF1123F2E739F0DBF907230190EDE733
S31508004C2039F0C8F902230190E8E70023E6E700BF58
S31508004C3000800050002337B50193164B0546D3F87C
S31508004C4094320C4603F00703013B032B1FD8DFE819
S31508004C5003F0020E1914002101A8FFF761FF1023C3
S31508004C600DB1019A2A6004B1236003B030BD00215A
S31508004C7001A8FFF789FF1123F2E739F0A9F90723FD
S31508004C800190EDE739F096F902230190E8E7002351
S31508004C90E6E700BF0080005038B5104B0546D3F84C
S31508004CA060310C4603F00303022B0BD0032B0DD007
S31508004CB0012B0FD13AF0A2FB0A2305B1286004B1F3
S31508004CC0236038BD39F0D8F90923F6E73AF099FB9D
S31508004CD00C23F2E701230020EFE700BF0080005015
S31508004CE02E4B98424AD022D82D4B984240D014D801
S31508004CF02C4B984239D00AD82B4B984232D02B4BA2
S31508004D0098422FD02A4B98422CD000207047294B26
S31508004D109842FAD1284B186F7047284B98422AD0E8
S31508004D20274B9842F1D1244BD3F880007047254B86
S31508004D3098422BD009D8244B984223D0234B98422B
S31508004D40E3D11D4BD3F88C007047214B984221D0F4
S31508004D5003F5740303F510539842D6D1164BD3F8CE
S31508004D6098007047144B986D7047134B586E7047F0
S31508004D70114B586F7047104B986F70470E4BD3F80E
S31508004D80840070470C4BD3F8880070470A4BD3F859
S31508004D9090007047084BD3F8940070470048E80124
S31508004DA00024F400C0CF6A0080841E0000093D007C
S31508004DB040420F00405DC6000080E00FC0EA2101B6
S31508004DC080BA8C01007E560380D54302006CDC0253
S31508004DD00090D00373B50D460021114B0191D3F80D
S31508004DE08041064604F00304022C13D0032C0CD091
S31508004DF0012C13D101A8FFF793FE10240EB1019BD5
S31508004E00336005B12C6002B070BD39F0E1F80724B3
S31508004E100190F3E739F0CEF80190EFE70C46EDE79D
S31508004E200080005038B5104B0546D3F840320C4682
S31508004E3003F00303022B0BD0032B0DD0012B0FD14C
S31508004E403AF0DCFA0A2305B1286004B1236038BDBC
S31508004E5039F012F90923F6E73AF0D3FA0C23F2E708
S31508004E6001230020EFE700BF0080005038B5144B3F
S31508004E700546D3F800020C4600F0070004281BD8A4
S31508004E80DFE800F003090D111500012305B12860BC
S31508004E9004B1236038BD3AF0B1FA0A23F6E739F0CF
S31508004EA0EBF80923F2E73AF0ACFA0C23EEE739F00F
S31508004EB06BF80F23800AE9E700231846E6E700BFE8
S31508004EC00080005038B5144B0546D3F808020C4646
S31508004ED000F0070004281BD8DFE800F003090D11CD
S31508004EE01500012305B1286004B1236038BD3AF0E6
S31508004EF085FA0A23F6E739F0BFF80923F2E73AF00C
S31508004F0080FA0C23EEE739F03FF80F23800AE9E729
S31508004F1000231846E6E700BF00800050B0F5207F62
S31508004F201FD009D8B0F5007F15D003D868B1B0F501
S31508004F30C07F0AD000200CE0B0F5607FFAD10B4B99
S31508004F40D3F88000C0F3011003E0084B186FC0F3D4
S31508004F50033001307047054BD3F89000C0F3046066
S31508004F60F7E7024B186FC0F38020F2E70080005085
S31508004F7002464FF48030104B10B598660020FFF7B4
S31508004F80CDFF504341F671320C4BDC69DA635A683F
S31508004F9004F4803422F4401259B90949884294BF6E
S31508004FA000200120000502435A600CB10022DA6392
S31508004FB010BD0449F2E700BF0090005000000350FE
S31508004FC0005A6202002D3101430905D0012B0CD08D
S31508004FD0022B084B18BF002300F01F0039B103F558
S31508004FE08053012282401A607047034BF4E703F5A9
S31508004FF00053F6E768800050648000501FB5002112
S31508005000B0F5807F0446CDE9001100F0D2803AD889
S315080050105E2833D85E2833D8DFE800F045323232CE
S315080050203232323232323232323232323232323252
S3150800503032323232323232323232323245AC45AC28
S31508005040BCBCBCBCBCACC64E6BDC4EACACAC3232E9
S31508005050323232323232ACACAC7EE6AC323232323A
S31508005060323232323232323232BC454545E14E4E68
S31508005070EB8D63C132323232329E4500802870D0C1
S31508005080009804B010BDB0F5D06F00F0A38035D8F5
S31508005090B0F5607F79D01AD8B0F5007F65D005D80D
S315080050A0B0F5C07FECD138F06FFF5CE0B0F5207F3B
S315080050B060D0B0F5407FE3D138F066FF02464FF482
S315080050C02070FFF72BFFB2FBF0F252085BE0B0F559
S315080050D0B06F69D00AD8B0F5806F5BD0B0F5A06F15
S315080050E0CED100216846FFF7A1FCC9E7B0F5C06F2D
S315080050F0C6D100216846FFF747FDC1E7B0F5106F36
S315080051006DD00ED8B0F5086F78D0B9D8B0F5E06F85
S315080051106AD0B0F5F06FB3D100216846FFF7BCFD41
S31508005120AEE7B0F5406F3AD013D8B0F5206F60D02F
S31508005130B0F5286FA4D10021324B0391D3F8703211
S3150800514003F00303012B02D103A8FFF71DFD039B00
S3150800515039E0B0F5486F93D100216846FFF76AFD3C
S315080051608EE738F0F1FE00908AE738F0EDFE024649
S31508005170204604E038F008FF02464FF42070FFF797
S31508005180CDFEB2FBF0F200927AE701A8FFF780FCA9
S31508005190019AEDE700216846FFF7C2FC70E7002197
S315080051A06846FFF711FC6BE700216846FFF712FE19
S315080051B066E74FF0E02302911B695B0705D538F0D7
S315080051C0E3FE0290029B00935AE703A902A8FFF7A1
S315080051D0DBFCF7E700216846FFF748FE50E70021A9
S315080051E06846FFF76FFE4BE700216846FFF71AFE91
S315080051F046E700216846FFF7EBFC41E76846FFF7FC
S315080052006BFC3DE70080005008B58020FFF7F6FEEE
S31508005210034B98429EBF4FF48032024B1A6708BD73
S31508005220005A620200A000501FB503460020B3F5DD
S31508005230807F019000F0C58065D85D2B56D84C2B31
S3150800524007D82D2B48D8232B2CD8019805B05DF804
S3150800525004FB4D3B102BF8D801A252F823F000BFEF
S31508005260B95300084B5200084B5200084B5200082D
S31508005270675300084B5200084B52000813540008A5
S31508005280855300082B530008095400084B520008A0
S315080052904B5200084B5200084B5200084B5200086C
S315080052A01D540008243B092BCFD801A252F823F03D
S315080052B0B9530008B9530008B9530008B953000890
S315080052C0B95300084B520008AF5300084B52000868
S315080052D047530008EF5300083D2B00F083803E2B10
S315080052E0B3D1002001A9FFF79DFDAEE7802BACD115
S315080052F0504B1B6F03F00703013B032BA5D8DFE8D0
S3150800530003F0544D5052B3F5F06F6BD020D8B3F577
S31508005310B06F4CD00ED8B3F5607F71D095D3B3F586
S31508005320806F49D0B3F5A06F8FD1002001A9FFF790
S315080053307DFB8AE7B3F5D06F59D0B3F5E06FD0D0CF
S31508005340B3F5C06F81D1002001A9FFF71DFC7CE7EA
S31508005350B3F5206F5DD00BD8B3F5086F4CD0B3F515
S31508005360106F7FF472AF002001A9FFF7ABFD6CE761
S31508005370B3F5406F48D0B3F5486F4FD0B3F5286FF3
S315080053807FF463AF2B4BD3F8703203F00303012B82
S3150800539049D0022B0CBF1523002300E005230193F7
S315080053A053E70323FBE70823F9E70223F7E700207F
S315080053B001A9FFF70FFD48E7002001A9FFF7B0FB99
S315080053C043E74FF0E02302901B695B0705D538F0E9
S315080053D0DBFD0D230393039BE1E703A902A8FFF76F
S315080053E0D3FBF8E7002001A9FFF756FC2DE70020BC
S315080053F001A9FFF73BFD28E701A9FFF76DFB24E7A5
S3150800540001A9FFF745FB20E7002001A9FFF7DCFA11
S315080054101BE7002001A9FFF7DBFB16E7002001A91F
S31508005420FFF708FC11E7002103A8FFF7ADFB1123DE
S31508005430B5E700BF008000504FF48032074B08499B
S31508005440586E03F580535A664B6A23F001034B6284
S31508005450C3035CBF034B5A66704700BF0080005009
S3150800546000C0075000A0005008B5FFF7DDFE092868
S3150800547011D00A38012802D94FF6FF7008BD4FF43B
S315080054808002064B5A6603F5D8335B6ADB07F3D509
S315080054904FF4FA70F2E7024B1888EFE700900050D5
S315080054A0EE87002008B5FFF7BFFE03280ABF024BA8
S315080054B04FF6FF70188808BDEC87002038B50446FB
S315080054C08020FFF7B1FE032800F08A804FF480128F
S315080054D0544B4FF0A0615A6645F60E03524AC2F87D
S315080054E08030524B99624FF4803103F580539962AC
S315080054F0936DD903FCD4916D11F08041FBD1D4E9A9
