S02B0000433A2F55736572732F6D706D656E2F53696D706C696369747953747564696F2F424C452D7468657319
S31508000000C00A0020B926000825D6020825D6020807
S3150800001031F2020825D6020825D6020825D6020896
S3150800002025D6020825D6020825D6020825D60208AE
S3150800003025D6020825D6020849C7020825D6020889
S3150800004025D6020825D6020825D6020825D602088E
S3150800005025D6020825D6020825D6020825D602087E
S3150800006025D6020825D6020825D6020801B00008BA
S31508000070410F030825D6020825D6020825D6020808
S3150800008025D6020825D6020825D6020825D602084E
S3150800009025D602084D30000825D6020825D60208BE
S315080000A025D602088D2C00086D2C000825D60208D6
S315080000B025D6020815A70208E9AF020859D303088E
S315080000C055D303085DA702086FD303085DD3030859
S315080000D0B9AF020861D3030829B0020891B0020833
S315080000E025D6020825D6020825D6020825D60208EE
S315080000F0E7E6020825D6020825D6020825D602080C
S3150800010025D6020825D6020825D6020825D60208CD
S3150800011025D6020825D6020825D6020825D60208BD
S3150800012025D6020825D6020825D6020825D60208AD
S3150800013025D6020825D6020825D6020825D602089D
S3150800014025D6020825D6020825D6020843EE030856
S31508000150D591020825D6020843D3030849D30308D4
S3150800016025D6020825D6020825D6020825D602086D
S31508000180F0B5114A114C124E00F00105E3695F07FC
S3150800019013D40DB9334213D103EA00078F4207D1AE
S315080001A00B4A1A40002A0CBF00206FF00100F0BD70
S315080001B0013AEBD16FF00200F9E74FF0FF30F6E7AE
S315080001C06FF00100F3E700BF809698000000035027
S315080001D0020001000B4B70B5D96911F480310DD1BD
S315080001E001244FF48072084E084DF46020462C64B2
S315080001F01A61FFF7C5FF3464EC6070BD6FF001004B
S31508000200FBE700BF00000350001003500020035016
S315080002104FF4803238B50E4B0E4C9A66E56941F6B6
S31508000220713315400122E3630B4B0021DA60022388
S31508000230606121202361FFF7A3FF10B92120FFF792
S315080002409FFF0122054BDA600DB10023E36338BD39
S315080002500090005000000350001003500020035087
S3150800026070B5134C6061E3695B071ED40E4656F8F9
S31508000270043B8D18A361AE420BD104230021212033
S315080002802361FFF77DFF58B9BDE870402120FFF7CD
S3150800029077BF08210846FFF773FF10B104232361CF
S315080002A070BD56F8043BA361E5E74FF0FF30F7E76A
S315080002B0000003502DE9F84315464FF48032184BD9
S315080002C089469A6603F51C33DF690646174041F6E8
S315080002D07132DA63012203F58053DFF84C80DA6065
S315080002E055B9284601220F4BDA601FB10022A3F543
S315080002F00053DA63BDE8F88306F5005404EA0804F7
S31508000300A41BAC4228BF2C46494622463046FFF776
S31508000310A7FF0028E6D12644A1442D1BE0E700BF2D
S31508000320009000500020035000E0FFFF000000008E
S3150800033000000000000000000000000000000000AF
S31508000340013800D0FCE77047D0B51BA7D7E900678E
S315080003502DED028B04469FED1A8AD4ED007AF4EE51
S31508000360C87AF1EE10FA0EDA13A7D7E900679FEDFF
S31508000370158AD4ED007AF4EEC87AF1EE10FA0ED4A6
S31508000380BDEC028BD0BD17EE900A0BF0C3F83246CF
S315080003903B460AF05FFF0BF015F92060DDE717EE24
S315080003A0900A0BF0B7F832463B460AF055FF0BF0B9
S315080003B009F92060DDE700BF182D4454FB211940D8
S315080003C0DB0F4940DB0F49C00348044B834202D088
S315080003D0034B03B11847704784880020848800209F
S315080003E000000000064B0749C91A891048BF0131A9
S315080003F0491003D0044B0BB101481847704700BF9A
S3150800040084880020848800200000000010B5064C6F
S31508000410237843B9FFF7D8FF044B13B10448AFF369
S3150800042000800123237010BD6480002000000000B6
S31508000430586E040808B5054B1BB105490548AFF3C6
S315080004400080BDE80840FFF7CDBF00BF00000000F0
S31508000450C80D0020586E0408A3F5803A704700BFFF
S31508000460174B002B08BF134B9D46FFF7F5FF0021DE
S315080004708B460F461348144A121A30F0FAFD0E4BF3
S31508000480002B00D098470D4B002B00D09847002032
S31508000490002104000D000D48002802D00C48AFF3D7
S315080004A000800BF079FC2000290030F04BFD0BF0A2
S315080004B0B9FA00BF000008000000000000000000B4
S315080004C0C00A0020C00A0020E082002000000000C8
S315080004D00000000037B5054615F04EF8002849D14A
S315080004E0274B2877AB61AB6843F48013AB602EF0DB
S315080004F004FFAB68A8801B030CD4B0F5FA7F09D9B2
S315080005003EF053FB0121044608463DF00FFB20460A
S315080005103EF046FB284615F057F8044658BBE868EF
S3150800052060B317F08DFA35F0EBF832F002F936F0D1
S3150800053070F934F0D0FA33F05FF80446D8B94FF4BE
S315080005400173ADF80430FF2301A88DF806300FF0CB
S3150800055043FD22460321042035F0C3F868468DF88A
S31508000560004015F023FA0420032116F045FF28461B
S315080005702CF0E0F80024204603B030BD0148D0E74F
S31508000580050403005088002008B50449044820F0F3
S3150800059089FFBDE8084020F0B7BF00BFA8F10308EF
S315080005A068F203084FF08052014B5A60704700BF4B
S315080005B000ED00E0F8B50E460546D0B1C9B10E4BC0
S315080005C00E4F1968386803F02FFD044678B90623DC
S315080005D032460B49386803F0F5FD044638B901235D
S315080005E02A460849386803F0EDFD00B12C7020460C
S315080005F0F8BD2124FBE700BFB0840020D08400208A
S315080006002C0004003C000400034A0449002808BFE3
S315080006101146042020F04EBC24F303081CF30308FB
S31508000620F7B5089F0546164690F8BE011A463B469A
S3150800063079B131461AF090FF044638B9134B9B88B6
S31508000640B34203D13B7843B1012B15D0204603B002
S31508000650F0BD31461AF068FFEEE7B7F8011095F8D5
S31508000660BE012CF076FA2B4642F21071084A009425
S3150800067005F59C7002F00CF92B4641F28831054AC3
S31508000680009405F5B87002F003F9DFE7E47F00206F
S315080006902FC90208E1C70208F8B54FF4E262002143
S315080006A00F4830F0E6FC0025FF267F270C4C84F81F
S315080006B0BE6184F8BF7184F8C16104F5D47304F58A
S315080006C094700A22022101352CF0DEFF042D04F570
S315080006D0E274ECD100F09AFEBDE8F84000F0F4BDF3
S315080006E0E00D002005289ABF024B33F810004FF69C
S315080006F0FF707047E47F0020094900220B4610B5B9
S3150800070091F8BE41844204D14FF4E27101FB0230F4
S3150800071010BD0132042A01F5E271F1D10020F7E794
S31508000720E00D00202DE9F041374D04242E468AB00D
S315080007300DF1190806F59477384605A92DF000F845
S31508000740A0B930469DF81830BDF816209DF814104B
S31508000750CDF80080FFF764FF20B9384605A92DF0CB
S315080007600FF8E9E7052801D01A28F6D1013C14F05C
S31508000770FF0406F5E276DDD1274695F8C031A3B326
S3150800078028460DF10A020DF109012CF02AF89DF808
S315080007900930032B34D104AB00934FF6FF7103AB3A
S315080007A00DF10B022CF09FF850B395F8BE310026D8
S315080007B08DF82230B5F8BC3105A9ADF820300123F3
S315080007C08DF824309DF80A3005F10C008DF8233099
S315080007D0039B8DF81C600693049B0593FF23ADF8D5
S315080007E01E302CF00FFA85F8C061E234B4F5627F4A
S315080007F005F5E275C1D10AB0BDE8F04100F00CBEBE
S3150800080085F8C071F1E700BFE00D00201FB50C4662
S31508000810ADF80E10FFF770FF88B1028902F4C072B6
S315080008207AB1017A0DF10E03074A84800093D288C3
S315080008300223C1F340012CF01DF804B010BD22209C
S31508000840FBE70220F9E700BFE47F00201FB50C464E
S31508000850ADF80E10FFF750FF88B1028902F4C07296
S315080008607AB1017A0DF10E03074AC4800093128902
S315080008700223C1F3C0012BF0FDFF04B010BD2220F6
S31508000880FBE70220F9E700BFE47F00202DE9F04FDF
S3150800089087B0044600F080FE0546204600F080FA40
S315080008A02368A44A23F47F43054023F0070385F011
S315080008B001059342EDB200F05D822BD89E4A934221
S315080008C000F03E820ED802F17F42934200F0E081AA
S315080008D002F54032934200F0CD8185F0010007B061
S315080008E0BDE8F08F954A9342F7D12079FFF704FFC8
S315080008F006460028F1D0E379B4F805100A2B24D06F
S315080009000023062290F8BE01CDE900331AF0CCFD8B
S315080009100125E2E78A4A93420CD002F12C7202F5CD
S315080009208032934200F0E78002F17B4202F59E0294
S315080009309342D2D126793046FFF7DEFE0028CCD086
S31508000940214630462BF071FFE2E77E4B1F888F4227
S3150800095016D1238990F8BE01032B05D90023072257
S31508000960CDE900333946D1E7072205920DF1120287
S31508000970019205AA1A440092C3F104030022F1E782
S31508000980DA888A422AD1238990F8BE01012B04D934
S3150800099000230722CDE90033B8E70DF112020192D0
S315080009A0321D1A440092C3F1020300221AF07CFD9C
S315080009B0654AB4F8051053888B421CD1E3790A2B93
S315080009C029D12389012B34D80020ADF81400307AB8
S315080009D000F06007602F6BD1032032E01B898B4241
S315080009E0E6D1238990F8BE01012BD1D80DF1120268
S315080009F00192B21DD5E753898B4209D0D3888B4221
S31508000A0006D013898B4203D093888B4240F08F809F
S31508000A10E3790A2B0AD00DF112030193002306226B
S31508000A20009320791AF040FD012381E02389012BE8
S31508000A3006D90DF112030193002307220093F0E76C
S31508000A400020ADF814005089884208D1308900F496
S31508000A50C070B0F5C07F33D10320ADF81400D0883C
S31508000A60884207D1307A00F00607062F33D10320D3
S31508000A70ADF814001089884207D1307A00F01807BB
S31508000A80182F30D10320ADF8140092888A4205D178
S31508000A90327AD20744BF0222ADF814200DF11202B1
S31508000AA0019205AA1A440092C3F102030022B8E78C
S31508000AB0870601D50220C4E74706C4D50120C0E74A
S31508000AC096F90800002801DA0220C6E7707AC007FE
S31508000AD0C5D50120C1E7870701D50220C8E7400729
S31508000AE0C8D50120C4E7070701D50220CBE7C00611
S31508000AF0CBD50120C7E794F804904846FFF7FCFDDC
S31508000B00064600283FF4E9AE0F4BB4F80510B3F8D3
S31508000B1002C061451AD05A898A4217D0DA888A42B1
S31508000B2014D01A898A4211D09A888A420ED0002394
S31508000B301D43D2E6A0005902A0000601A0000A0142
S31508000B40A0005905E47F0020D87F0020E279122A08
S31508000B5004D0062248461AF0D1FC65E76289022AC3
S31508000B6001D00D22F6E727890FB10722F2E7B4F87C
S31508000B700CE0AEF1020292B2012A8CBF4FF00008D7
S31508000B804FF001082EF0020ABAF1010F8DF8128013
S31508000B901FFA8AF01ED1614534D1338903F4C07334
S31508000BA00BBB337A68F3451360F38613337230460A
S31508000BB00DF1120205A92BF014FE9DF812209DF8DE
S31508000BC0141096F8BE012CF02AF80022B4F8051085
S31508000BD02079C0E7614516D1338903F4C07323B180
S31508000BE0BEF1000F03D0FD22B4E7012A03D9337AF8
S31508000BF013F0600F01D10020D3E706F10C0000F0D6
S31508000C0013FDF8E70746B3F80AC08C4517D1337ABF
S31508000C1013F0600FE7D1012A08D93FB9338903F4E5
S31508000C20C0731BB106F10C0000F0FEFC337A68F3C2
S31508000C30C7133372737A67F300037372B7E7DA88F8
S31508000C408A4206D1337A67F3820368F34103337223
S31508000C50BBE71A898A4205D1337A68F3C30367F377
S31508000C600413F4E79B888B427FF461AF337A68F309
S31508000C700003ECE72079FFF73FFD00283FF42DAE8F
S31508000C806379A27943EA0223A0F8BC31002524E659
S31508000C90DFF804B19BF800609EBB42F602134FF0E2
S31508000CA001084FF6FF7A3A4FDFF8F090ADF81430A6
S31508000CB0384A3B46CDF80C900221002027F802ABB3
S31508000CC029F802AB02EB46021AF0B8FB60B14FF006
S31508000CD000080136062EEBD18BF80080B8F1000F1C
S31508000CE00FD12BF02EFEF8E54EB10221039B37F803
S31508000CF0020C05AA1AF0A2FB0028E8D1E9E70126AA
S31508000D00D6E7FF20FFF7F8FC064600283FF4E5ADD6
S31508000D104FF4E272002130F0ACF917230A22A6F844
S31508000D20BC31022106F5D47306F594702CF0ACFCA0
S31508000D30207B0022012186F8BE012BF070FFA5E773
S31508000D40A079FFF7D9FC064600283FF4C6AD00F5A2
S31508000D509C7001F07FFD06F5B87001F07BFD06F189
S31508000D600C0000F061FCFF2386F8BE31A0792BF059
S31508000D7001FF8BE72079FFF7BFFC00283FF4ADADF4
S31508000D80A37A80F8BF31637A80F8C1317EE700BF65
S31508000D90E47F00202CF3030865800020D87F00201C
S31508000DA070B503687B4A23F47F4323F00703934215
S31508000DB005468AB004D0002080F001000AB070BD54
S31508000DC00079FFF799FC04460028F4D00220B5F80C
S31508000DD00560FFF787FC8642EDD1EB79522B07D0E9
S31508000DE0FC22B5F8051028791AF088FB0120E3E7FC
S31508000DF02B8923B1032120462BF0B4FDF6E72B7B84
S31508000E00042B00F2C480DFE803F003475EB2C20099
S31508000E106B89032BEED12378012B01D10721EAE751
S31508000E2020460DF10A020DF109012BF0DAFC9DF8B6
S31508000E300930022B01D00621DDE704AB00932046DA
S31508000E40B5F80D1003AB0DF10B022BF04CFD08B9EC
S31508000E500821D0E794F8BE3105A98DF82230B4F8F8
S31508000E60BC3104F10C00ADF8203000238DF8243095
S31508000E709DF80A308DF82330039B0693049B05934F
S31508000E802BF0C0FE0028D6D16B7BAA7B43EA02234F
S31508000E90638001232380A9E76B89032BAAD12378D2
S31508000EA0012BBBD02046B5F80D102BF031FD0028DC
S31508000EB0CED004F59C7001F0CDFC04F5B87001F0B5
S31508000EC0C9FC012197E76B89052B93D12378012B60
S31508000ED0A4D020460DF10A020DF109012BF081FC80
S31508000EE09DF80930022BA6D104AB00932046B5F82D
S31508000EF00D1003AB0DF10B022BF0F5FC0028A7D063
S31508000F009DF80B30002B3FF475AFEA7B2B7C9A4299
S31508000F103FF670AF94F8BE1104F10C008DF822105C
S31508000F20B4F8BC118DF81C20ADF8201000218DF8FE
S31508000F3024109DF80A10ADF81E308DF82310039979
S31508000F4006910499059105A92BF05FFE58B904F599
S31508000F509C7001F07FFC6B7BAA7B43EA02236380CB
S31508000F6040F2012396E72D287FF465AF70E76B8979
S31508000F70012B7FF43FAF2578012D06D104F10C0033
S31508000F8000F052FB002323709BE7052133E702217B
S31508000F9031E700BFA0000A08194A30B500231446F5
S31508000FA0114694F83A50854204D140F28C7202FBFD
S31508000FB0031030BD0133042B04F28C74F1D10023E5
S31508000FC092F83A40FF2C13D140F28C725A438B1890
S31508000FD0002483F83A004FF6FF703D320A4418871A
S31508000FE01881988483F83B401846C3F88827E0E7B9
S31508000FF00133042B02F28C72E2D10020D9E700BF3C
S31508001000F41400202DE9F04F0368AC4A23F47F431B
S3150800101023F007038BB093420646059106D002F1EA
S315080010200072934215D04FF0010A0EE04FF0000906
S31508001030437B047903930789C7F30B072046FFF719
S31508001040ABFF054668B94FF0220A50460BB0BDE81B
S31508001050F08F83794FF001094FF6FF7704790393F0
S31508001060ECE72046FFF748FB04900028EBD0204623
S31508001070FFF792FF10B94FF02D0AE6E71C234FF64B
S31508001080FF7C90F83B4003FB04010A89A0466245B1
S3150800109075D10024974280F83B4040F088800023B1
S315080010A04FF01C0808FB0458C4EBC40198F816B0A6
S315080010B08900BBF1000F08BF9B4601F10E0306939A
S315080010C0EB180293049B0A3193F8C131294432463E
S315080010D00298CDF8009007912BF03DFB8246002838
S315080010E0B1D1049B079993F8BF3188F80C30BBF14E
S315080010F0000F0DD00123C8F804000A46A8F80870A6
S3150800110021460093284604232BF07BFC88F816A07A
S31508001110B9F1000F00F0848096F80AB096F80780B7
S3150800112006F10C07BBF1A00F3FF67DAF4FF00009A3
S31508001130634E5FFA89F39B4500F28980B8F1000F88
S3150800114002D0B8F10F0F0ED15E490A684AB11C23C6
S315080011506343E858069B8618EB588350029B5B68E6
S31508001160736000230B60039B13B10F2B7FF46DAFE5
S31508001170059B022B00F099804FF01C0A65E7974201
S3150800118023D067451DD00134E4B2012C0CD803FBEB
S31508001190040380F83B401A89A046BA4202D09A7DD9
S315080011A0BAB11F8100231DE0002380F83B30038974
S315080011B0BB4202D0847DDCB107810024A0462346C9
S315080011C010E0022C7FF46BAF55E7022C0F81E9D1B2
S315080011D051E7059B022B0FD01C23002203FB045367
S315080011E05A6001231C2202FB0858A8F8087057E722
S315080011F0059BA046022B07D11C2303FB085395F831
S315080012003A001989FFF722FB1C23002203FB085327
S315080012105A604FF6FF739F424FF00103E2D13FE752
S315080012201C226243D5F88837AA5896F811B09B1A3B
S31508001230244A96F80E801360214608232846029A07
S31508001240CDF8009006F113072BF0DBFB6AE73B8825
S31508001250B8F10F0F3380BB7807F10307B370337803
S3150800126003F003038DF8273011D163F07F038DF85F
S3150800127027300023009301230DF127022146284633
S315080012802BF0BFFBB37809F101091F4451E700238E
S315080012900DF1270200932146012328462BF0B1FBC6
S315080012A0002300933A46B378E8E71C2303FB04546B
S315080012B095F83A002189FFF7A9FA5DE7A0005903D6
S315080012C066800020F01400204FF6FF72FF2138B523
S315080012D000250E4C04F5805084F83A10228784F8CD
S315080012E0C617A4F8C42784F8522FA4F8502F80F8FC
S315080012F0DE16A0F8DC2694F83A0001352BF03AFC05
S31508001300042D04F28C74F6D138BD00BFF414002005
S3150800131002460020044B1B6803B97047997E914228
S3150800132008BF18461B68F7E7243300202DE9F84361
S315080013300D461646074600285ED000295CD04B6845
S31508001340002B59D00B68002B5AD08A7BFF2A55D020
S315080013508C89A4F11702E32A52D8043C013BA2B2B5
S3150800136013FA84F4B4FBF2F4013CA4B24EB90A7A37
S315080013704B899A4244D8A24244D8FF2B01D0A342B3
S3150800138040D83DF01BFC81461F4BD3F80080B8F1CE
S31508001390000F26D1A87BFFF7BBFF38BB4FF48E7230
S315080013A0414638462FF065FE07F10C0305F1140295
S315080013B055F8041B954243F8041BF9D116B10023CE
S315080013C0FC823B75FB8A3946FF2B3B7D0E4808BFDE
S315080013D0FC82BB802CF03BF948463DF0EAFB002036
S315080013E008E0474502D0D8F80080D0E748463DF0E7
S315080013F0E0FB2E20BDE8F8832220FBE72520F9E74D
S315080014002120F7E72D20F5E72433002001482CF0AA
S3150800141017B900BF243300202DE9F0474FF6FF76B1
S315080014205B4D2C686CB93DF0C9FB06462C68594FD4
S31508001430574D002C40F090803046BDE8F0473DF00F
S31508001440B8BBA379190771D403F00602022A6DD036
S31508001450062A05D1A28823F00703A371531CA3808B
S31508001460A788E38A9F4261D8DB1B9BB2B3425DD053
S31508001470A379DA0737D4228BD4F80CE0131F0EF1C0
S31508001480FF381FFA83FC07FB03F118FA83F3B3FB53
S31508001490FCF3B7FA87F0013B9BB2BB4204BF1CFBC7
S315080014A003FC0EF101024FEA501008BFA2EB0C0331
S315080014B040EA8700C0B20CBF9AB2033A236984F89F
S315080014C0220012BF92B240F0020084F822001944AA
S315080014D0228404F123002FF0D7FDA37923F0070314
S315080014E043F00103A371237FA77E94F81BA0B4F8E9
S315080014F0208004F12209DBB10120FFF7F3F84B46FF
S31508001500014642463846BAF1000F13D01AF024F8BD
S31508001510C0B9A37943F00203A371E37E6BB9A3793B
S3150800152023F00703A371A3880133A380246879E70E
S315080015300520E2E719F0F8FFEAE7A37960F38203EA
S31508001540A371F3E70528F1D01A281FBFA379A06075
S3150800155043F00803A371E9E7A288E38A9A4208D808
S315080015609B1A4FF6FF729BB2934202D0A3791B07D0
S315080015700BD5214628462CF079F8A2682046072A7A
S315080015808CBF0221B95C2BF0FAF9246851E700BF39
S315080015902433002038F303080368214A23F47F43E1
S315080015A023F00703934210B5044611D002F10172E5
S315080015B0934219D01B4A934208D10079FFF7A8FE37
S315080015C020B1B4F80520038B9A4206D1012010BD3C
S315080015D08079FFF79DFE0028F8D01323836083796E
S315080015E043F008038371F1E7C379022BEED101209A
S315080015F0FFF778F8B4F80530834208D12079FFF769
S3150800160087FE0028E2D0837943F00403EAE7052041
S31508001610FFF768F8B4F805308342D7D1EEE700BF84
S31508001620A0000601A000090010B5044698B13DF0D7
S31508001630C5FA0A4B1B6823B92D243DF0BAFA204691
S3150800164010BD9C42F6D10623A360A37943F0080394
S31508001650A3710024F1E72224F1E700BF2433002018
S31508001660024B1868B0FA80F040097047243300200E
S31508001670F0B50646524D93B00F46286851492DF0ED
S3150800168082F82BF0FFFF2BF0FEFF334632464E4919
S3150800169028682DF078F800230DF1470219461846F8
S315080016A0CDE90E33CDE90C33CDE90A33CDE908335C
S315080016B0CDE90633CDE90433CDE90233CDE900336C
S315080016C01FF00AFC044690BB7C782868022C31D0AF
S315080016D0FE2C3C494AD0012C57D12DF054F82BF05A
S315080016E0D1FF2BF0D0FF3246384928682DF04BF849
S315080016F097F9003001220093002130467B781FF0CD
S31508001700BDFB044698B9304600F01CF9044600288B
S3150800171044D02F4928682DF036F82BF0B3FF2BF06C
S31508001720B2FF32462B4928682DF02DF81924204699
S3150800173013B0F0BD9DF847302249012B08D92DF08A
S3150800174022F82BF09FFF2BF09EFF32462249CCE76A
S315080017502DF019F82BF096FF2BF095FF32461F490E
S3150800176028682DF010F801237B70C1E72DF00BF8DF
S315080017702BF088FF2BF087FF32469DF84730184933
S3150800178028682DF000F87C70B2E72CF0FCFF2BF0EF
S3150800179079FF2BF078FF32461249E1E709492868B4
S315080017A02CF0F1FF2BF06EFF2BF06DFF2D6800F08B
S315080017B0FDF8042302460C4928462CF0E4FFB6E758
S315080017C0A833002040F3030845F3030889F3030808
S315080017D0EFF40308F4F40308BDF3030803F403085D
S315080017E04EF4030893F403082AF5030838B50546AA
S315080017F02BF00EFA18B3134C134920682CF0C3FFCC
S315080018002BF040FF2BF03FFF2A46104920682CF0AA
S31508001810BAFF284600F0B2F80B4920682CF0B3FF4F
S315080018202BF030FF2BF02FFF246800F0BFF80423BD
S315080018300246074920462CF0A6FF002038BD2D2079
S31508001840FCE700BFA833002040F3030848F5030867
S315080018502AF5030803682B4A23F47F4323F007037A
S31508001860934273B504463AD002F18072934217D078
S3150800187002F17E42934218D1057928462BF0C8F921
S3150800188098B1214C214920682CF07DFF2BF0FAFEF7
S315080018902BF0F9FE2A461E4920682CF074FF1CE03E
S315080018A0067930462BF0B4F920B9002080F0010003
S315080018B002B070BDE38883B1134D164928682CF031
S315080018C062FF2BF0DFFE2BF0DEFE237A3246009312
S315080018D0E388114928682CF056FF0120E6E70579C8
S315080018E028462BF095F90028DFD0074C07492068D1
S315080018F02CF049FF2BF0C6FE2BF0C5FE2A460749F9
S31508001900CAE700BFA0005901A833002040F3030826
S31508001910AFF50308EFF403086CF50308DEF50308D2
S3150800192030B5024600230A25054905FB03F460186D
S315080019300C5D944203D00133042BF6D1002030BD50
S31508001940A48700200C4910B500220C464B7833B109
S315080019500132042A01F10A01F8D11C2010BD0A211E
S315080019604A43A118A054012218464A704B800B71AD
S31508001970CB800B81F2E700BFA487002070B5002258
S315080019800A25094C05FB02F1665C0B19864203D051
S315080019900132042AF6D170BDFF22625200225A8013
S315080019A01A71DA801A81F6E7A48700200023184600
S315080019B0054A517809B10130C0B20133042B02F14E
S315080019C00A02F6D1704700BFA48700200368184AA8
S315080019D023F47F4323F00703934213B526D1B0F8C7
S315080019E005301B2B22D142890479012A1BD1037B9E
S315080019F0DB0714D5002311468DF80430204601ABC9
S31508001A001FF0D0FD41F2FC13002818BF1846C2B2D9
S31508001A101B21204602B0BDE8104019F06FBD2046D4
S31508001A201FF0D6FDEEE741F20D10F0E702B010BD4B
S31508001A30A0000A08036837B523F47F43374A23F022
S31508001A400703934207D002F1006202F5102293427F
S31508001A5006D003B030BD03B0BDE8304000F0AEB8E4
S31508001A60B0F805404289A4F11D030579D2B2082BC6
S31508001A70EFD801A151F823F09D1A0008531A00085F
S31508001A80AF1A0008531A0008ED1A0008531A00087E
S31508001A90BF1A0008531A0008071B0008012A39D183
S31508001AA0037B9A1E122A24D81D4A13701BE0012AAA
S31508001AB030D1037B5A1E0E2A1BD81A4AF5E7531E45
S31508001AC0012B27D8002300F10C010DF10600ADF813
S31508001AD006302FF0D9FA144ABDF8063012889A4211
S31508001AE007D8124A138000F025F820B141F2FC10FD
S31508001AF001E041F2FF10C2B22146284603B0BDE814
S31508001B00304019F0FBBC012A04D1037B012BF0D825
S31508001B10074ACAE741F20D10EDE700BFA000010031
S31508001B206B8000206A800020E8F60308F07F00201A
S31508001B30698000201FB51B4B1B4C1B78207853B9B6
S31508001B401A4B1A8800230093114620781FF094F840
S31508001B5030B104B010BD1FF0BFF80028F0D0F8E788
S31508001B60134B01211B782078012B14BF0122022276
S31508001B701FF000F90028ECD10146022220781FF058
S31508001B8021F90028E5D103AB019301230949009304
S31508001B90094B02468DF80C001B78097820781FF04F
S31508001BA027FDD6E76C80002061880020F07F0020A2
S31508001BB0698000206B8000206A800020F0B54B4BBE
S31508001BC085B01A889B78ADF80C208DF80E30002366
S31508001BD01422474E01243370464B474F1A70202271
S31508001BE0464B38461C70464B1A80464B1C701FF0F5
S31508001BF029F8054618B3444C444920682CF0C3FD1F
S31508001C00434920682CF0BFFD2BF03CFD2BF03BFD33
S31508001C10404B414A00934149402320682CF0B3FDCC
S31508001C203F492B463F4A20682CF0ADFD284600F078
S31508001C30D3FD3D4920682CF0A6FD00BEFDE7032133
S31508001C40387803AA1FF0AAF8054618B32E4C2F4970
S31508001C5020682CF098FD2E4920682CF094FD2BF076
S31508001C6011FD2BF010FD2B4B2B4A00932B494623D5
S31508001C7020682CF088FD2A492B462A4A20682CF031
S31508001C8082FD284600F0A8FD274920682CF07BFD38
S31508001C9000BEFDE7FFF74EFF054618B31A4C1B4971
S31508001CA020682CF070FD1A4920682CF06CFD2BF08A
S31508001CB0E9FC2BF0E8FC174B174A009317494A230F
S31508001CC020682CF060FD16492B46164A20682CF031
S31508001CD05AFD284600F080FD134920682CF053FD74
S31508001CE000BEFDE7347005B0F0BD00BFD7F60308A7
S31508001CF06C8000206B800020618800206A800020AC
S31508001D00F07F002069800020A833002087F30308AD
S31508001D100BF60308DBF6030810F60308A2F6030819
S31508001D20B1F60308AEF60308C6F6030870B5294EE1
S31508001D3092B0354605AC0FCD06F114050FC40FCD8C
S31508001D400AAC0FC495E80F0084E80F00224B23481D
S31508001D5007930AAB09934FF48073ADF82C303CF027
S31508001D6038FF1F483CF035FF0421B38E0DEB010008
S31508001D700022ADF804302BF0A0FDF38E00220421DA
S31508001D8002A8ADF808302BF098FD338F0022042105
S31508001D9003A8ADF80C302BF090FD0122042104A80D
S31508001DA0ADF810202BF089FD0E4805A904F032F98C
S31508001DB00D4B0E4A0020C3F8CC24A2F58032C3F896
S31508001DC0C4244FF00112C3F8C8241C22C3F8B42453
S31508001DD012B070BDECF60308A05A320010F80308DA
S31508001DE00CF8030800000A5000C003500100030065
S31508001DF038B50446084D01202AF012FF76212846F8
S31508001E002CF05CFB214628462CF058FB00202AF0D3
S31508001E1007FF002038BD00BF00000A5070B5054610
S31508001E20C0F3C7100E46144665F07F05FFF7E0FFBE
S31508001E3001202AF0F5FEE9B209482CF03FFB084DCF
S31508001E402644B44204D100202AF0EAFE002070BDE0
S31508001E50002128462CF032FB04F8010BF1E700BFFD
S31508001E6000000A5013B5044601214F200DF1070260
S31508001E70FFF7D4FF9DF8073003F0E003802B17D057
S31508001E800BD8402B16D004D8B3B1202B16D001207E
S31508001E900CE0602BFBD10C4B06E0C02B10D0E02BDE
S31508001EA010D0A02BF3D1094B0020236002B010BD3F
S31508001EB0074BF9E7074BF7E7074BF5E7074BF3E758
S31508001EC0074BF1E7074BEFE70000FA3B0000FA3A49
S31508001ED000007A3B00007A3C00007A3D0000FA3C9C
S31508001EE000007A3A0000FA3970B504460D460B4EE2
S31508001EF0C0F3C710FFF77CFF01202AF091FE04F01B
S31508001F007F0130462CF0DAFA294630462CF0D6FA0C
S31508001F1000202AF085FE002070BD00BF00000A5090
S31508001F20DFED497AB4EEE70AF1EE10FA10B52DEDB9
S31508001F30028B59DCDFED457AB4EEE70AF1EE10FACA
S31508001F4057DCDFED437AB4EEE70AF1EE10FA55DC1A
S31508001F50DFED407AB4EEE70AF1EE10FA53DCDFED76
S31508001F603E7AB4EEE70AF1EE10FA51DC9FED3B8AB1
S31508001F70B4EEC80AF1EE10FA4FDCDFED397AB4EEAA
S31508001F80E70AF1EE10FA4DDCDFED367AB4EEE70A31
S31508001F90F1EE10FA49DCF3EE027AB4EEE70AF1EE56
S31508001FA010FA47DCF2EE027AB4EEE70AF1EE10FA1E
S31508001FB04FF00B0043DCF1EE087AB4EEE70AF1EED7
S31508001FC010FAB1EE098AF0EE097ACCBF0C240D247A
S31508001FD038FE278A2AF06CFF20462AF07EFFB0EEEC
S31508001FE0480ABDEC028B10BD03209FED1F8A0446EC
S31508001FF0F0E704209FED1D8A0446EBE705209FEDD8
S315080020001C8A0446E6E706209FED1A8A0446E1E79D
S315080020100F209FED198A0446DCE707209FED178AF3
S315080020200446D7E708200446D4E709209FED148A1A
S315080020300446CFE70A20B3EE098A0446CAE70446EF
S31508002040B2EE098AC6E700BF0080BB4500803B4563
S315080020500080BB4400803B440080BB430000C8426C
S3150800206000009642000014420000FA4500007A4536
S315080020700000FA4400007A440000FA43000048438E
S3150800208000004842B7EE007AC7EE007A9FED057A5F
S31508002090C0ED157AC7EE007A80ED140AC0ED167AFF
S315080020A0704700BF35FA8E3CF0B52DED048B0F4610
S315080020B000F15C050446D0ED098A90ED0A9AD0ED48
S315080020C00B9A85B028461646B0EE408A2BF038FAA9
S315080020D0002F48D094ED097ADFED386AB4EEE67A37
S315080020E0F1EE10FA3FDBDFED367AB4EEE77AF1EE81
S315080020F010FA38D894ED0A7AB4EEE67AF1EE10FAC8
S3150800210031DBB4EEE77AF1EE10FA2CD8F5EEC09A88
S31508002110F1EE10FAF1EE688AB1EE490A04F16807A1
S3150800212025DB0AF021F98DED010AB0EE680A0AF0FE
S315080021301BF9B1EE400A28463A4601A98DED020A76
S315080021408DED038A2BF034FA28462BF0ECF90EB9FC
S3150800215000236366D4ED147AB6EE000A284680EEAC
S31508002160270A2BF005FA05B0BDEC048BF0BD0AF082
S31508002170FBF89FED149A39EE400A8DED010AB0EE90
S31508002180680A0AF0F1F838EE098AB1EE400A01A8A1
S315080021908DED020A8DED038A2BF0C5F93A462846DD
S315080021A001A92BF005FA28462BF0BDF9D4ED187ACB
S315080021B0F1EE677AC4ED187AC9E700BFDA1B7CBF6F
S315080021C0DA1B7C3FDB0F494070B5044600F052F835
S315080021D00128054626D104F12406304600F01EF9EA
S315080021E03146204604F144062BF026F9304600F025
S315080021F023F9D4ED117AF1EE677AC4ED117AD4EDAC
S31508002200127AF1EE677A31462046C4ED127A2BF03F
S315080022102FF929462046BDE870409FED030A0022A3
S31508002220FFF742BF70BD00BF000000007FB5022562
S315080022300E4E0F4835702BF0DDF82AF0F1FD0446F6
S3150800224060B90DF103002AF0FCFC044630B90323FB
S3150800225001A833702AF00CFF044610B12AF0EFFCEF
S3150800226000252046357004B070BD00BF6D80002083
S3150800227028330020014B1878704700BF6D80002076
S3150800228070B501212DED028B0223B0EE408A1C4E5B
S3150800229082B00022084633702AF088FEB0EE480A5B
S315080022A0FFF73EFE174D002085ED000A2AF03FFE97
S315080022B001202AF027FE60202AF04EFEA0202AF0F0
S315080022C060FE322005F01CFE0F4C002101202AF08A
S315080022D0A3FE01A82AF042FD95ED000A20462BF040
S315080022E0A8F895ED000A2046FFF7CCFE20462BF00D
S315080022F0DBF80123337002B0BDEC028B70BD00BF62
S315080023006D800020A4330020283300201A4AD36B9E
S315080023106BB392ED0C6A9FED197A07EE903A26EEAA
S31508002320076AF8EE677AC6EE276A92ED0D6AFDEE41
S31508002330E66A26EE076A16EE903AC6EE276AFDEEBC
S31508002340E66A038016EE903AD2ED0E6A66EE876A62
S3150800235086EEA77ABDEEC77A438017EE103A8380D9
S3150800236000231363536393630023D3637047038087
S3150800237043808380704700BF2833002000007A44DA
S315080023800F4B9FED107AD3ED1A7A67EE877AFDEE3A
S31508002390E77A17EE902AD3ED1B7A67EE877AFDEE79
S315080023A0E77A028017EE902AD3ED1C7A67EE877AD1
S315080023B0FDEEE77A17EE903A42808380704700BFB9
S315080023C028330020A00CB3450F4B9FED107AD3EDB0
S315080023D0117A67EE877AFDEEE77A17EE902AD3ED43
S315080023E0127A67EE877AFDEEE77A028017EE902A70
S315080023F0D3ED137A67EE877AFDEEE77A17EE903A11
S3150800240042808380704700BF283300200000C842FE
S315080024100148FFF7D9BE00BF28330020054A1278C5
S31508002420012A04D0002202604260826070472AF0C6
S3150800243035BC00BF6D800020054A1278012A04D0F9
S31508002440002202604260826070472AF057BC00BFD3
S315080024506D80002008B5094B1B78012B01D00020A0
S3150800246008BD2AF09DFC064A13680133136000284C
S31508002470F5D0044A136801331360F1E76D80002034
S31508002480A03300209C3300209FED060A00F10C03C0
S31508002490B0EC017AF1EC017A984207EE270AF7D1F7
S315080024A0704700BF000000002DE9F0415D4C92B076
S315080024B009AD94E80F0085E80F000DAA174604F148
S315080024C0100304F1200C164618685968083303C629
S315080024D063453246F7D11868534B08A93060187916
S315080024E03CF072FB51483CF074FB51483CF071FBE0
S315080024F04FF4807308984F49ADF83430814228BFAD
S3150800250001460C972CF0C2F8294602250A904A483B
S3150800251004F074F848482CF061F847482CF087F81E
S3150800252045482CF070F8B4F8248001220421684646
S31508002530ADF800802BF0C1F9E78C0022012101A833
S31508002540ADF804702BF0B9F9268D0122042102A8F2
S31508002550ADF808602BF0B1F90122042103A8374C25
S31508002560ADF80C502BF0A9F9354B4FF44870C4F868
S31508002570C8344FF00213C4F8C43403F58033C4F8E2
S31508002580CC341C23C4F8B43405F044FD07A8ADF8D0
S315080025901C5000F05BFB142005F03CFD07A8ADF8C5
S315080025A01C5000F043FB232005F034FD07A8ADF8C6
S315080025B01C5000F04BFBB9211F482CF05DF807A80A
S315080025C0ADF81C5000F032FB002204A81146ADF805
S315080025D010802BF072F9002205A81146ADF8147088
S315080025E02BF06BF90122002106A8ADF818602BF034
S315080025F064F90122002107A8ADF81C502BF05DF9FB
S315080026000D4803F0C1FF00230948C4F8B434C4F8E0
S31508002610C834C4F8C434C4F8CC343CF0DDFA12B07B
S31508002620BDE8F08128F7030824F803080CF8030826
S3150800263010F80308E070720000000A5000C003504A
S315080026400200010007B5094B20281B88ADF80430A5
S3150800265009D1042101220DEB01002BF02EF90020EF
S3150800266003B05DF804FB0E20FAE700BF52F7030833
S3150800267008B506483CF0ADFA2EF00DFC2020FFF711
S31508002680E1FFBDE80840FFF70FBF00BF0CF80308DD
S3150800269001483CF09EBA00BF0CF803080348044AF8
S315080026A00449121A92102AF0BEBF00BF8001000822
S315080026B040030008E082002008B5154B83F30A881A
S315080026C000F030F8FFF7EAFF124B13498B4212D39A
S315080026D00020124B12498B4218D3FDF7C1FE186829
S315080026E050F82240586840F82240013298688242E1
S315080026F0F5D30C33EAE70022F8E71C6844F8220011
S3150800270001325C68A242F8D30833E4E70022F8E70E
S3150800271000000020606E04086C6E04086C6E0408E5
S315080027206C6E04084FF48041124B134A70B59A60D8
S31508002730D3F88820114D42F47002C3F88820104A55
S3150800274005F5005491664FF0FF3222660D4A62661F
S315080027500222C3F8D020BFF34F8FBFF36F8F4FF419
S315080027604036002004F0CCFB0020E66004F0ACFB09
S315080027702E6170BD00ED00E00000000800800044F6
S3150800278000900050F7FF3700014B1860704700BFF4
S31508002790A4840020054B1860054B1B6F03F0070344
S315080027A0032B01D13AF0B4BF704700BFAC840020B8
S315080027B00080005008B504F0BDFB014B186008BD49
S315080027C0A8330020024B034918682BF0DCBF00BF72
S315080027D0A833002054F7030870B50C4C0C4906467C
S315080027E020682BF0D0FF04F0A5FB0546206804F00E
S315080027F095FB3046FFF7E6FF284604F08FFB206876
S315080028000449BDE870402BF0BEBF00BFA8330020C6
S3150800281056F7030858F7030838B505463CF0CEF9CD
S3150800282000230B4A14685CB1AC4206D1A96A6BB1A5
S3150800283099623CF0BEF9012007E02346A46AF2E754
S31508002840002DF3D03CF0B5F9204638BD1160F0E70D
S31508002850AC33002010B50446B0B13BF02DFD204640
S31508002860FFF7DAFF10B194F82C300BB9002010BD31
S31508002870064C2368002BF9D03CF0A0F92368013BED
S3150800288023603CF096F9F1E72220F0E7B033002008
S315080028902DE9F04385B00546914698460E469DF8C3
S315080028A0307009B9002F5CD12846FFF7D3FF0446DC
S315080028B0002836D185F82C00686305F03DFB864272
S315080028C033D93BF091FD2146844640F2E7304FF478
S315080028D07A720023E6FB0C0108F014FF4FF0FF3272
S315080028E0002308F00FFF2B46E88611462846CDE957
S315080028F000441D4A3CF03CFA044690B9C5E90898DC
S3150800290085F82D702E633CF059F9184A136833B3CD
S315080029101A469B6A002BFBD195620023AB623CF0FA
S3150800292048F9204605B0BDE8F08347B12B46314645
S315080029302846CDE900440C4A3BF0BAFDDCE73046B0
S3150800294003A93BF069FD04460028EAD12B46284630
S31508002950CDE90077044A03993CF0E6F9CCE715601F
S31508002960DBE72124DDE700BF71290008AC3300202E
S3150800297091F82C3013B50C4683B98B8ECA8E9342C8
S315080029800ED243B9CDE9003320460B46124A4FF022
S31508002990FF313CF0ADF9A38E0133A38602B010BD1A
S315080029A052B191F82D3093B101230093D1E9082350
S315080029B02046096BFFF76CFF012384F82C30074B80
S315080029C01A6801321EBF1A6801321A60E6E708461D
S315080029D03BF072FCF0E700BF71290008B033002015
S315080029E02DE9F041154E336833B34FF00008144F04
S315080029F03CF0E4F805463C6824B92846BDE8F041B1
S31508002A003CF0D7B894F82C30A3B1336884F82C80FE
S31508002A1013B13368013B336094F82D3013B920465F
S31508002A20FFF7FAFE28463CF0C4F8D4E908312046F8
S31508002A309847DDE7A46ADFE7BDE8F081B0330020F8
S31508002A40AC330020034B1B68002B14BF0420012065
S31508002A50704700BFB0330020024B1868B0FA80F008
S31508002A6040097047B033002007B508202AF00EFF4A
S31508002A700222064B6846CDE900232AF0BDFE08204F
S31508002A8003B05DF804EB2AF00CBF00BF006A18100B
S31508002A90002307B5294801933CF09BF84FF440738F
S31508002AA0012204216846ADF800302AF006FF01220B
S31508002AB0234B0520C3F8442401A93CF085F80028D7
S31508002AC039D1204BD3F8F02042F00102C3F8F020A8
S31508002AD0D3F8FC2042F08072C3F8FC201A4AA3F50A
S31508002AE05D431A60019B194A03F5D52303F2FC439B
S31508002AF0B3FBF2F3164A013B13610223C2F8F03026
S31508002B004FF48073C2F804334FF06043114AC3F898
S31508002B10B02F114AC3F8802ED3F8002E42F48072E3
S31508002B20C3F8002EFF2283F82020D3F8002E22F4C3
S31508002B308072C3F8002E03B05DF804FB0CF8030896
S31508002B4000D0035000ED00E0FF030040F8590D00E7
S31508002B50000004E055CEACC5090001004FF0604303
S31508002B60D3F8802E30B5D20715D501240B4D8440F5
S31508002B70D5F8FC2042F08072C5F8FC20D3F8002E68
S31508002B802243C3F8002E53F82020002AF0D003F879
S31508002B902010002030BD1120FCE700BF00ED00E04A
S31508002BA0F8B504460127124D0CB314F001000BD0FA
S31508002BB0002024F0010405EBC0021668002EF3D0AD
S31508002BC05168C0B2B047EFE72246013020284FEAE5
S31508002BD0520201D0D307F8D507FA00F20F2824EAE3
S31508002BE00204E8D9421E05EBC2021038E5E7F8BD33
S31508002BF0B433002008B50C483BF0EBFF192004F06D
S31508002C0071F928B1192004F07BF9192004F05CF950
S31508002C101A2004F067F928B11A2004F071F91A206D
S31508002C2004F052F9002008BD0CF8030848B1012247
S31508002C30437801789A4030235943034B00205A5071
S31508002C4070472220704700BF40D0035048B1012288
S31508002C50437801789A4030235943034B00205A5051
S31508002C6070472220704700BF40E0035008B503F0C4
S31508002C707BFD054B00F0553020F05020C3F82004AA
S31508002C80BDE80840FFF78CBF00E0035008B503F025
S31508002C906BFD054B00F0AA3020F0A020C3F82004F5
S31508002CA0BDE80840FFF77CBF00E003502DE9F04F70
S31508002CB09A46564B85B01B7806460F461546DDF8EC
S31508002CC03C909DF844B0DDF85080002B00F09780CA
S31508002CD0072A00F296800E9B002B00F09280B9F12D
S31508002CE0000F00F08E80129BB3F5006F00F3898009
S31508002CF0012803D1109B002B00F08380444B03EB83
S31508002D0005131B7B002B7ED0424C102200216846FF
S31508002D102EF0AFF904EB45141022A7BB394620461E
S31508002D202EF0A7F943F210036380BBF1000F03D11D
S31508002D30E37843F00303E370364A0E9B02EB451C27
S31508002D40CCE90193129B6901581E9DF84C30C0F3DB
S31508002D500A0003F003039B0643EA001E53582E4855
S31508002D60012E00EA03004EEA0003CDF800A05350F6
S31508002D7017D0B8F1000F2ED19CF8023068F304136F
S31508002D808CF8023027E0002120462EF072F94FF425
S31508002D9044736380BBF1000FCED1E37843F0300370
S31508002DA0C9E713230CF1100ECCF80C309CE80F0081
S31508002DB08EE80F006FF00301DCF81C20109B61F30E
S31508002DC09F02012FCCF81C20CCF8143003D1CCF884
S31508002DD01890CCF8043000270D4A290102EB051398
S31508002DE042F80180159A28465A60694622469F602D
S31508002DF05E7303F063FA384605B0BDE8F08F0748FE
S31508002E00FAE70748F8E70748F6E700BF6E800020AC
S31508002E10A4350020A43400200F80FFF3028000F0C0
S31508002E20018000F0078000F038B5124B05461B7884
S31508002E30DBB1E0B13BF0C2FE0F4A00231146147B1A
S31508002E4054B92B6001251A0101EB03131D738C502D
S31508002E503BF0AFFE204638BD0133082B02F11002C5
S31508002E60EDD13BF0A6FE0548F5E70548F3E705482A
S31508002E70F1E700BF6E800020A4350020048000F032
S31508002E80028000F0018000F038B53BF097FE002381
S31508002E9005460B4A147B6CB90133082B02F1100264
S31508002EA0F8D103F0B7F9074B28461C703BF081FEB2
S31508002EB0204603E028463BF07CFE034838BD00BFA9
S31508002EC0A43500206E800020058000F00D4B10B55B
S31508002ED01B78044693B1072812D83BF06FFE0A4BBD
S31508002EE003EB04131A7B2AB100241C733BF061FE22
S31508002EF0204610BD3BF05DFE0448FAE70448F8E7B3
S31508002F000448F6E76E800020A4350020068000F00D
S31508002F10028000F0018000F0154B13B518680023F5
S31508002F2001908DF804303BF049FE124B1C7824B111
S31508002F303BF03FFE104802B010BD01221A703BF06C
S31508002F4038FE0E4B01A81C731C7783F82C4083F8B7
S31508002F503C4083F84C4083F85C4083F86C4083F827
S31508002F607C4008238DF8073003F078F92046E2E71D
S31508002F705BF703086E800020038000F0A43500206C
S31508002F80F8B50D4D2D7885B1072810DC0B4D0601D7
S31508002F9005EB0014277B67B1AB510025069BA5609E
S31508002FA0636003F08BF92846F8BD0548FCE7054839
S31508002FB0FAE70548F8E700BF6E800020A435002030
S31508002FC0028000F0018000F0078000F00A4A08B588
S31508002FD012785AB107280BD8084A02EB00131B7B54
S31508002FE043B1002103F02CF9002008BD0448FCE792
S31508002FF00448FAE70448F8E76E800020A435002064
S31508003000028000F0018000F0078000F00A4A08B547
S3150800301012785AB107280BD8084A02EB00131B7B13
S3150800302043B1012103F00CF9002008BD0448FCE770
S315080030300448FAE70448F8E76E800020A435002023
S31508003040028000F0018000F0078000F0184B2DE99F
S31508003050F0411F6D5B6D1F4000D5FEE70126002578
S31508003060144CDFF85880374218D02368C8F85060E7
S31508003070A3B1A168284601316268A1609847637BBD
S31508003080012B0BD150B90C4B03EB45131A7B60F39C
S3150800309041021A731A7F60F341021A770135082D27
S315080030A04FEA460604F11004DDD1BDE8F08100BF01
S315080030B000000450A4350020A43400200020045049
S315080030C02DE9F04F144605460E469B46C36B87B05E
S315080030D001225B6902A960689847EB6B01225B696C
S315080030E003A93046984702A82BF077F8074648B157
S315080030F00023A37563754FF0FF33A360002007B064
S31508003100BDE8F08F03A82BF075F80123A375237E7D
S3150800311004EBC303DE611F846368B3420ED12060EB
S3150800312003A82BF089F84FF0FF332075A360237DA1
S31508003130043B022B26D80023A375DFE723681A1A57
S3150800314053425341A37503A82BF076F8237D834297
S3150800315018BFA77503A82BF051F8074602A82BF04D
S315080031604DF8874218BF002303A818BFA3752BF094
S315080031704DF8074602A82BF049F887421CBF0023E2
S31508003180A375D4E703A82BF039F880B1EB6B0222BC
S3150800319030465B6904A9984704A82BF03EF8034615
S315080031A0207D032839D8DFE800F03838040903A859
S315080031B0F3E7CC22237E04EBC3031A8401F0B8FAA2
S315080031C0109B187003A8277E2BF00CF804EBC70792
S315080031D087F82200237E03A804EBC303B3F82090E4
S315080031E093F822702BF00AF8804603A82BF00EF805
S315080031F08246B8F1000F15D0EB6B022230465B69A8
S3150800320004A9984704A82AF0CDFF6075637D6BB9B9
S315080032100023A3754FF0000838E0227E04EBC202B3
S315080032201384CBE703A82AF0A8FFEEE794F81680E4
S31508003230B8F1000FEED0B9F1000F09D1DFB10123C3
S31508003240E375637E002B4FD1012F42D1677614E0D8
S315080032506B6C06EB0A02594286EA020008421CBF5A
S315080032600021A175591E0A409B1A9945D0D8A37DFD
S31508003270002BE3D1CEE7E37D43B94FF000084B4678
S315080032805246314628462AF0E6FCA060A27D12B1D5
S3150800329023694B4423611A49237E097899422AD91E
S315080032A001332376BBF1000F27D032B3E37D23B376
S315080032B0B8F1000F21D1032F1FD0A1684B1C1CD0D9
S315080032C0109B2246009328460123FFF7F9FEA075B6
S315080032D013E095F8343063B9EB6A0133CFD1032F85
S315080032E0CDD10123A376C8E7012FCFD0032FC4D1B0
S315080032F0F7E79846C3E70023A375A07DFFE600BF5E
S3150800330080F703082DE9F04F0E46984600238BB048
S3150800331004464FF0FF31104617468DF8133001F07A
S31508003320F1F9B6F5801F3BD3B21C53D1E56A6B1C85
S3150800333057D12046616A2AF0D4FB0546B31C18BF4C
S315080033400123DFF810910193636A626C0293236884
S3150800335005A902FB053AE36B05225B6950469847C7
S3150800336005A82AF0D5FF2AF0F8FF50462BF000F8FA
S315080033704FF0000B824601464B1C05D0636C81EA70
S315080033800A025B42134232D0294620462AF0A9FB9C
S31508003390029BAB424DD0BBF1000F4DD10546D3E79A
S315080033A0314605AA04F108002AF065FE0146481CC4
S315080033B010D0384601F0A6F90122394620460DF10B
S315080033C013032AF09AFC28B19DF8133088F80030C8
S315080033D0002003E0237C002BA8D12D200BB0BDE8EC
S315080033E0F08F2368ED1A636CB5FBF3F5A6E748463C
S315080033F001F088F90DF1130349462046019A2AF08F
S315080034007CFC034690B1B21C03D0D9F80020B24226
S315080034100CD19DF8132003930D4B88F800204946DC
S315080034201A6838462DF030FE039B9B46D9F80810DB
S31508003430A2E7BBF1000FD0D0B6F5801FC8D231463F
S3150800344098F800307A6804F1080001F089F8BFE7B7
S315080034507CF70308983C00202DE9F34104461746FB
S3150800346098460E46194D816AE36A8B422AD04B1C50
S3150800347018E0284601F046F90122294620460DF1B2
S3150800348007032AF03AFC30B14346294620469DF800
S315080034900720B847B0B1A9684A1C05D0012E0AD042
S315080034A0E36A9942E5D10DE0696820462AF0A6FB51
S315080034B0012E0146D8D16B6881EA0302636C5B4230
S315080034C01A42D1D002B0BDE8F08100BF6C3C0020A2
S315080034D02DE9F0474FF0FF334FF6FF7200250446FB
S315080034E000F10806C0E909238AB0C36205620563CC
S315080034F030460F462AF090FD20462AF072FA28BB7D
S31508003500204639462AF03DFB20462AF06AFA28BBAF
S315080035105E200AB0BDE8F087E26B2368606CD2F8DB
S3150800352014C000FB0530052205A9E04705A82AF0C6
S31508003530EFFE012840F08380294620462AF0F2FA59
S31508003540421C294620462AF06BFA0135E3699D425A
S31508003550E2D320462AF045FA0028D1D020462AF0A0
S3150800356070FA4FF6FF72636A934200F0B080E26B1E
S31508003570676C2068694607FB030055690522A8475A
S3150800358068462AF09CFE626A2368606C514D00FB0F
S3150800359002302AF0EDFE4FF0FF33A062E3622A46BE
S315080035A06FF00101204605ABFFF7ACFE002850D1AD
S315080035B0AD6829462046E5622AF0EFF9206320B96E
S315080035C02046E16A2AF01AFBE062294620462AF0DC
S315080035D015FB0546A36A9D423DD120462AF09BF974
S315080035E000278046B946E369994546D3B84563D965
S315080035F02046616A2AF075FA0026054604F1400A53
S31508003600BE4212D3626C2368694602FB0539E36B36
S3150800361005225B694846984768462AF050FE534695
S3150800362002464946E06B2AF0A5FE294620462AF0BE
S3150800363058FA0136B0450546E2D1642069E72AF012
S3150800364091FE002881D0294620462AF06BFA0246C8
S3150800365077E7A56AADE7294620462AF09EF9236B47
S31508003660294603440746236320462AF0C7FA054637
S31508003670002FAFD1C4E90B07ACE7636C25680522B8
S3150800368003FB0955E36B05A95B692846984705A816
S315080036902AF03EFE2AF061FE58B128462AF068FE56
S315080036A0014620462AF079F9636C143B984208BF14
S315080036B0013709F1010996E730462AF0ADFC0023E7
S315080036C020461946044AFFF7C7FE002021E767206F
S315080036D01FE700BFC43C0020E9DC02082DE9F041E1
S315080036E0036B9046826B07689A4288BF8363426C75
S315080036F0436A90B002FB0377C36B0E46052201A905
S315080037005B6904463846984701A82AF001FE012855
S315080037100146307057D0656CE26B2368606AD2F850
S3150800372014C005FB0030052206A9E04706A82AF0C2
S31508003730EFFD01284FF0000523D0D4E90A32012114
S315080037409342CDE90B458DF834800E958DF83C10E3
S315080037502AD1194620462AF051FA236B626C143393
S315080037609B1AE06223630C9B53B99DF83C303BB12E
S31508003770626A616C2368E06B01FB02312AF080FD06
S315080037800C9DE36B05225B6901A93846984701A899
S315080037902AF0BEFD30702846236BA26B9A4288BF7A
S315080037A0A36310B0BDE8F081237C33B91C490BAA8A
S315080037B004F1080000F022FFD5E72046194A0BABB2
S315080037C0FFF74AFECFE7237C23BB2246164904F1BE
S315080037D0080000F013FF616A20462AF0A3F9616A1F
S315080037E0421C20462AF01CF9054620B9236B626C58
S315080037F01344143B23632046A16A2AF0FFF9236881
S31508003800A062C01A636CB0FBF3F0606220462AF02F
S3150800381038FAB6E700232046044AFFF71DFEDAE722
S31508003820753F0008F13E000883DD02081FDD020827
S3150800383073B50D46D11E4A421C461B7E4A419A4222
S3150800384026D129682368994222D3636899421FD8EA
S31508003850114E0DF107033246FFF754FDC0B97268E1
S315080038606B689A4214D19DF80730DA1E53425341C9
S31508003870227E93420CD1636901336361D4E9032341
S31508003880934205D22968A26842F8231001332361BE
S31508003890012002B070BD00BFC43C00202DE9F04FE6
S315080038A09A468BB09DF85030DFF850B10293DBF89A
S315080038B01030804653450D461646C0F09980D146CD
S315080038C0DBF804300193B9F1000F00F08D80D8F8C9
S315080038D03C3001225B6907A90198984707A82AF096
S315080038E089FCDBF80030984240F0858007A82AF06A
S315080038F08DFC0428074614D107A82AF08EFC019BE4
S31508003900029A04463B44002A3FD1864212D91446FD
S31508003910361A404601992AF071F9A9EB0409019073
S31508003920D1E7D8F83C3002225B69019808A9984784
S3150800393008A8E2E7841B544528BF5446032C03EB2A
S315080039400607AAEB040A4FEA94021CD9D8F83C30B9
S31508003950294638465B69984724F0030304F00306B2
S315080039601F441D44002ED4D0D8F83C3001225B6990
S3150800397008A9384698473246284608A935442DF0FE
S3150800398083FB0026C5E72646ECE7074600F0030258
S31508003990039203442A1804920593049BDD1B059B96
S315080039A0D81B039B9F420FD1002FB2D0D8F83C30CA
S315080039B0012208A95B6998473A46284608A92DF0C6
S315080039C02EFB78B93D44A4E7D8F83C30012208A973
S315080039D05B6998470422284608A92DF020FB08B9F8
S315080039E0043FDAE74FF0360948460BB0BDE8F08FDA
S315080039F04FF06309F8E74FF06F09F5E7F03C002050
S31508003A002DE9F0410F4616469846044688B060B33D
S31508003A1090F83450FDB1012129F0D8FF00210E9B02
S31508003A20CDE90511CDE902379DF83C30CDF8048083
S31508003A308DF81C30237C04968BB90D4901AA04F134
S31508003A40080000F0DBFDDDE90553E06B002E08BF3A
S31508003A501D462AF0A4F9284608B0BDE8F08120469C
S31508003A60044A01ABFFF7F8FCEDE70546F3E700BFAC
S31508003A704DDD0208313800082DE9F04F99B00F46A0
S31508003A8009920A69416C0E931439D31DB3FBF1F3FD
S31508003A90013302EBC302036B04469342C0F0BC81B8
S31508003AA00023DFF844940D93E36A484619460793C2
S31508003AB000F028FED7E9033604930E9B022B4ED15D
S31508003AC0CC2E40F08A81099B002B42D039462046ED
S31508003AD02AF0C3F9656C079A6B1E13401490ED1A09
S31508003AE0E36B01225B6916A97868984716A82AF03D
S31508003AF085FB00280CBF04230823782E06933DD99E
S31508003B00012300254FF0080A05933B6805990E988E
S31508003B10C9F80030C9F810602AF092FB4FEA9A03F8
S31508003B2010930023DDF81CB089F814000B930F934B
S31508003B3008930C93616C4A1E0BEA02028B1A002E3C
S31508003B4038D05544AB4240D8236B5B1A13442363E1
S31508003B50ABE0049B1B68149308230693D0E7656CB7
S31508003B60079A6B1E1340782EA5EB030516D8FB7D26
S31508003B707BB9099B002BB3D104230693331DAB42B3
S31508003B8010D9A6B1082DBBD804250023AA4605934B
S31508003B90BBE7099B002BA3D10823EEE7099B002B63
S31508003BA09ED1D9E7002505954FF0040AADE704250F
S31508003BB00596F9E75345C7D3B0460BEB0A030393BB
S31508003BC0089B002B18BF032313E0A3EB0A039E42AE
S31508003BD0B0460BEB0A0228BF98469E420392EFD9DD
S31508003BE00123D9F8102089F81730964271D1C9F8FF
S31508003BF004B0089399F81730002B6CD099F8182060
S31508003C000899D31C09EBC3030132C3F804B0A3F81F
S31508003C100880997289F81820B8F1000F14D00E9B05
S31508003C20022B5BD10B9B7BB90F9B4344032B0BD910
S31508003C30E36B01229B69039814A998470546002857
S31508003C4040F0EC8001230B93089B16A80193059B73
S31508003C50009399F814204346396800F009FDE36B90
S31508003C6058469B69109A16A99847051E0D9B18BFBA
S31508003C705B4652460D9359464346204629F0EBFFCC
S31508003C80236B08F10302A3EB0A0322F003029B1A33
S31508003C90C9F808002363002D40F0C0800F9BDDF8AB
S31508003CA00CB04344A6EB08060F935946204629F064
S31508003CB0A5FF00258346002E7FF43CAF8A4A396863
S31508003CC0936804F10800E36252680E9B00F048FC12
S31508003CD084E002238DE7C9F804B09DE7099B002B11
S31508003CE030D1049BB8F1030F43440A9327D9DDE981
S31508003CF00301E36B4FEA98029B699847054600283B
S31508003D0065D118F003025FD0049B28F003052B4405
S31508003D100493039B1D444FF0FF33049915A815938C
S31508003D202DF0B2F9E36B28469B69012215A998473D
S31508003D3005460A9B0493002D86D0039B99E74246C5
S31508003D40039DE8E7039B0A9307F120031193FB7D84
S31508003D5078689BB100233D7E0C9AD9B28D4211D961
S31508003D60119903F1010C31F83310914226D90699BD
S31508003D7007EBC303D8690A44104403E00C9B069A70
S31508003D8013441844E36B01225B6915A99847159BF0
S31508003D90012213930C9B0A9804330C93E36B13A923
S31508003DA09B699847039B0A9A43449B1A042B05462A
S31508003DB007D978B9134604330A93C8E76346521AF3
S31508003DC0CBE70A9B0393B6E70A9B04933CE70A9B57
S31508003DD00493B2E70A9B0393AFE77026304619B0FF
S31508003DE0BDE8F08F002657E004F108002AF014F920
S31508003DF03346314620463D4AFFF72EFB3A69616C49
S31508003E00D31D1439B3FBF1F3013302EBC302236B61
S31508003E109342BFF449AE65E01C26DFE73D2D61D12C
S31508003E2004F1080303932368079A606CD61AB6FB55
S31508003E30F0F600FB06302AF09BFAE16A8246204635
S31508003E4029F0DCFEA26A8242D8D0626CD9F8083022
S31508003E50511E0B40216BE062891A0B4423630D99AE
S31508003E602368CB1AB3FBF2F84645BBD1079BB3EBE5
S31508003E700A0611D0E36BB20851469B6998478346F8
S31508003E80E36A079A3344E362236B03989B1A534405
S31508003E9023632AF0C1F85E462368616CE06B01FB78
S31508003EA008312AF0DAF9204629F09BFD204629F048
S31508003EB0C8FD626A2368606C00FB02302AF058FA73
S31508003EC0A062204629F0DDFE2063002E8CD03A69D8
S31508003ED0616CD31D1439B3FBF1F3013302EBC30252
S31508003EE09042A0D22E4679E7983C0020E9DC0208E9
S31508003EF0032A2DE9F34106460D4617461C4606D108
S31508003F00237A012B23D0012002B0BDE8F081DFF827
S31508003F106080096842460DF10703FFF7F3F9606010
S31508003F200028EDD19DF80720237A032AE8D0D8F88F
S31508003F3004106A689142E3D1012B2969D4F80CC0B0
S31508003F4007D172690CEB0103934202D92074207CD5
S31508003F50DAE708316144E1603B46012229463046EA
S31508003F60FFF78AFD60600028CAD00020CCE700BFB2
S31508003F70C43C00202DE9F341089C032A174626680D
S31508003F8006D1237A012B24D0012002B0BDE8F081A6
S31508003F90DFF89080304642460DF10703FFF7B2F985
S31508003FA060600028EDD12568D8F80400A96AD5F81C
S31508003FB044C04840CCF100031840227AE1D1012AD6
S31508003FC009D1E268D8F8103013447269934202D9CD
S31508003FD02074207CD9E72868EB6A1B1A081AB3FBF9
S31508003FE0FCF3B0FBFCF083420BD1706CF36A421E03
S31508003FF01340326B121A13442846336329F0FEFD28
S31508004000E862D8F81020E36808321344E360012216
S315080040103B4604492068FFF72FFD60600028B0D0B2
S315080040200020B2E7C43C00202DE9F0410025634B8F
S315080040300E46D3F8008004461D6018B92125284687
S31508004040BDE8F08190F8347007B30A6803689A42AD
S3150800405040F0AA804A6843689A4240F0A5808A6878
S3150800406083689A4240F0A080CA68C3689A4240F0C2
S315080040709B800A6943699A4240F096808A69C36BB5
S315080040809A4240F091804B698361D8E768223946A5
S31508004090856B2CF0EEFFD6E90212336804F10800AE
S315080040A023607368A5636360336963617369A36199
S315080040B029F0C4FFB36904F14000E3639B6898479D
S315080040C020B9676C17B16368B3FBF7F794F8433008
S315080040D0E761002BB2D00023656C2366002D6BD0F8
S315080040E0002F69D02368B3FBF5F205FB1233002BCA
S315080040F05CD16768B7FBF5F605FB1676002E55D139
S31508004100204629F03AFCA369043303449F424FD35F
S3150800411040F634726369CC3B93424BD8B5F5805F61
S315080041204AD30321204629F051FCD4E90001E36B68
S315080041301B6898470546E36B0220DB6898472DB154
S3150800414084F83460E06B29F02AFE78E74146204679
S31508004150FFF7BEF96428054604D141462046FFF715
S31508004160B7F90546636C143BD5B9226A204602FBAB
S3150800417003F629F002FCA369043303449E4203D2E2
S3150800418084F834505A25DDE70123D4E900010C4AA6
S3150800419084F8343013680133136029F0E9FFD1E756
S315080041A0002384F83430CDE75D2548E7592546E7EE
S315080041B05A2544E75F2542E75B2540E72836002075
S315080041C0243600202DE9FF410C4616461F460546B3
S315080041D080B390F834307BB3B1F5801F2ED2DFF868
S315080041E06080012129F0F2FB2146424628460DF15E
S315080041F00F03FFF787F8044670B99DF80F30012BB7
S3150800420011D1D8F81030BB4212D10246009031467F
S315080042102846FFF743FB0446E86B29F0C0FD204615
S3150800422004B0BDE8F081022B14BF2D246024F3E707
S315080042306324F1E72124F2E71124F0E72924EEE7C5
S31508004240F03C00202DE9F04385B00C4617461E4683
S315080042500546DDF8308098B390F8343093B3B1F55D
S31508004260801F31D2DFF86490012129F0AFFB214687
S315080042704A4628460DF10F03FFF744F8044688B965
S315080042809DF80F30012B14D1D9F8102006EB08033E
S315080042909A4213D300904346324639462846FFF7DA
S315080042A0FDFA0446E86B29F07AFD204605B0BDE81C
S315080042B0F083022B14BF2D246024F3E76324F1E76F
S315080042C02124F2E71124F0E72924EEE7F03C002048
S315080042D02DE9F3411F4600230C46164605463B606A
S315080042E050B390F834304BB3B1F5801F28D2DFF8BD
S315080042F05480012129F06AFB2146424628460DF1E1
S315080043000703FEF7FFFF0446A0B99DF80730032B05
S3150800431010D0022B0AD10123336004233B60E86BDB
S3150800432029F03DFD204602B0BDE8F081D8F81030EE
S315080043303060F3E72D24F2E72124F3E71124F1E7AF
S315080043402924EFE7F03C002073B50446416929F0BB
S31508004350F9FA626E236B024493422CBF00220122B3
S31508004360834294BF00231B1A207C84F8502063657F
S3150800437084F85800A8B100230B4E1A461946204661
S31508004380009629F037FE002305461A4619462046A8
S31508004390009629F038FEE3682844984294BF002026
S315080043A0C01AE06502B070BDFFFF0F002DE9F347A4
S315080043B01E4643690446B342884617469DF8289028
S315080043C04FD300258DF807502046616929F0BAFABF
S315080043D0D4F830A082450AD2236AB5EB430F06D239
S315080043E0002220460DF10701FFF778F9B8B39DF8CA
S315080043F00730012B05D1002220460DF10701FFF7F2
S315080044006DF9B9F1030F06D03146204629F09AFA1C
S31508004410256B854227D3154D4FF0FF31284600F00E
S3150800442071F94B46294600222046C5E90376C5F8A8
S315080044300080FFF721FB236E054663B12046FFF790
S3150800444083FF94F8503013B994F858301BB1236E93
S3150800445004F150009847284602B0BDE8F0870135B8
S31508004460B2E76225F7E71C25F5E700BFC43C002044
S315080044702DE9FF410F4690461E46054698B390F82B
S31508004480343093B3B1F5801F31D21A4C022129F08A
S315080044909DFA2246394628460DF10F03FEF732FFEC
S315080044A0024678B1012342460093394633462846E8
S315080044B0FFF77CFF0446E86B29F071FC204604B040
S315080044C0BDE8F0819DF80F30012BEBD12169B1428F
S315080044D0E8D10093414633462846FFF7DFF90446FC
S315080044E00028DFD1E7E72124E8E71124E6E72924B5
S315080044F0E4E700BFF03C002030B50C46054685B021
S3150800450028B390F8343023B3B1F5801F23D20221A3
S3150800451029F05CFA0DF10F03214628460F4AFEF7EB
S31508004520F1FE034688B99DF80F20032A0DD0032211
S315080045302146009202462846FFF738FF0446E86BF4
S3150800454029F02DFC204605B030BD2D24F7E721249F
S31508004550F8E71124F6E72924F4E700BFF03C002029
S315080045602DE9F043466886B3056898464FF0000C77
S31508004570A946AE4655F83C400CF1010CC4F31307A6
S31508004580013401D0B94217D066450EF1080EF1D1B3
S315080045902F46002403E0A64207F1080712D055F873
S315080045A0343001340133F6D1C1F3130141EA08511D
S315080045B0C7E90012BDE8F08341EA0851CEE90012C6
S315080045C0BDE8F083B8F1030F03D101230372BDE8F8
S315080045D0F083002303E09E4209F10809F5D055F857
S315080045E033400133C4F30754032CF4D1C1F3130346
S315080045F043EA0853C9E90032BDE8F0832DE9F041E2
S315080046000646406882B0C0B10F469046002433681B
S3150800461053F8345003EBC403C5F30752C5F313012B
S31508004620013504F1010406D05B683046CDF80080F8
S31508004630B84710B170688442E9D302B0BDE8F0818A
S31508004640024B1968024B1868FFF7EEBCB0840020CD
S31508004650D084002008B53AF0A8FA014B186008BDC6
S315080046601C3D0020014B18683AF09ABA1C3D002000
S3150800467073B504462248012A00EAC1119DF818506C
S3150800468023F07C4007D9961E012E28D9073303F05C
S315080046907F03194308E09DF81C300A43DB0603F044
S315080046A0C053134343F060410023C4E900108DF85A
S315080046B00730B5B1202221460DF1070029F074FE16
S315080046C01A220DF10700211D29F06EFE08206368E5
S315080046D09DF8072043EA8263636002B070BD114308
S315080046E0E2E71B220DF10700214629F05DFE23684B
S315080046F09DF80720042043EAC2632360EDE700BF64
S3150800470080FFFF0738B5094B0D461A680021044695
S315080047102CF0AFFC00234FF0FF322383C4E90025B9
S315080047202361A260E382A37638BD00BF7CF7030845
S315080047300138C0B205289ABF014B185C01207047A2
S3150800474081F703082DE9F0410746154600240E4671
S31508004750596888B0490A012922464FEA510104F1ED
S315080047600104F8D8DC78997824031B88C90201F477
S31508004770006104F480540C43C3F30A035203234430
S3150800478092B24FF000089C18274B6FEA0444039333
S3150800479025F07843ED4302A90DF107001B22029389
S315080047A08DF8078029F000FE9DF80720029B02A9D4
S315080047B043EAC2630DF107001B2225F078450493EE
S315080047C002958DF8078029F0EFFD9DF80720029BDA
S315080047D06FEA144443EAC26305934FF0FF33079424
S315080047E0069307A9BB69012206F110009847BB6921
S315080047F005A90446012206F108009847BB69404509
S3150800480018BF044604A90122301D984701224045D5
S3150800481018BF0446BB69304603A99847404508BFF8
S31508004820204608B0BDE8F08101009AB2044BD3F8DF
S315080048308420D206FBD4D3F88400C0F381107047D5
S315080048400040005038B5174B0546D3F828310C46BA
S3150800485003F00703013B052B20D8DFE803F0031319
S315080048601B0F0B1738F02EFF052305B1286004B17E
S31508004870236038BD38F026FF0623F6E738F06CFFCC
S315080048800723F2E738F05EFF0323EEE738F05AFF16
S315080048900423EAE738F052FF0223E6E70023184626
S315080048A0E3E700BF00800050002337B50193164B9D
S315080048B00546D3F820320C4603F00703042B21D80B
S315080048C0DFE803F0030B11161B0001230DB1019A53
S315080048D02A6004B1236003B030BD002101A8FFF7A8
S315080048E0B1FF1223F2E738F037FF07230190EDE70F
S315080048F03AF050F90A230190E8E738F081FF0923D6
S315080049000190E3E70023E1E70080005038B5104B3B
S315080049100546D3F880300C4603F00303022B0BD070
S31508004920032B0DD0012B0FD138F0D2FE0E2305B183
S31508004930286004B1236038BD38F00EFF0723F6E778
S3150800494038F0C0FE0623F2E700231846EFE700BF5B
S315080049500080005038B5104B0546D3F800310C4698
S3150800496003F00303022B0BD0032B0DD0012B0FD121
S3150800497038F0E8FE032305B1286004B1236038BD8A
S3150800498038F03EFF0923F6E738F0E2FE0823F2E79F
S3150800499001230020EFE700BF0080005038B5184B10
S315080049A00546D3F820010C4600F00700062823D850
S315080049B0DFE800F0040A0E16121A1E00012305B1DC
S315080049C0286004B1236038BD38F07CFE0523F6E77D
S315080049D038F0B8FE0323F2E738F0BEFE0723EEE709
S315080049E038F0ACFE0223EAE738F06CFE0623E6E769
S315080049F038F0A8FE0423E2E700231846DFE700BFE5
S31508004A000080005038B5104B0546D3F840310C46A7
S31508004A1003F00303022B0BD0032B0DD0012B0FD170
S31508004A203AF0B8F80A2305B1286004B1236038BD06
S31508004A3038F0E6FE0923F6E73AF0AFF80C23F2E77A
S31508004A4001230020EFE700BF00800050002337B5A0
S31508004A500193164B0546D3F860320C4603F007035C
S31508004A60013B032B1FD8DFE803F0020E19140021BF
S31508004A7001A8FFF793FF10230DB1019A2A6004B12C
S31508004A80236003B030BD002101A8FFF7BBFF112347
S31508004A90F2E738F061FE07230190EDE738F04EFEA5
S31508004AA002230190E8E70023E6E700BF00800050F4
S31508004AB0002337B50193164B0546D3F894320C46B6
S31508004AC003F00703013B032B1FD8DFE803F0020EB0
S31508004AD01914002101A8FFF761FF10230DB1019AEF
S31508004AE02A6004B1236003B030BD002101A8FFF796
S31508004AF089FF1123F2E738F02FFE07230190EDE72F
S31508004B0038F01CFE02230190E8E70023E6E700BF21
S31508004B100080005038B5104B0546D3F860310C4676
S31508004B2003F00303022B0BD0032B0DD0012B0FD15F
S31508004B303AF030F80A2305B1286004B1236038BD7D
S31508004B4038F05EFE0923F6E73AF027F80C23F2E779
S31508004B5001230020EFE700BF008000502E4B98424B
S31508004B604AD022D82D4B984240D014D82C4B984284
S31508004B7039D00AD82B4B984232D02B4B98422FD09B
S31508004B802A4B98422CD000207047294B9842FAD1DC
S31508004B90284B186F7047284B98422AD0274B9842C3
S31508004BA0F1D1244BD3F880007047254B98422BD07F
S31508004BB009D8244B984223D0234B9842E3D11D4B66
S31508004BC0D3F88C007047214B984221D003F5740323
S31508004BD003F510539842D6D1164BD3F89800704770
S31508004BE0144B986D7047134B586E7047114B586F9E
S31508004BF07047104B986F70470E4BD3F88400704778
S31508004C000C4BD3F8880070470A4BD3F890007047CE
S31508004C10084BD3F8940070470048E8010024F400D4
S31508004C20C0CF6A0080841E0000093D0040420F0084
S31508004C30405DC6000080E00FC0EA210180BA8C0101
S31508004C40007E560380D54302006CDC020090D00338
S31508004C5073B50D460021114B0191D3F880410646E4
S31508004C6004F00304022C13D0032C0CD0012C13D10E
S31508004C7001A8FFF793FE10240EB1019B336005B11E
S31508004C802C6002B070BD38F067FD07240190F3E789
S31508004C9038F054FD0190EFE70C46EDE70080005030
S31508004CA038B5104B0546D3F840320C4603F00303DB
S31508004CB0022B0BD0032B0DD0012B0FD139F06AFF35
S31508004CC00A2305B1286004B1236038BD38F098FD81
S31508004CD00923F6E739F061FF0C23F2E701230020E8
S31508004CE0EFE700BF0080005038B5144B0546D3F8EF
S31508004CF000020C4600F0070004281BD8DFE800F085
S31508004D0003090D111500012305B1286004B12360BC
S31508004D1038BD39F03FFF0A23F6E738F071FD09235D
S31508004D20F2E739F03AFF0C23EEE738F0F1FC0F23EF
S31508004D30800AE9E700231846E6E700BF008000502E
S31508004D4038B5144B0546D3F808020C4600F00700A0
S31508004D5004281BD8DFE800F003090D11150001230C
S31508004D6005B1286004B1236038BD39F013FF0A2362
S31508004D70F6E738F045FD0923F2E739F00EFF0C2374
S31508004D80EEE738F0C5FC0F23800AE9E7002318464A
S31508004D90E6E700BF00800050B0F5207F1FD009D895
S31508004DA0B0F5007F15D003D868B1B0F5C07F0AD03A
S31508004DB000200CE0B0F5607FFAD10B4BD3F88000E9
S31508004DC0C0F3011003E0084B186FC0F3033001303D
S31508004DD07047054BD3F89000C0F30460F7E7024B21
S31508004DE0186FC0F38020F2E70080005002464FF4A7
S31508004DF08030104B10B598660020FFF7CDFF504362
S31508004E0041F671320C4BDC69DA635A6804F4803473
S31508004E1022F4401259B90949884294BF002001205A
S31508004E20000502435A600CB10022DA6310BD04493A
S31508004E30F2E700BF0090005000000350005A6202DB
S31508004E40002D3101430905D0012B0CD0022B084B4C
S31508004E5018BF002300F01F0039B103F58053012263
S31508004E6082401A607047034BF4E703F50053F6E7F0
S31508004E7068800050648000501FB50021B0F5807F1F
S31508004E800446CDE9001100F0D2803AD85E2833D81E
S31508004E905E2833D8DFE800F0453232323232323219
S31508004EA032323232323232323232323232323232D4
S31508004EB0323232323232323245AC45ACBCBCBCBC82
S31508004EC0BCACC64E6BDC4EACACAC32323232323293
S31508004ED03232ACACAC7EE6AC3232323232323232BC
S31508004EE03232323232BC454545E14E4EEB8D63C116
S31508004EF032323232329E4500802870D0009804B093
S31508004F0010BDB0F5D06F00F0A38035D8B0F5607F3E
S31508004F1079D01AD8B0F5007F65D005D8B0F5C07F2E
S31508004F20ECD138F0F5FB5CE0B0F5207F60D0B0F549
S31508004F30407FE3D138F0ECFB02464FF42070FFF7D0
S31508004F402BFFB2FBF0F252085BE0B0F5B06F69D008
S31508004F500AD8B0F5806F5BD0B0F5A06FCED100212E
S31508004F606846FFF7A1FCC9E7B0F5C06FC6D10021B6
S31508004F706846FFF747FDC1E7B0F5106F6DD00ED84C
S31508004F80B0F5086F78D0B9D8B0F5E06F6AD0B0F54B
S31508004F90F06FB3D100216846FFF7BCFDAEE7B0F568
S31508004FA0406F3AD013D8B0F5206F60D0B0F5286FAF
S31508004FB0A4D10021324B0391D3F8703203F00303D6
S31508004FC0012B02D103A8FFF71DFD039B39E0B0F5BD
S31508004FD0486F93D100216846FFF76AFD8EE738F0DF
S31508004FE077FB00908AE738F073FB0246204604E018
S31508004FF038F08EFB02464FF42070FFF7CDFEB2FB69
S31508005000F0F200927AE701A8FFF780FC019AEDE733
S3150800501000216846FFF7C2FC70E700216846FFF7E3
S3150800502011FC6BE700216846FFF712FE66E74FF0B2
S31508005030E02302911B695B0705D538F069FB0290EE
S31508005040029B00935AE703A902A8FFF7DBFCF7E7E0
S3150800505000216846FFF748FE50E700216846FFF73B
S315080050606FFE4BE700216846FFF71AFE46E7002168
S315080050706846FFF7EBFC41E76846FFF76BFC3DE740
S315080050800080005008B58020FFF7F6FE034B9842D3
S315080050909EBF4FF48032024B1A6708BD005A62025F
S315080050A000A000501FB503460020B3F5807F01908D
S315080050B000F0C58065D85D2B56D84C2B07D82D2B0C
S315080050C048D8232B2CD8019805B05DF804FB4D3B36
S315080050D0102BF8D801A252F823F000BF3552000869
S315080050E0C7500008C7500008C7500008E351000819
S315080050F0C7500008C75000088F5200080152000820
S31508005100A751000885520008C7500008C750000874
S31508005110C7500008C7500008C75000089952000831
S31508005120243B092BCFD801A252F823F035520008A8
S315080051303552000835520008355200083552000825
S31508005140C75000082B520008C7500008C351000872
S315080051506B5200083D2B00F083803E2BB3D1002014
S3150800516001A9FFF79DFDAEE7802BACD1504B1B6F15
S3150800517003F00703013B032BA5D8DFE803F0544DE2
S315080051805052B3F5F06F6BD020D8B3F5B06F4CD052
S315080051900ED8B3F5607F71D095D3B3F5806F49D03B
S315080051A0B3F5A06F8FD1002001A9FFF77DFB8AE731
S315080051B0B3F5D06F59D0B3F5E06FD0D0B3F5C06F63
S315080051C081D1002001A9FFF71DFC7CE7B3F5206F0C
S315080051D05DD00BD8B3F5086F4CD0B3F5106F7FF4DC
S315080051E072AF002001A9FFF7ABFD6CE7B3F5406F7E
S315080051F048D0B3F5486F4FD0B3F5286F7FF463AF47
S315080052002B4BD3F8703203F00303012B49D0022B42
S315080052100CBF1523002300E00523019353E703235E
S31508005220FBE70823F9E70223F7E7002001A9FFF7C0
S315080052300FFD48E7002001A9FFF7B0FB43E74FF051
S31508005240E02302901B695B0705D538F061FA0D2348
S315080052500393039BE1E703A902A8FFF7D3FBF8E74B
S31508005260002001A9FFF756FC2DE7002001A9FFF74A
S315080052703BFD28E701A9FFF76DFB24E701A9FFF726
S3150800528045FB20E7002001A9FFF7DCFA1BE7002011
S3150800529001A9FFF7DBFB16E7002001A9FFF708FCC9
S315080052A011E7002103A8FFF7ADFB1123B5E700BFFF
S315080052B0008000504FF48032074B0849586E03F5BA
S315080052C080535A664B6A23F001034B62C3035CBFE3
S315080052D0034B5A66704700BF0080005000C0075055
S315080052E000A0005008B5FFF7DDFE092811D00A38DE
S315080052F0012802D94FF6FF7008BD4FF48002064B0D
S315080053005A6603F5D8335B6ADB07F3D54FF4FA70B0
S31508005310F2E7024B1888EFE700900050CE8700208E
S3150800532008B5FFF7BFFE03280ABF024B4FF6FF700A
S31508005330188808BDCC87002038B504468020FFF7BA
S31508005340B1FE032800F083804FF48012524B4FF0D1
S31508005350A0615A6645F60E02504BC3F88020504AA3
S3150800536091624FF4803102F5805291629A6DD203B0
S31508005370FCD4996D11F08041FBD1D4E900021205E5
S3150800538042EA0062E07B0243207B42EA0042607BFD
S3150800539042EA0032A07B42EA80121A619869D4E98F
S315080053A00452120642EA856200F000400243A07EDB
S315080053B0E57E0243207E42EA0042607E42EA0022FF
S315080053C09A611A6AE06922F00F0242EA8502354DAF
S315080053D000283DD11A6294F82420996A94F820008E
S315080053E0D200294042EA40120A4394F8211042EAC0
S315080053F0011242F480329A622B49284A936D31EAA7
S315080054000303FBD14FF08071254881621369A568B3
S3150800541023F4700343EA055313614FF00043836195
S3150800542094F822300BB9214B996294F823303BB992
S315080054304FF480321D4B9A62184A936D5B00FCD478
S3150800544094F825301BB1154B194AC3F8802038BD8E
S31508005450024342F0080202281A6208D119614FF481
S315080054600852996113484FF47F4128F0BBFF0B4956
S3150800547094F822308A6A94F820001B062A4043EAE8
S315080054804013134394F8242043EAC20394F82320D4
S3150800549043EA02438B62D3E7009000500040005A6B
S315080054A00050005AC7FFFEFE030001000060005AC4
S315080054B0F1A7FFFF3440005A014B93F900007047EB
S315080054C062880020F0B5D0E901434FF400061A4A75
S315080054D04178057856664FF4D156022702F5B83258
S315080054E05662164E4F2977604FF0010728BF4F21A5
S315080054F006F5805677601669F603FCD441EA05215D
