S02B0000433A2F55736572732F6D706D656E2F53696D706C696369747953747564696F2F424C452D7468657319
S214000000C00A0020D9100000736602007366020062
S214000010E77F0200736602007366020073660200E2
S214000020736602007366020073660200736602005F
S2140000307366020073660200F965020073660200CA
S214000040736602007366020073660200736602003F
S214000050736602007366020073660200736602002F
S214000060736602007366020073660200736602001F
S214000070A15D00007366020073660200DF9702004F
S21400008073660200736602007366020073660200FF
S21400009073660200211B000073660200736602008E
S2140000A0736602003D1800001D180000736602000B
S2140000B0736602001D48020073660200C15002000B
S2140000C0F1720300ED720300654802000773030037
S2140000D0F572030091500200F9720300015102000C
S2140000E04D2E0200113002006D51020073660200B0
S2140000F0736602007366020073660200736602008F
S214000100736602007366020073660200736602007E
S214000110736602007366020073660200736602006E
S214000120736602007366020073660200736602005E
S214000130736602007366020073660200736602004E
S21400014082B0BFF34F8FBFF36F8F30BF074BD3F82C
S214000150F030DB0704D500230193019B052B01DD5E
S21400016002B07047019B0133F6E700BF00ED00E0E8
S214000170F0B5114A114C124E00F00105E3695F0715
S21400018013D40DB9334213D103EA00078F4207D1C7
S2140001900B4A1A40002A0CBF00206FF00100F0BD89
S2140001A0013AEBD16FF00200F9E74FF0FF30F6E7C7
S2140001B06FF00100F3E700BF809698000000035040
S2140001C0020001000B4B70B5D96911F480310DD1D6
S2140001D001244FF48072084E084DF46020462C64CB
S2140001E01A61FFF7C5FF3464EC6070BD6FF0010064
S2140001F0FBE700BF00000350001003500020035030
S2140002004FF4003238B50F4B0F4C9A6641F67133F7
S2140002100122E569E3630D4B0021DA600223606189
S2140002202120236105F48035FFF7A2FF10B92120B5
S214000230FFF79EFF0122064BDA600DB10023E36351
S21400024038BD00BF0090005000000350001003505F
S2140002500020035070B5134C6061E3695B071ED441
S2140002600E4656F8043B8D18A361AE420BD104230C
S214000270002121202361FFF77BFF58B9BDE87040BD
S2140002802120FFF775BF08210846FFF771FF10B160
S2140002900423236170BD56F8043BA361E5E74FF0E5
S2140002A0FF30F7E7000003502DE9F84315464FF4FA
S2140002B00032184B89469A6641F6713203F51C33B4
S2140002C0DF69DA630122064603F58053DFF84C80C7
S2140002D007F48037DA6055B9284601220E4BDA60FB
S2140002E01FB10022A3F50053DA63BDE8F88306F5D4
S2140002F0005404EA0804A41BAC4228BF2C46494616
S21400030022463046FFF7A6FF0028E6D12644A14441
S2140003102D1BE0E7009000500020035000E0FFFF98
S2140003200348044B834202D0034B03B1184770477F
S214000330103300201033002000000000064B074951
S214000340C91A891048BF0131491003D0044B0BB1BC
S21400035001481847704700BF1033002010330020B4
S2140003600000000010B5064C237843B9FFF7D8FF0D
S214000370044B13B10448AFF300800123237010BD73
S214000380BC2C00200000000080DD030008B5054BF3
S2140003901BB105490548AFF30080BDE80840FFF7EC
S2140003A0CDBF00BF00000000B00D002080DD0300C0
S2140003B0A3F5803A704700BF174B002B08BF134BBE
S2140003C09D46FFF7F5FF00218B460F461348144A5B
S2140003D0121A29F03CFA0E4B002B00D098470D4B12
S2140003E0002B00D098470020002104000D000D4887
S2140003F0002802D00C48AFF3008007F099FF2000D9
S214000400290029F0EEF907F081FF00BF0000080080
S2140004100000000000000000C00A0020C00A002003
S214000420602E0020000000000000000037B50546E2
S2140004300EF090FD00284ED12A4B2877AB61AB68B2
S21400044043F48013AB6027F031FEAB68A8801B0333
S2140004500CD4B0F5FA7F09D938F073FA01210446B6
S214000460084637F0AFFA204638F066FA28460EF00F
S21400047099FD044680BBE86888B311F0F3FA2DF0C6
S214000480BCF92AF02BFD0BF05BFD0CF073FB2EF095
S21400049082FA2BF024FD2AF0BDFF01202EF019FC75
S2140004A02CF0FCF901202EF018FC0446A0B904211B
S2140004B0024608462DF092F901A88DF804400EF089
S2140004C063FF0321042010F07BFC0A2009F0D6FD10
S2140004D0284626F085F80024204603B030BD0248A2
S2140004E0CBE700BF05040300E232002008B504494C
S2140004F004481EF0A3F8BDE808401EF0D1B800BFBF
S214000500708E0300788F03004FF08052014B5A60C4
S214000510704700BF00ED00E070B5012886B00D46BC
S2140005208DF8070003D92124204606B070BD284B5D
S214000530284E1968306802F0E1FA04460028F3D124
S214000540254B062218689B88029002A92846ADF81B
S2140005500C300494ADF8144029F04FF928B1062267
S214000560284604A929F049F970B91C49306802F0F8
S2140005702DFD08B12D2828D11949306802F026FD36
S2140005802D2818BF0446CFE79DF80730012B0DD164
S2140005906B799B09032BC6D10123104930680DF1F6
S2140005A0070202F0CFFC04464CB1BDE7002BF3D1A6
S2140005B00A49306802F00AFD2D280446F4D10623C5
S2140005C02A460749306802F0BDFC0446ACE700BF87
S2140005D058300020783000207D9303003C00040053
S2140005E02C000400F8B50E460546D0B1C9B10E4B36
S2140005F00E4F1968386802F081FA044678B9062367
S21400060032460B49386802F047FB044638B90123E6
S2140006102A460849386802F03FFB00B12C70204695
S214000620F8BD2124FBE700BF5830002078300020BA
S2140006302C0004003C00040008B538F08BF90022BA
S214000640034B1A809A70BDE8084038F07EB900BFA8
S214000650100F002070B50D4E0546306826F0F5F8F0
S214000660044680B90A4A1388C3F58273AB4205D3A1
S21400067093781BB9074B9C7884F00104306826F009
S214000680F2F8204670BD0024FBE700BF18100020DB
S214000690000E0020100F0020002337B518481D4616
S2140006A0028800931146D41CADF804300444032994
S2140006B020D93BB1042AC2F1040388BF002312FAF2
S2140006C083F303806A4606234A21406829F0F4F83B
S2140006D0FFF7B2FF01220B4B69461A70009B180207
S2140006E000F4E060C3F307231843043000F07CFBFB
S2140006F003B030BD0131012304F8015F89B2D6E7AB
S214000700100F0020BD2C0020F8B5054638F022F961
S2140007100E4E07463488AC4208D22B21062025F020
S21400072078FF3846BDE8F84038F00FB903D100230B
S2140007303380B370F5E7641BA4B2291D224631440A
S214000740301D29F06AF83480EBE700BF000E002069
S21400075030B589B0FFF770FF38F0FCF804461F4B41
S2140007601888FFF7D1FF2046002438F0EEF81C4B1F
S2140007701C22214601A81C7029F069F809238DF86F
S2140007800430184B18490293184B01A80393022310
S2140007908DF810304FF4806305930A23ADF81830B7
S2140007A000F018FD014610B1204625F032FF104C2F
S2140007B04FF48070214629F088FA0E4D014630B17C
S2140007C0042025F026FF00232B6009B030BD4FF42F
S2140007D08271206829601DF0E3F9F6E7000E00201C
S2140007E0BD2C0020F9070000181000201B66020030
S2140007F00C0F0020080F002070B5414D286826F029
S21400080024F8014638B1002025F003FF2868BDE82B
S214000810704025F0FEBF3B4883784BB33A4E3378A2
S21400082033BB3A4A416814688370394A21F47F43DF
S21400083023F0070393420CD036D802F17C42D8321C
S2140008400A4034498A4238D133498B4248D09342D1
S2140008503BD001233370FFF7EFFE236821461802D2
S21400086000F4E060C3F307231843043000F0BCFA3A
S2140008702A498B789BB1244A137883B951F8043FF0
S2140008801C0204F4E064C3F307231C43012304346E
S2140008902046137000F0A8FA2046FFF735FF2868B8
S2140008A0BDE8704025F0DFBF1D4A934205D1027AAD
S2140008B002B3083025F0B6FECBE71A4B0188224675
S2140008C01B68194807F058FDC3E7027A1AB10830CA
S2140008D007F01EFBBDE7114601201DF06BF9B8E7D7
S2140008E0037A1BB1083000F021F9B2E701201DF0B1
S2140008F071F9AEE7114601201DF076F9A9E700BFB1
S21400090018100020100F0020BD2C00200C0F002017
S2140009102000FF022000FF002000FF01000E002044
S2140009202000FF03080F0020140F00202DE9F041DF
S2140009300546006820F47F4020F0070000F054F9D8
S21400094018B9284628F049FF18B9BDE8F08125F007
S21400095082FE2B68180200F4E060C3F307231843F6
S2140009600430FFF777FE0028F1D01C4F386825F0DA
S2140009706CFF014668BB2B68194E1C0204F4E06449
S214000980C3F307231C4337F0E5FF33880434C3F56D
S21400099082729442804615D804332246F0182946BF
S2140009A028F05DFF338840461C4401233480B37032
S2140009B037F0CBFF386825F02CFF3868BDE8F041EB
S2140009C025F051BF37F0C1FF1D21052025F021FE7F
S2140009D0F0E7002025F01DFEB7E700BF1810002046
S2140009E0000E002010B50B4C206825F02EFF0146A7
S2140009F058B9094B1870206825F00BFF25F02AFE21
S214000A002068BDE8104025F02EBF002025F001FE2E
S214000A1010BD00BF18100020BD2C00202DE9F743A4
S214000A2089461746014610B1012025F0F2FD3A4DE1
S214000A30286825F00AFF0146002866D11FFA89F4C7
S214000A403CB337F087FF354E804630880328C0F524
S214000A5082720CD994420AD973681C0204F4E064CA
S214000A60C3F307231C43C0F104031C44A4B29442FE
S214000A7040D8043022463946304428F0F0FE338809
S214000A8083B123444046338037F05FFF3288032A21
S214000A901DD8286825F0BDFE286803B0BDE8F043E1
S214000AA025F0E1BE4046348037F04FFF3288032AF7
S214000AB01ED800234FF4FA710093194A194B1A48AE
S214000AC000F06EFC01460028E3D0022017E000206C
S214000AD071680B0203F4E063C1F307210B43043390
S214000AE093420FD801231048B37000F03BFCE9E7AF
S214000AF00120EDE7404637F028FF1E21012025F0B3
S214000B0088FDC6E70028D4D1C3E7002025F081FD84
S214000B1003B0BDE8F08300BF18100020100F0020BF
S214000B203566020099060000C80D002070B54378AF
S214000B300278012B14D0022B2BD063BB052A2AD1B6
S214000B40274C2278082A47D02649D0F802000D46BE
S214000B50DEB2964224D345F822000132227016E017
S214000B60052A18D11E4C2178C1B3D0F802601D4862
S214000B700023024650F8045BAE421ED10020013925
S214000B8042F82300217002EB830299420FDC00201A
S214000B9002E0012A17D00120BDE870401DF01AB807
S214000BA051F8046B0133B042D2D12E20F4E75468DA
S214000BB00133146042F8040FE7E70133DDB2A942BF
S214000BC0D8D82D20E8E720220021064828F03FFE4E
S214000BD00022034B1A70DAE71C20DDE71B20DBE758
S214000BE0BE2C00201C10002010B5084B084A1C78AC
S214000BF00023D9B28C4201D8002010BD52F8041B45
S214000C0001338842F5D10120F7E700BFBE2C002053
S214000C101C100020F8B50546002843D037F09AFE91
S214000C20AB6A06469B889BB21BB9BDE8F84037F016
S214000C308CBEE86836F06AFD0023AC6A85F8303072
S214000C4037F088FEA3889BB21BB937F07EFE30468D
S214000C50EBE767886388E2889BB20133B3FBF2F167
S214000C6002FB11339BB26380A388BFB2013B9BB2E9
S214000C70A38037F06AFE14235F4307F11001214476
S214000C80E86836F089FD08493C44A1610028DED1B9
S214000C906769002FDBD0E26823692846D31AA2686A
S214000CA0B847D4E7F8BD00BF097000F038B51D4C52
S214000CB0206803689B6C1A0421D5012102F040FFCE
S214000CC037F048FE4FF40042054623681B6803F5DC
S214000CD00053DA649A6437F034FE23681B685A6E51
S214000CE022F4E0225A665A6E42F082725A6637F052
S214000CF023FE284637F029FE2068FFF78BFF206882
S214000D0003689B6CDB060CD5012102F019FF02215B
S214000D10206802F0BBFC102223681B6803F5005312
S214000D209A6438BD5C130020014B1868FFF772BF49
S214000D305C13002010B5102488B02246002101A8BC
S214000D4028F085FD29238DF804300C4B4FF4806283
S214000D5002930B4B0B49039302238DF810300A4B7A
S214000D6001A8CDE90523079400F034FA014610B136
S214000D70012025F071FC08B010BD00BF091000006E
S214000D8061660200581300200A00040013B507F03D
S214000D909BF8124B124A18600368124C934218D004
S214000DA002F58042934217D02521022025F054FCFC
S214000DB0FF2325210220237025F04EFC01A90120E7
S214000DC037F009FE014610B1042025F045FC02B0BC
S214000DD010BD0D232370F1E70F23FBE75C13002003
S214000DE000C00550BF2C00202DE9F8431D4E0446D8
S214000DF03068884625F029FD014620B1012025F0FF
S214000E002BFCBDE8F883184DE71C2B6827F003077A
S214000E10DA19164B9A4224BFA3F582732B60B4F5F9
S214000E20827F08D91D21032025F016FC3068BDE816
S214000E30F84325F018BDD5F80090224641464846AE
S214000E4028F00DFD0A48224649460A4B006802F083
S214000E5033FF10B92B683B442B60306825F0D9FC73
S214000E60E4E700BF58130020403000204011002067
S214000E705C130020790E00001FB50223003918BF4E
S214000E8001218DF80030074B019110226946186841
S214000E9025F0EBFC014610B1012025F0DDFB05B086
S214000EA05DF804FB581300201FB500238DF80030B2
S214000EB0064B69461022186825F0D7FC014610B18B
S214000EC0012025F0C9FB05B05DF804FB581300208F
S214000ED070B51B4D04462B6803F58272194B9A4277
S214000EE024BFA3F502732B6037F034FD4FF48272F3
S214000EF00646154B2046296802F030FE0446C0B967
S214000F00304637F022FD4FF40041104B1868036856
S214000F1003F50052916448F2100203F58053DA6438
S214000F20214602F00DFE2B6803F582732B602046E7
S214000F3070BDFFF7B9FF304637F007FDF7E700BF93
S214000F404430002048130020C10F00005C1300202E
S214000F5070B5164D286825F078FC014618B10120BA
S214000F6025F07AFB70BD124C124E94F9000004F086
S214000F70E7FB94F9000004F09DFB33680E4A1B68FB
S214000F805A660E4A03F500539A6437F0E3FC0446AB
S214000F903068FFF79DFF08B1FFF786FF204637F061
S214000FA0D4FC2868BDE8704025F05DBC58130020CE
S214000FB0BF2C00205C130020FF002401FFFF01006F
S214000FC01FB500200124CDE9020001900C488DF8E1
S214000FD00040814201D001B1019463B1CDE90232F3
S214000FE0084B69461022186825F03FFC014610B1F0
S214000FF0012025F031FBFFF757FF04B010BD00BFFE
S214001000097000F05813002070B5214D86B028688E
S21400101001AA02A925F056FC1B28044604D028B1D4
S2140010200146012025F018FB06B070BD37F092FC93
S2140010309DF808300646012B1ED0022B0FD043B970
S214001040144C206826F0A8FB10B92068FFF740FF74
S214001050304637F07AFC286825F005FCE4E70E4BAE
S214001060039E5C601C7337F070FC286825F0FBFB61
S2140010703046FFF7B7FCD7E737F067FC286825F05F
S214001080F2FBDDE904120398FFF7C8FCCCE700BFCB
S214001090581300205C1300204813002008B50348AE
S2140010A037F09EFCBDE8084028F050BBF4900300E3
S2140010B0014837F095BC00BFF49003000348044A8B
S2140010C00449121A921025F0D5BA00BF400100005C
S2140010D020030000602E002008B5154B83F30A8815
S2140010E000F030F8FFF7EAFF124B13498B4212D399
S2140010F00020124B12498B4218D3FFF75DF918688F
S21400110050F82240586840F82240013298688242DF
S214001110F5D30C33EAE70022F8E71C6844F822000F
S21400112001325C68A242F8D30833E4E70022F8E70D
S2140011300000002088DD030094DD030094DD03003A
S21400114094DD03004FF40041134B144A70B59A60C7
S214001150D3F88820124D42F47002C3F88820114A52
S21400116005F5005491664FF0FF3222664FF6DF72A7
S21400117062660222C3F8D020BFF34F8FBFF36F8F93
S2140011804FF44036032004F0DBFA0320E66004F058
S21400119091FA2E6170BD00BF00ED00E00000000077
S2140011A00080004400900050014B1860704700BF5C
S2140011B04C300020054B1860054B1B6F03F00703EF
S2140011C0032B01D136F06EBA704700BF54300020B2
S2140011D000800050F8B50F460546002843D0002989
S2140011E041D003784268980702D01AB9212428E033
S2140011F0002AFBD1190702D5AA8A002AF6D09A0639
S21400120005D5EB8A002BF1D0AB69002BEED02C2055
S21400121026F0FCFC064640B32C22002128F017FBE3
S2140012202B46321D05F11C0153F8040B8B4242F885
S214001230040BF9D12B785B0705D53E606B686BB95C
S21400124000242046F8BD0121304625F0B6FA0446B3
S2140012500028F2D0304626F0DBFDF2E7314604489F
S21400126025F01CFAECE72224EBE71924E9E700BF97
S2140012706013002008B5034825F009FABDE80840C9
S21400128028F054BA601300200B4B10B51C680CB93C
S21400129001200AE037F055FB94F8202003462AB1D7
S2140012A0A26A1AB137F048FB002010BD184637F086
S2140012B043FB2468EBE700BF601300200B4B10B520
S2140012C01C680CB901200AE037F03BFB94F820209C
S2140012D003462AB1A26A1AB137F02EFB042010BDCD
S2140012E0184637F029FB2468EBE700BF60130020A0
S2140012F00C4B10B51C6804B910BD37F022FB94F8EF
S214001300203002464BB1A36A3BB1013BA36237F0E3
S21400131013FBA36898472468EDE7104637F00CFBEC
S214001320F9E700BF6013002038B5054637F012FB1A
S21400133000230B4A14685CB1AC4206D1A96A6BB1B3
S214001340996237F002FB012007E02346A46AF2E721
S214001350002DF3D037F0F9FA204638BD1160F0E7DB
S2140013606413002010B50446B0B136F0E7FE204600
S214001370FFF7DAFF10B194F82C300BB9002010BD3F
S214001380064C2368002BF9D037F0E4FA2368013BBB
S214001390236037F0DAFAF1E72220F0E7681300203E
S2140013A02DE9F04385B00546914698460E469DF8D1
S2140013B0307009B9002F5CD12846FFF7D3FF0446EA
S2140013C0002836D185F82C00686304F0A7FC864216
S2140013D033D936F047FF2146844640F2E7304FF4D3
S2140013E07A720023E6FB0C0106F000FE4FF0FF3297
S2140013F0002306F0FBFD2B46E88611462846CDE97D
S21400140000441D4A37F0A9FB044690B9C5E9089880
S21400141085F82D702E6337F09DFA184A136833B39B
S2140014201A469B6A002BFBD195620023AB6237F00D
S2140014308CFA204605B0BDE8F08347B12B4631460E
S2140014402846CDE900440C4A36F05EFFDCE730461D
S21400145003A936F00DFF04460028EAD12B4628469D
S214001460CDE90077044A039937F053FBCCE71560C3
S214001470DBE72124DDE700BF8114000064130020B1
S21400148091F82C3013B50C4683B98B8ECA8E9342D6
S2140014900ED243B9CDE9003320460B46124A4FF030
S2140014A0FF3137F01AFBA38E0133A38602B010BDBE
S2140014B052B191F82D3093B101230093D1E908235E
S2140014C02046096BFFF76CFF012384F82C30074B8E
S2140014D01A6801321EBF1A6801321A60E6E708462B
S2140014E036F02CFEF0E700BF8114000068130020E1
S2140014F02DE9F041154E336833B34FF00008144F12
S21400150037F028FA05463C6824B92846BDE8F0417D
S21400151037F01BBA94F82C30A3B1336884F82C80CB
S21400152013B13368013B336094F82D3013B920466D
S214001530FFF7FAFE284637F008FAD4E908312046C5
S2140015409847DDE7A46ADFE7BDE8F081681300206E
S21400155064130020034B1B68002B14BF04200120DB
S214001560704700BF68130020024B1868B0FA80F07E
S214001570400970476813002013B5082025F005FAC7
S21400158006F0A2FC0123104C009390F83630206041
S214001590C3B9006826F0ACF9236820F07F4093F8C2
S2140015A03530023B012B94BF0323002340EA8370AF
S2140015B00190684625F0ADF9082002B0BDE810405D
S2140015C025F0EEB90020E7E76C130020BFF34F8F3D
S2140015D00549064BCA6802F4E0621343CB60BFF3CA
S2140015E04F8F00BFFDE700BF00ED00E00400FA05E6
S2140015F0002307B52948019337F0F2F94FF44073FA
S214001600012204216846ADF8003025F0D5F9012204
S214001610234B0520C3F8442401A937F0DCF9002841
S21400162039D1204BD3F8F02042F00102C3F8F02065
S214001630D3F8FC2042F08072C3F8FC201A4AA3F5C7
S2140016405D431A60019B194A03F5D52303F2FC4358
S214001650B3FBF2F3164A013B13610223C2F8F030E3
S2140016604FF48073C2F804334FF06043114AC3F856
S214001670B02F114AC3F8802ED3F8002E42F48072A1
S214001680C3F8002EFF2283F82020D3F8002E22F481
S2140016908072C3F8002E03B05DF804FBF4900300DC
S2140016A000D0035000ED00E0FF030040F8590D00A5
S2140016B0000004E055CEACC5090001004FF06043C1
S2140016C0D3F8802E30B5D20715D501240B4D8440B3
S2140016D0D5F8FC2042F08072C5F8FC20D3F8002E26
S2140016E02243C3F8002E53F82020002AF0D003F837
S2140016F02010002030BD1120FCE700BF00ED00E008
S214001700F8B504460127124D0CB314F001000BD0B7
S214001710002024F0010405EBC0021668002EF3D06A
S2140017205168C0B2B047EFE72246013020284FEAA2
S214001730520201D0D307F8D507FA00F20F2824EAA0
S2140017400204E8D9421E05EBC2021038E5E7F8BDF0
S2140017507013002008B50C4837F042F9192003F042
S214001760B7FF28B1192003F0EBFF192003F0A2FF02
S2140017701A2003F0ADFF28B11A2003F0E1FF1A206B
S21400178003F098FF002008BDF49003002DE9F04117
S2140017900D4690461F460446002837D0002935D00F
S2140017A037F0D8F823780646FF2B05D04246204669
S2140017B0296803F085FD28602B68013309D123785A
S2140017C0FF2B06D1124B6078D3F8241426F0D2F8FB
S2140017D028602A68531C13D00E49069B41F83270C5
S2140017E001EBC2014B602378FF2B04D0012393400A
S2140017F0094AC2F82434304637F0A7F8002003E040
S214001800304637F0A2F82D20BDE8F0812220FBE715
S21400181000C003507013002000D0035008B503F03A
S214001820FFFC054B00F0553020F05020C3F8200494
S214001830BDE80840FFF764BF00E0035008B503F0BA
S214001840EFFC054B00F0AA3020F0A020C3F82004DF
S214001850BDE80840FFF754BF00E003502DE9F04F05
S2140018609A46564B85B01B7806460F461546DDF859
S2140018703C909DF844B0DDF85080002B00F0978037
S214001880072A00F296800E9B002B00F09280B9F19A
S214001890000F00F08E80129BB3F5006F00F3898076
S2140018A0012803D1109B002B00F08380444B03EBF0
S2140018B005131B7B002B7ED0424C1022002168466D
S2140018C027F0C5FF04EB45141022A7BB3946204677
S2140018D027F0BDFF43F210036380BBF1000F03D176
S2140018E0E37843F00303E370364A0E9B02EB451C95
S2140018F0CCE90193129B6901581E9DF84C30C0F349
S2140019000A0003F003039B0643EA001E53582E48C2
S214001910012E00EA03004EEA0003CDF800A0535063
S21400192017D0B8F1000F2ED19CF8023068F30413DC
S2140019308CF8023027E00021204627F088FF4FF47D
S21400194044736380BBF1000FCED1E37843F03003DD
S214001950C9E713230CF1100ECCF80C309CE80F00EE
S2140019608EE80F006FF00301DCF81C20109B61F37B
S2140019709F02012FCCF81C20CCF8143003D1CCF8F1
S2140019801890CCF8043000270D4A290102EB051305
S21400199042F80180159A28465A60694622469F609A
S2140019A05E7303F01BFA384605B0BDE8F08F0748B3
S2140019B0FAE70748F8E70748F6E700BFC02C00201C
S2140019C060150020601400200F80FFF3028000F0F6
S2140019D0018000F0078000F038B5124B05461B78F2
S2140019E0DBB1E0B136F0B6FF0F4A00231146147B98
S2140019F054B92B6001251A0101EB03131D738C509B
S214001A0036F0A3FF204638BD0133082B02F1100242
S214001A10EDD136F09AFF0548F5E70548F3E70548A7
S214001A20F1E700BFC02C002060150020048000F005
S214001A30028000F0018000F0154B13B518680023F3
S214001A4001908DF8043036F085FF124B1C7824B1D7
S214001A5036F07BFF104802B010BD01221A7036F037
S214001A6074FF0E4B01A81C731C7783F82C4083F878
S214001A703C4083F84C4083F85C4083F86C4083F825
S214001A807C4008238DF8073003F078F92046E2E71B
S214001A904A900300C02C0020038000F06015002050
S214001AA00A4A08B512785AB107280BD8084A02EB3A
S214001AB000131B7B43B1002103F052F9002008BD40
S214001AC00448FCE70448FAE70448F8E7C02C00207E
S214001AD060150020028000F0018000F0078000F012
S214001AE00A4A08B512785AB107280BD8084A02EBFA
S214001AF000131B7B43B1012103F032F9002008BD1F
S214001B000448FCE70448FAE70448F8E7C02C00203D
S214001B1060150020028000F0018000F0078000F0D1
S214001B20184B2DE9F0411F6D5B6D1F4000D5FEE799
S214001B3001260025144CDFF85880374218D0236859
S214001B40C8F85060A3B1A168284601316268A16058
S214001B509847637B012B0BD150B90C4B03EB451315
S214001B601A7B60F341021A731A7F60F341021A77F8
S214001B700135082D4FEA460604F11004DDD1BDE814
S214001B80F08100BF000004506015002060140020A3
S214001B90002004502DE9F04F144605460E469B469D
S214001BA0C36B87B001225B6902A960689847EB6B3C
S214001BB001225B6903A93046984702A825F0E4FB9A
S214001BC0074648B10023A37563754FF0FF33A36043
S214001BD0002007B0BDE8F08F03A825F0E2FB012344
S214001BE0A375237E04EBC303DE611F846368B342E0
S214001BF00ED1206003A825F0F6FB4FF0FF332075CA
S214001C00A360237D043B022B26D80023A375DFE7C1
S214001C1023681A1A53425341A37503A825F0E3FB21
S214001C20237D834218BFA77503A825F0BEFB074691
S214001C3002A825F0BAFB874218BF002303A818BFE6
S214001C40A37525F0BAFB074602A825F0B6FB874227
S214001C501CBF0023A375D4E703A825F0A6FB80B11C
S214001C60EB6B022230465B6904A9984704A825F06E
S214001C70ABFB0346207D032839D8DFE800F0383870
S214001C80040903A8F3E7CC22237E04EBC3031A84DB
S214001C9001F0B8FA109B187003A8277E25F079FB90
S214001CA004EBC70787F82200237E03A804EBC303D0
S214001CB0B3F8209093F8227025F077FB804603A8AF
S214001CC025F07BFB8246B8F1000F15D0EB6B0222A5
S214001CD030465B6904A9984704A825F03AFB60756E
S214001CE0637D6BB90023A3754FF0000838E0227EB1
S214001CF004EBC2021384CBE703A825F015FBEEE73E
S214001D0094F81680B8F1000FEED0B9F1000F09D1A3
S214001D10DFB10123E375637E002B4FD1012F42D143
S214001D20677614E06B6C06EB0A02594286EA0200FC
S214001D3008421CBF0021A175591E0A409B1A9945EE
S214001D40D0D8A37D002BE3D1CEE7E37D43B94FF097
S214001D5000084B4652463146284625F053F8A06008
S214001D60A27D12B123694B4423611A49237E097868
S214001D7099422AD901332376BBF1000F27D032B31C
S214001D80E37D23B3B8F1000F21D1032F1FD0A16844
S214001D904B1C1CD0109B2246009328460123FFF7BD
S214001DA0F9FEA07513E095F8343063B9EB6A013399
S214001DB0CFD1032FCDD10123A376C8E7012FCFD0F3
S214001DC0032FC4D1F7E79846C3E70023A375A07D89
S214001DD0FFE600BF709003002DE9F04F0E469846D0
S214001DE000238BB004464FF0FF31104617468DF89F
S214001DF0133001F0F1F9B6F5801F3BD3B21C53D176
S214001E00E56A6B1C57D12046616A24F041FF0546FF
S214001E10B31C18BF0123DFF810910193636A626C4C
S214001E200293236805A902FB053AE36B05225B696A
S214001E305046984705A825F042FB25F065FB50461E
S214001E4025F06DFB4FF0000B824601464B1C05D07B
S214001E50636C81EA0A025B42134232D0294620466E
S214001E6024F016FF029BAB424DD0BBF1000F4DD1C4
S214001E700546D3E7314605AA04F1080025F0D2F955
S214001E800146481C10D0384601F0A6F90122394612
S214001E9020460DF1130325F007F828B19DF81330FE
S214001EA088F80030002003E0237C002BA8D12D20EA
S214001EB00BB0BDE8F08F2368ED1A636CB5FBF3F545
S214001EC0A6E7484601F088F90DF113034946204677
S214001ED0019A24F0E9FF034690B1B21C03D0D9F86A
S214001EE00020B2420CD19DF8132003930D4B88F8C6
S214001EF0002049461A68384627F0B1FC039B9B46EB
S214001F00D9F80810A2E7BBF1000FD0D0B6F5801FB5
S214001F10C8D2314698F800307A6804F1080001F01B
S214001F2089F8BFE76C900300541C00202DE9F341AC
S214001F300446174698460E46194D816AE36A8B4258
S214001F402AD04B1C18E0284601F046F90122294603
S214001F5020460DF1070324F0A7FF30B1434629467B
S214001F6020469DF80720B847B0B1A9684A1C05D09E
S214001F70012E0AD0E36A9942E5D10DE06968204651
S214001F8024F013FF012E0146D8D16B6881EA0302C4
S214001F90636C5B421A42D1D002B0BDE8F08100BF4C
S214001FA0281C00202DE9F0474FF0FF334FF6FF7254
S214001FB00025044600F10806C0E909238AB0C3627A
S214001FC00562056330460F4625F0FDF8204624F0EE
S214001FD0DFFD28BB2046394624F0AAFE204624F022
S214001FE0D7FD28BB5E200AB0BDE8F087E26B236809
S214001FF0606CD2F814C000FB0530052205A9E04746
S21400200005A825F05CFA012840F083802946204682
S21400201024F05FFE421C2946204624F0D8FD0135F8
S214002020E3699D42E2D3204624F0B2FD0028D1D0D9
S214002030204624F0DDFD4FF6FF72636A934200F0FF
S214002040B080E26B676C2068694607FB0300556941
S2140020500522A847684625F009FA626A2368606C7C
S214002060514D00FB023025F05AFA4FF0FF33A062C4
S214002070E3622A466FF00101204605ABFFF7ACFE8F
S214002080002850D1AD6829462046E56224F05CFD64
S214002090206320B92046E16A24F087FEE0622946E4
S2140020A0204624F082FE0546A36A9D423DD1204686
S2140020B024F008FD00278046B946E369994546D3D3
S2140020C0B84563D92046616A24F0E2FD002605463D
S2140020D004F1400ABE4212D3626C2368694602FBD2
S2140020E00539E36B05225B6948469847684625F044
S2140020F0BDF9534602464946E06B25F012FA2946DA
S214002100204624F0C5FD0136B0450546E2D16420E0
S21400211069E725F0FEF9002881D02946204624F0FC
S214002120D8FD024677E7A56AADE72946204624F0A3
S2140021300BFD236B2946034407462363204624F001
S21400214034FE0546002FAFD1C4E90B07ACE7636C3D
S2140021502568052203FB0955E36B05A95B6928463C
S214002160984705A825F0ABF925F0CEF958B12846D2
S21400217025F0D5F90146204624F0E6FC636C143BB6
S214002180984208BF013709F1010996E7304625F065
S2140021901AF8002320461946044AFFF7C7FE002017
S2140021A021E767201FE700BF801C0020976E020013
S2140021B02DE9F041036B9046826B07689A4288BF10
S2140021C08363426C436A90B002FB0377C36B0E4690
S2140021D0052201A95B6904463846984701A825F000
S2140021E06EF901280146307057D0656CE26B2368A3
S2140021F0606AD2F814C005FB0030052206A9E04745
S21400220006A825F05CF901284FF0000523D0D4E994
S2140022100A3201219342CDE90B458DF834800E95A4
S2140022208DF83C102AD11946204624F0BEFD236BBB
S214002230626C14339B1AE06223630C9B53B99DF8BF
S2140022403C303BB1626A616C2368E06B01FB023193
S21400225025F0EDF80C9DE36B05225B6901A9384675
S214002260984701A825F02BF930702846236BA26BFF
S2140022709A4288BFA36310B0BDE8F081237C33B9CF
S2140022801C490BAA04F1080000F022FFD5E72046FF
S214002290194A0BABFFF74AFECFE7237C23BB224647
S2140022A0164904F1080000F013FF616A204624F086
S2140022B010FD616A421C204624F089FC054620B9C0
S2140022C0236B626C1344143B23632046A16A24F0FC
S2140022D06CFD2368A062C01A636CB0FBF3F060620A
S2140022E0204624F0A5FDB6E700232046044AFFF763
S2140022F01DFEDAE7492A0000C5290000316F0200FA
S214002300CD6E020073B50D46D11E4A421C461B7E9A
S2140023104A419A4226D129682368994222D36368A3
S21400232099421FD8114E0DF107033246FFF754FDB0
S214002330C0B972686B689A4214D19DF80730DA1EED
S21400234053425341227E93420CD163690133636149
S214002350D4E90323934205D22968A26842F82310E1
S21400236001332361012002B070BD00BF801C002035
S2140023702DE9F04F9A468BB09DF85030DFF850B1FB
S2140023800293DBF81030804653450D461646C0F0E3
S2140023909980D146DBF804300193B9F1000F00F0C4
S2140023A08D80D8F83C3001225B6907A901989847D0
S2140023B007A824F0F6FFDBF80030984240F085804E
S2140023C007A824F0FAFF0428074614D107A824F02B
S2140023D0FBFF019B029A04463B44002A3FD18642FB
S2140023E012D91446361A4046019924F0DEFCA9EBB1
S2140023F004090190D1E7D8F83C3002225B690198C5
S21400240008A9984708A8E2E7841B544528BF544605
S214002410032C03EB0607AAEB040A4FEA94021CD926
S214002420D8F83C30294638465B69984724F00303C1
S21400243004F003061F441D44002ED4D0D8F83C30C8
S21400244001225B6908A9384698473246284608A9FB
S214002450354427F004FA0026C5E72646ECE707468B
S21400246000F00302039203442A1804920593049B87
S214002470DD1B059BD81B039B9F420FD1002FB2D0BC
S214002480D8F83C30012208A95B6998473A462846A6
S21400249008A927F0B2F978B93D44A4E7D8F83C304B
S2140024A0012208A95B6998470422284608A927F054
S2140024B0A4F908B9043FDAE74FF0360948460BB0EE
S2140024C0BDE8F08F4FF06309F8E74FF06F09F5E7C6
S2140024D0AC1C00202DE9F0410F46164698460446EF
S2140024E088B060B390F83450FDB1012124F045FB6C
S2140024F000210E9BCDE90511CDE902379DF83C3051
S214002500CDF804808DF81C30237C04968BB90D49D9
S21400251001AA04F1080000F0DBFDDDE90553E06BDD
S214002520002E08BF1D4624F011FD284608B0BDE861
S214002530F0812046044A01ABFFF7F8FCEDE70546BC
S214002540F3E700BFFB6E0200052300002DE9F04F05
S21400255099B00F4609920A69416C0E931439D31D3F
S214002560B3FBF1F3013302EBC302036B0446934261
S214002570C0F0BC810023DFF844940D93E36A48461C
S2140025801946079300F028FED7E9033604930E9BFE
S214002590022B4ED1CC2E40F08A81099B002B42D0D4
S2140025A03946204624F030FD656C079A6B1E1340B2
S2140025B01490ED1AE36B01225B6916A978689847B8
S2140025C016A824F0F2FE00280CBF04230823782E59
S2140025D006933DD9012300254FF0080A05933B6872
S2140025E005990E98C9F80030C9F8106024F0FFFE6F
S2140025F04FEA9A0310930023DDF81CB089F8140004
S2140026000B930F9308930C93616C4A1E0BEA02021D
S2140026108B1A002E38D05544AB4240D8236B5B1A39
S21400262013442363ABE0049B1B68149308230693B0
S214002630D0E7656C079A6B1E1340782EA5EB030552
S21400264016D8FB7D7BB9099B002BB3D104230693D8
S214002650331DAB4210D9A6B1082DBBD804250023E4
S214002660AA460593BBE7099B002BA3D10823EEE7F8
S214002670099B002B9ED1D9E7002505954FF0040A4B
S214002680ADE704250596F9E75345C7D3B0460BEBEF
S2140026900A030393089B002B18BF032313E0A3EB46
S2140026A00A039E42B0460BEB0A0228BF98469E429B
S2140026B00392EFD90123D9F8102089F817309642F3
S2140026C071D1C9F804B0089399F81730002B6CD074
S2140026D099F818200899D31C09EBC3030132C3F8F4
S2140026E004B0A3F80880997289F81820B8F1000F92
S2140026F014D00E9B022B5BD10B9B7BB90F9B4344E4
S214002700032B0BD9E36B01229B69039814A9984706
S2140027100546002840F0EC8001230B93089B16A882
S2140027200193059B009399F814204346396800F0FE
S21400273009FDE36B58469B69109A16A99847051E33
S2140027400D9B18BF5B4652460D935946434620469E
S21400275024F058FB236B08F10302A3EB0A0322F0D4
S21400276003029B1AC9F808002363002D40F0C080BE
S2140027700F9BDDF80CB04344A6EB08060F935946B2
S214002780204624F012FB00258346002E7FF43CAF43
S2140027908A4A3968936804F10800E36252680E9B1F
S2140027A000F048FC84E002238DE7C9F804B09DE7FA
S2140027B0099B002B30D1049BB8F1030F43440A93C6
S2140027C027D9DDE90301E36B4FEA98029B69984736
S2140027D00546002865D118F003025FD0049B28F058
S2140027E003052B440493039B1D444FF0FF330499C9
S2140027F015A8159327F033F8E36B28469B6901224A
S21400280015A9984705460A9B0493002D86D0039B7E
S21400281099E74246039DE8E7039B0A9307F12003E6
S2140028201193FB7D78689BB100233D7E0C9AD9B24C
S2140028308D4211D9119903F1010C31F833109142F0
S21400284026D9069907EBC303D8690A44104403E067
S2140028500C9B069A13441844E36B01225B6915A986
S2140028609847159B012213930C9B0A9804330C93EC
S214002870E36B13A99B699847039B0A9A43449B1AE8
S214002880042B054607D978B9134604330A93C8E7DC
S2140028906346521ACBE70A9B0393B6E70A9B049358
S2140028A03CE70A9B0493B2E70A9B0393AFE77026C4
S2140028B0304619B0BDE8F08F002657E004F1080056
S2140028C024F081FC3346314620463D4AFFF72EFB76
S2140028D03A69616CD31D1439B3FBF1F3013302EB93
S2140028E0C302236B9342BFF449AE65E01C26DFE7C4
S2140028F03D2D61D104F1080303932368079A606CA9
S214002900D61AB6FBF0F600FB063024F008FEE16AA5
S2140029108246204624F049FAA26A8242D8D0626CE7
S214002920D9F80830511E0B40216BE062891A0B441F
S21400293023630D992368CB1AB3FBF2F84645BBD147
S214002940079BB3EB0A0611D0E36BB20851469B69AE
S21400295098478346E36A079A3344E362236B0398F7
S2140029609B1A5344236324F02EFC5E462368616C56
S214002970E06B01FB083124F047FD204624F008F9FF
S214002980204624F035F9626A2368606C00FB02304A
S21400299024F0C5FDA062204624F04AFA2063002EEB
S2140029A08CD03A69616CD31D1439B3FBF1F3013353
S2140029B002EBC3029042A0D22E4679E7541C0020B8
S2140029C0976E0200032A2DE9F34106460D46174688
S2140029D01C4606D1237A012B23D0012002B0BDE885
S2140029E0F081DFF86080096842460DF10703FFF7C3
S2140029F0F3F960600028EDD19DF80720237A032ABA
S214002A00E8D0D8F804106A689142E3D1012B29690E
S214002A10D4F80CC007D172690CEB0103934202D9BB
S214002A202074207CDAE708316144E1603B460122ED
S214002A3029463046FFF78AFD60600028CAD000208D
S214002A40CCE700BF801C00202DE9F341089C032A38
S214002A501746266806D1237A012B24D0012002B01F
S214002A60BDE8F081DFF89080304642460DF107035E
S214002A70FFF7B2F960600028EDD12568D8F80400A9
S214002A80A96AD5F844C04840CCF100031840227A21
S214002A90E1D1012A09D1E268D8F8103013447269EE
S214002AA0934202D92074207CD9E72868EB6A1B1A67
S214002AB0081AB3FBFCF3B0FBFCF083420BD1706C3E
S214002AC0F36A421E1340326B121A134428463363CD
S214002AD024F06BF9E862D8F81020E3680832134453
S214002AE0E36001223B4604492068FFF72FFD606043
S214002AF00028B0D00020B2E7801C00202DE9F0416D
S214002B000025634B0E46D3F8008004461D6018B9B6
S214002B1021252846BDE8F08190F8347007B30A688E
S214002B2003689A4240F0AA804A6843689A4240F096
S214002B30A5808A6883689A4240F0A080CA68C36805
S214002B409A4240F09B800A6943699A4240F0968018
S214002B508A69C36B9A4240F091804B698361D8E7DB
S214002B6068223946856B26F072FED6E90212336873
S214002B7004F1080023607368A563636033696361CA
S214002B807369A36124F031FBB36904F14000E36389
S214002B909B68984720B9676C17B16368B3FBF7F773
S214002BA094F84330E761002BB2D00023656C2366AF
S214002BB0002D6BD0002F69D02368B3FBF5F205FB20
S214002BC01233002B5CD16768B7FBF5F605FB16766B
S214002BD0002E55D1204623F0A7FFA36904330344F3
S214002BE09F424FD340F634726369CC3B93424BD836
S214002BF0B5F5805F4AD30321204623F0BEFFD4E913
S214002C000001E36B1B6898470546E36B0220DB6810
S214002C1098472DB184F83460E06B24F097F978E794
S214002C2041462046FFF7BEF96428054604D14146D2
S214002C302046FFF7B7F90546636C143BD5B9226A00
S214002C40204602FB03F623F06FFFA3690433034418
S214002C509E4203D284F834505A25DDE70123D4E996
S214002C6000010C4A84F8343013680133136024F0F2
S214002C7056FBD1E7002384F83430CDE75D2548E7DE
S214002C80592546E75A2544E75F2542E75B2540E796
S214002C90E4150020E01500202DE9FF410C461646FD
S214002CA01F46054680B390F834307BB3B1F5801FDD
S214002CB02ED2DFF86080012123F05FFF21464246D6
S214002CC028460DF10F03FFF787F8044670B99DF804
S214002CD00F30012B11D1D8F81030BB4212D102466A
S214002CE0009031462846FFF743FB0446E86B24F085
S214002CF02DF9204604B0BDE8F081022B14BF2D2428
S214002D006024F3E76324F1E72124F2E71124F0E7D7
S214002D102924EEE7AC1C00202DE9F04385B00C46D4
S214002D2017461E460546DDF8308098B390F83430D6
S214002D3093B3B1F5801F31D2DFF86490012123F000
S214002D401CFF21464A4628460DF10F03FFF744F8BC
S214002D50044688B99DF80F30012B14D1D9F81020FD
S214002D6006EB08039A4213D3009043463246394690
S214002D702846FFF7FDFA0446E86B24F0E7F82046FD
S214002D8005B0BDE8F083022B14BF2D246024F3E7C2
S214002D906324F1E72124F2E71124F0E72924EEE783
S214002DA0AC1C00202DE9F3411F4600230C461646B6
S214002DB005463B6050B390F834304BB3B1F5801FF6
S214002DC028D2DFF85480012123F0D7FE2146424660
S214002DD028460DF10703FEF7FFFF0446A0B99DF84D
S214002DE00730032B10D0022B0AD1012333600423B3
S214002DF03B60E86B24F0AAF8204602B0BDE8F081FC
S214002E00D8F810303060F3E72D24F2E72124F3E7FA
S214002E101124F1E72924EFE7AC1C002073B5044623
S214002E20416923F066FE626E236B024493422CBF18
S214002E3000220122834294BF00231B1A207C84F8C0
S214002E405020636584F85800A8B100230B4E1A463C
S214002E5019462046009624F0A4F9002305461A4693
S214002E6019462046009624F0A5F9E36828449842BF
S214002E7094BF0020C01AE06502B070BDFFFF0F00CF
S214002E802DE9F3471E4643690446B3428846174673
S214002E909DF828904FD300258DF80750204661698D
S214002EA023F027FED4F830A082450AD2236AB5EB79
S214002EB0430F06D2002220460DF10701FFF778F9EE
S214002EC0B8B39DF80730012B05D1002220460DF13E
S214002ED00701FFF76DF9B9F1030F06D0314620461A
S214002EE023F007FE256B854227D3154D4FF0FF31A3
S214002EF0284600F071F94B46294600222046C5E9CF
S214002F000376C5F80080FFF721FB236E054663B104
S214002F102046FFF783FF94F8503013B994F85830E2
S214002F201BB1236E04F150009847284602B0BDE856
S214002F30F0870135B2E76225F7E71C25F5E700BF05
S214002F40801C00202DE9FF410F4690461E46054690
S214002F5098B390F8343093B3B1F5801F31D21A4C41
S214002F60022123F00AFE2246394628460DF10F03B9
S214002F70FEF732FF024678B10123424600933946F7
S214002F8033462846FFF77CFF0446E86B23F0DEFF57
S214002F90204604B0BDE8F0819DF80F30012BEBD140
S214002FA02169B142E8D10093414633462846FFF7EF
S214002FB0DFF904460028DFD1E7E72124E8E71124FB
S214002FC0E6E72924E4E700BFAC1C002030B50C4639
S214002FD0054685B028B390F8343023B3B1F5801F8A
S214002FE023D2022123F0C9FD0DF10F032146284606
S214002FF00F4AFEF7F1FE034688B99DF80F20032A14
S2140030000DD003222146009202462846FFF738FFDD
S2140030100446E86B23F09AFF204605B030BD2D2409
S214003020F7E72124F8E71124F6E72924F4E700BFA0
S214003030AC1C00202DE9F043466886B30568984628
S2140030404FF0000CA946AE4655F83C400CF1010C7A
S214003050C4F31307013401D0B94217D066450EF108
S214003060080EF1D12F46002403E0A64207F1080718
S21400307012D055F8343001340133F6D1C1F31301C0
S21400308041EA0851C7E90012BDE8F08341EA085159
S214003090CEE90012BDE8F083B8F1030F03D1012397
S2140030A00372BDE8F083002303E09E4209F108099D
S2140030B0F5D055F833400133C4F30754032CF4D14C
S2140030C0C1F3130343EA0853C9E90032BDE8F083AD
S2140030D02DE9F0410646406882B0C0B10F469046E2
S2140030E00024336853F8345003EBC403C5F3075287
S2140030F0C5F31301013504F1010406D05B683046C0
S214003100CDF80080B84710B170688442E9D302B0A9
S214003110BDE8F081024B1968024B1868FFF7EEBC59
S214003120583000207830002008B535F00AFC014BF6
S214003130186008BDD81C0020014B186835F0FCBB91
S214003140D81C002073B504462248012A00EAC111A3
S2140031509DF8185023F07C4007D9961E012E28D9DA
S214003160073303F07F03194308E09DF81C300A4339
S214003170DB0603F0C053134343F060410023C4E969
S21400318000108DF80730B5B1202221460DF107005A
S21400319024F0E1F91A220DF10700211D24F0DBF9D5
S2140031A0082063689DF8072043EA8263636002B0E4
S2140031B070BD1143E2E71B220DF10700214624F003
S2140031C0CAF923689DF80720042043EAC2632360F7
S2140031D0EDE700BF80FFFF0738B5094B0D461A68BC
S2140031E00021044626F033FB00234FF0FF322383F2
S2140031F0C4E900252361A260E382A37638BD00BF40
S2140032006C9003000138C0B205289ABF014B185CC9
S21400321001207047719003002DE9F04107461546DE
S21400322000240E46596888B0490A012922464FEA0A
S214003230510104F10104F8D8DC78997824031B883E
S214003240C90201F4006104F480540C43C3F30A037A
S2140032505203234492B24FF000089C18274B6FEAA3
S2140032600444039325F07843ED4302A90DF10700CB
S2140032701B2202938DF8078024F06DF99DF8072035
S214003280029B02A943EAC2630DF107001B2225F048
S2140032907845049302958DF8078024F05CF99DF834
S2140032A00720029B6FEA144443EAC26305934FF07B
S2140032B0FF330794069307A9BB69012206F11000A5
S2140032C09847BB6905A90446012206F108009847FD
S2140032D0BB69404518BF044604A90122301D984723
S2140032E00122404518BF0446BB69304603A99847EB
S2140032F0404508BF204608B0BDE8F08101009AB2FC
S21400330038B504460D4635F025FBA3889BB223B995
S2140033102B6035F01AFB064838BD142263889BB232
S21400332002FB034408342C6035F00FFB0020F3E763
S2140033300B7000F038B141B1013AB2F5006F0448A5
S21400334038BF00207047034870470148704700BFE9
S214003350037000F0027000F0104930B50A78104B88
S2140033602AB9C3E90022C3E9022201220A700C49E5
S21400337000220C4654F8045B854208D00132042A29
S214003380F8D1002251F8044B1CB943F82200002063
S21400339030BD0132042AF5D10248F9E7C12C0020DD
S2140033A0DC1C0020027000F0002313B51D4A52F802
S2140033B0044B94F8211081420ED00133042BF6D131
S2140033C002B010BD0028FBD19DF80730002BF7D0C7
S2140033D0A068FEF765FBF3E794F83530022BEFD1D3
S2140033E0204624F03DF9637E2076022BE8D194F83F
S2140033F0323003F0FF02002BE2D1A0680DF1070186
S2140034008DF8072034F0A2F9237E1BB194F83330F0
S214003410002BD7D00023A06884F83330FEF760FB7B
S214003420CEE700BFDC1C002010B50446FEF704FB08
S214003430002104F10800FEF7CFFA014608B104485F
S21400344010BD04F10C00FEF7C7FA0028F8D0F6E726
S2140034500E7000F0F8B5044616460F4635F07AFAB8
S214003460A388E2889BB29A42054605D800233360BB
S21400347035F06BFA1748F8BD1422238807F1100CB4
S2140034809BB202FB03433A460833174603CF674511
S214003490186059603A4603F10803F6D114223868DA
S2140034A01860238828469BB202FB03430833336028
S2140034B02388E2889BB20133B3FBF2F102FB11339F
S2140034C09BB22380A38801339BB2A38035F03DFADC
S2140034D00020D0E70A7000F008B590F8363083B9BF
S2140034E0042203685A619A699207FCD541F21C626D
S2140034F0102103795B0103F1A04303F57033995063
S21400350008BD022BFCD10068036CDB074CBF05210D
S214003510062124F0BEF90222014BC3F8C020EFE7D3
S21400352000D40350012370B580F8303090F8363060
S21400353004460E4686B0A3B905682435204624F016
S214003540E3F80D4B049403930023029373680193EE
S2140035500123009332682B466169E06823F098FAED
S21400356007E0022B02D105683435E7E7002380F830
S214003570303006B070BD00BFB53B000001232DE91A
S214003580F04180F8313090F8363004460E4688B068
S21400359063BB256835F0DEF904F13C0807460DF1FB
S2140035A01F0140463C3534F0F5FD40B99DF81F300C
S2140035B02BB1404634F0C2FD204635F0E4F93846DB
S2140035C0012735F0C2F92046E76524F09DF80B4B3D
S2140035D0049403930023029373682A46CDE900738C
S2140035E033682169A06823F039FA04E0022BD0D0B2
S2140035F0002380F8313008B0BDE8F08101360000C5
S2140036002DE9FF41D06A03A91446FFF779FE064666
S214003610204635F0A5F9002501462346CDE900559C
S214003620184A04F13C0035F074FA174B9E4221D03C
S214003630039E3561B56035F08DF9D6F80C800746E7
S214003640B8F1000F04D0D6E9002329462046C0472B
S214003650E06A03A924F071F8E06A83889BB26BB134
S21400366003A9FFF74DFE20460399FFF787FF38466C
S21400367035F06BF9012004B0BDE8F08184F83130F4
S214003680F5E700BFDD7703000B7000F0F7B50D46D9
S2140036900446002800F0848035F05CF9012D0646CB
S2140036A00AD1E36A9B889BB2002B3ED1304635F0A8
S2140036B04CF93C4803B0F0BD022D2ED1A36A9B887E
S2140036C09BB2002BF2D0E06834F020F80023A06A0A
S2140036D084F8303083889BB2002B4DD001A9FFF7C9
S2140036E00FFE019DE06805F1080134F055F82E4BF9
S2140036F02B61A06A83889BB2002B3DD001A924F0E1
S2140037001CF8019AD568002DF3D0516893682046BE
S214003710CB1A12682449A847EBE7032D2CD1E36A9D
S2140037209B889BB20BB9A36ABCE7A06833F0EEFF98
S2140037300023E06A84F8313083889BB273B101A914
S214003740FFF7DEFD019FA06807F1080134F024F8BA
S214003750154B3B61E06A83889BB293B9204624F000
S2140037600FF88304FAD5A36B002B02DD204635F054
S2140037700AF9023D012DA6D9304635F0E6F80020BC
S21400378098E701A923F0D9FF019AD768002FE1D066
S214003790516893682046CB1A12680349B847D9E7A0
S2140037A0024887E7087000F0097000F0027000F029
S2140037B02DE9F04104461746FFF7BCFD884606464D
S2140037C0E8B9152001F092FF0546E26A93889BB29D
S2140037D013B194F83230ABB194F83630BBB92368E5
S2140037E09D6915F0020527D0012384F8343047443C
S2140037F0B84520683ED183699B06FCD545B3304664
S214003800BDE8F081002DE1D0FEF78AF9DDE7022B56
S21400381012D123681D6C15F002050DD0012384F823
S21400382034304744474520682BD142F22002036CCF
S21400383032EA0303FBD1E1E72046FFF74DFE012302
S21400384094F8365084F83430002DD0D0022D16D09F
S21400385094F83630D3B1022BD1D12068016C11F028
S214003860010118BF092124F014F802220E4BC3F8F8
S214003870C020C4E718F8011B24F05AF8B8E7002562
S214003880CFE718F8011B24F026F8CBE742F21C62BB
S214003890102123795B0103F1A04303F5703399509F
S2140038A0082223685A61AAE700E4035010B50446CC
S2140038B080B190F832302BB923F0D2FE10B9A06850
S2140038C0FEF7EEF8002094F832300133DBB284F8CD
S2140038D0323010BD0048FCE7027000F010B5044618
S2140038E0A0B190F832309BB190F83230012B05D160
S2140038F023F0B6FE10B9A068FEF7F2F8002094F8A0
S2140039003230013BDBB284F8323010BD0148FCE7B0
S2140039100148FAE7027000F0057000F030B50025A7
S214003920437F85B08DF8083090F821300446042295
S2140039308DF80930039303A9064B009502A8FDF7FE
S21400394025FF4FF4007320462383A57623F028FF37
S21400395005B030BDA93300002DE9F04105466E4F95
S21400396088B001AE0C460FCF0FC697E8070086E872
S2140039700700002D00F0CE8024B9684E304608B00F
S214003980BDE8F08164220021284625F060FF284625
S214003990FFF7E2FC06460028F0D1237D85F8353097
S2140039A0236885F836002B60227B2A710122EA659F
S2140039B05B4A61689342296600F0A18002F5804266
S2140039C09342DAD14FF4A0235648574A0026C5E959
S2140039D00423D4E907236862AA621680568096807C
S2140039E085F83060EB621E805E809E80E38985F8F5
S2140039F03160ADF81430238A85F83360ADF81230A4
S214003A00A37C4A488DF81030E37C03918DF816307D
S214003A1005238DF8113034F0E3FF6B6ADFF81C8164
S214003A20986834F0DDFF206801A98DF8046001F085
S214003A3077FB1422237B08EB4313C3F81C26267A55
S214003A40A07A46EA0042C3F83426617AE27A41EA6E
S214003A500247C3F82C76EE76E877297785F820209B
S214003A60637D01216B77A37D284685F82130E37DB1
S214003A70AB77237E85F8223023F08BFD06460028A0
S214003A807FF47CAF34F066FF237D0746032B3BD1E3
S214003A9041F21C620221237B08EB431848F802100F
S214003AA0042122685B0102F58052D165217EE27D09
S214003AB003F1A04342EA014203F57433C3F8282613
S214003AC0A17D627D42EA0142C3F824264FF0FF3210
S214003AD0206800F500539A64237D032B0CBF052154
S214003AE0042123F016FF4FF44062236828465A61EB
S214003AF0FFF79AFC0646384634F027FF3EE74FF4B9
S214003B0080230B480B4A61E7022BDFD12846FFF7DC
S214003B1005FFDBE7084E31E778900300037000F0FE
S214003B2000C00550F890030002000500F490030062
S214003B301891030002000400027000F000C0035059
S214003B4090F83530032B05D00229417618BF017650
S214003B5023F026BE00487047057000F0F0B587B029
S214003B6005461646FFF7E6FB0446F0B90493104BED
S214003B70CDE901166A46A86A01A903960593FFF7E0
S214003B8069FC044688B995F8303073B9284623F0A6
S214003B9080FD28460099FFF7C5FC95F83530032BC5
S214003BA003D028462C7623F0FBFD204607B0F0BD58
S214003BB0017000F0F7B5906A01A91446FFF7A0FB64
S214003BC00546204634F0DFFE384B9D4230D094F850
S214003BD03610019D002939D123689A6C12F40072C0
S214003BE029D0334AA9602A614FF4007203F50053C6
S214003BF09A6434F0AFFEEF68064637B16A68AB6881
S214003C002046D31A29692A68B847A06A01A923F072
S214003C1094FDA06A8588ADB2002D37D001A9FFF7C4
S214003C206FFB20460199FFF77DFC304634F08DFE91
S214003C30012003B0F0BD996CC80523D51D49AA60C4
S214003C4029614FF4807203F50053D1E7022919D198
S214003C5023685A6C12F4007209D0154A03F5005313
S214003C602A610022AA604FF400725A64C1E7596CB8
S214003C70C90507D50F49AA6029614FF4807203F57C
S214003C800053F2E700232B61AB60B2E70123204626
S214003C90237623F085FD94F8353084F83050032BD6
S214003CA0C3D0204623F014FDBFE700BF0B7000F022
S214003CB00D7000F00C7000F0F0B587B004461646A4
S214003CC0FFF738FB054658BB0493194BCDE90116A0
S214003CD0059394F8363003962BBB23689B6903F054
S214003CE0020313B92046FFF7F7FB6A46E06A01A90C
S214003CF0FFF7B0FB054698B994F8313083B934F035
S214003D0029FEE36A06469B889BB233B1204600999B
S214003D10FFF734FC012384F83430304634F015FEC7
S214003D20284607B0F0BD022BDCD123681B6CD6E713
S214003D30017000F0044BD3F88420D206FBD4D3F8ED
S214003D408400C0F3811070470040005038B5184B0F
S214003D500546D3F824010C4600F00700062823D8B1
S214003D60DFE800F0040A121A1E0E1600012305B141
S214003D70286004B1236038BD33F06EFC0523F6E7F7
S214003D8033F06AFC0623F2E733F0A6FC0323EEE7E3
S214003D9033F0A2FC0423EAE733F09AFC0223E6E7BA
S214003DA033F0A0FC0723E2E700231846DFE700BF56
S214003DB00080005038B5104B0546D3F800310C464D
S214003DC003F00303022B0BD0032B0DD0012B0FD1D6
S214003DD033F082FC032305B1286004B1236038BDAC
S214003DE033F084FC0823F6E733F07CFC0723F2E785
S214003DF001230020EFE700BF0080005038B5104BCD
S214003E000546D3F820310C4603F00303022B0BD0F3
S214003E10032B0DD0012B0FD133F01EFC052305B16B
S214003E20286004B1236038BD33F056FC0323F6E760
S214003E3033F04EFC0223F2E701230020EFE700BF39
S214003E400080005038B5104B0546D3F840310C467C
S214003E5003F00303022B0BD0032B0DD0012B0FD145
S214003E6034F064FD092305B1286004B1236038BD31
S214003E7033F03CFC0823F6E734F05BFD0B23F2E757
S214003E8001230020EFE700BF0080005038B5104B3C
S214003E900546D3F860310C4603F00303022B0BD023
S214003EA0032B0DD0012B0FD134F040FD092305B1B3
S214003EB0286004B1236038BD33F018FC0823F6E709
S214003EC034F037FD0B23F2E701230020EFE700BFB5
S214003ED0008000503C4B984272D02AD83B4B984208
S214003EE06BD014D83A4B984264D00AD8394B9842D3
S214003EF043D0394B984240D0384B98423DD00020B2
S214003F007047374B9842FAD1364B586E7047364B4F
S214003F10984235D003F5371303F5D863984232D06C
S214003F20A3F5B703A3F558639842E8D12D4B186F55
S214003F3070472E4B984231D00FD82D4B984225D043
S214003F402C4B984226D0A3F53703A3F5D8539842B6
S214003F50D5D1244BD3F880007047274B984221D008
S214003F6003F5740303F5105398421FD0234B984271
S214003F70C5D11C4BD3F8900070471A4B986D70470C
S214003F80184B586F7047174B986F7047154BD3F800
S214003F9084007047134BD3F888007047114BD3F852
S214003FA08C0070470F4BD3F8940070470D4BD3F836
S214003FB0980070470B4BD86D70470A4B986E704749
S214003FC0084BD86F704700BF002D310180969800CF
S214003FD0404B4C0080841E0000093D0040420F000C
S214003FE0C0CF6A000080E00F0024F400006CDC0202
S214003FF00048E80180D543020090D003007E5603B7
S21400400073B50D4600210E4B0191D3F8804106464C
S21400401004F00304012C09D0022C0CD00C460EB17F
S214004020019B336005B12C6002B070BD01A8FFF79C
S214004030E5FE0F24F3E733F04BFB0190EFE700BFFC
S2140040400080005038B5104B0546D3F840320C4679
S21400405003F00303022B0BD0032B0DD0012B0FD143
S21400406034F064FC092305B1286004B1236038BD30
S21400407033F03CFB0823F6E734F05BFC0B23F2E757
S21400408000231846EFE700BF0080005038B5144BF9
S2140040900546D3F800020C4600F0070004281BD89B
S2140040A0DFE800F003090D111500012305B12860B3
S2140040B004B1236038BD34F039FC0923F6E733F049
S2140040C015FB0823F2E734F034FC0B23EEE733F05D
S2140040D0E9FA0E23800AE9E700231846E6E700BF60
S2140040E00080005010B40D4C0B46D4F8204204F06B
S2140040F00304012C0AD0022C0CD008B10021016068
S2140041000BB100221A605DF8044B70475DF8044B53
S214004110FFF774BE5DF8044BFFF794BE00800050B6
S214004120B0F5207F1FD009D8B0F5007F15D003D892
S21400413068B1B0F5C07F0AD000200CE0B0F5607F13
S214004140FAD10B4BD3F88000C0F3011003E0084B04
S214004150186FC0F3033001307047054BD3F890005A
S214004160C0F30460F7E7024B186FC0F38020F2E755
S214004170008000504FF400320E4B014610B5002070
S2140041809A66FFF7CDFF484341F671320A490B4B5A
S214004190884294BF00200120DC69DA639A6822F422
S2140041A0401242EA00529A60E20344BF0022DA63F9
S2140041B010BD00BF00900050005A6202000003507D
S2140041C0420910B50FD0012A0FD00A4B0A4C022A1A
S2140041D018BF234600F01F0049B103F580530122A3
S2140041E082401A6010BD1346F4E7044BF2E703F56D
S2140041F00053F4E7688000506082005064800050EE
S2140042001FB50021B0F5807F0446019100F00681BD
S21400421000F29D80612800F295801F2805D80028AE
S21400422040F0928033F03EFADCE0A0F12004412C0E
S21400423000F28A8001A353F824F000BF2542000054
S214004240E943000025420000E9430000094400005D
S214004250094400000944000009440000E943000046
S214004260E9430000C34300007D4300003F440000D4
S214004270494400007D430000E9430000E943000094
S214004280E943000049430000494300004943000059
S214004290494300004943000049430000134400001E
S2140042A09F430000E9430000E9430000E9430000A3
S2140042B05D44000053440000E94300004943000009
S2140042C049430000494300004943000049430000B9
S2140042D049430000494300004943000049430000A9
S2140042E04943000049430000494300004943000099
S2140042F025420000494300002542000025420000F8
S21400430025420000094400004943000049430000DC
S2140043104943000049430000494300004943000068
S2140043204943000049430000494300004943000058
S214004330494300004943000049430000254200006D
S2140043402542000080284BD0019804B010BDB0F57F
S214004350A06F5ED028D8B0F5607F50D019D8B0F5E1
S214004360007F4CD004D8B0F5C07F3FF45BAFEBE7DE
S214004370B0F5207F38D0B0F5407FE5D133F092F924
S21400438002464FF42070FFF7CBFEB2FBF0F2520865
S21400439033E0B0F5806F37D0B0F5906FD4D1002100
S2140043A001A8FFF7D3FCCFE7B0F5E06F51D00DD8EA
S2140043B0B0F5C06F43D0B0F5D06F45D0B0F5B06F54
S2140043C0C2D1002101A8FFF71BFEBDE7B0F5F06FD4
S2140043D044D0B0F5086FB7D101A8FFF7EBFCB3E700
S2140043E033F040F90190AFE733F05CF902464FF442
S2140043F02070FFF795FEB2FBF0F20192A4E733F0CF
S21400440031F902462046F4E7002101A8FFF7F6FC42
S2140044109AE7002101A8FFF765FE95E74FF0E02335
S21400442002911B695B0705D533F03CF90290029BAD
S214004430019389E703A902A8FFF704FDF7E7002127
S21400444001A8FFF7FFFC7FE7002101A8FFF71EFE8B
S2140044507AE7002101A8FFF7F5FD75E7002101A81E
S214004460FFF714FD70E700BF08B58020FFF7C8FE11
S214004470034B98429EBF4FF48032024B1A6708BD2A
S214004480005A620200A000501FB503460020B3F594
S214004490807F01906FD027D8382B00F082800BD811
S2140044A0243B092B0FD8092B0DD8DFE803F05F5FFC
S2140044B05F5F0C0C5A0C3675522B57D007D83D2B25
S2140044C03AD03E2B72D0019805B05DF804FB802BE5
S2140044D0F9D1394B1B6F03F00703013B032BF2D8CE
S2140044E0DFE803F03D36393BB3F5D06F54D019D82A
S2140044F0B3F5A06F55D00AD8B3F5806F36D0B3F5B4
S214004500906FE0D1002001A9FFF720FCDBE7B3F5B0
S214004510B06F26D0B3F5C06FD5D1002001A9FFF744
S21400452091FCD0E7B3F5006FECD00AD8B3F5E06F96
S2140045303CD0B3F5F06FC6D1002001A9FFF7A6FC6A
S214004540C1E7B3F5086FBED101A9FFF733FCBAE7A0
S21400455005230193B7E70323FBE70723F9E70223C5
S214004560F7E7002001A9FFF74BFDACE7002001A903
S214004570FFF744FCA7E74FF0E02302901B695B07B8
S21400458005D533F08FF80C230393039BE1E703A9CB
S21400459002A8FFF757FCF8E7002001A9FFF776FD11
S2140045A091E7002001A9FFF79DFD8CE7002001A9F7
S2140045B0FFF748FD87E700BF008000504FF48032C9
S2140045C0074B0849586E03F580535A660B6A23F06A
S2140045D001030B62C3035CBF034B5A66704700BF00
S2140045E00080005000C0075000A0005008B5FFF73C
S2140045F04BFF082811D00938012802D94FF6FF7062
S21400460008BD4FF40012064B5A6603F5D8335B6AB2
S214004610DB07F3D54FF4FA70F2E7024B1888EFE7A2
S21400462000900050D632002008B5FFF72DFF032873
S2140046300ABF024B4FF6FF70188808BDD432002020
S214004640F8B504468020FFF71FFF032800F0878098
S2140046504FF40022424B02215A6645F60E03414AA9
S214004660C2F88030404B9962012103F5805399626D
S214004670936DD903FCD4D4E900131B0543EA016308
S214004680E17B94F820500B43217BE77E43EA01430D
S214004690617B6D0143EA0133A17B43EA8113136119
S2140046A09169D4E904031B0643EA806301F00041E4
S2140046B00B43A17E94F823000B43217E43EA01437B
S2140046C0617E43EA01239361136AE66923F00D03D2
S2140046D094F8221043EA8703002E2DD11362966ABF
S2140046E094F8213045EA031326F033052B4343F0B4
S2140046F0010393621D4D1B4B9A6D35EA0202FBD1F6
S2140047000222194DAA621A659A6D5200FCD41A69E3
S214004710A56822F4700242EA05521A614FF0004280
S214004720114B9A6119B9022203F580539A6278B93F
S21400473001220F4B9A620BE0334343F008031362E7
S214004740936A23F0330303432B4343EA4103936204
S21400475094F824301BB1034B064AC3F88020F8BDFA
S2140047600090005000C0005000D0005003000140F0
S21400477000E00050F1A7FFFF014B93F900007047DF
S214004780C32C0020014B1880704700BFD432002095
S2140047904FF4001208B5184B5A660223174A5360A6
S2140047A0936813F48033FBD1012822D132F094FFB2
S2140047B0134B984215D003F5122303F5F86398427D
S2140047C013D0104B00EB8002400AB3FBF0F3520A02
S2140047D00A49CA620B6301234B620022074B5A60E8
S2140047E008BD45F67A13084AF2E745F61A03074A63
S2140047F0EEE75362F1E700BF009000500040025021
S21400480000F0490264666666D8B80500BBCF0500AE
S214004810B0F5207F10B50C4642D008D8B0F5007F22
S21400482033D003D888B1B0F5C07F0ED010BDB0F538
S214004830607FFBD11F4A4C1ED2F8803023F0300335
S21400484043EA0413C2F88030F0E722F0E5FF22F0D6
S214004850F1FF4FF48031184B164A1967136F013C6D
S21400486023F4704343EA0433136732F01BFF044615
S214004870FFF760FAC0F10201204622F0D5FF00F0F3
S21400488035F8BDE81040FFF7EFBD0A4A4C1ED2F8D7
S214004890903023F0F85343EA0463C2F89030C5E73B
S2140048A0044A4C1E136F23F4806343EA8423136781
S2140048B0BCE700BF008000500090005008B5012102
S2140048C0022000F055F94FF42070FFF729FC054B45
S2140048D0187022F0A1FF22F0ADFF4FF48032024B99
S2140048E01A6708BDC22C00200090005008B54FF48F
S2140048F0C070FFF785FCBDE808400449884294BFB5
S214004900012102214FF42070FFF782BF80F0FA02E7
S21400491038B5044632F0C6FE0546FFF70BFAC0F17E
S2140049200201284622F080FF0121002000F060F9F5
S2140049302CB1FFF7DBFFBDE83840FFF795BD034B12
S2140049404FF420701978FFF763FFF4E7C22C0020BD
S2140049504FF4C02270B50546FFF7BCFA314B04464B
S2140049605A6603F598335A68012A04D12E494A60DC
S2140049709A699207FCD18020FFF786FD052807D1AB
S21400498022F04AFF22F056FF4FF48032254B1A677A
S214004990264B24F040749D4230D0254B9D4230D0AB
S2140049A032F05AFE8542064603D90121284600F019
S2140049B01FF9204BDA6812F0060FFBD199689C604D
S2140049C09A68624012F4F81F1ED12846FCF7ECFBEA
S2140049D08020FFF759FD05280DD132F063FE04460E
S2140049E0FFF7A8F9C0F10201204622F01DFFFFF7ED
S2140049F07DFFFFF739FDAE420CD270BD44F0007467
S214004A00CEE744F08074CBE780209960FFF73CFD4A
S214004A10052805D0BDE870400121002000F0E8B868
S214004A203546DAE70090005000E0015040420F00A3
S214004A3080841E000000015010B5224B70B94FF460
S214004A400031214A1860516602F598325268012AF0
S214004A5003D11E4AD2F800211A6010BD1B68002B35
S214004A60FBD01B4A5268012AF7D0184A8020C2F8A9
S214004A700031FFF709FD05281FD14FF4C070FFF77E
S214004A804FFB0128044604D102214FF4C070FFF703
S214004A90BFFE07220F4B1A610122A3F580535A600E
S214004AA00B4A1369DB07FCD5012CD6D12146BDE89D
S214004AB010404FF4C070FFF7ABBE0122064B5A60A1
S214004AC0CBE700BFEC1C0020009000500080005098
S214004AD000C0015000E0015000D00150044A417867
S214004AE0536F23F4407343EA01235367704700BFB4
S214004AF00040005010B5044610B10020FFF79CFFA0
S214004B00124A136943F00403136133F015FA22F0D6
S214004B1096FE0F4B5B6E5B0142BF0E4B0E4AC3F810
S214004B20202433F00EFF34F09BF933F005FF22F01B
S214004B3087FE01F07BF81CB9BDE8104032F0B2BD2C
S214004B400120BDE81040FFF777BF00BF00ED00E092
S214004B500080005000E003500000FF0F034A017978
S214004B60D36E23F030030B43D366704700400050EB
S214004B70F8B504461C4BD3F88420D106FBD4D3F8F2
S214004B808430C3F381139C422CD032F06BFD012C91
S214004B90064602D1214622F047FE33F0D2FE4FF001
S214004BA00072124B07465A66204622F050FE4FF41B
S214004BB080630D4D621E93402B676B6E9A0103D483
S214004BC0D5F884309B060AD5384633F0B5FE022C5D
S214004BD008D13046BDE8F840002122F025BED5F8C1
S214004BE08430EAE7F8BD00BF004000500060005087
S214004BF010B50C4608B932F035FD074B21461B7838
S214004C003BB1064B984204D80120BDE81040FFF7A0
S214004C10AFBF0220F9E700BFC42C0020005A620292
S214004C200278034B012100201A70FFF7E1BF00BF96
S214004C30C42C00204FF0004238B5264B26495A6651
S214004C4001224A604AF6CD3103F50B235D6C1964E8
S214004C50154030BB9968C9070BD4002401221F4BAE
S214004C605A6015B11E4B1F4A1A6431F0AEFD20463D
S214004C7038BD1A498A601C4AD96ACC0705D49042C6
S214004C8001D10724EAE70130F6E79042E5D1F8E7DC
S214004C900132DC6A14F0080406D08A42F8D10724F0
S214004CA0DFE700221049F4E78A42F8D020220B4BB7
S214004CB00B495A620122A3F580539A6023460A4A9A
S214004CC0486A800603D49342E9D00133F8E793425A
S214004CD0C7D1E4E70090005000500950006009502A
S214004CE0004009503254FFFF40420F004FF0004290
S214004CF038B5174B174C5A66012203F50C235A6039
S214004D004AF6CD33656C2364437893401343124AC6
S214004D10D363C3788178A2689B0043EA011322F02C
S214004D2074021343A3600279837943EA0223236162
S214004D304279C37943EA022363610078FFF77AFF7A
S214004D40EB0744BF054B236431F03FFD012038BD1F
S214004D500090005000400950004000503254FFFFC1
S214004D60044A054B002908BF1346012282401A60F8
S214004D70704700BF401004504020045010B5012179
S214004D8004462020FFF71CFA01212120FFF718FA1D
S214004D900122114B15205A60227812069A6061781B
S214004DA0A27842EA01429A61FF229A6200229A633E
S214004DB01A644FF000425A654FF0FF3203F5005375
S214004DC01A6500F0BDFC1520E17822F0FAFDBDE87A
S214004DD01040152000F06EBC00000450F8B5012508
S214004DE0C3B21E4FD1F800C09D408E7ACB7A0C46D7
S214004DF0097B3D6507F5005747F820C04FF0300C9B
S214004E000CFB00F01B05677B00F1A04043EA06435D
S214004E1000F5802043EA415322F003020766C3658B
S214004E20026733F097FD0E4B227A5D6502B11D6472
S214004E30627A02B19D632279A37943EA0243074A64
S214004E4093616179E37943EA014305498B61054B38
S214004E5055639D64BDE8F84033F077BD00200450EC
S214004E60001004500000045010B50124C0B2844065
S214004E7033F070FD044B5A6D22EA04025A659C62B8
S214004E80BDE8104033F061BD0000045070B5054623
S214004E9033F060FD3022084B5E6B02FB05335C6E20
S214004EA033F053FD0123EDB2AB4033420ABFC4F3E7
S214004EB00A100020013070BD000004504FF400328C
S214004EC0054B9A6641F6713203F51C33DA6301220C
S214004ED003F50053DA6070470090005041F67132D7
S214004EE00121064BDA6303F50052D1600022DA6333
S214004EF04FF40032A3F518339A667047000003504B
S214004F00CB784A7810B55B010C7843EA82030A79BD
S214004F10234343EA02130C22424302F1B0421363D6
S214004F20012C02BF8A78024B43F8202010BD00BF38
S214004F30E880035008B54FF0B0435A686AB958B1D4
S214004F405B680BB122F0CCFC01210D4B596022F0BE
S214004F50C7FC4FF0B043D96008BD5B680BB122F0C8
S214004F60BFFC0028F0D122F0BBFC4FF0B043022279
S214004F70DA6022F0B5FC0122024B5A60ECE700BF73
S214004F8000100058002000584FF0B0414B6810B594
S214004F900BB122F0A5FC01220B4BC4785A60837833
S214004FA0934043EA840344782343047943EA041392
S214004FB0447943EAC4038B60044B5A600378C3F118
S214004FC00203CB6010BD00BF002000580010005840
S214004FD04FF48032064B5A6603F5E6235B69C3F34B
S214004FE08512827003F03F021B0B427003707047FD
S214004FF000900050014B986CD96C70470080E00F11
S2140050000120034B9B680A3303F01F039840704748
S2140050100080E00F70B5054616461C4621B94FF4D1
S2140050202070FFF7EDF80146402C1BD003D8DCB10A
S214005030202C1BD070BD602CFCD1042303FB06F291
S214005040530803EB4113B3FBF2F36021084A203BFD
S21400505002EAC30305F50052916005F5805294609C
S214005060EB61E7E70623E9E71023E7E70823E5E730
S214005070F8FF7F00F8B5154E1C4615460E40FAB9E7
S214005080202B05D0402B1ED0002B0CBF1024402414
S214005090012306F580765E4300233246194602F069
S2140050A0A5FF02FB05F100FB04F704FB0311A2FBBE
S2140050B0040400233246214402F098FF3844F8BD29
S2140050C080240025E4E780240323E2E7F8FF7F003E
S2140050D0012200F580535A6040F6AA6341F20502A9
S2140050E0436100230B498360C365C26000F500522C
S2140050F00361C361C364916407498365884203D131
S21400510003650023436502E004498842F8D0012382
S21400511053607047FFFF010000C0055000000650B6
S21400512070B50D46FFF7D4FF012300F58056736077
S214005130AB7C04461BB1836843F080438360EB7C02
S2140051404BB1344A2B7D944243D1A2F51032C2F8BB
S2140051508C318023F3652A8A6B7B20461343EA89C9
S2140051601343E3602B7BD5E90112FFF753FF6B7DFA
S2140051701BB1A36843F48033A360AB7D1BB1A36867
S21400518043F40043A360EB7D2A7E1B07120502F45E
S214005190E00203F0E0431343A365697E1D4A8B1EBD
S2140051A0012B1D4B1FD894421BD002F5804294421F
S2140051B00CBF01224FF0FF3203EB4213022041F2F4
S2140051C01C620329985020D10423F3652B78636171
S2140051D070BD124A944204BFA2F52032C2F89C3138
S2140051E0B7E70022E8E794420DD00C4A94420CBF81
S2140051F001224FF0FF3203EB4213022042F21C6200
S21400520001299850DFE70022F5E7042204F5005351
S214005210DA65DBE700C0055000C00350000006500A
S214005220034BD3F82424D3F820041040704700BF63
S21400523000C003502DE9F8431E4B0546D3F8103343
S2140052404B1E0E2B0E46174690F8009044781DD93C
S21400525009B34FF000082846D7B133F0AEFB09EB90
S2140052604903072C4FF00F014FEA031315D8A4008B
S214005270114808FA04F2A140184422F05EFBBEB9B9
S21400528028468FB1BDE8F84333F097BB8846E2E77F
S21400529022F062FBE3E78846E1E7083CA400074803
S2140052A008FA04F2A140E7E7BDE8F84322F054BB51
S2140052B0BDE8F88300C0035004C003500CC0035080
S2140052C02DE9F0412B4B1746D3F810234A1C06460F
S2140052D00C46407804D1D3F8241422F04BFB044645
S2140052E0002C2FDB072C4FF0030532782DDC4FEA1D
S2140052F0840805FA08F529461F4802FA08F222F043
S2140053001CFB294672781D4802F0030202FA08F2D6
S21400531022F013FB012317F0050F194A18BF19498D
S21400532003FA04F30CBFC2F81034C1F8103417F0B7
S214005330060F18BF134AC2F814340123104AA340BC
S214005340C2F820342046BDE8F081A4F108084FEAF0
S214005350880805FA08F529460B4802FA08F222F0F2
S214005360ECFA7278294602F00302084802FA08F2BC
S214005370CEE700BF00C0035000C4035008C403506B
S21400538000E0035000D0035004C403500CC4035084
S2140053900A4B1B68C3F30743012B0ED1084B0420AE
S2140053A05A6E4FF480230749520358BF064A4B668D
S2140053B001F51041086258BF536670470080E00F41
S2140053C0008000500090005000A000504FF4803243
S2140053D0084B5A6603F5E6235B691A0B027003F066
S2140053E03F0242704FF6FF72C3F3851342808380FC
S2140053F0704700BF00900050014B986CD96C704706
S2140054000080E00F70B504460D4633F0A3FA1D2C5D
S214005410064608D80C2C0AD8082C2CD013D8BB2348
S214005420E340DB0718D4002321242B801EE0012351
S214005430174AA340134224D1122C26D00D2CF2D1A9
S2140054404FF4F06005E0092C18D00C2CEBD14FF48B
S214005450C060FFF7CBF802E08020FFF7E5F84FF6D4
S214005460FF7398420CBF0E2400242880304633F089
S2140054706CFA204670BD4FF48060EEE74FF4906003
S214005480EBE700230F242B80F0E74FF4E060E0E723
S2140054900080912030B58BB06C46544D0FCD0FC4B4
S2140054A00FCD0FC495E8030084E80300504BD3F8F3
S2140054B04C21120300F18380D3F85041E4B28DF8FA
S2140054C01940FFF759F9044484F3080449488DF855
S2140054D01840FBF76FFE6846FFF7B2F83220FFF77A
S2140054E051F94548FFF734FA444C454833F078FA0A
S2140054F00020FFF74DF9FFF7E1F9236F002023F0B6
S214005500070343F003032367FFF702FA236F3D49BF
S21400551023F4744323673C4BD3F8FC2012F08072CC
S21400552053D1C1F88020354BD3F8202122F0030256
S21400553042F00202C3F82021D3F8242122F0070209
S21400554042F00202C3F82421D3F8802122F003029D
S21400555042F00102C3F88021D3F8402122F0030272
S21400556042F00102C3F84021D3F8602122F0030282
S21400557042F00102C3F86021D3F8402222F0030271
S21400558042F00102C3F84022D3F8002222F00702BC
S21400559042F00102C3F80022D3F8202222F00302D0
S2140055A042F00102C3F82022FFF708F84FF0E0228D
S2140055B00020136943F0040313610BB030BD134B96
S2140055C01C88FF2C88BF8C2479E7D3F8FC2022F0B7
S2140055D08072C3F8FC200022C1F88020D3F8FC209B
S2140055E042F08072C3F8FC209DE700BFB490030031
S2140055F00080E00F00F0490200B4C40400800050B0
S214005600F09003000090005000ED00E00001E00F75
S21400561007B56B46054A1068516803C36846FFF72E
S21400562065FB002003B05DF804FB00BFDC900300C0
S2140056300028ACBF00F16040064B4FEA0111C9B22A
S214005640ABBF00F5614000F00F0080F8001319545E
S214005650704700BF14ED00E00028ABBF00F16040CB
S214005660054B00F5614000F00F00ACBF90F800035A
S214005670185C0009704700BF14ED00E008B533F071
S21400568069F90B4B1A7872B901221A7033F05DF97A
S2140056906FF0040210460132052152B2FFF7C8FF30
S2140056A0402AF7D108BDBDE8084033F04EB900BF28
S2140056B0C52C0020002807DB01234109034A00F01F
S2140056C01F00834042F82130704700BF00E100E031
S2140056D0054B421153F8223000F01F0023FA00F069
S2140056E0C04300F00100704700E100E0014608B545
S2140056F0EFF31083DB0702D50122104608BDFFF743
S214005700E7FF02460028F7D148B2FFF7A5FF01469B
S214005710EFF3118313B1B0EB131FEDD2074B5B68A9
S214005720C3F30803002BE8D0103B58B2FFF794FFF2
S214005730814234BF00220122DFE700BF00ED00E017
S214005740002808DB01224309034900F01F008240BD
S214005750603341F82320704700E100E013B5094CA0
S214005760684600F037F8237853B9DDE900010222D5
S214005770054B22F01CFC08B90123237002B010BDB3
S2140057801220FBE7C62C0020F01C002007B5009373
S21400579013460A460146034822F058F903B05DF85E
S2140057A004FB00BFF01C002013460A4601460148D1
S2140057B022F038BAF01C002007B5009313460A46BC
S2140057C00146034822F026FB03B05DF804FB00BF49
S2140057D0F01C00200249034A0160521A42607047DA
S2140057E01033002000800020BFF35F8F074B5A6AFB
S2140057F022F480325A62D3F8942022F00102C3F8D1
S2140058009420BFF34F8FBFF36F8F704700ED00E01B
S21400581038B5FFF7E9FF274A2748D2F8C030274DAA
S21400582023F0FF0343F0A003C2F8C030244B046803
S2140058309D4204F101011DD1224BC2F89840C2F8E6
S2140058409C3003F5FF437E33C2F8A0300160BFF3FF
S2140058505F8F0522174BC3F894205A6A42F48032B1
S2140058605A62BFF34F8FBFF36F8FBFF34F8FBFF3F5
S2140058706F8F38BD23F01F03203BB3F1005F09D3C1
S214005880C2F898400F4C43F00103C2F89C40C2F89F
S214005890A03001600C4B0168064A23F01F0343F05A
S2140058A00303C2F89810C2F89C30084B0131C2F8C6
S2140058B0A030CBE700ED00E0181D002040300020AF
