:020000040800F2
:10000000A80D0020716200083B4004083B40040832
:10001000CD6004083B4004083B4004083B40040812
:100020003B4004083B4004083B4004083B400408B4
:100030003B4004083B4004080D3904083B400408D9
:100040003B4004083B4004083B4004083B40040894
:100050003B4004083B4004083B4004083B40040884
:100060003B4004083B4004083B4004084D14010891
:10007000A18104083B4004083B4004083B400408BD
:100080003B4004083B4004083B4004083B40040854
:100090003B400408AD7000083B4004083B400408A6
:1000A0003B400408B96C0008996C00083B40040808
:1000B0003B400408A1F0020875F90208BD330508A9
:1000C000B9330508E9F00208D3330508C133050840
:1000D00045F90208C5330508B5F902081DFA0208FA
:1000E0003B4004083B4004083B4004083B400408F4
:1000F000755504083B4004083B4004083B40040895
:100100003B4004083B4004083B4004083B400408D3
:100110003B4004083B4004083B4004083B400408C3
:100120003B4004083B4004083B4004083B400408B3
:100130003B4004083B4004083B4004083B400408A3
:100140003B4004083B4004083B4004087159050843
:10015000B5DA02083B400408A7330508AD330508AB
:100160003B4004083B4004083B4004083B40040873
:10018000F0B5114A114C124E00F00105E3695F070A
:1001900013D40DB9334213D103EA00078F4207D1BC
:1001A0000B4A1A40002A0CBF00206FF00100F0BD7E
:1001B000013AEBD16FF00200F9E74FF0FF30F6E7BC
:1001C0006FF00100F3E700BF809698000000035035
:1001D000020001000B4B70B5D96911F480310DD1CB
:1001E00001244FF48072084E084DF46020462C64C0
:1001F0001A61FFF7C5FF3464EC6070BD6FF0010059
:10020000FBE700BF00000350001003500020035024
:100210004FF4803238B50E4B0E4C9A66E56941F6C4
:10022000713315400122E3630B4B0021DA60022396
:10023000606121202361FFF7A3FF10B92120FFF7A0
:100240009FFF0122054BDA600DB10023E36338BD47
:100250000090005000000350001003500020035095
:1002600070B5134C6061E3695B071ED40E4656F807
:10027000043B8D18A361AE420BD104230021212041
:100280002361FFF77DFF58B9BDE870402120FFF7DB
:1002900077BF08210846FFF773FF10B104232361DD
:1002A00070BD56F8043BA361E5E74FF0FF30F7E778
:1002B000000003502DE9F84315464FF48032184BE7
:1002C00089469A6603F51C33DF690646174041F6F6
:1002D0007132DA63012203F58053DFF84C80DA6073
:1002E00055B9284601220F4BDA601FB10022A3F551
:1002F0000053DA63BDE8F88306F5005404EA080405
:10030000A41BAC4228BF2C46494622463046FFF784
:10031000A7FF0028E6D12644A1442D1BE0E700BF3B
:10032000009000500020035000E0FFFF000000009C
:1003300000000000000000000000000000000000BD
:10034000013800D0FCE770472DE9F04F93B0CDE9BC
:100350000A32DDE91C530E9353EC102BCDE9080152
:10036000104619468DED060B1E9E11F0CBFE80B196
:10037000DDE906014FF0FF32C54B11F0EBFE40B94D
:10038000DDE906014FF0FF326FF4801311F0C4FE77
:1003900070B1DDE908019DED060B0E9B1E96CDE9BF
:1003A0001C53DDE90A3213B0BDE8F04F00F088B904
:1003B0000022DDE90601002311F0AEFE002800F066
:1003C0003381DDE906A303F1004BCBF30A5016F4A9
:1003D0008063A0F2FF3008BF06250F9311F0C0FB29
:1003E0009BA3D3E9002311F025FC9BA3D3E90023B1
:1003F00011F06AFACBF31304894644F07F5180462A
:100400000022A44B504641F4401111F05BFA94A332
:10041000D3E9002311F00EFC02460B464046494644
:1004200011F052FA11F0A0FE044611F099FB8EA3D0
:10043000D3E900238046894611F0FCFB0022964B4D
:1004400011F042FA11F090FE89A3D3E90023074688
:100450004946404611F0EEFB80463846894611F089
:100460007FFB85A3D3E9002311F0E4FB02460B4692
:100470004046494611F026FA02460B46CDE90C23C8
:1004800011F0D8FBDDE90C23804689461046194659
:1004900011F01AFA0022CDE91001804B404649467E
:1004A00011F0F2FC00227E4B11F00EFA02460B46D0
:1004B0004046494611F0E8FC00227A4B11F004FA5C
:1004C00002460B464046494611F0DEFCDDE90C23AE
:1004D0008046894600204FF0804111F0F3F9024632
:1004E0000B464046494611F0EFF902460B46DDE95E
:1004F000100111F0C9FC07F2FF3700226A4B11F01E
:10050000E3F900223B0511F095FB52465B4680461D
:10051000894611F01FFE002840F08980CDE90C8942
:1005200004F16303C72B34BF0427052731051BD50E
:1005300053A3D3E900235046594611F001FE002889
:100540007FD051A3D3E900235046594611F0E4FD72
:10055000002876D00027A542C6BF2C1B04F1FF352A
:1005600000253C4646F480660E9B9F422CBF4FF010
:100570000008A3EB070816F0020903D0002F18BFEC
:100580004FF000083CB1DDE90C235046594611F00C
:100590007BFC82468B46DDE906010022002311F038
:1005A000BBFD10B10BF100439B46DDE9080126F4C9
:1005B0000063CDE90183DDE90A324BEC10AB009515
:1005C00000F07EF802465FB3DDE9091316F0200F54
:1005D00000F10105089E0CBF65204520B047DDE90C
:1005E00008010523002205930A23002CCDE90232DD
:1005F00007F1FF374FEAD473B8BF64422A4601932C
:1006000004970A9B009445F0B6FE0246B9F1000F2C
:1006100006D00B9BC41A0B9B1A190E9BA34245D8FC
:10062000104613B0BDE8F08FDDE906ABCDE6002241
:10063000404649461A4B11F027FC013CCDE90C011C
:100640006EE7002D90D00F9B002B8DD0013D8BE7E6
:10065000FB799F501344D33FB3C8608B288AC63FB1
:1006600061436F63A787D23F71A379094F930A4013
:100670001655B5BBB16B0240EF39FAFE422EE63F8C
:100680002D431CEBE2361A3F0000000080842E410F
:10069000FFFFEF7F0000F83F0000E03F00002C402C
:1006A00000002440000018400000F03F2020DDE959
:1006B0000913089DA8470134ADE700BF0000000002
:1006C0002DE9F04F5BEC10AB97B0CDE90501DDE90A
:1006D0002057CDE90723504652465B465946229E95
:1006E00011F010FD70B90323CDE902760193B04BF0
:1006F0000093DDE90501DDE9072345F05CFD17B056
:10070000BDE8F08F4FF0FF326FF48013504659462A
:1007100011F002FD28B10423CDE902760193A54B27
:10072000E6E74FF0FF3250465946A34B11F012FD59
:1007300068B1A24A06F00403002B08BF0322A04BB5
:100740001CBF13460422CDE902760192D0E7504641
:1007500093A3D3E90023594611F0FCFC38B992A3C6
:10076000D3E900235046594611F0D6FC68B1DDE9C3
:100770000723DDE905014BEC10ABCDE9217620958F
:1007800017B0BDE8F04FFFF7DFBD00220023504651
:10079000594611F0C1FC002800F09A805B46524691
:1007A0000020002111F08EF8012382468B46099328
:1007B00016F4806400F08E80092D40F28E800024B3
:1007C00030210EABA5F109020134202C03F8011BE6
:1007D000A5EB040901D09442F6D15946504611F0D8
:1007E000C3FC784B054603EBC90393ED007B8DED0D
:1007F0000A7B11F0B5F902460B465046594611F0F6
:1008000061F8DDE90A2311F015FA02460B46CDE93D
:100810000C2311F0D1FC804611F092F902460B46F0
:10082000DDE90C0111F04EF802460B46CDE90C2330
:100830000022654B11F08EFC002851D008F1010810
:10084000404611F07DF902460B46DDE90A0111F040
:100850006DFC10B14FF000080135B9F1000F50D117
:10086000284611F07DF902460B465046594611F0D4
:1008700029F80022544B8046894611F04DFC30B1D6
:10088000002240464946504B11F064FC10B1E80785
:1008900000D501350A210EAB1A19202C0AD095FB80
:1008A000F1F001FB1055303502F8015B01340546CB
:1008B0000028F2D106F00302012A57D1002F55D0AB
:1008C000099A12B916F00C0F00D0013F302245E012
:1008D00009906DE74FF006097FE7A94600247CE701
:1008E0000022DDE90C01384B11F016FC0028B4D1D0
:1008F000B8F1000F02D018F0010FAED008F10108D6
:10090000ABE70A210EAB2344202C0ED0B8FBF1F04C
:1009100001FB1082B8F1090F02F1300209F1FF3931
:1009200004F1010403F8012B11D83021A1440EAACF
:10093000202CAFD0A14504F101030AD11C4609F1D6
:1009400058030DEB03092E2309F8203CA2E780464B
:10095000DAE7A1541C46EBE71A550134A74205D942
:10096000202CF9D1CDE902760194C1E6202CF9D0F2
:10097000099A3AB12D2104F158026A4402F8201C68
:100980000134EFE7710704D504F158022B216A44C2
:10099000F4E73207E6D504F1580220216A44EDE776
:1009A0000000000065CDCD410000000065CDCDC147
:1009B0009095050894950508FFFFEF7F879505083A
:1009C0008C950508A09505080000E03F0000000098
:1009D0002DE9F04F2DED028B002597B01D7003938C
:1009E000229B074607911D60002800F03C81437858
:1009F000047844EA0324837844EA0344C37844EA4D
:100A0000036463783F2B00F22E81AA4214BF0623B1
:100A100008238DF8243009230C958DF8263042796F
:100A2000037908469FEDA48B43EA02234A790434F4
:100A3000023292008DF825200AAA0092043B9BB254
:100A40002146007909AA8DED0A8B3AF051FA0A9BEA
:100A50000646049360B1049B23B10C991846C91A49
:100A600045F065FA304617B0BDEC028BBDE8F08F5B
:100A70000B98039DC01A40102870C0B200EB4000D4
:100A80008F49800052F0C7FC8346002800F0108197
:100A90002B788DED0E8B1096002B00F0FA803346EC
:100AA00002960299E279591A8A42B246B04600F299
:100AB000AC8004D202991144994218BF0F91002AC8
:100AC00040F0AD807A783B7894F802E043EA022364
:100AD000BA7894F803C043EA0243FA7808EB480175
:100AE00043EA026300220BEB810514925A781878CE
:100AF00085F802E085F803C002F00F03E2798DED7E
:100B0000128B6A7194F906202A710BF821000EAA43
:100B10006B70204612AB09A938F0CAF9814600284B
:100B20003BD01298149910B1091A45F000FA039BB2
:100B30001B78F3B100252C462E4604EB44040BEB46
:100B40008404627A207A40EA0220A27A40EA0240D3
:100B5000E27A50EA026000F0968045F0E6F9039BE5
:100B600001351B7826726672A672E672ECB29C4260
:100B7000E3D3584645F0D9F90023029A1099891A0F
:100B8000039A1370029B13B1184645F0D0F9049BE9
:100B90004E46002B7FF461AF64E7DDE91232D21AD2
:100BA000104647490693059252F035FCC0F3072CD6
:100BB00085F809C0C0F3074C85F80AC04FEA106CED
:100BC000069B287285F80BC0002865D0059A002A7C
:100BD00035D185F8069085F80790002B40D1049B0D
:100BE0000AF1010A33F81820E3795FFA8AF83344EE
:100BF000DEB2039B14441B7843453BD90F9B0299FB
:100C0000E279591A8A427FF654AF511A0EA838F089
:100C1000F1F80E9BE2790293002A3FF453AF079854
:100C20004378017841EA0321837841EA0341C3789C
:100C3000029841EA0361314447F03DFB42E719461F
:100C40000692059347F037FB069A1499059BAA7103
:100C5000C2F30722EA71C91A184645F068F9BEE7DF
:100C60001499C91AF8E70B26304617B0BDEC028B71
:100C7000BDE8F08F229B1099C3F800B0029BC91AFF
:100C8000002B81D183E70135ECB29C42FFF455AFD4
:100C90006FE7229B1860DEE63BB114991846C91A2B
:100CA00045F045F94FF0020941E74FF002093EE7F0
:100CB0000226D0E6AFF30080000000000000000034
:100CC000D82406080348044B834202D0034B03B1E7
:100CD000184770479899002098990020000000005C
:100CE000064B0749C91A891048BF0131491003D082
:100CF000044B0BB101481847704700BF989900207A
:100D0000989900200000000010B5064C237843B9E4
:100D1000FFF7D8FF044B13B10448AFF30080012361
:100D2000237010BDB476002000000000D02F06080C
:100D300008B5054B1BB105490548AFF30080BDE878
:100D40000840FFF7CDBF00BF00000000D014002016
:100D5000D02F0608A3F5803A704700BF174B002B31
:100D600008BF134B9D46FFF7F5FF00218B460F464A
:100D70001348144A121A47F0B8FA0E4B002B00D051
:100D800098470D4B002B00D098470020002104000D
:100D90000D000D48002802D00C48AFF3008011F080
:100DA000BBFD2000290047F0FDF911F005FC00BF54
:100DB000000008000000000000000000A80D002056
:100DC000A80D0020A09000200000000000000000FE
:100DD00013B5094C237863B9022304200093074A12
:100DE0004FF4805306490EF0DBF80028A4BF01231E
:100DF000237002B010BD00BFB6860020B57600207B
:100E0000C85C050830B5154B87B01B7805461446FD
:100E1000019103B342F05EFD4FF41B630D22CDF848
:100E20000D00CDF81110042002A902938DF80C508A
:100E30000EF08AF804220DEB020110460EF084F841
:100E4000019B21461A0202F4E062C3F30723042047
:100E50001A430EF079F807B030BD00BFB586002008
:100E600030B5144B05461B7885B003F0FF04F3B191
:100E7000FF2928BFFF210C4642F02CFD04F1090296
:100E800013029BB243EA122343F0807343F0B00392
:100E90000D22CDE900300291042069468DF80C4006
:100EA0000EF052F82246294604200EF04DF8204656
:100EB00005B030BDB58600200122014B1A70704785
:100EC000B58600201FB542F005FD084B0391CDE922
:100ED00001300C22042001A90EF036F804200EF097
:100EE00091F80028FAD105B05DF804FBB0080002C3
:100EF00037B504461AF06AF9054600284AD1A368B6
:100F000043F40033A36048F0B6FAA368244A43F4DC
:100F1000A013A360A261257745F03BF9A368A080E8
:100F20001B030CD4B0F5FA7F09D954F0D8FB01218A
:100F30000546084653F074FB284654F0CBFB204688
:100F40001AF06CF938BBE06838B31CF0C1F918F03E
:100F5000A7F918F0E3FF4BF0FEFA49F06EFE40F2FD
:100F60000443ADF80430FF2301A88DF8063013F0D8
:100F7000D7FC0022042011464AF056FD032104202C
:100F80001BF014FB0A2013F02FF91AF0FFF820468B
:100F900042F0B7FC002003B030BD0248D5E700BFE7
:100FA000050403001296002008B50449044825F002
:100FB00005F8BDE8084025F033B800BFD85C050847
:100FC0009C5D05084FF08052014B5A60704700BF8E
:100FD00000ED00E0F8B50E460546D0B1C9B10E4BA4
:100FE0000E4F1968386807F04FF8044678B90623A1
:100FF00032460B49386807F015F9044638B9012321
:101000002A460849386807F00DF900B12C702046CF
:10101000F8BD2124FBE700BF9C920020BC92002079
:101020002C0004003C00040007B5084B1878FF288A
:1010300002D024F0FBFA30B14FF6047301A8ADF8EA
:10104000043047F03BF803B05DF804FB2396002022
:1010500010B50D4C0D4805F04DFB23780BB124F075
:101060003FFBFF220A4B01211A700022094B22701C
:101070009A70152219705970DA701A7100F03EFBDF
:10108000BDE8104000F02CB9B7860020E81400201D
:1010900023960020B886002038B500F06BF904468E
:1010A00000F0BCF9C0B10E4D2B789BB90D4B1B78ED
:1010B000FF2B11D1032C11D80B4C2279E178A078A9
:1010C00024F0E4FA38B90121207824F0F5FA10B9B7
:1010D00001232B70002038BD0220FCE71D20FAE719
:1010E000B786002023960020B8860020F0B505467C
:1010F00085B00E4600F03EF95DB3194F3B78FF2BEB
:1011000029D1032829D8002342F21071154A164824
:10111000009305F00DFB0446A0B901460DF10F0345
:1011200000936A792B79286843EA022363F30F015D
:101130000E4B32461B7824F0EBF9044628B10A48DE
:1011400005F0D8FA204605B0F0BD9DF80F303B7091
:10115000F8E72224F6E70224F4E71D24F2E700BFB3
:101160002396002029100008E8140020B8860020EB
:10117000036837B523F47F43504A23F007039342B3
:10118000044621D009D8A2F5A022934217D002F537
:101190008022934273D003B030BD494A93424AD073
:1011A00002F57F029342F6D1464B1B78002BF2D01A
:1011B000454B1B78FF2BEED100F11E0369E003B015
:1011C000BDE83040FFF744BF3F4B017B1A789142A6
:1011D000E1D1C27A012ADED1FF223A4D3B481A7092
:1011E00005F088FA2B784BB124F07AFA08B34FF661
:1011F000047301A8ADF8043046F060FF607A227AEB
:10120000012342EA00226168207B00F077F830B1C8
:101210004FF6047301A8ADF8043046F04FFF0023E9
:101220008DF80430237B8DF8053001A846F046FF89
:10123000B1E72870E2E7244D80792B78834205D10D
:10124000224805F057FAFF232B70A4E700F0AAF814
:101250000028A0D0A07900F0CFF800289BD0A0797A
:1012600000F070F830B14FF6047301A8ADF8043007
:1012700046F024FF02238DF80430A379D3E7114B05
:101280001B78002B87D0104B1B78FF2B83D100F1EC
:10129000160394F90D20E17A601D42F03EFB002810
:1012A0003FF479AF11283FF476AF2D3801287FF64F
:1012B00072AF4FF60473ADF80430B6E7A000060035
:1012C000A0000601B786002023960020E814002025
:1012D000024B187880F00100704700BFB7860020ED
:1012E000FF22044B1A701A721A741A760022024BEB
:1012F0001A707047BD860020DD86002073B56C46ED
:1013000084E8060000220D4911F8326001EBC205A5
:10131000FF2E0ED101F832000098094AC5F80200EC
:1013200000206B70A388EB8013780133137002B038
:1013300070BD0132042AE7D11A20F8E7BD860020EB
:10134000DD8600200023094A12F83310814208D1BB
:10135000FF2102F83310064A00201378013B137076
:1013600070470133042BEFD12D207047BD8600203C
:10137000DD860020014B1878704700BFDD86002015
:10138000002210B5064911F83240D300844202D140
:10139000981C084410BD0132042AF4D10020F9E75A
:1013A000BD8600200023064A12F83310814204D083
:1013B0000133042BF8D1002070470120704700BF93
:1013C000BD86002070B5044680B10026094D15F891
:1013D000023CFF2B05D006222146284646F05BFF43
:1013E00030B10136042E05F10805F0D1002070BDA2
:1013F0000120FCE7BF86002001460022064B18783A
:10140000884202D15878012805D00132042A03F11C
:101410000803F4D100207047BD860020024B1888D5
:10142000003818BF01207047201500202DE9F04F2B
:101430008E4D90462E7893B0320789469A464FF0EB
:101440000004009035D4F30647D4F7074CD44FF08E
:10145000000B9AF800305F46013B0D9306F0040341
:1014600008932B7ACDE901BB00936B6809936B78E5
:1014700003F001030B9395F86430049395F86530FD
:101480000693069A049B13440C9395F85C300393DF
:1014900095F85D300593059A039B13440A9306F073
:1014A00002030F9306F02003079306F04003109306
:1014B0007BE04FF00804002705F1090B0622009994
:1014C0000BEB070046F0E7FE0028BCD006373C2FA8
:1014D000F4D1002013B0BDE8F08F95F8453044F00A
:1014E00010044B45F5D1B0E795F9023044F0010402
:1014F0004345ACDBEDE70AEB07035D7893F8029018
:101500000F9B002B36D0A9F10803012B32D8089A83
:10151000234644F002041ABB009BAB4230D2F81CB5
:10152000009A0999504446F0B6FE002808BF4FF0D3
:10153000010B079B002B00F08580B9F1210F40F0D3
:1015400081800A9B44F020049D42C2DD039B059AE2
:10155000D91903314648514446F09DFE10B3B8E70F
:1015600043F00604009BAB42E3D2009A6B1E934209
:10157000DFD1D4E7109B1BB1A9F10203012B2ED9B7
:101580003006D6D5A9F10603012BD2D84FF00008BA
:10159000BA1C44F080046B1E0E9298453DDB079BFD
:1015A000002B4FD101353D44EFB20D9B9F42A2DB92
:1015B00016F0060F02D0BBF1000F8AD0710602D5DB
:1015C000019B002B85D0320602D5029B002B80D0D8
:1015D000264BA4B21888031B584258417AE74FF0B3
:1015E00000086B1E0E9344F04004BB1C0E9A9045FD
:1015F0009FDA03EB0801013102221E485144119386
:1016000046F049FE0028019B08BF012308F10208AB
:1016100001935FFA88F8119BE8E711930E9B102263
:1016200003EB080101311448514446F034FE002810
:10163000029B08BF012308F1100802935FFA88F8A3
:10164000119BAAE70B9B002BACD0B9F1FF0FA9D1DE
:101650000C9B44F480749D427FF73BAF049B069A39
:10166000D91903310548514476E700BF2015002001
:1016700078150020661500206815002080150020D0
:10168000F8B506460D461746FFF722FEB8B1C6B1BB
:10169000284644F005FB0D4C6060A0B12A46314657
:1016A00046F055FE2378257243F0020323700FB9EC
:1016B0000020F8BD237843F004032370F8E70220EC
:1016C000F7E72120F5E71920F3E700BF20150020F8
:1016D00010B50446FFF7FCFD50B15CB10020228834
:1016E000054BA3F846201A7842F040021A7010BD4C
:1016F0000220FCE72120FAE72015002010B5FFF7B3
:10170000E7FDF0B1104C606818B144F0D6FB00233F
:101710006360A06D18B144F0D0FB0023A365206E78
:1017200018B144F0CAFB002323660020FE23A070FA
:10173000207284F84530A4F85C00A4F8640020808E
:1017400010BD0220FCE700BF2015002000234FF051
:10175000FF320449C818CA5006333C2B8280F9D1A5
:10176000FFF7CCBF29150020034A0449002808BF11
:101770001146022024F01AB9545E05084C5E050893
:1017800038B504460B4890F85823A2420FD00A4DB2
:101790000A49286843F02CFF42F02FFE42F02EFE4B
:1017A00022460749286843F023FF002038BDA0F5F2
:1017B0008050FBE788250020FC2900205C5E05089E
:1017C000615E05082DE9F04FFF28074688469346DD
:1017D0009A4689B000F09483002900F09383002B8F
:1017E00000F09083139B002B00F08C83129B002B46
:1017F00000F088839E4EDFF89C929E49306843F04B
:10180000F7FE09F5805542F0F8FD42F0F7FD3A4643
:101810009949306843F0ECFE95F85833FF2B1DD002
:101820009649306843F0E4FE42F0E7FD42F0E6FD01
:101830009349306843F0DCFE9049306843F0D8FEAD
:1018400042F0DBFD42F0DAFD3A468E49306843F063
:10185000CFFE1C24204609B0BDE8F08F41F2DC32F7
:101860000021484646F041FD4846002142F0B8F8C4
:101870004FF0FF33C5F8403317230024A5F8523347
:10188000B5F83C33214603F0F00343F4867340F689
:10189000980209F6A410A5F83C33C9F8A04946F00F
:1018A00024FD4922414605F2F22085F8544385F88B
:1018B000587346F04CFD95F800936E4995F8FE82FA
:1018C000306843F095FE42F098FD42F097FDCDF868
:1018D0000090434695F858236B49306843F088FEE2
:1018E00023462246694995F8580323F079FE0446B9
:1018F00098B16249306843F07BFE42F07EFD42F0D1
:101900007DFD634995F85823306843F071FE2D2121
:101910002246604801F09AFA9CE795F85C33ABB92F
:1019200095F8580323F00EFF044678B15349306808
:1019300043F05EFE42F061FD42F060FD564995F8CD
:101940005823306843F054FE2E21E1E7BBF8003005
:10195000524E474DA6F8513213F0FF0328682FD19D
:10196000444943F045FE42F048FD42F047FD96F8F9
:1019700058234B49286843F03BFE129B494AC6F85E
:101980006C33139B96F8511296F8F502C6F868A3CB
:10199000C6F8703338F0F6FE044600283AD03749CE
:1019A000286843F025FE42F028FD42F027FD23463B
:1019B0003D493A46286843F01BFE21243021A7E721
:1019C000012B0AD12B4943F013FE42F016FD42F0E1
:1019D00015FD96F858233549CCE7022B0AD1254945
:1019E00043F006FE42F009FD42F008FD96F8582348
:1019F0002F49BFE72F4943F0FBFD42F0FEFC42F0C8
:101A0000FDFC96F8513296F858232B49286843F08C
:101A1000EFFDB2E70A21234801F0E8FC044615492E
:101A2000286843F0E5FD42F0E8FC42F0E7FC23467D
:101A300096F858232149286843F0DAFD96F85803B0
:101A4000FFF79EFE00F5805494F8F5328246022B93
:101A500047D194F8FF32072B00F24781DFE813F0FB
:101A60003000C30045014501EE004501450100017C
:101A7000FC290020A35E0508A85E05085C5E050839
:101A8000DD5E0508F85E0508285F0508E4280020EB
:101A9000845F050888150020B45F050888250020AC
:101AA000E35F0508B92800205C6105083860050877
:101AB00096600508E6600508EB6005089361050877
:101AC0000123C34984F86B32286843F091FD42F04A
:101AD00094FC42F093FC94F85823BE49286843F0E4
:101AE00087FD94F8F5B294F8FF32BBF1010F84F84A
:101AF000003320D194F803932868B9F1020F00F065
:101B00000981B9F1FE0F00F02781B9F1010FB24947
:101B100040F0328143F06CFD42F06FFC42F06EFC0D
:101B200094F85823AD49286843F062FD84F8049383
:101B3000002384F86B32B6F8213363BB0DF11E032A
:101B4000049307AB039396F82F33029396F8003370
:101B5000019396F85132009396F8303396F8F222BA
:101B600096F8F61296F8F50201F0FEF80446002801
:101B700000F052810F2C286840F00D81964943F007
:101B800037FD42F03AFC42F039FC96F8582394496C
:101B9000286843F02DFDB6F82B330293B6F82933AD
:101BA0000193B6F825330093B6F82333B6F819231A
:101BB000B6F8171396F8580323F0D6FC044600280D
:101BC00000F04A818749286843F012FD42F015FC75
:101BD00042F014FC8449234696F85823286843F0C1
:101BE00007FD312194E6B8F1010F286818D87A4929
:101BF00043F0FEFC42F001FC42F000FC94F8582354
:101C00007A49286843F0F4FC01222921504601F06A
:101C10001DF9002384F8FF32012384F86B3260E75A
:101C2000022384F86B326A4943F0E2FC42F0E5FBA0
:101C300042F0E4FB94F858236D494FE7B9F1010FE6
:101C40002868D4D9022384F86B32614943F0D0FC70
:101C500042F0D3FB42F0D2FB94F8582365493DE7AC
:101C6000B9F1010F11D9B8F1010F1ED90423584958
:101C700084F86B32286843F0BBFC42F0BEFB42F0B4
:101C8000BDFB94F858235C4928E70122292101F083
:101C9000DDF8B9F1010F0FD1B8F1020F28680BD1AF
:101CA00084F86B8284F8FF92BDE70122292101F0BC
:101CB000CDF8B9F1020F0ED04749286843F098FCDF
:101CC00042F09BFB42F09AFB94F85823474928685E
:101CD00043F08EFC9DE7B8F1010F2868ECD1042396
:101CE00084F86B9284F8FF32AFE73B49286843F0F1
:101CF0007FFC42F082FB42F081FB94F858233F497D
:101D0000286843F075FC012384F86B32002384F8C3
:101D1000FF32E6E6B8F1010F2F4909D943F068FC1C
:101D200042F06BFB42F06AFB94F858233449FAE620
:101D300043F05EFC42F061FB42F060FB94F85823F4
:101D40003049286843F054FC5A462A21504684F80A
:101D500004B301F07BF8EBE61D4943F049FC42F087
:101D60004CFB42F04BFB94F8FE3294F85823264982
:101D7000286843F03DFCD9E643F03AFC42F03DFBD5
:101D800042F03CFB94F858232049286843F030FC8B
:101D900084F803B3CCE60A2C0AD10F4943F028FC9F
:101DA00042F02BFB42F02AFB96F858231849EFE645
:101DB0000C4943F01DFC42F020FB42F01FFB15498B
:101DC000234696F85823286843F012FC32219FE5F9
:101DD000A35E0508C9610508E660050831630508CA
:101DE000AB6405085C5E0508F5650508FC6105083F
:101DF0003D62050870620508A3620508D662050801
:101E000078630508BF6305080A6405084F64050880
:101E1000076505084D650508BDF81C303A49A6F868
:101E20001733A6F81933BDF81E302868A6F81B33FF
:101E3000A6F81D3343F0DCFB42F0DFFA42F0DEFA95
:101E4000B6F81D3331490093B6F8193396F8582384
:101E5000286843F0CDFB9EE6FF22384696F8F31241
:101E600023F0AAFB044680B12949286843F0C0FB4F
:101E700042F0C3FA42F0C2FA2649234696F85823A4
:101E8000286843F0B5FB332142E56FF48972224B99
:101E900096F858039A18191F01F0C8F90746A8B117
:101EA0001B49286843F0A4FB42F0A7FA42F0A6FAC7
:101EB0003B4696F858231949286843F099FB3A465F
:101EC0002F21174800F0C2FF0124C3E40E492868FF
:101ED00043F08EFB42F091FA42F090FA96F85823C4
:101EE0001049286843F084FB149B1BB196F86433B7
:101EF000149A137000220A48114601F0E9FFA9E480
:101F00002524A7E42224A5E4A35E0508A46505080A
:101F10005C5E05083F660508EC280020826605081F
:101F200088150020BD66050810B5134C41F2DC325F
:101F30000021204646F0D9F9FF2204F5805383F8AA
:101F4000582383F8C1234FF0FF32C3F840231722F0
:101F5000A3F852234FF486720021A3F83C2304F621
:101F6000A41040F6980246F0C0F92046BDE81040A3
:101F7000012141F035BD00BF881500202DE9F04159
:101F8000064688461746FFF7FBFB434C054698B9C3
:101F90004249206843F02CFB42F02FFA42F02EFA1F
:101FA00032463F49206843F023FB2222272128465E
:101FB000BDE8F04100F04ABF05F5805696F83C3385
:101FC0002068DB0712D518F0010F0FD1334943F019
:101FD0000FFB42F012FA42F011FA96F858233149F9
:101FE000206843F005FB3A460B21E0E787B12B4917
:101FF00043F0FEFA42F001FA42F000FA96F8582354
:1020000029493B46206843F0F3FA3A460C21CEE7D3
:10201000264943F0EDFA42F0F0F942F0EFF9434679
:1020200096F858232249206843F0E2FA96F83C13C8
:1020300096F8580341F074FD074688B117492068A7
:1020400043F0D6FA42F0D9F942F0D8F996F858237D
:1020500018493B46206843F0CBFA3A460D21A6E7E3
:10206000032196F8580341F09FFD074688B10B49BC
:10207000206843F0BDFA42F0C0F942F0BFF996F88B
:1020800058230D493B46206843F0B2FA3A460E21E8
:102090008DE7BDE8F08100BFFC2900205C5E0508EB
:1020A000EB6605081A67050880670508A35E050842
:1020B000C167050800680508406805082DE9F0417A
:1020C00086B007460E461546FFF75AFB0446A8B9E8
:1020D000494D4A49286843F08BFA42F08EF942F0A4
:1020E0008DF93A464649286843F082FA22220E21A9
:1020F000204606B0BDE8F04100F0A8BEA5B1DFF86B
:10210000F8803E49D8F8000043F072FA42F075F9C1
:1021100042F074F9009533463A463A49D8F800003F
:1021200043F066FA2A46E2E7022E57D0032E22D069
:10213000012E2FD100F5805696F85033052B29D16A
:102140000C23032196F8580386F8503341F02CFDF8
:102150000546F8B1284F2949386843F049FA42F05A
:102160004CF942F04BF92B4696F85823264938682B
:1021700043F03EFAD6E700F5805696F850330C2B24
:102180000BD0012103AA8DF80C1001F0A1FE05234C
:1021900086F8503306B0BDE8F08100F6A41240F690
:1021A000980196F8580341F07BFC05460028EED0D4
:1021B000114F1249386843F01BFA42F01EF942F001
:1021C0001DF996F858232B461049386843F010FA49
:1021D0002A460F21204600F039FED8E707230121C7
:1021E00000F5805484F8503384F8545303AA8DF8D2
:1021F0000C1001F06DFECDE7FC2900205C5E0508A7
:102200007B680508B868050840680508F96805088E
:102210002DE9F04F87B00646DDE918BA89461D461C
:10222000DDF85480FFF7ACFA044680B9504D5149AF
:10223000286843F0DDF942F0E0F842F0DFF832467A
:102240004D49286843F0D4F92222112120E000F5FD
:10225000805696F83D330BB300F6A41240F6980171
:1022600096F8580341F01CFC0746B8B1404D41496F
:10227000286843F0BDF942F0C0F842F0BFF896F884
:1022800058233E493B46286843F0B2F93A460F21AD
:10229000204607B0BDE8F04F00F0D8BDB5B1344FCF
:1022A0003449386843F0A4F942F0A7F842F0A6F8A0
:1022B0002B4696F858233249386843F099F95BEA7F
:1022C0000A0A51D0062D4FD02A46BEE7B9F1000FB9
:1022D0004AD0274F2B49C4F8A089386843F088F9C1
:1022E00042F08BF842F08AF894F8A53994F8A419D2
:1022F00096F8582303F00F03CDF8008041EA03233A
:102300003868214943F074F994F8A52994F8A43960
:1023100002F00F0204F6A41943EA0223D4F8A0192C
:102320002A46ADF81430484696F8C033CDE90398F4
:102330008DF8175041F069FB08218DF8160003AAAB
:10234000204601F0C5FD044670B10A49386843F0E3
:102350004FF942F052F842F051F8234696F85823CC
:102360000A49386843F044F907B0BDE8F08F00BF70
:10237000FC2900205C5E05083F690508F96805082E
:1023800083690508A35E0508C5690508096A05088B
:102390002DE9F0410368B04A23F47F4323F007039B
:1023A0009342044692B000F023832ED802F17F427C
:1023B000934200F03D830FD802F17F42934200F038
:1023C000038202F53002934200F0CE82002080F0BA
:1023D000010012B0BDE8F081A04A934248D002F556
:1023E00040329342F2D10079FFF7CAF9002840F059
:1023F000A3829B4D9B49286843F0FAF841F0FDFF0A
:1024000041F0FCFF2279984942E0984A934200F05B
:10241000418413D802F17E42934200F0CD8302F54D
:102420002D029342D2D10079FFF7AAF90028CDD02E
:10243000637900F5805080F8F332C7E78C4A934205
:1024400000F0CF8102F1FC729342BFD1844D8549E7
:10245000286843F0CDF841F0D0FF41F0CFFFA379D9
:102460008449009363792279286843F0C1F8ADE785
:102470000079FFF785F9074670B9794D79492868E1
:1024800043F0B6F841F0B9FF41F0B8FF22797A493C
:10249000286843F0ADF899E7B4F8052000F58055B9
:1024A00093B2A5F85A23B5F819239A4203D3B5F885
:1024B00017239A4277D96A4E7049306843F098F8EA
:1024C00041F09BFF41F09AFFB4F80510B5F81733BF
:1024D00095F858230191B5F81913009130686849AF
:1024E00043F086F895F85E33A3BB5D4E63493068D0
:1024F00043F07EF841F081FF41F080FF95F85823CA
:102500006049306843F074F8B5F82BC3B5F823334D
:10251000B5F81923B5F8171395F85803CDF808C086
:10252000B5F829C3CDF804C0B5F825C3CDF800C06F
:1025300023F01AF8002869D05049306843F058F861
:1025400041F05BFF41F05AFF95F858234E4930683F
:1025500043F04EF8012385F85E33E37A002B59D01F
:1025600095F85033002B40F03A8195F858031DF050
:102570005BF83B4E0446002850D005284ED0394920
:10258000306843F035F841F038FF41F037FF95F8F7
:1025900058233E49306843F02BF82246052138463F
:1025A00000F054FC12E7B5F82323B4F807309A4240
:1025B00014D02B4E3149306843F01AF841F01DFF1A
:1025C00041F01CFFB4F80710B5F8233395F85823F1
:1025D00000912F49306843F00BF883E7B5F82523C5
:1025E000B4F809309A42B5D01D4E2449306842F003
:1025F000FFFF41F002FF41F001FFB4F80910B5F808
:10260000253395F8582300912249E3E795F85E3386
:10261000002BA2D1012385F85E33D7E6012795F878
:10262000584385F850732046FFF7AAF80546A8BB23
:102630000C49306842F0DCFF41F0DFFE41F0DEFE85
:1026400022461549306842F0D3FF2222272128462E
:1026500000F0FCFBC3E000BFA0005902A00006028E
:10266000FC2900205C5E05083F6F0508A0005905A5
:10267000A000090631720508506A0508E6600508E1
:10268000B46A0508C76B0508116C0508726C05086B
:10269000336B0508776B0508AB6C050800F58054B3
:1026A00094F90A23394694F8043394F858030092B5
:1026B000002223F0B5F8074680B1BD49306842F0EA
:1026C00097FF41F09AFE41F099FE94F85823B949DA
:1026D000306842F08DFF3A462821B8E794F8580355
:1026E00023F08EF8074688B1B149306842F080FF88
:1026F00041F083FE41F082FE94F85823AE493B46F8
:10270000306842F075FF3A462C21A0E794F805C3E3
:1027100094F8F53294F8082394F8061394F85803C3
:10272000CDF834C094F8FCC2CDF830C094F8FDC2A6
:10273000CDF82CC094F802C3CDF828C094F8FBC2A1
:10274000CDF824C005F5995C0CF1110CCDF820C032
:1027500094F8F4C2CDF81CC094F801C3CDE9057C0F
:1027600094F8FA72049794F8F972039794F8F77250
:10277000029794F8F872019794F8F672009723F094
:102780006BF8074688B18A49306842F031FF41F062
:1027900034FE41F033FE94F8582388493B463068B4
:1027A00042F026FF3A462B2151E78549306842F036
:1027B0001FFF41F022FE41F021FE94F85823814989
:1027C000306842F015FF0AE00079FEF7D9FF0028D3
:1027D0003FF4FCAD012300F5805080F85D3301200B
:1027E000F5E50079FEF7CCFF064658B9764D7049FD
:1027F000286842F0FDFE41F000FE41F0FFFD227925
:10280000724945E600F5805595F8580323798342CF
:102810007FF4DCADB4F80540BCB16B4F6449386857
:1028200042F0E6FE41F0E9FD41F0E8FD95F858235D
:102830006749386842F0DCFE95F85033032B3FF4CB
:10284000C5AD224607213046AAE695F85033012B44
:102850001FD0022B7FF4BAAD304600F077FB95F81D
:102860003D33002B46D0B5F84633002B42D1564CB1
:102870004F49206842F0BCFE41F0BFFD41F0BEFD73
:1028800095F858235349206842F0B2FE01220921ED
:1028900014E0D5F840134B1C12D14B4C444920682E
:1028A00042F0A6FE41F0A9FD41F0A8FD95F858239D
:1028B0004949206842F09CFE012206213046C7E6C5
:1028C000022385F850331CF0BFFE0446002886D052
:1028D0003D4F3749386842F08BFE41F08EFD41F0A4
:1028E0008DFD95F858233D49386842F081FE224617
:1028F0000821E3E706F59A51B5F8272395F8580320
:10290000043102F045FA044690B12F4F2849386847
:1029100042F06EFE41F071FD41F070FD95F85823D4
:102920002F492346386842F063FE22460A21C5E754
:10293000032385F8503352E700F59A5600F59A556F
:10294000284F0436103504F1090802224146384662
:1029500045F0A1FC10B9B4F8053033800236AE4220
:1029600007F10207F1D131E50079FEF709FF0546CD
:1029700058B9154D0E49286842F03AFE41F03DFD28
:1029800041F03CFD2279184982E50222174804F102
:102990000A0145F080FC00287FF418ADD4F805202A
:1029A00005F580532846C3F8402300F08DFA0DE565
:1029B0005C5E0508D46C0508056D0508406D0508CA
:1029C000A35E0508806D0508FC290020AF6D050891
:1029D000166E0508B06E0508436E05086E6E050894
:1029E000056F05089C950020A16F0508A89500209B
:1029F0000079FEF7C5FE58B9BD4DBE49286842F0C2
:102A0000F7FD41F0FAFC41F0F9FC2279BA493FE5C3
:102A10000421231D0F9300F5805393F8F522022A19
:102A200004BF627A83F8C1230FAA01F051FAD6E6F7
:102A30000079FEF7A5FEAE4F064658B9AD49386895
:102A400042F0D6FD41F0D9FC41F0D8FC2279AB49E7
:102A500038681EE500F07AFAA37B06F5805585F804
:102A6000603294F8243041F2532185F8673294F8AB
:102A7000213085F8683294F8223085F8693294F86C
:102A8000233085F86A32B5F85A33A5F86C32E37F03
:102A900085F86632A37F85F86532237F85F8633237
:102AA000637F85F86432637C85F86232237C85F825
:102AB0006132637B85F85F32237B85F85E32E37A8F
:102AC00085F85D32D4F8122073187250D4F81620AD
:102AD00006F59B515A60628B1A8195F8F62295F89B
:102AE0005803019295F8F522009206F592521132A0
:102AF00000F008FC044698B17E49386842F078FD41
:102B000041F07BFC41F07AFC95F858237C49234640
:102B1000386842F06DFD22462F21304600F096F9CC
:102B20007849386842F064FD41F067FC41F066FC8A
:102B300095F858237449386842F05AFD95F82E43A9
:102B4000B5F81B33B5F81F2395F8061395F858030D
:102B5000099495F82D43089495F80743079495F93F
:102B60000943069495F8F342059495F800430494BC
:102B7000D5F813430394D5F80F430294B5F82143D5
:102B80000194B5F81D43009422F0C4FE04460028C9
:102B90003FF425AE5749386842F02AFD41F02DFC3C
:102BA00041F02CFC95F8582358492346386842F0E8
:102BB0001FFD22461E2146E60079FEF7E1FD07468D
:102BC00000283FF403AC4A4E4E49306842F010FDF5
:102BD00041F013FC41F012FC22794D49306842F07B
:102BE00007FD4FF6FF7307F58055B5F83C229A4272
:102BF00015D195F8BE33063B012B38D80523414942
:102C000085F8BE33306842F0F3FC41F0F6FB41F04A
:102C1000F5FB95F858233F49306842F0E9FC95F8F8
:102C2000BE33063B012B22D895F880330133DBB24B
:102C30000A2B85F8803322D900214FF6FF733846DE
:102C400085F88013A5F83C3240F0CAFE05232D49D3
:102C500085F8BE33306842F0CBFC41F0CEFB41F04A
:102C6000CDFB95F858232B49306842F0C1FC012375
:102C7000062138460F948DF843300FAAD5E6214936
:102C8000306842F0B5FC41F0B8FB41F0B7FB227967
:102C9000214995E50079FEF773FD054600283FF4CC
:102CA00095AB05F5805393F8BE33114E063B012BCF
:102CB0003068144912D942F09BFC41F09EFB41F070
:102CC0009DFB22791549306842F092FC00230721D0
:102CD00028460F948DF843300FAAA6E642F088FCF0
:102CE00041F08BFB41F08AFB22790D4968E500BF7A
:102CF000FC2900205C5E0508FC6F0508677005086C
:102D000082660508A35E0508BD660508C87005084B
:102D10000F710508497105087C710508B87105082F
:102D2000EC7105081FB50B46032810D8DFE800F04A
:102D300002111313094C2068616801AA03C221899A
:102D400001AC1180128803CC1A811860596004B05C
:102D500010BD034CEFE7034CEDE700BF0B74050813
:102D6000B1720508BC7205082DE9F7439DF82C40A7
:102D70000F46DDE90D969DF828108DF803409DF86B
:102D800030408DF800208DF801308DF802108DF85C
:102D90000440B9F1000F50D0002E4ED0022A4ED080
:102DA000032B4ED001284CD0012905D10623A9F8C8
:102DB0000030262333801FE0012A04D1022904BFFA
:102DC00000238DF80230DFF880800024454605227C
:102DD0006946404645F05FFA38BB04EBC4042B1942
:102DE0005A799979B3F8073042EA0122FF2FA9F8FE
:102DF00000209AB2338003D1002003B0BDE8F083F5
:102E0000B9F80030B7EE047A07EE903AF8EEE77AB8
:102E100067EE877AFCEEE77A17EE903A9BB203F101
:102E20001301B1FBF3F31344C4E70134B4F5A27FFB
:102E300008F10908CBD12D20DFE72120DDE70A20AA
:102E4000DBE70F20D9E700BFC77205082DE9F04185
:102E50000446194F0E46154638686CB9174942F0BA
:102E6000C7FB41F0CAFA41F0C9FA2A46386814494A
:102E7000BDE8F04142F0BCBB04F580540F49D4F8E2
:102E8000708342F0B5FB41F0B8FA41F0B7FA2B4637
:102E900094F858230B49386842F0AAFBB8F1000FA8
:102EA00007D02A463146434694F85803BDE8F0411E
:102EB0001847BDE8F08100BFFC2900205C5E0508D2
:102EC0001574050845740508F7B500F5805595F8A3
:102ED000BD73044687BB95F8BC3300F59C56043699
:102EE00023B1304603F006FC85F8BC73002330465E
:102EF000009340F6B8312346104A03F019FC064609
:102F0000B8B10F4F0F49386842F072FB41F075FAC3
:102F100041F074FA95F8582333460B49386842F06B
:102F200067FB32460221204603B0BDE8F040FFF7C0
:102F30008DBF012385F8BC3303B0F0BDBD39040853
:102F4000FC2900205C5E050872740508F8B505468A
:102F500000F59C50043003F0CDFB05F58056044687
:102F6000B0B10D4F0D49386842F042FB41F045FACF
:102F700041F044FA96F8582323460949386842F04C
:102F800037FB22462846BDE8F8400421FFF75EBF24
:102F9000A6F8BC03F8BD00BFFC2900205C5E050854
:102FA000AD74050870B504460D460F2900F2068180
:102FB000DFE811F015011000240034004400540033
:102FC0006400740084009400A400B400C400D40021
:102FD000E400F400824D8349286842F009FB41F087
:102FE0000CFA41F00BFA012304F5805494F85823AD
:102FF0007D492868BDE8704042F0FABA784D7949B9
:10300000286804F5805442F0F3FA41F0F6F941F0F3
:10301000F5F9022394F858237449EAE7704D74498E
:10302000286804F5805442F0E3FA41F0E6F941F0F3
:10303000E5F9032394F858236E49DAE7684D6949A6
:10304000286804F5805442F0D3FA41F0D6F941F0F3
:10305000D5F9042394F858236749CAE7604D6149BC
:10306000286804F5805442F0C3FA41F0C6F941F0F3
:10307000C5F9052394F858236049BAE7584D5949D2
:10308000286804F5805442F0B3FA41F0B6F941F0F3
:10309000B5F9062394F858235949AAE7504D5149E8
:1030A000286804F5805442F0A3FA41F0A6F941F0F3
:1030B000A5F9072394F8582352499AE7484D4949FE
:1030C000286804F5805442F093FA41F096F941F0F3
:1030D00095F9082394F858234B498AE7404D414914
:1030E000286804F5805442F083FA41F086F941F0F3
:1030F00085F9092394F8582344497AE7384D39492A
:10310000286804F5805442F073FA41F076F941F0F2
:1031100075F90A2394F858233D496AE7304D31493F
:10312000286804F5805442F063FA41F066F941F0F2
:1031300065F90B2394F8582336495AE7284D294955
:10314000286804F5805442F053FA41F056F941F0F2
:1031500055F90C2394F858232F494AE7204D21496B
:10316000286804F5805442F043FA41F046F941F0F2
:1031700045F90D2394F8582328493AE7184D194981
:10318000286804F5805442F033FA41F036F941F0F2
:1031900035F90E2394F8582321492AE7104D114997
:1031A000286804F5805442F023FA41F026F941F0F2
:1031B00025F90F2394F858231A491AE7084E0949AC
:1031C000306804F5805442F013FA41F016F941F0EA
:1031D00015F92B4694F85823134930680AE770BD57
:1031E000FC2900205C5E0508EB7405081F750508C6
:1031F000A35E05085A75050899750508EE7505085A
:103200002776050864760508A4760508D6760508AD
:103210001B77050854770508BA7705081378050861
:1032200063780508BF780508FD7805082DE9F041A9
:103230000646174698460D46C9B10B68BBB108460D
:1032400034F060FC044688B1284D2949286842F0D2
:10325000CFF941F0D2F841F0D1F823463246254962
:10326000286842F0C5F92046BDE8F081286028466C
:103270002EF0C4FF044660B11C4D1D49286842F081
:10328000B7F941F0BAF841F0B9F8234632461A4985
:10329000E6E7414628462FF0FDF8044660B1134D9D
:1032A0001349286842F0A4F941F0A7F841F0A6F8C4
:1032B000234632461149D3E77B78002BD3D02846EA
:1032C00034F05AFC05460028CDD0084C0849206847
:1032D00042F08EF941F091F841F090F820682B46C9
:1032E0003246074942F084F92C46BCE7FC2900200D
:1032F0005C5E05082E790508667905089C79050845
:10330000D97905082DE9F8430E460546117830466F
:1033100099469DF820709DF824802EF0BDFF04464C
:1033200088B12C4E2C49306842F062F941F065F8C2
:1033300041F064F823462A462849306842F058F99B
:103340002046BDE8F883012F02D0022F18BFFF27C7
:10335000B8F1010F04D0B8F1020F18BF4FF0FF0809
:103360004246394630462EF0A7FF044660B1194E5A
:103370001949306842F03CF941F03FF841F03EF81D
:1033800023462A461649D8E7494630462EF0B6FF6E
:10339000044660B10F4E1049306842F029F941F0FF
:1033A0002CF841F02BF823462A460E49C5E7304653
:1033B00037F0D2F904460028C2D0064E06493068DC
:1033C00042F016F941F019F841F018F823462A4660
:1033D0000549B2E7FC2900205C5E0508117A050862
:1033E000497A05088F7A0508D07A050838B5044669
:1033F00088B10346014400208B421AD0002213F802
:10340000014B44FA02F5ED0702F1010248BF013019
:10341000082AF6D1F0E7074D0749286842F0E8F896
:1034200040F0EBFF40F0EAFF0449286842F0E0F882
:10343000204638BDFC2900205C5E05080E7B05088F
:103440002DE9F04F0446002797B000F584730393ED
:103450000893D0F8043100F58055ADF8243000F61B
:10346000A41304930A93D0F8A03912AEADF82C300F
:1034700008AB0E930AAB0F93431C0593109303788C
:10348000ADF846708DF8443095F8C0338DF845306E
:1034900005F511730FCB07C6337004F59B56012158
:1034A00030460EAA37F0E4FE804601462046FFF77C
:1034B00079FDB8F1000F23D0B8F1030FDFF83C908D
:1034C00000F02C830B49D9F8000042F091F840F04D
:1034D00094FF40F093FF95F8582343460649D9F8E6
:1034E000000042F085F842463A212046FFF7AEFC44
:1034F00077E200BF5C5E050852810508FC290020C8
:10350000002304F593570E3738460693079340F08F
:1035100048FD95F8F6924146B9F1FF0918BF4FF002
:10352000010930464A4607AB2FF084F98046014630
:103530002046FFF737FDB8F1000F40F0A38104F5F6
:10354000935341463846123307AA02F073F9834673
:10355000002800F0A981DFF86C83D549D8F8000075
:1035600042F046F840F049FF40F048FF5B4695F8CE
:103570005823D049D8F8000042F03AF84FF000083C
:1035800095F8F632FF2B2DD000210222304607ABF2
:103590002FF050F9824601462046FFF703FDBAF1AD
:1035A000000F40F09D8104F59353012138461233FA
:1035B00007AA02F03FF98246002800F0A181DFF857
:1035C00004B3BB49DBF8000042F012F840F015FFED
:1035D00040F014FF534695F85823B749DBF8000034
:1035E00042F006F84A46022106AB30462FF022F997
:1035F000824601462046FFF7D5FC04F58055BAF116
:10360000000F40F0808104F59353022138461233B5
:1036100006AA02F00FF98246002800F08481DFF844
:10362000A4B2A349DBF8000041F0E2FF40F0E5FE60
:1036300040F0E4FE534695F85823A049DBF800001B
:1036400041F0D6FF95F8F632FF2B2DD002223046FE
:10365000114606AB2FF0EEF8824601462046FFF7F2
:10366000A1FCBAF1000F40F0618104F593530321EE
:103670003846123306AA02F0DDF88246002800F030
:103680006581DFF840B28A49DBF8000041F0B0FF05
:1036900040F0B3FE40F0B2FE534695F858238849F7
:1036A000DBF8000041F0A4FF4A46002106AB30469B
:1036B0002EF068FE824601462046FFF773FC04F5B3
:1036C000805BBAF1000F40F0448104F5935304216C
:1036D0003846123306AA02F0ADF88246002800F000
:1036E0004681784D7249286841F082FF40F085FE9E
:1036F00040F084FE53469BF858237349286841F0F4
:1037000077FF9BF8F632FF2B2AD0002102223046A9
:1037100006AB2EF037FE824601462046FFF742FCFC
:10372000BAF1000F40F0268104F593530521384685
:10373000123306AA02F07EF88246002800F02881A3
:10374000604D5B49286841F053FF40F056FE40F061
:1037500055FE53469BF858235C49286841F048FFC2
:1037600003238DF83030DBF80B3330460CA9CDF84D
:1037700031302EF0E7FD824678B1524D4C49286831
:1037800041F036FF40F039FE40F038FE53469BF8DA
:1037900058234F49286841F02BFF4A46012106ABC8
:1037A00030462FF047F8824601462046FFF7FAFBE5
:1037B00004F58055BAF1000F40F05B8104F5935396
:1037C00006213846123306AA02F034F88246002851
:1037D00000F0E180DFF8ECB03549DBF8000041F0A3
:1037E00007FF40F00AFE40F009FE534695F85823C3
:1037F0003849DBF8000041F0FBFE95F8512295F8BE
:10380000F532022A34D1022B32D195F83033013B04
:10381000012B2DD803214A46304606AB2FF00AF87B
:10382000824601462046FFF7BDFBBAF1000F40F08B
:10383000338104F5935307213846123306AA01F069
:10384000F9FF8246002800F0C480DFF878B01849FC
:10385000DBF8000041F0CCFE40F0CFFD40F0CEFDA3
:10386000534695F858231C49DBF8000041F0C0FE90
:1038700095F8F532012B00F0B980B8F1000F00F097
:10388000B080AAE0DFF83CB00949DBF8000041F065
:10389000AFFE40F0B2FD40F0B1FD434695F858232D
:1038A0000E49DBF8000067E64FF0010868E600BF4C
:1038B0005C5E0508577B0508D57B0508657C050817
:1038C000EB7C0508FC290020837D0508127E050895
:1038D000B37E0508FC7E0508C47F0508967B0508B5
:1038E000DFF8DCB2B249DBF8000041F081FE40F0C5
:1038F00084FD40F083FD534695F85823AD496DE6AD
:103900004FF001086EE6DFF8B8B2A949DBF8000015
:1039100041F06EFE40F071FD40F070FD534695F8A9
:103920005823A5498AE64FF001088BE6DFF890B2EC
:103930009F49DBF8000041F05BFE40F05EFD40F087
:103940005DFD534695F858239C49A9E64FF00108C0
:10395000AAE69B4D9649286841F04AFE40F04DFD8D
:1039600040F04CFD53469BF858239649C6E64FF06D
:103970000108C6E6924D8E49286841F039FE40F0B4
:103980003CFD40F03BFD53469BF858238E49E4E64E
:103990004FF00108E4E6079B8DF830000CA9304693
:1039A000CDF831302EF0CEFC824601462046FFF79E
:1039B000F9FABAF1000F43D195F8512295F8F53292
:1039C000022A08D1022B06D195F83033013B012B96
:1039D0005FD995F8F532012B06D0D5F86863002E33
:1039E00078D117B0BDE8F08F4FF001084A460121A9
:1039F000304606AB2EF0C6FC814601462046FFF756
:103A0000D1FAB9F1000F57D104F593530921384683
:103A1000123306AA01F00EFF81460028DDD0684E61
:103A20006349306841F0E4FD40F0E7FC40F0E6FC1B
:103A30004B4695F858236549306841F0D9FD1CE79D
:103A4000DFF87C815A49D8F8000041F0D1FD40F000
:103A5000D4FC40F0D3FC53469BF858235C49D8F87B
:103A6000000041F0C5FD9BF85132022B9BF8F53266
:103A7000A7E7DFF84CB14E49DBF8000041F0B8FD94
:103A800040F0BBFC40F0BAFC534695F8582351492E
:103A9000AFE64FF00108BDE6DFF824B14449DBF89A
:103AA000000041F0A5FD40F0A8FC40F0A7FC534603
:103AB00095F858234849D7E6414E3D49306841F0D2
:103AC00097FD40F09AFC40F099FC4B4695F858233E
:103AD0004249B1E7237804F5935285F8C433631C57
:103AE000C5F8C833D4F804311232C5F8CC33039B7F
:103AF000C5F8D033D4F8A039C5F8D433049BC5F841
:103B0000D8330023019304F59E5304330093B5F892
:103B10003C123B4695F85803B04762E795F8583396
:103B2000394630460DAACDE90C778DF830302EF0AD
:103B30008DFC064601462046FFF734FA36BB28497D
:103B4000D9F8000041F054FD40F057FC40F056FC1D
:103B500095F858232349D9F8000041F049FDD5F8DC
:103B60006C3313B131460CA898471D49D9F80000B1
:103B700041F03EFD40F041FC40F040FC95F85823F8
:103B80001949D9F8000041F033FD2AE70849D9F86E
:103B9000000041F02DFD40F030FC40F02FFC33469A
:103BA00095F858231149D9F8000041F021FDDCE7D0
:103BB0005C5E05081D7C0508A87C0508377D0508A6
:103BC000FC290020CD7D0508657E05083D8005089F
:103BD000407F0508857F0508038005087780050874
:103BE000A35E0508AC80050823810508D980050877
:103BF0002DE9F04F0446CB7900F580550A68D5F8D9
:103C0000400285B004F58478EBB1118902F1130606
:103C1000C1F30B01A5F83C12117C85F8C013577B4A
:103C200092F80EA092F8119010B90421C4F8041172
:103C3000D4F8041101F5847020440831C5F840021D
:103C4000C4F8041109E0517A02F10C0685F8C0139A
:103C5000977992F807A092F80A904FF0000B83F042
:103C600001030093414695F8C133D5F8400240F076
:103C700003F9D4F8042102F5847222445FFA8BF32D
:103C80004B4529D3A2EB0802012FC4F80421274C8D
:103C900011D00F2F46D0002F46D02549206841F083
:103CA000A7FC40F0AAFB40F0A9FB95F85823214956
:103CB000206841F09DFC00251F49206841F098FCD8
:103CC00040F09BFB40F09AFB1C49206841F090FCBF
:103CD000284605B0BDE8F08F314611F8030BBAF164
:103CE0000F0F00F0030002F1010310D160F07F001C
:103CF00010702278B078767804EB020C01328CF8E0
:103D000001600BF1010B22700E181A46B6E7107015
:103D1000B2781846039144F01AFB0346B27803992F
:103D20001344E6E70125C7E70225C5E7FC29002083
:103D30005C5E05088F810508A35E0508BF81050844
:103D400073B5044651F0D0FD054651F0EBF80C4E2A
:103D500004F580540B49C4F87803306841F048FCFE
:103D600040F04BFB40F04AFB0095D4F8783394F8D0
:103D700058230549306841F03BFC02B070BD00BFDC
:103D8000FC290020A35E0508D181050838B500F59F
:103D900080540546002194F8062394F8580321F036
:103DA000F1FD80B9154D1649286841F021FC40F01D
:103DB00024FB40F023FB94F858231249286841F073
:103DC00017FC042038BD252815D105F59C500B4D56
:103DD000043002F08FFC0A49286841F009FC40F0E9
:103DE0000CFB40F00BFB94F858230749286841F07E
:103DF000FFFB0220E6E70920E4E700BFFC290020E2
:103E0000A35E05080E82050854820508F8B500F582
:103E10008054054694F8061394F8580321F066FD83
:103E2000D4F86033254EB3B105F59B5033F06AFEEC
:103E3000074680B12249306841F0DAFB40F0DDFAF4
:103E400040F0DCFA3B4694F858231E49306841F0B4
:103E5000CFFB0120F8BD41F2DC320021284644F0BE
:103E600044FA1949306841F0C3FB40F0C6FA40F00B
:103E7000C5FA94F858231549306841F0B9FBFF237F
:103E800084F858334FF0FF33C4F840331723A4F8B5
:103E90005233B4F83C3340F6980203F0F00343F495
:103EA0008673A4F83C33002405F6A4102146C5F817
:103EB000A04944F01AFA2046CCE700BFFC290020B4
:103EC0005C5E05088A820508A35E0508C4820508B1
:103ED0002DE9F0430F46904606468FB0B8B9B84C6E
:103EE000B849206841F084FB40F087FA40F086FA38
:103EF000FF22B549206841F07BFB22223521304664
:103F0000FEF7A4FF222528460FB0BDE8F0830A295A
:103F100000F5805421D1AA4D00F59C50043002F0E8
:103F2000E9FBA849286841F063FB40F066FA40F0DD
:103F300065FA94F85823A549286841F059FB0923EC
:103F400084F8BE333046D8F8042098F80010FEF705
:103F50007DFF0025C7E017469846092F4FF0010561
:103F600040F0C180002194F8062394F8580321F012
:103F700009FD054690B9924D9549286841F038FBF6
:103F800040F03BFA40F03AFA286894F858239149F7
:103F900041F02EFB082584F8BE5338E241F20C03B1
:103FA000984205D041F21203984201D025281BD136
:103FB00006F59C50043002F09DFB3046FFF726FFCB
:103FC0000546002840F00A837D4E8149306841F063
:103FD0000FFB40F012FA40F011FA94F858237E4992
:103FE000306841F005FBD6E7DFF8D4817549D8F891
:103FF000000041F0FDFA40F000FA40F0FFF92B46D6
:1040000094F858237549D8F8000041F0F1FA2323B9
:1040100084F8BE738DF82C300C9586E0002F7FF469
:1040200072AF674D6A49286841F0E2FA40F0E5F95D
:1040300040F0E4F994F858236949286841F0D8FA27
:10404000012384F8BE33E2E1012F7FF45CAF98F8DE
:104050000030002B62D05A4F5D49386841F0C8FAF1
:1040600040F0CBF940F0CAF994F858235D4938681C
:1040700041F0BEFA022294F83D33A4F8BE23002B8F
:104080003FF469AF40F6980194F8580306F6A4127D
:104090003FF006FD0546A0B14A49386841F0A8FA4C
:1040A00040F0ABF940F0AAF994F858234E492B465A
:1040B000386841F09DFA2A460F213046FEF7C6FEC9
:1040C00021E74349386841F093FA40F096F940F00F
:1040D00095F994F858234549386841F089FA4FF02A
:1040E00000080227012594F8BE33082B3FF60BAFDA
:1040F00001A252F823F000BF1D400008494000080B
:1041000031410008F941000879450008CB43000817
:10411000594500086F450008BF450008092384F889
:10412000BE3336230C978DF82C300A210BAAE2E11E
:10413000022F7FF4E8AE94F85D3343B9092384F885
:10414000BE332C238DF82C3001230C93EDE7012195
:1041500094F8062394F8580321F014FC40BB009017
:1041600006F59C50334640F6B831214A043002F03F
:10417000DFFA0546B8B9124E012194F8580300F051
:104180004BFE1349306841F033FA40F036F940F005
:1041900035F994F858231749306841F029FA032378
:1041A00084F8BE33AFE6092384F8BE33212331E718
:1041B000092384F8BE3320230C908DF82C30B4E70B
:1041C000FC2900205C5E0508E78205081F830508BE
:1041D000A35E05084B8305087A830508AE830508AE
:1041E000E983050854820508F96805081484050860
:1041F000593A04084D840508042F7FF484AED8F89A
:104200000030C54F5D88002D60D151F06DFB8146B7
:1042100050F088FED8F80030C4F87403D3F80720B3
:10422000BE49C4F84422DA7A386884F848229A8968
:10423000A4F84922DA89A4F84B221A8AA4F84D225C
:104240005B8AA4F84F3241F0D3F940F0D6F840F041
:10425000D5F894F85823B249386841F0C9F9AF4904
:10426000386841F0C5F940F0C8F840F0C7F8B4F834
:104270004F32AC490693B4F84D320593B4F84B3243
:10428000049394F848320393B4F849320293D4F873
:104290004432CDE90093D4F8743394F85823386845
:1042A00041F0A6F99D49386841F0A2F940F0A5F81F
:1042B00040F0A4F89C4994F85823386841F098F9E4
:1042C000294630463FF08CFB052369E7974938685B
:1042D00041F08EF940F091F840F090F8D8F80030B5
:1042E00094F858235B889249386841F081F994F832
:1042F000BF330133DBB2022B84F8BF335BD88B4969
:10430000386841F075F940F078F840F077F894F8A3
:1043100058238849386841F06BF994F82E33099393
:1043200094F82D33089394F80733079394F90933DD
:10433000069394F8F332059394F800330493D4F879
:1043400013330393D4F80F330293B4F8213301935A
:10435000B4F81D330093B4F81B33B4F81F2394F85A
:10436000061394F8580321F0D5FA054688B16F4931
:10437000386841F03DF940F040F840F03FF894F8DB
:1043800058236D492B46386841F032F92A461E21E0
:1043900093E66249386841F02BF940F02EF840F07E
:1043A0002DF894F858236549386841F021F9022323
:1043B00084F8BE3393E606F59C50043002F09AF977
:1043C000092384F8BE331F23BCE6082F63D198F875
:1043D0000B50F5B9B4F8213343B13046FFF7D6FCA2
:1043E000092884F8BE0312D1242313E64A4D4B4911
:1043F000286841F0FDF840F000F83FF0FFFFB8F802
:10440000083094F858234E49286841F0F1F8002507
:1044100079E598F80A30012B2AD13F4DB4F8217381
:1044200028683E4987B141F0E3F83FF0E6FF3FF0EE
:10443000E5FF94F858234349286841F0D9F8072349
:1044400084F8BE3301255EE541F0D2F83FF0D5FF98
:104450003FF0D4FF94F858233B49286841F0C8F84E
:1044600005233946304684F8BE333FF0B9FACEE72B
:10447000022BE7D1284D2949286841F0B9F83FF0CF
:10448000BCFF3FF0BBFF94F858233049286841F047
:10449000AFF80623D5E5063F012F3FF634AD414680
:1044A0003046FFF7A5FB054600283FF40DAF1A4F35
:1044B000012D3868194923D141F09AF83FF09DFF4A
:1044C0003FF09CFFB4F83C3294F8582320493868F8
:1044D00041F08EF8012308218DF83730B4F83C32D2
:1044E0008DF83650ADF8343006F584730B93D6F85A
:1044F00004310BAA0C933046FFF7EAFC054602E5AF
:1045000041F076F83FF079FF3FF078FFB4F83C32A5
:1045100094F858230F49DAE7FC290020A35E050828
:1045200092840508D0840508497105085C5E050879
:1045300090850508DF850508C870050854820508C0
:104540002686050879860508C086050803870508BC
:104550004B8705087F870508082F7FF4D4AC01221C
:10456000414630460FB0BDE8F04300F063B8082F75
:104570007FF4C9AC0022F3E7042F7FF4C4ACD8F871
:1045800000301B79002B7FF442AF3046FFF7D8FB99
:10459000D8F80030224D5B8833BB06F59C500430C0
:1045A00002F0A8F81F49286841F022F83FF025FFE3
:1045B0003FF024FF94F858231B492868F5E6042FA0
:1045C0007FF4A1ACD8F800301A79002A7FF41FAF2D
:1045D0005B8843B93046FFF7B3FBEEE4092384F868
:1045E000BE33382316E50E4D1049286841F000F817
:1045F0003FF003FF3FF002FFD8F8003094F8582353
:104600005B880B49286840F0F3FF092384F8BE3328
:1046100023238DF82C30D8F800305B8895E500BF57
:10462000FC290020A35E0508548205085C5E05088D
:10463000B48705082DE9F043CE7A05460F4691462A
:1046400087B000F5805466B3B4F82133A3B1FFF707
:104650009DFB092884F8BE0321D124238DF80C305A
:10466000002304930A21284603AAFFF731FC0646DB
:10467000304607B0BDE8F0835B4D5C49286840F0E8
:10468000B7FF3FF0BAFE3FF0B9FEB4F83C325849EC
:1046900000933B8994F85823286840F0A9FF00262E
:1046A000E6E70A89B4F83C329A421ED0B4F82133C6
:1046B00053B1FFF76BFB092884F8BE03EFD1242325
:1046C00004968DF80C30CDE7474D4849286840F0F6
:1046D0008FFF3FF092FE3FF091FEB4F83C32454927
:1046E00000933B8994F85823D6E700F59C5004309A
:1046F00002F000F858B1092384F8BE332223049055
:104700000A21284603AA8DF80C30FFF7E1FBDFF8F9
:10471000D880B4F82133D8F800003449A3B340F06E
:1047200067FF3FF06AFE3FF069FE94F85823324974
:10473000D8F8000040F05CFF02210022284684F8EF
:10474000BE13FFF7C5FBBB7A0646022B0AD1B9F1AF
:10475000000F07D02846FEF773FE002128463FF0E1
:104760003FF985E72149D8F8000040F041FF3FF0CC
:1047700044FE3FF043FE3B8994F858231F49D8F884
:10478000000040F035FFE8E740F032FF3FF035FE33
:104790003FF034FE94F858231949D8F8000040F04F
:1047A00027FF052384F8BE33BB7A022B0AD1B9F167
:1047B000000F07D02846FEF743FE002128463FF0B1
:1047C0000FF96CE70949D8F8000040F011FF3FF0FD
:1047D00014FE3FF013FE3B8994F858230749D8F89C
:1047E000000040F005FFE8E7FC290020A35E050873
:1047F000028805085788050854820508AB88050813
:1048000049710508054B5A78042A06D10122032173
:104810005A700348002200F06DB9704764290020E7
:10482000D988050810B50A4C2378FF2B0DD1042335
:1048300020701C22E0180021637043F056FD002018
:10484000044B2361044BA36110BD0120FCE700BFB2
:10485000642900200000C8420000C07F30B50B4C26
:10486000450104EB401042709DF80C206155027127
:10487000437180ED020AC0ED030A80ED051AC0ED18
:10488000061A80ED072AC0ED042A30BD64290020F5
:1048900010B50D4C2378834214D1002000F004F9A8
:1048A00000220321094800F025F91C220021201DC7
:1048B00043F01BFDFF2300202370054B2361054BB4
:1048C000A36110BD2D20FCE764290020D9880508CC
:1048D0000000C8420000C07F0023F7B5274D0093B9
:1048E000ADF8043005EB40135B7804464701052B17
:1048F00041D8DFE803F003383A3C403E204968469F
:1049000043F01DFDEE1922460321684600F0F2F83F
:10491000737833BB96ED020A2146052000F096F924
:1049200073793D44012B0CBF96ED040A96ED070AFE
:104930002146072000F08AF92146092095ED050A55
:1049400000F084F921460B2095ED030A00F07EF972
:104950002B79022B05D021460D2095ED060A00F09B
:1049600075F903B0F0BD0749C9E70749C7E707492B
:10497000C5E70749C3E70749C1E700BF642900202D
:10498000DF880508D9880508E5880508EB8805084B
:10499000F18805084B89050830B5284B01290546E3
:1049A0000C468BB01871597109D100220621244898
:1049B00000F0A0F800220621224800F09BF8002118
:1049C000242201A8009143F090FC684643F0CCFCFF
:1049D0001D49C0F12702684643F08FFC012D68464F
:1049E00018D143F0C1FC1949C0F12702684643F0D1
:1049F00084FC684643F0B8FCC0F12702CCB91449E6
:104A0000684643F07AFC00226846114600F072F8CE
:104A10000BB030BD43F0A8FC0E49C0F12702684638
:104A200043F06BFC0C2000F01BF80D2000F018F890
:104A3000DFE7022C0CBF08490849E1E764290020A0
:104A400041890508F6880508068905080D890508C5
:104A50001589050811890508228905082F89050887
:104A6000F0B58BB004AC024626460D4B03F110079F
:104A7000254618685968083303C5BB422C46F7D150
:104A800018681B7928602B71012302939B1A0193EC
:104A900000233146009303483FF05EFC0BB0F0BDAD
:104AA0003C890508842900200346F0B56FF0010514
:104AB00001270E4A87B010689288C3EB03130C4E8F
:104AC0000490ADF814205C00C5F10102CDE9015756
:104AD000002330460094D2B204A9023D3FF03CFCD2
:104AE00015F10E0FF0D107B0F0BD00BF4B890508DE
:104AF000842900202DE9F043037806460D4687B04F
:104B000003B34FF00109C1F10108104BC2EB0212CF
:104B1000CDE90189540018680D4F9B88E4B20094D8
:104B20000A460490ADF8143004A93B7809483FF0D8
:104B300013FCCDE9018900942A4631463B780548AB
:104B40003FF00AFC07B0BDE8F08300BF4B890508C1
:104B5000DE8600208429002038B52D4B1C22002140
:104B6000184643F0C2FB40F2FF412A4B021F9361FB
:104B7000294B20F8041C0020136101F0CFFC10B178
:104B80001024204638BD254D284601F02FFD04464F
:104B90000028F5D16FF07F432149C5E9013028464F
:104BA0003FF0C7FB28463FF060FA1E4B22462146E5
:104BB0001D481C70FFF79EFF224601211B48FFF78E
:104BC00099FF224602211A48FFF794FF224603214B
:104BD0001848FFF78FFF224604211748FFF78AFF86
:104BE000224608211548FFF785FF22460A2114486E
:104BF000FFF780FF22460C211248FFF77BFF224679
:104C000006211148FFF776FF3EF038FFB9E700BFF5
:104C1000682900200000C07F0000C84284290020CD
:104C20003C8C0508DE8600200689050851890508A8
:104C3000648905084B8905086C8905087A89050887
:104C40008A8905089B890508AF8905080023FCEEC1
:104C5000C07A2DE9F04188B004938DF81430264BCA
:104C6000054618689B880C46ADF81C3017EE903A44
:104C7000092B06902FD8B8EEE77A30EE470A9FED61
:104C80001F7A20EE070ABCEEC07A17EE902A17EEC4
:104C9000103A1B494FF00108C5F1010704A8C4EB05
:104CA000041407F095FD6400CDE90178154EE4B2D7
:104CB00000942A46337806A913483FF04DFBCDE90E
:104CC000017800942A46337804A90F483FF044FB4A
:104CD00008B0BDE8F081B8EE677A30EE470AB2EE70
:104CE000047A20EE070ABCEEC07A17EE902A17EE7F
:104CF000103A0649CEE700BF4B8905080000C842BC
:104D0000C1890508DE86002084290020CE89050897
:104D10000368094A23F47F4323F00703934204D036
:104D200002F18072934203D07047007BFFF77ABD97
:104D30008079FFF7ADBD00BFA000060008B5084BA5
:104D40004FF484620021184643F0CFFAFF228276A6
:104D500080F8222180F82A2280F8322308BD00BF83
:104D6000A80D0020094900220B4610B58C7E844214
:104D700004D14FF4847101FB023010BD0132042ACA
:104D800001F58471F2D10020F7E700BFA80D0020E3
:104D9000FF282DE9F04107460E46904632D099B3E0
:104DA000A2F11703E32B31D84FF6FF730C889C4216
:104DB0002CD08A889A4229D0CA889A4226D00A8959
:104DC0009A4223D0FF20FFF7CDFF054600B32146CE
:104DD00038461AF073FC044688B94FF484720146D1
:104DE000284643F082FA0B4BAF761A689B88C5F8C9
:104DF00006206B8101236E61A5F818802B70204678
:104E0000BDE8F0812524FAE72224F8E72124F6E71B
:104E10001924F4E7DB890508FF2837B50C4625D0AF
:104E2000FFF7A0FF054618B34CB9983001F062FCBB
:104E300005F1600001F05EFC204603B030BD037850
:104E4000052B03D0082B0AD00220F6E7002341F2FD
:104E50008831084A0093983001F06AFCEDE700239E
:104E600041F28831044A00936030F5E72520E4E7F9
:104E70002D20E2E7593D0408133D0408164B30B5D8
:104E80009842A3F1600206D003F13801884202D0B3
:104E90007033984218D1002411E02B4603F5B47505
:104EA000A8420C460BD003F5D075A84207D003F5F5
:104EB000847503F5EC73984201F1010107D14FF4B9
:104EC000847303FB042030BD13460121E6E7042967
:104ED000E3D10020F7E700BF080E002013B590F8DB
:104EE0002A00FFF73FFF68B100F16004204601F09F
:104EF00001FC00234FF47A71009320460123024AFB
:104F000001F016FC02B010BD133D040870B5054653
:104F100000F07CFB0646284600F064F92B68A94A9D
:104F200023F47F43064023F0070386F001069342F3
:104F3000F6B200F0B2800BD802F17A42934200F050
:104F4000A08002F57D02934220D086F0010070BD62
:104F50009D4A9342F9D12879FFF704FF04460028BF
:104F6000F3D0EB790B2B3DD14269B5F805301188B0
:104F7000994221D16B89042B06D10378012B03D1EF
:104F8000EA6880F82030C261012321E0A879FFF7A8
:104F9000E9FE04460028D8D0D03001F0ABFB04F184
:104FA000600001F0A7FB04F1980001F0A3FB0023CF
:104FB0002370FF23A376C8E7D18899420AD1AD892F
:104FC000983001F097FB2946A07E3EF0A0FE00231A
:104FD0001E43BAE712899A42F9D1A989807E3EF030
:104FE00097FEF4E71B2B01D01D2BAED16169B5F8FC
:104FF000052048899042C7D048889042C4D0C888CC
:10500000904202D009899142E1D11D2B02D1A07EAC
:105010001AF044FB6B89022BB6D16269B5F80530F2
:10502000D1888B4208D012899A420ED0AD89294688
:10503000A07E3EF06DFEA7E7E8791D2817D1E07B42
:105040000228A1D112899A4205D1EA791D2A13D1E9
:10505000227C022A98D18B42AD89E8D104F19800D4
:1050600001F048FB2946A07E3EF051FE8CE71B284C
:10507000E8D1E07B0128E4E71B2AECD1227C012A5D
:10508000E8E72879FFF76EFE00283FF45EAF6B7902
:10509000AA7943EA0223038357E72879FFF762FEE0
:1050A000044600283FF451AFB5F80520037862B3F9
:1050B000092B8CD8012101FA03F010F4127F0AD1D8
:1050C00010F090001BD18B4281D12070E169A07E4D
:1050D000FCF754FF58E7002384F82230A384A37818
:1050E000052B05D102212370A07EFCF7E7FF4BE7DB
:1050F000012B7FF449AF082303212370F4E7022337
:10510000A07E2370FCF7DAFF61E7013B082B3FF636
:105110005EAF01A252F823F03D510008CF4F0008C6
:105120006B510008A3510008CF4F000889510008B7
:10513000D3510008CF4F00085951000894F820308F
:10514000807EE1692BB1022300222370FCF716FF59
:105150003DE701222370F9E78378827C03441A73C8
:105160000223002203700121BEE78378827C03447E
:105170001A7340F20253438020463EF087FC0246F9
:1051800020BB04232370FFE68378827C03441A73D8
:1051900040F2011343803EF079FC0246B0B9072388
:1051A000F0E78378817CC2181173C2789A4205D1E6
:1051B0000022052380F82220828493E70133837044
:1051C000DAE700BFA0000906A00009070223237048
:1051D000C9E78378827C03441A73002280F8222076
:1051E000828488E7F0B50368954A23F47F4323F06F
:1051F00007039342054691B004D0002080F00100DF
:1052000011B0F0BD0079FFF7ADFD04460028F4D0E1
:10521000EB791D2BF1D14369B5F805209B889A42A3
:10522000EBD16B89012B04D8A07E1AF037FA01204C
:10523000E4E72A7B012A4CD0022A00F08F80002A62
:10524000F2D1032BF0D10378B5F80D50052BEBD13B
:1052500090F82230002BE7D090F82170002FE3D196
:10526000838CAB42E0D1D03001F044FA04F128063F
:1052700004F1600001F03EFA304600F0A5F9304636
:1052800084F822700AA93EF0D1FD034600B90A9BBA
:10529000DDF83920DDF83510A07ECDE908129DF843
:1052A000342007929DF833200692DDF82F200592D6
:1052B0009DF82E2004929DF82D2003929DF82C201D
:1052C000CDE901520122009200220021FCF7A0FF4B
:1052D000AAE7052BA8D10378052BA5D190F8223099
:1052E000002BA1D090F82130022B9DD1B5F80D20D4
:1052F000838C9A4298D1D03001F0FCF904F1280651
:1053000004F1600001F0F6F9304600F05DF9002389
:10531000304684F822300AA93EF088FD034600B9E1
:105320000A9BDDF83920DDF83510A07ECDE90812A2
:105330009DF8342007929DF833200692DDF82F2047
:1053400005929DF82E2004922A7C0392EA7B029219
:10535000B5F80D20019201220092B6E7022B7FF4EE
:1053600063AF90F822306D7B002B3FF45DAFD030FF
:1053700001F0C0F994F82330BBB1012D06D104F13E
:10538000600001F0B7F9002384F822300026A07EE7
:1053900032462B46032184F823603EF03BFD2A462B
:1053A0003146A07E3EF038FD3EE7002394F8211000
:1053B00084F82230012901D0042904D12B4600228F
:1053C000A07E3EF027FD94F82130012B31D013F060
:1053D000FD0F7FF429AF04F12806304600F0F4F801
:1053E00030460AA93EF022FD034600B90A9BDDF8CB
:1053F0003910DDF8356094F82120A07ECDE90861F0
:105400009DF8341007919DF833100691DDF82F10A8
:1054100005919DF82E1004919DF82D1003919DF893
:105420002C100291A18CCDE90051911E4A424A41B3
:105430004BE72A460021A07E3EF0EDFCF4E600BFDB
:10544000A000090738B50024054650F051F9074B74
:105450001B681BB950F047F9204638BD93F82A2045
:10546000AA4208BF1C461B68F3E700BFB029002012
:105470002DE97043044616460D46037B86B023F0A3
:10548000180343F010038161037301460D483EF099
:10549000A8FFD4E90489217BCDE90489227981F030
:1054A0000403C1F3400101910292226B294600924C
:1054B00020463246C3F380033EF07CFC06B0BDE8D4
:1054C000708300BFB02900202DE9F0410C469046C2
:1054D0001E46054686B000286FD000296DD04B6867
:1054E000002B6AD0002A68D08B7BFF2B67D00A7C08
:1054F0004FF6FF73002A52D0B8F802209A425ED0CD
:105500002368002B57D0A389173B9BB2E32B52D8BB
:1055100050F0EEF807462B4B1B68002B42D1A07BC6
:10552000FFF790FF00283FD101AB04F1100C1A46A1
:1055300020686168083403C264451346F7D12068C7
:10554000002110603822284642F0CFFE01AC05F160
:105550001C030DF1140C224603CA62451860596001
:10556000144603F10803F6D1106818609DF8303036
:1055700085F82460EB842B7BC5F8348043F0080366
:105580002B73AE800EB1731E9EB229460D48EE807D
:105590003EF018FF384650F0A6F8002008E0B8F8B2
:1055A0000A20ABE79D42B7D1384650F09CF82E2038
:1055B00006B0BDE8F0812120FAE72220F8E7252097
:1055C000F6E700BFB029002070B50546C8B150F01D
:1055D0008FF806460C4B1B682BB92D24304650F033
:1055E00082F8204670BD9D42F5D12C7B14F010044A
:1055F00005D1062201212846FFF73AFFEEE70224F3
:10560000ECE72224EDE700BFB02900200368764ACA
:1056100023F47F4323F0070393422DE9F047054627
:105620001BD002F1C06202F5403293421BD002F15E
:10563000794293420CD10079FFF704FF40B1B5F8ED
:105640000520038D9A4203D013220221FFF710FF99
:10565000002080F00100BDE8F0878079FFF7F2FEBE
:105660000028F1D1F4E7C3791D2B01D01B2BEFD11A
:105670002879FFF7E7FE04460028E9D090F82B20B0
:10568000EB79F2B91D2BE3D094F82C00B5F8052086
:10569000616BC0B149889142DAD11D2B02D12879C2
:1056A00019F0FCFF6A89D2B2012A03D9208DC31EEA
:1056B00093420AD22B2202212046FFF7D9FE012075
:1056C000C7E71B2BDFE74989E5E7297B94F824C06E
:1056D000CF074FEA910301F002061BD5A380237B7D
:1056E00043F001032373A38826B1217B238141F07A
:1056F000020121739C4564D8E18CFF2901D09942B5
:105700005FD304385843E169013A83188B4251D979
:105710001D22D0E7277BF9071BD4E6464FF001098D
:1057200047F001072773A3805FFA8EF1994203D3F4
:1057300061890B446381D6E709FA0EF8D4E9047154
:1057400047EA080741EAE871C4E904710EF1010E65
:10575000EAE7B4F806E0A3EB0E0101F03F010139DE
:105760000EF101095FFA81F859FA81F189B23F29F6
:1057700084BF47F004072773A180217B490705D424
:105780004FF0010A013BDBB29E4501D34346CFE710
:1057900063450CD3E18C994209D3D4E904710AFA28
:1057A00003F947EA090741EAE971C4E90471013BD9
:1057B000DBB2E9E72363236A05F10D01184442F0E7
:1057C000C6FD2046A188FFF789FBA288E38CE28012
:1057D0009A4205D0002E3FF472AFFF2B7FF46FAFDB
:1057E0000022114668E700BFA0000601092838B56D
:1057F000044615D90B4D0C4928683FF0F9FE3EF0E0
:10580000FCFD3EF0FBFD2246084928683FF0F0FE13
:10581000074B2246054918683FF0EAFE002038BDD4
:105820000420FCE7FC2900205C5E0508E1890508EE
:10583000B03500202DE9F341044690F80280084677
:105840000D4617461E46FFF7D1FF40440130802821
:105850002FD9344E344930683FF0CAFE3EF0CDFDBA
:105860003EF0CCFD2846D6F80080A678FFF7BEFFB4
:105870000136831980271C262A462C494046DBB274
:10588000CDE900763FF0B4FE294B2846D3F80080DE
:10589000A478FFF7ABFF013403192A464046CDE94F
:1058A00000762249DBB23FF0A3FE304602B0BDE8ED
:1058B000F0816378AB4219D926261A4F1A49386805
:1058C0003FF096FE3EF099FD3EF098FD00962A4688
:1058D0006378184938683FF08BFE154800962A46D1
:1058E0006378144900683FF083FEDEE7A37828461A
:1058F000F554A37801331E44FFF778FF394602467A
:10590000304642F024FD28466570FFF76FFFA3780C
:10591000013318442378C0B20133A070E0702370C3
:105920000020C3E7FC2900205C5E0508FC8905080F
:10593000B0350020658A05082DE9F0479946C378FF
:1059400004460D461746002B34D13A4E3A4930688A
:105950003FF04EFE3EF051FD3EF050FD1B232A4627
:10596000364930683FF044FE35481B232A46334908
:1059700000683FF03DFE4FF01B086378092B17D9F4
:105980002C4E2D4930683FF033FE3EF036FD3EF0A0
:1059900035FD26232A462B4930683FF029FE28484A
:1059A00026232A46274900683FF022FE4FF02608AA
:1059B000002625E04FF00008DFE717F806A0504664
:1059C000FFF714FF5545024617D1711C484639446C
:1059D00042F0BDFC2378012B04D9013B23704046E3
:1059E000BDE8F08700213846E27842F07EFC0023D3
:1059F00023706370A370E370F1E701321644F6B2CE
:105A0000E378B342D9D80B4C0B4920683FF0F0FD46
:105A10003EF0F3FC3EF0F2FC2A460B4920683FF0D2
:105A2000E7FD074B2A46084918683FF0E1FD4FF0B3
:105A30000108D4E7FC2900205C5E0508C18A05083E
:105A4000B0350020FB8A05081B8B050870B52DEDCD
:105A5000028B144684B0072800F23A81DFE810F088
:105A60000800300038013801500097003801D0009C
:105A7000994B9A4D186829B199493FF0B9FD984959
:105A8000286846E0D2ED007A9FED968A67EE887A24
:105A9000FCEEE77A944917EE902A3FF0A9FDD4ED89
:105AA000007A67EE887AFCEEE77A17EE902A8E4944
:105AB000286804B0BDEC028BBDE870403FF098BD93
:105AC000854B864D186821B188493FF091FD874983
:105AD000D6E7D2ED007A9FED838A67EE887AFCEEF6
:105AE000E77A834917EE902A3FF082FDD4ED007AE1
