S02B0000433A2F55736572732F6D706D656E2F53696D706C696369747953747564696F2F424C452D7468657319
S31508000000A80D002071620008EB3D0408EB3D0408CA
S315080000107D5E0408EB3D0408EB3D0408EB3D04084F
S31508000020EB3D0408EB3D0408EB3D0408EB3D0408F2
S31508000030EB3D0408EB3D0408BD360408EB3D040817
S31508000040EB3D0408EB3D0408EB3D0408EB3D0408D2
S31508000050EB3D0408EB3D0408EB3D0408EB3D0408C2
S31508000060EB3D0408EB3D0408EB3D0408FD110108CF
S31508000070517F0408EB3D0408EB3D0408EB3D0408FA
S31508000080EB3D0408EB3D0408EB3D0408EB3D040892
S31508000090EB3D0408AD700008EB3D0408EB3D040891
S315080000A0EB3D0408B96C0008996C0008EB3D0408A0
S315080000B0EB3D040851EE020825F702086D310508E4
S315080000C06931050899EE020883310508713105087A
S315080000D0F5F602087531050865F70208CDF7020836
S315080000E0EB3D0408EB3D0408EB3D0408EB3D040832
S315080000F025530408EB3D0408EB3D0408EB3D0408D2
S31508000100EB3D0408EB3D0408EB3D0408EB3D040811
S31508000110EB3D0408EB3D0408EB3D0408EB3D040801
S31508000120EB3D0408EB3D0408EB3D0408EB3D0408F1
S31508000130EB3D0408EB3D0408EB3D0408EB3D0408E1
S31508000140EB3D0408EB3D0408EB3D04082157050880
S3150800015065D80208EB3D0408573105085D310508E6
S31508000160EB3D0408EB3D0408EB3D0408EB3D0408B1
S31508000180F0B5114A114C124E00F00105E3695F07FC
S3150800019013D40DB9334213D103EA00078F4207D1AE
S315080001A00B4A1A40002A0CBF00206FF00100F0BD70
S315080001B0013AEBD16FF00200F9E74FF0FF30F6E7AE
S315080001C06FF00100F3E700BF809698000000035027
S315080001D0020001000B4B70B5D96911F480310DD1BD
S315080001E001244FF48072084E084DF46020462C64B2
S315080001F01A61FFF7C5FF3464EC6070BD6FF001004B
S31508000200FBE700BF00000350001003500020035016
S315080002104FF4803238B50E4B0E4C9A66E56941F6B6
S31508000220713315400122E3630B4B0021DA60022388
S31508000230606121202361FFF7A3FF10B92120FFF792
S315080002409FFF0122054BDA600DB10023E36338BD39
S315080002500090005000000350001003500020035087
S3150800026070B5134C6061E3695B071ED40E4656F8F9
S31508000270043B8D18A361AE420BD104230021212033
S315080002802361FFF77DFF58B9BDE870402120FFF7CD
S3150800029077BF08210846FFF773FF10B104232361CF
S315080002A070BD56F8043BA361E5E74FF0FF30F7E76A
S315080002B0000003502DE9F84315464FF48032184BD9
S315080002C089469A6603F51C33DF690646174041F6E8
S315080002D07132DA63012203F58053DFF84C80DA6065
S315080002E055B9284601220F4BDA601FB10022A3F543
S315080002F00053DA63BDE8F88306F5005404EA0804F7
S31508000300A41BAC4228BF2C46494622463046FFF776
S31508000310A7FF0028E6D12644A1442D1BE0E700BF2D
S31508000320009000500020035000E0FFFF000000008E
S3150800033000000000000000000000000000000000AF
S31508000340013800D0FCE770472DE9F04F93B0CDE9AE
S315080003500A32DDE91C530E9353EC102BCDE9080144
S31508000360104619468DED060B1E9E11F0A3FD80B1B1
S31508000370DDE906014FF0FF32C54B11F0C3FD40B968
S31508000380DDE906014FF0FF326FF4801311F09CFD92
S3150800039070B1DDE908019DED060B0E9B1E96CDE9B1
S315080003A01C53DDE90A3213B0BDE8F04F00F088B9F6
S315080003B00022DDE90601002311F086FD002800F081
S315080003C03381DDE906A303F1004BCBF30A5016F49B
S315080003D08063A0F2FF3008BF06250F9311F098FA44
S315080003E09BA3D3E9002311F0FDFA9BA3D3E90023CD
S315080003F011F042F9CBF31304894644F07F51804645
S315080004000022A44B504641F4401111F033F994A34D
S31508000410D3E9002311F0E6FA02460B464046494660
S3150800042011F02AF911F078FD044611F071FA8EA33D
S31508000430D3E900238046894611F0D4FA0022964B68
S3150800044011F01AF911F068FD89A3D3E900230746CC
S315080004504946404611F0C6FA80463846894611F0A4
S3150800046057FA85A3D3E9002311F0BCFA02460B46D6
S315080004704046494611F0FEF802460B46CDE90C23E4
S3150800048011F0B0FADDE90C23804689461046194674
S3150800049011F0F2F80022CDE91001804B404649469A
S315080004A011F0CAFB00227E4B11F0E6F802460B4615
S315080004B04046494611F0C0FB00227A4B11F0DCF8A1
S315080004C002460B464046494611F0B6FBDDE90C23C9
S315080004D08046894600204FF0804111F0CBF802464D
S315080004E00B464046494611F0C7F802460B46DDE979
S315080004F0100111F0A1FB07F2FF3700226A4B11F039
S31508000500BBF800223B0511F06DFA52465B46804661
S31508000510894611F0F7FC002840F08980CDE90C895E
S3150800052004F16303C72B34BF0427052731051BD500
S3150800053053A3D3E900235046594611F0D9FC0028A5
S315080005407FD051A3D3E900235046594611F0BCFC8D
S31508000550002876D00027A542C6BF2C1B04F1FF351C
S3150800056000253C4646F480660E9B9F422CBF4FF002
S315080005700008A3EB070816F0020903D0002F18BFDE
S315080005804FF000083CB1DDE90C235046594611F0FE
S3150800059053FB82468B46DDE906010022002311F053
S315080005A093FC10B10BF100439B46DDE9080126F4E4
S315080005B00063CDE90183DDE90A324BEC10AB009507
S315080005C000F07EF802465FB3DDE9091316F0200F46
S315080005D000F10105089E0CBF65204520B047DDE9FE
S315080005E008010523002205930A23002CCDE90232CF
S315080005F007F1FF374FEAD473B8BF64422A4601931E
S3150800060004970A9B009445F08EFD0246B9F1000F47
S3150800061006D00B9BC41A0B9B1A190E9BA34245D8EE
S31508000620104613B0BDE8F08FDDE906ABCDE6002233
S31508000630404649461A4B11F0FFFA013CCDE90C0138
S315080006406EE7002D90D00F9B002B8DD0013D8BE7D8
S31508000650FB799F501344D33FB3C8608B288AC63FA3
S3150800066061436F63A787D23F71A379094F930A4005
S315080006701655B5BBB16B0240EF39FAFE422EE63F7E
S315080006802D431CEBE2361A3F0000000080842E4101
S31508000690FFFFEF7F0000F83F0000E03F00002C401E
S315080006A000002440000018400000F03F2020DDE94B
S315080006B00913089DA8470134ADE700BF00000000F4
S315080006C02DE9F04F5BEC10AB97B0CDE90501DDE9FC
S315080006D02057CDE90723504652465B465946229E87
S315080006E011F0E8FB70B90323CDE902760193B04B0C
S315080006F00093DDE90501DDE9072345F034FC17B071
S31508000700BDE8F08F4FF0FF326FF48013504659461C
S3150800071011F0DAFB28B10423CDE902760193A54B43
S31508000720E6E74FF0FF3250465946A34B11F0EAFB75
S3150800073068B1A24A06F00403002B08BF0322A04BA7
S315080007401CBF13460422CDE902760192D0E7504633
S3150800075093A3D3E90023594611F0D4FB38B992A3E1
S31508000760D3E900235046594611F0AEFB68B1DDE9DE
S315080007700723DDE905014BEC10ABCDE92176209581
S3150800078017B0BDE8F04FFFF7DFBD00220023504643
S31508000790594611F099FB002800F09A805B465246AC
S315080007A00020002110F066FF012382468B4609933C
S315080007B016F4806400F08E80092D40F28E800024A5
S315080007C030210EABA5F109020134202C03F8011BD8
S315080007D0A5EB040901D09442F6D15946504611F0CA
S315080007E09BFB784B054603EBC90393ED007B8DED28
S315080007F00A7B11F08DF802460B465046594610F012
S3150800080039FFDDE90A2311F0EDF802460B46CDE97A
S315080008100C2311F0A9FB804611F06AF802460B4634
S31508000820DDE90C0110F026FF02460B46CDE90C2344
S315080008300022654B11F066FB002851D008F101082B
S31508000840404611F055F802460B46DDE90A0111F05B
S3150800085045FB10B14FF000080135B9F1000F50D132
S31508000860284611F055F802460B465046594610F0F0
S3150800087001FF0022544B8046894611F025FB30B112
S31508000880002240464946504B11F03CFB10B1E807A0
S3150800089000D501350A210EAB1A19202C0AD095FB72
S315080008A0F1F001FB1055303502F8015B01340546BD
S315080008B00028F2D106F00302012A57D1002F55D09D
S315080008C0099A12B916F00C0F00D0013F302245E004
S315080008D009906DE74FF006097FE7A94600247CE7F3
S315080008E00022DDE90C01384B11F0EEFA0028B4D1EC
S315080008F0B8F1000F02D018F0010FAED008F10108C8
S31508000900ABE70A210EAB2344202C0ED0B8FBF1F03E
S3150800091001FB1082B8F1090F02F1300209F1FF3923
S3150800092004F1010403F8012B11D83021A1440EAAC1
S31508000930202CAFD0A14504F101030AD11C4609F1C8
S3150800094058030DEB03092E2309F8203CA2E780463D
S31508000950DAE7A1541C46EBE71A550134A74205D934
S31508000960202CF9D1CDE902760194C1E6202CF9D0E4
S31508000970099A3AB12D2104F158026A4402F8201C5A
S315080009800134EFE7710704D504F158022B216A44B4
S31508000990F4E73207E6D504F1580220216A44EDE768
S315080009A00000000065CDCD410000000065CDCDC139
S315080009B03093050834930508FFFFEF7F2793050852
S315080009C02C930508409305080000E03F000000004E
S315080009D02DE9F04F2DED028B002597B01D7003937E
S315080009E0229B074607911D60002800F03C8143784A
S315080009F0047844EA0324837844EA0344C37844EA3F
S31508000A00036463783F2B00F22E81AA4214BF0623A3
S31508000A1008238DF8243009230C958DF82630427961
S31508000A20037908469FEDA48B43EA02234A790434E6
S31508000A30023292008DF825200AAA0092043B9BB246
S31508000A402146007909AA8DED0A8B3AF029F90A9B05
S31508000A500646049360B1049B23B10C991846C91A3B
S31508000A6045F03DF9304617B0BDEC028BBDE8F08F76
S31508000A700B98039DC01A40102870C0B200EB4000C6
S31508000A808F49800052F09FFB8346002800F01081B2
S31508000A902B788DED0E8B1096002B00F0FA803346DE
S31508000AA002960299E279591A8A42B246B04600F28B
S31508000AB0AC8004D202991144994218BF0F91002ABA
S31508000AC040F0AD807A783B7894F802E043EA022356
S31508000AD0BA7894F803C043EA0243FA7808EB480167
S31508000AE043EA026300220BEB810514925A781878C0
S31508000AF085F802E085F803C002F00F03E2798DED70
S31508000B00128B6A7194F906202A710BF821000EAA35
S31508000B106B70204612AB09A938F0A2F88146002866
S31508000B203BD01298149910B1091A45F0D8F8039BCE
S31508000B301B78F3B100252C462E4604EB44040BEB38
S31508000B408404627A207A40EA0220A27A40EA0240C5
S31508000B50E27A50EA026000F0968045F0BEF8039B00
S31508000B6001351B7826726672A672E672ECB29C4252
S31508000B70E3D3584645F0B1F80023029A1099891A2A
S31508000B80039A1370029B13B1184645F0A8F8049B04
S31508000B904E46002B7FF461AF64E7DDE91232D21AC4
S31508000BA0104647490693059252F00DFBC0F3072CF1
S31508000BB085F809C0C0F3074C85F80AC04FEA106CDF
S31508000BC0069B287285F80BC0002865D0059A002A6E
S31508000BD035D185F8069085F80790002B40D1049BFF
S31508000BE00AF1010A33F81820E3795FFA8AF83344E0
S31508000BF0DEB2039B14441B7843453BD90F9B0299ED
S31508000C00E279591A8A427FF654AF511A0EA837F07C
S31508000C10C9FF0E9BE2790293002A3FF453AF079867
S31508000C204378017841EA0321837841EA0341C3788E
S31508000C30029841EA0361314447F015FA42E719463A
S31508000C400692059347F00FFA069A1499059BAA711E
S31508000C50C2F30722EA71C91A184645F040F8BEE7FA
S31508000C601499C91AF8E70B26304617B0BDEC028B63
S31508000C70BDE8F08F229B1099C3F800B0029BC91AF1
S31508000C80002B81D183E70135ECB29C42FFF455AFC6
S31508000C906FE7229B1860DEE63BB114991846C91A1D
S31508000CA045F01DF84FF0020941E74FF002093EE70B
S31508000CB00226D0E6AFF30080000000000000000026
S31508000CC0202206080348044B834202D0034B03B193
S31508000CD0184770479899002098990020000000004E
S31508000CE0064B0749C91A891048BF0131491003D074
S31508000CF0044B0BB101481847704700BF989900206C
S31508000D00989900200000000010B5064C237843B9D6
S31508000D10FFF7D8FF044B13B10448AFF30080012353
S31508000D20237010BDB476002000000000182D0608B8
S31508000D3008B5054B1BB105490548AFF30080BDE86A
S31508000D400840FFF7CDBF00BF00000000D014002008
S31508000D50182D0608A3F5803A704700BF174B002BDD
S31508000D6008BF134B9D46FFF7F5FF00218B460F463C
S31508000D701348144A121A47F090F90E4B002B00D06C
S31508000D8098470D4B002B00D09847002000210400FF
S31508000D900D000D48002802D00C48AFF3008011F072
S31508000DA093FC2000290047F0D5F811F0DDFA00BFC2
S31508000DB0000008000000000000000000A80D002048
S31508000DC0A80D0020A09000200000000000000000F0
S31508000DD013B5094C237863B9022304200093074A04
S31508000DE04FF4805306490EF0DBF80028A4BF012310
S31508000DF0237002B010BD00BFB6860020B57600206D
S31508000E00685A050830B5154B87B01B780546144651
S31508000E10019103B342F036FC4FF41B630D22CDF863
S31508000E200D00CDF81110042002A902938DF80C507C
S31508000E300EF08AF804220DEB020110460EF084F833
S31508000E40019B21461A0202F4E062C3F30723042039
S31508000E501A430EF079F807B030BD00BFB5860020FA
S31508000E6030B5144B05461B7885B003F0FF04F3B183
S31508000E70FF2928BFFF210C4642F004FC04F10902B1
S31508000E8013029BB243EA122343F0807343F0B00384
S31508000E900D22CDE900300291042069468DF80C40F8
S31508000EA00EF052F82246294604200EF04DF8204648
S31508000EB005B030BDB58600200122014B1A70704777
S31508000EC0B58600201FB542F0DDFB084B0391CDE93E
S31508000ED001300C22042001A90EF036F804200EF089
S31508000EE091F80028FAD105B05DF804FBB0080002B5
S31508000EF037B504461AF042F8054600284AD1A368D1
S31508000F0043F40033A36048F08EF9A368244A43F4F7
S31508000F10A013A360A261257745F013F8A368A08003
S31508000F201B030CD4B0F5FA7F09D954F0B0FA0121A5
S31508000F300546084653F04CFA284654F0A3FA2046CC
S31508000F401AF044F838BBE06838B31CF099F818F082
S31508000F507FF818F0BBFE4BF0D6F949F046FD40F293
S31508000F600443ADF80430FF2301A88DF8063013F0CA
S31508000F70AFFB0022042011464AF02EFC0321042070
S31508000F801BF0ECF90A2013F007F819F0D7FF2046F2
S31508000F9042F08FFB002003B030BD0248D5E700BF02
S31508000FA0050403001296002008B50449044824F0F5
S31508000FB0DDFEBDE8084024F00BBF00BF785A0508DF
S31508000FC03C5B05084FF08052014B5A60704700BFE2
S31508000FD000ED00E0F8B50E460546D0B1C9B10E4B96
S31508000FE00E4F1968386807F04FF8044678B9062393
S31508000FF032460B49386807F015F9044638B9012313
S315080010002A460849386807F00DF900B12C702046C1
S31508001010F8BD2124FBE700BF9C920020BC9200206B
S315080010202C0004003C00040007B5084B1878FF287C
S3150800103002D024F0D3F930B14FF6047301A8ADF805
S31508001040043046F013FF03B05DF804FB2396002036
S3150800105010B50D4C0D4805F04DFB23780BB124F067
S3150800106017FAFF220A4B01211A700022094B227037
S315080010709A70152219705970DA701A7100F03EFBD1
S31508001080BDE8104000F02CB9B7860020E81400200F
S3150800109023960020B886002038B500F06BF9044680
S315080010A000F0BCF9C0B10E4D2B789BB90D4B1B78DF
S315080010B0FF2B11D1032C11D80B4C2279E178A0789B
S315080010C024F0BCF938B90121207824F0CDF910B9FB
S315080010D001232B70002038BD0220FCE71D20FAE70B
S315080010E0B786002023960020B8860020F0B505466E
S315080010F085B00E4600F03EF95DB3194F3B78FF2BDD
S3150800110029D1032829D8002342F21071154A164816
S31508001110009305F00DFB0446A0B901460DF10F0337
S3150800112000936A792B79286843EA022363F30F014F
S315080011300E4B32461B7824F0C3F8044628B10A48F9
S3150800114005F0D8FA204605B0F0BD9DF80F303B7083
S31508001150F8E72224F6E70224F4E71D24F2E700BFA5
S315080011602396002029100008E8140020B8860020DD
S31508001170036837B523F47F43504A23F007039342A5
S31508001180044621D009D8A2F5A022934217D002F529
S315080011908022934273D003B030BD494A93424AD065
S315080011A002F57F029342F6D1464B1B78002BF2D00C
S315080011B0454B1B78FF2BEED100F11E0369E003B007
S315080011C0BDE83040FFF744BF3F4B017B1A78914298
S315080011D0E1D1C27A012ADED1FF223A4D3B481A7084
S315080011E005F088FA2B784BB124F052F908B34FF67C
S315080011F0047301A8ADF8043046F038FE607A227A06
S31508001200012342EA00226168207B00F077F830B1BA
S315080012104FF6047301A8ADF8043046F027FE002304
S315080012208DF80430237B8DF8053001A846F01EFEA4
S31508001230B1E72870E2E7244D80792B78834205D1FF
S31508001240224805F057FAFF232B70A4E700F0AAF806
S315080012500028A0D0A07900F0CFF800289BD0A0796C
S3150800126000F070F830B14FF6047301A8ADF80430F9
S3150800127046F0FCFD02238DF80430A379D3E7114B21
S315080012801B78002B87D0104B1B78FF2B83D100F1DE
S31508001290160394F90D20E17A601D42F016FA00282B
S315080012A03FF479AF11283FF476AF2D3801287FF641
S315080012B072AF4FF60473ADF80430B6E7A000060027
S315080012C0A0000601B786002023960020E814002017
S315080012D0024B187880F00100704700BFB7860020DF
S315080012E0FF22044B1A701A721A741A760022024BDD
S315080012F01A707047BD860020DD86002073B56C46DF
S3150800130084E8060000220D4911F8326001EBC20597
S31508001310FF2E0ED101F832000098094AC5F80200DE
S3150800132000206B70A388EB8013780133137002B02A
S3150800133070BD0132042AE7D11A20F8E7BD860020DD
S31508001340DD8600200023094A12F83310814208D1AD
S31508001350FF2102F83310064A00201378013B137068
S3150800136070470133042BEFD12D207047BD8600202E
S31508001370DD860020014B1878704700BFDD86002007
S31508001380002210B5064911F83240D300844202D132
S31508001390981C084410BD0132042AF4D10020F9E74C
S315080013A0BD8600200023064A12F83310814204D075
S315080013B00133042BF8D1002070470120704700BF85
S315080013C0BD86002070B5044680B10026094D15F883
S315080013D0023CFF2B05D006222146284646F033FE5E
S315080013E030B10136042E05F10805F0D1002070BD94
S315080013F00120FCE7BF86002001460022064B18782C
S31508001400884202D15878012805D00132042A03F10E
S315080014100803F4D100207047BD860020024B1888C7
S31508001420003818BF01207047201500202DE9F04F1D
S315080014308E4D90462E7893B0320789469A464FF0DD
S315080014400004009035D4F30647D4F7074CD44FF080
S31508001450000B9AF800305F46013B0D9306F0040333
S3150800146008932B7ACDE901BB00936B6809936B78D7
S3150800147003F001030B9395F86430049395F86530EF
S315080014800693069A049B13440C9395F85C300393D1
S3150800149095F85D300593059A039B13440A9306F065
S315080014A002030F9306F02003079306F040031093F8
S315080014B07BE04FF00804002705F1090B0622009986
S315080014C00BEB070046F0BFFD0028BCD006373C2FC3
S315080014D0F4D1002013B0BDE8F08F95F8453044F0FC
S315080014E010044B45F5D1B0E795F9023044F00104F4
S315080014F04345ACDBEDE70AEB07035D7893F802900A
S315080015000F9B002B36D0A9F10803012B32D8089A75
S31508001510234644F002041ABB009BAB4230D2F81CA7
S31508001520009A0999504446F08EFD002808BF4FF0EE
S31508001530010B079B002B00F08580B9F1210F40F0C5
S3150800154081800A9B44F020049D42C2DD039B059AD4
S31508001550D91903314648514446F075FD10B3B8E72A
S3150800156043F00604009BAB42E3D2009A6B1E9342FB
S31508001570DFD1D4E7109B1BB1A9F10203012B2ED9A9
S315080015803006D6D5A9F10603012BD2D84FF00008AC
S31508001590BA1C44F080046B1E0E9298453DDB079BEF
S315080015A0002B4FD101353D44EFB20D9B9F42A2DB84
S315080015B016F0060F02D0BBF1000F8AD0710602D5CD
S315080015C0019B002B85D0320602D5029B002B80D0CA
S315080015D0264BA4B21888031B584258417AE74FF0A5
S315080015E000086B1E0E9344F04004BB1C0E9A9045EF
S315080015F09FDA03EB0801013102221E485144119378
S3150800160046F021FD0028019B08BF012308F10208C6
S3150800161001935FFA88F8119BE8E711930E9B102255
S3150800162003EB080101311448514446F00CFD00282B
S31508001630029B08BF012308F1100802935FFA88F895
S31508001640119BAAE70B9B002BACD0B9F1FF0FA9D1D0
S315080016500C9B44F480749D427FF73BAF049B069A2B
S31508001660D91903310548514476E700BF20150020F3
S3150800167078150020661500206815002080150020C2
S31508001680F8B506460D461746FFF722FEB8B1C6B1AD
S31508001690284644F0DDF90D4C6060A0B12A46314673
S315080016A046F02DFD2378257243F0020323700FB907
S315080016B00020F8BD237843F004032370F8E70220DE
S315080016C0F7E72120F5E71920F3E700BF20150020EA
S315080016D010B50446FFF7FCFD50B15CB10020228826
S315080016E0054BA3F846201A7842F040021A7010BD3E
S315080016F00220FCE72120FAE72015002010B5FFF7A5
S31508001700E7FDF0B1104C606818B144F0AEFA00235A
S315080017106360A06D18B144F0A8FA0023A365206E93
S3150800172018B144F0A2FA002323660020FE23A07015
S31508001730207284F84530A4F85C00A4F86400208080
S3150800174010BD0220FCE700BF2015002000234FF043
S31508001750FF320449C818CA5006333C2B8280F9D197
S31508001760FFF7CCBF29150020034A0449002808BF03
S315080017701146022023F0F2BFF45B0508EC5B05086E
S3150800178038B504460B4890F85823A2420FD00A4DA4
S315080017900A49286843F004FE42F007FD42F006FDB8
S315080017A022460749286843F0FBFD002038BDA0F50E
S315080017B08050FBE788250020FC290020FC5B0508F3
S315080017C0015C05082DE9F04FFF2807468846934631
S315080017D09A4689B000F09483002900F09383002B81
S315080017E000F09083139B002B00F08C83129B002B38
S315080017F000F088839E4EDFF89C929E49306843F03D
S31508001800CFFD09F5805542F0D0FC42F0CFFC3A46B0
S315080018109949306843F0C4FD95F85833FF2B1DD01D
S315080018209649306843F0BCFD42F0BFFC42F0BEFC6E
S315080018309349306843F0B4FD9049306843F0B0FDF1
S3150800184042F0B3FC42F0B2FC3A468E49306843F0A7
S31508001850A7FD1C24204609B0BDE8F08F41F2DC3212
S315080018600021484646F019FC4846002141F090FF01
S315080018704FF0FF33C5F8403317230024A5F8523339
S31508001880B5F83C33214603F0F00343F4867340F67B
S31508001890980209F6A410A5F83C33C9F8A04946F001
S315080018A0FCFB4922414605F2F22085F8544385F8A7
S315080018B0587346F024FC95F800936E4995F8FE8215
S315080018C0306843F06DFD42F070FC42F06FFCCDF8D5
S315080018D00090434695F858236B49306843F060FDFD
S315080018E023462246694995F8580323F051FD0446D4
S315080018F098B16249306843F053FD42F056FC42F015
S3150800190055FC634995F85823306843F049FD2D2165
S315080019102246604801F09AFA9CE795F85C33ABB921
S3150800192095F8580323F0E6FD044678B15349306824
S3150800193043F036FD42F039FC42F038FC564995F83A
S315080019405823306843F02CFD2E21E1E7BBF8003020
S31508001950524E474DA6F8513213F0FF0328682FD18F
S31508001960444943F01DFD42F020FC42F01FFC96F866
S3150800197058234B49286843F013FD129B494AC6F879
S315080019806C33139B96F8511296F8F502C6F868A3BD
S31508001990C6F8703338F0CEFD044600283AD03749E9
S315080019A0286843F0FDFC42F000FC42F0FFFB2346AA
S315080019B03D493A46286843F0F3FC21243021A7E73D
S315080019C0012B0AD12B4943F0EBFC42F0EEFB42F027
S315080019D0EDFB96F858233549CCE7022B0AD1254961
S315080019E043F0DEFC42F0E1FB42F0E0FB96F85823B8
S315080019F02F49BFE72F4943F0D3FC42F0D6FB42F00C
S31508001A00D5FB96F8513296F858232B49286843F0A7
S31508001A10C7FCB2E70A21234801F0E8FC0446154949
S31508001A20286843F0BDFC42F0C0FB42F0BFFB2346EA
S31508001A3096F858232149286843F0B2FC96F85803CB
S31508001A40FFF79EFE00F5805494F8F5328246022B85
S31508001A5047D194F8FF32072B00F24781DFE813F0ED
S31508001A603000C30045014501EE004501450100016E
S31508001A70FC290020435C0508485C0508FC5B050852
S31508001A807D5C0508985C0508C85C0508E428002004
S31508001A90245D050888150020545D05088825002062
S31508001AA0835D0508B9280020FC5E0508D85D050891
S31508001AB0365E0508865E05088B5E0508335F0508F1
S31508001AC00123C34984F86B32286843F069FC42F065
S31508001AD06CFB42F06BFB94F85823BE49286843F028
S31508001AE05FFC94F8F5B294F8FF32BBF1010F84F865
S31508001AF0003320D194F803932868B9F1020F00F057
S31508001B000981B9F1FE0F00F02781B9F1010FB24939
S31508001B1040F0328143F044FC42F047FB42F046FB7A
S31508001B2094F85823AD49286843F03AFC84F804939E
S31508001B30002384F86B32B6F8213363BB0DF11E031C
S31508001B40049307AB039396F82F33029396F8003362
S31508001B50019396F85132009396F8303396F8F222AC
S31508001B6096F8F61296F8F50201F0FEF804460028F3
S31508001B7000F052810F2C286840F00D81964943F0F9
S31508001B800FFC42F012FB42F011FB96F858239449D9
S31508001B90286843F005FCB6F82B330293B6F82933C8
S31508001BA00193B6F825330093B6F82333B6F819230C
S31508001BB0B6F8171396F8580323F0AEFB0446002828
S31508001BC000F04A818749286843F0EAFB42F0EDFABB
S31508001BD042F0ECFA8449234696F85823286843F0DD
S31508001BE0DFFB312194E6B8F1010F286818D87A4945
S31508001BF043F0D6FB42F0D9FA42F0D8FA94F85823C3
S31508001C007A49286843F0CCFB01222921504601F085
S31508001C101DF9002384F8FF32012384F86B3260E74C
S31508001C20022384F86B326A4943F0BAFB42F0BDFAE4
S31508001C3042F0BCFA94F858236D494FE7B9F1010F01
S31508001C402868D4D9022384F86B32614943F0A8FB8B
S31508001C5042F0ABFA42F0AAFA94F8582365493DE7F0
S31508001C60B9F1010F11D9B8F1010F1ED9042358494A
S31508001C7084F86B32286843F093FB42F096FA42F0F8
S31508001C8095FA94F858235C4928E70122292101F09E
S31508001C90DDF8B9F1010F0FD1B8F1020F28680BD1A1
S31508001CA084F86B8284F8FF92BDE70122292101F0AE
S31508001CB0CDF8B9F1020F0ED04749286843F070FBFA
S31508001CC042F073FA42F072FA94F8582347492868A2
S31508001CD043F066FB9DE7B8F1010F2868ECD10423B1
S31508001CE084F86B9284F8FF32AFE73B49286843F0E3
S31508001CF057FB42F05AFA42F059FA94F858233F49EA
S31508001D00286843F04DFB012384F86B32002384F8DE
S31508001D10FF32E6E6B8F1010F2F4909D943F040FB37
S31508001D2042F043FA42F042FA94F858233449FAE664
S31508001D3043F036FB42F039FA42F038FA94F8582361
S31508001D403049286843F02CFB5A462A21504684F825
S31508001D5004B301F07BF8EBE61D4943F021FB42F0A2
S31508001D6024FA42F023FA94F8FE3294F858232649C6
S31508001D70286843F015FBD9E643F012FB42F015FA42
S31508001D8042F014FA94F858232049286843F008FBCF
S31508001D9084F803B3CCE60A2C0AD10F4943F000FBBA
S31508001DA042F003FA42F002FA96F858231849EFE689
S31508001DB00C4943F0F5FA42F0F8F942F0F7F91549FB
S31508001DC0234696F85823286843F0EAFA32219FE515
S31508001DD0435C0508695F0508865E0508D160050845
S31508001DE04B620508FC5B0508956305089C5F0508BA
S31508001DF0DD5F05081060050843600508766005087C
S31508001E00186105085F610508AA610508EF610508FC
S31508001E10A7620508ED620508BDF81C303A49A6F820
S31508001E201733A6F81933BDF81E302868A6F81B33F1
S31508001E30A6F81D3343F0B4FA42F0B7F942F0B6F902
S31508001E40B6F81D3331490093B6F8193396F8582376
S31508001E50286843F0A5FA9EE6FF22384696F8F3125C
S31508001E6023F082FA044680B12949286843F098FA93
S31508001E7042F09BF942F09AF92649234696F85823E8
S31508001E80286843F08DFA332142E56FF48972224BB4
S31508001E9096F858039A18191F01F0C8F90746A8B109
S31508001EA01B49286843F07CFA42F07FF942F07EF934
S31508001EB03B4696F858231949286843F071FA3A467A
S31508001EC02F21174800F0C2FF0124C3E40E492868F1
S31508001ED043F066FA42F069F942F068F996F8582331
S31508001EE01049286843F05CFA149B1BB196F86433D2
S31508001EF0149A137000220A48114601F0E9FFA9E472
S31508001F002524A7E42224A5E4435C050844630508C0
S31508001F10FC5B0508DF630508EC2800202264050839
S31508001F20881500205D64050810B5134C41F2DC32B3
S31508001F300021204646F0B1F8FF2204F5805383F8C5
S31508001F40582383F8C1234FF0FF32C3F840231722E2
S31508001F50A3F852234FF486720021A3F83C2304F613
S31508001F60A41040F6980246F098F82046BDE81040BE
S31508001F70012141F00DBC00BF881500202DE9F04174
S31508001F80064688461746FFF7FBFB434C054698B9B5
S31508001F904249206843F004FA42F007F942F006F98C
S31508001FA032463F49206843F0FBF92222272128467A
S31508001FB0BDE8F04100F04ABF05F5805696F83C3377
S31508001FC02068DB0712D518F0010F0FD1334943F00B
S31508001FD0E7F942F0EAF842F0E9F896F85823314969
S31508001FE0206843F0DDF93A460B21E0E787B12B4933
S31508001FF043F0D6F942F0D9F842F0D8F896F85823C3
S3150800200029493B46206843F0CBF93A460C21CEE7EE
S31508002010264943F0C5F942F0C8F842F0C7F84346E6
S3150800202096F858232249206843F0BAF996F83C13E3
S3150800203096F8580341F04CFC074688B117492068C2
S3150800204043F0AEF942F0B1F842F0B0F896F85823EA
S3150800205018493B46206843F0A3F93A460D21A6E7FE
S31508002060032196F8580341F077FC074688B10B49D7
S31508002070206843F095F942F098F842F097F896F8F8
S3150800208058230D493B46206843F08AF93A460E2103
S315080020908DE7BDE8F08100BFFC290020FC5B050840
S315080020A08B640508BA64050820650508435C0508BD
S315080020B061650508A0650508E06505082DE9F04194
S315080020C086B007460E461546FFF75AFB0446A8B9DA
S315080020D0494D4A49286843F063F942F066F842F0E8
S315080020E065F83A464649286843F05AF922220E21ED
S315080020F0204606B0BDE8F04100F0A8BEA5B1DFF85D
S31508002100F8803E49D8F8000043F04AF942F04DF805
S3150800211042F04CF8009533463A463A49D8F800005A
S3150800212043F03EF92A46E2E7022E57D0032E22D084
S31508002130012E2FD100F5805696F85033052B29D15C
S315080021400C23032196F8580386F8503341F004FC13
S315080021500546F8B1284F2949386843F021F942F075
S3150800216024F842F023F82B4696F85823264938686F
S3150800217043F016F9D6E700F5805696F850330C2B3F
S315080021800BD0012103AA8DF80C1001F0A1FE05233E
S3150800219086F8503306B0BDE8F08100F6A41240F682
S315080021A0980196F8580341F053FB05460028EED0EF
S315080021B0114F1249386843F0F3F841F0F6FF41F041
S315080021C0F5FF96F858232B461049386843F0E8F887
S315080021D02A460F21204600F039FED8E707230121B9
S315080021E000F5805484F8503384F8545303AA8DF8C4
S315080021F00C1001F06DFECDE7FC290020FC5B0508FC
S315080022001B66050858660508E06505089966050809
S315080022102DE9F04F87B00646DDE918BA89461D460E
S31508002220DDF85480FFF7ACFA044680B9504D5149A1
S31508002230286843F0B5F841F0B8FF41F0B7FF3246D9
S315080022404D49286843F0ACF82222112120E000F518
S31508002250805696F83D330BB300F6A41240F6980163
S3150800226096F8580341F0F4FA0746B8B1404D41498B
S31508002270286843F095F841F098FF41F097FF96F8E3
S3150800228058233E493B46286843F08AF83A460F21C8
S31508002290204607B0BDE8F04F00F0D8BDB5B1344FC1
S315080022A03449386843F07CF841F07FFF41F07EFFFF
S315080022B02B4696F858233249386843F071F85BEA9A
S315080022C00A0A51D0062D4FD02A46BEE7B9F1000FAB
S315080022D04AD0274F2B49C4F8A089386843F060F8DC
S315080022E041F063FF41F062FF94F8A53994F8A41908
S315080022F096F8582303F00F03CDF8008041EA03232C
S315080023003868214943F04CF894F8A52994F8A4397B
S3150800231002F00F0204F6A41943EA0223D4F8A0191E
S315080023202A46ADF81430484696F8C033CDE90398E6
S315080023308DF8175041F041FA08218DF8160003AAC6
S31508002340204601F0C5FD044670B10A49386843F0D5
S3150800235027F841F02AFF41F029FF234696F858232B
S315080023600A49386843F01CF807B0BDE8F08F00BF8B
S31508002370FC290020FC5B0508DF6605089966050848
S3150800238023670508435C050865670508A967050806
S315080023902DE9F0410368B04A23F47F4323F007038D
S315080023A09342044692B000F023832ED802F17F426E
S315080023B0934200F03D830FD802F17F42934200F02A
S315080023C0038202F53002934200F0CE82002080F0AC
S315080023D0010012B0BDE8F081A04A934248D002F548
S315080023E040329342F2D10079FFF7CAF9002840F04B
S315080023F0A3829B4D9B49286842F0D2FF41F0D5FE47
S3150800240041F0D4FE2279984942E0984A934200F076
S31508002410418413D802F17E42934200F0CD8302F53F
S315080024202D029342D2D10079FFF7AAF90028CDD020
S31508002430637900F5805080F8F332C7E78C4A9342F7
S3150800244000F0CF8102F1FC729342BFD1844D8549D9
S31508002450286842F0A5FF41F0A8FE41F0A7FEA3793F
S315080024608449009363792279286842F099FFADE799
S315080024700079FFF785F9074670B9794D79492868D3
S3150800248042F08EFF41F091FE41F090FE22797A49A2
S31508002490286842F085FF99E7B4F8052000F58055CD
S315080024A093B2A5F85A23B5F819239A4203D3B5F877
S315080024B017239A4277D96A4E7049306842F070FFFE
S315080024C041F073FE41F072FEB4F80510B5F8173303
S315080024D095F858230191B5F81913009130686849A1
S315080024E042F05EFF95F85E33A3BB5D4E63493068E4
S315080024F042F056FF41F059FE41F058FE95F8582330
S315080025006049306842F04CFFB5F82BC3B5F8233361
S31508002510B5F81923B5F8171395F85803CDF808C078
S31508002520B5F829C3CDF804C0B5F825C3CDF800C061
S3150800253022F0F2FE002869D05049306842F030FF98
S3150800254041F033FE41F032FE95F858234E49306883
S3150800255042F026FF012385F85E33E37A002B59D033
S3150800256095F85033002B40F03A8195F858031CF043
S3150800257033FF3B4E0446002850D005284ED0394933
S31508002580306842F00DFF41F010FE41F00FFE95F85D
S3150800259058233E49306842F003FF22460521384653
S315080025A000F054FC12E7B5F82323B4F807309A4232
S315080025B014D02B4E3149306842F0F2FE41F0F5FD59
S315080025C041F0F4FDB4F80710B5F8233395F858230D
S315080025D000912F49306842F0E3FE83E7B5F82523DA
S315080025E0B4F809309A42B5D01D4E2449306842F0F5
S315080025F0D7FE41F0DAFD41F0D9FDB4F80910B5F877
S31508002600253395F8582300912249E3E795F85E3378
S31508002610002BA2D1012385F85E33D7E6012795F86A
S31508002620584385F850732046FFF7AAF80546A8BB15
S315080026300C49306842F0B4FE41F0B7FD41F0B6FDF2
S3150800264022461549306842F0ABFE22222721284649
S3150800265000F0FCFBC3E000BFA0005902A000060280
S31508002660FC290020FC5B0508DF6C0508A00059055D
S31508002670A0000906D16F0508F0670508865E0508FB
S315080026805468050867690508B1690508126A0508E6
S31508002690D3680508176905084B6A050800F58054CC
S315080026A094F90A23394694F8043394F858030092A7
S315080026B0002222F08DFF074680B1BD49306842F0FE
S315080026C06FFE41F072FD41F071FD94F85823B94947
S315080026D0306842F065FE3A462821B8E794F8580370
S315080026E022F066FF074688B1B149306842F058FEC5
S315080026F041F05BFD41F05AFD94F85823AE493B463C
S31508002700306842F04DFE3A462C21A0E794F805C3FE
S3150800271094F8F53294F8082394F8061394F85803B5
S31508002720CDF834C094F8FCC2CDF830C094F8FDC298
S31508002730CDF82CC094F802C3CDF828C094F8FBC293
S31508002740CDF824C005F5995C0CF1110CCDF820C024
S3150800275094F8F4C2CDF81CC094F801C3CDE9057C01
S3150800276094F8FA72049794F8F972039794F8F77242
S31508002770029794F8F872019794F8F672009722F087
S3150800278043FF074688B18A49306842F009FE41F09E
S315080027900CFD41F00BFD94F8582388493B463068F8
S315080027A042F0FEFD3A462B2151E78549306842F052
S315080027B0F7FD41F0FAFC41F0F9FC94F858238149F9
S315080027C0306842F0EDFD0AE00079FEF7D9FF0028EF
S315080027D03FF4FCAD012300F5805080F85D330120FD
S315080027E0F5E50079FEF7CCFF064658B9764D7049EF
S315080027F0286842F0D5FD41F0D8FC41F0D7FC227993
S31508002800724945E600F5805595F8580323798342C1
S315080028107FF4DCADB4F80540BCB16B4F6449386849
S3150800282042F0BEFD41F0C1FC41F0C0FC95F85823CA
S315080028306749386842F0B4FD95F85033032B3FF4E6
S31508002840C5AD224607213046AAE695F85033012B36
S315080028501FD0022B7FF4BAAD304600F077FB95F80F
S315080028603D33002B46D0B5F84633002B42D1564CA3
S315080028704F49206842F094FD41F097FC41F096FCE0
S3150800288095F858235349206842F08AFD0122092108
S3150800289014E0D5F840134B1C12D14B4C4449206820
S315080028A042F07EFD41F081FC41F080FC95F858230A
S315080028B04949206842F074FD012206213046C7E6E0
S315080028C0022385F850331CF097FD0446002886D06D
S315080028D03D4F3749386842F063FD41F066FC41F0E8
S315080028E065FC95F858233D49386842F059FD22465B
S315080028F00821E3E706F59A51B5F8272395F8580312
S31508002900043102F045FA044690B12F4F2849386839
S3150800291042F046FD41F049FC41F048FC95F8582341
S315080029202F492346386842F03BFD22460A21C5E76F
S31508002930032385F8503352E700F59A5600F59A5561
S31508002940284F0436103504F1090802224146384654
S3150800295045F079FB10B9B4F8053033800236AE423B
S3150800296007F10207F1D131E50079FEF709FF0546BF
S3150800297058B9154D0E49286842F012FD41F015FC6C
S3150800298041F014FC2279184982E50222174804F11D
S315080029900A0145F058FB00287FF418ADD4F8052045
S315080029A005F580532846C3F8402300F08DFA0DE557
S315080029B0FC5B0508746A0508A56A0508E06A050847
S315080029C0435C0508206B0508FC2900204F6B0508A9
S315080029D0B66B0508506C0508E36B05080E6C050810
S315080029E0A56C05089C950020416D0508A895002052
S315080029F00079FEF7C5FE58B9BD4DBE49286842F0B4
S31508002A00CFFC41F0D2FB41F0D1FB2279BA493FE530
S31508002A100421231D0F9300F5805393F8F522022A0B
S31508002A2004BF627A83F8C1230FAA01F051FAD6E6E9
S31508002A300079FEF7A5FEAE4F064658B9AD49386887
S31508002A4042F0AEFC41F0B1FB41F0B0FB2279AB4954
S31508002A5038681EE500F07AFAA37B06F5805585F8F6
S31508002A60603294F8243041F2532185F8673294F89D
S31508002A70213085F8683294F8223085F8693294F85E
S31508002A80233085F86A32B5F85A33A5F86C32E37FF5
S31508002A9085F86632A37F85F86532237F85F8633229
S31508002AA0637F85F86432637C85F86232237C85F817
S31508002AB06132637B85F85F32237B85F85E32E37A81
S31508002AC085F85D32D4F8122073187250D4F816209F
S31508002AD006F59B515A60628B1A8195F8F62295F88D
S31508002AE05803019295F8F522009206F59252113292
S31508002AF000F008FC044698B17E49386842F050FC5C
S31508002B0041F053FB41F052FB95F858237C49234684
S31508002B10386842F045FC22462F21304600F096F9E7
S31508002B207849386842F03CFC41F03FFB41F03EFBF7
S31508002B3095F858237449386842F032FC95F82E43C4
S31508002B40B5F81B33B5F81F2395F8061395F85803FF
S31508002B50099495F82D43089495F80743079495F931
S31508002B600943069495F8F342059495F800430494AE
S31508002B70D5F813430394D5F80F430294B5F82143C7
S31508002B800194B5F81D43009422F09CFD04460028E4
S31508002B903FF425AE5749386842F002FC41F005FB80
S31508002BA041F004FB95F8582358492346386842F003
S31508002BB0F7FB22461E2146E60079FEF7E1FD0746A9
S31508002BC000283FF403AC4A4E4E49306842F0E8FB11
S31508002BD041F0EBFA41F0EAFA22794D49306842F0C1
S31508002BE0DFFB4FF6FF7307F58055B5F83C229A428E
S31508002BF015D195F8BE33063B012B38D80523414934
S31508002C0085F8BE33306842F0CBFB41F0CEFA41F08E
S31508002C10CDFA95F858233F49306842F0C1FB95F83C
S31508002C20BE33063B012B22D895F880330133DBB23D
S31508002C300A2B85F8803322D900214FF6FF733846D0
S31508002C4085F88013A5F83C3240F0A2FD05232D49EE
S31508002C5085F8BE33306842F0A3FB41F0A6FA41F08E
S31508002C60A5FA95F858232B49306842F099FB0123B9
S31508002C70062138460F948DF843300FAAD5E6214928
S31508002C80306842F08DFB41F090FA41F08FFA2279D4
S31508002C90214995E50079FEF773FD054600283FF4BE
S31508002CA095AB05F5805393F8BE33114E063B012BC1
S31508002CB03068144912D942F073FB41F076FA41F0B4
S31508002CC075FA22791549306842F06AFB0023072114
S31508002CD028460F948DF843300FAAA6E642F060FB0B
S31508002CE041F063FA41F062FA22790D4968E500BFBE
S31508002CF0FC290020FC5B05089C6D0508076E050885
S31508002D0022640508435C05085D640508686E0508C5
S31508002D10AF6E0508E96E05081C6F0508586F0508AB
S31508002D208C6F05081FB50B46032810D8DFE800F09E
S31508002D3002111313094C2068616801AA03C221898C
S31508002D4001AC1180128803CC1A811860596004B04E
S31508002D5010BD034CEFE7034CEDE700BFAB71050868
S31508002D60517005085C7005082DE9F7439DF82C405D
S31508002D700F46DDE90D969DF828108DF803409DF85D
S31508002D8030408DF800208DF801308DF802108DF84E
S31508002D900440B9F1000F50D0002E4ED0022A4ED072
S31508002DA0032B4ED001284CD0012905D10623A9F8BA
S31508002DB00030262333801FE0012A04D1022904BFEC
S31508002DC000238DF80230DFF880800024454605226E
S31508002DD06946404645F037F938BB04EBC4042B195D
S31508002DE05A799979B3F8073042EA0122FF2FA9F8F0
S31508002DF000209AB2338003D1002003B0BDE8F083E7
S31508002E00B9F80030B7EE047A07EE903AF8EEE77AAA
S31508002E1067EE877AFCEEE77A17EE903A9BB203F1F3
S31508002E201301B1FBF3F31344C4E70134B4F5A27FED
S31508002E3008F10908CBD12D20DFE72120DDE70A209C
S31508002E40DBE70F20D9E700BF677005082DE9F041D9
S31508002E500446194F0E46154638686CB9174942F0AC
S31508002E609FFA41F0A2F941F0A1F92A4638681449B7
S31508002E70BDE8F04142F094BA04F580540F49D4F8FD
S31508002E80708342F08DFA41F090F941F08FF92B46A4
S31508002E9094F858230B49386842F082FAB8F1000FC3
S31508002EA007D02A463146434694F85803BDE8F04110
S31508002EB01847BDE8F08100BFFC290020FC5B050827
S31508002EC0B5710508E5710508F7B500F5805595F85B
S31508002ED0BD73044687BB95F8BC3300F59C5604368B
S31508002EE023B1304603F006FC85F8BC730023304650
S31508002EF0009340F6B8312346104A03F019FC0646FB
S31508002F00B8B10F4F0F49386842F04AFA41F04DF907
S31508002F1041F04CF995F8582333460B49386842F086
S31508002F203FFA32460221204603B0BDE8F040FFF7DB
S31508002F308DBF012385F8BC3303B0F0BD6D37040897
S31508002F40FC290020FC5B050812720508F8B5054641
S31508002F5000F59C50043003F0CDFB05F58056044679
S31508002F60B0B10D4F0D49386842F01AFA41F01DF913
S31508002F7041F01CF996F8582323460949386842F067
S31508002F800FFA22462846BDE8F8400421FFF75EBF3F
S31508002F90A6F8BC03F8BD00BFFC290020FC5B0508A9
S31508002FA04D72050870B504460D460F2900F20681D4
S31508002FB0DFE811F015011000240034004400540025
S31508002FC06400740084009400A400B400C400D40013
S31508002FD0E400F400824D8349286842F0E1F941F0A3
S31508002FE0E4F841F0E3F8012304F5805494F85823F3
S31508002FF07D492868BDE8704042F0D2B9784D7949D4
S31508003000286804F5805442F0CBF941F0CEF841F037
S31508003010CDF8022394F858237449EAE7704D7449A9
S31508003020286804F5805442F0BBF941F0BEF841F037
S31508003030BDF8032394F858236E49DAE7684D6949C1
S31508003040286804F5805442F0ABF941F0AEF841F037
S31508003050ADF8042394F858236749CAE7604D6149D7
S31508003060286804F5805442F09BF941F09EF841F037
S315080030709DF8052394F858236049BAE7584D5949ED
S31508003080286804F5805442F08BF941F08EF841F037
S315080030908DF8062394F858235949AAE7504D514903
S315080030A0286804F5805442F07BF941F07EF841F037
S315080030B07DF8072394F8582352499AE7484D494919
S315080030C0286804F5805442F06BF941F06EF841F037
S315080030D06DF8082394F858234B498AE7404D41492F
S315080030E0286804F5805442F05BF941F05EF841F037
S315080030F05DF8092394F8582344497AE7384D394945
S31508003100286804F5805442F04BF941F04EF841F036
S315080031104DF80A2394F858233D496AE7304D31495A
S31508003120286804F5805442F03BF941F03EF841F036
S315080031303DF80B2394F8582336495AE7284D294970
S31508003140286804F5805442F02BF941F02EF841F036
S315080031502DF80C2394F858232F494AE7204D214986
S31508003160286804F5805442F01BF941F01EF841F036
S315080031701DF80D2394F8582328493AE7184D19499C
S31508003180286804F5805442F00BF941F00EF841F036
S315080031900DF80E2394F8582321492AE7104D1149B2
S315080031A0286804F5805442F0FBF840F0FEFF40F032
S315080031B0FDFF0F2394F858231A491AE7084E0949C0
S315080031C0306804F5805442F0EBF840F0EEFF40F02A
S315080031D0EDFF2B4694F85823134930680AE770BD6B
S315080031E0FC290020FC5B05088B720508BF720508E0
S315080031F0435C0508FA720508397305088E730508D5
S31508003200C773050804740508447405087674050828
S31508003210BB740508F47405085A750508B3750508DE
S31508003220037605085F7605089D7605082DE9F041C1
S315080032300646174698460D46C9B10B68BBB10846FF
S3150800324034F038FB044688B1284D2949286842F0ED
S31508003250A7F840F0AAFF40F0A9FF234632462549C1
S31508003260286842F09DF82046BDE8F0812860284687
S315080032702EF09CFE044660B11C4D1D49286842F09C
S315080032808FF840F092FF40F091FF234632461A49E4
S31508003290E6E7414628462EF0D5FF044660B1134DB1
S315080032A01349286842F07CF840F07FFF40F07EFF23
S315080032B0234632461149D3E77B78002BD3D02846DC
S315080032C034F032FB05460028CDD0084C0849206862
S315080032D042F066F840F069FF40F068FF20682B4628
S315080032E03246074942F05CF82C46BCE7FC29002028
S315080032F0FC5B0508CE760508067705083C770508C1
S31508003300797705082DE9F8430E46054611783046C3
S3150800331099469DF820709DF824802EF095FE044667
S3150800332088B12C4E2C49306842F03AF840F03DFFFF
S3150800333040F03CFF23462A462849306842F030F8D8
S315080033402046BDE8F883012F02D0022F18BFFF27B9
S31508003350B8F1010F04D0B8F1020F18BF4FF0FF08FB
S315080033604246394630462EF07FFE044660B1194E75
S315080033701949306842F014F840F017FF40F016FF7C
S3150800338023462A461649D8E7494630462EF08EFE89
S31508003390044660B10F4E1049306842F001F840F01B
S315080033A004FF40F003FF23462A460E49C5E7304688
S315080033B037F0AAF804460028C2D0064E06493068F7
S315080033C041F0EEFF40F0F1FE40F0F0FE23462A46BB
S315080033D00549B2E7FC290020FC5B0508B17705081A
S315080033E0E97705082F7805087078050838B5044682
S315080033F088B10346014400208B421AD0002213F8F4
S31508003400014B44FA02F5ED0702F1010248BF01300B
S31508003410082AF6D1F0E7074D0749286841F0C0FFAA
S3150800342040F0C3FE40F0C2FE0449286841F0B8FFE8
S31508003430204638BDFC290020FC5B0508AE78050847
S315080034402DE9F04F0446002797B000F584730393DF
S315080034500893D0F8043100F58055ADF8243000F60D
S31508003460A41304930A93D0F8A03912AEADF82C3001
S3150800347008AB0E930AAB0F93431C0593109303787E
S31508003480ADF846708DF8443095F8C0338DF8453060
S3150800349005F511730FCB07C6337004F59B5601214A
S315080034A030460EAA37F0BCFD804601462046FFF797
S315080034B079FDB8F1000F23D0B8F1030FDFF83C907F
S315080034C000F02C830B49D9F8000041F069FF40F061
S315080034D06CFE40F06BFE95F8582343460649D9F82A
S315080034E0000041F05DFF42463A212046FFF7AEFC58
S315080034F077E200BFFC5B0508F27E0508FC29002080
S31508003500002304F593570E3738460693079340F081
S3150800351020FC95F8F6924146B9F1FF0918BF4FF01D
S31508003520010930464A4607AB2FF05CF8804601464B
S315080035302046FFF737FDB8F1000F40F0A38104F5E8
S31508003540935341463846123307AA02F073F9834665
S31508003550002800F0A981DFF86C83D549D8F8000067
S3150800356041F01EFF40F021FE40F020FE5B4695F834
S315080035705823D049D8F8000041F012FF4FF0000850
S3150800358095F8F632FF2B2DD000210222304607ABE4
S315080035902FF028F8824601462046FFF703FDBAF1C8
S315080035A0000F40F09D8104F59353012138461233EC
S315080035B007AA02F03FF98246002800F0A181DFF849
S315080035C004B3BB49DBF8000041F0EAFE40F0EDFD2C
S315080035D040F0ECFD534695F85823B749DBF8000050
S315080035E041F0DEFE4A46022106AB30462EF0FAFFCF
S315080035F0824601462046FFF7D5FC04F58055BAF108
S31508003600000F40F0808104F59353022138461233A7
S3150800361006AA02F00FF98246002800F08481DFF836
S31508003620A4B2A349DBF8000041F0BAFE40F0BDFDA4
S3150800363040F0BCFD534695F85823A049DBF8000036
S3150800364041F0AEFE95F8F632FF2B2DD00222304619
S31508003650114606AB2EF0C6FF824601462046FFF706
S31508003660A1FCBAF1000F40F0618104F593530321E0
S315080036703846123306AA02F0DDF88246002800F022
S315080036806581DFF840B28A49DBF8000041F088FE20
S3150800369040F08BFD40F08AFD534695F8582388493B
S315080036A0DBF8000041F07CFE4A46002106AB3046B6
S315080036B02EF040FD824601462046FFF773FC04F5CE
S315080036C0805BBAF1000F40F0448104F5935304215E
S315080036D03846123306AA02F0ADF88246002800F0F2
S315080036E04681784D7249286841F05AFE40F05DFDE2
S315080036F040F05CFD53469BF858237349286841F00F
S315080037004FFE9BF8F632FF2B2AD0002102223046C4
S3150800371006AB2EF00FFD824601462046FFF742FC17
S31508003720BAF1000F40F0268104F593530521384677
S31508003730123306AA02F07EF88246002800F0288195
S31508003740604D5B49286841F02BFE40F02EFD40F0A5
S315080037502DFD53469BF858235C49286841F020FE06
S3150800376003238DF83030DBF80B3330460CA9CDF83F
S3150800377031302EF0BFFC824678B1524D4C4928684C
S3150800378041F00EFE40F011FD40F010FD53469BF847
S3150800379058234F49286841F003FE4A46012106ABE3
S315080037A030462EF01FFF824601462046FFF7FAFBF9
S315080037B004F58055BAF1000F40F05B8104F5935388
S315080037C006213846123306AA02F034F88246002843
S315080037D000F0E180DFF8ECB03549DBF8000041F095
S315080037E0DFFD40F0E2FC40F0E1FC534695F8582333
S315080037F03849DBF8000041F0D3FD95F8512295F8D9
S31508003800F532022A34D1022B32D195F83033013BF6
S31508003810012B2DD803214A46304606AB2EF0E2FE90
S31508003820824601462046FFF7BDFBBAF1000F40F07D
S31508003830338104F5935307213846123306AA01F05B
S31508003840F9FF8246002800F0C480DFF878B01849EE
S31508003850DBF8000041F0A4FD40F0A7FC40F0A6FC10
S31508003860534695F858231C49DBF8000041F098FDAB
S3150800387095F8F532012B00F0B980B8F1000F00F089
S31508003880B080AAE0DFF83CB00949DBF8000041F057
S3150800389087FD40F08AFC40F089FC434695F858239A
S315080038A00E49DBF8000067E64FF0010868E600BF3E
S315080038B0FC5B0508F778050875790508057A050893
S315080038C08B7A0508FC290020237B0508B27B0508AE
S315080038D0537C05089C7C0508647D0508367905082F
S315080038E0DFF8DCB2B249DBF8000041F059FD40F0E0
S315080038F05CFC40F05BFC534695F85823AD496DE6F1
S315080039004FF001086EE6DFF8B8B2A949DBF8000007
S3150800391041F046FD40F049FC40F048FC534695F816
S315080039205823A5498AE64FF001088BE6DFF890B2DE
S315080039309F49DBF8000041F033FD40F036FC40F0CB
S3150800394035FC534695F858239C49A9E64FF00108DB
S31508003950AAE69B4D9649286841F022FD40F025FCD1
S3150800396040F024FC53469BF858239649C6E64FF088
S315080039700108C6E6924D8E49286841F011FD40F0CF
S3150800398014FC40F013FC53469BF858238E49E4E692
S315080039904FF00108E4E6079B8DF830000CA9304685
S315080039A0CDF831302EF0A6FB824601462046FFF7B9
S315080039B0F9FABAF1000F43D195F8512295F8F53284
S315080039C0022A08D1022B06D195F83033013B012B88
S315080039D05FD995F8F532012B06D0D5F86863002E25
S315080039E078D117B0BDE8F08F4FF001084A4601219B
S315080039F0304606AB2EF09EFB814601462046FFF771
S31508003A00D1FAB9F1000F57D104F593530921384675
S31508003A10123306AA01F00EFF81460028DDD0684E53
S31508003A206349306841F0BCFC40F0BFFB40F0BEFB88
S31508003A304B4695F858236549306841F0B1FC1CE7B8
S31508003A40DFF87C815A49D8F8000041F0A9FC40F01B
S31508003A50ACFB40F0ABFB53469BF858235C49D8F8BF
S31508003A60000041F09DFC9BF85132022B9BF8F53281
S31508003A70A7E7DFF84CB14E49DBF8000041F090FCAF
S31508003A8040F093FB40F092FB534695F85823514972
S31508003A90AFE64FF00108BDE6DFF824B14449DBF88C
S31508003AA0000041F07DFC40F080FB40F07FFB534670
S31508003AB095F858234849D7E6414E3D49306841F0C4
S31508003AC06FFC40F072FB40F071FB4B4695F85823AB
S31508003AD04249B1E7237804F5935285F8C433631C49
S31508003AE0C5F8C833D4F804311232C5F8CC33039B71
S31508003AF0C5F8D033D4F8A039C5F8D433049BC5F833
S31508003B00D8330023019304F59E5304330093B5F884
S31508003B103C123B4695F85803B04762E795F8583388
S31508003B20394630460DAACDE90C778DF830302EF09F
S31508003B3065FB064601462046FFF734FA36BB284998
S31508003B40D9F8000041F02CFC40F02FFB40F02EFB8A
S31508003B5095F858232349D9F8000041F021FCD5F8F7
S31508003B606C3313B131460CA898471D49D9F80000A3
S31508003B7041F016FC40F019FB40F018FB95F8582365
S31508003B801949D9F8000041F00BFC2AE70849D9F889
S31508003B90000041F005FC40F008FB40F007FB334607
S31508003BA095F858231149D9F8000041F0F9FBDCE7EC
S31508003BB0FC5B0508BD790508487A0508D77A050823
S31508003BC0FC2900206D7B0508057C0508DD7D0508B8
S31508003BD0E07C0508257D0508A37D0508177E0508F0
S31508003BE0435C05084C7E0508C37E0508797E0508F2
S31508003BF02DE9F04F0446CB7900F580550A68D5F8CB
S31508003C00400285B004F58478EBB1118902F11306F8
S31508003C10C1F30B01A5F83C12117C85F8C013577B3C
S31508003C2092F80EA092F8119010B90421C4F8041164
S31508003C30D4F8041101F5847020440831C5F840020F
S31508003C40C4F8041109E0517A02F10C0685F8C0138C
S31508003C50977992F807A092F80A904FF0000B83F034
S31508003C6001030093414695F8C133D5F840023FF069
S31508003C70DBFFD4F8042102F5847222445FFA8BF341
S31508003C804B4529D3A2EB0802012FC4F80421274C7F
S31508003C9011D00F2F46D0002F46D02549206841F075
S31508003CA07FFB40F082FA40F081FA95F858232149C3
S31508003CB0206841F075FB00251F49206841F070FB1C
S31508003CC040F073FA40F072FA1C49206841F068FB2C
S31508003CD0284605B0BDE8F08F314611F8030BBAF156
S31508003CE00F0F00F0030002F1010310D160F07F000E
S31508003CF010702278B078767804EB020C01328CF8D2
S31508003D0001600BF1010B22700E181A46B6E7107007
S31508003D10B2781846039144F0F2F90346B27803994B
S31508003D201344E6E70125C7E70225C5E7FC29002075
S31508003D30FC5B05082F7F0508435C05085F7F0508BF
S31508003D4073B5044651F0A8FC054650F0C3FF0C4E67
S31508003D5004F580540B49C4F87803306841F020FB19
S31508003D6040F023FA40F022FA0095D4F8783394F814
S31508003D7058230549306841F013FB02B070BD00BFF7
S31508003D80FC290020435C0508717F050838B500F555
S31508003D9080540546002194F8062394F8580321F028
S31508003DA0C9FC80B9154D1649286841F0F9FA40F062
S31508003DB0FCF940F0FBF994F858231249286841F0B9
S31508003DC0EFFA042038BD252815D105F59C500B4D72
S31508003DD0043002F08FFC0A49286841F0E1FA40F005
S31508003DE0E4F940F0E3F994F858230749286841F0C4
S31508003DF0D7FA0220E6E70920E4E700BFFC290020FD
S31508003E00435C0508AE7F0508F47F0508F8B500F59C
S31508003E108054054694F8061394F8580321F03EFC9E
S31508003E20D4F86033254EB3B105F59B5033F042FD07
S31508003E30074680B12249306841F0B2FA40F0B5F938
S31508003E4040F0B4F93B4694F858231E49306841F0CF
S31508003E50A7FA0120F8BD41F2DC320021284644F0D9
S31508003E601CF91949306841F09BFA40F09EF940F078
S31508003E709DF994F858231549306841F091FAFF23C3
S31508003E8084F858334FF0FF33C4F840331723A4F8A7
S31508003E905233B4F83C3340F6980203F0F00343F487
S31508003EA08673A4F83C33002405F6A4102146C5F809
S31508003EB0A04944F0F2F82046CCE700BFFC290020D0
S31508003EC0FC5B05082A800508435C0508648005082C
S31508003ED02DE9F0430F46904606468FB0B8B9B84C60
S31508003EE0B849206841F05CFA40F05FF940F05EF9A5
S31508003EF0FF22B549206841F053FA2222352130467F
S31508003F00FEF7A4FF222528460FB0BDE8F0830A294C
S31508003F1000F5805421D1AA4D00F59C50043002F0DA
S31508003F20E9FBA849286841F03BFA40F03EF940F021
S31508003F303DF994F85823A549286841F031FA092330
S31508003F4084F8BE333046D8F8042098F80010FEF7F7
S31508003F507DFF0025C7E017469846092F4FF0010553
S31508003F6040F0C180002194F8062394F8580321F004
S31508003F70E1FB054690B9924D9549286841F010FA3B
S31508003F8040F013F940F012F9286894F8582391493B
S31508003F9041F006FA082584F8BE5338E241F20C03CC
S31508003FA0984205D041F21203984201D025281BD128
S31508003FB006F59C50043002F09DFB3046FFF726FFBD
S31508003FC00546002840F00A837D4E8149306841F055
S31508003FD0E7F940F0EAF840F0E9F894F858237E4902
S31508003FE0306841F0DDF9D6E7DFF8D4817549D8F8AD
S31508003FF0000041F0D5F940F0D8F840F0D7F82B4644
S3150800400094F858237549D8F8000041F0C9F92323D4
S3150800401084F8BE738DF82C300C9586E0002F7FF45B
S3150800402072AF674D6A49286841F0BAF940F0BDF8A1
S3150800403040F0BCF894F858236949286841F0B0F96B
S31508004040012384F8BE33E2E1012F7FF45CAF98F8D0
S315080040500030002B62D05A4F5D49386841F0A0F90C
S3150800406040F0A3F840F0A2F894F858235D49386860
S3150800407041F096F9022294F83D33A4F8BE23002BAA
S315080040803FF469AF40F6980194F8580306F6A4126F
S315080040903FF0DEFB0546A0B14A49386841F080F991
S315080040A040F083F840F082F894F858234E492B469E
S315080040B0386841F075F92A460F213046FEF7C6FEE4
S315080040C021E74349386841F06BF940F06EF840F053
S315080040D06DF894F858234549386841F061F94FF06E
S315080040E000080227012594F8BE33082B3FF60BAFCC
S315080040F001A252F823F000BF1D40000849400008FD
S3150800410031410008F941000879450008CB43000809
S31508004110594500086F450008BF450008092384F87B
S31508004120BE3336230C978DF82C300A210BAAE2E110
S31508004130022F7FF4E8AE94F85D3343B9092384F877
S31508004140BE332C238DF82C3001230C93EDE7012187
S3150800415094F8062394F8580321F0ECFA40BB009033
S3150800416006F59C50334640F6B831214A043002F031
S31508004170DFFA0546B8B9124E012194F8580300F043
S315080041804BFE1349306841F00BF940F00EF840F049
S315080041900DF894F858231749306841F001F90323BC
S315080041A084F8BE33AFE6092384F8BE33212331E70A
S315080041B0092384F8BE3320230C908DF82C30B4E7FD
S315080041C0FC290020FC5B050887800508BF800508D8
S315080041D0435C0508EB8005081A8105084E81050829
S315080041E089810508F47F050899660508B4810508DC
S315080041F009380408ED810508042F7FF484AED8F841
S315080042000030C54F5D88002D60D151F045FA8146D2
S3150800421050F060FDD8F80030C4F87403D3F80720CE
S31508004220BE49C4F84422DA7A386884F848229A895A
S31508004230A4F84922DA89A4F84B221A8AA4F84D224E
S315080042405B8AA4F84F3241F0ABF83FF0AEFF3FF07F
S31508004250ADFF94F85823B249386841F0A1F8AF4940
S31508004260386841F09DF83FF0A0FF3FF09FFFB4F893
S315080042704F32AC490693B4F84D320593B4F84B3235
S31508004280049394F848320393B4F849320293D4F865
S315080042904432CDE90093D4F8743394F85823386837
S315080042A041F07EF89D49386841F07AF83FF07DFF85
S315080042B03FF07CFF9C4994F85823386841F070F821
S315080042C0294630463FF064FA052369E79749386876
S315080042D041F066F83FF069FF3FF068FFD8F8003014
S315080042E094F858235B889249386841F059F894F84D
S315080042F0BF330133DBB2022B84F8BF335BD88B495B
S31508004300386841F04DF83FF050FF3FF04FFF94F802
S3150800431058238849386841F043F894F82E330993AE
S3150800432094F82D33089394F80733079394F90933CF
S31508004330069394F8F332059394F800330493D4F86B
S3150800434013330393D4F80F330293B4F8213301934C
S31508004350B4F81D330093B4F81B33B4F81F2394F84C
S31508004360061394F8580321F0ADF9054688B16F494C
S31508004370386841F015F83FF018FF3FF017FF94F83A
S3150800438058236D492B46386841F00AF82A461E21FB
S3150800439093E66249386841F003F83FF006FF3FF0BC
S315080043A005FF94F858236549386840F0F9FF022359
S315080043B084F8BE3393E606F59C50043002F09AF969
S315080043C0092384F8BE331F23BCE6082F63D198F867
S315080043D00B50F5B9B4F8213343B13046FFF7D6FC94
S315080043E0092884F8BE0312D1242313E64A4D4B4903
S315080043F0286840F0D5FF3FF0D8FE3FF0D7FEB8F862
S31508004400083094F858234E49286840F0C9FF00251B
S3150800441079E598F80A30012B2AD13F4DB4F8217373
S3150800442028683E4987B140F0BBFF3FF0BEFE3FF02B
S31508004430BDFE94F858234349286840F0B1FF072386
S3150800444084F8BE3301255EE540F0AAFF3FF0ADFED5
S315080044503FF0ACFE94F858233B49286840F0A0FF8B
S3150800446005233946304684F8BE333FF091F9CEE746
S31508004470022BE7D1284D2949286840F091FF3FF0E3
S3150800448094FE3FF093FE94F858233049286840F08C
S3150800449087FF0623D5E5063F012F3FF634AD414693
S315080044A03046FFF7A5FB054600283FF40DAF1A4F27
S315080044B0012D3868194923D140F072FF3FF075FE87
S315080044C03FF074FEB4F83C3294F858232049386813
S315080044D040F066FF012308218DF83730B4F83C32E6
S315080044E08DF83650ADF8343006F584730B93D6F84C
S315080044F004310BAA0C933046FFF7EAFC054602E5A1
S3150800450040F04EFF3FF051FE3FF050FEB4F83C320B
S3150800451094F858230F49DAE7FC290020435C05087C
S315080045203282050870820508E96E0508FC5B0508F5
S31508004530308305087F830508686E0508F47F05083B
S31508004540C68305081984050860840508A384050838
S31508004550EB8405081F850508082F7FF4D4AC0122D3
S31508004560414630460FB0BDE8F04300F063B8082F67
S315080045707FF4C9AC0022F3E7042F7FF4C4ACD8F863
S3150800458000301B79002B7FF442AF3046FFF7D8FB8B
S31508004590D8F80030224D5B8833BB06F59C500430B2
S315080045A002F0A8F81F49286840F0FAFE3FF0FDFD22
S315080045B03FF0FCFD94F858231B492868F5E6042FBC
S315080045C07FF4A1ACD8F800301A79002A7FF41FAF1F
S315080045D05B8843B93046FFF7B3FBEEE4092384F85A
S315080045E0BE33382316E50E4D1049286840F0D8FE2C
S315080045F03FF0DBFD3FF0DAFDD8F8003094F8582399
S315080046005B880B49286840F0CBFE092384F8BE3343
S3150800461023238DF82C30D8F800305B8895E500BF49
S31508004620FC290020435C0508F47F0508FC5B0508A7
S31508004630548505082DE9F043CE7A05460F4691467E
S3150800464087B000F5805466B3B4F82133A3B1FFF7F9
S315080046509DFB092884F8BE0321D124238DF80C304C
S31508004660002304930A21284603AAFFF731FC0646CD
S31508004670304607B0BDE8F0835B4D5C49286840F0DA
S315080046808FFE3FF092FD3FF091FDB4F83C32584959
S3150800469000933B8994F85823286840F081FE002649
S315080046A0E6E70A89B4F83C329A421ED0B4F82133B8
S315080046B053B1FFF76BFB092884F8BE03EFD1242317
S315080046C004968DF80C30CDE7474D4849286840F0E8
S315080046D067FE3FF06AFD3FF069FDB4F83C32454994
S315080046E000933B8994F85823D6E700F59C5004308C
S315080046F002F000F858B1092384F8BE332223049047
S315080047000A21284603AA8DF80C30FFF7E1FBDFF8EB
S31508004710D880B4F82133D8F800003449A3B340F060
S315080047203FFE3FF042FD3FF041FD94F858233249E1
S31508004730D8F8000040F034FE02210022284684F80A
S31508004740BE13FFF7C5FBBB7A0646022B0AD1B9F1A1
S31508004750000F07D02846FEF773FE002128463FF0D3
S3150800476017F885E72149D8F8000040F019FE3FF010
S315080047701CFD3FF01BFD3B8994F858231F49D8F8C8
S31508004780000040F00DFEE8E740F00AFE3FF00DFDA0
S315080047903FF00CFD94F858231949D8F8000040F06A
S315080047A0FFFD052384F8BE33BB7A022B0AD1B9F183
S315080047B0000F07D02846FEF743FE002128463EF0A4
S315080047C0E7FF6CE70949D8F8000040F0E9FD3FF03B
S315080047D0ECFC3FF0EBFC3B8994F858230749D8F8E2
S315080047E0000040F0DDFDE8E7FC290020435C0508F1
S315080047F0A2850508F7850508F47F05084B86050890
S31508004800E96E0508054B5A78042A06D101220321C8
S315080048105A700348002200F06DB9704764290020D9
S315080048207986050810B50A4C2378FF2B0DD1042389
S3150800483020701C22E0180021637043F02EFC002033
S31508004840044B2361044BA36110BD0120FCE700BFA4
S31508004850642900200000C8420000C07F30B50B4C18
S31508004860450104EB401042709DF80C206155027119
S31508004870437180ED020AC0ED030A80ED051AC0ED0A
S31508004880061A80ED072AC0ED042A30BD64290020E7
S3150800489010B50D4C2378834214D1002000F004F99A
S315080048A000220321094800F025F91C220021201DB9
S315080048B043F0F3FBFF2300202370054B2361054BD0
S315080048C0A36110BD2D20FCE7642900207986050820
S315080048D00000C8420000C07F0023F7B5274D0093AB
S315080048E0ADF8043005EB40135B7804464701052B09
S315080048F041D8DFE803F003383A3C403E2049684691
S3150800490043F0F5FBEE1922460321684600F0F2F85B
S31508004910737833BB96ED020A2146052000F096F916
S3150800492073793D44012B0CBF96ED040A96ED070AF0
S315080049302146072000F08AF92146092095ED050A47
S3150800494000F084F921460B2095ED030A00F07EF964
S315080049502B79022B05D021460D2095ED060A00F08D
S3150800496075F903B0F0BD0749C9E70749C7E707491D
S31508004970C5E70749C3E70749C1E700BF642900201F
S315080049807F86050879860508858605088B860508C5
S3150800499091860508EB86050830B5284B012905469A
S315080049A00C468BB01871597109D10022062124488A
S315080049B000F0A0F800220621224800F09BF800210A
S315080049C0242201A8009143F068FB684643F0A4FB43
S315080049D01D49C0F12702684643F067FB012D68466A
S315080049E018D143F099FB1949C0F12702684643F0EC
S315080049F05CFB684643F090FBC0F12702CCB914492A
S31508004A00684643F052FB00226846114600F072F8E9
S31508004A100BB030BD43F080FB0E49C0F12702684653
S31508004A2043F043FB0C2000F01BF80D2000F018F8AB
S31508004A30DFE7022C0CBF08490849E1E76429002092
S31508004A40E186050896860508A6860508AD86050842
S31508004A50B5860508B1860508C2860508CF86050805
S31508004A60F0B58BB004AC024626460D4B03F1100791
S31508004A70254618685968083303C5BB422C46F7D142
S31508004A8018681B7928602B71012302939B1A0193DE
S31508004A9000233146009303483FF036FB0BB0F0BDC8
S31508004AA0DC860508842900200346F0B56FF0010569
S31508004AB001270E4A87B010689288C3EB03130C4E81
S31508004AC00490ADF814205C00C5F10102CDE9015748
S31508004AD0002330460094D2B204A9023D3FF014FBED
S31508004AE015F10E0FF0D107B0F0BD00BFEB86050833
S31508004AF0842900202DE9F043037806460D4687B041
S31508004B0003B34FF00109C1F10108104BC2EB0212C1
S31508004B10CDE90189540018680D4F9B88E4B20094CA
S31508004B200A460490ADF8143004A93B7809483FF0CA
S31508004B30EBFACDE9018900942A4631463B780548C7
S31508004B403FF0E2FA07B0BDE8F08300BFEB86050840
S31508004B50DE8600208429002038B52D4B1C22002132
S31508004B60184643F09AFA40F2FF412A4B021F936116
S31508004B70294B20F8041C0020136101F0CFFC10B16A
S31508004B801024204638BD254D284601F02FFD044641
S31508004B900028F5D16FF07F432149C5E90130284641
S31508004BA03FF09FFA28463FF038F91E4B2246214629
S31508004BB01D481C70FFF79EFF224601211B48FFF780
S31508004BC099FF224602211A48FFF794FF224603213D
S31508004BD01848FFF78FFF224604211748FFF78AFF78
S31508004BE0224608211548FFF785FF22460A21144860
S31508004BF0FFF780FF22460C211248FFF77BFF22466B
S31508004C0006211148FFF776FF3EF010FEB9E700BF10
S31508004C10682900200000C07F0000C84284290020BF
S31508004C20DC890508DE860020A6860508F1860508C3
S31508004C3004870508EB8605080C8705081A87050802
S31508004C402A8705083B8705084F8705080023FCEED9
S31508004C50C07A2DE9F04188B004938DF81430264BBC
S31508004C60054618689B880C46ADF81C3017EE903A36
S31508004C70092B06902FD8B8EEE77A30EE470A9FED53
S31508004C801F7A20EE070ABCEEC07A17EE902A17EEB6
S31508004C90103A1B494FF00108C5F1010704A8C4EBF7
S31508004CA0041407F095FD6400CDE90178154EE4B2C9
S31508004CB000942A46337806A913483FF025FACDE929
S31508004CC0017800942A46337804A90F483FF01CFA65
S31508004CD008B0BDE8F081B8EE677A30EE470AB2EE62
S31508004CE0047A20EE070ABCEEC07A17EE902A17EE71
S31508004CF0103A0649CEE700BFEB8605080000C84211
S31508004D0061870508DE860020842900206E8705084D
S31508004D100368094A23F47F4323F00703934204D028
S31508004D2002F18072934203D07047007BFFF77ABD89
S31508004D308079FFF7ADBD00BFA000060008B5084B97
S31508004D404FF484620021184643F0A7F9FF228276C1
S31508004D5080F8222180F82A2280F8322308BD00BF75
S31508004D60A80D0020094900220B4610B58C7E844206
S31508004D7004D14FF4847101FB023010BD0132042ABC
S31508004D8001F58471F2D10020F7E700BFA80D0020D5
S31508004D90FF282DE9F04107460E46904632D099B3D2
S31508004DA0A2F11703E32B31D84FF6FF730C889C4208
S31508004DB02CD08A889A4229D0CA889A4226D00A894B
S31508004DC09A4223D0FF20FFF7CDFF054600B32146C0
S31508004DD038461AF04BFB044688B94FF484720146EC
S31508004DE0284643F05AF90B4BAF761A689B88C5F8E4
S31508004DF006206B8101236E61A5F818802B7020466A
S31508004E00BDE8F0812524FAE72224F8E72124F6E70D
S31508004E101924F4E77B870508FF2837B50C4625D003
S31508004E20FFF7A0FF054618B34CB9983001F062FCAD
S31508004E3005F1600001F05EFC204603B030BD037842
S31508004E40052B03D0082B0AD00220F6E7002341F2EF
S31508004E508831084A0093983001F06AFCEDE7002390
S31508004E6041F28831044A00936030F5E72520E4E7EB
S31508004E702D20E2E7093B0408C33A0408164B30B56F
S31508004E809842A3F1600206D003F13801884202D0A5
S31508004E907033984218D1002411E02B4603F5B475F7
S31508004EA0A8420C460BD003F5D075A84207D003F5E7
S31508004EB0847503F5EC73984201F1010107D14FF4AB
S31508004EC0847303FB042030BD13460121E6E7042959
S31508004ED0E3D10020F7E700BF080E002013B590F8CD
S31508004EE02A00FFF73FFF68B100F16004204601F091
S31508004EF001FC00234FF47A71009320460123024AED
S31508004F0001F016FC02B010BDC33A040870B5054698
S31508004F1000F07CFB0646284600F064F92B68A94A8F
S31508004F2023F47F43064023F0070386F001069342E5
S31508004F30F6B200F0B2800BD802F17A42934200F042
S31508004F40A08002F57D02934220D086F0010070BD54
S31508004F509D4A9342F9D12879FFF704FF04460028B1
S31508004F60F3D0EB790B2B3DD14269B5F805301188A2
S31508004F70994221D16B89042B06D10378012B03D1E1
S31508004F80EA6880F82030C261012321E0A879FFF79A
S31508004F90E9FE04460028D8D0D03001F0ABFB04F176
S31508004FA0600001F0A7FB04F1980001F0A3FB0023C1
S31508004FB02370FF23A376C8E7D18899420AD1AD8921
S31508004FC0983001F097FB2946A07E3EF078FD002335
S31508004FD01E43BAE712899A42F9D1A989807E3EF022
S31508004FE06FFDF4E71B2B01D01D2BAED16169B5F817
S31508004FF0052048899042C7D048889042C4D0C888BE
S31508005000904202D009899142E1D11D2B02D1A07E9E
S315080050101AF01CFA6B89022BB6D16269B5F805300D
S31508005020D1888B4208D012899A420ED0AD8929467A
S31508005030A07E3EF045FDA7E7E8791D2817D1E07B5D
S315080050400228A1D112899A4205D1EA791D2A13D1DB
S31508005050227C022A98D18B42AD89E8D104F19800C6
S3150800506001F048FB2946A07E3EF029FD8CE71B2867
S31508005070E8D1E07B0128E4E71B2AECD1227C012A4F
S31508005080E8E72879FFF76EFE00283FF45EAF6B79F4
S31508005090AA7943EA0223038357E72879FFF762FED2
S315080050A0044600283FF451AFB5F80520037862B3EB
S315080050B0092B8CD8012101FA03F010F4127F0AD1CA
S315080050C010F090001BD18B4281D12070E169A07E3F
S315080050D0FCF754FF58E7002384F82230A384A3780A
S315080050E0052B05D102212370A07EFCF7E7FF4BE7CD
S315080050F0012B7FF449AF082303212370F4E7022329
S31508005100A07E2370FCF7DAFF61E7013B082B3FF628
S315080051105EAF01A252F823F03D510008CF4F0008B8
S315080051206B510008A3510008CF4F000889510008A9
S31508005130D3510008CF4F00085951000894F8203081
S31508005140807EE1692BB1022300222370FCF716FF4B
S315080051503DE701222370F9E78378827C03441A73BA
S315080051600223002203700121BEE78378827C034470
S315080051701A7340F20253438020463EF05FFB024614
S3150800518020BB04232370FFE68378827C03441A73CA
S3150800519040F2011343803EF051FB0246B0B90723A3
S315080051A0F0E78378817CC2181173C2789A4205D1D8
S315080051B00022052380F82220828493E70133837036
S315080051C0DAE700BFA0000906A0000907022323703A
S315080051D0C9E78378827C03441A73002280F8222068
S315080051E0828488E7F0B50368954A23F47F4323F061
S315080051F007039342054691B004D0002080F00100D1
S3150800520011B0F0BD0079FFF7ADFD04460028F4D0D3
S31508005210EB791D2BF1D14369B5F805209B889A4295
S31508005220EBD16B89012B04D8A07E1AF00FF9012067
S31508005230E4E72A7B012A4CD0022A00F08F80002A54
S31508005240F2D1032BF0D10378B5F80D50052BEBD12D
S3150800525090F82230002BE7D090F82170002FE3D188
S31508005260838CAB42E0D1D03001F044FA04F1280631
S3150800527004F1600001F03EFA304600F0A5F9304628
S3150800528084F822700AA93EF0A9FC034600B90A9BD5
S31508005290DDF83920DDF83510A07ECDE908129DF835
S315080052A0342007929DF833200692DDF82F200592C8
S315080052B09DF82E2004929DF82D2003929DF82C200F
S315080052C0CDE901520122009200220021FCF7A0FF3D
S315080052D0AAE7052BA8D10378052BA5D190F822308B
S315080052E0002BA1D090F82130022B9DD1B5F80D20C6
S315080052F0838C9A4298D1D03001F0FCF904F1280643
S3150800530004F1600001F0F6F9304600F05DF900237B
S31508005310304684F822300AA93EF060FC034600B9FC
S315080053200A9BDDF83920DDF83510A07ECDE9081294
S315080053309DF8342007929DF833200692DDF82F2039
S3150800534005929DF82E2004922A7C0392EA7B02920B
S31508005350B5F80D20019201220092B6E7022B7FF4E0
S3150800536063AF90F822306D7B002B3FF45DAFD030F1
S3150800537001F0C0F994F82330BBB1012D06D104F130
S31508005380600001F0B7F9002384F822300026A07ED9
S3150800539032462B46032184F823603EF013FC2A4646
S315080053A03146A07E3EF010FC3EE7002394F821101B
S315080053B084F82230012901D0042904D12B46002281
S315080053C0A07E3EF0FFFB94F82130012B31D013F07C
S315080053D0FD0F7FF429AF04F12806304600F0F4F8F3
S315080053E030460AA93EF0FAFB034600B90A9BDDF8E7
S315080053F03910DDF8356094F82120A07ECDE90861E2
S315080054009DF8341007919DF833100691DDF82F109A
S3150800541005919DF82E1004919DF82D1003919DF885
S315080054202C100291A18CCDE90051911E4A424A41A5
S315080054304BE72A460021A07E3EF0C5FBF4E600BFF6
S31508005440A000090738B50024054650F029F8074B8F
S315080054501B681BB950F01FF8204638BD93F82A2060
S31508005460AA4208BF1C461B68F3E700BFB029002004
S315080054702DE97043044616460D46037B86B023F095
S31508005480180343F010038161037301460D483EF08B
S3150800549080FED4E90489217BCDE90489227981F04B
S315080054A00403C1F3400101910292226B294600923E
S315080054B020463246C3F380033EF054FB06B0BDE8EF
S315080054C0708300BFB02900202DE9F0410C469046B4
S315080054D01E46054686B000286FD000296DD04B6859
S315080054E0002B6AD0002A68D08B7BFF2B67D00A7CFA
S315080054F04FF6FF73002A52D0B8F802209A425ED0BF
