S02B0000433A2F55736572732F6D706D656E2F53696D706C696369747953747564696F2F424C452D7468657319
S31508000000A80D0020DD78000867B0040867B004086A
S31508000010E3CC040867B0040867B0040867B00408AE
S3150800002067B0040867B0040867B0040867B0040836
S3150800003067B0040867B0040833A6040867B0040864
S3150800004067B0040867B0040867B0040867B0040816
S3150800005067B0040867B0040867B0040867B0040806
S3150800006067B004082BEE040867B0040867B00408F4
S3150800007067B0040867B0040867B0040867B00408E6
S3150800008067B0040867B0040867B0040867B00408D6
S3150800009067B004089D83000867B0040867B00408C1
S315080000A067B00408B98000089980000867B004089A
S315080000B067B004084D6B030821740308BFE90508F7
S315080000C0BBE90508956B0308D5E90508C3E90508E2
S315080000D0F1730308C7E9050861740308C9740308BE
S315080000E067B0040867B0040867B0040867B0040876
S315080000F075C5040867B0040867B0040867B0040843
S3150800010067B0040867B0040867B0040867B0040855
S3150800011067B0040867B0040867B0040867B0040845
S3150800012067B0040867B0040867B0040867B0040835
S3150800013067B0040867B0040867B0040867B0040825
S3150800014067B0040867B0040867B00408870706089C
S31508000150A154030867B004089FE90508A5E905083E
S3150800016067B0040867B0040867B0040867B00408F5
S31508000180F0B5114A114C124E00F00105E3695F07FC
S3150800019013D40DB9334213D103EA00078F4207D1AE
S315080001A00B4A1A40002A0CBF00206FF00100F0BD70
S315080001B0013AEBD16FF00200F9E74FF0FF30F6E7AE
S315080001C06FF00100F3E700BF809698000000035027
S315080001D0020001000B4B70B5D96911F480310DD1BD
S315080001E001244FF48072084E084DF46020462C64B2
S315080001F01A61FFF7C5FF3464EC6070BD6FF001004B
S31508000200FBE700BF00000350001003500020035016
S315080002104FF4803238B50E4B0E4C9A66E56941F6B6
S31508000220713315400122E3630B4B0021DA60022388
S31508000230606121202361FFF7A3FF10B92120FFF792
S315080002409FFF0122054BDA600DB10023E36338BD39
S315080002500090005000000350001003500020035087
S3150800026070B5134C6061E3695B071ED40E4656F8F9
S31508000270043B8D18A361AE420BD104230021212033
S315080002802361FFF77DFF58B9BDE870402120FFF7CD
S3150800029077BF08210846FFF773FF10B104232361CF
S315080002A070BD56F8043BA361E5E74FF0FF30F7E76A
S315080002B0000003502DE9F84315464FF48032184BD9
S315080002C089469A6603F51C33DF690646174041F6E8
S315080002D07132DA63012203F58053DFF84C80DA6065
S315080002E055B9284601220F4BDA601FB10022A3F543
S315080002F00053DA63BDE8F88306F5005404EA0804F7
S31508000300A41BAC4228BF2C46494622463046FFF776
S31508000310A7FF0028E6D12644A1442D1BE0E700BF2D
S31508000320009000500020035000E0FFFF000000008E
S3150800033000000000000000000000000000000000AF
S31508000340013800D0FCE770472DE9F04F93B0CDE9AE
S315080003500A32DDE91C530E9353EC102BCDE9080144
S31508000360104619468DED060B1E9E10F0EBFD80B16A
S31508000370DDE906014FF0FF32C54B10F00BFE40B920
S31508000380DDE906014FF0FF326FF4801310F0E4FD4B
S3150800039070B1DDE908019DED060B0E9B1E96CDE9B1
S315080003A01C53DDE90A3213B0BDE8F04F00F088B9F6
S315080003B00022DDE90601002310F0CEFD002800F03A
S315080003C03381DDE906A303F1004BCBF30A5016F49B
S315080003D08063A0F2FF3008BF06250F9310F0E0FAFD
S315080003E09BA3D3E9002310F045FB9BA3D3E9002385
S315080003F010F08AF9CBF31304894644F07F518046FE
S315080004000022A44B504641F4401110F07BF994A306
S31508000410D3E9002310F02EFB02460B464046494618
S3150800042010F072F910F0C0FD044610F0B9FA8EA368
S31508000430D3E900238046894610F01CFB0022964B20
S3150800044010F062F910F0B0FD89A3D3E9002307463E
S315080004504946404610F00EFB80463846894610F05D
S315080004609FFA85A3D3E9002310F004FB02460B4646
S315080004704046494610F046F902460B46CDE90C239C
S3150800048010F0F8FADDE90C2380468946104619462D
S3150800049010F03AF90022CDE91001804B4046494652
S315080004A010F012FC00227E4B10F02EF902460B4685
S315080004B04046494610F008FC00227A4B10F024F911
S315080004C002460B464046494610F0FEFBDDE90C2382
S315080004D08046894600204FF0804110F013F9024605
S315080004E00B464046494610F00FF902460B46DDE931
S315080004F0100110F0E9FB07F2FF3700226A4B10F0F3
S3150800050003F900223B0510F0B5FA52465B468046D1
S31508000510894610F03FFD002840F08980CDE90C8916
S3150800052004F16303C72B34BF0427052731051BD500
S3150800053053A3D3E900235046594610F021FD00285D
S315080005407FD051A3D3E900235046594610F004FD45
S31508000550002876D00027A542C6BF2C1B04F1FF351C
S3150800056000253C4646F480660E9B9F422CBF4FF002
S315080005700008A3EB070816F0020903D0002F18BFDE
S315080005804FF000083CB1DDE90C235046594610F0FF
S315080005909BFB82468B46DDE906010022002310F00C
S315080005A0DBFC10B10BF100439B46DDE9080126F49C
S315080005B00063CDE90183DDE90A324BEC10AB009507
S315080005C000F07EF802465FB3DDE9091316F0200F46
S315080005D000F10105089E0CBF65204520B047DDE9FE
S315080005E008010523002205930A23002CCDE90232CF
S315080005F007F1FF374FEAD473B8BF64422A4601931E
S3150800060004970A9B00944CF0C1FC0246B9F1000F0E
S3150800061006D00B9BC41A0B9B1A190E9BA34245D8EE
S31508000620104613B0BDE8F08FDDE906ABCDE6002233
S31508000630404649461A4B10F047FB013CCDE90C01F0
S315080006406EE7002D90D00F9B002B8DD0013D8BE7D8
S31508000650FB799F501344D33FB3C8608B288AC63FA3
S3150800066061436F63A787D23F71A379094F930A4005
S315080006701655B5BBB16B0240EF39FAFE422EE63F7E
S315080006802D431CEBE2361A3F0000000080842E4101
S31508000690FFFFEF7F0000F83F0000E03F00002C401E
S315080006A000002440000018400000F03F2020DDE94B
S315080006B00913089DA8470134ADE700BF00000000F4
S315080006C02DE9F04F5BEC10AB97B0CDE90501DDE9FC
S315080006D02057CDE90723504652465B465946229E87
S315080006E010F030FC70B90323CDE902760193B04BC4
S315080006F00093DDE90501DDE907234CF067FB17B038
S31508000700BDE8F08F4FF0FF326FF48013504659461C
S3150800071010F022FC28B10423CDE902760193A54BFB
S31508000720E6E74FF0FF3250465946A34B10F032FC2D
S3150800073068B1A24A06F00403002B08BF0322A04BA7
S315080007401CBF13460422CDE902760192D0E7504633
S3150800075093A3D3E90023594610F01CFC38B992A399
S31508000760D3E900235046594610F0F6FB68B1DDE997
S315080007700723DDE905014BEC10ABCDE92176209581
S3150800078017B0BDE8F04FFFF7DFBD00220023504643
S31508000790594610F0E1FB002800F09A805B46524665
S315080007A0002000210FF0AEFF012382468B460993F5
S315080007B016F4806400F08E80092D40F28E800024A5
S315080007C030210EABA5F109020134202C03F8011BD8
S315080007D0A5EB040901D09442F6D15946504610F0CB
S315080007E0E3FB784B054603EBC90393ED007B8DEDE0
S315080007F00A7B10F0D5F802460B46504659460FF0CC
S3150800080081FFDDE90A2310F035F902460B46CDE9EA
S315080008100C2310F0F1FB804610F0B2F802460B46A6
S31508000820DDE90C010FF06EFF02460B46CDE90C23FD
S315080008300022654B10F0AEFB002851D008F10108E4
S31508000840404610F09DF802460B46DDE90A0110F015
S315080008508DFB10B14FF000080135B9F1000F50D1EA
S31508000860284610F09DF802460B46504659460FF0AA
S3150800087049FF0022544B8046894610F06DFB30B183
S31508000880002240464946504B10F084FB10B1E80759
S3150800089000D501350A210EAB1A19202C0AD095FB72
S315080008A0F1F001FB1055303502F8015B01340546BD
S315080008B00028F2D106F00302012A57D1002F55D09D
S315080008C0099A12B916F00C0F00D0013F302245E004
S315080008D009906DE74FF006097FE7A94600247CE7F3
S315080008E00022DDE90C01384B10F036FB0028B4D1A4
S315080008F0B8F1000F02D018F0010FAED008F10108C8
S31508000900ABE70A210EAB2344202C0ED0B8FBF1F03E
S3150800091001FB1082B8F1090F02F1300209F1FF3923
S3150800092004F1010403F8012B11D83021A1440EAAC1
S31508000930202CAFD0A14504F101030AD11C4609F1C8
S3150800094058030DEB03092E2309F8203CA2E780463D
S31508000950DAE7A1541C46EBE71A550134A74205D934
S31508000960202CF9D1CDE902760194C1E6202CF9D0E4
S31508000970099A3AB12D2104F158026A4402F8201C5A
S315080009800134EFE7710704D504F158022B216A44B4
S31508000990F4E73207E6D504F1580220216A44EDE768
S315080009A00000000065CDCD410000000065CDCDC139
S315080009B0304D0608344D0608FFFFEF7F274D060821
S315080009C02C4D0608404D06080000E03F00000000D8
S315080009D02DE9F04F2DED028B002597B01D7003937E
S315080009E0229B074607911D60002800F03C8143784A
S315080009F0047844EA0324837844EA0344C37844EA3F
S31508000A00036463783F2B00F22E81AA4214BF0623A3
S31508000A1008238DF8243009230C958DF82630427961
S31508000A20037908469FEDA48B43EA02234A790434E6
S31508000A30023292008DF825200AAA0092043B9BB246
S31508000A402146007909AA8DED0A8B41F0B7FF0A9B6A
S31508000A500646049360B1049B23B10C991846C91A3B
S31508000A604CF070F8304617B0BDEC028BBDE8F08F3D
S31508000A700B98039DC01A40102870C0B200EB4000C6
S31508000A808F4980005DF0C8FF8346002800F010817A
S31508000A902B788DED0E8B1096002B00F0FA803346DE
S31508000AA002960299E279591A8A42B246B04600F28B
S31508000AB0AC8004D202991144994218BF0F91002ABA
S31508000AC040F0AD807A783B7894F802E043EA022356
S31508000AD0BA7894F803C043EA0243FA7808EB480167
S31508000AE043EA026300220BEB810514925A781878C0
S31508000AF085F802E085F803C002F00F03E2798DED70
S31508000B00128B6A7194F906202A710BF821000EAA35
S31508000B106B70204612AB09A93FF030FF81460028CA
S31508000B203BD01298149910B1091A4CF00BF8039B94
S31508000B301B78F3B100252C462E4604EB44040BEB38
S31508000B408404627A207A40EA0220A27A40EA0240C5
S31508000B50E27A50EA026000F096804BF0F1FF039BC0
S31508000B6001351B7826726672A672E672ECB29C4252
S31508000B70E3D358464BF0E4FF0023029A1099891AEA
S31508000B80039A1370029B13B118464BF0DBFF049BC4
S31508000B904E46002B7FF461AF64E7DDE91232D21AC4
S31508000BA010464749069305925DF036FFC0F3072CB9
S31508000BB085F809C0C0F3074C85F80AC04FEA106CDF
S31508000BC0069B287285F80BC0002865D0059A002A6E
S31508000BD035D185F8069085F80790002B40D1049BFF
S31508000BE00AF1010A33F81820E3795FFA8AF83344E0
S31508000BF0DEB2039B14441B7843453BD90F9B0299ED
S31508000C00E279591A8A427FF654AF511A0EA83FF074
S31508000C1057FE0E9BE2790293002A3FF453AF0798DA
S31508000C204378017841EA0321837841EA0341C3788E
S31508000C30029841EA036131444EF082F942E71946C7
S31508000C40069205934EF07CF9069A1499059BAA71AB
S31508000C50C2F30722EA71C91A18464BF073FFBEE7BA
S31508000C601499C91AF8E70B26304617B0BDEC028B63
S31508000C70BDE8F08F229B1099C3F800B0029BC91AF1
S31508000C80002B81D183E70135ECB29C42FFF455AFC6
S31508000C906FE7229B1860DEE63BB114991846C91A1D
S31508000CA04BF050FF4FF0020941E74FF002093EE7CB
S31508000CB00226D0E6AFF30080000000000000000026
S31508000CC0F0CC06080348044B834202D0034B03B119
S31508000CD018477047BCCA0020BCCA002000000000A4
S31508000CE0064B0749C91A891048BF0131491003D074
S31508000CF0044B0BB101481847704700BFBCCA002017
S31508000D00BCCA00200000000010B5064C237843B981
S31508000D10FFF7D8FF044B13B10448AFF30080012353
S31508000D20237010BD1E9E002000000000E0D70608B4
S31508000D3008B5054B1BB105490548AFF30080BDE86A
S31508000D400840FFF7CDBF00BF00000000D014002008
S31508000D50E0D70608A3F5803A704700BF174B002B6B
S31508000D6008BF134B9D46FFF7F5FF00218B460F463C
S31508000D701348144A121A4EF0FDF80E4B002B00D0F9
S31508000D8098470D4B002B00D09847002000210400FF
S31508000D900D000D48002802D00C48AFF3008010F073
S31508000DA0DBFC200029004EF042F810F025FB00BFBE
S31508000DB0000008000000000000000000A80D002048
S31508000DC0A80D002020C1002000000000000000003F
S31508000DD013B5094C237863B9022304200093074A04
S31508000DE04FF4805306490FF019F90028A4BF0123D0
S31508000DF0237002B010BD00BF20AE00201F9E002049
S31508000E00080B060830B5154B87B01B7805461446FF
S31508000E10019103B349F0EAFB4FF41B630D22CDF8A9
S31508000E200D00CDF81110042002A902938DF80C507C
S31508000E300FF0C8F804220DEB020110460FF0C2F8B5
S31508000E40019B21461A0202F4E062C3F30723042039
S31508000E501A430FF0B7F807B030BD00BF1FAE002029
S31508000E6030B5144B05461B7885B003F0FF04F3B183
S31508000E70FF2928BFFF210C4649F0B8FB04F10902F7
S31508000E8013029BB243EA122343F0807343F0B00384
S31508000E900D22CDE900300291042069468DF80C40F8
S31508000EA00FF090F82246294604200FF08BF82046CA
S31508000EB005B030BD1FAE00200122014B1A707047E5
S31508000EC01FAE00200022014B1A7070471FAE00208B
S31508000ED037B504461BF046FE0546002860D1A368D0
S31508000EE043F40033A3604FF0E6FAA3682F4A43F4AD
S31508000EF0A013A360A26125774BF056FFA368A080D4
S31508000F001B030CD4B0F5FA7F09D95FF0C6FA0121A4
S31508000F10054608465EF062FA28465FF0B9FA2046AA
S31508000F201BF048FE0546E0BBE068E8B31EF0F0FBA0
S31508000F3053F0E9FD4FF0C0FC18F0CCFD19F00EFC9B
S31508000F4054F0C1FE51F0D4FE4FF052FF012055F087
S31508000F508FF852F0D6FD012055F08EF8054600BBF5
S31508000F6040F20443ADF80430FF2301A88DF806309B
S31508000F7013F060FF04212A46084653F0B5FD68467B
S31508000F808DF800501CF008F8032104201DF02EFDF2
S31508000F900A2012F0B3FB1BF0C5FD204649F03DFBC5
S31508000FA00025284603B030BD0148BFE70504030005
S31508000FB080C7002008B5044904482CF07DFABDE82E
S31508000FC008402CF0ABBA00BF180B06082C0C060814
S31508000FD04FF08052014B5A60704700BF00ED00E0A9
S31508000FE070B5012886B00D468DF8070003D921246F
S31508000FF0204606B070BD284B284E1968306808F0A0
S31508001000BBF904460028F3D1254B062218689B88AD
S31508001010029002A92846ADF80C300494ADF81440A5
S315080010204DF07EFF28B10622284604A94DF078FF28
S3150800103070B91C49306808F007FC08B12D2828D17A
S315080010401949306808F000FC2D2818BF0446CFE778
S315080010509DF80730012B0DD16B799B09032BC6D15F
S315080010600123104930680DF1070208F0A9FB044670
S315080010704CB1BDE7002BF3D10A49306808F0E4FB10
S315080010802D280446F4D106232A460749306808F075
S3150800109097FB0446ACE700BF14C3002034C3002006
S315080010A0416906083C0004002C000400F8B50E4609
S315080010B00546D0B1C9B10E4B0E4F1968386808F00D
S315080010C05BF9044678B9062332460B49386808F0B6
S315080010D021FA044638B901232A460849386808F02F
S315080010E019FA00B12C702046F8BD2124FBE700BF91
S315080010F014C3002034C300202C0004003C00040064
S31508001100034A0449002808BF114604202BF0B4BE40
S315080011102A0D0608220D060838B504460B4890F82D
S31508001120C020A2420FD00A4D0A4928684BF060FA3F
S3150800113049F0C1FF49F0C0FF2246074928684BF02D
S3150800114057FA002038BDA0F58050FBE7E8240020B8
S3150800115010510020320D0608370D06082DE9F04F0C
S31508001160FF280746894693469A4689B000F0938435
S31508001170002900F09284002B00F08F84139B002B2B
S3150800118000F08B84129B002B00F08784CA4DDFF891
S315080011905083CA4928684BF02BFA08F5805449F061
S315080011A08AFF49F089FF3A46C54928684BF020FA74
S315080011B094F8C030FF2B40F08880C24928684BF06D
S315080011C017FA49F078FF49F077FFBF4928684BF0CE
S315080011D00FFABC4928684BF00BFA49F06CFF49F046
S315080011E06BFF94F8C020B94928684BF001FA41F220
S315080011F04412002140464DF0BDFE4046002102F053
S3150800120045FD4FF0FF33C4F8A83017230026A4F88D
S31508001210BA30B4F8A43040F24A7203F0F00343F44B
S315080012208673314608F65800A4F8A430C8F85468FE
S315080012304DF0A0FEA349286884F8BC6084F8C07005
S315080012404BF0D6F949F037FF49F036FF94F8C0203D
S315080012509F4928684BF0CCF94922494604F15A00BF
S315080012604DF093FE94F86890944994F8668028683F
S315080012704BF0BEF949F01FFF49F01EFFCDF800906C
S31508001280434694F8C020934928684BF0B1F9334691
S31508001290324694F8C00004F1C4012BF0D1FC06468E
S315080012A088B38D4928684BF0A3F949F004FF49F043
S315080012B003FF8A4994F8C02028684BF099F92D2134
S315080012C03246874801F088FD19E0834928684BF0C3
S315080012D08FF949F0F0FE49F0EFFE824928684BF095
S315080012E087F97D4928684BF083F949F0E4FE49F00F
S315080012F0E3FE3A467C4928684BF07AF91C263046C4
S3150800130009B0BDE8F08F94F8C43028686D49002B01
S3150800131000F0A0804BF06CF949F0CDFE49F0CCFE08
S3150800132094F8C43094F8C020704928684BF060F9E6
S31508001330BBF800306A4E604CA6F8B93F13F0FF03BD
S31508001340206806F5805B40F0A9805C494BF050F9AF
S3150800135049F0B1FE49F0B0FE9BF8C0206449206808
S315080013604BF046F9574928684BF042F949F0A3FE75
S3150800137049F0A2FE96F8CD3F3A46009396F8CE3F3E
S315080013805C4928684BF034F94E4928684BF030F927
S3150800139049F091FE49F090FE96F8CA3F3A46009306
S315080013A096F8CB3F544928684BF022F945492868F6
S315080013B04BF01EF949F07FFE49F07EFE96F8C93FCC
S315080013C04E4C009396F8C73F3A464D4928684BF06D
S315080013D00FF93C4928684BF00BF949F06CFE49F0C7
S315080013E06BFE94F8C020474928684BF001F9129B18
S315080013F03449C4F8D430139B2868C4F8D830C4F8E4
S31508001400D0A04BF0F5F849F056FE49F055FE94F891
S31508001410C0203D4928684BF0EBF896F8B91F94F8B8
S315080014205D0004F1990240F013FF0646002800F01B
S315080014309280294928684BF0DBF849F03CFE49F0D0
S315080014403BFE334631493A4628684BF0D1F8212607
S31508001450302135E74BF0CCF849F02DFE49F02CFE4B
S3150800146094F8C0202A4928684BF0C2F894F8C000BE
S315080014702BF01CFC064600283FF45AAF164928688C
S315080014804BF0B6F849F017FE49F016FE214994F8D4
S31508001490C02028684BF0ACF82E2111E7012B3DD16E
S315080014A006494BF0A5F849F006FE49F005FE9BF8FB
S315080014B0C020194953E700BF10510020790D0608CE
S315080014C07E0D0608B30D0608B80D0608D60D0608E3
S315080014D00E0E06083D0E0608320D0608E40E06082E
S315080014E0E8140020990E0608B40E0608140F06081C
S315080014F0C00F06083911060867110608E8240020F7
S31508001500A3110608DB1106080F120608361206088C
S315080015104F0F0608910F060815100608022B0AD168
S31508001520C2494BF065F849F0C6FD49F0C5FD9BF880
S31508001530C020BF4913E7BF494BF05AF849F0BBFD35
S3150800154049F0BAFD96F8B93F9BF8C020BA49206819
S315080015504BF04EF806E7B94928684BF049F849F0C8
S31508001560AAFD49F0A9FD94F8C020B54928684BF0B2
S315080015703FF80A2104F1990001F088FF0646AB49B5
S3150800158028684BF035F849F096FD49F095FD334645
S3150800159094F8C020AB4928684BF02AF894F8C000A4
S315080015A0FFF7BAFD00F5805696F85D308246022BA5
S315080015B0A54D2FD196F86730072B00F26981DFE831
S315080015C013F00800BC0067016701E70067016701BF
S315080015D0F9000123954980F8D33F28684BF008F8AD
S315080015E049F069FD49F068FD96F8C02097492868D2
S315080015F04AF0FEFF914928684AF0FAFF49F05BFD78
S3150800160049F05AFD9AF8D33F96F8C02090492868C1
S315080016104AF0EEFF96F86730884986F868302868F9
S315080016204AF0E6FF49F047FD49F046FD96F868306E
S3150800163096F8C020874928684AF0DAFF96F85DB020
S31508001640BBF1010F20D196F86B902868B9F1020F0B
S3150800165000F03381B9F1FE0F00F05181B9F1010FA5
S31508001660744940F05C814AF0C3FF49F024FD49F013
S3150800167023FD96F8C020784928684AF0B9FF86F80D
S315080016806C9000238AF8D33FB4F889306BBB0DF110
S315080016901E03049307AB039394F89730029394F8C8
S315080016A0683001936D4B93F8B93F009394F89830DE
S315080016B094F85A2094F85E1094F85D0001F01AFB2D
S315080016C00646002800F057810F2E286840F036811C
S315080016D058494AF08DFF49F0EEFC49F0EDFC94F8C4
S315080016E0C0205F4928684AF083FFB4F89330029314
S315080016F0B4F891300193B4F88D300093B4F88B3078
S31508001700B4F88120B4F87F1094F8C0002BF05CFA86
S315080017100646002800F04F81524928684AF068FFBB
S3150800172049F0C9FC49F0C8FC4F49334694F8C02033
S3150800173028684AF05DFF3121C2E5B8F1010F286833
S3150800174018D83C494AF054FF49F0B5FC49F0B4FCB6
S3150800175096F8C020454928684AF04AFF01222921FF
S31508001760504601F039FB002386F8673001238AF8D2
S31508001770D33F3FE702238AF8D33F2C494AF038FF84
S3150800178049F099FC49F098FC96F8C02038492EE7AC
S31508001790B9F1010F2868D4D902238AF8D33F23491F
S315080017A04AF026FF49F087FC49F086FC96F8C020E7
S315080017B030491CE7B9F1010F11D9B8F1010F1ED94B
S315080017C004231A4980F8D33F28684AF011FF49F0E4
S315080017D072FC49F071FC96F8C020274907E70122F8
S315080017E0292101F0F9FAB9F1010F0FD1B8F1020F69
S315080017F028680BD18AF8D38F86F86790BDE701224F
S31508001800292101F0E9FAB9F1020F37D00949286808
S315080018104AF0EEFE49F04FFC49F04EFC96F8C0201F
S31508001820124928684AF0E4FE9DE700BF790D0608CC
S3150800183073100608C3100608C8100608B30D060874
S315080018406D1206089C12060810510020D2120608CE
S315080018503A1406086E140608AB140608E8140020A5
S3150800186025160608320D06086F170608051306081A
S315080018704613060879130608AC130608B8F1010FD3
S315080018802868C3D104238AF8D39F86F8673086E789
S31508001890834928684AF0ACFE49F00DFC49F00CFC77
S315080018A096F8C0207F4928684AF0A2FE01238AF8E4
S315080018B0D33F002386F867309CE6B8F1010F7849D4
S315080018C009D94AF095FE49F0F6FB49F0F5FB96F87A
S315080018D0C0207549D0E64AF08BFE49F0ECFB49F08A
S315080018E0EBFB96F8C020714928684AF081FE5A46F3
S315080018F02A21504686F86CB001F06EFAC1E66C49AA
S315080019004AF076FE49F0D7FB49F0D6FB96F86630E2
S3150800191096F8C020674928684AF06AFEAFE64AF09A
S3150800192067FE49F0C8FB49F0C7FB96F8C020624934
S3150800193028684AF05DFE86F86BB0A2E60A2E0AD140
S3150800194057494AF055FE49F0B6FB49F0B5FB94F8FD
S31508001950C0205A49C6E65A494AF04AFE49F0ABFB46
S3150800196049F0AAFB5749334694F8C02028684AF03C
S315080019703FFE3221A4E4BDF81C304D49A4F87F305F
S31508001980A4F88130BDF81E302868A4F88330A4F87E
S3150800199085304AF02DFE49F08EFB49F08DFBB4F8F0
S315080019A0853049490093B4F8813094F8C0202868F6
S315080019B04AF01EFE99E6FF22384694F85B102BF093
S315080019C02BF9064680B13E4928684AF011FE49F0CF
S315080019D072FB49F071FB3D49334694F8C0202868EC
S315080019E04AF006FE33216BE4394928684AF000FEBE
S315080019F049F061FB49F060FB94F8C0203549286836
S31508001A004AF0F6FD324928684AF0F2FD49F053FBE0
S31508001A1049F052FB94F8C0202F4928684AF0E8FD9F
S31508001A206FF489722D4B94F8C0009A18191F01F0AB
S31508001A30EBFB0746A8B1224928684AF0D9FD49F0C8
S31508001A403AFB49F039FB3B4694F8C02024492868FC
S31508001A504AF0CEFD3A462F21224801F0BDF901266B
S31508001A604DE4134928684AF0C3FD49F024FB49F0C0
S31508001A7023FB94F8C0201C4928684AF0B9FD149B3A
S31508001A801BB194F8CC30149A1370002215481146ED
S31508001A9002F084FB33E4252631E422262FE400BF36
S31508001AA0C3100608DF130608F214060839150608D7
S31508001AB0790D060884150608C9150608811606084C
S31508001AC0320D0608C71606081E170608B9170608AF
S31508001AD0B30D0608FC17060831180608B4250020B9
S31508001AE05D180608E81400209818060810B5134C67
S31508001AF041F24412002120464DF03CFAFF2204F53B
S31508001B00805383F8C02083F829214FF0FF32C3F8A9
S31508001B10A8201722A3F8BA204FF486720021A3F84A
S31508001B20A42004F6580040F24A724DF023FA2046E3
S31508001B30BDE81040012102F0A9B800BFE814002052
S31508001B402DE9FF41054688461746FFF7E5FA584C42
S31508001B500646A0B9574920684AF04AFD49F0ABFA4B
S31508001B6049F0AAFA2A46544920684AF041FD222239
S31508001B702721304604B0BDE8F04101F02DB906F53D
S31508001B80805595F8A4302068DB0712D518F0010FA8
S31508001B900FD148494AF02CFD49F08DFA49F08CFAE4
S31508001BA095F8C020454920684AF022FD3A460B219F
S31508001BB0DFE787B13F494AF01BFD49F07CFA49F057
S31508001BC07BFA95F8C0203E493B4620684AF010FD4E
S31508001BD03A460C21CDE73B494AF00AFD49F06BFA33
S31508001BE049F06AFA434695F8C020374920684AF012
S31508001BF0FFFC95F8A41095F8C00048F0A5FD074627
S31508001C0088B12C4920684AF0F3FC49F054FA49F0A7
S31508001C1053FA95F8C0202D493B4620684AF0E8FC5F
S31508001C203A460D21A5E72A4920684AF0E1FC49F021
S31508001C3042FA49F041FA95F8A4702649264817F061
S31508001C40010F14BF03460B4617F0020F14BF844654
S31508001C508C4617F0040F14BF86468E4617F0080FF9
S31508001C6018BF014695F8C020CDE901E1CDF800C0BE
S31508001C701A4920684AF0BCFC032195F8C00048F0D0
S31508001C80A7FD074688B10B4920684AF0B1FC49F020
S31508001C9012FA49F011FA95F8C02011493B46206816
S31508001CA04AF0A6FC3A460E2163E704B0BDE8F08187
S31508001CB010510020320D0608CA180608F918060839
S31508001CC05F190608790D0608A0190608DF1906081F
S31508001CD0B30D0608C61806085C6C06081F1A06081F
S31508001CE0E61A06082DE9F04186B080460F461446E6
S31508001CF0FFF712FA574E0546A0B9574930684AF019
S31508001D0077FC49F0D8F949F0D7F942465349306883
S31508001D104AF06EFC22220E21284606B0BDE8F041A4
S31508001D2001F05AB830687CB14B494AF061FC49F079
S31508001D30C2F949F0C1F9009442463B464849306821
S31508001D404AF056FC2246E6E7464905F580544AF02D
S31508001D504FFC49F0B0F949F0AFF93B4694F8C0207A
S31508001D60414930684AF044FC032F11D8DFE807F0F0
S31508001D704152330294F8B8300C2B0CD00121284676
S31508001D8003AA8DF80C1002F009FA052384F8B83076
S31508001D9006B0BDE8F08140F24A7194F8C00005F635
S31508001DA0580248F091FC07460028EED02A493068C8
S31508001DB04AF01EFC49F07FF949F07EF994F8C020F4
S31508001DC03B462A4930684AF013FC3A460F21284612
S31508001DD001F002F8D9E7072384F8B8300023012177
S31508001DE0284684F8BC3003AA8DF80C1002F0D6F900
S31508001DF0CEE71C4930684AF0FBFB49F05CF949F02C
S31508001E005BF994F8C0201A49306806B0BDE8F0417D
S31508001E104AF0EEBB94F8B830052BB9D10C23032150
S31508001E2094F8C00084F8B83048F0D2FC0746002879
S31508001E30AED0094930684AF0DBFB49F03CF949F075
S31508001E403BF994F8C0203B460A4930684AF0D0FB73
S31508001E503A4660E710510020320D0608211B060895
S31508001E605E1B0608B30D06089F1B0608CA1B060854
S31508001E70101C0608E61A06082DE9F04F9BB01D4609
S31508001E809DF8903007460F93BDF894308B46109313
S31508001E909DF89830DDF8A48011939DF89C30DDF804
S31508001EA0B4A012939DF8A0300E9213939DF8A83013
S31508001EB0764E14939DF8AC3015932C9B0D93FFF733
S31508001EC02BF9044678B9724930684AF091FB49F013
S31508001ED0F2F849F0F1F83A466E4930684AF088FB5C
S31508001EE0222211211FE000F5805999F8A53073B315
S31508001EF000F6580240F24A7199F8C00048F0E4FB2F
S31508001F000746B0B1624930684AF072FB49F0D3F827
S31508001F1049F0D2F899F8C0205F493B4630684AF044
S31508001F2067FB3A460F2120461BB0BDE8F04F00F08C
S31508001F3053BF5A4930684AF05BFB49F0BCF849F090
S31508001F40BBF899F8C020564930684AF051FB4F4E05
S31508001F5004F580573068BDB14D494AF049FB49F050
S31508001F60AAF849F0A9F82B4697F8C0204D493068D9
S31508001F704AF03EFB0D9B53EA0A0A00F08480062DC0
S31508001F8000F081802A46ACE744494AF031FB49F023
S31508001F9092F849F091F8444B4449139897F8C020B1
S31508001FA000280CBF9C468C464148149B4149CDE904
S31508001FB005C8002B18BF01460D9BCDE90A3A159BAB
S31508001FC0CDE90713129B3C490493119B03930F9B7E
S31508001FD00293109B01930E9B0093384B3068BBF11C
S31508001FE0000F18BF0B4636494AF002FBBBF1000F3B
S31508001FF049D03449C4F8548830684AF0F9FA49F0A7
S315080020005AF849F059F894F8593894F8581897F83E
S31508002010C02003F00F03CDF8008041EA032330689F
S3150800202029494AF0E5FA94F8592894F8583802F0FC
S315080020300F0204F6580943EA0223D4F854182A462C
S31508002040ADF86430484697F82831CDE917988DF8E9
S31508002050675001F07DFF08218DF8660017AA204613
S3150800206002F09CF8044670B1094930684AF0C0FA93
S3150800207049F021F849F020F8234697F8C02013497B
S3150800208030684AF0B5FA1BB0BDE8F08F1051002051
S31508002090320D0608821C0608CA1B0608B30D060878
S315080020A0C61C0608011D0608581C060811D3060892
S315080020B0681C0608751C0608441C06084E1C0608FB
S315080020C0431D0608790D0608EF1D0608331E060887
S315080020D02DE9F34117460E460546FFF71DF8044657
S315080020E0DFF83C800C49D8F800004AF081FA48F03D
S315080020F0E2FF48F0E1FF009733462A460749D8F839
S3150800210000004AF075FA204607220F2100F064FE07
S31508002110002002B0BDE8F081B30D06087A1E060855
S31508002120105100202DE9F0470368B44A23F47F4391
S3150800213023F007039342044692B000F0FF833ED88B
S3150800214002F17F42934200F019841ED802F17F42C1
S31508002150934200F0878202F53002934200F0B98379
S31508002160A2F18272934200F02881A54DA5492868FC
S315080021704AF03EFA48F09FFF48F09EFF2268A249BF
S3150800218022F47F4222F007026EE0A04A93425BD017
S3150800219002F540329342E8D10079FEF7BDFF0746C3
S315080021A0002840F06683964D994928684AF020FA37
S315080021B048F081FF48F080FF2279964954E0964A14
S315080021C0934200F04D8525D802F17E42934200F0F5
S315080021D0D88402F52D029342C7D10079FEF79CFFF9
S315080021E0002800F0EA806379854C00F5805585F86B
S315080021F05B30844920684AF0FBF948F05CFF48F0F8
S315080022005BFF95F85B3095F8C020844920684AF052
S31508002210EFF9D2E0824A934200F03F8202F1FC7263
S315080022209342A2D1764D7A4928684AF0E1F948F0F6
S3150800223042FF48F041FFA3797A49009363792279EE
S3150800224028684AF0D5F9B8E00079FEF765FF074631
S3150800225070B96B4D6E4928684AF0CAF948F02BFFE9
S3150800226048F02AFF2279704928684AF0C1F9A4E0A3
S31508002270B4F8052000F5805593B2A5F8C220B5F844
S3150800228081209A4204D3B5F87F209A4240F29B8077
S315080022905B4E664930684AF0ABF948F00CFF48F0E7
S315080022A00BFFB4F80510B5F87F3095F8C0200191FA
S315080022B0B5F88110009130685D494AF099F995F8AA
S315080022C0C630ABBB4E4E594930684AF091F948F0D2
S315080022D0F2FE48F0F1FE95F8C020564930684AF0FB
S315080022E087F9B5F893C0B5F88B30B5F88120B5F8FD
S315080022F07F1095F8C000CDF808C0B5F891C0CDF8A4
S3150800230004C0B5F88DC0CDF800C02AF05DFC0028E1
S3150800231000F0B580454930684AF06AF948F0CBFEC6
S3150800232048F0CAFE95F8C020434930684AF060F97B
S31508002330012385F8C630E37A002B00F0A580304EDD
S31508002340304930684AF054F948F0B5FE48F0B4FE12
S3150800235095F8C020394930684AF04AF995F8B830F6
S31508002360002B40F0B180274930684AF041F948F01F
S31508002370A2FE48F0A1FE95F8C020314930684AF01F
S3150800238037F995F8C0001FF07FFE044600287FD075
S3150800239005287DD01E4930684AF02AF948F08BFE98
S315080023A048F08AFE95F8C020264930684AF020F998
S315080023B022460521384600F00FFD002080F0010076
S315080023C012B0BDE8F087B5F88B20B4F807309A420A
S315080023D03CD00B4E154930684AF00AF948F06BFEB6
S315080023E048F06AFEB4F80710B5F88B3095F8C020A7
S315080023F00091154930684AF0FBF860E7A0005902D9
S3150800240010510020B30D0608F5290608A00006029B
S31508002410320D060885250608A00059053A23060840
S31508002420A000090675290608A81E0608C31006088E
S315080024300C1F06081F20060869200608CA20060879
S315080024400C210608512106088B1F0608B5F88D20B1
S31508002450B4F809309A423FF46BAFBC4EBC493068B9
S315080024604AF0C6F848F027FE48F026FEB4F80910E8
S31508002470B5F88D3095F8C0200091B649BAE795F8B9
S31508002480C630002B7FF457AF012385F8C63094E792
S31508002490012795F8C04085F8B8702046FEF73CFE3F
S315080024A0054698B9AC4930684AF0A2F848F003FEE8
S315080024B048F002FE2246A94930684AF099F82222D5
S315080024C02721284600F088FC012077E7A44905F56E
S315080024D0805430684AF08CF848F0EDFD48F0ECFD81
S315080024E094F8C0209F4930684AF082F894F972201F
S315080024F0394694F86C3094F8C000009200222AF00D
S31508002500F5FB074680B1944930684AF071F848F0FF
S31508002510D2FD48F0D1FD94F8C020934930684AF0BE
S3150800252067F83A462821CCE78D4930684AF060F8C2
S3150800253048F0C1FD48F0C0FD94F8C0208B493068CA
S315080025404AF056F894F8C0002AF0C0FB074688B14E
S31508002550814930684AF04CF848F0ADFD48F0ACFDCA
S3150800256094F8C02082493B4630684AF041F83A461A
S315080025702C21A6E77A4930684AF03AF848F09BFDDC
S3150800258048F09AFD94F8C0207A4930684AF030F845
S31508002590734930684AF02CF848F08DFD48F08CFDF8
S315080025A094F8C020744930684AF022F894F86DC04F
S315080025B094F85D3094F8702094F86E1094F8C00082
S315080025C0CDF834C094F864C0CDF830C094F865C02E
S315080025D0CDF82CC094F86AC0CDF828C094F863C02A
S315080025E0CDF824C005F5845C0CF1190CCDF820C093
S315080025F094F85CC0CDF81CC094F869C0CDE9057C98
S3150800260094F86270049794F86170039794F85F7071
S31508002610029794F86070019794F85E7000972AF014
S3150800262081FB074688B14C49306849F0E1FF48F01C
S3150800263042FD48F041FD94F8C02050493B463068B9
S3150800264049F0D6FF3A462B213BE74D49306849F019
S31508002650CFFF48F030FD48F02FFD94F8C0204949D7
S31508002660306817E00079FEF757FD00283FF4A5AE5D
S315080026700123364D00F58054394984F8C530286859
S3150800268049F0B6FF48F017FD48F016FD94F8C0204B
S315080026903D49286849F0ACFF16E70079FEF73CFD8E
S315080026A0064658B9294D2C49286849F0A1FF48F033
S315080026B002FD48F001FD22793449D5E500F580553B
S315080026C095F8C000237983427FF477AEB4F80540C5
S315080026D0BCB11E4F2049386849F08AFF48F0EBFC28
S315080026E048F0EAFC95F8C0202949386849F080FF87
S315080026F095F8B830032B3FF460AE224607213046E2
S3150800270059E695F8B830012B46D0022B7FF455AE22
S31508002710304600F0F7FB95F8A5300C4C002B6DD031
S31508002720B5F8AE30002B69D10B49206849F060FF37
S3150800273048F0C1FC48F0C0FC95F8C020154920684F
S3150800274049F056FF012209213BE000BF1051002045
S31508002750C3100608CF1F0608320D06088A21060888
S31508002760B30D0608B3210608DF210608102206085D
S3150800277037220608722206089B220608CB2206087C
S31508002780790D06080B230608662306088D23060816
S31508002790F42306088E240608D5F8A8104B1C12D177
S315080027A07F4C8049206849F023FF48F084FC48F0B4
S315080027B083FC95F8C0207C49206849F019FF01225E
S315080027C0062130467EE6022385F8B8301FF06CFCF9
S315080027D0044600283FF478AE714F7249386849F0CC
S315080027E007FF48F068FC48F067FC95F8C0206F4979
S315080027F0386849F0FDFE22460821E2E76C49206860
S3150800280049F0F6FE48F057FC48F056FC95F8C0200B
S315080028106849206849F0ECFE06F58551B5F88F2021
S3150800282095F8C0000C3102F08FF9074688B15D496A
S31508002830206849F0DDFE48F03EFC48F03DFC95F87E
S31508002840C0205D493B46206849F0D2FE3A460A2137
S31508002850B7E70323564985F8B830206849F0C8FE1B
S3150800286048F029FC48F028FC95F8C0205349206810
S3150800287010E7002600F58555DFF85C91DFF8208122
S31508002880DFF82CA10C35022204F1090109EB4600F8
S315080028904CF046FBB8B9B4F8053051462B80D8F849
S315080028A0000049F0A5FE48F006FC48F005FC07F5CF
S315080028B0805393F8C0202B8841490093D8F800002C
S315080028C0334649F095FE0136062E05F10205DAD1A2
S315080028D073E50079FEF720FC054658B9304D3149B5
S315080028E0286849F085FE48F0E6FB48F0E5FB2279C2
S315080028F03449B9E40222344804F10A014CF010FBC9
S3150800290000287FF45AADD4F80530254C05F58056D5
S31508002910C6F8A8302649206849F06AFE48F0CBFB7D
S3150800292048F0CAFBD6F8A83096F8C0202749206890
S3150800293049F05EFE284600F08DFA3EE50079FEF77E
S31508002940EBFB58B9164D1749286849F051FE48F06F
S31508002950B2FB48F0B1FB22791D4985E40421231D09
S315080029600F9300F5805393F85D20022A04BF627A1C
S3150800297083F829210FAA01F011FCA5E50079FEF7D5
S31508002980CBFB074F054648BB0649386849F030FE79
S3150800299048F091FB48F090FB22790E49386864E4C8
S315080029A010510020320D0608212406084C2406087A
S315080029B0B30D0608E32406081D250608572506084C
S315080029C0E72506082026060838C700207B260608BD
S315080029D0A6260608112706082CC7002005F58056E6
S315080029E0B649386849F004FE48F065FB48F064FBD0
S315080029F096F8C020B249386849F0FAFD284600F032
S31508002A0081FAA37BAD4985F8C83F94F8243005F6CA
S31508002A10BB7885F8CF3F94F8213085F8D03F94F8F5
S31508002A20223085F8D13F94F8233085F8D23FB6F89E
S31508002A30C230A5F8D43FE37F85F8CE3FA37F85F85B
S31508002A40CD3F237F85F8CB3F637F85F8CC3F637CFA
S31508002A5085F8CA3F237C85F8C93F637B85F8C73F5D
S31508002A60237B85F8C63FE37A85F8C53FD4F812304C
S31508002A70C5F8BB3FD4F816303868C5F8BF3F638B36
S31508002A80A5F8C33F49F0B4FD48F015FB48F014FB20
S31508002A9096F8C0208B49386849F0AAFD96F85E304A
S31508002AA096F8C000019396F85D3005F586510093B7
S31508002AB005F6B9724346083100F012FC044698B18F
S31508002AC08149386849F094FD48F0F5FA48F0F4FA77
S31508002AD096F8C0207D492346386849F089FD224684
S31508002AE02F21284600F078F97949386849F080FDA1
S31508002AF048F0E1FA48F0E0FA96F8C02075493868D7
S31508002B0049F076FD96F89640B6F88330B6F88720F1
S31508002B1096F86E1096F8C000099496F895400894B1
S31508002B2096F86F40079496F97140069496F85B40BC
S31508002B30059496F868400494D6F87B400394D6F832
S31508002B4077400294B6F889400194B6F88540009417
S31508002B502AF046F9044600283FF4B6AC5A493868C4
S31508002B6049F046FD48F0A7FA48F0A6FA96F8C020BC
S31508002B7059492346386849F03BFD22461E21284616
S31508002B8019E40079FEF7C8FA064600283FF415ACA2
S31508002B90524F4F49386849F02BFD48F08CFA48F0F7
S31508002BA08BFA22794E49386849F022FD4FF6FF73B1
S31508002BB0B6F8A42F06F580559A4215D195F8263110
S31508002BC0063B012B38D80523414985F82631386854
S31508002BD049F00EFD48F06FFA48F06EFA95F8C020F5
S31508002BE04049386849F004FD95F82631063B012B23
S31508002BF022D895F8E8300133DBB20A2B85F8E8309D
S31508002C0022D900214FF6FF7385F8E8103046A6F85A
S31508002C10A43F01F03BF805232D4985F8263138688D
S31508002C2049F0E6FC48F047FA48F046FA95F8C0201D
S31508002C302C49386849F0DCFC0123062130460F94FC
S31508002C408DF843300FAA96E62149386849F0D0FC3A
S31508002C5048F031FA48F030FA22792349386819E5FC
S31508002C600079FEF759FA054600283FF4A6AB05F5A4
S31508002C70805393F82631194E063B012B30681449C8
S31508002C8012D949F0B5FC48F016FA48F015FA227937
S31508002C901649306849F0ACFC0023072128460F94F2
S31508002CA08DF843300FAA66E649F0A2FC48F003FA0D
S31508002CB048F002FA22790E49D2E400BFB30D06089D
S31508002CC072270608C2270608320D06085D18060888
S31508002CD0790D0608981806080C28060810510020D1
S31508002CE0532806088D280608C0280608FC28060862
S31508002CF0302906082DE9F7439DF82C400F46DDE9F3
S31508002D000D969DF828108DF803409DF830408DF8F3
S31508002D1000208DF801308DF802108DF80440B9F1C5
S31508002D20000F50D0002E4ED0022A4ED0032B4ED084
S31508002D3001284CD0012905D10623A9F800302623FD
S31508002D4033801FE0012A04D1022904BF00238DF82D
S31508002D500230DFF880800024454605226946404651
S31508002D604CF0DEF838BB04EBC4042B195A79997970
S31508002D70B3F8073042EA0122FF2FA9F800209AB2D9
S31508002D80338003D1002003B0BDE8F083B9F80030E2
S31508002D90B7EE047A07EE903AF8EEE77A67EE877AA6
S31508002DA0FCEEE77A17EE903A9BB203F11301B1FBFA
S31508002DB0F3F31344C4E70134B4F5A27F08F1090814
S31508002DC0CBD12D20DFE72120DDE70A20DBE70F2026
S31508002DD0D9E700BF1D2A06082DE9F0410446194F18
S31508002DE00E46154638686CB9174949F001FC48F093
S31508002DF062F948F061F92A4638681449BDE8F04195
S31508002E0049F0F6BB04F580540F49D4F8D88049F048
S31508002E10EFFB48F050F948F04FF92B4694F8C020DC
S31508002E200B49386849F0E4FBB8F1000F07D02A4689
S31508002E303146434694F8C000BDE8F0411847BDE85E
S31508002E40F08100BF10510020320D0608612B0608DC
S31508002E50912B0608F7B500F5805494F825710546B8
S31508002E60002F40D194F8243100F587560C3623B14B
S31508002E70304604F0B5FE84F82471002330460093EA
S31508002E8040F6B8312B46194A04F0C8FE184F0646D4
S31508002E90B0B11849386849F0ABFB48F00CF948F06E
S31508002EA00BF994F8C02033461349386849F0A0FB5B
S31508002EB032460221284603B0BDE8F040FFF78CBF32
S31508002EC00E49386849F094FB48F0F5F848F0F4F8EC
S31508002ED040F6B83394F8C0200949386849F088FBA9
S31508002EE0012384F8243103B0F0BD00BF6DA60408A1
S31508002EF010510020320D0608BE2B0608B30D060831
S31508002F00F92B0608F8B5054600F587500C3004F08D
S31508002F1067FE164E044605F58057A8B11449306871
S31508002F2049F066FB48F0C7F848F0C6F897F8C0209D
S31508002F3023461049306849F05BFB22462846BDE81F
S31508002F40F8400421FFF748BF0B49A7F82401306869
S31508002F5049F04EFB48F0AFF848F0AEF897F8C020B5
S31508002F6030680649BDE8F84049F042BB10510020D8
S31508002F70320D0608222C0608B30D0608602C060832
S31508002F8070B504460D460F2900F20681DFE811F0F8
S31508002F901501100024003400440054006400740035
S31508002FA084009400A400B400C400D400E400F40033
S31508002FB0824D8349286849F01BFB48F07CF848F0A5
S31508002FC07BF8012304F5805494F8C0207D492868CD
S31508002FD0BDE8704049F00CBB784D7949286804F57E
S31508002FE0805449F005FB48F066F848F065F8022376
S31508002FF094F8C0207449EAE7704D7449286804F5C6
S31508003000805449F0F5FA48F056F848F055F8032385
S3150800301094F8C0206E49DAE7684D6949286804F5CE
S31508003020805449F0E5FA48F046F848F045F8042394
S3150800303094F8C0206749CAE7604D6149286804F5D5
S31508003040805449F0D5FA48F036F848F035F80523A3
S3150800305094F8C0206049BAE7584D5949286804F5DC
S31508003060805449F0C5FA48F026F848F025F80623B2
S3150800307094F8C0205949AAE7504D5149286804F5E3
S31508003080805449F0B5FA48F016F848F015F80723C1
S3150800309094F8C02052499AE7484D4949286804F5EA
S315080030A0805449F0A5FA48F006F848F005F80823D0
S315080030B094F8C0204B498AE7404D4149286804F5F1
S315080030C0805449F095FA47F0F6FF47F0F5FF0923D3
S315080030D094F8C02044497AE7384D3949286804F5F8
S315080030E0805449F085FA47F0E6FF47F0E5FF0A23E2
S315080030F094F8C0203D496AE7304D3149286804F5FF
S31508003100805449F075FA47F0D6FF47F0D5FF0B23F0
S3150800311094F8C02036495AE7284D2949286804F505
S31508003120805449F065FA47F0C6FF47F0C5FF0C23FF
S3150800313094F8C0202F494AE7204D2149286804F50C
S31508003140805449F055FA47F0B6FF47F0B5FF0D230E
S3150800315094F8C02028493AE7184D1949286804F513
S31508003160805449F045FA47F0A6FF47F0A5FF0E231D
S3150800317094F8C02021492AE7104D1149286804F51A
S31508003180805449F035FA47F096FF47F095FF0F232C
S3150800319094F8C0201A491AE7084E0949306804F518
S315080031A0805449F025FA47F086FF47F085FF2B46FD
S315080031B094F8C020134930680AE770BD1051002002
S315080031C0320D0608812C0608B52C0608790D060866
S315080031D0F02C06082F2D0608842D0608BD2D060896
S315080031E0FA2D06083A2E06086C2E0608B12E060891
S315080031F0EA2E0608502F0608A92F0608F92F0608F2
S3150800320055300608933006082DE9F041064617465C
S3150800321098460D46C9B10B68BBB108463CF0D8F9CB
S31508003220044688B1284D2949286849F0E1F947F04C
S3150800323042FF47F041FF234632462549286849F0B0
S31508003240D7F92046BDE8F0812860284636F02CFDDF
S31508003250044660B11C4D1D49286849F0C9F947F074
S315080032602AFF47F029FF234632461A49E6E7414630
S31508003270284636F065FE044660B1134D13492868A2
S3150800328049F0B6F947F017FF47F016FF23463246CE
S315080032901149D3E77B78002BD3D028463CF0D2F9E6
S315080032A005460028CDD0084C0849206849F0A0F901
S315080032B047F001FF47F000FF20682B4632460749D2
S315080032C049F096F92C46BCE710510020320D060845
S315080032D0C4300608FC300608323106086F31060885
S315080032E02DE9F74F0F4606461178384699469DF858
S315080032F030809DF834A036F025FD554D044688B13A
S315080033005449286849F074F947F0D5FE47F0D4FEC9
S31508003310234632465049286849F06AF9204603B0E0
S31508003320BDE8F08FB8F1020F38D0B8F1FF0F37D0EB
S31508003330B8F1010F36D04FF0FF08484CBAF1020F2A
S3150800334032D0BAF1FF0F32D0BAF1010F32D04FF0B6
S31508003350FF0ADFF808B14249286849F049F947F0F9
S31508003360AAFE47F0A9FECDF800B0234632463D49ED
S31508003370286849F03DF952464146384636F0F2FC8F
S315080033800446D0B13349286849F032F947F093FE2C
S3150800339047F092FE234632463349BCE7334CCDE725
S315080033A0334CCBE7334CC9E7DFF8C0B0D3E7DFF8D7
S315080033B0C0B0D0E7DFF8BCB0CDE74946384636F0AE
S315080033C0F3FC044658B12349286849F011F947F037
S315080033D072FE47F071FE2346324627499BE720498D
S315080033E0286849F005F947F066FE47F065FE32465B
S315080033F02249286849F0FCF81949286849F0F8F87C
S3150800340047F059FE47F058FE32461D49286849F0EC
S31508003410EFF838463EF006FF044658B10D492868CD
S3150800342049F0E6F847F047FE47F046FE234632469F
S31508003430144970E70A49286849F0DAF847F03BFE6C
S3150800344047F03AFE32461049286849F0D1F865E750
S3150800345010510020320D0608C0310608B83106089A
S31508003460B30D0608F831060823320608AB310608FC
S31508003470AF310608A731060869320608AA320608D7
S31508003480D5320608FE3206083C33060838B5044627
S3150800349088B10346014400208B421AD0002213F853
S315080034A0014B44FA02F5ED0702F1010248BF01306B
S315080034B0082AF6D1F0E7074D0749286849F098F831
S315080034C047F0F9FD47F0F8FD0449286849F090F8F7
S315080034D0204638BD10510020320D0608673306080D
S315080034E02DE9F04F04464FF0000897B000F58473B5
S315080034F003930893D0F8043100F58057ADF82430CB
S3150800350000F6580304930A93D0F8543812ADADF870
S315080035102C3008AB0E930AAB0F93431C05931093FC
S31508003520037804F586568DF8443097F82831ADF8B7
S3150800353046808DF8453000F6AC730FCB07C52B7067
S315080035401A4D1B49286849F053F8083647F0B3FD69
S3150800355047F0B2FD97F8C0201649286849F048F8A0
S31508003560012130460EAA3FF0E9FB83460146204674
S31508003570FFF706FDBBF1000F22D0BBF1030F00F0E9
S315080035801F830D49286849F033F847F094FD47F042
S3150800359093FD97F8C0205B460849286849F028F843
S315080035A05A463A212046FFF717FC73E210510020CD
S315080035B0B30D0608B0330608320D0608F8390608B2
S315080035C0002304F6D67840460693079347F01CFD79
S315080035D097F85E90D849B9F1FF0918BF4FF001096D
S315080035E0286849F005F847F066FD47F065FD97F845
S315080035F0C020D249286848F0FBFF59464A4630465B
S3150800360007AB36F07DFE834601462046FFF7B8FC39
S31508003610BBF1000F40F0B3815946404604F6DA7311
S3150800362007AA03F017FA8346002800F0B581C449B3
S31508003630286848F0DDFF47F03EFD47F03DFD5B4654
S3150800364097F8C020BF49286848F0D2FF002704F53C
S31508003650805595F85E30FF2B2CD00021022230468B
S3150800366007AB36F04DFE824601462046FFF788FC3A
S31508003670BAF1000F40F092810121404604F6DA7350
S3150800368007AA03F0E7F98246002800F09781DFF8D9
S31508003690C4B2AB49DBF8000048F0AAFF47F00BFDBF
S315080036A047F00AFD534695F8C020A749DBF8000005
S315080036B048F09EFF4A46022106AB304636F020FE09
S315080036C0824601462046FFF75BFC04F58055BAF1B1
S315080036D0000F40F075810221404604F6DA7306AA07
S315080036E003F0B8F98246002800F07A81DFF864B260
S315080036F09349DBF8000048F07BFF47F0DCFC47F015
S31508003700DBFC534695F8C0209049DBF8000048F0EA
S315080037106FFF95F85E30FF2B2CD0022230461146FB
S3150800372006AB36F0EDFD824601462046FFF728FC3B
S31508003730BAF1000F40F056810321404604F6DA73C9
S3150800374006AA03F087F98246002800F05B81DFF8B5
S3150800375004B27B49DBF8000048F04AFF47F0ABFCAF
S3150800376047F0AAFC534695F8C0207949DBF80000D3
S3150800377048F03EFF4A46002106AB304636F058FB75
S31508003780824601462046FFF7FBFB04F5805BBAF14B
S31508003790000F40F039810421404604F6DA7306AA80
S315080037A003F058F98246002800F03C81694D6449C7
S315080037B0286848F01DFF47F07EFC47F07DFC53461D
S315080037C09BF8C0206449286848F012FF9BF85E30D1
S315080037D0FF2B29D000210222304606AB36F028FB03
S315080037E0824601462046FFF7CBFBBAF1000F40F0B0
S315080037F01B810521404604F6DA7306AA03F02AF966
S315080038008246002800F01E81524D4D49286848F02E
S31508003810EFFE47F050FC47F04FFC53469BF8C0209C
S315080038204E49286848F0E4FE03238DF83030DBF86B
S31508003830733030460CA9CDF8313036F0D9FA8246C5
S3150800384078B1444D3E49286848F0D2FE47F033FC2B
S3150800385047F032FC53469BF8C0204149286848F097
S31508003860C7FE4A46012106AB304636F049FD824678
S3150800387001462046FFF784FB04F58055BAF1000F90
S3150800388040F04B810621404604F6DA7306AA03F097
S31508003890E1F88246002800F0D780DFF8B8B028495A
S315080038A0DBF8000048F0A4FE47F005FC47F004FCEE
S315080038B0534695F8C0202B49DBF8000048F098FEDF
S315080038C094F8B92F95F85D30022A4FD1022B4DD1C5
S315080038D095F89830013B012B48D803214A463046D3
S315080038E006AB36F00DFD824601462046FFF748FB3B
S315080038F0BAF1000F40F023810721404604F6DA7337
S3150800390006AA03F0A7F88246002800F0BB80DFF875
S3150800391044B00B49DBF8000048F06AFE47F0CBFBE1
S3150800392047F0CAFB534695F8C0200F49DBF800005C
S3150800393048F05EFE1AE000BFB30D0608D833060845
S31508003940320D0608FD3306087B3406080B350608D3
S31508003950913506081051002029360608B83606089B
S3150800396059370608A23706086A38060895F85D30FA
S31508003970012B00F09380002F00F08C8086E0B2497E
S31508003980286848F035FE47F096FB47F095FB5B46FE
S3150800399097F8C020AD4956E6012758E6DFF8BCB2CD
S315080039A0A949DBF8000048F023FE47F084FB47F0FE
S315080039B083FB534695F8C020A54977E6012779E6A3
S315080039C0DFF898B2A049DBF8000048F011FE47F08E
S315080039D072FB47F071FB534695F8C0209D4994E663
S315080039E0012796E6DFF874B29749DBF8000048F03D
S315080039F0FFFD47F060FB47F05FFB534695F8C02094
S31508003A009549B3E60127B5E6944D8F49286848F0ED
S31508003A10EFFD47F050FB47F04FFB53469BF8C0209D
S31508003A208F49D0E60127D1E68C4D8749286848F0AA
S31508003A30DFFD47F040FB47F03FFB53469BF8C020AD
S31508003A408849EEE60127EFE6079B8DF830000CA9BA
S31508003A503046CDF8313036F0CBF98246014620465D
S31508003A60FFF78EFABAF1000F41D194F8B92F95F8FD
S31508003A705D30022A08D1022B06D195F89830013B11
S31508003A80012B5AD995F85D30012B06D0D5F8D060B0
S31508003A90002E72D117B0BDE8F08F01274A460121E2
S31508003AA0304606AB36F0C4F9814601462046FFF794
S31508003AB067FAB9F1000F52D10921404604F6DA73C4
S31508003AC006AA02F0C7FF81460028DFD0634E5E498A
S31508003AD0306848F08DFD47F0EEFA47F0EDFA4B46B0
S31508003AE095F8C0206049306848F082FD43E75B4F8F
S31508003AF05549386848F07CFD47F0DDFA47F0DCFAAE
S31508003B0053469BF8C0205949386848F071FD94F827
S31508003B10B93F022B9BF85D30ACE7DFF840B14A4964
S31508003B20DBF8000048F064FD47F0C5FA47F0C4FA30
S31508003B30534695F8C0204E49BEE60127CDE6DFF884
S31508003B401CB14149DBF8000048F052FD47F0B3FAD2
S31508003B5047F0B2FA534695F8C0204649E6E63F4E86
S31508003B603949306848F044FD47F0A5FA47F0A4FA09
S31508003B704B4695F8C0204049B5E7237804F6DA7233
S31508003B8085F82C31631CC5F83031D4F80431C5F8F2
S31508003B903431039BC5F83831D4F85438C5F83C316C
S31508003BA0049BC5F840310023019304F589530C336F
S31508003BB00093B4F8A41F434695F8C000B04769E7D8
S31508003BC097F8C030414630460DAACDE90C888DF8E5
S31508003BD0303036F091F9064601462046FFF7D0F90F
S31508003BE016BB2649286848F003FD47F064FA47F0F3
S31508003BF063FA97F8C0202249286848F0F9FCD7F8F4
S31508003C00D43013B131460CA898471C49286848F0A7
S31508003C10EFFC47F050FA47F04FFA97F8C0201949D9
S31508003C20286848F0E5FC35E70749286848F0E0FCCD
S31508003C3047F041FA47F040FA334697F8C020124950
S31508003C40286848F0D5FCE0E7320D06083C3406083B
S31508003C50C33406084E350608DD350608105100201F
S31508003C60733606080B370608E3380608E6370608EB
S31508003C702B380608A93806081D390608790D0608DE
S31508003C8052390608C93906087F390608002370B56F
S31508003C9000F580560370C0F8A83FC0F8043186F8CE
S31508003CA028314FF6FF730446A0F8A43F71B90C4DAE
S31508003CB00C49286848F09CFC47F0FDF947F0FCF9E8
S31508003CC096F8C0200849286848F092FC04F58470E4
S31508003CD040F24A72BDE87040FF214BF04BB900BF75
S31508003CE010510020B30D0608353A06082DE9F04FA5
S31508003CF004468946894E8A4985B0306804F5805756
S31508003D0048F076FC47F0D7F947F0D6F997F8C0207F
S31508003D108449306848F06CFC99F80730D9F80050A7
S31508003D20002B7CD02B891335C3F30B03A4F8A43FCF
S31508003D3015F8033C87F8283115F806AC15F8058CF4
S31508003D4015F802BC7649306848F052FC47F0B3F9DA
S31508003D5047F0B2F9CDE900A87349B4F8A43F97F83B
S31508003D60C020306848F044FC04F58473029399F83F
S31508003D7007307BB1D4F8A82F12B90422C4F804215D
S31508003D80D4F8042102F5847121440832C4F8A81F26
S31508003D90C4F8042183F001030093D9F800204FF0FA
S31508003DA0000997F829310299D4F8A80F46F078FE49
S31508003DB0D4F8042102F5847222445FFA89F39B45FC
S31508003DC038D8029BB8F1010FA2EB030230685449B8
S31508003DD0C4F8042154D0B8F10F0F5ED0B8F1000F23
S31508003DE065D148F005FC47F066F947F065F9D4F85F
S31508003DF0A83F2278DB79009297F8C0204B493068B3
S31508003E0048F0F6FBBAF1010F306800F08580BAF188
S31508003E100F0F56D0BAF1000F71D102245FE06B7A0A
S31508003E200C3587F8283115F806AC15F8058C15F801
S31508003E3002BC87E7294611F8030BB8F10F0F00F00B
S31508003E40030002F1010317D01070AA7818460391EF
S31508003E504BF09BF80346AA78039913442278A8786E
S31508003E606D7804EB020C01328CF8015009F1010956
S31508003E7022700D181A46A0E760F07F001070EDE773
S31508003E8048F0B6FB47F017F947F016F997F8C0203F
S31508003E902749306848F0ACFBB4E748F0A9FB47F07F
S31508003EA00AF947F009F997F8C0202249F1E748F0DE
S31508003EB09FFB47F000F947F0FFF897F8C0201E4926
S31508003EC0E7E7174948F094FB47F0F5F847F0F4F8A8
S31508003ED097F8C0201949306848F08AFB0124184928
S31508003EE0306848F085FB47F0E6F847F0E5F81549ED
S31508003EF0306848F07DFB204605B0BDE8F08F1249D2
S31508003F0048F076FB47F0D7F847F0D6F897F8C02080
S31508003F100E49306848F06CFB0024E0E71051002099
S31508003F20B30D0608653A0608903A0608F83A0608F0
S31508003F30373B06085B3B06087E3B0608AD3B060892
S31508003F40790D0608013C0608320D0608D13B06081D
S31508003F502DE9F04F002585B046180DF10C0892465C
S31508003F60314642469B46039546F0DFFDDFF87490DE
S31508003F7010B1002001302BE0039B18491C79D9F8B1
S31508003F80000004F00F0704F0F0040F2F18BFF02C00
S31508003F900CBF0124002448F02BFB47F08CF847F0AF
S31508003FA08BF8B7FA87F300940D49D9F800005B0936
S31508003FB0EAB248F01DFB54B9013567B15B46524673
S31508003FC031460398CDF8008046F0BEFDD0E70120C3
S31508003FD005B0BDE8F08F0120CCE700BFB30D060899
S31508003FE0133C06081051002073B504465CF087FBA5
S31508003FF005465BF075FE0C4E04F580540B49C4F873
S31508004000E000306848F0F4FA47F055F847F054F8FD
S315080040100095D4F8E03094F8C0200549306848F097
S31508004020E7FA02B070BD00BF10510020790D0608EE
S315080040304E3C060838B500F580540546002194F82C
S315080040406E2094F8C00028F003FF80B9154D164974
S31508004050286848F0CDFA47F02EF847F02DF894F87E
S31508004060C0201249286848F0C3FA042038BD25281C
S3150800407015D105F587500B4D0C3003F0B1FD0A49F3
S31508004080286848F0B5FA47F016F847F015F894F896
S31508004090C0200749286848F0ABFA0220E6E709205D
S315080040A0E4E700BF10510020790D06088B3C06088E
S315080040B0D13C0608F8B500F58054054694F86E100C
S315080040C094F8C00028F078FED4F8C8302C4EBBB15E
S315080040D005F5865008303BF07BFA074680B129493A
S315080040E0306848F085FA46F0E6FF46F0E5FF3B46BD
S315080040F094F8C0202449306848F07AFA0120F8BDBF
S315080041002249306848F074FA46F0D5FF46F0D4FFE5
S3150800411094F8C0201E49306848F06AFA41F2441201
S31508004120002128464AF026FF1A49306848F060FA06
S3150800413046F0C1FF46F0C0FF94F8C0201649306823
S3150800414048F056FAFF2384F8C0304FF0FF33C4F81E
S31508004150A8301723A4F8BA30B4F8A43040F24A724B
S3150800416003F0F00343F48673A4F8A430002405F69C
S3150800417058002146C5F854484AF0FCFE2046BEE7DA
S3150800418010510020320D0608073D0608B30D060833
S31508004190413D0608790D0608653D06082DE9F043F8
S315080041A00F46904606468FB0B8B9BF4CBF4920683F
S315080041B048F01EFA46F07FFF46F07EFFFF22BC4914
S315080041C0206848F015FA222235213046FEF704FE0B
S315080041D0222528460FB0BDE8F0830A2900F5805449
S315080041E021D1B14D00F587500C3003F0F9FCAF49E9
S315080041F0286848F0FDF946F05EFF46F05DFF94F842
S31508004200C020AC49286848F0F3F9092384F8263118
S315080042103046D8F8042098F80010FEF7DDFD002592
S31508004220C7E017469846092F4FF0010540F0C180B0
S31508004230002194F86E2094F8C00028F009FE05467F
S3150800424090B9994D9C49286848F0D2F946F033FF51
S3150800425046F032FF286894F8C020984948F0C8F913
S31508004260082584F826514AE241F20C03984205D003
S3150800427041F21203984201D025281BD106F5875032
S315080042800C3003F0ADFC3046FFF714FF0546002856
S3150800429040F01C83844E8849306848F0A9F946F0F6
S315080042A00AFF46F009FF94F8C0208549306848F0AF
S315080042B09FF9D6E7DFF8F0817C49D8F8000048F086
S315080042C097F946F0F8FE46F0F7FE2B4694F8C0201C
S315080042D07C49D8F8000048F08BF9232384F8267126
S315080042E08DF82C300C9586E0002F7FF472AF6E4D5A
S315080042F07149286848F07CF946F0DDFE46F0DCFE98
S3150800430094F8C0207049286848F072F9012384F8A7
S315080043102631F4E1012F7FF45CAF98F80030002BCA
S3150800432062D0614F6449386848F062F946F0C3FEC6
S3150800433046F0C2FE94F8C0206449386848F058F937
S31508004340022294F8A530A4F82621002B3FF469AF81
S3150800435040F24A7194F8C00006F6580246F0B4F9DD
S315080043600546A0B15149386848F042F946F0A3FE1F
S3150800437046F0A2FE94F8C02055492B46386848F006
S3150800438037F92A460F213046FEF726FD21E74A4926
S31508004390386848F02DF946F08EFE46F08DFE94F802
S315080043A0C0204C49386848F023F94FF00008022726
S315080043B0012594F82631082B3FF60BAF01A252F8D7
S315080043C023F000BFE942000815430008FD43000832
S315080043D0E944000869480008BB460008494800083F
S315080043E05F480008AF480008092384F826313623B9
S315080043F00C978DF82C300A210BAAF4E1022F7FF4D2
S31508004400E8AE294F3449386848F0F2F846F053FECA
S3150800441046F052FE94F8C0203049386848F0E8F86B
S3150800442094F8C53043B9092384F826312C238DF82E
S315080044302C3001230C93DEE7012194F86E2094F8C2
S31508004440C00028F005FD38BB009006F587503346B6
S3150800445040F6B831224A0C3003F0E0FB0546B0B905
S31508004460012194F8C00000F0B3FB1349386848F0FE
S31508004470BFF846F020FE46F01FFE94F8C020194902
S31508004480386848F0B5F8032384F82631A1E60923ED
S3150800449084F82631212323E7092384F826312023AB
S315080044A00C908DF82C30A6E710510020320D060826
S315080044B0883D0608C03D0608790D0608EC3D060845
S315080044C01B3E06084F3E06088A3E0608D13C0608EB
S315080044D0CA1B0608B53E0608B30D0608EE3E0608D2
S315080044E091A60408213F0608042F7FF472AED8F877
S315080044F00030C54F5D88002D60D15CF000F981461B
S315080045005BF0EEFBD8F80030C4F8DC00D3F80720DF
S31508004510BE49C6F8AC2FDA7A386886F8B02F9A8979
S31508004520A6F8B12FDA89A6F8B32F1A8AA6F8B52FF6
S315080045305B8AA6F8B73F48F05BF846F0BCFD46F044
S31508004540BBFD94F8C020B249386848F051F8AF4925
S31508004550386848F04DF846F0AEFD46F0ADFDB6F8C1
S31508004560B73FAC490693B6F8B53F0593B6F8B33FDF
S31508004570049396F8B03F0393B6F8B13F0293D6F882
S31508004580AC3FCDE90093D4F8DC3094F8C020386805
S3150800459048F02EF89D49386848F02AF846F08BFD11
S315080045A046F08AFD9C4994F8C020386848F020F8FF
S315080045B029463046FFF76AFB052365E797493868B9
S315080045C048F016F846F077FD46F076FDD8F8003044
S315080045D094F8C0205B889249386848F009F894F83E
S315080045E027310133DBB2022B84F827315BD88B499C
S315080045F0386847F0FDFF46F05EFD46F05DFD94F82D
S31508004600C0208849386847F0F3FF94F89630099334
S3150800461094F89530089394F86F30079394F97130AD
S31508004620069394F85B30059394F868300493D4F8AD
S315080046307B300393D4F877300293B4F8893001932A
S31508004640B4F885300093B4F88330B4F8872094F82A
S315080046506E1094F8C00028F0C3FB054688B16F4970
S31508004660386847F0C5FF46F026FD46F025FD94F864
S31508004670C0206D492B46386847F0BAFF2A461E21E6
S3150800468081E66249386847F0B3FF46F014FD46F004
S3150800469013FD94F8C0206549386847F0A9FF02233E
S315080046A084F8263181E606F587500C3003F098FA2F
S315080046B0092384F826311F23B9E6082F63D198F811
S315080046C00B50F5B9B4F8893043B13046FFF7B2FC60
S315080046D0092884F8260112D1242301E64A4D4B49BC
S315080046E0286847F085FF46F0E6FC46F0E5FCB8F892
S315080046F0083094F8C0204E49286847F079FF00250D
S3150800470067E598F80A30012B2AD13F4DB4F889702D
S3150800471028683E4987B147F06BFF46F0CCFC46F067
S31508004720CBFC94F8C0204349286847F061FF07236B
S3150800473084F8263101254CE547F05AFF46F0BBFCC4
S3150800474046F0BAFC94F8C0203B49286847F050FF69
S3150800475005233946304684F82631FFF797FACEE71F
S31508004760022BE7D1284D2949286847F041FF46F032
S31508004770A2FC46F0A1FC94F8C0203049286847F00E
S3150800478037FF0623C3E5063F012F3FF622AD414614
S315080047903046FFF7ABFA054600283FF40DAF1A4F2F
S315080047A0012D3868194923D147F022FF46F083FCCA
S315080047B046F082FCB6F8A43F94F8C0202049386831
S315080047C047F016FF012308218DF83730B6F8A43FC5
S315080047D08DF83650ADF8343006F584730B93D6F859
S315080047E004310BAA0C933046FFF7D8FC0546F0E4D3
S315080047F047F0FEFE46F05FFC46F05EFCB6F8A43FC6
S3150800480094F8C0200F49DAE710510020790D060800
S31508004810663F0608A43F06088D280608320D0608D6
S3150800482064400608B34006080C280608D13C06086A
S31508004830FA4006084D41060894410608D74106087D
S315080048401F42060853420608082F7FF4C2AC01220D
S31508004850414630460FB0BDE8F04300F063B8082F74
S315080048607FF4B7AC0022F3E7042F7FF4B2ACD8F894
S3150800487000301B79002B7FF442AF3046FFF7B4FBBC
S31508004880D8F80030224D5B8833BB06F587500C30CC
S3150800489003F0A6F91F49286847F0AAFE46F00BFC64
S315080048A046F00AFC94F8C0201B492868F5E6042F50
S315080048B07FF48FACD8F800301A79002A7FF41FAF3E
S315080048C05B8843B93046FFF78FFBDCE4092384F89D
S315080048D02631382304E50E4D1049286847F088FE2E
S315080048E046F0E9FB46F0E8FBD8F8003094F8C0201B
S315080048F05B880B49286847F07BFE092384F8263134
S3150800490023238DF82C30D8F800305B8892E500BF59
S3150800491010510020790D0608D13C0608320D06080C
S31508004920884206082DE9F043CE7A04460F4691469A
S3150800493087B000F5805566B3B5F88930A3B1FFF79F
S3150800494079FB092885F8260121D124238DF80C3016
S31508004950002304930A21204603AAFFF71FFC0646F4
S31508004960304607B0BDE8F0835B4E5C49306847F0D7
S315080049703FFE46F0A0FB46F09FFBB4F8A43F58491B
S3150800498000933B8995F8C020306847F031FE002631
S31508004990E6E70A89B0F8A43F9A421ED0B5F88930EE
S315080049A053B1FFF747FB092885F82601EFD12423E1
S315080049B004968DF80C30CDE7474E4849306847F0E5
S315080049C017FE46F078FB46F077FBB4F8A43F454956
S315080049D000933B8995F8C020D6E700F587500C3040
S315080049E003F0FEF858B1092385F8263122230490EE
S315080049F00A21204603AA8DF80C30FFF7CFFBDFF813
S31508004A00D880B5F88930D8F800003449A3B347F000
S31508004A10EFFD46F050FB46F04FFB95F8C0203249B3
S31508004A20D8F8000047F0E4FD02210022204685F868
S31508004A302611FFF7B3FBBB7A0646022B0AD1B9F15A
S31508004A40000F07D02046FEF74BFD00212046FFF752
S31508004A501DF985E72149D8F8000047F0C9FD46F059
S31508004A602AFB46F029FB3B8995F8C0201F49D8F850
S31508004A70000047F0BDFDE8E747F0BAFD46F01BFB2E
S31508004A8046F01AFB95F8C0201949D8F8000047F0F7
S31508004A90AFFD052385F82631BB7A022B0AD1B9F179
S31508004AA0000F07D02046FEF71BFD00212046FFF722
S31508004AB0EDF86CE70949D8F8000047F099FD46F08B
S31508004AC0FAFA46F0F9FA3B8995F8C0200749D8F86A
S31508004AD0000047F08DFDE8E710510020790D060823
S31508004AE0D64206082B430608D13C06087F4306082B
S31508004AF08D28060808B5084B4FF48462002118462D
S31508004B004AF038FAFF22827680F8222180F82A2293
S31508004B1080F8322308BD00BFA80D002009490022ED
S31508004B200B4610B58C7E844204D14FF4847101FB88
S31508004B30023010BD0132042A01F58471F2D1002039
S31508004B40F7E700BFA80D0020FF282DE9F04107462A
S31508004B500E46904632D099B3A2F11703E32B31D80B
S31508004B604FF6FF730C889C422CD08A889A4229D02B
S31508004B70CA889A4226D00A899A4223D0FF20FFF78C
S31508004B80CDFF054600B3214638461DF0C7FA044650
S31508004B9088B94FF48472014628464AF0EBF90B4B64
S31508004BA0AF761A689B88C5F806206B8101236E616B
S31508004BB0A5F818802B702046BDE8F0812524FAE771
S31508004BC02224F8E72124F6E71924F4E7AD4306087A
S31508004BD0FF2837B50C4625D0FFF7A0FF054618B3C2
S31508004BE04CB9983002F0FCFF05F1600002F0F8FFBE
S31508004BF0204603B030BD0378052B03D0082B0AD016
S31508004C000220F6E7002341F28831084A00939830DB
S31508004C1003F004F8EDE7002341F28831044A0093D3
S31508004C206030F5E72520E4E72D20E2E781A90408AE
S31508004C303BA90408164B30B59842A3F1600206D08A
S31508004C4003F13801884202D07033984218D1002403
S31508004C5011E02B4603F5B475A8420C460BD003F5B4
S31508004C60D075A84207D003F5847503F5EC7398420E
S31508004C7001F1010107D14FF4847303FB042030BD11
S31508004C8013460121E6E70429E3D10020F7E700BF30
S31508004C90080E002013B590F82A00FFF73FFF68B109
S31508004CA000F16004204602F09BFF00234FF47A715E
S31508004CB0009320460123024A02F0B0FF02B010BD5D
S31508004CC03BA9040870B5054600F07CFB0646284655
S31508004CD000F064F92B68A94A23F47F43064023F0C1
S31508004CE0070386F001069342F6B200F0B2800BD8AD
S31508004CF002F17A42934200F0A08002F57D029342C7
S31508004D0020D086F0010070BD9D4A9342F9D12879DA
S31508004D10FFF704FF04460028F3D0EB790B2B3DD1AF
S31508004D204269B5F805301188994221D16B89042B5F
S31508004D3006D10378012B03D1EA6880F82030C261D6
S31508004D40012321E0A879FFF7E9FE04460028D8D018
S31508004D50D03002F045FF04F1600002F041FF04F193
S31508004D60980002F03DFF00232370FF23A376C8E7CF
S31508004D70D18899420AD1AD89983002F031FF294687
S31508004D80A07E45F0D8FD00231E43BAE712899A4251
S31508004D90F9D1A989807E45F0CFFDF4E71B2B01D018
S31508004DA01D2BAED16169B5F8052048899042C7D058
S31508004DB048889042C4D0C888904202D00989914256
S31508004DC0E1D11D2B02D1A07E1DF098F96B89022B2B
S31508004DD0B6D16269B5F80530D1888B4208D01289F8
S31508004DE09A420ED0AD892946A07E45F0A5FDA7E7D3
S31508004DF0E8791D2817D1E07B0228A1D112899A42A9
S31508004E0005D1EA791D2A13D1227C022A98D18B4230
S31508004E10AD89E8D104F1980002F0E2FE2946A07EA9
S31508004E2045F089FD8CE71B28E8D1E07B0128E4E7FB
S31508004E301B2AECD1227C012AE8E72879FFF76EFEC7
S31508004E4000283FF45EAF6B79AA7943EA022303830D
S31508004E5057E72879FFF762FE044600283FF451AF6A
S31508004E60B5F80520037862B3092B8CD8012101FA1D
S31508004E7003F010F4127F0AD110F090001BD18B4278
S31508004E8081D12070E169A07EFCF75AFE58E700231D
S31508004E9084F82230A384A378052B05D10221237038
S31508004EA0A07EFCF71FFF4BE7012B7FF449AF0823D1
S31508004EB003212370F4E70223A07E2370FCF712FF78
S31508004EC061E7013B082B3FF65EAF01A252F823F0DB
S31508004ED0F54E0008874D0008234F00085B4F000871
S31508004EE0874D0008414F00088B4F0008874D000882
S31508004EF0114F000894F82030807EE1692BB1022317
S31508004F0000222370FCF71CFE3DE701222370F9E717
S31508004F108378827C03441A730223002203700121DA
S31508004F20BEE78378827C03441A7340F202534380B7
S31508004F30204645F0BFFB024620BB04232370FFE64C
S31508004F408378827C03441A7340F20113438045F048
S31508004F50B1FB0246B0B90723F0E78378817CC21813
S31508004F601173C2789A4205D10022052380F82220BF
S31508004F70828493E701338370DAE700BFA00009064D
S31508004F80A000090702232370C9E78378827C0344BB
S31508004F901A73002280F82220828488E7F0B5036815
S31508004FA0954A23F47F4323F007039342054691B0BD
S31508004FB004D0002080F0010011B0F0BD0079FFF7A1
S31508004FC0ADFD04460028F4D0EB791D2BF1D14369D9
S31508004FD0B5F805209B889A42EBD16B89012B04D83A
S31508004FE0A07E1DF08BF80120E4E72A7B012A4CD02D
S31508004FF0022A00F08F80002AF2D1032BF0D1037821
S31508005000B5F80D50052BEBD190F82230002BE7D0E0
S3150800501090F82170002FE3D1838CAB42E0D1D030D9
S3150800502002F0DEFD04F1280604F1600002F0D8FD66
S31508005030304600F0A5F9304684F822700AA945F0F2
S3150800504009FD034600B90A9BDDF83920DDF835105D
S31508005050A07ECDE908129DF8342007929DF83320EA
S315080050600692DDF82F2005929DF82E2004929DF8D1
S315080050702D2003929DF82C20CDE9015201220092A1
S3150800508000220021FCF7F8FEAAE7052BA8D1037831
S31508005090052BA5D190F82230002BA1D090F821300D
S315080050A0022B9DD1B5F80D20838C9A4298D1D03029
S315080050B002F096FD04F1280604F1600002F090FD66
S315080050C0304600F05DF90023304684F822300AA9FC
S315080050D045F0C0FC034600B90A9BDDF83920DDF827
S315080050E03510A07ECDE908129DF8342007929DF868
S315080050F033200692DDF82F2005929DF82E20049283
S315080051002A7C0392EA7B0292B5F80D2001920122CD
S315080051100092B6E7022B7FF463AF90F822306D7BDE
S31508005120002B3FF45DAFD03002F05AFD94F82330DF
S31508005130BBB1012D06D104F1600002F051FD002338
S3150800514084F822300026A07E32462B46032184F8B6
S31508005150236045F073FC2A463146A07E45F070FC74
S315080051603EE7002394F8211084F82230012901D063
S31508005170042904D12B460022A07E45F05FFC94F852
S315080051802130012B31D013F0FD0F7FF429AF04F144
S315080051902806304600F0F4F830460AA945F05AFCCD
S315080051A0034600B90A9BDDF83910DDF8356094F836
S315080051B02120A07ECDE908619DF8341007919DF85D
S315080051C033100691DDF82F1005919DF82E100491E5
S315080051D09DF82D1003919DF82C100291A18CCDE914
S315080051E00051911E4A424A414BE72A460021A07EB9
S315080051F045F025FCF4E600BFA000090738B50024F1
S3150800520005465BF053F9074B1B681BB95BF049F978
S31508005210204638BD93F82A20AA4208BF1C461B68B8
S31508005220F3E700BF2C2600202DE9704304461646F6
S315080052300D46037B86B023F0180343F01003816103
S31508005240037301460D4845F02AFFD4E90489217BFA
S31508005250CDE90489227981F00403C1F34001019163
S315080052600292226B2946009220463246C3F38003F7
S3150800527045F0B4FB06B0BDE8708300BF2C260020BD
S315080052802DE9F0410C4690461E46054686B0002894
S315080052906FD000296DD04B68002B6AD0002A68D0E1
S315080052A08B7BFF2B67D00A7C4FF6FF73002A52D000
S315080052B0B8F802209A425ED02368002B57D0A389FB
S315080052C0173B9BB2E32B52D85BF0F0F807462B4B03
S315080052D01B68002B42D1A07BFFF790FF00283FD127
S315080052E001AB04F1100C1A4620686168083403C241
S315080052F064451346F7D120680021106038222846F5
S3150800530049F038FE01AC05F11C030DF1140C2246D8
S3150800531003CA624518605960144603F10803F6D1BA
S31508005320106818609DF8303085F82460EB842B7B74
S31508005330C5F8348043F008032B73AE800EB1731E94
S315080053409EB229460D48EE8045F0A2FE38465BF02F
S31508005350A8F8002008E0B8F80A20ABE79D42B7D1C4
S3150800536038465BF09EF82E2006B0BDE8F081212075
S31508005370FAE72220F8E72520F6E700BF2C260020CA
S3150800538070B50546C8B15BF091F806460C4B1B682C
S315080053902BB92D2430465BF084F8204670BD9D421B
S315080053A0F5D12C7B14F0100405D1062201212846DC
S315080053B0FFF73AFFEEE70224ECE72224EDE700BF09
S315080053C02C2600200368764A23F47F4323F007033C
S315080053D093422DE9F04705461BD002F1C06202F55B
S315080053E0403293421BD002F1794293420CD10079A4
S315080053F0FFF704FF40B1B5F80520038D9A4203D0A4
S3150800540013220221FFF710FF002080F00100BDE8FB
S31508005410F0878079FFF7F2FE0028F1D1F4E7C37927
S315080054201D2B01D01B2BEFD12879FFF7E7FE044689
S315080054300028E9D090F82B20EB79F2B91D2BE3D0A0
S3150800544094F82C00B5F80520616BC0B149889142E3
S31508005450DAD11D2B02D128791CF050FE6A89D2B206
S31508005460012A03D9208DC31E93420AD22B22022178
S315080054702046FFF7D9FE0120C7E71B2BDFE749893E
S31508005480E5E7297B94F824C0CF074FEA910301F09A
S3150800549002061BD5A380237B43F001032373A3884D
S315080054A026B1217B238141F0020121739C4564D8F2
S315080054B0E18CFF2901D099425FD304385843E1694A
S315080054C0013A83188B4251D91D22D0E7277BF90769
S315080054D01BD4E6464FF0010947F001072773A3805E
S315080054E05FFA8EF1994203D361890B446381D6E74B
S315080054F009FA0EF8D4E9047147EA080741EAE8719F
