:020000040800F2
:10000000C00A0020F91D0008D3AF0208D3AF0208D0
:1000100075CD0208D3AF0208D3AF0208D3AF0208F0
:10002000D3AF0208D3AF0208D3AF0208D3AF0208A0
:10003000D3AF0208D3AF0208BDAA0208D3AF0208AB
:10004000D3AF0208D3AF0208D3AF0208D3AF020880
:10005000D3AF0208D3AF0208D3AF0208D3AF020870
:10006000D3AF0208D3AF0208D3AF020811A800082B
:10007000ADEA0208D3AF0208D3AF0208D3AF02083B
:10008000D3AF0208D3AF0208D3AF0208D3AF020840
:10009000D3AF020819290008D3AF0208D3AF020872
:1000A000D3AF02085925000839250008D3AF02084C
:1000B000D3AF0208B98802088D910208F7A403089B
:1000C000F3A40308018902080DA50308FBA4030893
:1000D0005D910208FFA40308CD9102083592020841
:1000E000D3AF0208D3AF0208D3AF0208D3AF0208E0
:1000F0002BC20208D3AF0208D3AF0208D3AF020865
:10010000D3AF0208D3AF0208D3AF0208D3AF0208BF
:10011000D3AF0208D3AF0208D3AF0208D3AF0208AF
:10012000D3AF0208D3AF0208D3AF0208D3AF02089F
:10013000D3AF0208D3AF0208D3AF0208D3AF02088F
:10014000D3AF0208D3AF0208D3AF0208CDBF030874
:10015000CD720208D3AF0208E1A40308E7A40308A4
:10016000D3AF0208D3AF0208D3AF0208D3AF02085F
:10018000F0B5114A114C124E00F00105E3695F070A
:1001900013D40DB9334213D103EA00078F4207D1BC
:1001A0000B4A1A40002A0CBF00206FF00100F0BD7E
:1001B000013AEBD16FF00200F9E74FF0FF30F6E7BC
:1001C0006FF00100F3E700BF809698000000035035
:1001D000020001000B4B70B5D96911F480310DD1CB
:1001E00001244FF48072084E084DF46020462C64C0
:1001F0001A61FFF7C5FF3464EC6070BD6FF0010059
:10020000FBE700BF00000350001003500020035024
:100210004FF4803238B50E4B0E4C9A66E56941F6C4
:10022000713315400122E3630B4B0021DA60022396
:10023000606121202361FFF7A3FF10B92120FFF7A0
:100240009FFF0122054BDA600DB10023E36338BD47
:100250000090005000000350001003500020035095
:1002600070B5134C6061E3695B071ED40E4656F807
:10027000043B8D18A361AE420BD104230021212041
:100280002361FFF77DFF58B9BDE870402120FFF7DB
:1002900077BF08210846FFF773FF10B104232361DD
:1002A00070BD56F8043BA361E5E74FF0FF30F7E778
:1002B000000003502DE9F84315464FF48032184BE7
:1002C00089469A6603F51C33DF690646174041F6F6
:1002D0007132DA63012203F58053DFF84C80DA6073
:1002E00055B9284601220F4BDA601FB10022A3F551
:1002F0000053DA63BDE8F88306F5005404EA080405
:10030000A41BAC4228BF2C46494622463046FFF784
:10031000A7FF0028E6D12644A1442D1BE0E700BF3B
:10032000009000500020035000E0FFFF000000009C
:1003300000000000000000000000000000000000BD
:10034000013800D0FCE770470348044B834202D0D9
:10035000034B03B118477047B0860020B0860020D9
:1003600000000000064B0749C91A891048BF013137
:10037000491003D0044B0BB101481847704700BF28
:10038000B0860020B08600200000000010B5064CAA
:10039000237843B9FFF7D8FF044B13B10448AFF3F8
:1003A00000800123237010BD247F00200000000086
:1003B000D43F040808B5054B1BB105490548AFF308
:1003C0000080BDE80840FFF7CDBF00BF000000007F
:1003D000C80D0020D43F0408A3F5803A704700BF41
:1003E000174B002B08BF134B9D46FFF7F5FF00216D
:1003F0008B460F461348144A121A2EF0F0FB0E4B90
:10040000002B00D098470D4B002B00D098470020C0
:10041000002104000D000D48002802D00C48AFF365
:1004200000800AF0E1FF200029002EF041FB0AF0D5
:1004300021FE00BF000008000000000000000000D6
:10044000C00A0020C00A0020008100200000000037
:100450000000000037B5044614F07CF900284CD1A8
:10046000A368284A43F49013A360A26120772CF07C
:10047000E6FCA368A0801B030CD4B0F5FA7F09D971
:100480003BF05BFC0121054608463AF029FC284672
:100490003BF04EFC204614F085F978BBE06878B359
:1004A00016F0BAFE32F0C7FB2FF039FF12F070FBE6
:1004B00013F058F833F047FC31F0B8FD40F2044334
:1004C000ADF80430FF2301A88DF806300DF04AFF87
:1004D00000220121042032F09FFB002368468DF8A2
:1004E000003014F03BFB0321042016F05DF80A20D5
:1004F0000CF0BCFE20462AF0D7FA002003B030BD35
:100500000148CDE7050403007C86002008B50449B6
:1005100004481FF0C3F9BDE808401FF0F1B900BF5F
:1005200048C3030820C403084FF08052014B5A60AF
:10053000704700BF00ED00E0F8B50E460546D0B1AB
:10054000C9B10E4B0E4F1968386803F0D3F9044651
:1005500078B9062332460B49386803F099FA044605
:1005600038B901232A460849386803F091FA00B1E6
:100570002C702046F8BD2124FBE700BFD08200206C
:10058000F08200202C0004003C000400FF22044BF9
:100590001A701A721A741A760022024B1A70704777
:1005A000257F0020457F002073B56C4684E8060057
:1005B00000220D4911F8326001EBC205FF2E0ED169
:1005C00001F832000098094AC5F8020000206B705B
:1005D000A388EB8013780133137002B070BD013231
:1005E000042AE7D11A20F8E7257F0020457F002064
:1005F0000023094A12F83310814208D1FF2102F882
:100600003310064A00201378013B13707047013302
:10061000042BEFD12D207047257F0020457F00203F
:10062000002210B5064911F83240D300844202D1AD
:10063000981C084410BD0132042AF4D10020F9E7C7
:10064000257F00200023064A12F83310814204D08F
:100650000133042BF8D1002070470120704700BF00
:10066000257F002001460022064B1878884202D1DF
:100670005878012805D00132042A03F10803F4D187
:1006800000207047257F0020FF2208B5054B1A7017
:1006900002225A709A70FFF779FF0022024B1A70FB
:1006A00008BD00BF477F0020467F0020036837B5A4
:1006B00023F47F432E4A23F007039342044627D0B6
:1006C00008D82C4A93421ED002F5A02293422FD084
:1006D00003B030BD284A9342FAD18079FFF7B2FFC8
:1006E0000028F5D0A079FFF7BDFF0028F0D1A07950
:1006F000FFF77EFF002835D004238DF80430FF2358
:100700008DF8053010E003B0BDE83040FFF7BCBF06
:100710001A4B02791B789A42DAD14FF60373002202
:10072000ADF80430164B1A7001A82EF052F9CFE73D
:10073000124B827B1B789A42CAD1C57A002DC7D151
:10074000027A407A2B4642EA00226168207BFFF75A
:100750002BFF01238DF80430237B8DF80530084BE7
:100760001D70E1E702238DF80430A379C8E700BFCC
:10077000A0000401A0000100A0000601477F0020A6
:10078000467F002037B5274B05461B78264C022BA9
:1007900009D0FF2D0ED12078FF2827D122481EF046
:1007A00007FC40B104E020781EF03CFC0028F0D0AB
:1007B00003B030BD25700023A0220093114620789D
:1007C0001EF010FC0028F3D1A3782078012B61786B
:1007D00001D0FF2B0FD11EF045FC0028E8D10221EB
:1007E000207803B0BDE830401EF050BC1EF02AFC5B
:1007F0000028D3D0DCE71EF071FC0028D8D1A27805
:100800002078042A0CD101211EF054FC0028CFD1FD
:1008100000220421207803B0BDE830401EF072BCF5
:100820000222F0E7467F0020477F002010B50446F3
:10083000FFF708FF08B92D2010BD2046FFF712FF73
:100840000028F8D120461EF073FC0122014B1A70DB
:10085000F2E700BF467F0020034A0449002808BF92
:10086000114602201EF022BDE4C40308DCC40308C4
:10087000F7B5089F0546164690F8BE011A463B4656
:1008800079B1314618F0A6FE044638B9134B9B885F
:10089000B34203D13B7843B1012B15D0204603B0BE
:1008A000F0BD314618F07EFEEEE7B7F8011095F87E
:1008B000BE012AF008FB2B4642F21071084A009450
:1008C00005F59C7001F084FB2B4641F28831054A06
:1008D000009405F5B87001F07BFBDFE7B47E0020E3
:1008E000A3AC020855AB0208F8B54FF4E262002150
:1008F0000F482EF074F90025FF267F270C4C84F852
:10090000BE6184F8BF7184F8C16104F5D47304F545
:1009100094700A22022101352AF08DFB042D04F582
:10092000E274ECD100F09AFEBDE8F84000F0F4BDAE
:10093000E00D002005289ABF024B33F810004FF657
:10094000FF707047B47E0020094900220B4610B5A5
:1009500091F8BE41844204D14FF4E27101FB0230B0
:1009600010BD0132042A01F5E271F1D10020F7E750
:10097000E00D00202DE9F041374D04242E468AB0C9
:100980000DF1190806F59477384605A92AF0AFFB52
:10099000A0B930469DF81830BDF816209DF8141007
:1009A000CDF80080FFF764FF20B9384605A92AF08A
:1009B000BEFBE9E7052801D01A28F6D1013C14F066
:1009C000FF0406F5E276DDD1274695F8C031A3B3E2
:1009D00028460DF10A020DF109012AF0BCF89DF834
:1009E0000930032B34D104AB00934FF6FF7103ABF6
:1009F0000DF10B022AF031F950B395F8BE31002603
:100A00008DF82230B5F8BC3105A9ADF820300123AE
:100A10008DF824309DF80A3005F10C008DF8233054
:100A2000039B8DF81C600693049B0593FF23ADF890
:100A30001E302AF0A1FA85F8C061E234B4F5627F75
:100A400005F5E275C1D10AB0BDE8F04100F00CBE79
:100A500085F8C071F1E700BFE00D00201FB50C461E
:100A6000ADF80E10FFF770FF88B1028902F4C07272
:100A70007AB1017A0DF10E03074A84800093D2887F
:100A80000223C1F340012AF0AFF804B010BD2220C8
:100A9000FBE70220F9E700BFB47E00201FB50C463B
:100AA000ADF80E10FFF750FF88B1028902F4C07252
:100AB0007AB1017A0DF10E03074AC48000931289BE
:100AC0000223C1F3C0012AF08FF804B010BD222028
:100AD000FBE70220F9E700BFB47E00202DE9F04FCC
:100AE00087B0044600F080FE0546204600F080FAFC
:100AF0002368A44A23F47F43054023F0070385F0CD
:100B000001059342EDB200F05D822BD89E4A9342DC
:100B100000F03E820ED802F17F42934200F0E08165
:100B200002F54032934200F0CD8185F0010007B01C
:100B3000BDE8F08F954A9342F7D12079FFF704FF83
:100B400006460028F1D0E379B4F805100A2B24D02A
:100B50000023062290F8BE01CDE9003318F0E2FC34
:100B60000125E2E78A4A93420CD002F12C7202F589
:100B70008032934200F0E78002F17B4202F59E0250
:100B80009342D2D126793046FFF7DEFE0028CCD042
:100B9000214630462AF003F8E2E77E4B1F888F4259
:100BA00016D1238990F8BE01032B05D90023072213
:100BB000CDE900333946D1E7072205920DF1120243
:100BC000019205AA1A440092C3F104030022F1E73E
:100BD000DA888A422AD1238990F8BE01012B04D9F0
:100BE00000230722CDE90033B8E70DF1120201928C
:100BF000321D1A440092C3F10203002218F092FC45
:100C0000654AB4F8051053888B421CD1E3790A2B4E
:100C100029D12389012B34D80020ADF81400307A73
:100C200000F06007602F6BD1032032E01B898B42FC
:100C3000E6D1238990F8BE01012BD1D80DF1120223
:100C40000192B21DD5E753898B4209D0D3888B42DC
:100C500006D013898B4203D093888B4240F08F805B
:100C6000E3790A2B0AD00DF1120301930023062227
:100C70000093207918F056FC012381E02389012B91
:100C800006D90DF112030193002307220093F0E728
:100C90000020ADF814005089884208D1308900F452
:100CA000C070B0F5C07F33D10320ADF81400D088F8
:100CB000884207D1307A00F00607062F33D103208F
:100CC000ADF814001089884207D1307A00F0180777
:100CD000182F30D10320ADF8140092888A4205D134
:100CE000327AD20744BF0222ADF814200DF112026D
:100CF000019205AA1A440092C3F102030022B8E748
:100D0000870601D50220C4E74706C4D50120C0E705
:100D100096F90800002801DA0220C6E7707AC007B9
:100D2000C5D50120C1E7870701D50220C8E74007E4
:100D3000C8D50120C4E7070701D50220CBE7C006CC
:100D4000CBD50120C7E794F804904846FFF7FCFD97
:100D5000064600283FF4E9AE0F4BB4F80510B3F88F
:100D600002C061451AD05A898A4217D0DA888A426D
:100D700014D01A898A4211D09A888A420ED0002350
:100D80001D43D2E6A0005902A0000601A0000A01FE
:100D9000A0005905B47E0020A87E0020E279122A26
:100DA00004D00622484618F0E7FB65E76289022A6C
:100DB00001D00D22F6E727890FB10722F2E7B4F838
:100DC0000CE0AEF1020292B2012A8CBF4FF0000893
:100DD0004FF001082EF0020ABAF1010F8DF81280CF
:100DE0001FFA8AF01ED1614534D1338903F4C073F0
:100DF0000BBB337A68F3451360F3861333723046C6
:100E00000DF1120205A929F0A6FE9DF812209DF809
:100E1000141096F8BE012AF0BEF80022B4F80510AE
:100E20002079C0E7614516D1338903F4C07323B13B
:100E3000BEF1000F03D0FD22B4E7012A03D9337AB3
:100E400013F0600F01D10020D3E706F10C0000F091
:100E500013FDF8E70746B3F80AC08C4517D1337A7B
:100E600013F0600FE7D1012A08D93FB9338903F4A1
:100E7000C0731BB106F10C0000F0FEFC337A68F37E
:100E8000C7133372737A67F300037372B7E7DA88B4
:100E90008A4206D1337A67F3820368F341033372DF
:100EA000BBE71A898A4205D1337A68F3C30367F333
:100EB0000413F4E79B888B427FF461AF337A68F3C5
:100EC0000003ECE72079FFF73FFD00283FF42DAE4B
:100ED0006379A27943EA0223A0F8BC31002524E615
:100EE000DFF804B19BF800609EBB42F602134FF09E
:100EF00001084FF6FF7A3A4FDFF8F090ADF8143062
:100F0000384A3B46CDF80C900221002027F802AB6E
:100F100029F802AB02EB460218F0CEFA60B14FF0AE
:100F200000080136062EEBD18BF80080B8F1000FD7
:100F30000FD129F0C0FEF8E54EB10221039B37F82E
:100F4000020C05AA18F0B8FA0028E8D1E9E7012652
:100F5000D6E7FF20FFF7F8FC064600283FF4E5AD92
:100F60004FF4E27200212DF03AFE17230A22A6F870
:100F7000BC31022106F5D47306F594702AF05BF8B3
:100F8000207B0022012186F8BE012AF004F8A5E7A3
:100F9000A079FFF7D9FC064600283FF4C6AD00F55E
:100FA0009C7000F0F7FF06F5B87000F0F3FF06F153
:100FB0000C0000F061FCFF2386F8BE31A07929F017
:100FC00093FF8BE72079FFF7BFFC00283FF4ADAD1E
:100FD000A37A80F8BF31637A80F8C1317EE700BF21
:100FE000B47E0020ECC403084A7F0020A87E0020C5
:100FF00070B503687B4A23F47F4323F007039342D1
:1010000005468AB004D0002080F001000AB070BD0F
:101010000079FFF799FC04460028F4D00220B5F8C7
:101020000560FFF787FC8642EDD1EB79522B07D0A4
:10103000FC22B5F80510287918F09EFA0120E3E7A4
:101040002B8923B10321204629F046FEF6E72B7BAE
:10105000042B00F2C480DFE803F003475EB2C20055
:101060006B89032BEED12378012B01D10721EAE70D
:1010700020460DF10A020DF1090129F06CFD9DF8E1
:101080000930022B01D00621DDE704AB0093204696
:10109000B5F80D1003AB0DF10B0229F0DEFD08B918
:1010A0000821D0E794F8BE3105A98DF82230B4F8B4
:1010B000BC3104F10C00ADF8203000238DF8243051
:1010C0009DF80A308DF82330039B0693049B05930B
:1010D00029F052FF0028D6D16B7BAA7B43EA02237A
:1010E000638001232380A9E76B89032BAAD123788E
:1010F000012BBBD02046B5F80D1029F0C3FD002808
:10110000CED004F59C7000F045FF04F5B87000F0F7
:1011100041FF012197E76B89052B93D12378012BA0
:10112000A4D020460DF10A020DF1090129F013FDAA
:101130009DF80930022BA6D104AB00932046B5F8E8
:101140000D1003AB0DF10B0229F087FD0028A7D08D
:101150009DF80B30002B3FF475AFEA7B2B7C9A4255
:101160003FF670AF94F8BE1104F10C008DF8221018
:10117000B4F8BC118DF81C20ADF8201000218DF8BA
:1011800024109DF80A10ADF81E308DF82310039935
:1011900006910499059105A929F0F1FE58B904F5C5
:1011A0009C7000F0F7FE6B7BAA7B43EA022363800E
:1011B00040F2012396E72D287FF465AF70E76B8935
:1011C000012B7FF43FAF2578012D06D104F10C00EF
:1011D00000F052FB002323709BE7052133E7022137
:1011E00031E700BFA0000A08194A30B500231446B1
:1011F000114694F83A50854204D140F28C7202FBB9
:10120000031030BD0133042B04F28C74F1D10023A0
:1012100092F83A40FF2C13D140F28C725A438B184B
:10122000002483F83A004FF6FF703D320A441887D5
:101230001881988483F83B401846C3F88827E0E774
:101240000133042B02F28C72E2D10020D9E700BFF7
:10125000F41400202DE9F04F0368AC4A23F47F43D7
:1012600023F007038BB093420646059106D002F1A6
:101270000072934215D04FF0010A0EE04FF00009C2
:10128000437B047903930789C7F30B072046FFF7D5
:10129000ABFF054668B94FF0220A50460BB0BDE8D7
:1012A000F08F83794FF001094FF6FF7704790393AC
:1012B000ECE72046FFF748FB04900028EBD02046DF
:1012C000FFF792FF10B94FF02D0AE6E71C234FF607
:1012D000FF7C90F83B4003FB04010A89A04662456D
:1012E00075D10024974280F83B4040F0888000236D
:1012F0004FF01C0808FB0458C4EBC40198F816B062
:101300008900BBF1000F08BF9B4601F10E03069355
:10131000EB180293049B0A3193F8C13129443246F9
:101320000298CDF80090079129F0CFFB8246002863
:10133000B1D1049B079993F8BF3188F80C30BBF109
:10134000000F0DD00123C8F804000A46A8F8087061
:10135000214600932846042329F00DFD88F816A0A5
:10136000B9F1000F00F0848096F80AB096F8078073
:1013700006F10C07BBF1A00F3FF67DAF4FF000095F
:10138000634E5FFA89F39B4500F28980B8F1000F44
:1013900002D0B8F10F0F0ED15E490A684AB11C2382
:1013A0006343E858069B8618EB588350029B5B68A2
:1013B000736000230B60039B13B10F2B7FF46DAFA1
:1013C000059B022B00F099804FF01C0A65E79742BD
:1013D00023D067451DD00134E4B2012C0CD803FBA7
:1013E000040380F83B401A89A046BA4202D09A7D95
:1013F000BAB11F8100231DE0002380F83B30038930
:10140000BB4202D0847DDCB107810024A046234684
:1014100010E0022C7FF46BAF55E7022C0F81E9D16D
:1014200051E7059B022B0FD01C23002203FB045322
:101430005A6001231C2202FB0858A8F8087057E7DD
:10144000059BA046022B07D11C2303FB085395F8EC
:101450003A001989FFF722FB1C23002203FB0853E3
:101460005A604FF6FF739F424FF00103E2D13FE70E
:101470001C226243D5F88837AA5896F811B09B1AF7
:10148000244A96F80E801360214608232846029AC3
:10149000CDF8009006F1130729F06DFC6AE73B8850
:1014A000B8F10F0F3380BB7807F10307B3703378BF
:1014B00003F003038DF8273011D163F07F038DF81B
:1014C00027300023009301230DF1270221462846EF
:1014D00029F051FCB37809F101091F4451E70023B9
:1014E0000DF12702009321460123284629F043FCF1
:1014F000002300933A46B378E8E71C2303FB045427
:1015000095F83A002189FFF7A9FA5DE7A000590391
:101510004B7F0020F01400204FF6FF72FF2138B5FA
:1015200000250E4C04F5805084F83A10228784F888
:10153000C617A4F8C42784F8522FA4F8502F80F8B7
:10154000DE16A0F8DC2694F83A00013529F0CCFC30
:10155000042D04F28C74F6D138BD00BFF4140020C1
:1015600002460020044B1B6803B97047997E9142E4
:1015700008BF18461B68F7E7243300202DE9F8431D
:101580000D461646074600285ED000295CD04B6801
:10159000002B59D00B68002B5AD08A7BFF2A55D0DC
:1015A0008C89A4F11702E32A52D8043C013BA2B271
:1015B00013FA84F4B4FBF2F4013CA4B24EB90A7AF3
:1015C0004B899A4244D8A24244D8FF2B01D0A3426F
:1015D00040D83AF0BBFB81461F4BD3F80080B8F1EE
:1015E000000F26D1A87BFFF7BBFF38BB4FF48E72EC
:1015F000414638462DF0F3FA07F10C0305F11402C9
:1016000055F8041B954243F8041BF9D116B1002389
:10161000FC823B75FB8A3946FF2B3B7D0E4808BF99
:10162000FC82BB8029F0EAFC48463AF08AFB0020A5
:1016300008E0474502D0D8F80080D0E748463AF0A5
:1016400080FB2E20BDE8F8832220FBE72520F9E768
:101650002120F7E72D20F5E724330020014829F069
:10166000C6BC00BF243300202DE9F0474FF6FF76BB
:101670005B4D2C686CB93AF069FB06462C68594FF3
:10168000574D002C40F090803046BDE8F0473AF0CE
:1016900058BBA379190771D403F00602022A6DD052
:1016A000062A05D1A28823F00703A371531CA38047
:1016B000A788E38A9F4261D8DB1B9BB2B3425DD00F
:1016C000A379DA0737D4228BD4F80CE0131F0EF17C
:1016D000FF381FFA83FC07FB03F118FA83F3B3FB0F
:1016E000FCF3B7FA87F0013B9BB2BB4204BF1CFB83
:1016F00003FC0EF101024FEA501008BFA2EB0C03ED
:1017000040EA8700C0B20CBF9AB2033A236984F85A
:10171000220012BF92B240F0020084F82200194465
:10172000228404F123002DF065FAA37923F0070346
:1017300043F00103A371237FA77E94F81BA0B4F8A4
:10174000208004F12209DBB10120FFF7F3F84B46BA
:10175000014642463846BAF1000F13D017F03AFF5F
:10176000C0B9A37943F00203A371E37E6BB9A379F7
:1017700023F00703A371A3880133A380246879E7CA
:101780000520E2E717F00EFFEAE7A37960F3820392
:10179000A371F3E70528F1D01A281FBFA379A06031
:1017A00043F00803A371E9E7A288E38A9A4208D8C4
:1017B0009B1A4FF6FF729BB2934202D0A3791B078C
:1017C0000BD52146284629F028FCA2682046072A86
:1017D0008CBF0221B95C29F08CFA246851E700BF64
:1017E00024330020F8C403080368214A23F47F430C
:1017F00023F00703934210B5044611D002F10172A1
:10180000934219D01B4A934208D10079FFF7A8FEF2
:1018100020B1B4F80520038B9A4206D1012010BDF7
:101820008079FFF79DFE0028F8D013238360837929
:1018300043F008038371F1E7C379022BEED1012055
:10184000FFF778F8B4F80530834208D12079FFF724
:1018500087FE0028E2D0837943F00403EAE70520FD
:10186000FFF768F8B4F805308342D7D1EEE700BF40
:10187000A0000601A000090010B5044698B13AF096
:1018800065FA0A4B1B6823B92D243AF05AFA204610
:1018900010BD9C42F6D10623A360A37943F0080350
:1018A000A3710024F1E72224F1E700BF24330020D4
:1018B000024B1868B0FA80F04009704724330020CA
:1018C000F0B50646524D93B00F46286851492AF0AC
:1018D000FCFC29F0AEFB29F0ADFB334632464E4905
:1018E00028682AF0F2FC00230DF147021946184639
:1018F000CDE90E33CDE90C33CDE90A33CDE9083318
:10190000CDE90633CDE90433CDE90233CDE9003327
:101910001DF0DEFC044690BB7C782868022C31D098
:10192000FE2C3C494AD0012C57D12AF0CEFC29F09C
:1019300080FB29F07FFB3246384928682AF0C5FC35
:1019400097F9003001220093002130467B781DF08A
:1019500091FC044698B9304600F01CF90446002872
:1019600044D02F4928682AF0B0FC29F062FB29F006
:1019700061FB32462B4928682AF0A7FC192420462F
:1019800013B0F0BD9DF847302249012B08D92AF049
:101990009CFC29F04EFB29F04DFB32462249CCE756
:1019A0002AF093FC29F045FB29F044FB32461F49FD
:1019B00028682AF08AFC01237B70C1E72AF085FCA5
:1019C00029F037FB29F036FB32469DF8473018499D
:1019D00028682AF07AFC7C70B2E72AF076FC29F0BD
:1019E00028FB29F027FB32461249E1E7094928681C
:1019F0002AF06BFC29F01DFB29F01CFB2D6800F080
:101A0000FDF8042302460C4928462AF05EFCB6E79E
:101A10002833002000C5030805C5030849C503088D
:101A2000AFC60308B4C603087DC50308C3C50308D1
:101A30000EC6030853C60308EAC6030838B50546B0
:101A400029F0A0FA18B3134C134920682AF03DFC82
:101A500029F0EFFA29F0EEFA2A46104920682AF018
:101A600034FC284600F0B2F80B4920682AF02DFC1F
:101A700029F0DFFA29F0DEFA246800F0BFF8042329
:101A80000246074920462AF020FC002038BD2D20C0
:101A9000FCE700BF2833002000C5030808C703087F
:101AA000EAC6030803682B4A23F47F4323F00703A5
:101AB000934273B504463AD002F18072934217D034
:101AC00002F17E42934218D10579284629F05AFA4C
:101AD00098B1214C214920682AF0F7FB29F0A9FA96
:101AE00029F0A8FA2A461E4920682AF0EEFB1CE0DD
:101AF0000679304629F046FA20B9002080F001002E
:101B000002B070BDE38883B1134D164928682AF0EE
:101B1000DCFB29F08EFA29F08DFA237A3246009305
:101B2000E388114928682AF0D0FB0120E6E705790F
:101B3000284629F027FA0028DFD0074C07492068FB
:101B40002AF0C3FB29F075FA29F074FA2A460749EE
:101B5000CAE700BFA00059012833002000C50308D0
:101B60006FC70308AFC603082CC703089EC7030846
:101B700030B5024600230A25054905FB03F4601829
:101B80000C5D944203D00133042BF6D1002030BD0C
:101B9000C48500200C4910B500220C464B7833B1A7
:101BA0000132042A01F10A01F8D11C2010BD0A21DA
:101BB0004A43A118A054012218464A704B800B7169
:101BC000CB800B81F2E700BFC485002070B50022F6
:101BD0000A25094C05FB02F1665C0B19864203D00D
:101BE0000132042AF6D170BDFF22625200225A80CF
:101BF0001A71DA801A81F6E7C4850020002318469E
:101C0000054A517809B10130C0B20133042B02F109
:101C10000A02F6D1704700BFC48500202DE9F041CB
:101C20005D4C92B009AD94E80F0085E80F000DAA55
:101C3000174604F1100304F1200C16461868596881
:101C4000083303C663453246F7D11868534B08A9D9
:101C5000306018793AF080F851483AF082F85148EB
:101C60003AF07FF84FF4807308984F49ADF834305C
:101C7000814228BF01460C972AF05BFA29460A9058
:101C80004A4804F061F849482AF0FBF947482AF02D
:101C900021FA46482AF00AFAB4F8248001220421E5
:101CA0006846ADF8008029F04BFBE78C002201214B
:101CB00001A8ADF8047029F043FB268D0122042110
:101CC00002A8ADF8086029F03BFB658D01220421D4
:101CD00003A8374CADF80C5029F032FB354B4FF4CC
:101CE0004870C4F8C8344FF00213C4F8C434A3F5E4
:101CF0008033C4F8CC341C23C4F8B43405F0D2FDCE
:101D000007A8ADF81C5000F067FB142005F0CAFDD1
:101D100007A8ADF81C5000F04FFB232005F0C2FDD2
:101D200007A8ADF81C5000F057FBB9211F482AF056
:101D3000F6F907A8ADF81C5000F03EFB002204A8FD
:101D40001146ADF8108029F0FBFA002205A81146D3
:101D5000ADF8147029F0F4FA0122002106A8ADF8BC
:101D6000186029F0EDFA0122002107A8ADF81C50F7
:101D700029F0E6FA0D4803F0ADFF00230948C4F846
:101D8000B434C4F8C834C4F8C434C4F8CC3439F01A
:101D9000EBFF12B0BDE8F081CCC70308C8C8030848
:101DA000B0C80308B4C80308E070720000000A500D
:101DB00000C003500200030008B5044839F0D1FF09
:101DC0002CF01CFEBDE80840FFF728BFB0C8030890
:101DD000014839F0C6BF00BFB0C803080348044A31
:101DE0000449121A921029F0F5B800BF80010008CA
:101DF000400300080081002008B5154B83F30A88D2
:101E000000F030F8FFF7EAFF124B13498B4212D370
:101E10000020124B12498B4218D3FEF7E1FA1868E2
:101E200050F82240586840F82240013298688242B7
:101E3000F5D30C33EAE70022F8E71C6844F82200E7
:101E400001325C68A242F8D30833E4E70022F8E7E5
:101E500000000020DC3F0408E83F0408E83F0408D5
:101E6000E83F04084FF48041124B134A70B59A6062
:101E7000D3F88820114D42F47002C3F88820104A2C
:101E800005F5005491664FF0FF3222660D4A6266F6
:101E90000222C3F8D020BFF34F8FBFF36F8F4FF4F0
:101EA0004036002004F090FC0020E66004F070FC56
:101EB0002E6170BD00ED00E00000000800800044CD
:101EC00000900050F7FF3700014B1860704700BFCB
:101ED000C4820020054B1860054B1B6F03F00703FD
:101EE000032B01D138F0EEBC704700BFCC8200203C
:101EF0000080005008B504F081FC014B186008BD5B
:101F000028330020024B034918682AF0DEB900BFCD
:101F100028330020F8C7030870B50C4C0C4906465E
:101F200020682AF0D2F904F069FC0546206804F024
:101F300059FC3046FFF7E6FF284604F053FC2068C2
:101F40000449BDE870402AF0C0B900BF2833002022
:101F5000FAC70308FCC7030838B5054639F0F6FE92
:101F600000230B4A14685CB1AC4206D1A96A6BB17C
:101F7000996239F0E6FE012007E02346A46AF2E701
:101F8000002DF3D039F0DDFE204638BD1160F0E7BA
:101F90002C33002010B50446B0B139F067FA204662
:101FA000FFF7DAFF10B194F82C300BB9002010BD08
:101FB000064C2368002BF9D039F0C8FE2368013B9A
:101FC000236039F0BEFEF1E72220F0E73033002035
:101FD0002DE9F04385B00546914698460E469DF89A
:101FE000307009B9002F5CD12846FFF7D3FF0446B3
:101FF000002836D185F82C00686305F0E5FB8642A1
:1020000033D939F0CBFA2146844640F2E7304FF419
:102010007A720023E6FB0C0108F09CFE4FF0FF32C1
:10202000002308F097FE2B46E88611462846CDE9A6
:1020300000441D4A39F061FF044690B9C5E908988B
:1020400085F82D702E6339F081FE184A136833B37A
:102050001A469B6A002BFBD195620023AB6239F0D4
:1020600070FE204605B0BDE8F08347B12B463146EF
:102070002846CDE900440C4A39F0E2FADCE7304664
:1020800003A939F091FA04460028EAD12B462846E4
:10209000CDE90077044A039939F00BFFCCE71560CE
:1020A000DBE72124DDE700BFB12000082C3300204E
:1020B00091F82C3013B50C4683B98B8ECA8E93429F
:1020C0000ED243B9CDE9003320460B46124A4FF0F9
:1020D000FF3139F0D2FEA38E0133A38602B010BDCA
:1020E00052B191F82D3093B101230093D1E9082327
:1020F0002046096BFFF76CFF012384F82C30074B57
:102100001A6801321EBF1A6801321A60E6E70846F3
:1021100039F0ACF9F0E700BFB120000830330020FF
:102120002DE9F041154E336833B34FF00008144FDA
:1021300039F00CFE05463C6824B92846BDE8F0415C
:1021400039F0FFBD94F82C30A3B1336884F82C80AB
:1021500013B13368013B336094F82D3013B9204636
:10216000FFF7FAFE284639F0ECFDD4E908312046A5
:102170009847DDE7A46ADFE7BDE8F081303300204F
:102180002C330020034B1B68002B14BF04200120BC
:10219000704700BF30330020024B1868B0FA80F05F
:1021A000400970473033002030B5056887B0AB88F0
:1021B00004461848ADF80C3039F0D3FD0022012157
:1021C00003A829F0BDF80DF10B0103A829F0CCF804
:1021D0009DF80B3083F001032B70AB79022B15D1E6
:1021E0004FF0FF330022CDE9043304A90A4B0094D9
:1021F00003A800F067F9049B009401330CBF04228C
:102200000122054B05A903A800F0F6F8002007B04D
:1022100030BD00BFB0C8030857B20208002307B59D
:102220002948019339F09DFD4FF4407301220421A8
:102230006846ADF8003029F083F80122234B0520D1
:10224000C3F8442401A939F087FD002839D1204B77
:10225000D3F8F02042F00102C3F8F020D3F8FC20BC
:1022600042F08072C3F8FC201A4AA3F55D431A605D
:10227000019B194A03F5D52303F2FC43B3FBF2F3A8
:10228000164A013B13610223C2F8F0304FF4807309
:10229000C2F804334FF06043114AC3F8B02F114A1B
:1022A000C3F8802ED3F8002E42F48072C3F8002EBB
:1022B000FF2283F82020D3F8002E22F48072C3F886
:1022C000002E03B05DF804FBB0C8030800D0035033
:1022D00000ED00E0FF030040F8590D00000004E0AD
:1022E00055CEACC5090001004FF06043D3F8802EF5
:1022F00030B5D20715D501240B4D8440D5F8FC200C
:1023000042F08072C5F8FC20D3F8002E2243C3F8B7
:10231000002E53F82020002AF0D003F820100020CF
:1023200030BD1120FCE700BF00ED00E0F8B5044629
:102330000127124D0CB314F001000BD0002024F043
:10234000010405EBC0021668002EF3D05168C0B23C
:10235000B047EFE72246013020284FEA520201D071
:10236000D307F8D507FA00F20F2824EA0204E8D9C7
:10237000421E05EBC2021038E5E7F8BD34330020F9
:1023800008B50C4839F0EDFC192004F00FFA28B11B
:10239000192004F019FA192004F0FAF91A2004F0AF
:1023A00005FA28B11A2004F00FFA1A2004F0F0F907
:1023B000002008BDB0C8030848B101224378017865
:1023C0009A4030235943034B00205A507047222033
:1023D000704700BF40D0035048B1012243780178D4
:1023E0009A4030235943034B00205A507047222013
:1023F000704700BF40E003502DE9F0410D46904684
:102400001F460446002837D0002935D039F09EFCFD
:1024100023780646FF2B05D042462046296803F064
:10242000A9FD28602B68013309D12378FF2B06D141
:10243000124B6078D3F8241429F08EFE28602A68A5
:10244000531C13D00E49069B41F8327001EBC201B8
:102450004B602378FF2B04D001239340094AC2F834
:102460002434304639F06DFC002003E0304639F06A
:1024700068FC2D20BDE8F0812220FBE700C003505E
:102480003433002000D003500F2838B5054613D848
:1024900039F05CFC01230024084AAB40C2F8203428
:1024A000C2F82434064B43F8354003EBC5035C60A7
:1024B00039F047FC204638BD2120FCE700E00350FE
:1024C000343300202DE9F0410D4690461F46044666
:1024D00060B359B339F03AFC23780646FF2B05D098
:1024E00042462046296803F0CBFD28602A68531C29
:1024F00016D00F4902F10F0341F8337001EBC3010D
:10250000069B4B602378FF2B05D0012310329340AC
:10251000084AC2F82434304639F013FC002003E0A6
:10252000304639F00EFC2D20BDE8F0812220FBE77B
:102530003433002000D0035008B503F0BBFC054B3A
:1025400000F0553020F05020C3F82004BDE80840CA
:10255000FFF7ECBE00E0035008B503F0ABFC054B01
:1025600000F0AA3020F0A020C3F82004BDE8084005
:10257000FFF7DCBE00E003502DE9F04F9A46564BC2
:1025800085B01B7806460F461546DDF83C909DF851
:1025900044B0DDF85080002B00F09780072A00F24D
:1025A00096800E9B002B00F09280B9F1000F00F096
:1025B0008E80129BB3F5006F00F38980012803D150
:1025C000109B002B00F08380444B03EB05131B7B17
:1025D000002B7ED0424C1022002168462CF0FFFADE
:1025E00004EB45141022A7BB394620462CF0F7FA1D
:1025F00043F210036380BBF1000F03D1E37843F093
:102600000303E370364A0E9B02EB451CCCE90193B1
:10261000129B6901581E9DF84C30C0F30A0003F06C
:1026200003039B0643EA001E53582E48012E00EA7E
:1026300003004EEA0003CDF800A0535017D0B8F1C4
:10264000000F2ED19CF8023068F304138CF802308E
:1026500027E0002120462CF0C2FA4FF44473638037
:10266000BBF1000FCED1E37843F03003C9E7132369
:102670000CF1100ECCF80C309CE80F008EE80F0027
:102680006FF00301DCF81C20109B61F39F02012F07
:10269000CCF81C20CCF8143003D1CCF81890CCF82E
:1026A000043000270D4A290102EB051342F801808E
:1026B000159A28465A60694622469F605E7303F069
:1026C000A3F9384605B0BDE8F08F0748FAE7074898
:1026D000F8E70748F6E700BF4E7F002024350020CA
:1026E000243400200F80FFF3028000F0018000F00E
:1026F000078000F038B5124B05461B78DBB1E0B11E
:1027000039F024FB0F4A00231146147B54B92B6087
:1027100001251A0101EB03131D738C5039F011FBD5
:10272000204638BD0133082B02F11002EDD139F0FB
:1027300008FB0548F5E70548F3E70548F1E700BF62
:102740004E7F002024350020048000F0028000F03D
:10275000018000F038B539F0F9FA002305460B4A3C
:10276000147B6CB90133082B02F11002F8D103F08D
:10277000F7F8074B28461C7039F0E3FA204603E0CF
:10278000284639F0DEFA034838BD00BF2435002062
:102790004E7F0020058000F00D4B10B51B780446DD
:1027A00093B1072812D839F0D1FA0A4B03EB04137E
:1027B0001A7B2AB100241C7339F0C3FA204610BDDD
:1027C00039F0BFFA0448FAE70448F8E70448F6E7A6
:1027D0004E7F002024350020068000F0028000F0AB
:1027E000018000F0154B13B51868002301908DF897
:1027F000043039F0ABFA124B1C7824B139F0A1FA4D
:10280000104802B010BD01221A7039F09AFA0E4B2E
:1028100001A81C731C7783F82C4083F83C4083F894
:102820004C4083F85C4083F86C4083F87C4008237C
:102830008DF8073003F0B8F82046E2E7FFC7030839
:102840004E7F0020038000F024350020F8B50D4DA8
:102850002D7885B1072810DC0B4D060105EB00141F
:10286000277B67B1AB510025069BA560636003F031
:10287000CBF82846F8BD0548FCE70548FAE70548C7
:10288000F8E700BF4E7F002024350020028000F0D2
:10289000018000F0078000F00A4A08B512785AB1AA
:1028A00007280BD8084A02EB00131B7B43B1002119
:1028B00003F06CF8002008BD0448FCE70448FAE780
:1028C0000448F8E74E7F002024350020028000F005
:1028D000018000F0078000F00A4A08B512785AB16A
:1028E00007280BD8084A02EB00131B7B43B10121D8
:1028F00003F04CF8002008BD0448FCE70448FAE760
:102900000448F8E74E7F002024350020028000F0C4
:10291000018000F0078000F0184B2DE9F0411F6D99
:102920005B6D1F4000D5FEE701260025144CDFF843
:102930005880374218D02368C8F85060A3B1A16806
:10294000284601316268A1609847637B012B0BD157
:1029500050B90C4B03EB45131A7B60F341021A7319
:102960001A7F60F341021A770135082D4FEA4606B7
:1029700004F11004DDD1BDE8F08100BF0000045077
:102980002435002024340020002004502DE9F04F8D
:10299000144605460E469B46C36B87B001225B6911
:1029A00002A960689847EB6B01225B6903A9304676
:1029B000984702A829F06EF9074648B10023A3758D
:1029C00063754FF0FF33A360002007B0BDE8F08FC0
:1029D00003A829F06CF90123A375237E04EBC3033C
:1029E000DE611F846368B3420ED1206003A829F022
:1029F00080F94FF0FF332075A360237D043B022B49
:102A000026D80023A375DFE723681A1A53425341DF
:102A1000A37503A829F06DF9237D834218BFA7751C
:102A200003A829F048F9074602A829F044F987428B
:102A300018BF002303A818BFA37529F044F907465F
:102A400002A829F040F987421CBF0023A375D4E7F0
:102A500003A829F030F980B1EB6B022230465B69A4
:102A600004A9984704A829F035F90346207D0328D6
:102A700039D8DFE800F03838040903A8F3E7CC229E
:102A8000237E04EBC3031A8401F0B8FA109B18707C
:102A900003A8277E29F003F904EBC70787F8220073
:102AA000237E03A804EBC303B3F8209093F82270AD
:102AB00029F001F9804603A829F005F98246B8F10A
:102AC000000F15D0EB6B022230465B6904A99847D2
:102AD00004A829F0C4F86075637D6BB90023A37561
:102AE0004FF0000838E0227E04EBC2021384CBE7EB
:102AF00003A829F09FF8EEE794F81680B8F1000FCC
:102B0000EED0B9F1000F09D1DFB10123E375637E87
:102B1000002B4FD1012F42D1677614E06B6C06EB8E
:102B20000A02594286EA020008421CBF0021A17530
:102B3000591E0A409B1A9945D0D8A37D002BE3D19A
:102B4000CEE7E37D43B94FF000084B46524631468D
:102B5000284628F0DDFDA060A27D12B123694B4418
:102B600023611A49237E097899422AD901332376B1
:102B7000BBF1000F27D032B3E37D23B3B8F1000FD0
:102B800021D1032F1FD0A1684B1C1CD0109B2246C3
:102B9000009328460123FFF7F9FEA07513E095F88E
:102BA000343063B9EB6A0133CFD1032FCDD1012388
:102BB000A376C8E7012FCFD0032FC4D1F7E79846FB
:102BC000C3E70023A375A07DFFE600BF24C8030868
:102BD0002DE9F04F0E46984600238BB004464FF087
:102BE000FF31104617468DF8133001F0F1F9B6F5B4
:102BF000801F3BD3B21C53D1E56A6B1C57D12046D2
:102C0000616A28F0CBFC0546B31C18BF0123DFF82E
:102C100010910193636A626C0293236805A902FB19
:102C2000053AE36B05225B695046984705A829F0F1
:102C3000CCF829F0EFF8504629F0F7F84FF0000BE8
:102C4000824601464B1C05D0636C81EA0A025B4256
:102C5000134232D02946204628F0A0FC029BAB420A
:102C60004DD0BBF1000F4DD10546D3E7314605AA43
:102C700004F1080028F05CFF0146481C10D03846DB
:102C800001F0A6F90122394620460DF1130328F080
:102C900091FD28B19DF8133088F80030002003E042
:102CA000237C002BA8D12D200BB0BDE8F08F23682A
:102CB000ED1A636CB5FBF3F5A6E7484601F088F919
:102CC0000DF1130349462046019A28F073FD03468F
:102CD00090B1B21C03D0D9F80020B2420CD19DF8BB
:102CE000132003930D4B88F8002049461A68384694
:102CF0002BF080FF039B9B46D9F80810A2E7BBF19D
:102D0000000FD0D0B6F5801FC8D2314698F80030F9
:102D10007A6804F1080001F089F8BFE720C80308C9
:102D2000183C00202DE9F3410446174698460E460C
:102D3000194D816AE36A8B422AD04B1C18E0284661
:102D400001F046F90122294620460DF1070328F03B
:102D500031FD30B14346294620469DF80720B8474B
:102D6000B0B1A9684A1C05D0012E0AD0E36A994285
:102D7000E5D10DE06968204628F09DFC012E014652
:102D8000D8D16B6881EA0302636C5B421A42D1D0EE
:102D900002B0BDE8F08100BFEC3B00202DE9F04718
:102DA0004FF0FF334FF6FF720025044600F108068E
:102DB000C0E909238AB0C3620562056330460F4645
:102DC00028F087FE204628F069FB28BB20463946BC
:102DD00028F034FC204628F061FB28BB5E200AB0B6
:102DE000BDE8F087E26B2368606CD2F814C000FB8A
:102DF0000530052205A9E04705A828F0E6FF0128CF
:102E000040F083802946204628F0E9FB421C2946F1
:102E1000204628F062FB0135E3699D42E2D320465B
:102E200028F03CFB0028D1D0204628F067FB4FF665
:102E3000FF72636A934200F0B080E26B676C2068B7
:102E4000694607FB030055690522A847684628F034
:102E500093FF626A2368606C514D00FB023028F0DA
:102E6000E4FF4FF0FF33A062E3622A466FF00101F6
:102E7000204605ABFFF7ACFE002850D1AD682946CF
:102E80002046E56228F0E6FA206320B92046E16A90
:102E900028F011FCE0622946204628F00CFC05468B
:102EA000A36A9D423DD1204628F092FA0027804631
:102EB000B946E369994546D3B84563D92046616A66
:102EC00028F06CFB0026054604F1400ABE4212D3EE
:102ED000626C2368694602FB0539E36B05225B6976
:102EE00048469847684628F047FF534602464946F9
:102EF000E06B28F09CFF2946204628F04FFB013666
:102F0000B0450546E2D1642069E728F088FF002833
:102F100081D02946204628F062FB024677E7A56A61
:102F2000ADE72946204628F095FA236B294603444D
:102F300007462363204628F0BEFB0546002FAFD18D
:102F4000C4E90B07ACE7636C2568052203FB095550
:102F5000E36B05A95B692846984705A828F035FF6B
:102F600028F058FF58B1284628F05FFF0146204658
:102F700028F070FA636C143B984208BF013709F1DE
:102F8000010996E7304628F0A4FD002320461946A3
:102F9000044AFFF7C7FE002021E767201FE700BFB4
:102FA000443C0020A3B702082DE9F041036B904692
:102FB000826B07689A4288BF8363426C436A90B011
:102FC00002FB0377C36B0E46052201A95B69044629
:102FD0003846984701A828F0F8FE012801463070CD
:102FE00057D0656CE26B2368606AD2F814C005FBA9
:102FF0000030052206A9E04706A828F0E6FE0128D1
:103000004FF0000523D0D4E90A3201219342CDE9E3
:103010000B458DF834800E958DF83C102AD1194659
:10302000204628F048FB236B626C14339B1AE06245
:1030300023630C9B53B99DF83C303BB1626A616CD1
:103040002368E06B01FB023128F077FE0C9DE36BF7
:1030500005225B6901A93846984701A828F0B5FE0A
:1030600030702846236BA26B9A4288BFA36310B0CE
:10307000BDE8F081237C33B91C490BAA04F1080098
:1030800000F022FFD5E72046194A0BABFFF74AFEB6
:10309000CFE7237C23BB2246164904F1080000F049
:1030A00013FF616A204628F09AFA616A421C2046A2
:1030B00028F013FA054620B9236B626C1344143BC5
:1030C00023632046A16A28F0F6FA2368A062C01A9A
:1030D000636CB0FBF3F06062204628F02FFBB6E78C
:1030E00000232046044AFFF71DFEDAE741380008B6
:1030F000BD3700083DB80208D9B7020873B50D46C0
:10310000D11E4A421C461B7E4A419A4226D129685A
:103110002368994222D3636899421FD8114E0DF15A
:1031200007033246FFF754FDC0B972686B689A42D4
:1031300014D19DF80730DA1E53425341227E934248
:103140000CD1636901336361D4E90323934205D24F
:103150002968A26842F8231001332361012002B0DC
:1031600070BD00BF443C00202DE9F04F9A468BB063
:103170009DF85030DFF850B10293DBF810308046F4
:1031800053450D461646C0F09980D146DBF8043011
:103190000193B9F1000F00F08D80D8F83C30012286
:1031A0005B6907A90198984707A828F080FDDBF81C
:1031B0000030984240F0858007A828F084FD04285C
:1031C000074614D107A828F085FD019B029A044602
:1031D0003B44002A3FD1864212D91446361A404653
:1031E000019928F068FAA9EB04090190D1E7D8F811
:1031F0003C3002225B69019808A9984708A8E2E7D9
:10320000841B544528BF5446032C03EB0607AAEB46
:10321000040A4FEA94021CD9D8F83C3029463846B3
:103220005B69984724F0030304F003061F441D4420
:10323000002ED4D0D8F83C3001225B6908A938466A
:1032400098473246284608A935442BF0D3FC00267F
:10325000C5E72646ECE7074600F003020392034465
:103260002A1804920593049BDD1B059BD81B039B26
:103270009F420FD1002FB2D0D8F83C30012208A9CC
:103280005B6998473A46284608A92BF07EFC78B936
:103290003D44A4E7D8F83C30012208A95B6998476F
:1032A0000422284608A92BF070FC08B9043FDAE78D
:1032B0004FF0360948460BB0BDE8F08F4FF0630978
:1032C000F8E74FF06F09F5E7703C00202DE9F04179
:1032D0000F4616469846044688B060B390F83450BE
:1032E000FDB1012128F0CFF800210E9BCDE9051199
:1032F000CDE902379DF83C30CDF804808DF81C30C4
:10330000237C04968BB90D4901AA04F1080000F052
:10331000DBFDDDE90553E06B002E08BF1D4628F0FC
:103320009BFA284608B0BDE8F0812046044A01AB6C
:10333000FFF7F8FCEDE70546F3E700BF07B8020822
:10334000FD3000082DE9F04F99B00F4609920A6947
:10335000416C0E931439D31DB3FBF1F3013302EB2F
:10336000C302036B04469342C0F0BC810023DFF824
:1033700044940D93E36A48461946079300F028FEEB
:10338000D7E9033604930E9B022B4ED1CC2E40F08E
:103390008A81099B002B42D03946204628F0BAFA90
:1033A000656C079A6B1E13401490ED1AE36B0122B3
:1033B0005B6916A97868984716A828F07CFC002855
:1033C0000CBF04230823782E06933DD90123002542
:1033D0004FF0080A05933B6805990E98C9F800302C
:1033E000C9F8106028F089FC4FEA9A031093002373
:1033F000DDF81CB089F814000B930F9308930C931D
:10340000616C4A1E0BEA02028B1A002E38D055441A
:10341000AB4240D8236B5B1A13442363ABE0049B9D
:103420001B68149308230693D0E7656C079A6B1EFC
:103430001340782EA5EB030516D8FB7D7BB9099BBD
:10344000002BB3D104230693331DAB4210D9A6B190
:10345000082DBBD804250023AA460593BBE7099B8A
:10346000002BA3D10823EEE7099B002B9ED1D9E7BF
:10347000002505954FF0040AADE704250596F9E708
:103480005345C7D3B0460BEB0A030393089B002BAD
:1034900018BF032313E0A3EB0A039E42B0460BEBD5
:1034A0000A0228BF98469E420392EFD90123D9F819
:1034B000102089F81730964271D1C9F804B00893EA
:1034C00099F81730002B6CD099F818200899D31C64
:1034D00009EBC3030132C3F804B0A3F80880997262
:1034E00089F81820B8F1000F14D00E9B022B5BD185
:1034F0000B9B7BB90F9B4344032B0BD9E36B01223E
:103500009B69039814A998470546002840F0EC8071
:1035100001230B93089B16A80193059B009399F830
:1035200014204346396800F009FDE36B58469B6957
:10353000109A16A99847051E0D9B18BF5B46524668
:103540000D9359464346204628F0E2F8236B08F1D4
:103550000302A3EB0A0322F003029B1AC9F8080036
:103560002363002D40F0C0800F9BDDF80CB0434476
:10357000A6EB08060F935946204628F09CF8002534
:103580008346002E7FF43CAF8A4A3968936804F181
:103590000800E36252680E9B00F048FC84E00223BE
:1035A0008DE7C9F804B09DE7099B002B30D1049B3F
:1035B000B8F1030F43440A9327D9DDE90301E36B14
:1035C0004FEA98029B6998470546002865D118F094
:1035D00003025FD0049B28F003052B440493039B54
:1035E0001D444FF0FF33049915A815932BF002FBEF
:1035F000E36B28469B69012215A9984705460A9B5B
:103600000493002D86D0039B99E74246039DE8E78B
:10361000039B0A9307F120031193FB7D78689BB10C
:1036200000233D7E0C9AD9B28D4211D9119903F134
:10363000010C31F83310914226D9069907EBC303E8
:10364000D8690A44104403E00C9B069A13441844BA
:10365000E36B01225B6915A99847159B012213931F
:103660000C9B0A9804330C93E36B13A99B6998474E
:10367000039B0A9A43449B1A042B054607D978B941
:10368000134604330A93C8E76346521ACBE70A9BF2
:103690000393B6E70A9B04933CE70A9B0493B2E7C3
:1036A0000A9B0393AFE77026304619B0BDE8F08F50
:1036B000002657E004F1080028F00BFA33463146A3
:1036C00020463D4AFFF72EFB3A69616CD31D143941
:1036D000B3FBF1F3013302EBC302236B9342BFF45C
:1036E00049AE65E01C26DFE73D2D61D104F10803FA
:1036F00003932368079A606CD61AB6FBF0F600FBBA
:10370000063028F092FBE16A8246204627F0D3FF7C
:10371000A26A8242D8D0626CD9F80830511E0B40A0
:10372000216BE062891A0B4423630D992368CB1A3D
:10373000B3FBF2F84645BBD1079BB3EB0A0611D0A9
:10374000E36BB20851469B6998478346E36A079A40
:103750003344E362236B03989B1A5344236328F09A
:10376000B8F95E462368616CE06B01FB083128F014
:10377000D1FA204627F092FE204627F0BFFE626A6B
:103780002368606C00FB023028F04FFBA0622046EB
:1037900027F0D4FF2063002E8CD03A69616CD31DD2
:1037A0001439B3FBF1F3013302EBC3029042A0D210
:1037B0002E4679E7183C0020A3B70208032A2DE91A
:1037C000F34106460D4617461C4606D1237A012BC7
:1037D00023D0012002B0BDE8F081DFF860800968E5
:1037E00042460DF10703FFF7F3F960600028EDD1C1
:1037F0009DF80720237A032AE8D0D8F804106A68D5
:103800009142E3D1012B2969D4F80CC007D1726928
:103810000CEB0103934202D92074207CDAE70831D3
:103820006144E1603B46012229463046FFF78AFDAC
:1038300060600028CAD00020CCE700BF443C0020D4
:103840002DE9F341089C032A1746266806D1237AFE
:10385000012B24D0012002B0BDE8F081DFF8908078
:10386000304642460DF10703FFF7B2F960600028C9
:10387000EDD12568D8F80400A96AD5F844C04840BD
:10388000CCF100031840227AE1D1012A09D1E26883
:10389000D8F8103013447269934202D92074207C06
:1038A000D9E72868EB6A1B1A081AB3FBFCF3B0FBD4
:1038B000FCF083420BD1706CF36A421E1340326BF2
:1038C000121A13442846336327F0F5FEE862D8F84D
:1038D0001020E36808321344E36001223B460449A8
:1038E0002068FFF72FFD60600028B0D00020B2E70D
:1038F000443C00202DE9F0410025634B0E46D3F8EF
:10390000008004461D6018B921252846BDE8F081D5
:1039100090F8347007B30A6803689A4240F0AA80AE
:103920004A6843689A4240F0A5808A6883689A4250
:1039300040F0A080CA68C3689A4240F09B800A6940
:1039400043699A4240F096808A69C36B9A4240F07C
:1039500091804B698361D8E768223946856B2BF0EB
:103960003EF9D6E90212336804F108002360736857
:10397000A5636360336963617369A36128F0BBF871
:10398000B36904F14000E3639B68984720B9676C12
:1039900017B16368B3FBF7F794F84330E761002B86
:1039A000B2D00023656C2366002D6BD0002F69D048
:1039B0002368B3FBF5F205FB1233002B5CD167687B
:1039C000B7FBF5F605FB1676002E55D1204627F0FD
:1039D00031FDA369043303449F424FD340F6347250
:1039E0006369CC3B93424BD8B5F5805F4AD3032142
:1039F000204627F048FDD4E90001E36B1B68984797
:103A00000546E36B0220DB6898472DB184F83460EB
:103A1000E06B27F021FF78E741462046FFF7BEF92B
:103A20006428054604D141462046FFF7B7F905460C
:103A3000636C143BD5B9226A204602FB03F627F0DB
:103A4000F9FCA369043303449E4203D284F8345042
:103A50005A25DDE70123D4E900010C4A84F834300B
:103A600013680133136028F0E0F8D1E7002384F8ED
:103A70003430CDE75D2548E7592546E75A2544E728
:103A80005F2542E75B2540E7A8350020A4350020EC
:103A90002DE9FF410C4616461F46054680B390F8B7
:103AA00034307BB3B1F5801F2ED2DFF86080012166
:103AB00027F0E9FC2146424628460DF10F03FFF7A7
:103AC00087F8044670B99DF80F30012B11D1D8F852
:103AD0001030BB4212D10246009031462846FFF713
:103AE00043FB0446E86B27F0B7FE204604B0BDE870
:103AF000F081022B14BF2D246024F3E76324F1E747
:103B00002124F2E71124F0E72924EEE7703C00209D
:103B10002DE9F04385B00C4617461E460546DDF8F4
:103B2000308098B390F8343093B3B1F5801F31D220
:103B3000DFF86490012127F0A6FC21464A4628467A
:103B40000DF10F03FFF744F8044688B99DF80F30D4
:103B5000012B14D1D9F8102006EB08039A4213D395
:103B600000904346324639462846FFF7FDFA0446A0
:103B7000E86B27F071FE204605B0BDE8F083022B0C
:103B800014BF2D246024F3E76324F1E72124F2E736
:103B90001124F0E72924EEE7703C00202DE9F341E1
:103BA0001F4600230C46164605463B6050B390F86E
:103BB00034304BB3B1F5801F28D2DFF85480012197
:103BC00027F061FC2146424628460DF10703FEF727
:103BD000FFFF0446A0B99DF80730032B10D0022B3D
:103BE0000AD10123336004233B60E86B27F034FEE5
:103BF000204602B0BDE8F081D8F810303060F3E71D
:103C00002D24F2E72124F3E71124F1E72924EFE73B
:103C1000703C002073B50446416927F0F0FB626EEA
:103C2000236B024493422CBF00220122834294BFA3
:103C300000231B1A207C84F85020636584F8580008
:103C4000A8B100230B4E1A4619462046009627F0CD
:103C50002EFF002305461A4619462046009627F0F7
:103C60002FFFE3682844984294BF0020C01AE06503
:103C700002B070BDFFFF0F002DE9F3471E464369F8
:103C80000446B342884617469DF828904FD3002536
:103C90008DF807502046616927F0B1FBD4F830A0B9
:103CA00082450AD2236AB5EB430F06D20022204692
:103CB0000DF10701FFF778F9B8B39DF80730012B34
:103CC00005D1002220460DF10701FFF76DF9B9F18A
:103CD000030F06D03146204627F091FB256B854225
:103CE00027D3154D4FF0FF31284600F071F94B46B0
:103CF000294600222046C5E90376C5F80080FFF773
:103D000021FB236E054663B12046FFF783FF94F83D
:103D1000503013B994F858301BB1236E04F15000A1
:103D20009847284602B0BDE8F0870135B2E7622522
:103D3000F7E71C25F5E700BF443C00202DE9FF41D3
:103D40000F4690461E46054698B390F8343093B31C
:103D5000B1F5801F31D21A4C022127F094FB224684
:103D6000394628460DF10F03FEF732FF024678B1BF
:103D7000012342460093394633462846FFF77CFF2D
:103D80000446E86B27F068FD204604B0BDE8F081EA
:103D90009DF80F30012BEBD12169B142E8D100939E
:103DA000414633462846FFF7DFF904460028DFD1B5
:103DB000E7E72124E8E71124E6E72924E4E700BF48
:103DC000703C002030B50C46054685B028B390F80D
:103DD000343023B3B1F5801F23D2022127F053FBE7
:103DE0000DF10F03214628460F4AFEF7F1FE034668
:103DF00088B99DF80F20032A0DD003222146009296
:103E000002462846FFF738FF0446E86B27F024FDFA
:103E1000204605B030BD2D24F7E72124F8E7112412
:103E2000F6E72924F4E700BF703C00202DE9F043B9
:103E3000466886B3056898464FF0000CA946AE4622
:103E400055F83C400CF1010CC4F31307013401D0C8
:103E5000B94217D066450EF1080EF1D12F46002465
:103E600003E0A64207F1080712D055F834300134B8
:103E70000133F6D1C1F3130141EA0851C7E9001239
:103E8000BDE8F08341EA0851CEE90012BDE8F083B5
:103E9000B8F1030F03D101230372BDE8F0830023BF
:103EA00003E09E4209F10809F5D055F8334001338B
:103EB000C4F30754032CF4D1C1F3130343EA0853AA
:103EC000C9E90032BDE8F0832DE9F04106464068BB
:103ED00082B0C0B10F4690460024336853F8345086
:103EE00003EBC403C5F30752C5F31301013504F115
:103EF000010406D05B683046CDF80080B84710B1A9
:103F000070688442E9D302B0BDE8F081024B1968C1
:103F1000024B1868FFF7EEBCD0820020F082002030
:103F200008B537F00AFF014B186008BD9C3C002023
:103F3000014B186837F0FCBE9C3C002073B504466A
:103F40002248012A00EAC1119DF8185023F07C4054
:103F500007D9961E012E28D9073303F07F03194392
:103F600008E09DF81C300A43DB0603F0C0531343FE
:103F700043F060410023C4E900108DF80730B5B16B
:103F8000202221460DF1070027F06BFF1A220DF1C8
:103F90000700211D27F065FF082063689DF80720B2
:103FA00043EA8263636002B070BD1143E2E71B2203
:103FB0000DF10700214627F054FF23689DF80720E4
:103FC000042043EAC2632360EDE700BF80FFFF07E0
:103FD00038B5094B0D461A68002104462AF0FFFD4A
:103FE00000234FF0FF322383C4E900252361A26040
:103FF000E382A37638BD00BF20C803080138C0B2F1
:1040000005289ABF014B185C0120704725C803089A
:104010002DE9F0410746154600240E46596888B040
:10402000490A012922464FEA510104F10104F8D856
:10403000DC78997824031B88C90201F4006104F438
:1040400080540C43C3F30A035203234492B24FF04B
:1040500000089C18274B6FEA0444039325F078432B
:10406000ED4302A90DF107001B2202938DF8078092
:1040700027F0F7FE9DF80720029B02A943EAC263DE
:104080000DF107001B2225F07845049302958DF869
:10409000078027F0E6FE9DF80720029B6FEA144494
:1040A00043EAC26305934FF0FF330794069307A9D1
:1040B000BB69012206F110009847BB6905A90446B7
:1040C000012206F108009847BB69404518BF044625
:1040D00004A90122301D98470122404518BF04461B
:1040E000BB69304603A99847404508BF204608B041
:1040F000BDE8F08101009AB2044BD3F88420D206C7
:10410000FBD4D3F88400C0F3811070470040005006
:1041100038B5174B0546D3F828310C4603F0070392
:10412000013B052B20D8DFE803F003131B0F0B170F
:1041300036F0A2FB052305B1286004B1236038BD29
:1041400036F09AFB0623F6E736F0E0FB0723F2E7AA
:1041500036F0D2FB0323EEE736F0CEFB0423EAE78A
:1041600036F0C6FB0223E6E700231846E3E700BF6C
:1041700000800050002337B50193164B0546D3F855
:1041800020320C4603F00703042B21D8DFE803F0AC
:10419000030B11161B0001230DB1019A2A6004B113
:1041A000236003B030BD002101A8FFF7B1FF122347
:1041B000F2E736F0ABFB07230190EDE737F0B2FDF5
:1041C0000A230190E8E736F0F5FB09230190E3E7C5
:1041D0000023E1E70080005038B5104B0546D3F8C6
:1041E00080300C4603F00303022B0BD0032B0DD0C1
:1041F000012B0FD136F046FB0E2305B1286004B128
:10420000236038BD36F082FB0723F6E736F034FB37
:104210000623F2E700231846EFE700BF00800050B6
:1042200038B5104B0546D3F800310C4603F00303B4
:10423000022B0BD0032B0DD0012B0FD136F05CFBE2
:10424000032305B1286004B1236038BD36F0B2FB0A
:104250000923F6E736F056FB0823F2E70123002096
:10426000EFE700BF0080005038B5184B0546D3F883
:1042700020010C4600F00700062823D8DFE800F0F4
:10428000040A0E16121A1E00012305B1286004B19B
:10429000236038BD36F0F0FA0523F6E736F02CFB44
:1042A0000323F2E736F032FB0723EEE736F020FB7C
:1042B0000223EAE736F0E0FA0623E6E736F01CFBD5
:1042C0000423E2E700231846DFE700BF0080005028
:1042D00038B5104B0546D3F840310C4603F00303C4
:1042E000022B0BD0032B0DD0012B0FD137F01AFD71
:1042F0000A2305B1286004B1236038BD36F05AFBAB
:104300000923F6E737F011FD0C23F2E70123002023
:10431000EFE700BF00800050002337B50193164B34
:104320000546D3F860320C4603F00703013B032B2C
:104330001FD8DFE803F0020E1914002101A8FFF7CF
:1043400093FF10230DB1019A2A6004B1236003B0DA
:1043500030BD002101A8FFF7BBFF1123F2E736F0C3
:10436000D5FA07230190EDE736F0C2FA0223019057
:10437000E8E70023E6E700BF00800050002337B5E0
:104380000193164B0546D3F894320C4603F007030D
:10439000013B032B1FD8DFE803F0020E19140021A4
:1043A00001A8FFF761FF10230DB1019A2A6004B143
:1043B000236003B030BD002101A8FFF789FF11235E
:1043C000F2E736F0A3FA07230190EDE736F090FA12
:1043D00002230190E8E70023E6E700BF00800050D9
:1043E00038B5104B0546D3F860310C4603F0030393
:1043F000022B0BD0032B0DD0012B0FD137F092FCE9
:104400000A2305B1286004B1236038BD36F0D2FA22
:104410000923F6E737F089FC0C23F2E7012300209B
:10442000EFE700BF008000502E4B98424AD022D8C0
:104430002D4B984240D014D82C4B984239D00AD8F2
:104440002B4B984232D02B4B98422FD02A4B98427C
:104450002CD000207047294B9842FAD1284B186F76
:104460007047284B98422AD0274B9842F1D1244BD1
:10447000D3F880007047254B98422BD009D8244BA5
:10448000984223D0234B9842E3D11D4BD3F88C00A4
:104490007047214B984221D003F5740303F5105364
:1044A0009842D6D1164BD3F898007047144B986DAC
:1044B0007047134B586E7047114B586F7047104B35
:1044C000986F70470E4BD3F8840070470C4BD3F8AD
:1044D000880070470A4BD3F890007047084BD3F818
:1044E000940070470048E8010024F400C0CF6A003F
:1044F00080841E0000093D0040420F00405DC60060
:104500000080E00FC0EA210180BA8C01007E5603D2
:1045100080D54302006CDC020090D00373B50D46D9
:104520000021114B0191D3F88041064604F00304A9
:10453000022C13D0032C0CD0012C13D101A8FFF7AF
:1045400093FE10240EB1019B336005B12C6002B0C4
:1045500070BD36F0DBF907240190F3E736F0C8F9B7
:104560000190EFE70C46EDE70080005038B5104BA6
:104570000546D3F840320C4603F00303022B0BD060
:10458000032B0DD0012B0FD137F0CCFB0A2305B143
:10459000286004B1236038BD36F00CFA0923F6E731
:1045A00037F0C3FB0C23F2E701230020EFE700BF45
:1045B0000080005038B5144B0546D3F800020C4675
:1045C00000F0070004281BD8DFE800F003090D11F4
:1045D0001500012305B1286004B1236038BD37F010
:1045E000A1FB0A23F6E736F0E5F90923F2E737F0F5
:1045F0009CFB0C23EEE736F065F90F23800AE9E710
:1046000000231846E6E700BF0080005038B5144B81
:104610000546D3F808020C4600F0070004281BD812
:10462000DFE800F003090D111500012305B1286032
:1046300004B1236038BD37F075FB0A23F6E736F086
:10464000B9F90923F2E737F070FB0C23EEE736F0F7
:1046500039F90F23800AE9E700231846E6E700BF8F
:1046600000800050B0F5207F1FD009D8B0F5007F42
:1046700015D003D868B1B0F5C07F0AD000200CE097
:10468000B0F5607FFAD10B4BD3F88000C0F3011076
:1046900003E0084B186FC0F3033001307047054B3F
:1046A000D3F89000C0F30460F7E7024B186FC0F333
:1046B0008020F2E70080005002464FF48030104B1B
:1046C00010B598660020FFF7CDFF504341F67132D8
:1046D0000C4BDC69DA635A6804F4803422F440122B
:1046E00059B90949884294BF0020012000050243BE
:1046F0005A600CB10022DA6310BD0449F2E700BF32
:104700000090005000000350005A6202002D310159
:10471000430905D0012B0CD0022B084B18BF0023F6
:1047200000F01F0039B103F58053012282401A6066
:104730007047034BF4E703F50053F6E76880005039
:10474000648000501FB50021B0F5807F0446CDE99C
:10475000001100F0D2803AD85E2833D85E2833D8D2
:10476000DFE800F045323232323232323232323227
:104770003232323232323232323232323232323219
:104780003232323245AC45ACBCBCBCBCBCACC64E13
:104790006BDC4EACACAC3232323232323232ACAC98
:1047A000AC7EE6AC323232323232323232323232F5
:1047B00032BC454545E14E4EEB8D63C1323232325B
:1047C000329E4500802870D0009804B010BDB0F52E
:1047D000D06F00F0A38035D8B0F5607F79D01AD8BB
:1047E000B0F5007F65D005D8B0F5C07FECD136F0CC
:1047F00069F85CE0B0F5207F60D0B0F5407FE3D190
:1048000036F060F802464FF42070FFF72BFFB2FB42
:10481000F0F252085BE0B0F5B06F69D00AD8B0F59D
:10482000806F5BD0B0F5A06FCED100216846FFF756
:10483000A1FCC9E7B0F5C06FC6D100216846FFF7FB
:1048400047FDC1E7B0F5106F6DD00ED8B0F5086F19
:1048500078D0B9D8B0F5E06F6AD0B0F5F06FB3D1C9
:1048600000216846FFF7BCFDAEE7B0F5406F3AD0D7
:1048700013D8B0F5206F60D0B0F5286FA4D1002117
:10488000324B0391D3F8703203F00303012B02D1B2
:1048900003A8FFF71DFD039B39E0B0F5486F93D1E6
:1048A00000216846FFF76AFD8EE735F0EBFF0090C8
:1048B0008AE735F0E7FF0246204604E036F002F8CA
:1048C00002464FF42070FFF7CDFEB2FBF0F20092EB
:1048D0007AE701A8FFF780FC019AEDE7002168461E
:1048E000FFF7C2FC70E700216846FFF711FC6BE799
:1048F00000216846FFF712FE66E74FF0E0230291C1
:104900001B695B0705D535F0DDFF0290029B009324
:104910005AE703A902A8FFF7DBFCF7E70021684686
:10492000FFF748FE50E700216846FFF76FFE4BE7B0
:1049300000216846FFF71AFE46E700216846FFF7A8
:10494000EBFC41E76846FFF76BFC3DE70080005059
:1049500008B58020FFF7F6FE034B98429EBF4FF448
:104960008032024B1A6708BD005A620200A0005054
:104970001FB503460020B3F5807F019000F0C5808D
:1049800065D85D2B56D84C2B07D82D2B48D8232B18
:104990002CD8019805B05DF804FB4D3B102BF8D8DE
:1049A00001A252F823F000BF014B00089349000810
:1049B0009349000893490008AF4A0008934900084A
:1049C000934900085B4B0008CD4A0008734A000871
:1049D000514B000893490008934900089349000887
:1049E0009349000893490008654B0008243B092BB4
:1049F000CFD801A252F823F0014B0008014B000868
:104A0000014B0008014B0008014B000893490008C6
:104A1000F74A0008934900088F4A0008374B0008FE
:104A20003D2B00F083803E2BB3D1002001A9FFF77E
:104A30009DFDAEE7802BACD1504B1B6F03F00703FD
:104A4000013B032BA5D8DFE803F0544D5052B3F5DA
:104A5000F06F6BD020D8B3F5B06F4CD00ED8B3F553
:104A6000607F71D095D3B3F5806F49D0B3F5A06F57
:104A70008FD1002001A9FFF77DFB8AE7B3F5D06F46
:104A800059D0B3F5E06FD0D0B3F5C06F81D100201D
:104A900001A9FFF71DFC7CE7B3F5206F5DD00BD8B3
:104AA000B3F5086F4CD0B3F5106F7FF472AF0020F0
:104AB00001A9FFF7ABFD6CE7B3F5406F48D0B3F544
:104AC000486F4FD0B3F5286F7FF463AF2B4BD3F80B
:104AD000703203F00303012B49D0022B0CBF1523C6
:104AE000002300E00523019353E70323FBE708239A
:104AF000F9E70223F7E7002001A9FFF70FFD48E7D8
:104B0000002001A9FFF7B0FB43E74FF0E02302903C
:104B10001B695B0705D535F0D5FE0D230393039B79
:104B2000E1E703A902A8FFF7D3FBF8E7002001A9FA
:104B3000FFF756FC2DE7002001A9FFF73BFD28E712
:104B400001A9FFF76DFB24E701A9FFF745FB20E76B
:104B5000002001A9FFF7DCFA1BE7002001A9FFF7FD
:104B6000DBFB16E7002001A9FFF708FC11E7002195
:104B700003A8FFF7ADFB1123B5E700BF008000508D
:104B80004FF48032074B0849586E03F580535A663C
:104B90004B6A23F001034B62C3035CBF034B5A66AD
:104BA000704700BF0080005000C0075000A00050B8
:104BB00008B5FFF7DDFE092811D00A38012802D90F
:104BC0004FF6FF7008BD4FF48002064B5A6603F59E
:104BD000D8335B6ADB07F3D54FF4FA70F2E7024B88
:104BE0001888EFE700900050EE85002008B5FFF729
:104BF000BFFE03280ABF024B4FF6FF70188808BD9E
:104C0000EC85002038B504468020FFF7B1FE03286C
:104C100000F083804FF48012524B4FF0A0615A662F
:104C200045F60E02504BC3F88020504A91624FF473
:104C3000803102F5805291629A6DD203FCD4996D55
:104C400011F08041FBD1D4E90002120542EA006272
:104C5000E07B0243207B42EA0042607B42EA003272
:104C6000A07B42EA80121A619869D4E904521206C4
:104C700042EA856200F000400243A07EE57E0243E6
:104C8000207E42EA0042607E42EA00229A611A6A6D
:104C9000E06922F00F0242EA8502354D00283DD13D
:104CA0001A6294F82420996A94F82000D2002940CE
:104CB00042EA40120A4394F8211042EA011242F4F7
:104CC00080329A622B49284A936D31EA0303FBD163
:104CD0004FF08071254881621369A56823F4700341
:104CE00043EA055313614FF00043836194F8223087
:104CF0000BB9214B996294F823303BB94FF48032C1
:104D00001D4B9A62184A936D5B00FCD494F82530D1
:104D10001BB1154B194AC3F8802038BD024342F03D
:104D2000080202281A6208D119614FF408529961E9
:104D300013484FF47F4127F0B2F80B4994F8223022
:104D40008A6A94F820001B062A4043EA4013134362
:104D500094F8242043EAC20394F8232043EA024350
:104D60008B62D3E7009000500040005A0050005A78
:104D7000C7FFFEFE030001000060005AF1A7FFFF1D
:104D80003440005A014B93F9000070478D86002093
:104D9000F0B5D0E901434FF400061A4A417805788E
:104DA00056664FF4D156022702F5B8325662164EB7
:104DB0004F2977604FF0010728BF4F2106F5805635
:104DC00077601669F603FCD441EA052151611B01A5
:104DD000417B43EA04230B43017B43EA4103936095
:104DE000C37B817B1B0143EA4113417C0B43017C64
:104DF00043EA41035360837C13B16FF4D153536290
:104E0000F0BD00BF0090005000100250014B188010
:104E1000704700BFEE850020014B1880704700BF2F
:104E2000EC8500204FF4800208B5184B5A66022327
:104E3000174A5360936813F48033FBD1012822D1C1
:104E400035F05AFD134B984215D003F5122303F5A4
:104E5000F863984213D0104B00EB8002400AB3FB7A
:104E6000F0F3520A0A49CA620B6301234B62002223
:104E7000074B5A6008BD45F67A13084AF2E745F633
:104E80001A03074AEEE75362F1E700BF00900050B3
:104E90000040025000F0490264666666D8B805001A
:104EA000BBCF0500B0F5207F10B50C465DD008D80B
:104EB000B0F5007F4ED003D8C0B1B0F5C07F15D09B
:104EC00010BDB0F5607FFBD12C4B4C1ED3F8FC20FD
:104ED0002B4912F0807F4FEA041427D1D1F880309B
:104EE00023F030032343C1F88030E9E726F0E6FFE2
:104EF00026F0F2FF4FF48031224B214A1967136FDD
:104F0000013C23F4704343EA0433136735F0DAFCC1
:104F10000446FFF7F1F8C0F10201204626F0D6FF63
:104F200000F04AF8BDE81040FFF712BDD3F8FC20AE
:104F300022F08072C3F8FC20D1F8802022F03002E9
:104F40002243C1F88020D3F8FC2042F08072C3F8DD
:104F5000FC20B5E70A4A4C1ED2F8903023F0F853F3
:104F600043EA0463C2F89030AAE7054A4C1E136F67
:104F700023F4806343EA84231367A1E700ED00E094
:104F8000008000500090005008B50121022000F080
:104F900095F94FF42070FFF765FB054B187026F06C
:104FA0008DFF26F099FF4FF48032024B1A6708BD3F
:104FB0004F7F00200090005008B54FF4C070FFF7FD
:104FC000C1FBBDE808400449884294BF0121022189
:104FD0004FF42070FFF766BF80F0FA0238B5044640
:104FE00035F070FC0546FFF787F8C0F1020128464E
:104FF00026F06CFF0121002000F0A0F92CB1FFF792
:10500000DBFFBDE83840FFF7A3BC034B4FF4207033
:105010001978FFF747FFF4E74F7F00204FF4C022D5
:1050200070B50546FFF700FA314B04465A6603F5A2
:1050300098335A68012A04D12E494A605A68920767
:10504000FCD48020FFF794FC052807D126F036FF1A
:1050500026F042FF4FF48032254B1A67264B24F08E
:1050600040749D4230D0254B9D4230D035F004FC39
:105070008542064603D90121284600F05FF9204BFE
:10508000DA6812F0060FFBD199689C609A6862405A
:1050900012F4F81F1ED12846FCF716FF8020FFF7F8
:1050A00067FC05280DD135F00DFC0446FFF724F808
:1050B000C0F10201204626F009FFFFF77DFFFFF750
:1050C00047FCAE420CD270BD44F00074CEE744F011
:1050D0008074CBE780209960FFF74AFC052805D053
:1050E000BDE870400121002000F028B93546DAE71C
:1050F0000090005000E0015040420F0080841E00EC
:10510000000001503D4B3E4A984263D021D83D4BB0
:1051100098426BD011D83C4B4FF40021984261D09B
:1051200008D83A4B98423AD0394B984230D0394B54
:10513000984240D00023516639E0374B984243D023
:10514000364B4FF400219842F4D1354BD3F8BC30A4
:1051500021E0344B984241D011D8A3F53703A3F591
:10516000D853984246D003F5B70303F558639842E5
:105170004FF40021DED12A4BD3F8C8300BE02A4B84
:105180004FF400219842D5D1254BD3F8D03002E01E
:10519000234BD3F8A030516623F0407307E0204B37
:1051A000D3F8A030516623F0407343F080734FF082
:1051B000B442936070471A4BD3F8A030516623F085
:1051C000407343F00073F2E7154BD3F8B8304FF457
:1051D0000021E0E7124BD3F8C030F8E7104BD3F8CA
:1051E000CC30F4E70E4BD3F8A430D4E70C4BD3F813
:1051F000B030ECE70A4BD3F8C430E8E7C0EA21014D
:105200000090005080969800404B4C0080841E0017
:1052100000093D0040420F00405DC6000024F4003C
:105220000080E00F0048E801005A6202024A536B16
:105230000342FCD1704700BF00400950044A417846
:10524000536F23F4407343EA01235367704700BF51
:1052500000400050104A10B51369044643F004039F
:10526000136135F0E5FF26F03CFE0C4B5B6E5B01F5
:1052700042BF0B4B0B4AC3F82024BFF34F8FBFF341
:105280006F8F30BF26F02EFE02F032FA1CB9BDE857
:10529000104035F017BB10BD00ED00E0008000505D
:1052A00000E003500000FF0F034A0179D36E23F0A2
:1052B00030030B43D366704700400050F8B50446F6
:1052C0001C4BD3F88420D106FBD4D3F88430C3F32D
:1052D00081139C422CD035F0D5FA012C064602D120
:1052E000214626F0F3FD36F028FD4FF00072124BF8
:1052F00007465A66204626F0F8FD4FF480630D4DB0
:10530000621E93402B676B6E9A0103D4D5F88430EC
:105310009B060AD5384636F00BFD022C08D13046E4
:10532000BDE8F840002126F0D1BDD5F88430EAE789
:10533000F8BD00BF004000500060005010B50C46A2
:1053400008B935F09FFA074B21461B783BB1064B55
:10535000984204D80120BDE81040FFF7AFBF0220FB
:10536000F9E700BF507F0020005A62020278034B29
:10537000012100201A70FFF7E1BF00BF507F00201D
:105380004FF0004238B5244B244C5A664AF6CD33D0
:10539000656C014605F00105236428BB0120FFF779
:1053A00045FF6368DB0715D51D4B586008461D4B4C
:1053B000226BD2070CD4984208D1072415B1174BA1
:1053C000194A1A6434F056FB204638BD0130EFE725
:1053D0009842F2D00024F1E70132236B13F0080366
:1053E00005D08A42F8D1E8E700220E49F5E78A4263
:1053F000E3D020210A4A91620121A2F58052516036
:105400000649084A886A800603D49342D5D00133FE
:10541000F8E79342DDE700BF0090005000400950DC
:105420000060095040420F003254FFFF4FF000422D
:1054300038B5164B01465A664AF6CD33144C154A18
:10544000656C236443780B205B0043F00103D36356
:10545000FFF7ECFE63688A7823F4F87343EA0213DB
:105460006360CA784B7943EA0223A3600A798B7997
:1054700043EA022323610878FFF782FFEB0744BF6A
:10548000054B236434F0F6FA012038BD009000503B
:1054900000400950004000503254FFFF4FF00042DE
:1054A000124B70B55D6E03F580535A664AF6CD33E4
:1054B00004460F4980204E6C0B64FFF7B7FE0B6A61
:1054C00023F00F030F2C94BF234343F00F030B6211
:1054D000F30744BF074B0B64002DA2BF4FF00042FF
:1054E000054B5A6634F0C6FA70BD00BF008000500C
:1054F000004009503254FFFF00A000504FF000421E
:10550000104B70B55D6E03F580535A664AF6CD3385
:1055100004460D4980204E6C0B64FFF787FE0B6A32
:1055200023F4F85343EA04230B62F30744BF074B09
:105530000B64002DA2BF4FF00042054B5A6634F0B9
:1055400099FA70BD00800050004009503254FFFFAE
:1055500000A0005010B526F0CDFC042300F58051CA
:1055600000F500520B6113610B6113610B61136154
:105570000B611361202341F2020103610023C36028
:10558000836041614FF4A0218361836541620549D5
:10559000C36103628362C36243630365D1640363CF
:1055A00010BD00BFFF3F0D0370B505461446084609
:1055B00041B9354B9D4218D0344B9D4208BF57200E
:1055C000FFF7C0F8AB6813F0010F6B6830D0B0FB89
:1055D000F4F4D80704F1FF344FEA046407D42B69CC
:1055E00023F07F4323432B6170BD5620E8E7282139
:1055F000284626F07BFCAB6C990715D1AB6CDA071B
:1056000014D4AB6C13F0020F14BF062600262846F4
:1056100026F070FC2B69314623F07F4323432B6136
:10562000BDE8704026F080BC0526F0E70926EEE7CD
:10563000AB6DDB07AB6848BF640003F0E003402BB1
:105640001BD004D8DBB1202BCED1082304E0602B83
:1056500017D0802BC8D1012363434101B1FBF3F282
:105660000B4B203A284603EAC202012126F03EFCF9
:105670002A63BDE8704026F039BC0623ECE710230E
:10568000EAE70423E8E700BF0000015B00000A50DE
:10569000F8FF7F002DE9F0419846436804460E4626
:1056A00017461BB140F6FF7126F020FC2046FFF79D
:1056B00051FFF189737B62690B43318A22F44C52AA
:1056C00022F00F020B4313436361A26896F818C0DF
:1056D000337B22F0804222F0E2024CEA03031343C0
:1056E00072691343B268A3601AB9A36843F0004318
:1056F000A360F06904F58053002878D0857A017A98
:105700006D04D4F808E045EA81556E490EEA0101BE
:105710000D43818801F4C0410D43417845EA81057C
:10572000417B45EAC105817B45EA0115817845EA5F
:105730008125A560D4F80CE0D0E904152943624D19
:105740000EEA05052943857941EA8521C57941EAB3
:105750004521E16001785D4D012914D1E16841F0F6
:105760000401E160AC4200F0928059498C420CBFC8
:1057700001214FF0FF31490101F1A04142F294456E
:1057800001F5703114E003297BD1E16841F0040197
:10579000E160AC4279D04E498C420CBF01214FF000
:1057A000FF3141F29445490101F1A04101F5703109
:1057B0004FF0020E41F805E0417A996219B1E168B3
:1057C00041F40061E160C17A59B1E16841F40041FE
:1057D000E1603E498C425CD1017B3E4D01F00F01FE
:1057E0006967616AC07B21F00301014361622FB1E7
:1057F00097F82010002956D001211962B8F1000F46
:105800002DD0BCF1000F02D04FF4004199652F4913
:10581000B8F822508C4298F8211051D02C4884427C
:1058200013D10120112934BF4FF0010C4FF0020CAD
:10583000294FB5F5006F07F800C094BF4FF0010C79
:105840004FF0020C254F07F800C0A06D294320F44B
:10585000F95020F01E000143A16501219965012145
:1058600059601AB120467168FFF79EFE20463178D4
:1058700026F05AFBA36CDB4313F4405FFAD1BDE87A
:10588000F0810239012984D96CE7002189E70021E0
:1058900071E70F498C4201BF017B0E4D01F00F01F2
:1058A000C5F880109DE7E06997F8221097F821501D
:1058B00020F009002943014341F00101D9619DE72E
:1058C0000020AFE7E39BBDFFFFF9F0870000015B1D
:1058D00000000A5000900350537F0020517F0020A9
:1058E0002DE9F04105460F461E4690464AB1012378
:1058F0003022194C8B4002FB004436B304F582542D
:1059000023600F21072F05EB450388BFA7F108048B
:105910004FEA0313114895BFBC00A40004330C33B5
:1059200008FA04F2A140184426F02BFBB8F1000F4E
:1059300009D101233021084ABB4001FB05223EB1B9
:1059400002F582521360BDE8F08104F50154D7E7F7
:1059500002F50152F6E700BF00C0035030C003500B
:1059600010B5152000F002FF0024FF22064B21464F
:105970005C6520209A625C60FEF7CAFE2146BDE8A5
:1059800010402120FEF7C4BE00000450044A054B1D
:10599000002908BF1346012282401A60704700BFE9
:1059A000401004504020045010B50121044620202E
:1059B000FEF7AEFE01212120FEF7AAFE0122114BC7
:1059C00015205A60227812069A606178A27842EA1D
:1059D00001429A61FF229A6200229A631A644FF090
:1059E00000425A654FF0FF3203F500531A6500F08C
:1059F000EBFE1520E17826F01AFCBDE810401520DA
:105A000000F0C6BE00000450F8B50125C3B2D1F8BD
:105A100000C08F7A0E7B0C469D40CB7A1C491B053B
:105A20000D65810001F1A04101F58821C1F804C094
:105A30004FF0300C0CFB00F0617B00F1A04043EA1A
:105A4000074300F5802043EA465322F00302016633
:105A5000C365026736F07AF90E4B227A5D6502B1B2
:105A60001D64627A02B19D632279A37943EA0243FD
:105A7000074A93616179E37943EA014305498B6100
:105A8000054B55639D64BDE8F84036F05AB900BF38
:105A900000200450001004500000045010B50124F0
:105AA000C0B2844036F052F9044B5A6D22EA040227
:105AB0005A659C62BDE8104036F043B900000450BE
:105AC00010B50124C0B2844036F040F9074BDA6AC1
:105AD000224208D15B6B9C430CBF0124002436F0AA
:105AE00030F9204610BD0024F9E700BF0000045043
