S02B0000433A2F55736572732F6D706D656E2F53696D706C696369747953747564696F2F424C452D7468657319
S214000000C00A0020E11000003B7802003B780200A6
S214000010AF9102003B7802003B7802003B7802007A
S2140000203B7802003B7802003B7802003B780200F7
S2140000303B7802003B780200C17702003B78020062
S2140000403B7802003B7802003B7802003B780200D7
S2140000503B7802003B7802003B7802003B780200C7
S2140000603B7802003B7802003B7802003B780200B7
S214000070A95D00003B7802003B7802009FA90200C1
S2140000803B7802003B7802003B7802003B78020097
S2140000903B780200291B00003B7802003B780200F8
S2140000A03B78020045180000251800003B78020047
S2140000B03B780200355B02003B780200D963020001
S2140000C0A18E03009D8E03007D5B0200B78E0300A9
S2140000D0A58E0300A9630200A98E0300196402001E
S2140000E06541020029430200856402003B78020055
S2140000F03B7802003B7802003B7802003B78020027
S2140001003B7802003B7802003B7802003B78020016
S2140001103B7802003B7802003B7802003B78020006
S2140001203B7802003B7802003B7802003B780200F6
S2140001303B7802003B7802003B7802003B780200E6
S21400014082B0BFF34F8FBFF36F8F30BF074BD3F82C
S214000150F030DB0704D500230193019B052B01DD5E
S21400016002B07047019B0133F6E700BF00ED00E0E8
S214000170F0B5114A114C124E00F00105E3695F0715
S21400018013D40DB9334213D103EA00078F4207D1C7
S2140001900B4A1A40002A0CBF00206FF00100F0BD89
S2140001A0013AEBD16FF00200F9E74FF0FF30F6E7C7
S2140001B06FF00100F3E700BF809698000000035040
S2140001C0020001000B4B70B5D96911F480310DD1D6
S2140001D001244FF48072084E084DF46020462C64CB
S2140001E01A61FFF7C5FF3464EC6070BD6FF0010064
S2140001F0FBE700BF00000350001003500020035030
S2140002004FF4003238B50F4B0F4C9A6641F67133F7
S2140002100122E569E3630D4B0021DA600223606189
S2140002202120236105F48035FFF7A2FF10B92120B5
S214000230FFF79EFF0122064BDA600DB10023E36351
S21400024038BD00BF0090005000000350001003505F
S2140002500020035070B5134C6061E3695B071ED441
S2140002600E4656F8043B8D18A361AE420BD104230C
S214000270002121202361FFF77BFF58B9BDE87040BD
S2140002802120FFF775BF08210846FFF771FF10B160
S2140002900423236170BD56F8043BA361E5E74FF0E5
S2140002A0FF30F7E7000003502DE9F84315464FF4FA
S2140002B00032184B89469A6641F6713203F51C33B4
S2140002C0DF69DA630122064603F58053DFF84C80C7
S2140002D007F48037DA6055B9284601220E4BDA60FB
S2140002E01FB10022A3F50053DA63BDE8F88306F5D4
S2140002F0005404EA0804A41BAC4228BF2C46494616
S21400030022463046FFF7A6FF0028E6D12644A14441
S2140003102D1BE0E7009000500020035000E0FFFF98
S2140003200348044B834202D0034B03B1184770477F
S214000330E0480020E048002000000000064B074987
S214000340C91A891048BF0131491003D0044B0BB1BC
S21400035001481847704700BFE0480020E0480020EA
S2140003600000000010B5064C237843B9FFF7D8FF0D
S214000370044B13B10448AFF300800123237010BD73
S2140003808A4100200000000044FD030008B5054B2C
S2140003901BB105490548AFF30080BDE80840FFF7EC
S2140003A0CDBF00BF00000000B00D002044FD0300DC
S2140003B0A3F5803A704700BF174B002B08BF134BBE
S2140003C09D46FFF7F5FF00218B460F461348144A5B
S2140003D0121A2AF01CFB0E4B002B00D098470D4B30
S2140003E0002B00D098470020002104000D000D4887
S2140003F0002802D00C48AFF3008007F08FFF2000E3
S21400040029002AF0CEFA07F077FF00BF00000800A8
S2140004100000000000000000C00A0020C00A002003
S21400042040440020000000000000000037B50546EC
S2140004300FF064F9002852D12C4B2877AB61AB68DB
S21400044043F48013AB6028F015FFAB68A8801B034D
S2140004500CD4B0F5FA7F09D939F0DBFF0121044648
S214000460084639F017F8204639F0CEFF28460FF038
S2140004706DF90446A0BBE868A8B311F0C7FE2EF0DD
S2140004804AFE2BF0CAFD0CF0E5F80CF0FDFE2FF04E
S21400049013FF2DF0F4F82CF094F8012030F092F8C9
S2140004A02DF07DFE082030F091F80446C0B92CF0FF
S2140004B00FFA0446A0B90421024608462EF01CFE98
S2140004C001A88DF804400FF033FB0321042011F03F
S2140004D04BF80A2009F070FD284627F067F900243B
S2140004E0204603B030BD0248C7E700BF050403003E
S2140004F0B248002008B5044904481FF0A9F9BDE831
S21400050008401FF0D7B900BF30A9030050AA030067
S2140005104FF08052014B5A60704700BF00ED00E07C
S21400052070B5012886B00D468DF8070003D9212442
S214000530204606B070BD284B284E1968306802F079
S214000540E1FA04460028F3D1254B062218689B885A
S214000550029002A92846ADF80C300494ADF8144079
S2140005602AF02BFA28B10622284604A92AF025FAF2
S21400057070B91C49306802F02DFD08B12D2828D12D
S2140005801949306802F026FD2D2818BF0446CFE72B
S2140005909DF80730012B0DD16B799B09032BC6D133
S2140005A00123104930680DF1070202F0CFFC044623
S2140005B04CB1BDE7002BF3D10A49306802F00AFDC2
S2140005C02D280446F4D106232A460749306802F04F
S2140005D0BDFC0446ACE700BF384600205846002065
S2140005E08DAE03003C0004002C000400F8B50E4657
S2140005F00546D0B1C9B10E4B0E4F1968386802F0E7
S21400060081FA044678B9062332460B49386802F068
S21400061047FB044638B901232A460849386802F0E1
S2140006203FFB00B12C702046F8BD2124FBE700BF3D
S21400063038460020584600202C0004003C000400E9
S21400064008B539F0EFFE0022034B1A809A70BDE819
S214000650084039F0E2BE00BF0C10002070B50D4E09
S2140006600546306827F0D5F9044680B90A4A13884B
S214000670C3F50073AB4205D393781BB9074B9C7840
S21400068084F00104306827F0D2F9204670BD0024BB
S214000690FBE700BF14110020000E00200C10002005
S2140006A0002337B518481D46028800931146D41C0F
S2140006B0ADF804300444032920D93BB1042AC2F122
S2140006C0040388BF002312FA83F303806A460623D6
S2140006D04A2140682AF0D0F9FFF7B2FF01220B4BFF
S2140006E069461A70009B180200F4E060C3F3072303
S2140006F01843043000F07CFB03B030BD0131012309
S21400070004F8015F89B2D6E70C1000208B41002068
S214000710F8B5054639F086FE0E4E07463488AC42DC
S21400072008D22B21062027F058F83846BDE8F840B6
S21400073039F073BE03D100233380B370F5E7641B32
S214000740A4B2291D22463144301D2AF046F93480D1
S214000750EBE700BF000E002030B589B0FFF770FF52
S21400076039F060FE04461F4B1888FFF7D1FF20467D
S214000770002439F052FE1C4B1C22214601A81C7096
S2140007802AF045F909238DF80430184B18490293CE
S214000790184B01A8039302238DF810304FF48063A2
S2140007A005930A23ADF8183000F018FD014610B185
S2140007B0204627F012F8104C4FF4807021462AF09D
S2140007C064FB0E4D014630B1042027F006F80023E6
S2140007D02B6009B030BD4FF48271206829601DF08F
S2140007E0B7FEF6E7000E00208B410020010800004F
S2140007F014110020E37702000810002004100020E7
S21400080070B5414D286827F004F9014638B100203C
S21400081026F0E3FF2868BDE8704027F0DEB83B48C6
S21400082083784BB33A4E337833BB3A4A4168146800
S2140008308370394A21F47F4323F0070393420CD098
S21400084036D802F17C42D8320A4034498A4238D13E
S21400085033498B4248D093423BD001233370FFF795
S214000860EFFE23682146180200F4E060C3F3072376
S2140008701843043000F0BCFA2A498B789BB1244A0E
S214000880137883B951F8043F1C0204F4E064C3F300
S21400089007231C43012304342046137000F0A8FAF3
S2140008A02046FFF735FF2868BDE8704027F0BFB840
S2140008B01D4A934205D1027A02B3083026F096FF0D
S2140008C0CBE71A4B018822461B68194807F04AFDF9
S2140008D0C3E7027A1AB1083007F010FBBDE71146ED
S2140008E001201DF03FFEB8E7037A1BB1083000F088
S2140008F021F9B2E701201DF045FEAEE711460120C2
S2140009001DF04AFEA9E700BF141100200C100020BD
S2140009108B410020081000202000FF022000FF006E
S2140009202000FF01000E00202000FF03041000201E
S214000930101000202DE9F0410546006820F47F40A5
S21400094020F0070000F054F918B928462AF025F8D8
S21400095018B9BDE8F08126F062FF2B68180200F493
S214000960E060C3F3072318430430FFF777FE002840
S214000970F1D01C4F386827F04CF8014668BB2B684E
S214000980194E1C0204F4E064C3F307231C4339F039
S21400099049FD33880434C3F500729442804615D866
S2140009A004332246F01829462AF039F833884046A0
S2140009B01C4401233480B37039F02FFD386827F0CB
S2140009C00CF83868BDE8F04127F031B839F025FD5D
S2140009D01D21052026F001FFF0E7002026F0FDFE91
S2140009E0B7E700BF14110020000E002010B50B4C16
S2140009F0206827F00EF8014658B9094B1870206891
S214000A0026F0EBFF26F00AFF2068BDE8104027F02E
S214000A100EB8002026F0E1FE10BD00BF1411002025
S214000A208B4100202DE9F74389461746014610B151
S214000A30012026F0D2FE3A4D286826F0EAFF01464D
S214000A40002866D11FFA89F43CB339F0EBFC354E2A
S214000A50804630880328C0F582720CD994420AD9A1
S214000A6073681C0204F4E064C3F307231C43C0F15C
S214000A7004031C44A4B2944240D8043022463946AB
S214000A80304429F0CCFF338883B12344404633807A
S214000A9039F0C3FC3288032A1DD8286826F09DFF4B
S214000AA0286803B0BDE8F04326F0C1BF4046348056
S214000AB039F0B3FC3288032A1ED800234FF4FA71AB
S214000AC00093194A194B1A4800F06EFC014600289C
S214000AD0E3D0022017E0002071680B0203F4E06305
S214000AE0C1F307210B43043393420FD80123104868
S214000AF0B37000F03BFCE9E70120EDE7404639F033
S214000B008CFC1E21012026F068FEC6E70028D4D102
S214000B10C3E7002026F061FE03B0BDE8F08300BF07
S214000B20141100200C100020FD770200A106000022
S214000B30C80D002070B543780278012B14D0022B24
S214000B402BD063BB052A2AD1274C2278082A47D007
S214000B502649D0F802000D46DEB2964224D345F868
S214000B6022000132227016E0052A18D11E4C217888
S214000B70C1B3D0F802601D480023024650F8045B5B
S214000B80AE421ED10020013942F82300217002EB4C
S214000B90830299420FDC002002E0012A17D00120D0
S214000BA0BDE870401DF0EEBC51F8046B0133B04256
S214000BB0D2D12E20F4E754680133146042F8040FB3
S214000BC0E7E70133DDB2A942D8D82D20E8E7202296
S214000BD00021064829F01BFF0022034B1A70DAE7B3
S214000BE01C20DDE71B20DBE78C41002018110020CD
S214000BF010B5084B084A1C780023D9B28C4201D89D
S214000C00002010BD52F8041B01338842F5D10120A4
S214000C10F7E700BF8C41002018110020F8B5054604
S214000C20002843D039F0FEFBAB6A06469B889BB291
S214000C301BB9BDE8F84039F0F0BBE86838F0CEFAEA
S214000C400023AC6A85F8303039F0ECFBA3889BB201
S214000C501BB939F0E2FB3046EBE767886388E28829
S214000C609BB20133B3FBF2F102FB11339BB26380FC
S214000C70A388BFB2013B9BB2A38039F0CEFB1423FE
S214000C805F4307F110012144E86838F0EDFA08499F
S214000C903C44A1610028DED16769002FDBD0E26802
S214000CA023692846D31AA268B847D4E7F8BD00BF20
S214000CB0097000F038B51D4C206803689B6C1A0458
S214000CC021D5012102F040FF39F0ACFB4FF4004281
S214000CD0054623681B6803F50053DA649A6439F006
S214000CE098FB23681B685A6E22F4E0225A665A6EF6
S214000CF042F082725A6639F087FB284639F08DFB3F
S214000D002068FFF78BFF206803689B6CDB060CD51A
S214000D10012102F019FF0221206802F0BBFC10221C
S214000D2023681B6803F500539A6438BD58140020E6
S214000D30014B1868FFF772BF5814002010B5102436
S214000D4088B02246002101A829F061FE29238DF8EB
S214000D5004300C4B4FF4806202930B4B0B49039309
S214000D6002238DF810300A4B01A8CDE9052307941D
S214000D7000F034FA014610B1012026F051FD08B00B
S214000D8010BD00BF11100000297802005414002086
S214000D900A00040013B507F08DF8124B124A1860CB
S214000DA00368124C934218D002F58042934217D043
S214000DB02521022026F034FDFF2325210220237062
S214000DC026F02EFD01A9012039F06DFB014610B179
S214000DD0042026F025FD02B010BD0D232370F1E798
S214000DE00F23FBE75814002000C005508D4100205B
S214000DF02DE9F8431D4E04463068884626F009FE65
S214000E00014620B1012026F00BFDBDE8F883184D01
S214000E10E71C2B6827F00307DA19164B9A4224BF03
S214000E20A3F582732B60B4F5827F08D91D210320B9
S214000E3026F0F6FC3068BDE8F84326F0F8BDD5F895
S214000E40009022464146484629F0E9FD0A482246D7
S214000E5049460A4B006802F033FF10B92B683B4442
S214000E602B60306826F0B9FDE4E700BF541400207C
S214000E70204600203C12002058140020810E00005E
S214000E801FB50223003918BF01218DF80030074B2B
S214000E90019110226946186826F0CBFD014610B174
S214000EA0012026F0BDFC05B05DF804FB54140020BC
S214000EB01FB500238DF80030064B694610221868CF
S214000EC026F0B7FD014610B1012026F0A9FC05B0BA
S214000ED05DF804FB5414002070B51B4D04462B68C7
S214000EE003F58272194B9A4224BFA3F502732B6056
S214000EF039F098FA4FF482720646154B2046296858
S214000F0002F030FE0446C0B9304639F086FA4FF497
S214000F100041104B1868036803F50052916448F2CC
S214000F20100203F58053DA64214602F00DFE2B68AA
S214000F3003F582732B60204670BDFFF7B9FF30467D
S214000F4039F06BFAF7E700BF24460020441400206F
S214000F50C90F00005814002070B5164D286826F0FA
S214000F6058FD014618B1012026F05AFC70BD124CFF
S214000F70124E94F9000004F0E7FB94F9000004F028
S214000F809DFB33680E4A1B685A660E4A03F50053EB
S214000F909A6439F047FA04463068FFF79DFF08B1B7
S214000FA0FFF786FF204639F038FA2868BDE870401B
S214000FB026F03DBD541400208D410020581400201A
S214000FC0FF002401FFFF01001FB500200124CDE92A
S214000FD0020001900C488DF80040814201D001B11A
S214000FE0019463B1CDE90232084B694610221868B5
S214000FF026F01FFD014610B1012026F011FCFFF778
S21400100057FF04B010BD00BF097000F05414002054
S21400101070B5214D86B0286801AA02A926F036FDD3
S2140010201B28044604D028B10146012026F0F8FB10
S21400103006B070BD39F0F6F99DF808300646012B6B
S2140010401ED0022B0FD043B9144C206827F088FC22
S21400105010B92068FFF740FF304639F0DEF92868FF
S21400106026F0E5FCE4E70E4B039E5C601C7339F04B
S214001070D4F9286826F0DBFC3046FFF7B7FCD7E744
S21400108039F0CBF9286826F0D2FCDDE90412039883
S214001090FFF7C8FCCCE700BF54140020581400200B
S2140010A04414002008B5034839F002FABDE80840A9
S2140010B029F02FBCECAB0300014839F0F9B900BFAA
S2140010C0ECAB03000348044A0449121A921026F0B7
S2140010D0B5BB00BF400100002003000040440020D4
S2140010E008B5154B83F30A8800F030F8FFF7EAFFDF
S2140010F0124B13498B4212D30020124B12498B42DB
S21400110018D3FFF759F9186850F82240586840F885
S2140011102240013298688242F5D30C33EAE7002277
S214001120F8E71C6844F8220001325C68A242F8D353
S2140011300833E4E70022F8E7000000204CFD030037
S21400114058FD030058FD030058FD03004FF400410E
S214001150134B144A70B59A60D3F88820124D42F4A7
S2140011607002C3F88820114A05F5005491664FF0C6
S214001170FF3222664FF6DF7262660222C3F8D02084
S214001180BFF34F8FBFF36F8F4FF44036032004F04A
S214001190DBFA0320E66004F091FA2E6170BD00BF12
S2140011A000ED00E0000000000080004400900050C9
S2140011B0014B1860704700BF2C460020054B186096
S2140011C0054B1B6F03F00703032B01D137F0D2BF8B
S2140011D0704700BF3446002000800050F8B50F4628
S2140011E00546002843D0002941D003784268980776
S2140011F002D01AB9212428E0002AFBD1190702D50B
S214001200AA8A002AF6D09A0605D5EB8A002BF1D0DA
S214001210AB69002BEED02C2027F0DCFD064640B351
S2140012202C22002129F0F3FB2B46321D05F11C0170
S21400123053F8040B8B4242F8040BF9D12B785B076A
S21400124005D53E606B686BB900242046F8BD0121C9
S214001250304626F096FB04460028F2D0304627F0AB
S214001260BBFEF2E73146044826F0FCFAECE72224FF
S214001270EBE71924E9E700BF5C14002008B5034833
S21400128026F0E9FABDE8084029F033BB5C140020DC
S2140012900B4B10B51C680CB901200AE039F0B9F800
S2140012A094F8202003462AB1A26A1AB139F0ACF8A5
S2140012B0002010BD184639F0A7F82468EBE700BFF9
S2140012C05C1400200B4B10B51C680CB901200AE01A
S2140012D039F09FF894F8202003462AB1A26A1AB182
S2140012E039F092F8042010BD184639F08DF82468BD
S2140012F0EBE700BF5C1400200C4B10B51C6804B96B
S21400130010BD39F086F894F8203002464BB1A36A37
S2140013103BB1013BA36239F077F8A368984724688D
S214001320EDE7104639F070F8F9E700BF5C140020CE
S21400133038B5054639F076F800230B4A14685CB1D8
S214001340AC4206D1A96A6BB1996239F066F8012001
S21400135007E02346A46AF2E7002DF3D039F05DF8E3
S214001360204638BD1160F0E76014002010B5044632
S214001370B0B138F04BFC2046FFF7DAFF10B194F816
S2140013802C300BB9002010BD064C2368002BF9D07A
S21400139039F048F82368013B236039F03EF8F1E75E
S2140013A02220F0E7641400202DE9F04385B00546BE
S2140013B0914698460E469DF8307009B9002F5CD1CC
S2140013C02846FFF7D3FF0446002836D185F82C00C0
S2140013D0686304F0A7FC864233D938F0ABFC21469C
S2140013E0844640F2E7304FF47A720023E6FB0C01A5
S2140013F006F0F2FD4FF0FF32002306F0EDFD2B461F
S214001400E88611462846CDE900441D4A39F00DF914
S214001410044690B9C5E9089885F82D702E6339F012
S21400142001F8184A136833B31A469B6A002BFBD19F
S21400143095620023AB6238F0F0FF204605B0BDE8A9
S214001440F08347B12B4631462846CDE900440C4A86
S21400145038F0C2FCDCE7304603A938F071FC0446DD
S2140014600028EAD12B462846CDE90077044A03999E
S21400147039F0B7F8CCE71560DBE72124DDE700BFDD
S214001480891400006014002091F82C3013B50C4627
S21400149083B98B8ECA8E93420ED243B9CDE9003300
S2140014A020460B46124A4FF0FF3139F07EF8A38EE5
S2140014B00133A38602B010BD52B191F82D3093B11E
S2140014C001230093D1E908232046096BFFF76CFF40
S2140014D0012384F82C30074B1A6801321EBF1A68A5
S2140014E001321A60E6E7084638F090FBF0E700BFE6
S2140014F089140000641400202DE9F041154E33686D
S21400150033B34FF00008144F38F08CFF05463C68A4
S21400151024B92846BDE8F04138F07FBF94F82C3057
S214001520A3B1336884F82C8013B13368013B336071
S21400153094F82D3013B92046FFF7FAFE284638F007
S2140015406CFFD4E9083120469847DDE7A46ADFE758
S214001550BDE8F0816414002060140020034B1B6873
S214001560002B14BF04200120704700BF6414002025
S214001570024B1868B0FA80F04009704764140020E7
S21400158013B5082026F0E5FA06F094FC0123104C6B
S214001590009390F836302060C3B9006827F08CFAC4
S2140015A0236820F07F4093F83530023B012B94BF30
S2140015B00323002340EA83700190684626F08DFAE4
S2140015C0082002B0BDE8104026F0CEBA0020E7E7BB
S2140015D068140020BFF34F8F0549064BCA6802F413
S2140015E0E0621343CB60BFF34F8F00BFFDE700BF41
S2140015F000ED00E00400FA05002307B52948019332
S21400160038F056FF4FF44073012204216846ADF8C7
S214001610003026F0B5FA0122234B0520C3F84424F7
S21400162001A938F040FF002839D1204BD3F8F0202C
S21400163042F00102C3F8F020D3F8FC2042F080729A
S214001640C3F8FC201A4AA3F55D431A60019B194AA9
S21400165003F5D52303F2FC43B3FBF2F3164A013B32
S21400166013610223C2F8F0304FF48073C2F80433DB
S2140016704FF06043114AC3F8B02F114AC3F8802ECA
S214001680D3F8002E42F48072C3F8002EFF2283F8AF
S2140016902020D3F8002E22F48072C3F8002E03B068
S2140016A05DF804FBECAB030000D0035000ED00E057
S2140016B0FF030040F8590D00000004E055CEACC50D
S2140016C0090001004FF06043D3F8802E30B5D207F2
S2140016D015D501240B4D8440D5F8FC2042F08072CD
S2140016E0C5F8FC20D3F8002E2243C3F8002E53F88A
S2140016F02020002AF0D003F82010002030BD112052
S214001700FCE700BF00ED00E0F8B504460127124DE7
S2140017100CB314F001000BD0002024F0010405EBFC
S214001720C0021668002EF3D05168C0B2B047EFE78B
S2140017302246013020284FEA520201D0D307F8D5BE
S21400174007FA00F20F2824EA0204E8D9421E05EB45
S214001750C2021038E5E7F8BD6C14002008B50C4846
S21400176038F0A6FE192003F0B7FF28B1192003F0C1
S214001770EBFF192003F0A2FF1A2003F0ADFF28B1FB
S2140017801A2003F0E1FF1A2003F098FF002008BD9E
S214001790ECAB03002DE9F0410D4690461F4604468B
S2140017A0002837D0002935D038F03CFE237806468E
S2140017B0FF2B05D042462046296803F085FD2860A9
S2140017C02B68013309D12378FF2B06D1124B6078A2
S2140017D0D3F8241427F0B2F928602A68531C13D0D3
S2140017E00E49069B41F8327001EBC2014B6023782C
S2140017F0FF2B04D001239340094AC2F82434304614
S21400180038F00BFE002003E0304638F006FE2D20B0
S214001810BDE8F0812220FBE700C003506C140020D6
S21400182000D0035008B503F0FFFC054B00F0553020
S21400183020F05020C3F82004BDE80840FFF764BF3E
S21400184000E0035008B503F0EFFC054B00F0AA30AB
S21400185020F0A020C3F82004BDE80840FFF754BFDE
S21400186000E003502DE9F04F9A46564B85B01B78A2
S21400187006460F461546DDF83C909DF844B0DDF868
S2140018805080002B00F09780072A00F296800E9B6F
S214001890002B00F09280B9F1000F00F08E80129BB2
S2140018A0B3F5006F00F38980012803D1109B002B4D
S2140018B000F08380444B03EB05131B7B002B7ED08C
S2140018C0424C10220021684629F0A1F804EB45148A
S2140018D01022A7BB3946204629F099F843F2100398
S2140018E06380BBF1000F03D1E37843F00303E3709A
S2140018F0364A0E9B02EB451CCCE90193129B69010C
S214001900581E9DF84C30C0F30A0003F003039B06F4
S21400191043EA001E53582E48012E00EA03004EEA02
S2140019200003CDF800A0535017D0B8F1000F2ED109
S2140019309CF8023068F304138CF8023027E000218C
S214001940204629F064F84FF444736380BBF1000F1F
S214001950CED1E37843F03003C9E713230CF1100E21
S214001960CCF80C309CE80F008EE80F006FF00301F7
S214001970DCF81C20109B61F39F02012FCCF81C2082
S214001980CCF8143003D1CCF81890CCF804300027EB
S2140019900D4A290102EB051342F80180159A2846E4
S2140019A05A60694622469F605E7303F01BFA38460B
S2140019B005B0BDE8F08F0748FAE70748F8E707489C
S2140019C0F6E700BF8E4100205C1600205C15002064
S2140019D00F80FFF3028000F0018000F0078000F027
S2140019E038B5124B05461B78DBB1E0B138F01AFD6E
S2140019F00F4A00231146147B54B92B6001251A01A7
S214001A0001EB03131D738C5038F007FD204638BDDC
S214001A100133082B02F11002EDD138F0FEFC054828
S214001A20F5E70548F3E70548F1E700BF8E410020DB
S214001A305C160020048000F0028000F0018000F0B8
S214001A40154B13B51868002301908DF8043038F054
S214001A50E9FC124B1C7824B138F0DFFC104802B0C9
S214001A6010BD01221A7038F0D8FC0E4B01A81C736A
S214001A701C7783F82C4083F83C4083F84C4083F86E
S214001A805C4083F86C4083F87C4008238DF8073070
S214001A9003F078F92046E2E742AB03008E410020CF
S214001AA0038000F05C1600200A4A08B512785AB186
S214001AB007280BD8084A02EB00131B7B43B1002112
S214001AC003F052F9002008BD0448FCE70448FAE792
S214001AD00448F8E78E4100205C160020028000F0E3
S214001AE0018000F0078000F00A4A08B512785AB163
S214001AF007280BD8084A02EB00131B7B43B10121D1
S214001B0003F032F9002008BD0448FCE70448FAE771
S214001B100448F8E78E4100205C160020028000F0A2
S214001B20018000F0078000F0184B2DE9F0411F6D92
S214001B305B6D1F4000D5FEE701260025144CDFF83C
S214001B405880374218D02368C8F85060A3B1A168FF
S214001B50284601316268A1609847637B012B0BD150
S214001B6050B90C4B03EB45131A7B60F341021A7312
S214001B701A7F60F341021A770135082D4FEA4606B0
S214001B8004F11004DDD1BDE8F08100BF0000045070
S214001B905C1600205C150020002004502DE9F04F54
S214001BA0144605460E469B46C36B87B001225B690A
S214001BB002A960689847EB6B01225B6903A930466F
S214001BC0984702A826F0C4FC074648B10023A37530
S214001BD063754FF0FF33A360002007B0BDE8F08FB9
S214001BE003A826F0C2FC0123A375237E04EBC303DF
S214001BF0DE611F846368B3420ED1206003A826F01E
S214001C00D6FC4FF0FF332075A360237D043B022BE8
S214001C1026D80023A375DFE723681A1A53425341D8
S214001C20A37503A826F0C3FC237D834218BFA775BF
S214001C3003A826F09EFC074602A826F09AFC8742D8
S214001C4018BF002303A818BFA37526F09AFC074602
S214001C5002A826F096FC87421CBF0023A375D4E793
S214001C6003A826F086FC80B1EB6B022230465B6947
S214001C7004A9984704A826F08BFC0346207D032879
S214001C8039D8DFE800F03838040903A8F3E7CC2297
S214001C90237E04EBC3031A8401F0B8FA109B187075
S214001CA003A8277E26F059FC04EBC70787F8220016
S214001CB0237E03A804EBC303B3F8209093F82270A6
S214001CC026F057FC804603A826F05BFC8246B8F157
S214001CD0000F15D0EB6B022230465B6904A99847CB
S214001CE004A826F01AFC6075637D6BB90023A37503
S214001CF04FF0000838E0227E04EBC2021384CBE7E4
S214001D0003A826F0F5FBEEE794F81680B8F1000F6E
S214001D10EED0B9F1000F09D1DFB10123E375637E80
S214001D20002B4FD1012F42D1677614E06B6C06EB87
S214001D300A02594286EA020008421CBF0021A17529
S214001D40591E0A409B1A9945D0D8A37D002BE3D193
S214001D50CEE7E37D43B94FF000084B465246314686
S214001D60284626F033F9A060A27D12B123694B44C1
S214001D7023611A49237E097899422AD901332376AA
S214001D80BBF1000F27D032B3E37D23B3B8F1000FC9
S214001D9021D1032F1FD0A1684B1C1CD0109B2246BC
S214001DA0009328460123FFF7F9FEA07513E095F887
S214001DB0343063B9EB6A0133CFD1032FCDD1012381
S214001DC0A376C8E7012FCFD0032FC4D1F7E79846F4
S214001DD0C3E70023A375A07DFFE600BF68AB030042
S214001DE02DE9F04F0E46984600238BB004464FF080
S214001DF0FF31104617468DF8133001F0F1F9B6F5AD
S214001E00801F3BD3B21C53D1E56A6B1C57D12046CA
S214001E10616A26F021F80546B31C18BF0123DFF8D7
S214001E2010910193636A626C0293236805A902FB12
S214001E30053AE36B05225B695046984705A826F0ED
S214001E4022FC26F045FC504626F04DFC4FF0000BD9
S214001E50824601464B1C05D0636C81EA0A025B424F
S214001E60134232D02946204625F0F6FF029BAB42AD
S214001E704DD0BBF1000F4DD10546D3E7314605AA3C
S214001E8004F1080026F0B2FA0146481C10D0384685
S214001E9001F0A6F90122394620460DF1130326F07B
S214001EA0E7F828B19DF8133088F80030002003E0EA
S214001EB0237C002BA8D12D200BB0BDE8F08F236823
S214001EC0ED1A636CB5FBF3F5A6E7484601F088F912
S214001ED00DF1130349462046019A26F0C9F8034639
S214001EE090B1B21C03D0D9F80020B2420CD19DF8B4
S214001EF0132003930D4B88F8002049461A6838468D
S214001F0028F08DFD039B9B46D9F80810A2E7BBF18D
S214001F10000FD0D0B6F5801FC8D2314698F80030F2
S214001F207A6804F1080001F089F8BFE764AB0300A3
S214001F30501D00202DE9F3410446174698460E46EC
S214001F40194D816AE36A8B422AD04B1C18E028465A
S214001F5001F046F90122294620460DF1070326F036
S214001F6087F830B14346294620469DF80720B847F3
S214001F70B0B1A9684A1C05D0012E0AD0E36A99427E
S214001F80E5D10DE06968204625F0F3FF012E0146F5
S214001F90D8D16B6881EA0302636C5B421A42D1D0E7
S214001FA002B0BDE8F08100BF241D00202DE9F047F7
S214001FB04FF0FF334FF6FF720025044600F1080687
S214001FC0C0E909238AB0C3620562056330460F463E
S214001FD026F0DDF9204625F0BFFE28BB2046394610
S214001FE025F08AFF204625F0B7FE28BB5E200AB003
S214001FF0BDE8F087E26B2368606CD2F814C000FB83
S2140020000530052205A9E04705A826F03CFB012877
S21400201040F083802946204625F03FFF421C294693
S214002020204625F0B8FE0135E3699D42E2D32046FE
S21400203025F092FE0028D1D0204625F0BDFE4FF6B2
S214002040FF72636A934200F0B080E26B676C2068B0
S214002050694607FB030055690522A847684626F02F
S214002060E9FA626A2368606C514D00FB023026F084
S2140020703AFB4FF0FF33A062E3622A466FF001019D
S214002080204605ABFFF7ACFE002850D1AD682946C8
S2140020902046E56225F03CFE206320B92046E16A32
S2140020A025F067FFE0622946204625F062FF0546D8
S2140020B0A36A9D423DD1204625F0E8FD00278046D4
S2140020C0B946E369994546D3B84563D92046616A5F
S2140020D025F0C2FE0026054604F1400ABE4212D391
S2140020E0626C2368694602FB0539E36B05225B696F
S2140020F048469847684626F09DFA534602464946A3
S214002100E06B26F0F2FA2946204625F0A5FE0136B9
S214002110B0450546E2D1642069E726F0DEFA0028DD
S21400212081D02946204625F0B8FE024677E7A56A04
S214002130ADE72946204625F0EBFD236B29460344F0
S21400214007462363204625F014FF0546002FAFD12F
S214002150C4E90B07ACE7636C2568052203FB095549
S214002160E36B05A95B692846984705A826F08BFA15
S21400217026F0AEFA58B1284626F0B5FA01462046B3
S21400218025F0C6FD636C143B984208BF013709F181
S214002190010996E7304626F0FAF80023204619464D
S2140021A0044AFFF7C7FE002021E767201FE700BFAD
S2140021B07C1D00205F8002002DE9F041036B9046F5
S2140021C0826B07689A4288BF8363426C436A90B00A
S2140021D002FB0377C36B0E46052201A95B69044622
S2140021E03846984701A826F04EFA01280146307076
S2140021F057D0656CE26B2368606AD2F814C005FBA2
S2140022000030052206A9E04706A826F03CFA012879
S2140022104FF0000523D0D4E90A3201219342CDE9DC
S2140022200B458DF834800E958DF83C102AD1194652
S214002230204625F09EFE236B626C14339B1AE062E8
S21400224023630C9B53B99DF83C303BB1626A616CCA
S2140022502368E06B01FB023126F0CDF90C9DE36BA1
S21400226005225B6901A93846984701A826F00BFAB3
S21400227030702846236BA26B9A4288BFA36310B0C7
S214002280BDE8F081237C33B91C490BAA04F1080091
S21400229000F022FFD5E72046194A0BABFFF74AFEAF
S2140022A0CFE7237C23BB2246164904F1080000F042
S2140022B013FF616A204625F0F0FD616A421C204645
S2140022C025F069FD054620B9236B626C1344143B68
S2140022D023632046A16A25F04CFE2368A062C01A3C
S2140022E0636CB0FBF3F06062204625F085FEB6E72F
S2140022F000232046044AFFF71DFEDAE7512A0000B5
S214002300CD290000F98002009580020073B50D46C5
S214002310D11E4A421C461B7E4A419A4226D1296853
S2140023202368994222D3636899421FD8114E0DF153
S21400233007033246FFF754FDC0B972686B689A42CD
S21400234014D19DF80730DA1E53425341227E934241
S2140023500CD1636901336361D4E90323934205D248
S2140023602968A26842F8231001332361012002B0D5
S21400237070BD00BF7C1D00202DE9F04F9A468BB043
S2140023809DF85030DFF850B10293DBF810308046ED
S21400239053450D461646C0F09980D146DBF804300A
S2140023A00193B9F1000F00F08D80D8F83C3001227F
S2140023B05B6907A90198984707A826F0D6F8DBF8C6
S2140023C00030984240F0858007A826F0DAF8042806
S2140023D0074614D107A826F0DBF8019B029A0446AC
S2140023E03B44002A3FD1864212D91446361A40464C
S2140023F0019925F0BEFDA9EB04090190D1E7D8F8B4
S2140024003C3002225B69019808A9984708A8E2E7D1
S214002410841B544528BF5446032C03EB0607AAEB3F
S214002420040A4FEA94021CD9D8F83C3029463846AC
S2140024305B69984724F0030304F003061F441D4419
S214002440002ED4D0D8F83C3001225B6908A9384663
S21400245098473246284608A9354428F0E0FA002670
S214002460C5E72646ECE7074600F00302039203445E
S2140024702A1804920593049BDD1B059BD81B039B1F
S2140024809F420FD1002FB2D0D8F83C30012208A9C5
S2140024905B6998473A46284608A928F08EFA78B924
S2140024A03D44A4E7D8F83C30012208A95B69984768
S2140024B00422284608A928F080FA08B9043FDAE77B
S2140024C04FF0360948460BB0BDE8F08F4FF0630971
S2140024D0F8E74FF06F09F5E7A81D00202DE9F04159
S2140024E00F4616469846044688B060B390F83450B7
S2140024F0FDB1012125F025FC00210E9BCDE905113B
S214002500CDE902379DF83C30CDF804808DF81C30BC
S214002510237C04968BB90D4901AA04F1080000F04B
S214002520DBFDDDE90553E06B002E08BF1D4625F0F8
S214002530F1FD284608B0BDE8F0812046044A01AB0C
S214002540FFF7F8FCEDE70546F3E700BFC38002009F
S2140025500D2300002DE9F04F99B00F4609920A6945
S214002560416C0E931439D31DB3FBF1F3013302EB28
S214002570C302036B04469342C0F0BC810023DFF81D
S21400258044940D93E36A48461946079300F028FEE4
S214002590D7E9033604930E9B022B4ED1CC2E40F087
S2140025A08A81099B002B42D03946204625F010FE32
S2140025B0656C079A6B1E13401490ED1AE36B0122AC
S2140025C05B6916A97868984716A825F0D2FF0028F8
S2140025D00CBF04230823782E06933DD9012300253B
S2140025E04FF0080A05933B6805990E98C9F8003025
S2140025F0C9F8106025F0DFFF4FEA9A031093002316
S214002600DDF81CB089F814000B930F9308930C9315
S214002610616C4A1E0BEA02028B1A002E38D0554413
S214002620AB4240D8236B5B1A13442363ABE0049B96
S2140026301B68149308230693D0E7656C079A6B1EF5
S2140026401340782EA5EB030516D8FB7D7BB9099BB6
S214002650002BB3D104230693331DAB4210D9A6B189
S214002660082DBBD804250023AA460593BBE7099B83
S214002670002BA3D10823EEE7099B002B9ED1D9E7B8
S214002680002505954FF0040AADE704250596F9E701
S2140026905345C7D3B0460BEB0A030393089B002BA6
S2140026A018BF032313E0A3EB0A039E42B0460BEBCE
S2140026B00A0228BF98469E420392EFD90123D9F812
S2140026C0102089F81730964271D1C9F804B00893E3
S2140026D099F81730002B6CD099F818200899D31C5D
S2140026E009EBC3030132C3F804B0A3F8088099725B
S2140026F089F81820B8F1000F14D00E9B022B5BD17E
S2140027000B9B7BB90F9B4344032B0BD9E36B012236
S2140027109B69039814A998470546002840F0EC806A
S21400272001230B93089B16A80193059B009399F829
S21400273014204346396800F009FDE36B58469B6950
S214002740109A16A99847051E0D9B18BF5B46524661
S2140027500D9359464346204625F038FC236B08F176
S2140027600302A3EB0A0322F003029B1AC9F808002F
S2140027702363002D40F0C0800F9BDDF80CB043446F
S214002780A6EB08060F935946204625F0F2FB0025D7
S2140027908346002E7FF43CAF8A4A3968936804F17A
S2140027A00800E36252680E9B00F048FC84E00223B7
S2140027B08DE7C9F804B09DE7099B002B30D1049B38
S2140027C0B8F1030F43440A9327D9DDE90301E36B0D
S2140027D04FEA98029B6998470546002865D118F08D
S2140027E003025FD0049B28F003052B440493039B4D
S2140027F01D444FF0FF33049915A8159328F00FF9E0
S214002800E36B28469B69012215A9984705460A9B53
S2140028100493002D86D0039B99E74246039DE8E784
S214002820039B0A9307F120031193FB7D78689BB105
S21400283000233D7E0C9AD9B28D4211D9119903F12D
S214002840010C31F83310914226D9069907EBC303E1
S214002850D8690A44104403E00C9B069A13441844B3
S214002860E36B01225B6915A99847159B0122139318
S2140028700C9B0A9804330C93E36B13A99B69984747
S214002880039B0A9A43449B1A042B054607D978B93A
S214002890134604330A93C8E76346521ACBE70A9BEB
S2140028A00393B6E70A9B04933CE70A9B0493B2E7BC
S2140028B00A9B0393AFE77026304619B0BDE8F08F49
S2140028C0002657E004F1080025F061FD3346314646
S2140028D020463D4AFFF72EFB3A69616CD31D14393A
S2140028E0B3FBF1F3013302EBC302236B9342BFF455
S2140028F049AE65E01C26DFE73D2D61D104F10803F3
S21400290003932368079A606CD61AB6FBF0F600FBB2
S214002910063025F0E8FEE16A8246204625F029FBCF
S214002920A26A8242D8D0626CD9F80830511E0B4099
S214002930216BE062891A0B4423630D992368CB1A36
S214002940B3FBF2F84645BBD1079BB3EB0A0611D0A2
S214002950E36BB20851469B6998478346E36A079A39
S2140029603344E362236B03989B1A5344236325F096
S2140029700EFD5E462368616CE06B01FB083125F0B6
S21400298027FE204625F0E8F9204625F015FA626A6B
S2140029902368606C00FB023025F0A5FEA06220468E
S2140029A025F02AFB2063002E8CD03A69616CD31D7B
S2140029B01439B3FBF1F3013302EBC3029042A0D209
S2140029C02E4679E7501D00205F800200032A2DE97D
S2140029D0F34106460D4617461C4606D1237A012BC0
S2140029E023D0012002B0BDE8F081DFF860800968DE
S2140029F042460DF10703FFF7F3F960600028EDD1BA
S214002A009DF80720237A032AE8D0D8F804106A68CD
S214002A109142E3D1012B2969D4F80CC007D1726921
S214002A200CEB0103934202D92074207CDAE70831CC
S214002A306144E1603B46012229463046FFF78AFDA5
S214002A4060600028CAD00020CCE700BF7C1D0020B4
S214002A502DE9F341089C032A1746266806D1237AF7
S214002A60012B24D0012002B0BDE8F081DFF8908071
S214002A70304642460DF10703FFF7B2F960600028C2
S214002A80EDD12568D8F80400A96AD5F844C04840B6
S214002A90CCF100031840227AE1D1012A09D1E2687C
S214002AA0D8F8103013447269934202D92074207CFF
S214002AB0D9E72868EB6A1B1A081AB3FBFCF3B0FBCD
S214002AC0FCF083420BD1706CF36A421E1340326BEB
S214002AD0121A13442846336325F04BFAE862D8F8F6
S214002AE01020E36808321344E36001223B460449A1
S214002AF02068FFF72FFD60600028B0D00020B2E706
S214002B007C1D00202DE9F0410025634B0E46D3F8CE
S214002B10008004461D6018B921252846BDE8F081CE
S214002B2090F8347007B30A6803689A4240F0AA80A7
S214002B304A6843689A4240F0A5808A6883689A4249
S214002B4040F0A080CA68C3689A4240F09B800A6939
S214002B5043699A4240F096808A69C36B9A4240F075
S214002B6091804B698361D8E768223946856B27F0E8
S214002B704EFFD6E90212336804F10800236073683A
S214002B80A5636360336963617369A36125F011FC13
S214002B90B36904F14000E3639B68984720B9676C0B
S214002BA017B16368B3FBF7F794F84330E761002B7F
S214002BB0B2D00023656C2366002D6BD0002F69D041
S214002BC02368B3FBF5F205FB1233002B5CD1676874
S214002BD0B7FBF5F605FB1676002E55D1204625F0F8
S214002BE087F8A369043303449F424FD340F63472F8
S214002BF06369CC3B93424BD8B5F5805F4AD303213B
S214002C00204625F09EF8D4E90001E36B1B68984740
S214002C100546E36B0220DB6898472DB184F83460E4
S214002C20E06B25F077FA78E741462046FFF7BEF9D5
S214002C306428054604D141462046FFF7B7F9054605
S214002C40636C143BD5B9226A204602FB03F625F0D6
S214002C504FF8A369043303449E4203D284F83450E9
S214002C605A25DDE70123D4E900010C4A84F8343004
S214002C7013680133136025F036FCD1E7002384F88F
S214002C803430CDE75D2548E7592546E75A2544E721
S214002C905F2542E75B2540E7E0160020DC160020B3
S214002CA02DE9FF410C4616461F46054680B390F8B0
S214002CB034307BB3B1F5801F2ED2DFF8608001215F
S214002CC025F03FF82146424628460DF10F03FFF750
S214002CD087F8044670B99DF80F30012B11D1D8F84B
S214002CE01030BB4212D10246009031462846FFF70C
S214002CF043FB0446E86B25F00DFA204604B0BDE819
S214002D00F081022B14BF2D246024F3E76324F1E73F
S214002D102124F2E71124F0E72924EEE7A81D00207D
S214002D202DE9F04385B00C4617461E460546DDF8ED
S214002D30308098B390F8343093B3B1F5801F31D219
S214002D40DFF86490012124F0FCFF21464A4628461D
S214002D500DF10F03FFF744F8044688B99DF80F30CD
S214002D60012B14D1D9F8102006EB08039A4213D38E
S214002D7000904346324639462846FFF7FDFA044699
S214002D80E86B25F0C7F9204605B0BDE8F083022BB6
S214002D9014BF2D246024F3E76324F1E72124F2E72F
S214002DA01124F0E72924EEE7A81D00202DE9F341C1
S214002DB01F4600230C46164605463B6050B390F867
S214002DC034304BB3B1F5801F28D2DFF85480012190
S214002DD024F0B7FF2146424628460DF10703FEF7CA
S214002DE0FFFF0446A0B99DF80730032B10D0022B36
S214002DF00AD10123336004233B60E86B25F08AF98F
S214002E00204602B0BDE8F081D8F810303060F3E715
S214002E102D24F2E72124F3E71124F1E72924EFE734
S214002E20A81D002073B50446416924F046FF626E73
S214002E30236B024493422CBF00220122834294BF9C
S214002E4000231B1A207C84F85020636584F8580001
S214002E50A8B100230B4E1A4619462046009625F0C8
S214002E6084FA002305461A4619462046009625F0A1
S214002E7085FAE3682844984294BF0020C01AE065AB
S214002E8002B070BDFFFF0F002DE9F3471E464369F1
S214002E900446B342884617469DF828904FD300252F
S214002EA08DF807502046616924F007FFD4F830A05B
S214002EB082450AD2236AB5EB430F06D2002220468B
S214002EC00DF10701FFF778F9B8B39DF80730012B2D
S214002ED005D1002220460DF10701FFF76DF9B9F183
S214002EE0030F06D03146204624F0E7FE256B8542C8
S214002EF027D3154D4FF0FF31284600F071F94B46A9
S214002F00294600222046C5E90376C5F80080FFF76B
S214002F1021FB236E054663B12046FFF783FF94F836
S214002F20503013B994F858301BB1236E04F150009A
S214002F309847284602B0BDE8F0870135B2E762251B
S214002F40F7E71C25F5E700BF7C1D00202DE9FF41B3
S214002F500F4690461E46054698B390F8343093B315
S214002F60B1F5801F31D21A4C022124F0EAFE224627
S214002F70394628460DF10F03FEF732FF024678B1B8
S214002F80012342460093394633462846FFF77CFF26
S214002F900446E86B25F0BEF8204604B0BDE8F08194
S214002FA09DF80F30012BEBD12169B142E8D1009397
S214002FB0414633462846FFF7DFF904460028DFD1AE
S214002FC0E7E72124E8E71124E6E72924E4E700BF41
S214002FD0A81D002030B50C46054685B028B390F8ED
S214002FE0343023B3B1F5801F23D2022124F0A9FE8A
S214002FF00DF10F03214628460F4AFEF7F1FE034661
S21400300088B99DF80F20032A0DD00322214600928E
S21400301002462846FFF738FF0446E86B25F07AF8A4
S214003020204605B030BD2D24F7E72124F8E711240B
S214003030F6E72924F4E700BFA81D00202DE9F04399
S214003040466886B3056898464FF0000CA946AE461B
S21400305055F83C400CF1010CC4F31307013401D0C1
S214003060B94217D066450EF1080EF1D12F4600245E
S21400307003E0A64207F1080712D055F834300134B1
S2140030800133F6D1C1F3130141EA0851C7E9001232
S214003090BDE8F08341EA0851CEE90012BDE8F083AE
S2140030A0B8F1030F03D101230372BDE8F0830023B8
S2140030B003E09E4209F10809F5D055F83340013384
S2140030C0C4F30754032CF4D1C1F3130343EA0853A3
S2140030D0C9E90032BDE8F0832DE9F04106464068B4
S2140030E082B0C0B10F4690460024336853F834507F
S2140030F003EBC403C5F30752C5F31301013504F10E
S214003100010406D05B683046CDF80080B84710B1A1
S21400311070688442E9D302B0BDE8F081024B1968BA
S214003120024B1868FFF7EEBC3846002058460020D1
S21400313008B537F06EF9014B186008BDD41D0020A5
S214003140014B186837F060B9D41D002073B50446EB
S2140031502248012A00EAC1119DF8185023F07C404D
S21400316007D9961E012E28D9073303F07F0319438B
S21400317008E09DF81C300A43DB0603F0C0531343F7
S21400318043F060410023C4E900108DF80730B5B164
S214003190202221460DF1070025F0C1FA1A220DF172
S2140031A00700211D25F0BBFA082063689DF807205C
S2140031B043EA8263636002B070BD1143E2E71B22FC
S2140031C00DF10700214625F0AAFA23689DF807208E
S2140031D0042043EAC2632360EDE700BF80FFFF07D9
S2140031E038B5094B0D461A680021044627F00FFC37
S2140031F000234FF0FF322383C4E900252361A26039
S214003200E382A37638BD00BF64AB03000138C0B2CA
S21400321005289ABF014B185C0120704769AB030074
S2140032202DE9F0410746154600240E46596888B039
S214003230490A012922464FEA510104F10104F8D84F
S214003240DC78997824031B88C90201F4006104F431
S21400325080540C43C3F30A035203234492B24FF044
S21400326000089C18274B6FEA0444039325F0784324
S214003270ED4302A90DF107001B2202938DF807808B
S21400328025F04DFA9DF80720029B02A943EAC26387
S2140032900DF107001B2225F07845049302958DF862
S2140032A0078025F03CFA9DF80720029B6FEA14443D
S2140032B043EAC26305934FF0FF330794069307A9CA
S2140032C0BB69012206F110009847BB6905A90446B0
S2140032D0012206F108009847BB69404518BF04461E
S2140032E004A90122301D98470122404518BF044614
S2140032F0BB69304603A99847404508BF204608B03A
S214003300BDE8F08101009AB238B504460D4637F0A4
S21400331089F8A3889BB223B92B6037F07EF806485D
S21400332038BD142263889BB202FB034408342C6029
S21400333037F073F80020F3E70B7000F038B141B1B6
S214003340013AB2F5006F044838BF002070470348C2
S21400335070470148704700BF037000F0027000F02D
S214003360104930B50A78104B2AB9C3E90022C3E9E0
S214003370022201220A700C4900220C4654F8045B13
S214003380854208D00132042AF8D1002251F8044BB5
S2140033901CB943F82200002030BD0132042AF5D1C2
S2140033A00248F9E78F410020D81D0020027000F087
S2140033B0002313B51D4A52F8044B94F8211081429D
S2140033C00ED00133042BF6D102B010BD0028FBD17D
S2140033D09DF80730002BF7D0A068FEF765FBF3E7F3
S2140033E094F83530022BEFD1204625F01DFA637E87
S2140033F02076022BE8D194F8323003F0FF02002B3F
S214003400E2D1A0680DF107018DF8072035F006FF20
S214003410237E1BB194F83330002BD7D00023A0684E
S21400342084F83330FEF760FBCEE700BFD81D0020DF
S21400343010B50446FEF704FB002104F10800FEF771
S214003440CFFA014608B1044810BD04F10C00FEF79F
S214003450C7FA0028F8D0F6E70E7000F0F8B5044674
S21400346016460F4636F0DEFFA388E2889BB29A42E5
S214003470054605D80023336036F0CFFF1748F8BD61
S2140034801422238807F1100C9BB202FB03433A4632
S2140034900833174603CF6745186059603A4603F16C
S2140034A00803F6D1142238681860238828469BB291
S2140034B002FB0343083333602388E2889BB2013360
S2140034C0B3FBF2F102FB11339BB22380A3880133D6
S2140034D09BB2A38036F0A1FF0020D0E70A7000F070
S2140034E008B590F8363083B9042203685A619A69A1
S2140034F09207FCD541F21C62102103795B0103F1AF
S214003500A04303F57033995008BD022BFCD1006828
S214003510036CDB074CBF0521062125F09EFA02222C
S214003520014BC3F8C020EFE700D40350012370B569
S21400353080F8303090F8363004460E4686B0A3B990
S21400354005682435204625F0C3F90D4B04940393F3
S21400355000230293736801930123009332682B467D
S2140035606169E06824F078FB07E0022B02D1056869
S2140035703435E7E7002380F8303006B070BD00BF72
S214003580BD3B000001232DE9F04180F8313090F872
S214003590363004460E4688B063BB256836F042FFD8
S2140035A004F13C0807460DF11F0140463C3536F055
S2140035B059FB40B99DF81F302BB1404636F026FB2C
S2140035C0204636F048FF3846012736F026FF2046CC
S2140035D0E76525F07DF90B4B0494039300230293D3
S2140035E073682A46CDE9007333682169A06824F021
S2140035F019FB04E0022BD0D0002380F8313008B04D
S214003600BDE8F081093600002DE9FF41D06A03A924
S2140036101446FFF779FE0646204636F009FF0025D9
S21400362001462346CDE90055184A04F13C0036F021
S214003630D8FF174B9E4221D0039E3561B56036F009
S214003640F1FED6F80C800746B8F1000F04D0D6E994
S214003650002329462046C047E06A03A925F051F911
S214003660E06A83889BB26BB103A9FFF74DFE204644
S2140036700399FFF787FF384636F0CFFE012004B0E7
S214003680BDE8F08184F83130F5E700BFAD92030065
S2140036900B7000F0F7B50D460446002800F0848055
S2140036A036F0C0FE012D06460AD1E36A9B889BB21F
S2140036B0002B3ED1304636F0B0FE3C4803B0F0BD9D
S2140036C0022D2ED1A36A9B889BB2002BF2D0E06815
S2140036D035F084FD0023A06A84F8303083889BB2DE
S2140036E0002B4DD001A9FFF70FFE019DE06805F104
S2140036F0080135F0B9FD2E4B2B61A06A83889BB27A
S214003700002B3DD001A925F0FCF8019AD568002DC4
S214003710F3D0516893682046CB1A12682449A8470C
S214003720EBE7032D2CD1E36A9B889BB20BB9A36A07
S214003730BCE7A06835F052FD0023E06A84F831301B
S21400374083889BB273B101A9FFF7DEFD019FA068D5
S21400375007F1080135F088FD154B3B61E06A838868
S2140037609BB293B9204625F0EFF88304FAD5A36BF5
S214003770002B02DD204636F06EFE023D012DA6D956
S214003780304636F04AFE002098E701A925F0B9F841
S214003790019AD768002FE1D0516893682046CB1A6B
S2140037A012680349B847D9E7024887E7087000F06F
S2140037B0097000F0027000F02DE9F041044617464B
S2140037C0FFF7BCFD88460646E8B9152001F092FFD3
S2140037D00546E26A93889BB213B194F83230ABB1D7
S2140037E094F83630BBB923689D6915F0020527D0DA
S2140037F0012384F834304744B84520683ED18369B5
S2140038009B06FCD545B33046BDE8F081002DE1D0DF
S214003810FEF78AF9DDE7022B12D123681D6C15F03E
S21400382002050DD0012384F834304744474520680C
S2140038302BD142F22002036C32EA0303FBD1E1E70C
S2140038402046FFF74DFE012394F8365084F83430B6
S214003850002DD0D0022D16D094F83630D3B1022BDE
S214003860D1D12068016C11F0010118BF092125F0A3
S214003870F4F802220E4BC3F8C020C4E718F8011B68
S21400388025F03AF9B8E70025CFE718F8011B25F030
S21400389006F9CBE742F21C62102123795B0103F1A3
S2140038A0A04303F570339950082223685A61AAE7AB
S2140038B000E4035010B5044680B190F832302BB9BE
S2140038C024F0B2FF10B9A068FEF7EEF8002094F8D6
S2140038D032300133DBB284F8323010BD0048FCE7EA
S2140038E0027000F010B50446A0B190F832309BB1DB
S2140038F090F83230012B05D124F096FF10B9A0685D
S214003900FEF7F2F8002094F83230013BDBB284F880
S214003910323010BD0148FCE70148FAE7027000F0BB
S214003920057000F030B50025437F85B08DF808306F
S21400393090F82130044604228DF80930039303A939
S214003940064B009502A8FDF725FF4FF400732046AE
S2140039502383A57625F008F805B030BDB133000006
S2140039602DE9F04105466E4F88B001AE0C460FCFEC
S2140039700FC697E8070086E80700002D00F0CE8007
S21400398024B9684E304608B0BDE8F08164220021B4
S214003990284627F03CF82846FFF7E2FC06460028B3
S2140039A0F0D1237D85F83530236885F836002B6006
S2140039B0227B2A710122EA655B4A61689342296686
S2140039C000F0A18002F580429342DAD14FF4A023A2
S2140039D05648574A0026C5E90423D4E907236862F7
S2140039E0AA6216805680968085F83060EB621E804C
S2140039F05E809E80E38985F83160ADF81430238AB6
S214003A0085F83360ADF81230A37C4A488DF8103044
S214003A10E37C03918DF8163005238DF8113036F0CF
S214003A2047FD6B6ADFF81C81986836F041FD206818
S214003A3001A98DF8046001F077FB1422237B08EBC4
S214003A404313C3F81C26267AA07A46EA0042C3F837
S214003A503426617AE27A41EA0247C3F82C76EE769B
S214003A60E877297785F82020637D01216B77A37D91
S214003A70284685F82130E37DAB77237E85F8223013
S214003A8024F06BFE064600287FF47CAF36F0CAFCB6
S214003A90237D0746032B3BD141F21C620221237B88
S214003AA008EB431848F80210042122685B0102F56F
S214003AB08052D165217EE27D03F1A04342EA0142B5
S214003AC003F57433C3F82826A17D627D42EA0142DD
S214003AD0C3F824264FF0FF32206800F500539A649E
S214003AE0237D032B0CBF0521042124F0F6FF4FF4A1
S214003AF04062236828465A61FFF79AFC0646384615
S214003B0036F08BFC3EE74FF480230B480B4A61E708
S214003B10022BDFD12846FFF705FFDBE7084E31E72B
S214003B2070AB0300037000F000C00550F0AB03005C
S214003B3002000500ECAB030010AC0300020004001A
S214003B40027000F000C0035090F83530032B05D00B
S214003B500229417618BF017624F006BF0048704758
S214003B60057000F0F0B587B005461646FFF7E6FB91
S214003B700446F0B90493104BCDE901166A46A86ACC
S214003B8001A903960593FFF769FC044688B995F8E2
S214003B90303073B9284624F060FE28460099FFF7B7
S214003BA0C5FC95F83530032B03D028462C7624F038
S214003BB0DBFE204607B0F0BD017000F0F7B5906A56
S214003BC001A91446FFF7A0FB0546204636F043FC45
S214003BD0384B9D4230D094F83610019D002939D1DB
S214003BE023689A6C12F4007229D0334AA9602A61BD
S214003BF04FF4007203F500539A6436F013FCEF6836
S214003C00064637B16A68AB682046D31A29692A681F
S214003C10B847A06A01A924F074FEA06A8588ADB2F0
S214003C20002D37D001A9FFF76FFB20460199FFF75B
S214003C307DFC304636F0F1FB012003B0F0BD996CF8
S214003C40C80523D51D49AA6029614FF4807203F583
S214003C500053D1E7022919D123685A6C12F4007276
S214003C6009D0154A03F500532A610022AA604FF4D2
S214003C7000725A64C1E7596CC90507D50F49AA6096
S214003C8029614FF4807203F50053F2E700232B619D
S214003C90AB60B2E701232046237624F065FE94F855
S214003CA0353084F83050032BC3D0204624F0F4FD82
S214003CB0BFE700BF0B7000F00D7000F00C7000F056
S214003CC0F0B587B004461646FFF738FB054658BBE6
S214003CD00493194BCDE90116059394F836300396F4
S214003CE02BBB23689B6903F0020313B92046FFF73A
S214003CF0F7FB6A46E06A01A9FFF7B0FB054698B9EC
S214003D0094F8313083B936F08DFBE36A06469B881B
S214003D109BB233B120460099FFF734FC012384F8A8
S214003D203430304636F079FB284607B0F0BD022B1B
S214003D30DCD123681B6CD6E7017000F0044BD3F887
S214003D408420D206FBD4D3F88400C0F381107047D9
S214003D500040005038B5184B0546D3F824010C46F1
S214003D6000F00700062823D8DFE800F0040A121A3D
S214003D701E0E1600012305B1286004B1236038BD6D
S214003D8035F0D2F90523F6E735F0CEF90623F2E74B
S214003D9035F00AFA0323EEE735F006FA0423EAE7DD
S214003DA035F0FEF90223E6E735F004FA0723E2E7EA
S214003DB000231846DFE700BF0080005038B5104BE0
S214003DC00546D3F800310C4603F00303022B0BD054
S214003DD0032B0DD0012B0FD135F0E6F9032305B1E7
S214003DE0286004B1236038BD35F0E8F90823F6E70B
S214003DF035F0E0F90723F2E701230020EFE700BFE4
S214003E000080005038B5104B0546D3F820310C46DC
S214003E1003F00303022B0BD0032B0DD0012B0FD185
S214003E2035F082F9052305B1286004B1236038BD5A
S214003E3035F0BAF90323F6E735F0B2F90223F2E7D4
S214003E4001230020EFE700BF0080005038B5104B7C
S214003E500546D3F840310C4603F00303022B0BD083
S214003E60032B0DD0012B0FD136F0C8FA092305B16C
S214003E70286004B1236038BD35F0A0F90823F6E7C2
S214003E8036F0BFFA0B23F2E701230020EFE700BF6E
S214003E900080005038B5104B0546D3F860310C460C
S214003EA003F00303022B0BD0032B0DD0012B0FD1F5
S214003EB036F0A4FA092305B1286004B1236038BDA2
S214003EC035F07CF90823F6E736F09BFA0B23F2E789
S214003ED001230020EFE700BF008000503C4B9842D3
S214003EE072D02AD83B4B98426BD014D83A4B9842A3
S214003EF064D00AD8394B984243D0394B984240D0C8
S214003F00384B98423DD000207047374B9842FAD144
S214003F10364B586E7047364B984235D003F53713FC
S214003F2003F5D863984232D0A3F5B703A3F55863D8
S214003F309842E8D12D4B186F70472E4B984231D0DF
S214003F400FD82D4B984225D02C4B984226D0A3F55F
S214003F503703A3F5D8539842D5D1244BD3F8800025
S214003F607047274B984221D003F5740303F510538E
S214003F7098421FD0234B9842C5D11C4BD3F89000D3
S214003F8070471A4B986D7047184B586F7047174B11
S214003F90986F7047154BD3F884007047134BD3F8CF
S214003FA088007047114BD3F88C0070470F4BD3F83E
S214003FB0940070470D4BD3F8980070470B4BD86DA4
S214003FC070470A4B986E7047084BD86F704700BF13
S214003FD0002D310180969800404B4C0080841E00D6
S214003FE000093D0040420F00C0CF6A000080E00F8D
S214003FF00024F400006CDC020048E80180D543028F
S2140040000090D003007E560373B50D4600210E4B7C
S2140040100191D3F88041064604F00304012C09D030
S214004020022C0CD00C460EB1019B336005B12C60FF
S21400403002B070BD01A8FFF7E5FE0F24F3E735F0E8
S214004040AFF80190EFE700BF0080005038B5104B86
S2140040500546D3F840320C4603F00303022B0BD080
S214004060032B0DD0012B0FD136F0C8F9092305B16B
S214004070286004B1236038BD35F0A0F80823F6E7C1
S21400408036F0BFF90B23F2E700231846EFE700BF30
S2140040900080005038B5144B0546D3F800020C4695
S2140040A000F0070004281BD8DFE800F003090D1114
S2140040B01500012305B1286004B1236038BD36F031
S2140040C09DF90923F6E735F079F80823F2E736F08C
S2140040D098F90B23EEE735F04DF80E23800AE9E752
S2140040E000231846E6E700BF0080005010B40D4CD1
S2140040F00B46D4F8204204F00304012C0AD0022C0C
S2140041000CD008B1002101600BB100221A605DF8E6
S214004110044B70475DF8044BFFF774BE5DF8044B24
S214004120FFF794BE00800050B0F5207F1FD009D85E
S214004130B0F5007F15D003D868B1B0F5C07F0AD0BF
S21400414000200CE0B0F5607FFAD10B4BD3F880006E
S214004150C0F3011003E0084B186FC0F303300130C2
S2140041607047054BD3F89000C0F30460F7E7024BA6
S214004170186FC0F38020F2E7008000504FF4003242
S2140041800E4B014610B500209A66FFF7CDFF484358
S21400419041F671320A490B4B884294BF0020012039
S2140041A0DC69DA639A6822F4401242EA00529A60A6
S2140041B0E20344BF0022DA6310BD00BF0090005047
S2140041C0005A620200000350420910B50FD0012ABF
S2140041D00FD00A4B0A4C022A18BF234600F01F00D5
S2140041E049B103F58053012282401A6010BD134680
S2140041F0F4E7044BF2E703F50053F4E76880005059
S21400420060820050648000501FB50021B0F5807FAA
S2140042100446019100F0068100F29D80612800F2BC
S21400422095801F2805D8002840F0928034F0A2FF21
S214004230DCE0A0F12004412C00F28A8001A353F8B0
S21400424024F000BF2D420000F14300002D42000084
S214004250F143000011440000114400001144000026
S21400426011440000F1430000F1430000CB4300007E
S2140042708543000047440000514400008543000089
S214004280F1430000F1430000F143000051430000F9
S21400429051430000514300005143000051430000C9
S2140042A0514300001B440000A7430000F1430000F8
S2140042B0F1430000F1430000654400005B44000049
S2140042C0F1430000514300005143000051430000F9
S2140042D05143000051430000514300005143000089
S2140042E05143000051430000514300005143000079
S2140042F051430000514300002D420000514300008E
S2140043002D4200002D4200002D4200001144000006
S2140043105143000051430000514300005143000048
S2140043205143000051430000514300005143000038
S2140043305143000051430000514300005143000028
S214004340514300002D4200002D42000080284BD033
S214004350019804B010BDB0F5A06F5ED028D8B0F5B7
S214004360607F50D019D8B0F5007F4CD004D8B0F597
S214004370C07F3FF45BAFEBE7B0F5207F38D0B0F5F9
S214004380407FE5D134F0F6FE02464FF42070FFF78A
S214004390CBFEB2FBF0F2520833E0B0F5806F37D0B8
S2140043A0B0F5906FD4D1002101A8FFF7D3FCCFE77A
S2140043B0B0F5E06F51D00DD8B0F5C06F43D0B0F572
S2140043C0D06F45D0B0F5B06FC2D1002101A8FFF77D
S2140043D01BFEBDE7B0F5F06F44D0B0F5086FB7D15F
S2140043E001A8FFF7EBFCB3E734F0A4FE0190AFE7BB
S2140043F034F0C0FE02464FF42070FFF795FEB2FB85
S214004400F0F20192A4E734F095FE02462046F4E767
S214004410002101A8FFF7F6FC9AE7002101A8FFF7A4
S21400442065FE95E74FF0E02302911B695B0705D513
S21400443034F0A0FE0290029B019389E703A902A82C
S214004440FFF704FDF7E7002101A8FFF7FFFC7FE771
S214004450002101A8FFF71EFE7AE7002101A8FFF75A
S214004460F5FD75E7002101A8FFF714FD70E700BF12
S21400447008B58020FFF7C8FE034B98429EBF4FF456
S2140044808032024B1A6708BD005A620200A0005034
S2140044901FB503460020B3F5807F01906FD027D864
S2140044A0382B00F082800BD8243B092B0FD8092B21
S2140044B00DD8DFE803F05F5F5F5F0C0C5A0C3675B3
S2140044C0522B57D007D83D2B3AD03E2B72D00198AE
S2140044D005B05DF804FB802BF9D1394B1B6F03F058
S2140044E00703013B032BF2D8DFE803F03D36393BE8
S2140044F0B3F5D06F54D019D8B3F5A06F55D00AD8FD
S214004500B3F5806F36D0B3F5906FE0D1002001A9E7
S214004510FFF720FCDBE7B3F5B06F26D0B3F5C06F2E
S214004520D5D1002001A9FFF791FCD0E7B3F5006FC5
S214004530ECD00AD8B3F5E06F3CD0B3F5F06FC6D137
S214004540002001A9FFF7A6FCC1E7B3F5086FBED1AE
S21400455001A9FFF733FCBAE705230193B7E7032366
S214004560FBE70723F9E70223F7E7002001A9FFF797
S2140045704BFDACE7002001A9FFF744FCA7E74FF08E
S214004580E02302901B695B0705D534F0F3FD0C238E
S2140045900393039BE1E703A902A8FFF757FCF8E79C
S2140045A0002001A9FFF776FD91E7002001A9FFF79B
S2140045B09DFD8CE7002001A9FFF748FD87E700BFB7
S2140045C0008000504FF48032074B0849586E03F5C0
S2140045D080535A660B6A23F001030B62C3035CBF69
S2140045E0034B5A66704700BF0080005000C007505B
S2140045F000A0005008B5FFF74BFF082811D0093877
S214004600012802D94FF6FF7008BD4FF40012064B82
S2140046105A6603F5D8335B6ADB07F3D54FF4FA70B6
S214004620F2E7024B1888EFE700900050A6480020FB
S21400463008B5FFF72DFF03280ABF024B4FF6FF70A1
S214004640188808BDA4480020F8B504468020FFF767
S2140046501FFF032800F087804FF40022424B022100
S2140046605A6645F60E03414AC2F88030404B9962BE
S214004670012103F580539962936DD903FCD4D4E9E4
S21400468000131B0543EA0163E17B94F820500B43BB
S214004690217BE77E43EA0143617B6D0143EA0133F8
S2140046A0A17B43EA811313619169D4E904031B06D5
S2140046B043EA806301F000410B43A17E94F8230097
S2140046C00B43217E43EA0143617E43EA0123936163
S2140046D0136AE66923F00D0394F8221043EA870371
S2140046E0002E2DD11362966A94F8213045EA031302
S2140046F026F033052B4343F0010393621D4D1B4BFD
S2140047009A6D35EA0202FBD10222194DAA621A6599
S2140047109A6D5200FCD41A69A56822F4700242EA27
S21400472005521A614FF00042114B9A6119B90222E4
S21400473003F580539A6278B901220F4B9A620BE018
S214004740334343F008031362936A23F033030343AF
S2140047502B4343EA4103936294F824301BB1034B86
S214004760064AC3F88020F8BD0090005000C00050F4
S21400477000D000500300014000E00050F1A7FFFF0A
S214004780014B93F90000704791410020014B1880BF
S214004790704700BFA44800204FF4001208B5184B1D
S2140047A05A660223174A5360936813F48033FBD18A
S2140047B0012822D134F0F8FC134B984215D003F5AB
S2140047C0122303F5F863984213D0104B00EB8002D7
S2140047D0400AB3FBF0F3520A0A49CA620B6301238C
S2140047E04B620022074B5A6008BD45F67A13084A0A
S2140047F0F2E745F61A03074AEEE75362F1E700BF11
S214004800009000500040025000F049026466666660
S214004810D8B80500BBCF0500B0F5207F10B50C4614
S21400482042D008D8B0F5007F33D003D888B1B0F5B1
S214004830C07F0ED010BDB0F5607FFBD11F4A4C1E66
S214004840D2F8803023F0300343EA0413C2F88030F5
S214004850F0E724F0C5F824F0D1F84FF48031184B77
S214004860164A1967136F013C23F4704343EA043376
S214004870136734F07FFC0446FFF760FAC0F10201CC
S214004880204624F0B5F800F035F8BDE81040FFF7F4
S214004890EFBD0A4A4C1ED2F8903023F0F85343EA94
S2140048A00463C2F89030C5E7044A4C1E136F23F425
S2140048B0806343EA84231367BCE700BF0080005090
S2140048C00090005008B50121022000F055F94FF481
S2140048D02070FFF729FC054B187024F081F824F0AF
S2140048E08DF84FF48032024B1A6708BD90410020C5
S2140048F00090005008B54FF4C070FFF785FCBDE887
S21400490008400449884294BF012102214FF42070D8
S214004910FFF782BF80F0FA0238B5044634F02AFC6E
S2140049200546FFF70BFAC0F10201284624F060F8AE
S2140049300121002000F060F92CB1FFF7DBFFBDE895
S2140049403840FFF795BD034B4FF420701978FFF7FA
S21400495063FFF4E7904100204FF4C02270B505468F
S214004960FFF7BCFA314B04465A6603F598335A688B
S214004970012A04D12E494A609A699207FCD1802008
S214004980FFF786FD052807D124F02AF824F036F82C
S2140049904FF48032254B1A67264B24F040749D4214
S2140049A030D0254B9D4230D034F0BEFB85420646C3
S2140049B003D90121284600F01FF9204BDA6812F0CF
S2140049C0060FFBD199689C609A68624012F4F81F43
S2140049D01ED12846FCF7ECFB8020FFF759FD052882
S2140049E00DD134F0C7FB0446FFF7A8F9C0F1020169
S2140049F0204623F0FDFFFFF77DFFFFF739FDAE42AF
S214004A000CD270BD44F00074CEE744F08074CBE75F
S214004A1080209960FFF73CFD052805D0BDE8704072
S214004A200121002000F0E8B83546DAE70090005093
S214004A3000E0015040420F0080841E00000001503C
S214004A4010B5224B70B94FF40031214A18605166F8
S214004A5002F598325268012A03D11E4AD2F8002184
S214004A601A6010BD1B68002BFBD01B4A5268012A37
S214004A70F7D0184A8020C2F80031FFF709FD052854
S214004A801FD14FF4C070FFF74FFB0128044604D136
S214004A9002214FF4C070FFF7BFFE07220F4B1A61CA
S214004AA00122A3F580535A600B4A1369DB07FCD535
S214004AB0012CD6D12146BDE810404FF4C070FFF758
S214004AC0ABBE0122064B5A60CBE700BFE81D0020B4
S214004AD0009000500080005000C0015000E00150DF
S214004AE000D00150044A4178536F23F4407343EAE0
S214004AF001235367704700BF0040005010B50446BE
S214004B0010B10020FFF79CFF124A136943F004031C
S214004B10136134F079FF23F076FF0F4B5B6E5B0179
S214004B2042BF0E4B0E4AC3F8202435F072FC35F017
S214004B30F7FE35F069FC23F067FF01F07BF81CB93F
S214004B40BDE8104034F016BB0120BDE81040FFF76A
S214004B5077BF00BF00ED00E00080005000E003508B
S214004B600000FF0F034A0179D36E23F030030B4396
S214004B70D366704700400050F8B504461C4BD3F887
S214004B808420D106FBD4D3F88430C3F381139C422F
S214004B902CD034F0CFFA012C064602D1214623F061
S214004BA027FF35F036FC4FF00072124B07465A6668
S214004BB0204623F030FF4FF480630D4D621E934075
S214004BC02B676B6E9A0103D4D5F884309B060AD502
S214004BD0384635F019FC022C08D13046BDE8F840BE
S214004BE0002123F005BFD5F88430EAE7F8BD00BF02
S214004BF0004000500060005010B50C4608B934F074
S214004C0099FA074B21461B783BB1064B984204D8CD
S214004C100120BDE81040FFF7AFBF0220F9E700BF54
S214004C2092410020005A62020278034B01210020C4
S214004C301A70FFF7E1BF00BF924100204FF000421C
S214004C4038B5264B26495A6601224A604AF6CD31C7
S214004C5003F50B235D6C1964154030BB9968C907D2
S214004C600BD4002401221F4B5A6015B11E4B1F4A5D
S214004C701A6433F0AAFB204638BD1A498A601C4ADB
S214004C80D96ACC0705D4904201D10724EAE701305F
S214004C90F6E79042E5D1F8E70132DC6A14F0080442
S214004CA006D08A42F8D10724DFE700221049F4E74D
S214004CB08A42F8D020220B4B0B495A620122A3F5F8
S214004CC080539A6023460A4A486A800603D4934271
S214004CD0E9D00133F8E79342C7D1E4E700900050EB
S214004CE00050095000600950004009503254FFFF40
S214004CF040420F004FF0004238B5174B174C5A662B
S214004D00012203F50C235A604AF6CD33656C236402
S214004D10437893401343124AD363C3788178A268DA
S214004D209B0043EA011322F074021343A360027946
S214004D30837943EA022323614279C37943EA022353
S214004D4063610078FFF77AFFEB0744BF054B2364E7
S214004D5033F03BFB012038BD009000500040095066
S214004D60004000503254FFFF044A054B002908BF9C
S214004D701346012282401A60704700BF401004505C
S214004D804020045010B5012104462020FFF71CFAED
S214004D9001212120FFF718FA0122114B15205A6035
S214004DA0227812069A606178A27842EA01429A61F5
S214004DB0FF229A6200229A631A644FF000425A65F4
S214004DC04FF0FF3203F500531A6500F0BDFC1520C6
S214004DD0E17823F0DAFEBDE81040152000F06EBC46
S214004DE000000450F8B50125C3B21E4FD1F800C02C
S214004DF09D408E7ACB7A0C46097B3D6507F50057B9
S214004E0047F820C04FF0300C0CFB00F01B05677B0A
S214004E1000F1A04043EA064300F5802043EA4153F0
S214004E2022F003020766C365026735F0FBFA0E4BF5
S214004E30227A5D6502B11D64627A02B19D632279B1
S214004E40A37943EA0243074A93616179E37943EA27
S214004E50014305498B61054B55639D64BDE8F840E9
S214004E6035F0DBBA00200450001004500000045057
S214004E7010B50124C0B2844035F0D4FA044B5A6D04
S214004E8022EA04025A659C62BDE8104035F0C5BAB5
S214004E900000045070B5054635F0C4FA3022084BC1
S214004EA05E6B02FB05335C6E35F0B7FA0123EDB29C
S214004EB0AB4033420ABFC4F30A100020013070BD75
S214004EC0000004504FF40032054B9A6641F67132EA
S214004ED003F51C33DA63012203F50053DA607047EA
S214004EE00090005041F671320121064BDA6303F55B
S214004EF00052D1600022DA634FF40032A3F5183373
S214004F009A66704700000350CB784A7810B55B016C
S214004F100C7843EA82030A79234343EA02130C22FD
S214004F20424302F1B0421363012C02BF8A78024B5F
S214004F3043F8202010BD00BFE880035008B54FF0AE
S214004F40B0435A686AB958B15B680BB123F0ACFD40
S214004F5001210D4B596023F0A7FD4FF0B043D960F7
S214004F6008BD5B680BB123F09FFD0028F0D123F04D
S214004F709BFD4FF0B0430222DA6023F095FD01223C
S214004F80024B5A60ECE700BF0010005800200058A3
S214004F904FF0B0414B6810B50BB123F085FD0122F0
S214004FA00B4BC4785A608378934043EA8403447872
S214004FB02343047943EA0413447943EAC4038B6029
S214004FC0044B5A600378C3F10203CB6010BD00BFE8
S214004FD000200058001000584FF48032064B5A66E6
S214004FE003F5E6235B69C3F38512827003F03F0284
S214004FF01B0B42700370704700900050014B986C7A
S214005000D96C70470080E00F0120034B9B680A3381
S21400501003F01F03984070470080E00F70B5054608
S21400502016461C4621B94FF42070FFF7EDF80146EE
S214005030402C1BD003D8DCB1202C1BD070BD602CBC
S214005040FCD1042303FB06F2530803EB4113B3FB26
S214005050F2F36021084A203B02EAC30305F500523A
S214005060916005F580529460EB61E7E70623E9E777
S2140050701023E7E70823E5E7F8FF7F00F8B5154EAD
S2140050801C4615460E40FAB9202B05D0402B1ED0E4
S214005090002B0CBF10244024012306F580765E43C7
S2140050A000233246194602F097FF02FB05F100FB8B
S2140050B004F704FB0311A2FB040400233246214438
S2140050C002F08AFF3844F8BD80240025E4E78024F7
S2140050D00323E2E7F8FF7F00012200F580535A60C1
S2140050E040F6AA6341F20502436100230B49836040
S2140050F0C365C26000F500520361C361C364916476
S21400510007498365884203D103650023436502E0AF
S21400511004498842F8D0012353607047FFFF01001E
S21400512000C005500000065070B50D46FFF7D4FFCE
S214005130012300F580567360AB7C04461BB1836880
S21400514043F080438360EB7C4BB1344A2B7D944222
S21400515043D1A2F51032C2F88C318023F3652A8A37
S2140051606B7B20461343EA891343E3602B7BD5E928
S2140051700112FFF753FF6B7D1BB1A36843F4803326
S214005180A360AB7D1BB1A36843F40043A360EB7D33
S2140051902A7E1B07120502F4E00203F0E0431343E5
S2140051A0A365697E1D4A8B1E012B1D4B1FD894429A
S2140051B01BD002F5804294420CBF01224FF0FF3212
S2140051C003EB4213022041F21C620329985020D1BF
S2140051D00423F3652B78636170BD124A944204BFC2
S2140051E0A2F52032C2F89C31B7E70022E8E79442E5
S2140051F00DD00C4A94420CBF01224FF0FF3203EB55
S2140052004213022042F21C6201299850DFE7002276
S214005210F5E7042204F50053DA65DBE700C0055025
S21400522000C0035000000650034BD3F82424D3F8E4
S21400523020041040704700BF00C003502DE9F8431B
S2140052401E4B0546D3F810334B1E0E2B0E46174644
S21400525090F8009044781DD909B34FF0000828460E
S214005260D7B135F012F909EB4903072C4FF00F01BF
S2140052704FEA031315D8A400114808FA04F2A14017
S214005280184423F03EFCBEB928468FB1BDE8F8436B
S21400529035F0FBB88846E2E723F042FCE3E78846B1
S2140052A0E1E7083CA400074808FA04F2A140E7E753
S2140052B0BDE8F84323F034BCBDE8F88300C00350D3
S2140052C004C003500CC003502DE9F0412B4B174689
S2140052D0D3F810234A1C06460C46407804D1D3F86F
S2140052E0241423F02BFC0446002C2FDB072C4FF055
S2140052F0030532782DDC4FEA840805FA08F52946BE
S2140053001F4802FA08F223F0FCFB294672781D4873
S21400531002F0030202FA08F223F0F3FB012317F06F
S214005320050F194A18BF194903FA04F30CBFC2F84F
S2140053301034C1F8103417F0060F18BF134AC2F81D
S21400534014340123104AA340C2F820342046BDE896
S214005350F081A4F108084FEA880805FA08F52946FE
S2140053600B4802FA08F223F0CCFB7278294602F0CA
S2140053700302084802FA08F2CEE700BF00C0035056
S21400538000C4035008C4035000E0035000D003508C
S21400539004C403500CC403500A4B1B68C3F30743F2
S2140053A0012B0ED1084B04205A6E4FF48023074978
S2140053B0520358BF064A4B6601F51041086258BFB3
S2140053C0536670470080E00F008000500090005049
S2140053D000A000504FF48032084B5A6603F5E623CF
S2140053E05B691A0B027003F03F0242704FF6FF72C1
S2140053F0C3F3851342808380704700BF009000503F
S214005400014B986CD96C70470080E00F70B504466D
S2140054100D4635F007F81D2C064608D80C2C0AD881
S214005420082C2CD013D8BB23E340DB0718D400236A
S21400543021242B801EE00123174AA340134224D1C7
S214005440122C26D00D2CF2D14FF4F06005E0092C7A
S21400545018D00C2CEBD14FF4C060FFF7CBF802E06D
S2140054608020FFF7E5F84FF6FF7398420CBF0E2436
S21400547000242880304634F0D0FF204670BD4FF41C
S2140054808060EEE74FF49060EBE700230F242B805C
S214005490F0E74FF4E060E0E70080912030B58BB095
S2140054A06C46544D0FCD0FC40FCD0FC495E80300C6
S2140054B084E80300504BD3F84C21120300F183809C
S2140054C0D3F85041E4B28DF81940FFF759F9044477
S2140054D084F3080449488DF81840FBF76FFE6846C9
S2140054E0FFF7B2F83220FFF751F94548FFF734FAD4
S2140054F0444C454834F0DCFF0020FFF74DF9FFF739
S214005500E1F9236F002023F0070343F0030323672A
S214005510FFF702FA236F3D4923F4744323673C4B9D
S214005520D3F8FC2012F0807253D1C1F88020354B9E
S214005530D3F8202122F0030242F00202C3F8202111
S214005540D3F8242122F0070242F00202C3F82421F5
S214005550D3F8802122F0030242F00102C3F8802132
S214005560D3F8402122F0030242F00102C3F84021A2
S214005570D3F8602122F0030242F00102C3F8602152
S214005580D3F8402222F0030242F00102C3F8402280
S214005590D3F8002222F0070242F00102C3F80022EC
S2140055A0D3F8202222F0030242F00102C3F82022A0
S2140055B0FFF708F84FF0E0220020136943F00403D9
S2140055C013610BB030BD134B1C88FF2C88BF8C2496
S2140055D079E7D3F8FC2022F08072C3F8FC20002282
S2140055E0C1F88020D3F8FC2042F08072C3F8FC207B
S2140055F09DE700BFACAB03000080E00F00F049025F
S21400560000B4C40400800050E8AB030000900050D3
S21400561000ED00E00001E00F07B56B46054A106894
S214005620516803C36846FFF765FB002003B05DF8CA
S21400563004FB00BFD4AB03000028ACBF00F1604001
S214005640064B4FEA0111C9B2ABBF00F5614000F04E
S2140056500F0080F800131954704700BF14ED00E0E7
S2140056600028ABBF00F16040054B00F5614000F03C
S2140056700F00ACBF90F80003185C0009704700BF2D
S21400568014ED00E008B534F0CDFE0B4B1A7872B975
S21400569001221A7034F0C1FE6FF004021046013287
S2140056A0052152B2FFF7C8FF402AF7D108BDBDE872
S2140056B0084034F0B2BE00BF93410020002807DB4C
S2140056C001234109034A00F01F00834042F82130BD
S2140056D0704700BF00E100E0054B421153F822304E
S2140056E000F01F0023FA00F0C04300F001007047EE
S2140056F000E100E0014608B5EFF31083DB0702D5B2
S2140057000122104608BDFFF7E7FF02460028F7D142
S21400571048B2FFF7A5FF0146EFF3118313B1B0EBD4
S214005720131FEDD2074B5B68C3F30803002BE8D0CA
S214005730103B58B2FFF794FF814234BF002201228B
S214005740DFE700BF00ED00E0002808DB0122430988
S214005750034900F01F008240603341F82320704761
S21400576000E100E013B5094C684600F037F82378EE
S21400577053B9DDE900010222054B23F0FCFC08B911
S2140057800123237002B010BD1220FBE794410020D5
S214005790EC1D002007B5009313460A460146034851
S2140057A023F038FA03B05DF804FB00BFEC1D0020C0
S2140057B013460A460146014823F018BBEC1D00209C
S2140057C007B5009313460A460146034823F006FC35
S2140057D003B05DF804FB00BFEC1D00200249034A3D
S2140057E00160521A42607047E048002000800020A6
S2140057F0BFF35F8F074B5A6A22F480325A62D3F89F
S214005800942022F00102C3F89420BFF34F8FBFF319
S2140058106F8F704700ED00E038B5FFF7E9FF274AC5
S2140058202748D2F8C030274D23F0FF0343F0A003EB
S214005830C2F8C030244B04689D4204F101011DD11A
S214005840224BC2F89840C2F89C3003F5FF437E33E3
S214005850C2F8A0300160BFF35F8F0522174BC3F874
S21400586094205A6A42F480325A62BFF34F8FBFF3D5
S2140058706F8FBFF34F8FBFF36F8F38BD23F01F03BB
S214005880203BB3F1005F09D3C2F898400F4C43F0B9
S2140058900103C2F89C40C2F8A03001600C4B0168BE
S2140058A0064A23F01F0343F00303C2F89810C2F819
S2140058B09C30084B0131C2F8A030CBE700ED00E089
