S02B0000433A2F55736572732F6D706D656E2F53696D706C696369747953747564696F2F424C452D7468657319
S31508000000A80D0020DD78000831B2040831B20408D2
S3150800001075CF040831B2040831B2040831B20408B5
S3150800002031B2040831B2040831B2040831B2040806
S3150800003031B2040831B20408C7A7040831B204086B
S3150800004031B2040831B2040831B2040831B20408E6
S3150800005031B2040831B2040831B2040831B20408D6
S3150800006031B20408EBF0040831B2040831B20408CE
S3150800007031B2040831B2040831B2040831B20408B6
S3150800008031B2040831B2040831B2040831B20408A6
S3150800009031B204080185000831B2040831B20408F7
S315080000A031B204081D820008FD81000831B2040837
S315080000B031B20408E16C0308B57503087FEC05083E
S315080000C07BEC0508296D030895EC050883EC050803
S315080000D08575030887EC0508F57503085D7603083A
S315080000E031B2040831B2040831B2040831B2040846
S315080000F007C8040831B2040831B2040831B204084A
S3150800010031B2040831B2040831B2040831B2040825
S3150800011031B2040831B2040831B2040831B2040815
S3150800012031B2040831B2040831B2040831B2040805
S3150800013031B2040831B2040831B2040831B20408F5
S3150800014031B2040831B2040831B20408470A060875
S315080001503556030831B204085FEC050865EC050856
S3150800016031B2040831B2040831B2040831B20408C5
S31508000180F0B5114A114C124E00F00105E3695F07FC
S3150800019013D40DB9334213D103EA00078F4207D1AE
S315080001A00B4A1A40002A0CBF00206FF00100F0BD70
S315080001B0013AEBD16FF00200F9E74FF0FF30F6E7AE
S315080001C06FF00100F3E700BF809698000000035027
S315080001D0020001000B4B70B5D96911F480310DD1BD
S315080001E001244FF48072084E084DF46020462C64B2
S315080001F01A61FFF7C5FF3464EC6070BD6FF001004B
S31508000200FBE700BF00000350001003500020035016
S315080002104FF4803238B50E4B0E4C9A66E56941F6B6
S31508000220713315400122E3630B4B0021DA60022388
S31508000230606121202361FFF7A3FF10B92120FFF792
S315080002409FFF0122054BDA600DB10023E36338BD39
S315080002500090005000000350001003500020035087
S3150800026070B5134C6061E3695B071ED40E4656F8F9
S31508000270043B8D18A361AE420BD104230021212033
S315080002802361FFF77DFF58B9BDE870402120FFF7CD
S3150800029077BF08210846FFF773FF10B104232361CF
S315080002A070BD56F8043BA361E5E74FF0FF30F7E76A
S315080002B0000003502DE9F84315464FF48032184BD9
S315080002C089469A6603F51C33DF690646174041F6E8
S315080002D07132DA63012203F58053DFF84C80DA6065
S315080002E055B9284601220F4BDA601FB10022A3F543
S315080002F00053DA63BDE8F88306F5005404EA0804F7
S31508000300A41BAC4228BF2C46494622463046FFF776
S31508000310A7FF0028E6D12644A1442D1BE0E700BF2D
S31508000320009000500020035000E0FFFF000000008E
S3150800033000000000000000000000000000000000AF
S31508000340013800D0FCE770472DE9F04F93B0CDE9AE
S315080003500A32DDE91C530E9353EC102BCDE9080144
S31508000360104619468DED060B1E9E10F0B5FE80B19F
S31508000370DDE906014FF0FF32C54B10F0D5FE40B956
S31508000380DDE906014FF0FF326FF4801310F0AEFE80
S3150800039070B1DDE908019DED060B0E9B1E96CDE9B1
S315080003A01C53DDE90A3213B0BDE8F04F00F088B9F6
S315080003B00022DDE90601002310F098FE002800F06F
S315080003C03381DDE906A303F1004BCBF30A5016F49B
S315080003D08063A0F2FF3008BF06250F9310F0AAFB32
S315080003E09BA3D3E9002310F00FFC9BA3D3E90023BA
S315080003F010F054FACBF31304894644F07F51804633
S315080004000022A44B504641F4401110F045FA94A33B
S31508000410D3E9002310F0F8FB02460B46404649464E
S3150800042010F03CFA10F08AFE044610F083FB8EA307
S31508000430D3E900238046894610F0E6FB0022964B56
S3150800044010F02CFA10F07AFE89A3D3E900230746A8
S315080004504946404610F0D8FB80463846894610F093
S3150800046069FB85A3D3E9002310F0CEFB02460B46B1
S315080004704046494610F010FA02460B46CDE90C23D1
S3150800048010F0C2FBDDE90C23804689461046194662
S3150800049010F004FA0022CDE91001804B4046494687
S315080004A010F0DCFC00227E4B10F0F8F902460B46F1
S315080004B04046494610F0D2FC00227A4B10F0EEF97D
S315080004C002460B464046494610F0C8FCDDE90C23B7
S315080004D08046894600204FF0804110F0DDF902463B
S315080004E00B464046494610F0D9F902460B46DDE967
S315080004F0100110F0B3FC07F2FF3700226A4B10F028
S31508000500CDF900223B0510F07FFB52465B4680463C
S31508000510894610F009FE002840F08980CDE90C894B
S3150800052004F16303C72B34BF0427052731051BD500
S3150800053053A3D3E900235046594610F0EBFD002893
S315080005407FD051A3D3E900235046594610F0CEFD7B
S31508000550002876D00027A542C6BF2C1B04F1FF351C
S3150800056000253C4646F480660E9B9F422CBF4FF002
S315080005700008A3EB070816F0020903D0002F18BFDE
S315080005804FF000083CB1DDE90C235046594610F0FF
S3150800059065FC82468B46DDE906010022002310F041
S315080005A0A5FD10B10BF100439B46DDE9080126F4D1
S315080005B00063CDE90183DDE90A324BEC10AB009507
S315080005C000F07EF802465FB3DDE9091316F0200F46
S315080005D000F10105089E0CBF65204520B047DDE9FE
S315080005E008010523002205930A23002CCDE90232CF
S315080005F007F1FF374FEAD473B8BF64422A4601931E
S3150800060004970A9B00944CF00AFE0246B9F1000FC3
S3150800061006D00B9BC41A0B9B1A190E9BA34245D8EE
S31508000620104613B0BDE8F08FDDE906ABCDE6002233
S31508000630404649461A4B10F011FC013CCDE90C0125
S315080006406EE7002D90D00F9B002B8DD0013D8BE7D8
S31508000650FB799F501344D33FB3C8608B288AC63FA3
S3150800066061436F63A787D23F71A379094F930A4005
S315080006701655B5BBB16B0240EF39FAFE422EE63F7E
S315080006802D431CEBE2361A3F0000000080842E4101
S31508000690FFFFEF7F0000F83F0000E03F00002C401E
S315080006A000002440000018400000F03F2020DDE94B
S315080006B00913089DA8470134ADE700BF00000000F4
S315080006C02DE9F04F5BEC10AB97B0CDE90501DDE9FC
S315080006D02057CDE90723504652465B465946229E87
S315080006E010F0FAFC70B90323CDE902760193B04BFA
S315080006F00093DDE90501DDE907234CF0B0FC17B0EE
S31508000700BDE8F08F4FF0FF326FF48013504659461C
S3150800071010F0ECFC28B10423CDE902760193A54B31
S31508000720E6E74FF0FF3250465946A34B10F0FCFC63
S3150800073068B1A24A06F00403002B08BF0322A04BA7
S315080007401CBF13460422CDE902760192D0E7504633
S3150800075093A3D3E90023594610F0E6FC38B992A3CF
S31508000760D3E900235046594610F0C0FC68B1DDE9CC
S315080007700723DDE905014BEC10ABCDE92176209581
S3150800078017B0BDE8F04FFFF7DFBD00220023504643
S31508000790594610F0ABFC002800F09A805B4652469A
S315080007A00020002110F078F8012382468B46099331
S315080007B016F4806400F08E80092D40F28E800024A5
S315080007C030210EABA5F109020134202C03F8011BD8
S315080007D0A5EB040901D09442F6D15946504610F0CB
S315080007E0ADFC784B054603EBC90393ED007B8DED15
S315080007F00A7B10F09FF902460B465046594610F000
S315080008004BF8DDE90A2310F0FFF902460B46CDE95D
S315080008100C2310F0BBFC804610F07CF902460B4610
S31508000820DDE90C0110F038F802460B46CDE90C2339
S315080008300022654B10F078FC002851D008F1010819
S31508000840404610F067F902460B46DDE90A0110F04A
S3150800085057FC10B14FF000080135B9F1000F50D11F
S31508000860284610F067F902460B465046594610F0DE
S3150800087013F80022544B8046894610F037FC30B1F5
S31508000880002240464946504B10F04EFC10B1E8078E
S3150800089000D501350A210EAB1A19202C0AD095FB72
S315080008A0F1F001FB1055303502F8015B01340546BD
S315080008B00028F2D106F00302012A57D1002F55D09D
S315080008C0099A12B916F00C0F00D0013F302245E004
S315080008D009906DE74FF006097FE7A94600247CE7F3
S315080008E00022DDE90C01384B10F000FC0028B4D1D9
S315080008F0B8F1000F02D018F0010FAED008F10108C8
S31508000900ABE70A210EAB2344202C0ED0B8FBF1F03E
S3150800091001FB1082B8F1090F02F1300209F1FF3923
S3150800092004F1010403F8012B11D83021A1440EAAC1
S31508000930202CAFD0A14504F101030AD11C4609F1C8
S3150800094058030DEB03092E2309F8203CA2E780463D
S31508000950DAE7A1541C46EBE71A550134A74205D934
S31508000960202CF9D1CDE902760194C1E6202CF9D0E4
S31508000970099A3AB12D2104F158026A4402F8201C5A
S315080009800134EFE7710704D504F158022B216A44B4
S31508000990F4E73207E6D504F1580220216A44EDE768
S315080009A00000000065CDCD410000000065CDCDC139
S315080009B0F04F0608F44F0608FFFFEF7FE74F0608DB
S315080009C0EC4F0608005006080000E03F0000000053
S315080009D02DE9F04F2DED028B002597B01D7003937E
S315080009E0229B074607911D60002800F03C8143784A
S315080009F0047844EA0324837844EA0344C37844EA3F
S31508000A00036463783F2B00F22E81AA4214BF0623A3
S31508000A1008238DF8243009230C958DF82630427961
S31508000A20037908469FEDA48B43EA02234A790434E6
S31508000A30023292008DF825200AAA0092043B9BB246
S31508000A402146007909AA8DED0A8B42F081F80A9BA6
S31508000A500646049360B1049B23B10C991846C91A3B
S31508000A604CF0B9F9304617B0BDEC028BBDE8F08FF3
S31508000A700B98039DC01A40102870C0B200EB4000C6
S31508000A808F4980005EF028F98346002800F010811F
S31508000A902B788DED0E8B1096002B00F0FA803346DE
S31508000AA002960299E279591A8A42B246B04600F28B
S31508000AB0AC8004D202991144994218BF0F91002ABA
S31508000AC040F0AD807A783B7894F802E043EA022356
S31508000AD0BA7894F803C043EA0243FA7808EB480167
S31508000AE043EA026300220BEB810514925A781878C0
S31508000AF085F802E085F803C002F00F03E2798DED70
S31508000B00128B6A7194F906202A710BF821000EAA35
S31508000B106B70204612AB09A93FF0FAFF8146002800
S31508000B203BD01298149910B1091A4CF054F9039B4A
S31508000B301B78F3B100252C462E4604EB44040BEB38
S31508000B408404627A207A40EA0220A27A40EA0240C5
S31508000B50E27A50EA026000F096804CF03AF9039B7C
S31508000B6001351B7826726672A672E672ECB29C4252
S31508000B70E3D358464CF02DF90023029A1099891AA6
S31508000B80039A1370029B13B118464CF024F9049B80
S31508000B904E46002B7FF461AF64E7DDE91232D21AC4
S31508000BA010464749069305925EF096F8C0F3072C5F
S31508000BB085F809C0C0F3074C85F80AC04FEA106CDF
S31508000BC0069B287285F80BC0002865D0059A002A6E
S31508000BD035D185F8069085F80790002B40D1049BFF
S31508000BE00AF1010A33F81820E3795FFA8AF83344E0
S31508000BF0DEB2039B14441B7843453BD90F9B0299ED
S31508000C00E279591A8A427FF654AF511A0EA83FF074
S31508000C1021FF0E9BE2790293002A3FF453AF07980F
S31508000C204378017841EA0321837841EA0341C3788E
S31508000C30029841EA036131444EF0E2FA42E7194666
S31508000C40069205934EF0DCFA069A1499059BAA714A
S31508000C50C2F30722EA71C91A18464CF0BCF8BEE777
S31508000C601499C91AF8E70B26304617B0BDEC028B63
S31508000C70BDE8F08F229B1099C3F800B0029BC91AF1
S31508000C80002B81D183E70135ECB29C42FFF455AFC6
S31508000C906FE7229B1860DEE63BB114991846C91A1D
S31508000CA04CF099F84FF0020941E74FF002093EE788
S31508000CB00226D0E6AFF30080000000000000000026
S31508000CC0A0CF06080348044B834202D0034B03B166
S31508000CD018477047BCCA0020BCCA002000000000A4
S31508000CE0064B0749C91A891048BF0131491003D074
S31508000CF0044B0BB101481847704700BFBCCA002017
S31508000D00BCCA00200000000010B5064C237843B981
S31508000D10FFF7D8FF044B13B10448AFF30080012353
S31508000D20237010BD229E00200000000090DA0608FD
S31508000D3008B5054B1BB105490548AFF30080BDE86A
S31508000D400840FFF7CDBF00BF00000000D014002008
S31508000D5090DA0608A3F5803A704700BF174B002BB8
S31508000D6008BF134B9D46FFF7F5FF00218B460F463C
S31508000D701348144A121A4EF05DFA0E4B002B00D097
S31508000D8098470D4B002B00D09847002000210400FF
S31508000D900D000D48002802D00C48AFF3008010F073
S31508000DA0A5FD200029004EF0A2F910F0EFFB00BFC8
S31508000DB0000008000000000000000000A80D002048
S31508000DC0A80D002020C1002000000000000000003F
S31508000DD013B5094C237863B9022304200093074A04
S31508000DE04FF4805306490FF0E3F90028A4BF012306
S31508000DF0237002B010BD00BF24AE0020239E002041
S31508000E00C80D060830B5154B87B01B78054614463D
S31508000E10019103B349F0B4FC4FF41B630D22CDF8DE
S31508000E200D00CDF81110042002A902938DF80C507C
S31508000E300FF092F904220DEB020110460FF08CF91F
S31508000E40019B21461A0202F4E062C3F30723042039
S31508000E501A430FF081F907B030BD00BF23AE00205A
S31508000E6030B5144B05461B7885B003F0FF04F3B183
S31508000E70FF2928BFFF210C4649F082FC04F109022C
S31508000E8013029BB243EA122343F0807343F0B00384
S31508000E900D22CDE900300291042069468DF80C40F8
S31508000EA00FF05AF92246294604200FF055F9204634
S31508000EB005B030BD23AE00200122014B1A707047E1
S31508000EC023AE00200022014B1A70704723AE002083
S31508000ED037B504461BF010FF0546002860D1A36805
S31508000EE043F40033A3604FF046FCA3682F4A43F44B
S31508000EF0A013A360A26125774CF09FF8A368A08091
S31508000F001B030CD4B0F5FA7F09D95FF026FC012142
S31508000F10054608465EF0C2FB28465FF019FC2046E7
S31508000F201BF012FF0546E0BBE068E8B31EF0BAFC0A
S31508000F3053F049FF4FF020FE18F096FE19F0D8FC42
S31508000F4055F021F852F034F850F0B2F8012055F077
S31508000F50EFF952F036FF012055F0EEF9054600BBD1
S31508000F6040F20443ADF80430FF2301A88DF806309B
S31508000F7014F02AF804212A46084653F015FF684655
S31508000F808DF800501CF0D2F8032104201DF0F8FD5E
S31508000F900A2012F07DFC1BF08FFE204649F007FC64
S31508000FA00025284603B030BD0148BFE70504030005
S31508000FB080C7002008B5044904482CF047FBBDE863
S31508000FC008402CF075BB00BFD80D0608EC0E0608C5
S31508000FD04FF08052014B5A60704700BF00ED00E0A9
S31508000FE070B5012886B00D468DF8070003D921246F
S31508000FF0204606B070BD284B284E1968306808F0A0
S315080010006DFA04460028F3D1254B062218689B88FA
S31508001010029002A92846ADF80C300494ADF81440A5
S315080010204EF0DEF828B10622284604A94EF0D8F874
S3150800103070B91C49306808F0B9FC08B12D2828D1C8
S315080010401949306808F0B2FC2D2818BF0446CFE7C6
S315080010509DF80730012B0DD16B799B09032BC6D15F
S315080010600123104930680DF1070208F05BFC0446BD
S315080010704CB1BDE7002BF3D10A49306808F096FC5D
S315080010802D280446F4D106232A460749306808F075
S3150800109049FC0446ACE700BF14C3002034C3002053
S315080010A0F56B06083C0004002C000400F8B50E4653
S315080010B00546D0B1C9B10E4B0E4F1968386808F00D
S315080010C00DFA044678B9062332460B49386808F003
S315080010D0D3FA044638B901232A460849386808F07D
S315080010E0CBFA00B12C702046F8BD2124FBE700BFDF
S315080010F014C3002034C300202C0004003C00040064
S31508001100034A0449002808BF114602202BF07EBF77
S31508001110EA0F0608E20F060838B504460B4890F8A9
S31508001120C020A2420FD00A4D0A4928684BF0A9FBF5
S315080011304AF0A6F84AF0A5F82246074928684BF06F
S31508001140A0FB002038BDA0F58050FBE7E82400206E
S3150800115010510020F20F0608F70F06082DE9F04F88
S31508001160FF280746894693469A4689B000F0938435
S31508001170002900F09284002B00F08F84139B002B2B
S3150800118000F08B84129B002B00F08784CA4DDFF891
S315080011905083CA4928684BF074FB08F580544AF016
S315080011A06FF84AF06EF83A46C54928684BF069FB6D
S315080011B094F8C030FF2B40F08880C24928684BF06D
S315080011C060FB4AF05DF84AF05CF8BF4928684BF0C6
S315080011D058FBBC4928684BF054FB4AF051F84AF0D2
S315080011E050F894F8C020B94928684BF04AFB41F2F8
S315080011F04412002140464EF01DF84046002102F0F8
S3150800120045FD4FF0FF33C4F8A83017230026A4F88D
S31508001210BA30B4F8A43040F24A7203F0F00343F44B
S315080012208673314608F65800A4F8A430C8F85468FE
S315080012304EF000F8A349286884F8BC6084F8C070AA
S315080012404BF01FFB4AF01CF84AF01BF894F8C02034
S315080012509F4928684BF015FB4922494604F15A0074
S315080012604DF0F3FF94F86890944994F866802868DE
S315080012704BF007FB4AF004F84AF003F8CDF8009063
S31508001280434694F8C020934928684BF0FAFA334647
S31508001290324694F8C00004F1C4012BF09BFD0646C3
S315080012A088B38D4928684BF0ECFA49F0E9FF49F014
S315080012B0E8FF8A4994F8C02028684BF0E2FA2D2105
S315080012C03246874801F088FD19E0834928684BF0C3
S315080012D0D8FA49F0D5FF49F0D4FF824928684BF07F
S315080012E0D0FA7D4928684BF0CCFA49F0C9FF49F095
S315080012F0C8FF3A467C4928684BF0C3FA1C26304694
S3150800130009B0BDE8F08F94F8C43028686D49002B01
S3150800131000F0A0804BF0B5FA49F0B2FF49F0B1FFF2
S3150800132094F8C43094F8C020704928684BF0A9FA9C
S31508001330BBF800306A4E604CA6F8B93F13F0FF03BD
S31508001340206806F5805B40F0A9805C494BF099FA65
S3150800135049F096FF49F095FF9BF8C020644920683C
S315080013604BF08FFA574928684BF08BFA49F088FFFB
S3150800137049F087FF96F8CD3F3A46009396F8CE3F58
S315080013805C4928684BF07DFA4E4928684BF079FA93
S3150800139049F076FF49F075FF96F8CA3F3A4600933A
S315080013A096F8CB3F544928684BF06BFA45492868AC
S315080013B04BF067FA49F064FF49F063FF96F8C93FB6
S315080013C04E4C009396F8C73F3A464D4928684BF06D
S315080013D058FA3C4928684BF054FA49F051FF49F04D
S315080013E050FF94F8C020474928684BF04AFA129BE8
S315080013F03449C4F8D430139B2868C4F8D830C4F8E4
S31508001400D0A04BF03EFA49F03BFF49F03AFF94F87A
S31508001410C0203D4928684BF034FA96F8B91F94F86D
S315080014205D0004F1990240F0DDFF0646002800F051
S315080014309280294928684BF024FA49F021FF49F09F
S3150800144020FF334631493A4628684BF01AFA2126D6
S31508001450302135E74BF015FA49F012FF49F011FF34
S3150800146094F8C0202A4928684BF00BFA94F8C00073
S315080014702BF0E6FC064600283FF45AAF16492868C2
S315080014804BF0FFF949F0FCFE49F0FBFE214994F8C0
S31508001490C02028684BF0F5F92E2111E7012B3DD124
S315080014A006494BF0EEF949F0EBFE49F0EAFE9BF8E7
S315080014B0C020194953E700BF10510020391006080B
S315080014C03E100608731006087810060896100608D7
S315080014D0CE100608FD100608F20F0608A411060825
S315080014E0E81400205911060874110608D4110608D4
S315080014F080120608F913060827140608E8240020AF
S31508001500631406089B140608CF140608F614060882
S315080015100F12060851120608D5120608022B0AD120
S31508001520C2494BF0AEF949F0ABFE49F0AAFE9BF86A
S31508001530C020BF4913E7BF494BF0A3F949F0A0FE05
S3150800154049F09FFE96F8B93F9BF8C020BA49206833
S315080015504BF097F906E7B94928684BF092F949F034
S315080015608FFE49F08EFE94F8C020B54928684BF0E6
S3150800157088F90A2104F1990001F088FF0646AB496B
S3150800158028684BF07EF949F07BFE49F07AFE33462F
S3150800159094F8C020AB4928684BF073F994F8C0005A
S315080015A0FFF7BAFD00F5805696F85D308246022BA5
S315080015B0A54D2FD196F86730072B00F26981DFE831
S315080015C013F00800BC0067016701E70067016701BF
S315080015D0F9000123954980F8D33F28684BF051F963
S315080015E049F04EFE49F04DFE96F8C0209749286806
S315080015F04BF047F9914928684BF043F949F040FE0A
S3150800160049F03FFE9AF8D33F96F8C02090492868DB
S315080016104BF037F996F86730884986F868302868B5
S315080016204BF02FF949F02CFE49F02BFE96F868305E
S3150800163096F8C020874928684BF023F996F85DB0DC
S31508001640BBF1010F20D196F86B902868B9F1020F0B
S3150800165000F03381B9F1FE0F00F05181B9F1010FA5
S31508001660744940F05C814BF00CF949F009FE49F0E9
S3150800167008FE96F8C020784928684BF002F986F8E3
S315080016806C9000238AF8D33FB4F889306BBB0DF110
S315080016901E03049307AB039394F89730029394F8C8
S315080016A0683001936D4B93F8B93F009394F89830DE
S315080016B094F85A2094F85E1094F85D0001F01AFB2D
S315080016C00646002800F057810F2E286840F036811C
S315080016D058494BF0D6F849F0D3FD49F0D2FD94F8B5
S315080016E0C0205F4928684BF0CCF8B4F893300293D1
S315080016F0B4F891300193B4F88D300093B4F88B3078
S31508001700B4F88120B4F87F1094F8C0002BF026FBBB
S315080017100646002800F04F81524928684BF0B1F878
S3150800172049F0AEFD49F0ADFD4F49334694F8C02067
S3150800173028684BF0A6F83121C2E5B8F1010F2868F0
S3150800174018D83C494BF09DF849F09AFD49F099FDA7
S3150800175096F8C020454928684BF093F801222921BC
S31508001760504601F039FB002386F8673001238AF8D2
S31508001770D33F3FE702238AF8D33F2C494BF081F841
S3150800178049F07EFD49F07DFD96F8C02038492EE7E0
S31508001790B9F1010F2868D4D902238AF8D33F23491F
S315080017A04BF06FF849F06CFD49F06BFD96F8C020D8
S315080017B030491CE7B9F1010F11D9B8F1010F1ED94B
S315080017C004231A4980F8D33F28684BF05AF849F0A1
S315080017D057FD49F056FD96F8C020274907E701222C
S315080017E0292101F0F9FAB9F1010F0FD1B8F1020F69
S315080017F028680BD18AF8D38F86F86790BDE701224F
S31508001800292101F0E9FAB9F1020F37D00949286808
S315080018104BF037F849F034FD49F033FD96F8C0200F
S31508001820124928684BF02DF89DE700BF39100608C5
S315080018303313060883130608881306087310060868
S315080018402D1506085C150608105100209215060885
S31508001850FA1606082E1706086B170608E81400205D
S31508001860E5180608F20F06082F1A0608C515060811
S3150800187006160608391606086C160608B8F1010F8A
S315080018802868C3D104238AF8D39F86F8673086E789
S31508001890834928684AF0F5FF49F0F2FC49F0F1FC63
S315080018A096F8C0207F4928684AF0EBFF01238AF89A
S315080018B0D33F002386F867309CE6B8F1010F7849D4
S315080018C009D94AF0DEFF49F0DBFC49F0DAFC96F864
S315080018D0C0207549D0E64AF0D4FF49F0D1FC49F05A
S315080018E0D0FC96F8C020714928684AF0CAFF5A46C3
S315080018F02A21504686F86CB001F06EFAC1E66C49AA
S315080019004AF0BFFF49F0BCFC49F0BBFC96F86630CC
S3150800191096F8C020674928684AF0B3FFAFE64AF050
S31508001920B0FF49F0ADFC49F0ACFC96F8C02062491E
S3150800193028684AF0A6FF86F86BB0A2E60A2E0AD1F6
S3150800194057494AF09EFF49F09BFC49F09AFC94F8E7
S31508001950C0205A49C6E65A494AF093FF49F090FC16
S3150800196049F08FFC5749334694F8C02028684AF056
S3150800197088FF3221A4E4BDF81C304D49A4F87F3015
S31508001980A4F88130BDF81E302868A4F88330A4F87E
S3150800199085304AF076FF49F073FC49F072FCB4F8DA
S315080019A0853049490093B4F8813094F8C0202868F6
S315080019B04AF067FF99E6FF22384694F85B102BF049
S315080019C0F5F9064680B13E4928684AF05AFF49F0BB
S315080019D057FC49F056FC3D49334694F8C020286820
S315080019E04AF04FFF33216BE4394928684AF049FF2A
S315080019F049F046FC49F045FC94F8C020354928686A
S31508001A004AF03FFF324928684AF03BFF49F038FC64
S31508001A1049F037FC94F8C0202F4928684AF031FF6E
S31508001A206FF489722D4B94F8C0009A18191F01F0AB
S31508001A30EBFB0746A8B1224928684AF022FF49F07D
S31508001A401FFC49F01EFC3B4694F8C0202449286830
S31508001A504AF017FF3A462F21224801F0BDF9012620
S31508001A604DE4134928684AF00CFF49F009FC49F08F
S31508001A7008FC94F8C0201C4928684AF002FF149B09
S31508001A801BB194F8CC30149A1370002215481146ED
S31508001A9002F084FB33E4252631E422262FE400BF36
S31508001AA0831306089F160608B2170608F9170608CC
S31508001AB03910060844180608891806084119060840
S31508001AC0F20F060887190608DE190608791A0608A5
S31508001AD073100608BC1A0608F11A0608B425002071
S31508001AE01D1B0608E8140020581B060810B5134CE1
S31508001AF041F24412002120464DF09CFBFF2204F5DA
S31508001B00805383F8C02083F829214FF0FF32C3F8A9
S31508001B10A8201722A3F8BA204FF486720021A3F84A
S31508001B20A42004F6580040F24A724DF083FB204682
S31508001B30BDE81040012102F0A9B800BFE814002052
S31508001B402DE9FF41054688461746FFF7E5FA584C42
S31508001B500646A0B9574920684AF093FE49F090FB1B
S31508001B6049F08FFB2A46544920684AF08AFE222209
S31508001B702721304604B0BDE8F04101F02DB906F53D
S31508001B80805595F8A4302068DB0712D518F0010FA8
S31508001B900FD148494AF075FE49F072FB49F071FBCE
S31508001BA095F8C020454920684AF06BFE3A460B2155
S31508001BB0DFE787B13F494AF064FE49F061FB49F027
S31508001BC060FB95F8C0203E493B4620684AF059FE1E
S31508001BD03A460C21CDE73B494AF053FE49F050FB03
S31508001BE049F04FFB434695F8C020374920684AF02C
S31508001BF048FE95F8A41095F8C00048F06FFE074611
S31508001C0088B12C4920684AF03CFE49F039FB49F076
S31508001C1038FB95F8C0202D493B4620684AF031FE2E
S31508001C203A460D21A5E72A4920684AF02AFE49F0D6
S31508001C3027FB49F026FB95F8A4702649264817F095
S31508001C40010F14BF03460B4617F0020F14BF844654
S31508001C508C4617F0040F14BF86468E4617F0080FF9
S31508001C6018BF014695F8C020CDE901E1CDF800C0BE
S31508001C701A4920684AF005FE032195F8C00048F085
S31508001C8071FE074688B10B4920684AF0FAFD49F00B
S31508001C90F7FA49F0F6FA95F8C02011493B4620684C
S31508001CA04AF0EFFD3A460E2163E704B0BDE8F0813D
S31508001CB010510020F20F06088A1B0608B91B0608F1
S31508001CC01F1C060839100608601C06089F1C060813
S31508001CD073100608861B06080B6F0608DF1C060825
S31508001CE0A61D06082DE9F04186B080460F46144623
S31508001CF0FFF712FA574E0546A0B9574930684AF019
S31508001D00C0FD49F0BDFA49F0BCFA4246534930686D
S31508001D104AF0B7FD22220E21284606B0BDE8F0415A
S31508001D2001F05AB830687CB14B494AF0AAFD49F02F
S31508001D30A7FA49F0A6FA009442463B464849306855
S31508001D404AF09FFD2246E6E7464905F580544AF0E3
S31508001D5098FD49F095FA49F094FA3B4694F8C02064
S31508001D60414930684AF08DFD032F11D8DFE807F0A6
S31508001D704152330294F8B8300C2B0CD00121284676
S31508001D8003AA8DF80C1002F009FA052384F8B83076
S31508001D9006B0BDE8F08140F24A7194F8C00005F635
S31508001DA0580248F05BFD07460028EED02A493068FD
S31508001DB04AF067FD49F064FA49F063FA94F8C020DE
S31508001DC03B462A4930684AF05CFD3A460F212846C8
S31508001DD001F002F8D9E7072384F8B8300023012177
S31508001DE0284684F8BC3003AA8DF80C1002F0D6F900
S31508001DF0CEE71C4930684AF044FD49F041FA49F0FB
S31508001E0040FA94F8C0201A49306806B0BDE8F04197
S31508001E104AF037BD94F8B830052BB9D10C23032105
S31508001E2094F8C00084F8B83048F09CFD07460028AE
S31508001E30AED0094930684AF024FD49F021FA49F044
S31508001E4020FA94F8C0203B460A4930684AF019FD42
S31508001E503A4660E710510020F20F0608E11D060811
S31508001E601E1E0608731006085F1E06088A1E060848
S31508001E70D01E0608A61D06082DE9F04F9BB01D4684
S31508001E809DF8903007460F93BDF894308B46109313
S31508001E909DF89830DDF8A48011939DF89C30DDF804
S31508001EA0B4A012939DF8A0300E9213939DF8A83013
S31508001EB0764E14939DF8AC3015932C9B0D93FFF733
S31508001EC02BF9044678B9724930684AF0DAFC49F0C9
S31508001ED0D7F949F0D6F93A466E4930684AF0D1FC46
S31508001EE0222211211FE000F5805999F8A53073B315
S31508001EF000F6580240F24A7199F8C00048F0AEFC64
S31508001F000746B0B1624930684AF0BBFC49F0B8F9F7
S31508001F1049F0B7F999F8C0205F493B4630684AF05E
S31508001F20B0FC3A460F2120461BB0BDE8F04F00F042
S31508001F3053BF5A4930684AF0A4FC49F0A1F949F060
S31508001F40A0F999F8C020564930684AF09AFC4F4ED5
S31508001F5004F580573068BDB14D494AF092FC49F006
S31508001F608FF949F08EF92B4697F8C0204D4930680D
S31508001F704AF087FC0D9B53EA0A0A00F08480062D76
S31508001F8000F081802A46ACE744494AF07AFC49F0D9
S31508001F9077F949F076F9444B4449139897F8C020E5
S31508001FA000280CBF9C468C464148149B4149CDE904
S31508001FB005C8002B18BF01460D9BCDE90A3A159BAB
S31508001FC0CDE90713129B3C490493119B03930F9B7E
S31508001FD00293109B01930E9B0093384B3068BBF11C
S31508001FE0000F18BF0B4636494AF04BFCBBF1000FF1
S31508001FF049D03449C4F8548830684AF042FC49F05C
S315080020003FF949F03EF994F8593894F8581897F872
S31508002010C02003F00F03CDF8008041EA032330689F
S3150800202029494AF02EFC94F8592894F8583802F0B1
S315080020300F0204F6580943EA0223D4F854182A462C
S31508002040ADF86430484697F82831CDE917988DF8E9
S31508002050675001F07DFF08218DF8660017AA204613
S3150800206002F09CF8044670B1094930684AF009FC48
S3150800207049F006F949F005F9234697F8C0201349AF
S3150800208030684AF0FEFB1BB0BDE8F08F1051002007
S31508002090F20F0608421F06088A1E0608731006086D
S315080020A0861F0608C11F0608181F0608C1D5060898
S315080020B0281F0608351F0608041F06080E1F0608EF
S315080020C00320060839100608AF200608F32006087C
S315080020D02DE9F34117460E460546FFF71DF8044657
S315080020E0DFF83C800C49D8F800004AF0CAFB49F0F2
S315080020F0C7F849F0C6F8009733462A460749D8F87C
S3150800210000004AF0BEFB204607220F2100F064FEBD
S31508002110002002B0BDE8F081731006083A210608CF
S31508002120105100202DE9F0470368B44A23F47F4391
S3150800213023F007039342044692B000F0FF833ED88B
S3150800214002F17F42934200F019841ED802F17F42C1
S31508002150934200F0878202F53002934200F0B98379
S31508002160A2F18272934200F02881A54DA5492868FC
S315080021704AF087FB49F084F849F083F82268A249B7
S3150800218022F47F4222F007026EE0A04A93425BD017
S3150800219002F540329342E8D10079FEF7BDFF0746C3
S315080021A0002840F06683964D994928684AF069FBED
S315080021B049F066F849F065F82279964954E0964A56
S315080021C0934200F04D8525D802F17E42934200F0F5
S315080021D0D88402F52D029342C7D10079FEF79CFFF9
S315080021E0002800F0EA806379854C00F5805585F86B
S315080021F05B30844920684AF044FB49F041F849F0CD
S3150800220040F895F85B3095F8C020844920684AF074
S3150800221038FBD2E0824A934200F03F8202F1FC7218
S315080022209342A2D1764D7A4928684AF02AFB49F0AA
S3150800223027F849F026F8A3797A4900936379227931
S3150800224028684AF01EFBB8E00079FEF765FF0746E6
S3150800225070B96B4D6E4928684AF013FB49F010F8BF
S3150800226049F00FF82279704928684AF00AFBA4E079
S31508002270B4F8052000F5805593B2A5F8C220B5F844
S3150800228081209A4204D3B5F87F209A4240F29B8077
S315080022905B4E664930684AF0F4FA48F0F1FF48F0B8
S315080022A0F0FFB4F80510B5F87F3095F8C020019115
S315080022B0B5F88110009130685D494AF0E2FA95F860
S315080022C0C630ABBB4E4E594930684AF0DAFA48F088
S315080022D0D7FF48F0D6FF95F8C020564930684AF02F
S315080022E0D0FAB5F893C0B5F88B30B5F88120B5F8B3
S315080022F07F1095F8C000CDF808C0B5F891C0CDF8A4
S3150800230004C0B5F88DC0CDF800C02AF027FD002816
S3150800231000F0B580454930684AF0B3FA48F0B0FF96
S3150800232048F0AFFF95F8C020434930684AF0A9FA4B
S31508002330012385F8C630E37A002B00F0A580304EDD
S31508002340304930684AF09DFA48F09AFF48F099FFFC
S3150800235095F8C020394930684AF093FA95F8B830AC
S31508002360002B40F0B180274930684AF08AFA48F0D5
S3150800237087FF48F086FF95F8C020314930684AF053
S3150800238080FA95F8C0001FF049FF044600287FD060
S3150800239005287DD01E4930684AF073FA48F070FF68
S315080023A048F06FFF95F8C020264930684AF069FA68
S315080023B022460521384600F00FFD002080F0010076
S315080023C012B0BDE8F087B5F88B20B4F807309A420A
S315080023D03CD00B4E154930684AF053FA48F050FF86
S315080023E048F04FFFB4F80710B5F88B3095F8C020C1
S315080023F00091154930684AF044FA60E7A00059028E
S315080024001051002073100608B52C0608A000060215
S31508002410F20F060845280608A0005905FA250608F9
S31508002420A0000906352C0608682106088313060845
S31508002430CC210608DF220608292306088A2306086F
S31508002440CC230608112406084B220608B5F88D2069
S31508002450B4F809309A423FF46BAFBC4EBC493068B9
S315080024604AF00FFA48F00CFF48F00BFFB4F80910D1
S31508002470B5F88D3095F8C0200091B649BAE795F8B9
S31508002480C630002B7FF457AF012385F8C63094E792
S31508002490012795F8C04085F8B8702046FEF73CFE3F
S315080024A0054698B9AC4930684AF0EBF948F0E8FEB9
S315080024B048F0E7FE2246A94930684AF0E2F92222A6
S315080024C02721284600F088FC012077E7A44905F56E
S315080024D0805430684AF0D5F948F0D2FE48F0D1FE6B
S315080024E094F8C0209F4930684AF0CBF994F97220D5
S315080024F0394694F86C3094F8C000009200222AF00D
S31508002500BFFC074680B1944930684AF0BAF948F0EA
S31508002510B7FE48F0B6FE94F8C020934930684AF0F2
S31508002520B0F93A462821CCE78D4930684AF0A9F92E
S3150800253048F0A6FE48F0A5FE94F8C0208B493068FE
S315080025404AF09FF994F8C0002AF08AFC074688B139
S31508002550814930684AF095F948F092FE48F091FEB4
S3150800256094F8C02082493B4630684AF08AF93A46D0
S315080025702C21A6E77A4930684AF083F948F080FEAC
S3150800258048F07FFE94F8C0207A4930684AF079F915
S31508002590734930684AF075F948F072FE48F071FEE2
S315080025A094F8C020744930684AF06BF994F86DC005
S315080025B094F85D3094F8702094F86E1094F8C00082
S315080025C0CDF834C094F864C0CDF830C094F865C02E
S315080025D0CDF82CC094F86AC0CDF828C094F863C02A
S315080025E0CDF824C005F5845C0CF1190CCDF820C093
S315080025F094F85CC0CDF81CC094F869C0CDE9057C98
S3150800260094F86270049794F86170039794F85F7071
S31508002610029794F86070019794F85E7000972AF014
S315080026204BFC074688B14C4930684AF02AF948F00D
S3150800263027FE48F026FE94F8C02050493B463068ED
S315080026404AF01FF93A462B213BE74D4930684AF0D4
S3150800265018F948F015FE48F014FE94F8C0204949C8
S31508002660306817E00079FEF757FD00283FF4A5AE5D
S315080026700123364D00F58054394984F8C530286859
S315080026804AF0FFF848F0FCFD48F0FBFD94F8C0203E
S315080026903D4928684AF0F5F816E70079FEF73CFD4B
S315080026A0064658B9294D2C4928684AF0EAF848F0F0
S315080026B0E7FD48F0E6FD22793449D5E500F5805571
S315080026C095F8C000237983427FF477AEB4F80540C5
S315080026D0BCB11E4F204938684AF0D3F848F0D0FDFF
S315080026E048F0CFFD95F8C020294938684AF0C9F85E
S315080026F095F8B830032B3FF460AE224607213046E2
S3150800270059E695F8B830012B46D0022B7FF455AE22
S31508002710304600F0F7FB95F8A5300C4C002B6DD031
S31508002720B5F8AE30002B69D10B4920684AF0A9F8F4
S3150800273048F0A6FD48F0A5FD95F8C0201549206883
S315080027404AF09FF8012209213BE000BF1051002002
S31508002750831306088F220608F20F06084A2406087D
S3150800276073100608732406089F240608D024060852
S31508002770F7240608322506085B2506088B25060871
S3150800278039100608CB250608262606084D2606080B
S31508002790B42606084E270608D5F8A8104B1C12D1F1
S315080027A07F4C804920684AF06CF848F069FD48F08B
S315080027B068FD95F8C0207C4920684AF062F8012235
S315080027C0062130467EE6022385F8B8301FF036FD2E
S315080027D0044600283FF478AE714F724938684AF0CB
S315080027E050F848F04DFD48F04CFD95F8C0206F496B
S315080027F038684AF046F822460821E2E76C4920681C
S315080028004AF03FF848F03CFD48F03BFD95F8C020FB
S31508002810684920684AF035F806F58551B5F88F20DD
S3150800282095F8C0000C3102F08FF9074688B15D496A
S3150800283020684AF026F848F023FD48F022FD95F86E
S31508002840C0205D493B4620684AF01BF83A460A21F3
S31508002850B7E70323564985F8B83020684AF011F8D7
S3150800286048F00EFD48F00DFD95F8C0205349206844
S3150800287010E7002600F58555DFF85C91DFF8208122
S31508002880DFF82CA10C35022204F1090109EB4600F8
S315080028904CF0A6FCB8B9B4F8053051462B80D8F8E8
S315080028A0000049F0EEFF48F0EBFC48F0EAFC07F5BB
S315080028B0805393F8C0202B8841490093D8F800002C
S315080028C0334649F0DEFF0136062E05F10205DAD158
S315080028D073E50079FEF720FC054658B9304D3149B5
S315080028E0286849F0CEFF48F0CBFC48F0CAFC2279AC
S315080028F03449B9E40222344804F10A014CF070FC68
S3150800290000287FF45AADD4F80530254C05F58056D5
S31508002910C6F8A8302649206849F0B3FF48F0B0FC4D
S3150800292048F0AFFCD6F8A83096F8C02027492068AA
S3150800293049F0A7FF284600F08DFA3EE50079FEF734
S31508002940EBFB58B9164D1749286849F09AFF48F025
S3150800295097FC48F096FC22791D4985E40421231D3D
S315080029600F9300F5805393F85D20022A04BF627A1C
S3150800297083F829210FAA01F011FCA5E50079FEF7D5
S31508002980CBFB074F054648BB0649386849F079FF2F
S3150800299048F076FC48F075FC22790E49386864E4FC
S315080029A010510020F20F0608E12606080C27060833
S315080029B073100608A3270608DD2706081728060841
S315080029C0A7280608E028060838C700203B29060875
S315080029D066290608D12906082CC7002005F5805661
S315080029E0B649386849F04DFF48F04AFC48F049FCBA
S315080029F096F8C020B249386849F043FF284600F0E7
S31508002A0081FAA37BAD4985F8C83F94F8243005F6CA
S31508002A10BB7885F8CF3F94F8213085F8D03F94F8F5
S31508002A20223085F8D13F94F8233085F8D23FB6F89E
S31508002A30C230A5F8D43FE37F85F8CE3FA37F85F85B
S31508002A40CD3F237F85F8CB3F637F85F8CC3F637CFA
S31508002A5085F8CA3F237C85F8C93F637B85F8C73F5D
S31508002A60237B85F8C63FE37A85F8C53FD4F812304C
S31508002A70C5F8BB3FD4F816303868C5F8BF3F638B36
S31508002A80A5F8C33F49F0FDFE48F0FAFB48F0F9FB0C
S31508002A9096F8C0208B49386849F0F3FE96F85E3000
S31508002AA096F8C000019396F85D3005F586510093B7
S31508002AB005F6B9724346083100F012FC044698B18F
S31508002AC08149386849F0DDFE48F0DAFB48F0D9FB61
S31508002AD096F8C0207D492346386849F0D2FE22463A
S31508002AE02F21284600F078F97949386849F0C9FE57
S31508002AF048F0C6FB48F0C5FB96F8C020754938680B
S31508002B0049F0BFFE96F89640B6F88330B6F88720A7
S31508002B1096F86E1096F8C000099496F895400894B1
S31508002B2096F86F40079496F97140069496F85B40BC
S31508002B30059496F868400494D6F87B400394D6F832
S31508002B4077400294B6F889400194B6F88540009417
S31508002B502AF010FA044600283FF4B6AC5A493868F9
S31508002B6049F08FFE48F08CFB48F08BFB96F8C020A6
S31508002B7059492346386849F084FE22461E212846CC
S31508002B8019E40079FEF7C8FA064600283FF415ACA2
S31508002B90524F4F49386849F074FE48F071FB48F0C7
S31508002BA070FB22794E49386849F06BFE4FF6FF7381
S31508002BB0B6F8A42F06F580559A4215D195F8263110
S31508002BC0063B012B38D80523414985F82631386854
S31508002BD049F057FE48F054FB48F053FB95F8C020DF
S31508002BE04049386849F04DFE95F82631063B012BD9
S31508002BF022D895F8E8300133DBB20A2B85F8E8309D
S31508002C0022D900214FF6FF7385F8E8103046A6F85A
S31508002C10A43F01F03BF805232D4985F8263138688D
S31508002C2049F02FFE48F02CFB48F02BFB95F8C02006
S31508002C302C49386849F025FE0123062130460F94B1
S31508002C408DF843300FAA96E62149386849F019FEEF
S31508002C5048F016FB48F015FB22792349386819E530
S31508002C600079FEF759FA054600283FF4A6AB05F5A4
S31508002C70805393F82631194E063B012B30681449C8
S31508002C8012D949F0FEFD48F0FBFA48F0FAFA227923
S31508002C901649306849F0F5FD0023072128460F94A8
S31508002CA08DF843300FAA66E649F0EBFD48F0E8FADE
S31508002CB048F0E7FA22790E49D2E400BF73100608F5
S31508002CC0322A0608822A0608F20F06081D1B06087D
S31508002CD039100608581B0608CC2A06081051002089
S31508002CE0132B06084D2B0608802B0608BC2B060856
S31508002CF0F02B06082DE9F7439DF82C400F46DDE931
S31508002D000D969DF828108DF803409DF830408DF8F3
S31508002D1000208DF801308DF802108DF80440B9F1C5
S31508002D20000F50D0002E4ED0022A4ED0032B4ED084
S31508002D3001284CD0012905D10623A9F800302623FD
S31508002D4033801FE0012A04D1022904BF00238DF82D
S31508002D500230DFF880800024454605226946404651
S31508002D604CF03EFA38BB04EBC4042B195A7999790E
S31508002D70B3F8073042EA0122FF2FA9F800209AB2D9
S31508002D80338003D1002003B0BDE8F083B9F80030E2
S31508002D90B7EE047A07EE903AF8EEE77A67EE877AA6
S31508002DA0FCEEE77A17EE903A9BB203F11301B1FBFA
S31508002DB0F3F31344C4E70134B4F5A27F08F1090814
S31508002DC0CBD12D20DFE72120DDE70A20DBE70F2026
S31508002DD0D9E700BFDD2C06082DE9F0410446194F56
S31508002DE00E46154638686CB9174949F04AFD48F049
S31508002DF047FA48F046FA2A4638681449BDE8F041C9
S31508002E0049F03FBD04F580540F49D4F8D88049F0FD
S31508002E1038FD48F035FA48F034FA2B4694F8C020C5
S31508002E200B49386849F02DFDB8F1000F07D02A463E
S31508002E303146434694F8C000BDE8F0411847BDE85E
S31508002E40F08100BF10510020F20F0608212E060857
S31508002E50512E0608F7B500F5805494F825710546F5
S31508002E60002F40D194F8243100F587560C3623B14B
S31508002E70304604F0B5FE84F82471002330460093EA
S31508002E8040F6B8312B46194A04F0C8FE184F0646D4
S31508002E90B0B11849386849F0F4FC48F0F1F948F03F
S31508002EA0F0F994F8C02033461349386849F0E9FC2C
S31508002EB032460221284603B0BDE8F040FFF78CBF32
S31508002EC00E49386849F0DDFC48F0DAF948F0D9F9D6
S31508002ED040F6B83394F8C0200949386849F0D1FC5F
S31508002EE0012384F8243103B0F0BD00BF01A804080B
S31508002EF010510020F20F06087E2E060873100608E9
S31508002F00B92E0608F8B5054600F587500C3004F0CA
S31508002F1067FE164E044605F58057A8B11449306871
S31508002F2049F0AFFC48F0ACF948F0ABF997F8C02087
S31508002F3023461049306849F0A4FC22462846BDE8D5
S31508002F40F8400421FFF748BF0B49A7F82401306869
S31508002F5049F097FC48F094F948F093F997F8C0209F
S31508002F6030680649BDE8F84049F08BBC105100208E
S31508002F70F20F0608E22E060873100608202F060828
S31508002F8070B504460D460F2900F20681DFE811F0F8
S31508002F901501100024003400440054006400740035
S31508002FA084009400A400B400C400D400E400F40033
S31508002FB0824D8349286849F064FC48F061F948F075
S31508002FC060F9012304F5805494F8C0207D492868E7
S31508002FD0BDE8704049F055BC784D7949286804F534
S31508002FE0805449F04EFC48F04BF948F04AF9022360
S31508002FF094F8C0207449EAE7704D7449286804F5C6
S31508003000805449F03EFC48F03BF948F03AF903236E
S3150800301094F8C0206E49DAE7684D6949286804F5CE
S31508003020805449F02EFC48F02BF948F02AF904237D
S3150800303094F8C0206749CAE7604D6149286804F5D5
S31508003040805449F01EFC48F01BF948F01AF905238C
S3150800305094F8C0206049BAE7584D5949286804F5DC
S31508003060805449F00EFC48F00BF948F00AF906239B
S3150800307094F8C0205949AAE7504D5149286804F5E3
S31508003080805449F0FEFB48F0FBF848F0FAF80723AD
S3150800309094F8C02052499AE7484D4949286804F5EA
S315080030A0805449F0EEFB48F0EBF848F0EAF80823BC
S315080030B094F8C0204B498AE7404D4149286804F5F1
S315080030C0805449F0DEFB48F0DBF848F0DAF80923CB
S315080030D094F8C02044497AE7384D3949286804F5F8
S315080030E0805449F0CEFB48F0CBF848F0CAF80A23DA
S315080030F094F8C0203D496AE7304D3149286804F5FF
S31508003100805449F0BEFB48F0BBF848F0BAF80B23E8
S3150800311094F8C02036495AE7284D2949286804F505
S31508003120805449F0AEFB48F0ABF848F0AAF80C23F7
S3150800313094F8C0202F494AE7204D2149286804F50C
S31508003140805449F09EFB48F09BF848F09AF80D2306
S3150800315094F8C02028493AE7184D1949286804F513
S31508003160805449F08EFB48F08BF848F08AF80E2315
S3150800317094F8C02021492AE7104D1149286804F51A
S31508003180805449F07EFB48F07BF848F07AF80F2324
S3150800319094F8C0201A491AE7084E0949306804F518
S315080031A0805449F06EFB48F06BF848F06AF82B46F5
S315080031B094F8C020134930680AE770BD1051002002
S315080031C0F20F0608412F0608752F0608391006085B
S315080031D0B02F0608EF2F0608443006087D3006088B
S315080031E0BA300608FA3006082C3106087131060886
S315080031F0AA3106081032060869320608B9320608E6
S3150800320015330608533306082DE9F04106461746D6
S3150800321098460D46C9B10B68BBB108463CF0A2FA00
S31508003220044688B1284D2949286849F02AFB48F000
S3150800323027F848F026F8234632462549286849F0F3
S3150800324020FB2046BDE8F0812860284636F0F6FDCA
S31508003250044660B11C4D1D49286849F012FB48F028
S315080032600FF848F00EF8234632461A49E6E7414673
S31508003270284636F02FFF044660B1134D13492868D7
S3150800328049F0FFFA47F0FCFF47F0FBFF23463246BA
S315080032901149D3E77B78002BD3D028463CF09CFA1B
S315080032A005460028CDD0084C0849206849F0E9FAB7
S315080032B047F0E6FF47F0E5FF20682B463246074908
S315080032C049F0DFFA2C46BCE710510020F20F060839
S315080032D084330608BC330608F23306082F3406087A
S315080032E02DE9F74F0F4606461178384699469DF858
S315080032F030809DF834A036F0EFFD554D044688B170
S315080033005449286849F0BDFA47F0BAFF47F0B9FFB3
S31508003310234632465049286849F0B3FA204603B096
S31508003320BDE8F08FB8F1020F38D0B8F1FF0F37D0EB
S31508003330B8F1010F36D04FF0FF08484CBAF1020F2A
S3150800334032D0BAF1FF0F32D0BAF1010F32D04FF0B6
S31508003350FF0ADFF808B14249286849F092FA47F0AF
S315080033608FFF47F08EFFCDF800B0234632463D4921
S31508003370286849F086FA52464146384636F0BCFD7A
S315080033800446D0B13349286849F07BFA47F078FFFC
S3150800339047F077FF234632463349BCE7334CCDE73F
S315080033A0334CCBE7334CC9E7DFF8C0B0D3E7DFF8D7
S315080033B0C0B0D0E7DFF8BCB0CDE74946384636F0AE
S315080033C0BDFD044658B12349286849F05AFA47F022
S315080033D057FF47F056FF2346324627499BE72049C1
S315080033E0286849F04EFA47F04BFF47F04AFF324645
S315080033F02249286849F045FA1949286849F041FAE6
S3150800340047F03EFF47F03DFF32461D49286849F020
S3150800341038FA38463EF0D0FF044658B10D492868B8
S3150800342049F02FFA47F02CFF47F02BFF2346324688
S31508003430144970E70A49286849F023FA47F020FF3B
S3150800344047F01FFF32461049286849F01AFA65E71F
S3150800345010510020F20F0608803406087834060852
S3150800346073100608B8340608E33406086B340608F1
S315080034706F34060867340608293506086A350608CB
S3150800348095350608BE350608FC35060838B50446DF
S3150800349088B10346014400208B421AD0002213F853
S315080034A0014B44FA02F5ED0702F1010248BF01306B
S315080034B0082AF6D1F0E7074D0749286849F0E1F9E7
S315080034C047F0DEFE47F0DDFE0449286849F0D9F9E1
S315080034D0204638BD10510020F20F06082736060888
S315080034E02DE9F04F04464FF0000897B000F58473B5
S315080034F003930893D0F8043100F58057ADF82430CB
S3150800350000F6580304930A93D0F8543812ADADF870
S315080035102C3008AB0E930AAB0F93431C05931093FC
S31508003520037804F586568DF8443097F82831ADF8B7
S3150800353046808DF8453000F6AC730FCB07C52B7067
S315080035401A4D1B49286849F09CF9083647F098FE39
S3150800355047F097FE97F8C0201649286849F091F970
S31508003560012130460EAA3FF0B3FC834601462046A9
S31508003570FFF706FDBBF1000F22D0BBF1030F00F0E9
S315080035801F830D49286849F07CF947F079FE47F012
S3150800359078FE97F8C0205B460849286849F071F913
S315080035A05A463A212046FFF717FC73E210510020CD
S315080035B07310060870360608F20F0608B83C0608A7
S315080035C0002304F6D67840460693079347F0E6FDAF
S315080035D097F85E90D849B9F1FF0918BF4FF001096D
S315080035E0286849F04EF947F04BFE47F04AFE97F82F
S315080035F0C020D249286849F044F959464A46304617
S3150800360007AB36F047FF834601462046FFF7B8FC6E
S31508003610BBF1000F40F0B3815946404604F6DA7311
S3150800362007AA03F017FA8346002800F0B581C449B3
S31508003630286849F026F947F023FE47F022FE5B4644
S3150800364097F8C020BF49286849F01BF9002704F5F8
S31508003650805595F85E30FF2B2CD00021022230468B
S3150800366007AB36F017FF824601462046FFF788FC6F
S31508003670BAF1000F40F092810121404604F6DA7350
S3150800368007AA03F0E7F98246002800F09781DFF8D9
S31508003690C4B2AB49DBF8000049F0F3F847F0F0FD97
S315080036A047F0EFFD534695F8C020A749DBF8000020
S315080036B049F0E7F84A46022106AB304636F0EAFEFC
S315080036C0824601462046FFF75BFC04F58055BAF1B1
S315080036D0000F40F075810221404604F6DA7306AA07
S315080036E003F0B8F98246002800F07A81DFF864B260
S315080036F09349DBF8000049F0C4F847F0C1FD47F0EC
S31508003700C0FD534695F8C0209049DBF8000049F003
S31508003710B8F895F85E30FF2B2CD0022230461146B9
S3150800372006AB36F0B7FE824601462046FFF728FC70
S31508003730BAF1000F40F056810321404604F6DA73C9
S3150800374006AA03F087F98246002800F05B81DFF8B5
S3150800375004B27B49DBF8000049F093F847F090FD86
S3150800376047F08FFD534695F8C0207949DBF80000ED
S3150800377049F087F84A46002106AB304636F022FC67
S31508003780824601462046FFF7FBFB04F5805BBAF14B
S31508003790000F40F039810421404604F6DA7306AA80
S315080037A003F058F98246002800F03C81694D6449C7
S315080037B0286849F066F847F063FD47F062FD53460E
S315080037C09BF8C0206449286849F05BF89BF85E308E
S315080037D0FF2B29D000210222304606AB36F0F2FB39
S315080037E0824601462046FFF7CBFBBAF1000F40F0B0
S315080037F01B810521404604F6DA7306AA03F02AF966
S315080038008246002800F01E81524D4D49286849F02D
S3150800381038F847F035FD47F034FD53469BF8C0208D
S315080038204E49286849F02DF803238DF83030DBF827
S31508003830733030460CA9CDF8313036F0A3FB8246FA
S3150800384078B1444D3E49286849F01BF847F018FD01
S3150800385047F017FD53469BF8C0204149286849F0B0
S3150800386010F84A46012106AB304636F013FE82466A
S3150800387001462046FFF784FB04F58055BAF1000F90
S3150800388040F04B810621404604F6DA7306AA03F097
S31508003890E1F88246002800F0D780DFF8B8B028495A
S315080038A0DBF8000048F0EDFF47F0EAFC47F0E9FCDA
S315080038B0534695F8C0202B49DBF8000048F0E1FF95
S315080038C094F8B92F95F85D30022A4FD1022B4DD1C5
S315080038D095F89830013B012B48D803214A463046D3
S315080038E006AB36F0D7FD824601462046FFF748FB71
S315080038F0BAF1000F40F023810721404604F6DA7337
S3150800390006AA03F0A7F88246002800F0BB80DFF875
S3150800391044B00B49DBF8000048F0B3FF47F0B0FCB1
S3150800392047F0AFFC534695F8C0200F49DBF8000076
S3150800393048F0A7FF1AE000BF731006089836060875
S31508003940F20F0608BD3606083B370608CB370608C9
S315080039505138060810510020E93806087839060853
S31508003960193A0608623A06082A3B060895F85D30B1
S31508003970012B00F09380002F00F08C8086E0B2497E
S31508003980286848F07EFF47F07BFC47F07AFC5B46E8
S3150800399097F8C020AD4956E6012758E6DFF8BCB2CD
S315080039A0A949DBF8000048F06CFF47F069FC47F0CE
S315080039B068FC534695F8C020A54977E6012779E6BD
S315080039C0DFF898B2A049DBF8000048F05AFF47F044
S315080039D057FC47F056FC534695F8C0209D4994E697
S315080039E0012796E6DFF874B29749DBF8000048F03D
S315080039F048FF47F045FC47F044FC534695F8C0207D
S31508003A009549B3E60127B5E6944D8F49286848F0ED
S31508003A1038FF47F035FC47F034FC53469BF8C02086
S31508003A208F49D0E60127D1E68C4D8749286848F0AA
S31508003A3028FF47F025FC47F024FC53469BF8C02096
S31508003A408849EEE60127EFE6079B8DF830000CA9BA
S31508003A503046CDF8313036F095FA82460146204692
S31508003A60FFF78EFABAF1000F41D194F8B92F95F8FD
S31508003A705D30022A08D1022B06D195F89830013B11
S31508003A80012B5AD995F85D30012B06D0D5F8D060B0
S31508003A90002E72D117B0BDE8F08F01274A460121E2
S31508003AA0304606AB36F08EFA814601462046FFF7C9
S31508003AB067FAB9F1000F52D10921404604F6DA73C4
S31508003AC006AA02F0C7FF81460028DFD0634E5E498A
S31508003AD0306848F0D6FE47F0D3FB47F0D2FB4B469A
S31508003AE095F8C0206049306848F0CBFE43E75B4F45
S31508003AF05549386848F0C5FE47F0C2FB47F0C1FB98
S31508003B0053469BF8C0205949386848F0BAFE94F8DD
S31508003B10B93F022B9BF85D30ACE7DFF840B14A4964
S31508003B20DBF8000048F0ADFE47F0AAFB47F0A9FB1A
S31508003B30534695F8C0204E49BEE60127CDE6DFF884
S31508003B401CB14149DBF8000048F09BFE47F098FBA2
S31508003B5047F097FB534695F8C0204649E6E63F4EA0
S31508003B603949306848F08DFE47F08AFB47F089FBF3
S31508003B704B4695F8C0204049B5E7237804F6DA7233
S31508003B8085F82C31631CC5F83031D4F80431C5F8F2
S31508003B903431039BC5F83831D4F85438C5F83C316C
S31508003BA0049BC5F840310023019304F589530C336F
S31508003BB00093B4F8A41F434695F8C000B04769E7D8
S31508003BC097F8C030414630460DAACDE90C888DF8E5
S31508003BD0303036F05BFA064601462046FFF7D0F944
S31508003BE016BB2649286848F04CFE47F049FB47F0C3
S31508003BF048FB97F8C0202249286848F042FED7F8C3
S31508003C00D43013B131460CA898471C49286848F0A7
S31508003C1038FE47F035FB47F034FB97F8C0201949C2
S31508003C20286848F02EFE35E70749286848F029FE37
S31508003C3047F026FB47F025FB334697F8C020124984
S31508003C40286848F01EFEE0E7F20F0608FC3606086C
S31508003C50833706080E3806089D38060810510020D6
S31508003C6033390608CB390608A33B0608A63A0608E0
S31508003C70EB3A0608693B0608DD3B060839100608D4
S31508003C80123C0608893C06083F3C0608002370B526
S31508003C9000F580560370C0F8A83FC0F8043186F8CE
S31508003CA028314FF6FF730446A0F8A43F71B90C4DAE
S31508003CB00C49286848F0E5FD47F0E2FA47F0E1FAD2
S31508003CC096F8C0200849286848F0DBFD04F584709A
S31508003CD040F24A72BDE87040FF214BF0ABBA00BF14
S31508003CE01051002073100608F53C06082DE9F04F20
S31508003CF004468946894E8A4985B0306804F5805756
S31508003D0048F0BFFD47F0BCFA47F0BBFA97F8C02069
S31508003D108449306848F0B5FD99F80730D9F800505D
S31508003D20002B7CD02B891335C3F30B03A4F8A43FCF
S31508003D3015F8033C87F8283115F806AC15F8058CF4
S31508003D4015F802BC7649306848F09BFD47F098FAAA
S31508003D5047F097FACDE900A87349B4F8A43F97F855
S31508003D60C020306848F08DFD04F58473029399F8F5
S31508003D7007307BB1D4F8A82F12B90422C4F804215D
S31508003D80D4F8042102F5847121440832C4F8A81F26
S31508003D90C4F8042183F001030093D9F800204FF0FA
S31508003DA0000997F829310299D4F8A80F46F042FF7E
S31508003DB0D4F8042102F5847222445FFA89F39B45FC
S31508003DC038D8029BB8F1010FA2EB030230685449B8
S31508003DD0C4F8042154D0B8F10F0F5ED0B8F1000F23
S31508003DE065D148F04EFD47F04BFA47F04AFAD4F849
S31508003DF0A83F2278DB79009297F8C0204B493068B3
S31508003E0048F03FFDBAF1010F306800F08580BAF13D
S31508003E100F0F56D0BAF1000F71D102245FE06B7A0A
S31508003E200C3587F8283115F806AC15F8058C15F801
S31508003E3002BC87E7294611F8030BB8F10F0F00F00B
S31508003E40030002F1010317D01070AA7818460391EF
S31508003E504BF0FBF90346AA78039913442278A8780D
S31508003E606D7804EB020C01328CF8015009F1010956
S31508003E7022700D181A46A0E760F07F001070EDE773
S31508003E8048F0FFFC47F0FCF947F0FBF997F8C0202B
S31508003E902749306848F0F5FCB4E748F0F2FC47F0EB
S31508003EA0EFF947F0EEF997F8C0202249F1E748F014
S31508003EB0E8FC47F0E5F947F0E4F997F8C0201E4911
S31508003EC0E7E7174948F0DDFC47F0DAF947F0D9F992
S31508003ED097F8C0201949306848F0D3FC01241849DE
S31508003EE0306848F0CEFC47F0CBF947F0CAF91549D7
S31508003EF0306848F0C6FC204605B0BDE8F08F124988
S31508003F0048F0BFFC47F0BCF947F0BBF997F8C0206A
S31508003F100E49306848F0B5FC0024E0E7105100204F
S31508003F2073100608253D0608503D0608B83D0608E4
S31508003F30F73D06081B3E06083E3E06086D3E060887
S31508003F4039100608C13E0608F20F0608913E060813
S31508003F502DE9F04F002585B046180DF10C0892465C
S31508003F60314642469B46039546F0A9FEDFF8749013
S31508003F7010B1002001302BE0039B18491C79D9F8B1
S31508003F80000004F00F0704F0F0040F2F18BFF02C00
S31508003F900CBF0124002448F074FC47F071F947F07F
S31508003FA070F9B7FA87F300940D49D9F800005B0950
S31508003FB0EAB248F066FC54B9013567B15B46524629
S31508003FC031460398CDF8008046F088FED0E70120F8
S31508003FD005B0BDE8F08F0120CCE700BF73100608D6
S31508003FE0D33E06081051002073B504465CF0E7FC82
S31508003FF005465BF0D5FF0C4E04F580540B49C4F812
S31508004000E000306848F03DFC47F03AF947F039F9E6
S315080040100095D4F8E03094F8C0200549306848F097
S3150800402030FC02B070BD00BF1051002039100608E0
S315080040300E3F060838B500F580540546002194F869
S315080040406E2094F8C00028F0CDFF80B9154D1649AA
S31508004050286848F016FC47F013F947F012F994F867
S31508004060C0201249286848F00CFC042038BD2528D1
S3150800407015D105F587500B4D0C3003F0B1FD0A49F3
S31508004080286848F0FEFB47F0FBF847F0FAF894F882
S31508004090C0200749286848F0F4FB0220E6E7092013
S315080040A0E4E700BF10510020391006084B3F060808
S315080040B0913F0608F8B500F58054054694F86E1049
S315080040C094F8C00028F042FFD4F8C8302C4EBBB193
S315080040D005F5865008303BF045FB074680B129496F
S315080040E0306848F0CEFB47F0CBF847F0CAF83B46B5
S315080040F094F8C0202449306848F0C3FB0120F8BD75
S315080041002249306848F0BDFB47F0BAF847F0B9F8DD
S3150800411094F8C0201E49306848F0B3FB41F24412B7
S31508004120002128464BF086F81A49306848F0A9FB62
S3150800413047F0A6F847F0A5F894F8C0201649306865
S3150800414048F09FFBFF2384F8C0304FF0FF33C4F8D4
S31508004150A8301723A4F8BA30B4F8A43040F24A724B
S3150800416003F0F00343F48673A4F8A430002405F69C
S3150800417058002146C5F854484BF05CF82046BEE77F
S3150800418010510020F20F0608C73F060873100608EC
S315080041900140060839100608254006082DE9F043AF
S315080041A00F46904606468FB0B8B9BF4CBF4920683F
S315080041B048F067FB47F064F847F063F8FF22BC490C
S315080041C0206848F05EFB222235213046FEF704FEC1
S315080041D0222528460FB0BDE8F0830A2900F5805449
S315080041E021D1B14D00F587500C3003F0F9FCAF49E9
S315080041F0286848F046FB47F043F847F042F894F839
S31508004200C020AC49286848F03CFB092384F82631CD
S315080042103046D8F8042098F80010FEF7DDFD002592
S31508004220C7E017469846092F4FF0010540F0C180B0
S31508004230002194F86E2094F8C00028F0D3FE0546B5
S3150800424090B9994D9C49286848F01BFB47F018F827
S3150800425047F017F8286894F8C020984948F011FBE9
S31508004260082584F826514AE241F20C03984205D003
S3150800427041F21203984201D025281BD106F5875032
S315080042800C3003F0ADFC3046FFF714FF0546002856
S3150800429040F01C83844E8849306848F0F2FA46F0AC
S315080042A0EFFF46F0EEFF94F8C0208549306848F0E5
S315080042B0E8FAD6E7DFF8F0817C49D8F8000048F03C
S315080042C0E0FA46F0DDFF46F0DCFF2B4694F8C02006
S315080042D07C49D8F8000048F0D4FA232384F82671DC
S315080042E08DF82C300C9586E0002F7FF472AF6E4D5A
S315080042F07149286848F0C5FA46F0C2FF46F0C1FF82
S3150800430094F8C0207049286848F0BBFA012384F85D
S315080043102631F4E1012F7FF45CAF98F80030002BCA
S3150800432062D0614F6449386848F0ABFA46F0A8FF96
S3150800433046F0A7FF94F8C0206449386848F0A1FA07
S31508004340022294F8A530A4F82621002B3FF469AF81
S3150800435040F24A7194F8C00006F6580246F07EFA12
S315080043600546A0B15149386848F08BFA46F088FFEF
S3150800437046F087FF94F8C02055492B46386848F020
S3150800438080FA2A460F213046FEF726FD21E74A49DC
S31508004390386848F076FA46F073FF46F072FF94F8EC
S315080043A0C0204C49386848F06CFA4FF000080227DC
S315080043B0012594F82631082B3FF60BAF01A252F8D7
S315080043C023F000BFE942000815430008FD43000832
S315080043D0E944000869480008BB460008494800083F
S315080043E05F480008AF480008092384F826313623B9
S315080043F00C978DF82C300A210BAAF4E1022F7FF4D2
S31508004400E8AE294F3449386848F03BFA46F038FF99
S3150800441046F037FF94F8C0203049386848F031FA3A
S3150800442094F8C53043B9092384F826312C238DF82E
S315080044302C3001230C93DEE7012194F86E2094F8C2
S31508004440C00028F0CFFD38BB009006F587503346EC
S3150800445040F6B831224A0C3003F0E0FB0546B0B905
S31508004460012194F8C00000F0B3FB1349386848F0FE
S3150800447008FA46F005FF46F004FF94F8C0201949EB
S31508004480386848F0FEF9032384F82631A1E60923A3
S3150800449084F82631212323E7092384F826312023AB
S315080044A00C908DF82C30A6E710510020F20F060864
S315080044B0484006088040060839100608AC40060839
S315080044C0DB4006080F4106084A410608913F0608E0
S315080044D08A1E06087541060873100608AE410608C6
S315080044E025A80408E1410608042F7FF472AED8F81F
S315080044F00030C54F5D88002D60D15CF060FA8146BA
S315080045005BF04EFDD8F80030C4F8DC00D3F807207D
S31508004510BE49C6F8AC2FDA7A386886F8B02F9A8979
S31508004520A6F8B12FDA89A6F8B32F1A8AA6F8B52FF6
S315080045305B8AA6F8B73F48F0A4F946F0A1FE46F014
S31508004540A0FE94F8C020B249386848F09AF9AF49F5
S31508004550386848F096F946F093FE46F092FEB6F8AB
S31508004560B73FAC490693B6F8B53F0593B6F8B33FDF
S31508004570049396F8B03F0393B6F8B13F0293D6F882
S31508004580AC3FCDE90093D4F8DC3094F8C020386805
S3150800459048F077F99D49386848F073F946F070FE97
S315080045A046F06FFE9C4994F8C020386848F069F9CF
S315080045B029463046FFF76AFB052365E797493868B9
S315080045C048F05FF946F05CFE46F05BFED8F800302E
S315080045D094F8C0205B889249386848F052F994F8F4
S315080045E027310133DBB2022B84F827315BD88B499C
S315080045F0386848F046F946F043FE46F042FE94F81D
S31508004600C0208849386848F03CF994F896300993F0
S3150800461094F89530089394F86F30079394F97130AD
S31508004620069394F85B30059394F868300493D4F8AD
S315080046307B300393D4F877300293B4F8893001932A
S31508004640B4F885300093B4F88330B4F8872094F82A
S315080046506E1094F8C00028F08DFC054688B16F49A5
S31508004660386848F00EF946F00BFE46F00AFE94F854
S31508004670C0206D492B46386848F003F92A461E21A2
S3150800468081E66249386848F0FCF846F0F9FD46F0DC
S31508004690F8FD94F8C0206549386848F0F2F8022316
S315080046A084F8263181E606F587500C3003F098FA2F
S315080046B0092384F826311F23B9E6082F63D198F811
S315080046C00B50F5B9B4F8893043B13046FFF7B2FC60
S315080046D0092884F8260112D1242301E64A4D4B49BC
S315080046E0286848F0CEF846F0CBFD46F0CAFDB8F883
S315080046F0083094F8C0204E49286848F0C2F80025CA
S3150800470067E598F80A30012B2AD13F4DB4F889702D
S3150800471028683E4987B148F0B4F846F0B1FD46F03E
S31508004720B0FD94F8C0204349286848F0AAF8072342
S3150800473084F8263101254CE548F0A3F846F0A0FD9B
S3150800474046F09FFD94F8C0203B49286848F099F840
S3150800475005233946304684F82631FFF797FACEE71F
S31508004760022BE7D1284D2949286848F08AF846F0EF
S3150800477087FD46F086FD94F8C0203049286848F041
S3150800478080F80623C3E5063F012F3FF622AD4146D2
S315080047903046FFF7ABFA054600283FF40DAF1A4F2F
S315080047A0012D3868194923D148F06BF846F068FDA1
S315080047B046F067FDB6F8A43F94F8C020204938684B
S315080047C048F05FF8012308218DF83730B6F8A43F82
S315080047D08DF83650ADF8343006F584730B93D6F859
S315080047E004310BAA0C933046FFF7D8FC0546F0E4D3
S315080047F048F047F846F044FD46F043FDB6F8A43FB6
S3150800480094F8C0200F49DAE710510020391006083D
S3150800481026420608644206084D2B0608F20F0608CB
S315080048202443060873430608CC2A0608913F06085F
S31508004830BA4306080D440608544406089744060871
S31508004840DF44060813450608082F7FF4C2AC012288
S31508004850414630460FB0BDE8F04300F063B8082F74
S315080048607FF4B7AC0022F3E7042F7FF4B2ACD8F894
S3150800487000301B79002B7FF442AF3046FFF7B4FBBC
S31508004880D8F80030224D5B8833BB06F587500C30CC
S3150800489003F0A6F91F49286847F0F3FF46F0F0FC35
S315080048A046F0EFFC94F8C0201B492868F5E6042F6B
S315080048B07FF48FACD8F800301A79002A7FF41FAF3E
S315080048C05B8843B93046FFF78FFBDCE4092384F89D
S315080048D02631382304E50E4D1049286847F0D1FFE4
S315080048E046F0CEFC46F0CDFCD8F8003094F8C0204F
S315080048F05B880B49286847F0C4FF092384F82631EA
S3150800490023238DF82C30D8F800305B8892E500BF59
S315080049101051002039100608913F0608F20F0608C4
S31508004920484506082DE9F043CE7A04460F469146D7
S3150800493087B000F5805566B3B5F88930A3B1FFF79F
S3150800494079FB092885F8260121D124238DF80C3016
S31508004950002304930A21204603AAFFF71FFC0646F4
S31508004960304607B0BDE8F0835B4E5C49306847F0D7
S3150800497088FF46F085FC46F084FCB4F8A43F584905
S3150800498000933B8995F8C020306847F07AFF0026E7
S31508004990E6E70A89B0F8A43F9A421ED0B5F88930EE
S315080049A053B1FFF747FB092885F82601EFD12423E1
S315080049B004968DF80C30CDE7474E4849306847F0E5
S315080049C060FF46F05DFC46F05CFCB4F8A43F454940
S315080049D000933B8995F8C020D6E700F587500C3040
S315080049E003F0FEF858B1092385F8263122230490EE
S315080049F00A21204603AA8DF80C30FFF7CFFBDFF813
S31508004A00D880B5F88930D8F800003449A3B347F000
S31508004A1038FF46F035FC46F034FC95F8C02032499C
S31508004A20D8F8000047F02DFF02210022204685F81D
S31508004A302611FFF7B3FBBB7A0646022B0AD1B9F15A
S31508004A40000F07D02046FEF74BFD00212046FFF752
S31508004A501DF985E72149D8F8000047F012FF46F00E
S31508004A600FFC46F00EFC3B8995F8C0201F49D8F884
S31508004A70000047F006FFE8E747F003FF46F000FCB2
S31508004A8046F0FFFB95F8C0201949D8F8000047F012
S31508004A90F8FE052385F82631BB7A022B0AD1B9F12F
S31508004AA0000F07D02046FEF71BFD00212046FFF722
S31508004AB0EDF86CE70949D8F8000047F0E2FE46F041
S31508004AC0DFFB46F0DEFB3B8995F8C0200749D8F89E
S31508004AD0000047F0D6FEE8E7105100203910060816
S31508004AE096450608EB450608913F06083F46060820
S31508004AF04D2B060808B5084B4FF48462002118466A
S31508004B004AF098FBFF22827680F8222180F82A2232
S31508004B1080F8322308BD00BFA80D002009490022ED
S31508004B200B4610B58C7E844204D14FF4847101FB88
S31508004B30023010BD0132042A01F58471F2D1002039
S31508004B40F7E700BFA80D0020FF282DE9F04107462A
S31508004B500E46904632D099B3A2F11703E32B31D80B
S31508004B604FF6FF730C889C422CD08A889A4229D02B
S31508004B70CA889A4226D00A899A4223D0FF20FFF78C
S31508004B80CDFF054600B3214638461DF091FB044685
S31508004B9088B94FF48472014628464AF04BFB0B4B02
S31508004BA0AF761A689B88C5F806206B8101236E616B
S31508004BB0A5F818802B702046BDE8F0812524FAE771
S31508004BC02224F8E72124F6E71924F4E76D460608B7
S31508004BD0FF2837B50C4625D0FFF7A0FF054618B3C2
S31508004BE04CB9983002F0FCFF05F1600002F0F8FFBE
S31508004BF0204603B030BD0378052B03D0082B0AD016
S31508004C000220F6E7002341F28831084A00939830DB
S31508004C1003F004F8EDE7002341F28831044A0093D3
S31508004C206030F5E72520E4E72D20E2E715AB040818
S31508004C30CFAA0408164B30B59842A3F1600206D0F5
S31508004C4003F13801884202D07033984218D1002403
S31508004C5011E02B4603F5B475A8420C460BD003F5B4
S31508004C60D075A84207D003F5847503F5EC7398420E
S31508004C7001F1010107D14FF4847303FB042030BD11
S31508004C8013460121E6E70429E3D10020F7E700BF30
S31508004C90080E002013B590F82A00FFF73FFF68B109
S31508004CA000F16004204602F09BFF00234FF47A715E
S31508004CB0009320460123024A02F0B0FF02B010BD5D
S31508004CC0CFAA040870B5054600F07CFB06462846C0
S31508004CD000F064F92B68A94A23F47F43064023F0C1
S31508004CE0070386F001069342F6B200F0B2800BD8AD
S31508004CF002F17A42934200F0A08002F57D029342C7
S31508004D0020D086F0010070BD9D4A9342F9D12879DA
S31508004D10FFF704FF04460028F3D0EB790B2B3DD1AF
S31508004D204269B5F805301188994221D16B89042B5F
S31508004D3006D10378012B03D1EA6880F82030C261D6
S31508004D40012321E0A879FFF7E9FE04460028D8D018
S31508004D50D03002F045FF04F1600002F041FF04F193
S31508004D60980002F03DFF00232370FF23A376C8E7CF
S31508004D70D18899420AD1AD89983002F031FF294687
S31508004D80A07E45F0A2FE00231E43BAE712899A4286
S31508004D90F9D1A989807E45F099FEF4E71B2B01D04D
S31508004DA01D2BAED16169B5F8052048899042C7D058
S31508004DB048889042C4D0C888904202D00989914256
S31508004DC0E1D11D2B02D1A07E1DF062FA6B89022B60
S31508004DD0B6D16269B5F80530D1888B4208D01289F8
S31508004DE09A420ED0AD892946A07E45F06FFEA7E708
S31508004DF0E8791D2817D1E07B0228A1D112899A42A9
S31508004E0005D1EA791D2A13D1227C022A98D18B4230
S31508004E10AD89E8D104F1980002F0E2FE2946A07EA9
S31508004E2045F053FE8CE71B28E8D1E07B0128E4E730
S31508004E301B2AECD1227C012AE8E72879FFF76EFEC7
S31508004E4000283FF45EAF6B79AA7943EA022303830D
S31508004E5057E72879FFF762FE044600283FF451AF6A
S31508004E60B5F80520037862B3092B8CD8012101FA1D
S31508004E7003F010F4127F0AD110F090001BD18B4278
S31508004E8081D12070E169A07EFCF75AFE58E700231D
S31508004E9084F82230A384A378052B05D10221237038
S31508004EA0A07EFCF71FFF4BE7012B7FF449AF0823D1
S31508004EB003212370F4E70223A07E2370FCF712FF78
S31508004EC061E7013B082B3FF65EAF01A252F823F0DB
S31508004ED0F54E0008874D0008234F00085B4F000871
S31508004EE0874D0008414F00088B4F0008874D000882
S31508004EF0114F000894F82030807EE1692BB1022317
S31508004F0000222370FCF71CFE3DE701222370F9E717
S31508004F108378827C03441A730223002203700121DA
S31508004F20BEE78378827C03441A7340F202534380B7
S31508004F30204645F089FC024620BB04232370FFE681
S31508004F408378827C03441A7340F20113438045F048
S31508004F507BFC0246B0B90723F0E78378817CC21848
S31508004F601173C2789A4205D10022052380F82220BF
S31508004F70828493E701338370DAE700BFA00009064D
S31508004F80A000090702232370C9E78378827C0344BB
S31508004F901A73002280F82220828488E7F0B5036815
S31508004FA0954A23F47F4323F007039342054691B0BD
S31508004FB004D0002080F0010011B0F0BD0079FFF7A1
S31508004FC0ADFD04460028F4D0EB791D2BF1D14369D9
S31508004FD0B5F805209B889A42EBD16B89012B04D83A
S31508004FE0A07E1DF055F90120E4E72A7B012A4CD062
S31508004FF0022A00F08F80002AF2D1032BF0D1037821
S31508005000B5F80D50052BEBD190F82230002BE7D0E0
S3150800501090F82170002FE3D1838CAB42E0D1D030D9
S3150800502002F0DEFD04F1280604F1600002F0D8FD66
S31508005030304600F0A5F9304684F822700AA945F0F2
S31508005040D3FD034600B90A9BDDF83920DDF8351093
S31508005050A07ECDE908129DF8342007929DF83320EA
S315080050600692DDF82F2005929DF82E2004929DF8D1
S315080050702D2003929DF82C20CDE9015201220092A1
S3150800508000220021FCF7F8FEAAE7052BA8D1037831
S31508005090052BA5D190F82230002BA1D090F821300D
S315080050A0022B9DD1B5F80D20838C9A4298D1D03029
S315080050B002F096FD04F1280604F1600002F090FD66
S315080050C0304600F05DF90023304684F822300AA9FC
S315080050D045F08AFD034600B90A9BDDF83920DDF85C
S315080050E03510A07ECDE908129DF8342007929DF868
S315080050F033200692DDF82F2005929DF82E20049283
S315080051002A7C0392EA7B0292B5F80D2001920122CD
S315080051100092B6E7022B7FF463AF90F822306D7BDE
S31508005120002B3FF45DAFD03002F05AFD94F82330DF
S31508005130BBB1012D06D104F1600002F051FD002338
S3150800514084F822300026A07E32462B46032184F8B6
S31508005150236045F03DFD2A463146A07E45F03AFDDE
S315080051603EE7002394F8211084F82230012901D063
S31508005170042904D12B460022A07E45F029FD94F887
S315080051802130012B31D013F0FD0F7FF429AF04F144
S315080051902806304600F0F4F830460AA945F024FD02
S315080051A0034600B90A9BDDF83910DDF8356094F836
S315080051B02120A07ECDE908619DF8341007919DF85D
S315080051C033100691DDF82F1005919DF82E100491E5
S315080051D09DF82D1003919DF82C100291A18CCDE914
S315080051E00051911E4A424A414BE72A460021A07EB9
S315080051F045F0EFFCF4E600BFA000090738B5002427
S3150800520005465BF0B3FA074B1B681BB95BF0A9FAB6
S31508005210204638BD93F82A20AA4208BF1C461B68B8
S31508005220F3E700BF2C2600202DE9704304461646F6
S315080052300D46037B86B023F0180343F01003816103
S31508005240037301460D4846F00FF8D4E90489217B1B
S31508005250CDE90489227981F00403C1F34001019163
S315080052600292226B2946009220463246C3F38003F7
S3150800527045F07EFC06B0BDE8708300BF2C260020F2
S315080052802DE9F0410C4690461E46054686B0002894
S315080052906FD000296DD04B68002B6AD0002A68D0E1
S315080052A08B7BFF2B67D00A7C4FF6FF73002A52D000
S315080052B0B8F802209A425ED02368002B57D0A389FB
S315080052C0173B9BB2E32B52D85BF050FA07462B4BA1
S315080052D01B68002B42D1A07BFFF790FF00283FD127
S315080052E001AB04F1100C1A4620686168083403C241
S315080052F064451346F7D120680021106038222846F5
S3150800530049F098FF01AC05F11C030DF1140C224677
S3150800531003CA624518605960144603F10803F6D1BA
S31508005320106818609DF8303085F82460EB842B7B74
S31508005330C5F8348043F008032B73AE800EB1731E94
S315080053409EB229460D48EE8045F087FF38465BF049
S3150800535008FA002008E0B8F80A20ABE79D42B7D162
S3150800536038465BF0FEF92E2006B0BDE8F081212014
S31508005370FAE72220F8E72520F6E700BF2C260020CA
S3150800538070B50546C8B15BF0F1F906460C4B1B68CB
S315080053902BB92D2430465BF0E4F9204670BD9D42BA
S315080053A0F5D12C7B14F0100405D1062201212846DC
S315080053B0FFF73AFFEEE70224ECE72224EDE700BF09
S315080053C02C2600200368764A23F47F4323F007033C
S315080053D093422DE9F04705461BD002F1C06202F55B
S315080053E0403293421BD002F1794293420CD10079A4
S315080053F0FFF704FF40B1B5F80520038D9A4203D0A4
S3150800540013220221FFF710FF002080F00100BDE8FB
S31508005410F0878079FFF7F2FE0028F1D1F4E7C37927
S315080054201D2B01D01B2BEFD12879FFF7E7FE044689
S315080054300028E9D090F82B20EB79F2B91D2BE3D0A0
S3150800544094F82C00B5F80520616BC0B149889142E3
S31508005450DAD11D2B02D128791CF01AFF6A89D2B23B
S31508005460012A03D9208DC31E93420AD22B22022178
S315080054702046FFF7D9FE0120C7E71B2BDFE749893E
S31508005480E5E7297B94F824C0CF074FEA910301F09A
S3150800549002061BD5A380237B43F001032373A3884D
S315080054A026B1217B238141F0020121739C4564D8F2
S315080054B0E18CFF2901D099425FD304385843E1694A
S315080054C0013A83188B4251D91D22D0E7277BF90769
S315080054D01BD4E6464FF0010947F001072773A3805E
S315080054E05FFA8EF1994203D361890B446381D6E74B
S315080054F009FA0EF8D4E9047147EA080741EAE8719F
