S02B0000433A2F55736572732F6D706D656E2F53696D706C696369747953747564696F2F424C452D7468657319
S214000000C00A0020F10700000305020003050200F5
S214000010991702000305020003050200030502000B
S21400002003050200030502000305020003050200A3
S2140000300305020003050200ED04020003050200AA
S2140000400305020003050200030502000305020083
S2140000500305020003050200030502000305020073
S2140000600305020003050200030502000305020063
S214000070FD4100000305020003050200030502001F
S2140000800305020003050200030502000305020043
S2140000900305020003050200030502000305020033
S2140000A003050200890A0000690A00000305020031
S2140000B003050200D1E801000305020075F1010006
S2140000C077D5020073D5020019E901008DD502002C
S2140000D07BD5020045F101007FD50200B5F1010095
S2140000E069D001002DD2010021F2010003050200B3
S2140000F003050200030502000305020003050200D3
S21400010003050200030502000305020003050200C2
S21400011003050200030502000305020003050200B2
S21400012003050200030502000305020003050200A2
S2140001300305020003050200030502000305020092
S21400014082B0BFF34F8FBFF36F8F30BF074BD3F82C
S214000150F030DB0704D500230193019B052B01DD5E
S21400016002B07047019B0133F6E700BF00ED00E0E8
S214000170F0B5114A114C124E00F00105E3695F0715
S21400018013D40DB9334213D103EA00078F4207D1C7
S2140001900B4A1A40002A0CBF00206FF00100F0BD89
S2140001A0013AEBD16FF00200F9E74FF0FF30F6E7C7
S2140001B06FF00100F3E700BF809698000000035040
S2140001C0020001000B4B70B5D96911F480310DD1D6
S2140001D001244FF48072084E084DF46020462C64CB
S2140001E01A61FFF7C5FF3464EC6070BD6FF0010064
S2140001F0FBE700BF00000350001003500020035030
S2140002004FF4003238B50F4B0F4C9A6641F67133F7
S2140002100122E569E3630D4B0021DA600223606189
S2140002202120236105F48035FFF7A2FF10B92120B5
S214000230FFF79EFF0122064BDA600DB10023E36351
S21400024038BD00BF0090005000000350001003505F
S2140002500020035070B5134C6061E3695B071ED441
S2140002600E4656F8043B8D18A361AE420BD104230C
S214000270002121202361FFF77BFF58B9BDE87040BD
S2140002802120FFF775BF08210846FFF771FF10B160
S2140002900423236170BD56F8043BA361E5E74FF0E5
S2140002A0FF30F7E7000003502DE9F84315464FF4FA
S2140002B00032184B89469A6641F6713203F51C33B4
S2140002C0DF69DA630122064603F58053DFF84C80C7
S2140002D007F48037DA6055B9284601220E4BDA60FB
S2140002E01FB10022A3F50053DA63BDE8F88306F5D4
S2140002F0005404EA0804A41BAC4228BF2C46494616
S21400030022463046FFF7A6FF0028E6D12644A14441
S2140003102D1BE0E7009000500020035000E0FFFF98
S2140003200348044B834202D0034B03B1184770477F
S214000330603C0020603C002000000000064B07499F
S214000340C91A891048BF0131491003D0044B0BB1BC
S21400035001481847704700BF603C0020603C002002
S2140003600000000010B5064C237843B9FFF7D8FF0D
S214000370044B13B10448AFF300800123237010BD73
S2140003802C2A002000000000D84D030008B5054BBD
S2140003901BB105490548AFF30080BDE80840FFF7EC
S2140003A0CDBF00BF00000000B00D0020D84D0300F8
S2140003B0A3F5803A704700BF174B002B08BF134BBE
S2140003C09D46FFF7F5FF00218B460F461348144A5B
S2140003D0121A23F07DF80E4B002B00D098470D4BD9
S2140003E0002B00D098470020002104000D000D4887
S2140003F0002802D00C48AFF3008009F0A3FC2000D0
S214000400290022F0EAFD09F08BFC00BF000008007E
S2140004100000000000000000C00A0020C00A002003
S214000420402C0020000000000000000037B5054604
S2140004300DF0EAFA00283FD1224B2877AB61AB6873
S21400044043F48013AB6021F00AFAAB68A8801B0364
S2140004500CD4B0F5FA7F09D92EF0E1FA0121044652
S21400046008462DF04DFB20462EF0D4FA28460DF017
S214000470F3FA044608BBE86810B30FF0D9FC25F081
S214000480E0FB24F0F8F826F053FC25F089F824F079
S21400049079FB044688B902460321042025F0C2FBF6
S2140004A001A88DF804400DF0C9FC042003210FF0CC
S2140004B0DDF9284620F010F80024204603B030BDB1
S2140004C00148DAE7050403004030002008B5044977
S2140004D0044818F07BFBBDE8084018F0A9BB00BF35
S2140004E010EE0200C4EE02004FF08052014B5A603C
S2140004F0704700BF00ED00E0F8B50E460546D0B1E7
S214000500C9B10E4B0E4F1968386801F081FA0446DF
S21400051078B9062332460B49386801F047FB044693
S21400052038B901232A460849386801F03FFB00B174
S2140005302C702046F8BD2124FBE700BF302E00209B
S214000540502E00202C0004003C0004000368184ACB
S21400055023F47F4323F00703934213B526D1B0F864
S21400056005301B2B22D142890479012A1BD1037B3B
S214000570DB0714D5002311468DF80430204601AB66
S21400058018F0A4FB41F2FC13002818BF1846C2B2AC
S2140005901B21204602B0BDE8104013F0CDB820461F
S2140005A018F0AAFBEEE741F20D10F0E702B010BD1E
S2140005B0A0000A08036837B523F47F43374A23F0C0
S2140005C00703934207D002F1006202F5102293421D
S2140005D006D003B030BD03B0BDE8304000F0AEB882
S2140005E0B0F805404289A4F11D030579D2B2082B64
S2140005F0EFD801A151F823F01D060000D305000036
S2140006002F060000D30500006D060000D30500008D
S2140006103F060000D305000087060000012A39D1F6
S214000620037B9A1E122A24D81D4A13701BE0012A47
S21400063030D1037B5A1E0E2A1BD81A4AF5E7531EE2
S214000640012B27D8002300F10C010DF10600ADF8B0
S214000650063022F045FF144ABDF8063012889A424A
S21400066007D8124A138000F025F820B141F2FC109A
S21400067001E041F2FF10C2B22146284603B0BDE8B1
S214000680304013F059B8012A04D1037B012BF0D86F
S214000690074ACAE741F20D10EDE700BFA0000100CF
S2140006A02F2A00202E2A002058EF0200E0290020E2
S2140006B02D2A00201FB51B4B1B4C1B78207853B9E6
S2140006C01A4B1A88002300931146207817F048FF2B
S2140006D030B104B010BD17F073FF0028F0D0F8E773
S2140006E0134B01211B782078012B14BF0122022214
S2140006F017F0A0FF0028ECD101460222207817F060
S214000700C1FF0028E5D103AB0193012309490093FB
S214000710094B02468DF80C001B780978207818F0F3
S214000720FBFAD6E7302A002051300020E0290020CE
S2140007302D2A00202F2A00202E2A002073B51421EF
S214000740154B01251A889B78ADF80420134A8DF8BE
S2140007500630117020210023114A124E1570124ADD
S214000760124C1180124A30462370137017F0DEFECA
S21400077008B100BEFDE70321307801AA17F06EFF2E
S21400078008B100BEFDE7FFF795FF08B100BEFDE724
S214000790257002B070BD00BF54EF02002F2A002063
S2140007A02E2A002051300020E0290020302A002088
S2140007B02D2A002008B503482EF053F9BDE808405E
S2140007C022F0CDBBC0EF020001482EF04AB900BFB0
S2140007D0C0EF02000348044A0449121A92101FF0A0
S2140007E091BE00BF4001000020030000402C002006
S2140007F008B5154B83F30A8800F030F8FFF7EAFFD8
S214000800124B13498B4212D30020124B12498B42D3
S21400081018D3FFF7D1FD186850F82240586840F802
S2140008202240013298688242F5D30C33EAE7002270
S214000830F8E71C6844F8220001325C68A242F8D34C
S2140008400833E4E70022F8E700000020E04D03004C
S214000850EC4D0300EC4D0300EC4D03004FF400415B
S214000860134B144A70B59A60D3F88820124D42F4A0
S2140008707002C3F88820114A05F5005491664FF0BF
S214000880FF3222664FF6DF7262660222C3F8D0207D
S214000890BFF34F8FBFF36F8F4FF44036032003F044
S2140008A067F90320E66003F047F92E6170BD00BFCC
S2140008B000ED00E0000000000080004400900050C2
S2140008C0014B1860704700BF242E0020054B1860AF
S2140008D0054B1B6F03F00703032B01D12DF026B841
S2140008E0704700BF2C2E002000800050BFF34F8FB3
S2140008F00549064BCA6802F4E0621343CB60BFF3B7
S2140009004F8F00BFFDE700BF00ED00E00400FA05D2
S214000910002307B5294801932EF0A3F84FF440733F
S214000920012204216846ADF800301FF020FE0122A7
S214000930234B0520C3F8442401A92EF08DF8002887
S21400094039D1204BD3F8F02042F00102C3F8F02052
S214000950D3F8FC2042F08072C3F8FC201A4AA3F5B4
S2140009605D431A60019B194A03F5D52303F2FC4345
S214000970B3FBF2F3164A013B13610223C2F8F030D0
S2140009804FF48073C2F804334FF06043114AC3F843
S214000990B02F114AC3F8802ED3F8002E42F480728E
S2140009A0C3F8002EFF2283F82020D3F8002E22F46E
S2140009B08072C3F8002E03B05DF804FBC0EF02009F
S2140009C000D0035000ED00E0FF030040F8590D0092
S2140009D0000004E055CEACC509000100F8B5044699
S2140009E00127124D0CB314F001000BD0002024F0A8
S2140009F0010405EBC0021668002EF3D05168C0B2A1
S214000A00B047EFE72246013020284FEA520201D0D5
S214000A10D307F8D507FA00F20F2824EA0204E8D92B
S214000A20421E05EBC2021038E5E7F8BDC80D0020EF
S214000A3008B50C482EF015F8192003F08BF828B1ED
S214000A40192003F095F8192003F076F81A2003F021
S214000A5081F828B11A2003F08BF81A2003F06CF8FE
S214000A60002008BDC0EF020008B502F095FE054B59
S214000A7000F0553020F05020C3F82004BDE80840B0
S214000A80FFF7ACBF00E0035008B502F085FE054B4B
S214000A9000F0AA3020F0A020C3F82004BDE80840EB
S214000AA0FFF79CBF00E003502DE9F04F14460546C3
S214000AB00E469B46C36B87B001225B6902A960683D
S214000AC09847EB6B01225B6903A93046984702A85A
S214000AD020F0E7F9074648B10023A37563754FF089
S214000AE0FF33A360002007B0BDE8F08F03A820F016
S214000AF0E5F90123A375237E04EBC303DE611F849F
S214000B006368B3420ED1206003A820F0F9F94FF0D5
S214000B10FF332075A360237D043B022B26D80023D9
S214000B20A375DFE723681A1A53425341A37503A837
S214000B3020F0E6F9237D834218BFA77503A820F0AE
S214000B40C1F9074602A820F0BDF9874218BF002366
S214000B5003A818BFA37520F0BDF9074602A820F029
S214000B60B9F987421CBF0023A375D4E703A820F079
S214000B70A9F980B1EB6B022230465B6904A998475D
S214000B8004A820F0AEF90346207D032839D8DFE814
S214000B9000F03838040903A8F3E7CC22237E04EBE0
S214000BA0C3031A8401F0B8FA109B187003A8277EB6
S214000BB020F07CF904EBC70787F82200237E03A801
S214000BC004EBC303B3F8209093F8227020F07AF970
S214000BD0804603A820F07EF98246B8F1000F15D0B3
S214000BE0EB6B022230465B6904A9984704A820F004
S214000BF03DF96075637D6BB90023A3754FF000085F
S214000C0038E0227E04EBC2021384CBE703A820F070
S214000C1018F9EEE794F81680B8F1000FEED0B9F1A7
S214000C20000F09D1DFB10123E375637E002B4FD19E
S214000C30012F42D1677614E06B6C06EB0A0259422C
S214000C4086EA020008421CBF0021A175591E0A4010
S214000C509B1A9945D0D8A37D002BE3D1CEE7E37D40
S214000C6043B94FF000084B465246314628461FF01F
S214000C7056FEA060A27D12B123694B4423611A4937
S214000C80237E097899422AD901332376BBF1000FD7
S214000C9027D032B3E37D23B3B8F1000F21D1032F61
S214000CA01FD0A1684B1C1CD0109B224600932846E0
S214000CB00123FFF7F9FEA07513E095F8343063B909
S214000CC0EB6A0133CFD1032FCDD10123A376C8E73A
S214000CD0012FCFD0032FC4D1F7E79846C3E70023F0
S214000CE0A375A07DFFE600BF7CEF02002DE9F04F64
S214000CF00E46984600238BB004464FF0FF31104650
S214000D0017468DF8133001F0F1F9B6F5801F3BD386
S214000D10B21C53D1E56A6B1C57D12046616A1FF09E
S214000D2044FD0546B31C18BF0123DFF8109101935C
S214000D30636A626C0293236805A902FB053AE36BBB
S214000D4005225B695046984705A820F045F920F033
S214000D5068F9504620F070F94FF0000B82460146C5
S214000D604B1C05D0636C81EA0A025B42134232D008
S214000D70294620461FF019FD029BAB424DD0BBF121
S214000D80000F4DD10546D3E7314605AA04F1080009
S214000D901FF0D5FF0146481C10D0384601F0A6F9D2
S214000DA00122394620460DF113031FF00AFE28B132
S214000DB09DF8133088F80030002003E0237C002BD9
S214000DC0A8D12D200BB0BDE8F08F2368ED1A636C18
S214000DD0B5FBF3F5A6E7484601F088F90DF11303D5
S214000DE049462046019A1FF0ECFD034690B1B21C1E
S214000DF003D0D9F80020B2420CD19DF813200393FB
S214000E000D4B88F8002049461A68384622F068FBE1
S214000E10039B9B46D9F80810A2E7BBF1000FD0D081
S214000E20B6F5801FC8D2314698F800307A6804F1CB
S214000E30080001F089F8BFE778EF02002C150020C3
S214000E402DE9F3410446174698460E46194D816A29
S214000E50E36A8B422AD04B1C18E0284601F046F97C
S214000E600122294620460DF107031FF0AAFD30B1E6
S214000E704346294620469DF80720B847B0B1A968E2
S214000E804A1C05D0012E0AD0E36A9942E5D10DE04E
S214000E90696820461FF016FD012E0146D8D16B6802
S214000EA081EA0302636C5B421A42D1D002B0BDE80D
S214000EB0F08100BF001500202DE9F0474FF0FF330A
S214000EC04FF6FF720025044600F10806C0E9092324
S214000ED08AB0C3620562056330460F461FF000FF06
S214000EE020461FF0E2FB28BB204639461FF0ADFC2B
S214000EF020461FF0DAFB28BB5E200AB0BDE8F0876C
S214000F00E26B2368606CD2F814C000FB0530052243
S214000F1005A9E04705A820F05FF8012840F0838087
S214000F20294620461FF062FC421C294620461FF038
S214000F30DBFB0135E3699D42E2D320461FF0B5FB9B
S214000F400028D1D020461FF0E0FB4FF6FF72636A00
S214000F50934200F0B080E26B676C2068694607FB3E
S214000F60030055690522A847684620F00CF8626A17
S214000F702368606C514D00FB023020F05DF84FF0A6
S214000F80FF33A062E3622A466FF00101204605ABFC
S214000F90FFF7ACFE002850D1AD6829462046E56232
S214000FA01FF05FFB206320B92046E16A1FF08AFC31
S214000FB0E062294620461FF085FC0546A36A9D424E
S214000FC03DD120461FF00BFB00278046B946E3695B
S214000FD0994546D3B84563D92046616A1FF0E5FBBC
S214000FE00026054604F1400ABE4212D3626C23680E
S214000FF0694602FB0539E36B05225B69484698475C
S21400100068461FF0C0FF534602464946E06B20F094
S21400101015F8294620461FF0C8FB0136B0450546A0
S214001020E2D1642069E720F001F8002881D0294643
S21400103020461FF0DBFB024677E7A56AADE72946A8
S21400104020461FF00EFB236B294603440746236306
S21400105020461FF037FC0546002FAFD1C4E90B072A
S214001060ACE7636C2568052203FB0955E36B05A90D
S2140010705B692846984705A81FF0AEFF1FF0D1FF12
S21400108058B128461FF0D8FF014620461FF0E9FA5F
S214001090636C143B984208BF013709F1010996E7D3
S2140010A030461FF01DFE002320461946044AFFF76F
S2140010B0C7FE002021E767201FE700BF5815002065
S2140010C0B10902002DE9F041036B9046826B076878
S2140010D09A4288BF8363426C436A90B002FB0377F0
S2140010E0C36B0E46052201A95B690446384698473D
S2140010F001A81FF071FF01280146307057D0656CBB
S214001100E26B2368606AD2F814C005FB0030052243
S21400111006A9E04706A81FF05FFF01284FF000056C
S21400112023D0D4E90A3201219342CDE90B458DF84C
S21400113034800E958DF83C102AD1194620461FF0B3
S214001140C1FB236B626C14339B1AE06223630C9B17
S21400115053B99DF83C303BB1626A616C2368E06B22
S21400116001FB02311FF0F0FE0C9DE36B05225B696C
S21400117001A93846984701A81FF02EFF3070284670
S214001180236BA26B9A4288BFA36310B0BDE8F081C0
S214001190237C33B91C490BAA04F1080000F022FF97
S2140011A0D5E72046194A0BABFFF74AFECFE7237C6C
S2140011B023BB2246164904F1080000F013FF616ABB
S2140011C020461FF013FB616A421C20461FF08CFA73
S2140011D0054620B9236B626C1344143B23632046F8
S2140011E0A16A1FF06FFB2368A062C01A636CB0FB95
S2140011F0F3F0606220461FF0A8FBB6E70023204607
S214001200044AFFF71DFEDAE75D190000D918000052
S2140012104B0A0200E709020073B50D46D11E4A428A
S2140012201C461B7E4A419A4226D129682368994269
S21400123022D3636899421FD8114E0DF10703324638
S214001240FFF754FDC0B972686B689A4214D19DF8D6
S2140012500730DA1E53425341227E93420CD1636913
S21400126001336361D4E90323934205D22968A26857
S21400127042F8231001332361012002B070BD00BF85
S214001280581500202DE9F04F9A468BB09DF8503047
S214001290DFF850B10293DBF81030804653450D4618
S2140012A01646C0F09980D146DBF804300193B9F1B8
S2140012B0000F00F08D80D8F83C3001225B6907A94A
S2140012C00198984707A81FF0F9FDDBF80030984210
S2140012D040F0858007A81FF0FDFD0428074614D1BE
S2140012E007A81FF0FEFD019B029A04463B44002A15
S2140012F03FD1864212D91446361A404601991FF04D
S214001300E1FAA9EB04090190D1E7D8F83C300222B3
S2140013105B69019808A9984708A8E2E7841B54452A
S21400132028BF5446032C03EB0607AAEB040A4FEA31
S21400133094021CD9D8F83C30294638465B69984751
S21400134024F0030304F003061F441D44002ED4D0EB
S214001350D8F83C3001225B6908A9384698473246DF
S214001360284608A9354422F0BBF80026C5E72646DD
S214001370ECE7074600F00302039203442A1804929F
S2140013800593049BDD1B059BD81B039B9F420FD137
S214001390002FB2D0D8F83C30012208A95B699847E4
S2140013A03A46284608A922F069F878B93D44A4E7E9
S2140013B0D8F83C30012208A95B69984704222846E1
S2140013C008A922F05BF808B9043FDAE74FF03609BF
S2140013D048460BB0BDE8F08F4FF06309F8E74FF0D2
S2140013E06F09F5E7841500202DE9F0410F461646F3
S2140013F09846044688B060B390F83450FDB1012199
S2140014001FF048F900210E9BCDE90511CDE9023702
S2140014109DF83C30CDF804808DF81C30237C049673
S2140014208BB90D4901AA04F1080000F0DBFDDDE9E7
S2140014300553E06B002E08BF1D461FF014FB284620
S21400144008B0BDE8F0812046044A01ABFFF7F8FC7F
S214001450EDE70546F3E700BF150A02001912000083
S2140014602DE9F04F99B00F4609920A69416C0E9328
S2140014701439D31DB3FBF1F3013302EBC302036B44
S21400148004469342C0F0BC810023DFF844940D93D9
S214001490E36A48461946079300F028FED7E9033664
S2140014A004930E9B022B4ED1CC2E40F08A81099BD2
S2140014B0002B42D0394620461FF033FB656C079A56
S2140014C06B1E13401490ED1AE36B01225B6916A99C
S2140014D07868984716A81FF0F5FC00280CBF042370
S2140014E00823782E06933DD9012300254FF0080ADD
S2140014F005933B6805990E98C9F80030C9F8106046
S2140015001FF002FD4FEA9A0310930023DDF81CB08B
S21400151089F814000B930F9308930C93616C4A1E82
S2140015200BEA02028B1A002E38D05544AB4240D844
S214001530236B5B1A13442363ABE0049B1B68149372
S21400154008230693D0E7656C079A6B1E1340782E27
S214001550A5EB030516D8FB7D7BB9099B002BB3D101
S21400156004230693331DAB4210D9A6B1082DBBD871
S21400157004250023AA460593BBE7099B002BA3D1AD
S2140015800823EEE7099B002B9ED1D9E70025059599
S2140015904FF0040AADE704250596F9E75345C7D38F
S2140015A0B0460BEB0A030393089B002B18BF0323DC
S2140015B013E0A3EB0A039E42B0460BEB0A0228BFD9
S2140015C098469E420392EFD90123D9F8102089F855
S2140015D01730964271D1C9F804B0089399F81730BD
S2140015E0002B6CD099F818200899D31C09EBC3037C
S2140015F00132C3F804B0A3F80880997289F818205D
S214001600B8F1000F14D00E9B022B5BD10B9B7BB95D
S2140016100F9B4344032B0BD9E36B01229B69039872
S21400162014A998470546002840F0EC8001230B9348
S214001630089B16A80193059B009399F8142043462F
S214001640396800F009FDE36B58469B69109A16A9A5
S2140016509847051E0D9B18BF5B4652460D9359468C
S214001660434620461FF05BF9236B08F10302A3EB09
S2140016700A0322F003029B1AC9F808002363002D10
S21400168040F0C0800F9BDDF80CB04344A6EB080684
S2140016900F93594620461FF015F900258346002E65
S2140016A07FF43CAF8A4A3968936804F10800E36225
S2140016B052680E9B00F048FC84E002238DE7C9F8D0
S2140016C004B09DE7099B002B30D1049BB8F1030FB3
S2140016D043440A9327D9DDE90301E36B4FEA9802F6
S2140016E09B6998470546002865D118F003025FD02D
S2140016F0049B28F003052B440493039B1D444FF0E2
S214001700FF33049915A8159321F0EAFEE36B2846EB
S2140017109B69012215A9984705460A9B0493002D4C
S21400172086D0039B99E74246039DE8E7039B0A930E
S21400173007F120031193FB7D78689BB100233D7E63
S2140017400C9AD9B28D4211D9119903F1010C31F8D6
S2140017503310914226D9069907EBC303D8690A4489
S214001760104403E00C9B069A13441844E36B0122D2
S2140017705B6915A99847159B012213930C9B0A9841
S21400178004330C93E36B13A99B699847039B0A9A4F
S21400179043449B1A042B054607D978B913460433ED
S2140017A00A93C8E76346521ACBE70A9B0393B6E749
S2140017B00A9B04933CE70A9B0493B2E70A9B0393B5
S2140017C0AFE77026304619B0BDE8F08F002657E028
S2140017D004F108001FF084FA3346314620463D4A9D
S2140017E0FFF72EFB3A69616CD31D1439B3FBF1F396
S2140017F0013302EBC302236B9342BFF449AE65E0AC
S2140018001C26DFE73D2D61D104F10803039323680E
S214001810079A606CD61AB6FBF0F600FB06301FF08F
S2140018200BFCE16A824620461FF04CF8A26A824210
S214001830D8D0626CD9F80830511E0B40216BE0629C
S214001840891A0B4423630D992368CB1AB3FBF2F86D
S2140018504645BBD1079BB3EB0A0611D0E36BB20833
S21400186051469B6998478346E36A079A3344E36286
S214001870236B03989B1A534423631FF031FA5E468A
S2140018802368616CE06B01FB08311FF04AFB2046C1
S2140018901EF00BFF20461EF038FF626A2368606C5D
S2140018A000FB02301FF0C8FBA06220461FF04DF878
S2140018B02063002E8CD03A69616CD31D1439B3FBBB
S2140018C0F1F3013302EBC3029042A0D22E4679E731
S2140018D02C150020B1090200032A2DE9F341064623
S2140018E00D4617461C4606D1237A012B23D001202D
S2140018F002B0BDE8F081DFF86080096842460DF16D
S2140019000703FFF7F3F960600028EDD19DF8072084
S214001910237A032AE8D0D8F804106A689142E3D103
S214001920012B2969D4F80CC007D172690CEB0103AE
S214001930934202D92074207CDAE708316144E160E2
S2140019403B46012229463046FFF78AFD60600028A4
S214001950CAD00020CCE700BF581500202DE9F3417F
S214001960089C032A1746266806D1237A012B24D022
S214001970012002B0BDE8F081DFF890803046424694
S2140019800DF10703FFF7B2F960600028EDD1256876
S214001990D8F80400A96AD5F844C04840CCF1000342
S2140019A01840227AE1D1012A09D1E268D8F810302D
S2140019B013447269934202D92074207CD9E72868C0
S2140019C0EB6A1B1A081AB3FBFCF3B0FBFCF083426D
S2140019D00BD1706CF36A421E1340326B121A13441A
S2140019E0284633631EF06EFFE862D8F81020E368DE
S2140019F008321344E36001223B4604492068FFF79F
S214001A002FFD60600028B0D00020B2E758150020F7
S214001A102DE9F0410025634B0E46D3F800800446BE
S214001A201D6018B921252846BDE8F08190F834706D
S214001A3007B30A6803689A4240F0AA804A68436877
S214001A409A4240F0A5808A6883689A4240F0A08057
S214001A50CA68C3689A4240F09B800A6943699A4202
S214001A6040F096808A69C36B9A4240F091804B6939
S214001A708361D8E768223946856B21F029FDD6E9CF
S214001A800212336804F1080023607368A56363607C
S214001A90336963617369A3611FF034F9B36904F1B4
S214001AA04000E3639B68984720B9676C17B163688A
S214001AB0B3FBF7F794F84330E761002BB2D000236E
S214001AC0656C2366002D6BD0002F69D02368B3FBAE
S214001AD0F5F205FB1233002B5CD16768B7FBF5F611
S214001AE005FB1676002E55D120461EF0AAFDA369EA
S214001AF0043303449F424FD340F634726369CC3BB1
S214001B0093424BD8B5F5805F4AD3032120461EF09A
S214001B10C1FDD4E90001E36B1B6898470546E36BFB
S214001B200220DB6898472DB184F83460E06B1EF025
S214001B309AFF78E741462046FFF7BEF96428054637
S214001B4004D141462046FFF7B7F90546636C143BBF
S214001B50D5B9226A204602FB03F61EF072FDA36981
S214001B60043303449E4203D284F834505A25DDE7FA
S214001B700123D4E900010C4A84F834301368013399
S214001B8013601FF059F9D1E7002384F83430CDE70D
S214001B905D2548E7592546E75A2544E75F2542E78D
S214001BA05B2540E7BC0E0020B80E00202DE9FF4163
S214001BB00C4616461F46054680B390F834307BB375
S214001BC0B1F5801F2ED2DFF8608001211EF062FD85
S214001BD02146424628460DF10F03FFF787F80446D4
S214001BE070B99DF80F30012B11D1D8F81030BB42D8
S214001BF012D10246009031462846FFF743FB0446C2
S214001C00E86B1EF030FF204604B0BDE8F081022BE2
S214001C1014BF2D246024F3E76324F1E72124F2E7C0
S214001C201124F0E72924EEE7841500202DE9F0437F
S214001C3085B00C4617461E460546DDF8308098B33C
S214001C4090F8343093B3B1F5801F31D2DFF864904A
S214001C5001211EF01FFD21464A4628460DF10F03BE
S214001C60FFF744F8044688B99DF80F30012B14D1CD
S214001C70D9F8102006EB08039A4213D30090434687
S214001C80324639462846FFF7FDFA0446E86B1EF052
S214001C90EAFE204605B0BDE8F083022B14BF2D24D3
S214001CA06024F3E76324F1E72124F2E71124F0E748
S214001CB02924EEE7841500202DE9F3411F46002372
S214001CC00C46164605463B6050B390F834304BB38E
S214001CD0B1F5801F28D2DFF8548001211EF0DAFC0F
S214001CE02146424628460DF10703FEF7FFFF04464D
S214001CF0A0B99DF80730032B10D0022B0AD1012380
S214001D00336004233B60E86B1EF0ADFE204602B055
S214001D10BDE8F081D8F810303060F3E72D24F2E704
S214001D202124F3E71124F1E72924EFE784150020A6
S214001D3073B5044641691EF069FC626E236B02446B
S214001D4093422CBF00220122834294BF00231B1A19
S214001D50207C84F85020636584F85800A8B10023DE
S214001D600B4E1A461946204600961EF0A7FF002383
S214001D7005461A461946204600961EF0A8FFE36858
S214001D802844984294BF0020C01AE06502B070BD97
S214001D90FFFF0F002DE9F3471E4643690446B34292
S214001DA0884617469DF828904FD300258DF8075093
S214001DB0204661691EF02AFCD4F830A082450AD27B
S214001DC0236AB5EB430F06D2002220460DF1070129
S214001DD0FFF778F9B8B39DF80730012B05D100223C
S214001DE020460DF10701FFF76DF9B9F1030F06D094
S214001DF0314620461EF00AFC256B854227D3154D3A
S214001E004FF0FF31284600F071F94B462946002274
S214001E102046C5E90376C5F80080FFF721FB236E50
S214001E20054663B12046FFF783FF94F8503013B998
S214001E3094F858301BB1236E04F15000984728469A
S214001E4002B0BDE8F0870135B2E76225F7E71C254A
S214001E50F5E700BF581500202DE9FF410F469046D4
S214001E601E46054698B390F8343093B3B1F5801FFC
S214001E7031D21A4C02211EF00DFC22463946284665
S214001E800DF10F03FEF732FF024678B101234246FA
S214001E900093394633462846FFF77CFF0446E86B36
S214001EA01EF0E1FD204604B0BDE8F0819DF80F303D
S214001EB0012BEBD12169B142E8D10093414633466C
S214001EC02846FFF7DFF904460028DFD1E7E721249C
S214001ED0E8E71124E6E72924E4E700BF841500209C
S214001EE030B50C46054685B028B390F8343023B399
S214001EF0B1F5801F23D202211EF0CCFB0DF10F039B
S214001F00214628460F4AFEF7F1FE034688B99DF89B
S214001F100F20032A0DD003222146009202462846AF
S214001F20FFF738FF0446E86B1EF09DFD204605B01F
S214001F3030BD2D24F7E72124F8E71124F6E72924FD
S214001F40F4E700BF841500202DE9F043466886B309
S214001F50056898464FF0000CA946AE4655F83C403A
S214001F600CF1010CC4F31307013401D0B94217D0A9
S214001F7066450EF1080EF1D12F46002403E0A64276
S214001F8007F1080712D055F8343001340133F6D182
S214001F90C1F3130141EA0851C7E90012BDE8F08316
S214001FA041EA0851CEE90012BDE8F083B8F1030F0C
S214001FB003D101230372BDE8F083002303E09E42B1
S214001FC009F10809F5D055F833400133C4F3075436
S214001FD0032CF4D1C1F3130343EA0853C9E90032D2
S214001FE0BDE8F0832DE9F0410646406882B0C0B1F6
S214001FF00F4690460024336853F8345003EBC4036E
S214002000C5F30752C5F31301013504F1010406D0E8
S2140020105B683046CDF80080B84710B170688442DF
S214002020E9D302B0BDE8F081024B1968024B18688C
S214002030FFF7EEBC302E0020502E002008B52CF006
S214002040EEFC014B186008BDB0150020014B186867
S2140020502CF0E0BCB015002073B504462248012AD7
S21400206000EAC1119DF8185023F07C4007D9961E4F
S214002070012E28D9073303F07F03194308E09DF8A3
S2140020801C300A43DB0603F0C053134343F06041A1
S2140020900023C4E900108DF80730B5B12022214690
S2140020A00DF107001EF0E4FF1A220DF10700211DB6
S2140020B01EF0DEFF082063689DF8072043EA82636F
S2140020C0636002B070BD1143E2E71B220DF107000A
S2140020D021461EF0CDFF23689DF80720042043EA22
S2140020E0C2632360EDE700BF80FFFF0738B5094BEA
S2140020F00D461A680021044621F0EAF900234FF045
S214002100FF322383C4E900252361A260E382A3761D
S21400211038BD00BF78EF02000138C0B205289ABF6C
S214002120014B185C012070477DEF02002DE9F0415D
S2140021300746154600240E46596888B0490A012904
S21400214022464FEA510104F10104F8D8DC78997868
S21400215024031B88C90201F4006104F480540C4374
S214002160C3F30A035203234492B24FF000089C18AC
S214002170274B6FEA0444039325F07843ED4302A906
S2140021800DF107001B2202938DF807801EF070FFEA
S2140021909DF80720029B02A943EAC2630DF10700DF
S2140021A01B2225F07845049302958DF807801EF0D3
S2140021B05FFF9DF80720029B6FEA144443EAC26360
S2140021C005934FF0FF330794069307A9BB690122D6
S2140021D006F110009847BB6905A90446012206F1DE
S2140021E008009847BB69404518BF044604A9012269
S2140021F0301D98470122404518BF0446BB6930464B
S21400220003A99847404508BF204608B0BDE8F081BE
S21400221001009AB2044BD3F88420D206FBD4D3F83C
S2140022208400C0F3811070470040005038B5184B4A
S2140022300546D3F824010C4600F00700062823D8EC
S214002240DFE800F0040A121A1E0E1600012305B17C
S214002250286004B1236038BD2BF042FB0523F6E767
S2140022602BF03EFB0623F2E72BF07AFB0323EEE788
S2140022702BF076FB0423EAE72BF06EFB0223E6E75F
S2140022802BF074FB0723E2E700231846DFE700BFC6
S2140022900080005038B5104B0546D3F800310C4688
S2140022A003F00303022B0BD0032B0DD0012B0FD111
S2140022B02BF056FB032305B1286004B1236038BD1C
S2140022C02BF058FB0823F6E72BF050FB0723F2E72A
S2140022D001230020EFE700BF0080005038B5104B08
S2140022E00546D3F820310C4603F00303022B0BD02F
S2140022F0032B0DD0012B0FD12BF0F2FA052305B1DD
S214002300286004B1236038BD2BF02AFB0323F6E7D0
S2140023102BF022FB0223F2E701230020EFE700BFA9
S2140023200080005038B5104B0546D3F840310C46B7
S21400233003F00303022B0BD0032B0DD0012B0FD180
S2140023402CF062FB092305B1286004B1236038BD78
S2140023502BF010FB0823F6E72CF059FB0B23F2E7D3
S21400236001230020EFE700BF0080005038B5104B77
S2140023700546D3F860310C4603F00303022B0BD05E
S214002380032B0DD0012B0FD12CF03EFB092305B1FA
S214002390286004B1236038BD2BF0ECFA0823F6E77A
S2140023A02CF035FB0B23F2E701230020EFE700BFFC
S2140023B0008000503C4B984272D02AD83B4B984243
S2140023C06BD014D83A4B984264D00AD8394B98420E
S2140023D043D0394B984240D0384B98423DD00020ED
S2140023E07047374B9842FAD1364B586E7047364B8B
S2140023F0984235D003F5371303F5D863984232D0A8
S214002400A3F5B703A3F558639842E8D12D4B186F90
S21400241070472E4B984231D00FD82D4B984225D07E
S2140024202C4B984226D0A3F53703A3F5D8539842F1
S214002430D5D1244BD3F880007047274B984221D043
S21400244003F5740303F5105398421FD0234B9842AC
S214002450C5D11C4BD3F8900070471A4B986D704747
S214002460184B586F7047174B986F7047154BD3F83B
S21400247084007047134BD3F888007047114BD3F88D
S2140024808C0070470F4BD3F8940070470D4BD3F871
S214002490980070470B4BD86D70470A4B986E704784
S2140024A0084BD86F704700BF002D3101809698000A
S2140024B0404B4C0080841E0000093D0040420F0047
S2140024C0C0CF6A000080E00F0024F400006CDC023D
S2140024D00048E80180D543020090D003007E5603F2
S2140024E073B50D4600210E4B0191D3F88041064688
S2140024F004F00304012C09D0022C0CD00C460EB1BB
S214002500019B336005B12C6002B070BD01A8FFF7D7
S214002510E5FE0F24F3E72BF01FFA0190EFE700BF6C
S2140025200080005038B5104B0546D3F840320C46B4
S21400253003F00303022B0BD0032B0DD0012B0FD17E
S2140025402CF062FA092305B1286004B1236038BD77
S2140025502BF010FA0823F6E72CF059FA0B23F2E7D3
S21400256000231846EFE700BF0080005038B5144B34
S2140025700546D3F800020C4600F0070004281BD8D6
S214002580DFE800F003090D111500012305B12860EE
S21400259004B1236038BD2CF037FA0923F6E72BF098
S2140025A0E9F90823F2E72CF032FA0B23EEE72BF0DA
S2140025B0BDF90E23800AE9E700231846E6E700BFC8
S2140025C00080005010B40D4C0B46D4F8204204F0A6
S2140025D00304012C0AD0022C0CD008B100210160A3
S2140025E00BB100221A605DF8044B70475DF8044B8F
S2140025F0FFF774BE5DF8044BFFF794BE00800050F2
S214002600B0F5207F1FD009D8B0F5007F15D003D8CD
S21400261068B1B0F5C07F0AD000200CE0B0F5607F4E
S214002620FAD10B4BD3F88000C0F3011003E0084B3F
S214002630186FC0F3033001307047054BD3F8900095
S214002640C0F30460F7E7024B186FC0F38020F2E790
S214002650008000504FF400320E4B014610B50020AB
S2140026609A66FFF7CDFF484341F671320A490B4B95
S214002670884294BF00200120DC69DA639A6822F45D
S214002680401242EA00529A60E20344BF0022DA6334
S21400269010BD00BF00900050005A620200000350B8
S2140026A0420910B50FD0012A0FD00A4B0A4C022A55
S2140026B018BF234600F01F0049B103F580530122DE
S2140026C082401A6010BD1346F4E7044BF2E703F5A8
S2140026D00053F4E768800050608200506480005029
S2140026E01FB50021B0F5807F0446019100F00681F9
S2140026F000F29D80612800F295801F2805D80028EA
S21400270040F092802BF012F9DCE0A0F12004412C7E
S21400271000F28A8001A353F824F000BF05270000CA
S214002720C928000005270000C9280000E928000085
S214002730E9280000E9280000E9280000C928000070
S214002740C9280000A32800005D2800001F290000FB
S214002750292900005D280000C9280000C9280000BB
S214002760C928000029280000292800002928000080
S214002770292800002928000029280000F328000046
S2140027807F280000C9280000C9280000C9280000CA
S2140027903D29000033290000C92800002928000030
S2140027A029280000292800002928000029280000E0
S2140027B029280000292800002928000029280000D0
S2140027C029280000292800002928000029280000C0
S2140027D0052700002928000005270000052700001F
S2140027E005270000E9280000292800002928000005
S2140027F02928000029280000292800002928000090
S214002800292800002928000029280000292800007F
S2140028102928000029280000292800000527000094
S2140028200527000080284BD0019804B010BDB0F5F5
S214002830A06F5ED028D8B0F5607F50D019D8B0F51C
S214002840007F4CD004D8B0F5C07F3FF45BAFEBE719
S214002850B0F5207F38D0B0F5407FE5D12BF066F894
S21400286002464FF42070FFF7CBFEB2FBF0F25208A0
S21400287033E0B0F5806F37D0B0F5906FD4D100213B
S21400288001A8FFF7D3FCCFE7B0F5E06F51D00DD825
S214002890B0F5C06F43D0B0F5D06F45D0B0F5B06F8F
S2140028A0C2D1002101A8FFF71BFEBDE7B0F5F06F0F
S2140028B044D0B0F5086FB7D101A8FFF7EBFCB3E73B
S2140028C02BF014F80190AFE72BF030F802464FF4E7
S2140028D02070FFF795FEB2FBF0F20192A4E72BF012
S2140028E005F802462046F4E7002101A8FFF7F6FCAB
S2140028F09AE7002101A8FFF765FE95E74FF0E02371
S21400290002911B695B0705D52BF010F80290029B1D
S214002910019389E703A902A8FFF704FDF7E7002162
S21400292001A8FFF7FFFC7FE7002101A8FFF71EFEC6
S2140029307AE7002101A8FFF7F5FD75E7002101A859
S214002940FFF714FD70E700BF08B58020FFF7C8FE4C
S214002950034B98429EBF4FF48032024B1A6708BD65
S214002960005A620200A000501FB503460020B3F5CF
S214002970807F01906FD027D8382B00F082800BD84C
S214002980243B092B0FD8092B0DD8DFE803F05F5F37
S2140029905F5F0C0C5A0C3675522B57D007D83D2B60
S2140029A03AD03E2B72D0019805B05DF804FB802B20
S2140029B0F9D1394B1B6F03F00703013B032BF2D809
S2140029C0DFE803F03D36393BB3F5D06F54D019D865
S2140029D0B3F5A06F55D00AD8B3F5806F36D0B3F5EF
S2140029E0906FE0D1002001A9FFF720FCDBE7B3F5EC
S2140029F0B06F26D0B3F5C06FD5D1002001A9FFF780
S214002A0091FCD0E7B3F5006FECD00AD8B3F5E06FD1
S214002A103CD0B3F5F06FC6D1002001A9FFF7A6FCA5
S214002A20C1E7B3F5086FBED101A9FFF733FCBAE7DB
S214002A3005230193B7E70323FBE70723F9E7022300
S214002A40F7E7002001A9FFF74BFDACE7002001A93E
S214002A50FFF744FCA7E74FF0E02302901B695B07F3
S214002A6005D52AF063FF0C230393039BE1E703A934
S214002A7002A8FFF757FCF8E7002001A9FFF776FD4C
S214002A8091E7002001A9FFF79DFD8CE7002001A932
S214002A90FFF748FD87E700BF008000504FF4803204
S214002AA0074B0849586E03F580535A660B6A23F0A5
S214002AB001030B62C3035CBF034B5A66704700BF3B
S214002AC00080005000C0075000A0005008B5FFF777
S214002AD04BFF082811D00938012802D94FF6FF709D
S214002AE008BD4FF40012064B5A6603F5D8335B6AEE
S214002AF0DB07F3D54FF4FA70F2E7024B1888EFE7DE
S214002B0000900050BE2F002008B5FFF72DFF0328C9
S214002B100ABF024B4FF6FF70188808BDBC2F002076
S214002B20F8B504468020FFF71FFF032800F08780D3
S214002B304FF40022424B02215A6645F60E03414AE4
S214002B40C2F88030404B9962012103F580539962A8
S214002B50936DD903FCD4D4E900131B0543EA016343
S214002B60E17B94F820500B43217BE77E43EA014348
S214002B70617B6D0143EA0133A17B43EA8113136154
S214002B809169D4E904031B0643EA806301F000411F
S214002B900B43A17E94F823000B43217E43EA0143B6
S214002BA0617E43EA01239361136AE66923F00D030D
S214002BB094F8221043EA8703002E2DD11362966AFA
S214002BC094F8213045EA031326F033052B4343F0EF
S214002BD0010393621D4D1B4B9A6D35EA0202FBD131
S214002BE00222194DAA621A659A6D5200FCD41A691F
S214002BF0A56822F4700242EA05521A614FF00042BC
S214002C00114B9A6119B9022203F580539A6278B97A
S214002C1001220F4B9A620BE0334343F00803136222
S214002C20936A23F0330303432B4343EA410393623F
S214002C3094F824301BB1034B064AC3F88020F8BD35
S214002C400090005000C0005000D00050030001402B
S214002C5000E00050F1A7FFFF014B93F9000070471A
S214002C60322A0020014B1880704700BFBC2F00207E
S214002C704FF4001208B5184B5A660223174A5360E1
S214002C80936813F48033FBD1012822D12AF068FE22
S214002C90134B984215D003F5122303F5F8639842B8
S214002CA013D0104B00EB8002400AB3FBF0F3520A3D
S214002CB00A49CA620B6301234B620022074B5A6023
S214002CC008BD45F67A13084AF2E745F61A03074A9E
S214002CD0EEE75362F1E700BF00900050004002505C
S214002CE000F0490264666666D8B80500BBCF0500EA
S214002CF0B0F5207F10B50C4642D008D8B0F5007F5E
S214002D0033D003D888B1B0F5C07F0ED010BDB0F573
S214002D10607FFBD11F4A4C1ED2F8803023F0300370
S214002D2043EA0413C2F88030F0E71EF0BFF91EF045
S214002D30CBF94FF48031184B164A1967136F013CD4
S214002D4023F4704343EA043313672AF0EFFD044686
S214002D50FFF760FAC0F1020120461EF0AFF900F05E
S214002D6035F8BDE81040FFF7EFBD0A4A4C1ED2F812
S214002D70903023F0F85343EA0463C2F89030C5E776
S214002D80044A4C1E136F23F4806343EA84231367BC
S214002D90BCE700BF008000500090005008B501213D
S214002DA0022000F055F94FF42070FFF729FC054B80
S214002DB018701EF07BF91EF087F94FF48032024B34
S214002DC01A6708BD312A00200090005008B54FF45D
S214002DD0C070FFF785FCBDE808400449884294BFF0
S214002DE0012102214FF42070FFF782BF80F0FA0223
S214002DF038B504462AF09AFD0546FFF70BFAC0F1EF
S214002E00020128461EF05AF90121002000F060F960
S214002E102CB1FFF7DBFFBDE83840FFF795BD034B4D
S214002E204FF420701978FFF763FFF4E7312A00208B
S214002E304FF4C02270B50546FFF7BCFA314B044686
S214002E405A6603F598335A68012A04D12E494A6017
S214002E509A699207FCD18020FFF786FD052807D1E6
S214002E601EF024F91EF030F94FF48032254B1A6715
S214002E70264B24F040749D4230D0254B9D4230D0E6
S214002E802AF02EFD8542064603D90121284600F089
S214002E901FF9204BDA6812F0060FFBD199689C6088
S214002EA09A68624012F4F81F1ED12846FDF708FD06
S214002EB08020FFF759FD05280DD12AF037FD04467E
S214002EC0FFF7A8F9C0F1020120461EF0F7F8FFF759
S214002ED07DFFFFF739FDAE420CD270BD44F00074A2
S214002EE0CEE744F08074CBE780209960FFF73CFD86
S214002EF0052805D0BDE870400121002000F0E8B8A4
S214002F003546DAE70090005000E0015040420F00DE
S214002F1080841E000000015010B5224B70B94FF49B
S214002F200031214A1860516602F598325268012A2B
S214002F3003D11E4AD2F800211A6010BD1B68002B70
S214002F40FBD01B4A5268012AF7D0184A8020C2F8E4
S214002F500031FFF709FD05281FD14FF4C070FFF7B9
S214002F604FFB0128044604D102214FF4C070FFF73E
S214002F70BFFE07220F4B1A610122A3F580535A6049
S214002F800B4A1369DB07FCD5012CD6D12146BDE8D8
S214002F9010404FF4C070FFF7ABBE0122064B5A60DC
S214002FA0CBE700BFB4150020009000500080005012
S214002FB000C0015000E0015000D00150044A4178A2
S214002FC0536F23F4407343EA01235367704700BFEF
S214002FD00040005010B5044610B10020FFF79CFFDB
S214002FE0124A136943F0040313612BF043F81EF0F2
S214002FF070F80F4B5B6E5B0142BF0E4B0E4AC3F878
S21400300020242BF00CFD2BF0FBFE2BF003FD1EF016
S21400301061F801F023F81CB9BDE810402AF086BC20
S2140030200120BDE81040FFF777BF00BF00ED00E0CD
S2140030300080005000E003500000FF0F034A0179B3
S214003040D36E23F030030B43D36670470040005026
S214003050F8B504461C4BD3F88420D106FBD4D3F82D
S2140030608430C3F381139C422CD02AF03FFC012C01
S214003070064602D121461EF021F82BF0D0FC4FF078
S2140030800072124B07465A6620461EF02AF84FF486
S21400309080630D4D621E93402B676B6E9A0103D4BE
S2140030A0D5F884309B060AD538462BF0B3FC022CA4
S2140030B008D13046BDE8F84000211DF0FFBFD5F826
S2140030C08430EAE7F8BD00BF0040005000600050C2
S2140030D010B50C4608B92AF009FC074B21461B78A8
S2140030E03BB1064B984204D80120BDE81040FFF7DC
S2140030F0AFBF0220F9E700BF332A0020005A620261
S2140031000278034B012100201A70FFF7E1BF00BFD1
S214003110332A00204FF0004238B5264B26495A661F
S21400312001224A604AF6CD3103F50B235D6C196423
S214003130154030BB9968C9070BD4002401221F4BE9
S2140031405A6015B11E4B1F4A1A6429F085FD2046A9
S21400315038BD1A498A601C4AD96ACC0705D4904201
S21400316001D10724EAE70130F6E79042E5D1F8E717
S2140031700132DC6A14F0080406D08A42F8D107242B
S214003180DFE700221049F4E78A42F8D020220B4BF2
S2140031900B495A620122A3F580539A6023460A4AD5
S2140031A0486A800603D49342E9D00133F8E7934295
S2140031B0C7D1E4E700900050005009500060095065
S2140031C0004009503254FFFF40420F004FF00042CB
S2140031D038B5174B174C5A66012203F50C235A6074
S2140031E04AF6CD33656C2364437893401343124A02
S2140031F0D363C3788178A2689B0043EA011322F068
S21400320074021343A3600279837943EA022323619D
S2140032104279C37943EA022363610078FFF77AFFB5
S214003220EB0744BF054B236429F016FD012038BD8B
S2140032300090005000400950004000503254FFFFFC
S214003240F8B504460D461F4616464AB101238B4084
S2140032503021184A01FB0022F7B141F21001535009
S21400326004EB4403072D4FF00F014FEA031316D863
S214003270A80006FA00F281400F4818441DF032FFFD
S2140032804EB9012330210B4AAB4001FB042277B133
S21400329041F210015350F8BD42F21001DFE7A5F1EC
S2140032A00800800006FA00F281400448E5E742F292
S2140032B01001EFE700C0035004C003500CC00350D9
S2140032C0F8B505460E4614465AB303F0030783685E
S2140032D023F4407383602BF0A2FBAA6882EA0723DC
S2140032E003F440735340AB602BF094FB36B9104B9D
S2140032F09D4217D12E20FFF7F3F90646AB680D4B1B
S214003300DA5D62430DD0A2EBC403013B3344B3FB4A
S214003310F2F3AA68013B920702D5002B08BF0123EF
S214003320AB61F8BD044B9D42E8D12F20E3E700BF18
S2140033300000015A83EF02000080065038B50023D3
S2140033400E4A036400F50053DA634A7804460D46D5
S21400335000F108037AB903F5805302221A6020466A
S214003360D5E901122B7BFFF7ABFF20462978BDE895
S21400337038401DF0C6BE03F50053EEE7FFFF1F0002
S214003380874B70B5984219D0864B984240F005811D
S214003390854B9968C26B12F4C06F15D091050FD596
S2140033A0FD225A7009221A700022026493F9011055
S2140033B0012900D15A7093F9010070BD7B4BE8E7F4
S2140033C05605EFD5FE22ECE71C78082C00F2E180CB
S2140033D0DFE814F009001F004500530070007E006F
S2140033E09C00A700D6004C880A88E5060AD5120A73
S2140033F002F0060242F0F002012119704263C16039
S2140034000120DAE702F0FE02A10748BF42F00102FF
S214003410F2E7160608D5802100F50052D1634FF674
S21400342008721A80022318E05506E9D5402400F5F4
S2140034300052D4634A88D40604D502221A700B7848
S2140034404363DDE796076AD507221A701B7901EBFE
S214003450C3031B89012BD3D10823C360D0E715060D
S214003460D9D45406CCD5402400F50052D4634A88FB
S214003470920754D503221A708CE74C880A88E60611
S21400348043BF120A02F0060242F0F00202F0FE0209
S214003490650709D51C7942F0010201EBC4010989D0
S2140034A0012904BF0821C160042119700123C360EB
S2140034B04263A5E71406AED45206A1D5402400F513
S2140034C00052D4634A88560729D507221A7097E710
S2140034D01A795D8801EBC2042689AE420FD8002413
S2140034E00132D2B21A715C804C886507C2D4E407F8
S2140034F002D4012A7FF64EAF08221A7092E762685D
S214003500691C5980525D42630622DFE7160682D4A4
S21400351055067FF575AF402400F50052D4630522AA
S214003520A9E794067FF56CAF456A214C46691A797F
S2140035303440B4F5003F04BF466A4FF4005601EB32
S214003540C20100F500540A8908BFE6632026E66338
S2140035505C88A24281BF4968661C5E800D5559880A
S2140035608A42C9D90424012AC46004D0013A91428F
S21400357001D10822C2601A78092A3FF415AF3FE746
S214003580D2057FF53DAF4FF4807100F50052D16350
S21400359008E74FF609321A8006E76FF003000CE7DB
S2140035A00000015A00800650C4150020B8150020FF
S2140035B0200002001D4B10B4984207D01C4B9842C6
S2140035C02FD06FF003005DF8044B7047194B02696B
S2140035D0D20744BF2022C2604A88940702D50C89CD
S2140035E0002CEED0520702D50A8A002AE9D04FF402
S2140035F080721A60002299601A71C023C360436902
S214003600DB0510D4202200F50053DA630A4A5DF881
S214003610044BDA634FF4FC6200F580531A64FFF73C
S214003620AFBE064BD3E7436AE9E700BF0000015A86
S21400363000800650B8150020FFFF1F00C4150020AC
S2140036404FF40032054B9A6641F6713203F51C338F
S214003650DA63012203F50053DA60704700900050E9
S21400366041F671320121064BDA6303F50052D16050
S2140036700022DA634FF40032A3F518339A667047D7
S21400368000000350CB784A7810B55B010C7843EA0B
S21400369082030A79234343EA02130C22424302F1CF
S2140036A0B0421363012C02BF8A78024B43F82020F5
S2140036B010BD00BFE880035008B54FF0B0435A680D
S2140036C06AB958B15B680BB11DF025FD01210D4BA1
S2140036D059601DF020FD4FF0B043D96008BD5B680F
S2140036E00BB11DF018FD0028F0D11DF014FD4FF0B1
S2140036F0B0430222DA601DF00EFD0122024B5A6032
S214003700ECE700BF00100058002000584FF0B04112
S2140037104B6810B50BB11DF0FEFC01220B4BC478B4
S2140037205A608378934043EA8403447823430479B9
S21400373043EA0413447943EAC4038B60044B5A609B
S2140037400378C3F10203CB6010BD00BF0020005811
S214003750001000584FF48032064B5A6603F5E623F5
S2140037605B69C3F38512827003F03F021B0B427045
S2140037700370704700900050014B986CD96C7047EE
S2140037800080E00F0120034B9B680A3303F01F0301
S214003790984070470080E00F034BD3F82424D3F8FA
S2140037A020041040704700BF00C003502DE9F843C6
S2140037B01E4B0546D3F810334B1E0E2B0E461746EF
S2140037C090F8009044781DD909B34FF000082846B9
S2140037D0D7B12BF033F909EB4903072C4FF00F0153
S2140037E04FEA031315D8A400114808FA04F2A140C2
S2140037F018441DF098FCBEB928468FB1BDE8F843C2
S2140038002BF01CB98846E2E71DF09CFCE3E78846EF
S214003810E1E7083CA400074808FA04F2A140E7E7FD
S214003820BDE8F8431DF08EBCBDE8F88300C0035029
S21400383004C003500CC003500A4B1B68C3F3074375
S214003840012B0ED1084B04205A6E4FF480230749F3
S214003850520358BF064A4B6601F51041086258BF2E
S214003860536670470080E00F0080005000900050C4
S21400387000A000504FF48032084B5A6603F5E6234A
S2140038805B691A0B027003F03F0242704FF6FF723C
S214003890C3F3851342808380704700BF00900050BA
S2140038A0014B986CD96C70470080E00F70B50446E9
S2140038B00D462BF0BDF81D2C064608D80C2C0AD851
S2140038C0082C2CD013D8BB23E340DB0718D40023E6
S2140038D021242B801EE00123174AA340134224D143
S2140038E0122C26D00D2CF2D14FF4F06005E0092CF6
S2140038F018D00C2CEBD14FF4C060FFF7E7F802E0CD
S2140039008020FFF701F94FF6FF7398420CBF0E2494
S2140039100024288030462BF086F8204670BD4FF4F1
S2140039208060EEE74FF49060EBE700230F242B80D7
S214003930F0E74FF4E060E0E70080912030B58BB010
S2140039406C46544D0FCD0FC40FCD0FC495E8030041
S21400395084E80300504BD3F84C21120300F1838017
S214003960D3F85041E4B28DF81940FFF775F90444D6
S21400397084F3080449488DF81840FCF7A7FF68460A
S214003980FFF7CEF83220FFF76DF94548FFF750FAFB
S214003990444C45482BF065F80020FFF769F9FFF71F
S2140039A0FDF9236F002023F0070343F0030323678A
S2140039B0FFF71EFA236F3D4923F4744323673C4BFD
S2140039C0D3F8FC2012F0807253D1C1F88020354B1A
S2140039D0D3F8202122F0030242F00202C3F820218D
S2140039E0D3F8242122F0070242F00202C3F8242171
S2140039F0D3F8802122F0030242F00102C3F88021AE
S214003A00D3F8402122F0030242F00102C3F840211D
S214003A10D3F8602122F0030242F00102C3F86021CD
S214003A20D3F8402222F0030242F00102C3F84022FB
S214003A30D3F8002222F0070242F00102C3F8002267
S214003A40D3F8202222F0030242F00102C3F820221B
S214003A50FFF724F84FF0E0220020136943F0040338
S214003A6013610BB030BD134B1C88FF2C88BF8C2411
S214003A7079E7D3F8FC2022F08072C3F8FC200022FD
S214003A80C1F88020D3F8FC2042F08072C3F8FC20F6
S214003A909DE700BF88EF02000080E00F00F04902BB
S214003AA000B4C40400800050BCEF02000090005038
S214003AB000ED00E00001E00F07B56B46054A106810
S214003AC0516803C36846FFF781FB002003B05DF82A
S214003AD004FB00BFB0EF02000028ACBF00F160405E
S214003AE0064B4FEA0111C9B2ABBF00F5614000F0CA
S214003AF00F0080F800131954704700BF14ED00E063
S214003B0008B52AF095FF0B4B1A7872B901221A7085
S214003B102AF089FF6FF0040210460132052152B2E6
S214003B20FFF7DAFF402AF7D108BDBDE808402AF0C3
S214003B307ABF00BF342A0020002807DB0123410992
S214003B40034A00F01F00834042F82130704700BF50
S214003B5000E100E0054B421153F8223000F01F0050
S214003B6023FA00F0C04300F00100704700E100E0D7
S214003B70002808DB01224309034900F01F008240A9
S214003B80603341F82320704700E100E013B5094C8C
S214003B90684600F037F8237853B9DDE900010222C1
S214003BA0054B1DF0DDFD08B90123237002B010BDE2
S214003BB01220FBE7352A0020D015002007B5009319
S214003BC013460A46014603481DF019FB03B05DF88C
S214003BD004FB00BFD015002013460A4601460148E4
S214003BE01DF0F9BBD015002007B5009313460A4612
S214003BF0014603481DF0E7FC03B05DF804FB00BF78
S214003C00D01500200249034A0160521A42607047EC
S214003C10603C002000800020BFF35F8F074B5A6A8D
S214003C2022F480325A62D3F8942022F00102C3F8BC
S214003C309420BFF34F8FBFF36F8F704700ED00E007
S214003C4038B5FFF7E9FF274A2748D2F8C030274D96
S214003C5023F0FF0343F0A003C2F8C030244B0468EF
S214003C609D4204F101011DD1224BC2F89840C2F8D2
S214003C709C3003F5FF437E33C2F8A0300160BFF3EB
S214003C805F8F0522174BC3F894205A6A42F480329D
S214003C905A62BFF34F8FBFF36F8FBFF34F8FBFF3E1
S214003CA06F8F38BD23F01F03203BB3F1005F09D3AD
S214003CB0C2F898400F4C43F00103C2F89C40C2F88B
S214003CC0A03001600C4B0168064A23F01F0343F046
S214003CD00303C2F89810C2F89C30084B0131C2F8B2
S214003CE0A030CBE700ED00E0F8150020202E0020E5
S214003CF0402C0020030000203F2E0020E17F002003
S214003D002DE9F0410D461146DFF8E080D8F8004076
S214003D10B4F5807F34BF00271A27FFF77DFF1F29E1
S214003D202ED90021C2061CBF20F01F0020302E4EC8
S214003D30EB0618BF25F01F05CBB29C4235D8D6F847
S214003D40C03020F01F0023F47F4343F48073C6F88E
S214003D50C03040F003042AF06BFED8F8003025F09F
S214003D601F0141F00301C6F89830C6F89C40C6F81B
S214003D70A0102AF058FED8F800300133C8F80030FA
S214003D80BFF35F8F0522184BC3F894205A6A42F49B
S214003D9080325A62BFF34F8FBFF36F8FBFF34F8FE0
S214003DA0BFF36F8F3846BDE8F081C6F89830D6F876
S214003DB09C30D6F8A02023F01F03984222F01F0262
S214003DC001D195420BD0904201D89D4209D2D6F837
S214003DD09830013123F0FF03C6F89830ACE700278F
S214003DE0CEE72827CCE700BF00ED00E0F81500205E
S214003DF0BFF34F8F0549064BCA6802F4E0621343CF
S214003E00CB60BFF34F8F00BFFDE700BF00ED00E0C3
S214003E100400FA0538B5416004462AF000FE05465F
S214003E20214604481CF07EFB2846BDE838402AF0B0
S214003E30F1BD00BFFC15002001481CF070BB00BFA0
S214003E40FC15002070B52AF0EAFD124D0446124813
S214003E502AF007FE2E7886B9FFF7EEFF2AF0C0FE9E
S214003E600E4B1E602AF09CFA0D4B0E4A1860536FDC
S214003E7043F0010353671DF093FC00F077F81DF044
S214003E80A6FC094B1860012320462B702AF0C2FDC1
S214003E90002070BD422A0020C0EF0200001600205D
S214003EA028160020004000500416002038B50446AE
S214003EB02AF0B5FD0F4D02462B78FF2B04D1B4B186
S214003EC0BDE838402AF0A6BD1BB9002CF8D0012169
S214003ED003E0002C0CBFFF2101210B44DBB22B704A
S214003EE0B3FA83F304495B0910460B70E8E71946FA
S214003EF0F3E700BF3F2A00203E2A0020054B1B6840
S214003F005843054B00F5742000F23F20B0FBF3F059
S214003F10704700BF2816002040420F0073B5114EB0
S214003F200446337883420FD04FF400730E4DADF83D
S214003F30043058B101A8FFF741F84020FFF7DEFF34
S214003F402B68181A2860347002B070BD8DF8050012
S214003F5001A8FFF733F84020FFF7D0FF2B6818447E
S214003F60F0E700BF523000206016002073B5002432
S214003F7001A88DF80440FFF7C3F82046FFF7CEFFF0
S214003F802C4B2D4AD3F8003103F0030313604FF493
S214003F9000222A4B5A664FF400325A6629F03CFF3C
S214003FA04FF4C870FFF7AAFF254B264A186026492B
S214003FB013680134E4B20A2C41F8040BF9D1034427
S214003FC000EBC00003441360204B214D1B7813B355
S214003FD0184BD3F8003103F00303022B23D0032B36
S214003FE024D0012B17D129F0BBFC024698B1194BFF
S214003FF0194EDC6800231946C4F30B04013404EBA5
S21400400084040138E4FB060105F0FAFCFFF776FFAE
S2140040102B6803442B601F20FFF770FF2B680344B8
S2140040202B6002B070BD29F0A5FCDEE729F09EFCEF
S214004030DBE700BF008000506C16002000900050A8
S2140040402C1600203016002034160020462A0020A9
S2140040506016002000C0015040420F000122154BA0
S21400406010B55A67144B154C1B7813B302202AF070
S214004070A8FDF0B12AF0F8F9D8B1A36DD90302D59E
S214004080E36D9A0715D40D4B9B6DDB0711D4012207
S2140040900B4B1A702AF089FDBDE81040094B0A4AFE
S2140040A01860136F23F0070343F00303136729F028
S2140040B03DBC10BD00D00050472A002000C0005074
S2140040C0442A00205C160020008000500122014B8C
S2140040D01A707047472A002070B52AF0A9FC144EC3
S2140040E005463478FCB9134B1C60134B1C60134B0D
S2140040F01C6000F047F801202AF09EFA2AF090FA99
S2140041000F4B0246186020B928462AF08CFC232064
S21400411070BD234640F2E7310A4805F071FC0A4BB1
S21400412018600123337028462AF07DFC0020EFE754
S2140041304A2A0020801600207C16002088160020C0
S2140041408416002018FCFFFF78160020012300B517
S2140041508DB08DF80F302AF029F900230146CDE9FD
S2140041600033074A0DF10F0304A82AF0FAFC18B929
S2140041709DF80F30002BFBD10DB05DF804FB00BF9F
S2140041801FEB02001FB50024194B18689A8802908E
S214004190D3F806009B7A00901648ADF80C208DF8F0
S2140041A004302AF05EFC02A88DF808408DF80C401A
S2140041B0FFF7ACFA694601208DF80040FFF762FA77
S2140041C040F2FF320C4B9A615A614FF0B042936A4C
S2140041D013F00803FBD113620120FFF76DFA0C20E1
S2140041E0FFF7C6FC0C20FFF7A7FC04B010BD00BF0D
S2140041F0D3EF0200B8EF02000020005810B52AF0F6
S21400420017FC4FF0B04304465B695A06074A03F0B2
S214004210010003F0510348BF40F0020053612AF04A
S21400422039F92046BDE810402AF0FDBB00200058B2
S21400423038B508460C4628F01EFD034620B994E81B
S2140042400700024D85E80700184638BD8C1600208A
S21400425070B5032916461C46049D01D9212070BD61
S21400426002D128F002FD01460C4B9A7A8A42F5D913
S214004270186809B201EB410100EB810116B1B1F9F2
S2140042800430338014B1B1F9063023800DB9002014
S214004290E5E7B1F908302B80F9E700BF8C1600205F
S2140042A02DE9F0432A48079F847A94424CD9066841
S2140042B002EB42024FEA820C16EB820246D050898D
S2140042C0002843D0B2F90440B2F906508C42B2F945
S2140042D008E02FDCA942A8BF2946BEF1000F35D062
S2140042E000F1FF381FFA88F80EFB08490A1B92FBFC
S2140042F0FEF24D45D8BF404692B2904202D3A94244
S21400430018BF104656F80C2052F8206002EB800CBE
S21400431018B15CF8048D46450ED08D421EBF1EFBBC
S21400432000F1091909B2994209DC00203E60B98003
S214004330BDE8F0832146D0E7013880B2E8E70028E0
S214004340F3D0013880B2DFE70E20F1E70220EFE776
S2140043508C16002008B506494FF0FF30FFF768FFBF
S214004360BDE8084001214FF0FF3028F086BC00BFB2
S214004370E0EF02007FB50022084B0949CDE9012392
S2140043804FF04073CDE90313032301A94FF0FF302C
S214004390059328F097FC07B05DF804FB006A180048
S2140043A0000302001B0603F0706300F00F00090212
S2140043B0034301F47061120402F470220B431343AA
S2140043C0014A1360704700BF0020025C60B50546D6
S2140043D019B10139B1F5806F0FD2094EF06810F4AB
S2140043E08030FBD143EA012312072B4302F08052B0
S2140043F0134343F00043736060BD0120FCE700BF39
S2140044000020025C0122054B9A60DA68D203FCD4D5
S214004410D86820F00F000004000C70470020025CF3
S214004420014B1868704700BF0040025C014B58689B
S214004430704700BF0010025C014B186B704700BF4E
S2140044400010025C014B1868704700BF0010025C49
S214004450014B9860704700BF0010025C014B186467
S214004460704700BF0010025C014B5864704700BFE5
S2140044700010025C014B5863704700BF0010025CDE
S2140044800022014B1A6070470010025C024A136853
S21400449043F00103136070470010025C024A136881
S2140044A023F00103136070470010025C43F204021D
S2140044B0014B1A60704700BF0010025C024A136886
S2140044C043F03003136070470010025C044B1A6818
S2140044D042F480721A601A6822F480721A6070477A
S2140044E00010025C024A136843F48063136070474E
S2140044F00010025C034A136823F4702343EA004367
S214004500136070470010025C044B1A6902605A6917
S21400451042609A698260DB69C36070470010025C83
S2140045200268044B1A6142685A6182689A61C268DE
S214004530DA6170470010025C024B1A6BD207FCD49B
S214004540186270470010025C0322024B1860196163
S2140045505A6370470000025C82B01FB507930A9B3F
S21400456004AC8B4228BF0B4604E907001048D10074
S214004570079948BF03330160099948BF23F0030336
S21400458023F0704301F0E041194341F0005181608F
S214004590002102F0E042019C1A4342F00052C16042
S2140045A004618261416304B0BDE8104002B0704708
S2140045B00000025C3F22034B1A631022DA610322DA
S2140045C09A6370470000025C024AD36B9B07FCD4D8
S2140045D0704700BF0000025C044B9B6A13F0240F78
S2140045E014BF012000208000704700BF0000025C5E
S2140045F008B5FFF7F1FF064BDB6B23F47F4323F090
S214004600EF0303431EBF0122024BC3F8FC2F08BD75
S2140046100000025C00F0FF3F4368182B0AD0202BF6
S2140046201DD0102B2BD1174BD3F80434DB010AD442
S21400463001207047134BD3F804349A01F8D50B6861
S21400464043F008030B6003680F4A934210D10B68CF
S21400465043F040030B600023436000207047094B83
S214004660D3F804345B01E3D50B6843F00403E9E7B1
S214004670064A9342F1D10B6843F08003EAE707202D
S214004680704700BF0000025C4C2A00204B2A002026
S2140046900B4607B50749D1F80414C90708D5002109
S2140046A000920246084600F05BF803B05DF804FB93
S2140046B00120FAE70000025C1346064AD2F80424FA
S2140046C0D20504D50A46014600201DF0F7BA01209F
S2140046D0704700BF0000025C13B5084CD4F80444D1
S2140046E0E40508D5009313460A460146002000F06C
S2140046F061F802B010BD0120FBE700BF0000025CBD
S21400470013B5084CD4F80444E40508D500931346C2
S2140047100A460146002000F071F802B010BD0120E4
S214004720FBE700BF0000025C70B504460D46164667
S2140047308CB00A4A09AB07CA83E807001A46214626
S214004740CDE90563CDE90333CDE9013300954FF498
S21400475080301DF0DFF90CB070BD00BF88F002009D
S214004760F0B51C465B6815468DB01A07129E1AD126
S214004770CBB17268934216D10C4B0D4A53F8217098
S21400478009AB07CA83E807001A462946CDE9053370
S214004790CDE90333CDE90163009447F480701DF042
S2140047A0B9F90DB0F0BD0720FBE700BF94F002009A
S2140047B088F00200F0B516465A688DB0102A0D46ED
S2140047C0129F15D17A68102A12D10A4A09AC07CA74
S2140047D084E8070022462946CDE90547CDE903448B
S2140047E0CDE90144044800961DF094F90DB0F0BDE3
S2140047F00720FBE788F0020030000100F0B51646FF
S2140048005A688DB0102A0D46129F15D17A68102A64
S21400481012D10A4A09AC07CA84E80700224629468C
S214004820CDE90574CDE90344CDE90144044800967A
S2140048301DF070F90DB0F0BD0720FBE788F0020010
S2140048401000010082B070B586B0149D03AE202D16
S21400485086E807000B9359D805EB85038B4203D0F7
S21400486006236B438B4253D10C9BAB4250D10F9B1C
S214004870B3EB450F4CD1129A934249D101222946F7
S2140048802220159BFFF7A2FD044630BB03460622F6
S2140048900E210C20FFF786FD0123CDE900332B46C1
S2140048A096E807001DF0B5F80E230BAA009307CA7A
S2140048B02B461CF0F9FF0C23164C00930EAA2B4631
S2140048C007CA1DF021F8636823F07F0343F0260330
S2140048D06360FFF797FD30B10624204606B0BDE8BA
S2140048E0704002B07047636823F07F0343F02203F2
S2140048F06360FFF787FD04460028EDD1062311AA62
S214004900009307CA2B461DF032F8E6E70124E4E7D9
S2140049100724E2E70020025C70B598B0002843D078
S2140049202C4C08AD0FCC0FC50FCC0FC50FCC0FC548
S21400493094E80F0085E80F006D4604AE04F11003FE
S21400494020340FCB85E80F0094E80F0086E80F00B0
S214004950FFF7BCFD0420FFF7CDFDFFF7A7FD3046AF
S214004960FFF7DEFD002408AE56F8040B0134FFF70F
S214004970E3FD102CF8D1FFF759FD0328FBD90024DE
S214004980FFF77EFD2646FFF74BFD55F8043B013644
S2140049905840042E44EA0004F5D12CB1012206202A
S2140049A00D4B1A7018B070BDFFF790FD0820FFF78A
S2140049B04FFD0020FFF752FD0720FFF755FD4FF48F
S2140049C00070FFF757FD0820FFF794FDFFF75EFD28
S2140049D00020E7E770F102004E2A002008B5FFF736
S2140049E075FD0122014B1A7008BD00BF4D2A00203C
S2140049F01FB51DF0E2FA044630B1012206240D4B25
S214004A001A70204604B010BDFFF70AFD0090FFF7AD
S214004A1007FD0190FFF704FD0290FFF701FD0390EC
S214004A206846FFF77DFDFFF7D9FFFFF747FDFFF765
S214004A3059FDE6E74E2A002006289ABF014B185C6F
S214004A4000207047D0F102004FF40052034B0020C4
S214004A509A660322C3F86022704700BF0090005099
S214004A604FF40052034B00209A660322C3F86022DC
S214004A70704700BF00A0005000F01F02A0F50620FF
S214004A80A0F55060812810D80123094940099340B9
S214004A9051F820201A4341F82020064951F82020DA
S214004AA022EA030241F8202070474FF0FF3070479B
S214004AB0B01600209C16002000F01F03A0F506206C
S214004AC0A0F55060812810B519D801210D4A40097B
S214004AD0994052F820300B430B4942F82030D1E978
S214004AE0004323448C682344CC68096923445B183C
S214004AF004D1C2E90033C2E90233136110BD4FF09E
S214004B00FF30FBE79C160020B01600202DE9F04F82
S214004B10A7B003921F4604460822CDE9040141408F
S214004B2021FA02F34B40980702F1080218BF9B00D7
S214004B30202A1C44F4D18123B4FBF3F303EBC31304
S214004B40E41A7F4B04F506241B7804F55064002B0A
S214004B5039D1FDF769FA054600286FD10146402293
S214004B6006A81EF0B5FC2946402216A81EF0B0FC8A
S214004B70744D754EA8461035AE4228BF2E46734873
S214004B80013E009643461022006806A91CF096F8DF
S214004B904FF0000B81460DF1180AD94541D16B48FC
S214004BA0009643461022006816A91CF090F84FF0B5
S214004BB00008834616AEC34546D1654B9D42D8D104
S214004BC001225F4B1A704FF081080026DFF894B17F
S214004BD0A4F50625A5F550635B095BF8232004F0D1
S214004BE01F01CA40D20746D45A4A52F82330CB4057
S214004BF0DB0732D58123002E08BF2646A5F6FF44E4
S214004C00B4FBF3F303EBC313E41A04F50624B8F17C
S214004C10010804F55064DBD1039B03B3FEB13446B0
S214004C2025E05AF8040BFFF727FF013009D10022D0
S214004C30434B1A70424B1B78002BC4D16FF0910087
S214004C400FE00BF1010BA8E756F8040BFFF734FF53
S214004C500130EFD008F10108ADE7039B23B96FF0F0
S214004C608B0027B0BDE8F08F002E18BF3446329B6D
S214004C7000201C60F5E7309B13B10023309A1360C8
S214004C80319B13B10023319A13604FF0100ADFF8FE
S214004C90BC90CDF800A000233A462146D9F8000083
S214004CA0FCF7C4FF002838D130993A682A4BE9B19E
S214004CB09A42C1F800A01CD02146D9F80000FDF7A2
S214004CC00FF90028CBD1D7E90223DDE9041083428F
S214004CD008BF8A422AD08123A5F6FF45B5FBF3F329
S214004CE003EBC313ED1A05F5062490E79A42EAD0C3
S214004CF0E2E7319B002BE6D02146D9F8000016AA41
S214004D00FCF7DAFF48B9319B309A1B681268934269
S214004D1094D39B1A319A1360D5E7104B9842CBD0A8
S214004D206328C9D00E4B9842CDD087E7039B002B53
S214004D309DD07B68012B9AD16FF0840091E700BF6D
S214004D404F2A0020006D0800816D0800502E0020BC
S214004D50906D08009C160020105D175EFFDF00F0C7
S214004D60FEDF00F0B01600202DE9F04F87B0824637
S214004D70894698461646DDF840B02AB1002B53D037
S214004D8040F26C739A4252D8BBF1010F52D80024FD
S214004D9006F110073946012005941CF030FC054644
S214004DA000284AD021463A461EF092FB05ABCDE9D4
S214004DB0014300942B46012250464946FFF7A6FEC3
S214004DC0044680B110F18C0F08BF6FF08D043A4690
S214004DD0002128461EF07CFB28461CF0F2FB2046ED
S214004DE007B0BDE8F08F164BC5E902A92B60C5F8E1
S214004DF004B02EB13246414605F110001EF070FB9D
S214004E00059E10483B462A4631460068FDF724F8C2
S214004E1038B93046FFF730FE013008BF6FF0860421
S214004E20D5E76FF09104D2E76FF08604D7E76FF00E
S214004E309104D4E76FF08504D1E76FF08C04CEE7D9
S214004E40105D175E502E00202DE9F0438DB0814690
S214004E50DDE914780E4615461C469BB1B8F1000FE6
S214004E6005D16FF0860630460DB0BDE8F083002F02
S214004E70F7D0B7F1005FF4D3C3F1005303F5004356
S214004E809F42EED81022002108A81EF021FB002227
S214004E9007AB029305AB019306AB31460093484639
S214004EA008ABCDE90522FFF731FE06460028DAD129
S214004EB0059BA4B1AB4215D853EA0504D1D1069B95
S214004EC00B48C8F8004000943A46079900682B44FF
S214004ED0FCF7ACFE002818BF6FF09106C3E7AB42A4
S214004EE0EDD2BEE75B1B9C4228BF1C46E7E700BF2F
S214004EF0502E002030B58DB00C46054610220021FD
S214004F0008A81EF0E5FA002207AB029305AB019352
S214004F1006AB21460093284608ABCDE90522FFF7ED
S214004F20F5FD044608BB099B012B21D0079D134BBA
S214004F3029461868FCF7D4FFE8B9A5F50623A3F5BB
S214004F405063812B05F01F020DD801210C485B0928
S214004F50914050F823204A4040F823202846FFF787
S214004F60ABFD013001D16FF0860420460DB030BD98
S214004F706FF08404F9E76FF09104F6E7502E0020F6
S214004F80B01600202DE9F04F89B00E4607461CF0FB
S214004F90ADFD04461CF0A2FD04420AD10425012002
S214004FA01DF018F8002834D0013DF8D16FF09200BB
S214004FB02CE0102200210DEB02001EF089FA04A856
S214004FC01CF096FD049B002BE8D0059B002BE5D03B
S214004FD0069B002BE2D0079B002BDFD00025DFF8D6
S214004FE0A08008F10409B54224D34FF48A751CF05A
S214004FF07BFD04461CF06AFD2040062836D11CF0D6
S2140050006AFD044201D01CF06BFD002009B0BDE82B
S214005010F08F1CF069FD04461CF058FD04EA0003FE
S21400502013F0FF03F5D0022BF3D01CF051FD044221
S214005030D4D0B9E71CF056FDA6EB050A840054450B
S21400504028BF544699E8030000238DE80300CDE905
S214005050054307EB050BCDF810B0029404AAD8F868
S214005060003007CA1CF0AFFE2544BCE71CF02EFD3E
S214005070204008289AD825FA00F0C30796D5B6E748
S214005080FCF102002DE9F0438BB01746DDE915452B
S214005090DDE913269C46DDE91738894621B96FF00D
S2140050A086000BB0BDE8F083002FF8D00EB9002CB8
S2140050B0F5D1129909B9002AF1D10DB9002BEED11C
S2140050C0B8F1000FEBD0244A944541D10288B2F5DE
S2140050D0105F3DD14288B7EBD20FE0D322F04001FB
S2140050E0802902D0B2F5807FD9D16CB3AE421CD2F3
S2140050F03219954219D29C42D1D8314622462846CA
S2140051001EF0CCF92E4614F00F03C8D1CDE9019756
S214005110CDE90336CDE90543CDE907540993FFF7FA
S21400512093FC38B16FF09200BBE79C42EBD96FF06E
S2140051308900B6E707AA04A901A8FFF7A9FA054659
S214005140FFF78EFC0543EDD10020C8F80040A8E725
S2140051506FF08500A5E700BF004440042DE9F04F3E
S214005160A9B0834617469A460E46DDF8C890DDF885
S214005170D88029B96FF08603184629B0BDE8F08FAD
S214005180002AF7D0B9F1000FF4D0349B002BF1D0F1
S214005190B8F1000FEED00024424B0CAD93E80700A8
S2140051A085E807003C22214619A818941EF090F9BD
S2140051B03388728803F4E040B0F5804FDAD03A4E78
S2140051C03A480BEA060646F01066864263D1B2F508
S2140051D0807F60D147F2121293425CD10620344A97
S2140051E0BAF11F0FD3680E940B931369126800FB75
S2140051F003F3CDE90C23BDD9339B402BBAD9359B9D
S2140052001F2B4BD909F1010220261292402299F851
S21400521000300F97042B18AFCDE91324CDE9157293
S214005220109611941794A5D1FFF70EFC034600289C
S214005230A2D10B9B15AACDE9086305AB07CA83E884
S214005240070002AB12AA07CA83E80700DDE91001CF
S2140052508DE803000F9B95E80700FFF7F3FA054675
S214005260FFF7FEFB55EA000384D13D46349A20AE94
S2140052702C4603CCB44210605160254602F1080269
S214005280F6D100221146B9540132402AFBD1202221
S214005290C8F8002070E76FF085036DE76FF08903AC
S2140052A06AE700BF88F002000000FFF6000002096F
S2140052B09CF00200F0B50E461D468BB0002853D079
S2140052C0002951D0002A4FD0002B4DD0048804F47A
S2140052D04F43B3F5824F03D06FF085000BB0F0BD9F
S2140052E0E3B224F0FF04B4F5E24FB0F802C0F3D105
S2140052F0122B01D0172BEFD10CF10701B2EBD10F17
S2140053004FEAD10733D31D4A04ACBCF5807F07CAE9
S21400531084E80700E0D1122B07D1194B1A691B68E5
S2140053201344CDE90432002306930023CDE9076732
S2140053300993FFF789FB0028D0D1124A02AB92E806
S214005340030083E803000AAB13E903008DE80300BB
S214005350079B94E807001CF0BBFC0446FFF780FBA5
S214005360204307D12F60B9E76FF08600B6E76FF0ED
S2140053708900B3E76FF09200B0E700BF88F0020044
S2140053809CF00200F4F102002DE9F0438FB01D46B8
S214005390DDE916C600B121B96FF086000FB0BDE892
S2140053A0F083002AF8D0002BF6D0BCF1000FF3D023
S2140053B0002EF1D0038803F44F44B4F5824F06D193
S2140053C0DCB223F0FF03B3F5824F408802D16FF0C2
S2140053D08500E3E7122C01D0172CF8D1C31DB2EBE1
S2140053E0D30F4FEAD308D7D34FEA4802571C674576
S2140053F03CD8B0F5807FEAD1122C18BF4FF00009D8
S2140054004FF0000308BF1B4CCDE9081805F1010159
S21400541014BF4C46D4F80C90CDE90B120A930D93AA
S214005420FFF712FB0028B9D1CDE9058902AB08AA1F
S21400543007CA83E807000EAB13E903008DE80300F4
S2140054400B9B94E807001CF062FC0446FFF708FB81
S21400545034B1012CBBD0072C9ED06FF092009DE794
S21400546000289BD104232B70376097E76FF08900E4
S21400547094E700BF9CF002002DE9F04389B00E4689
S21400548015461F46DDF8488020B96FF0860009B043
S214005490BDE8F0830029F8D0002AF6D0B8F1000F56
S2140054A0F3D0038803F44F42B2F5824F02D06FF078
S2140054B08500ECE7DAB2122A01D0172AF7D123F0DA
S2140054C0FF03B3F5E24F41D14488C8F8004044B921
S2140054D0EB00B3F5807FC8F80030E8D1122A0DD172
S2140054E008E0E31DB5EBD30FCFD1B4F5807FDED156
S2140054F0122A29D1354B1C681B691C440023194607
S21400550070192C4414F801CD10F8012D1143B2EB9C
S2140055100C020CBF4FF0FF3C4FF0000C86420CEA2A
S214005520030343EA0203EDD10029AED0002BACDA28
S214005530109B9D4246D82A46314638461DF0D0FF7D
S214005540119B00201D60A2E70024D7E73378042BC8
S2140055509BD16B1EDB005B08B3F5807FC8F800307C
S214005560A5D1122A06F1010318BF4FF000094FF02B
S214005570400205934FF000030ABF144C4C46D4F883
S2140055800C90CDE90623FFF75FFA00287FF47FAF83
S214005590CDF80C90D8F800300733DB08029308AB40
S2140055A013E903008DE80300059B94E807001CF050
S2140055B05BFC0446FFF754FA00287FF468AF002C23
S2140055C0B6D062E76FF0890061E700BF9CF002008A
S2140055D00388B3F5105F0ED14388DB08103B102B11
S2140055E00CD8084A22FA03F313F0010F14BF002068
S2140055F06FF0860070476FF0850070476FF086008A
S214005600704700BF010101002DE9F04F8FB015462D
S214005610DDE918A91E46DDF868801C9F09B300B3B3
S214005620B8F1000F1DD0E7B1BAF1000F02D1B9F101
S214005630000F16D1274B26F47E129A42B0F802B01D
S21400564044D1FFF7C5FF0446A8BBB5EBDB0F4FEA16
S214005650DB0306D316F47C1FC6F3054504D0102DD5
S21400566003D96FF0860426E010251B9A95422AD8A7
S214005670CDE9011300231022CDE905930DF1280989
S214005680CDE9033ACDE90823CDF81C90FFF7DCF905
S214005690044680B907AA04A901A8FFF70DF8064634
S2140056A0FFF7DEF9044656B958B92A464946404639
S2140056B01DF016FF3D6020460FB0BDE8F08F6FF07E
S2140056C092040025F6E76FF08904F4E76FF085048E
S2140056D0F1E700BF0002C0032DE9F041069F0C462B
S2140056E01646054610B309B302B9FBB96288B3EB98
S2140056F0D20F4FEAD20819D34C22002128461DF0BB
S214005700E7FE0D4B27F47E129A4212D12046FFF791
S2140057105FFF044638B942463146281D1DF0E0FEBC
S214005720C5F824802F602046BDE8F0816FF086041F
S214005730F9E76FF08504F6E70002C0032DE9F041B3
S2140057400E4614460546002840D000293ED092B1A9
S2140057500368214823F47E1383423AD1AF6BF7B136
S214005760C7F1100807F128004245284406D227440E
S2140057701DF0B6FEAF630020BDE8F08142461DF086
S214005780AFFE1022103C3C19AA63F4D0284605F15F
S21400579028011CF07FFC0028EED14644A863102C9C
S2140057A00CD9671E27F00F073A46314628461CF0EC
S2140057B071FC0028E0D1E41BDDD03E442246314691
S2140057C005F128001DF08CFEAC63D4E76FF0860070
S2140057D0D2E76FF08800CFE70002C0032DE9F04360
S2140057E088461F4605468BB070B169B163B1036841
S2140057F0234923F47E1088423ED113F47C1FC3F362
S214005800054604D0102E03D96FF086042AE0102631
S21400581096422BD8FFF718F9044618BBAB6B05F178
S2140058202802CDE901236B6A2A1DCDE90423102343
S214005830CDE9083007AB1A460390069005F13C09FF
S21400584001A904A8CDF81C90FEF75AFF0546FFF7FD
S21400585007F904466DB928B93246494640461DF058
S2140058603FFE3E6020460BB0BDE8F0836FF0890433
S214005870F8E76FF09204F5E76FF08504F2E700BFF3
S2140058800002C00310B50A46044619B1024B0021B7
S2140058901B68984710BD00BF602E00200E4B0340CB
S2140058A0B3F1607F06D1B1F5885F14BF6FF0860054
S2140058B000207047B3F1707F0BD101F4E043B3F5DD
